:100000000C94EF010C9417020C9417020C94170235
:100010000C9417020C9417020C9417020C941702FC
:100020000C9417020C9417020C9417020C942A2AB1
:100030000C9417020C9417020C9417020C941702DC
:100040000C94D22C0C9417020C94802E0C94CE2E6F
:100050000C9417020C9417020C9417020C941702BC
:100060000C9417020C941702000000006410B71DD6
:10007000C8206E3BAC30D9269041DC76F4516B6BD6
:100080005861B24D3C7105502083B8ED44930FF098
:10009000E8A3D6D68CB361CBB0C2649BD4D2D3864E
:1000A00078E20AA01CF2BDBD43616C63756C61749B
:1000B0006564206D61784C656E6774683A2000460F
:1000C0006972737420776176652068616C66005987
:1000D0006F752070726F6261626C7920776F6E2726
:1000E000742067657420616E792064657461696C41
:1000F00020696E20746869732E0020697320002CBB
:1001000020726F7753697A653A20004D61782064D8
:10011000656E7369747920666F722070656E5369BD
:100120007A653A20004D53472C452C54686973205A
:10013000706F696E742066616C6C73206F75747378
:10014000696465207468652061726561206F66204E
:1001500074686973206D616368696E652E20536BE6
:10016000697070696E672069742E006D6D00436858
:10017000616E6765642050656E20776964746820DD
:10018000746F20004E657720616363656C657261F2
:1001900074696F6E3A20004E6577206D6178207328
:1001A000706565643A200055703A2000446F776EA0
:1001B0003A2000504753504545442C0050474C4985
:1001C00046542C005047535445504D554C544950BB
:1001D0004C4945522C0050475354455053504552BA
:1001E0005245562C0050474D4D5045525245562CC5
:1001F00000504753495A452C002900526563616CF1
:1002000063207061676548656967687420696E205E
:1002100073746570732028002900526563616C63F4
:100220002070616765576964746820696E20737413
:100230006570732028002900292C20737465707361
:100240005065724D4D202800526563616C63206DCE
:100250006D506572537465702028004C6F61646541
:1002600064206D6F746F722073746570206D756C8F
:100270007469706C6965723A004C6F6164656420E2
:10028000757020706F733A004C6F61646564206410
:100290006F776E20706F733A004C6F6164656420F5
:1002A0006D6F746F72207374657073207065722047
:1002B0007265763A004C6F61646564206D6D2070E4
:1002C0006572207265763A004C6F61646564206DDA
:1002D000616368696E65206865696768743A004C97
:1002E0006F61646564206D616368696E652077691C
:1002F0006474683A00206E6F74207265636F676E75
:10030000697365642E004552522C452C0029206EDD
:100310006F74207061727365642E00436F6D6D2081
:1003200028004261642053756D3A005263643A209C
:1003300000504F4C41524752415048204F4E2100EF
:1003400000000000240027002A0000000000250013
:1003500028002B00000000002300260029000404D0
:10036000040404040404020202020202030303035D
:100370000303010204081020408001020408102039
:100380000102040810200000000700020100000321
:1003900004060000000000000000494E46494E4996
:1003A00054594E414ECDCCCC3D0AD7233C17B7D142
:1003B0003877CC2B329595E6241FB14F0A000020E8
:1003C000410000C84200401C4620BCBE4CCA1B0E67
:1003D0005AAEC59D74005908FB2A3A3052081124C0
:1003E0001FBECFEFD8E0DEBFCDBF12E0A0E0B1E08E
:1003F000EAEBF7E702C005900D92A039B107D9F7F3
:1004000015E0A0E9B2E001C01D92AB35B107E1F7FC
:1004100013E0CCEDD3E004C02297FE010E948A3B9A
:10042000C63DD107C9F70E9490300C94D03B0C9484
:100430000000A0E0B0E0EFE1F2E00C94A13BEC01A1
:10044000A880B980CA80DB80A114B104C104D104A2
:1004500041F484E2A82E89EDB82E8BE5C82E87E002
:10046000D82EC601B5012DE133EF41E050E00E94E6
:10047000593B27EA31E440E050E00E94F93A7B0121
:100480008C01C601B5012DE133EF41E050E00E943F
:10049000593BCA01B9012CEE34EF4FEF5FEF0E94D8
:1004A000F93A6E0D7F1D801F911F97FF04C06150A8
:1004B000704080409048688379838A839B839B0146
:1004C000AC015F77B901CA01CDB7DEB7EAE00C94A1
:1004D000BD3B0E94190208958EE192E00E9419022C
:1004E000089560931E0270931F02809320029093E0
:1004F00021020895662777270C943003FC01882792
:100500009927E89421912032E9F3293010F02E3018
:10051000C8F32B3241F02D3239F4689404C00E94A4
:100520002803820F911D219120532A30C0F31EF41D
:10053000909581959F4F08951F93FC0199278827D7
:10054000BC01E89411911032E9F3193010F01E301B
:10055000C8F31B3251F01D3249F4689406C00E9462
:100560001303610F711D811D911D119110531A30DC
:10057000B0F33EF490958095709561957F4F8F4FC5
:100580009F4F1F910895FB01DC0102C001900D9265
:1005900041505040D8F70895FB01DC018D91019046
:1005A00080190110D9F3990B0895FB01DC0101902A
:1005B0000D920020E1F70895FB01DC01415050400D
:1005C00030F08D910190801919F40020B9F7881B43
:1005D000990B0895FB01DC014150504048F0019017
:1005E0000D920020C9F701C01D9241505040E0F724
:1005F0000895FB0151915523A9F0BF01DC014D91F4
:1006000045174111E1F759F4CD010190002049F05F
:100610004D9140154111C9F3FB014111EFCF81E02C
:1006200090E001970895592F482F372F262F660FF6
:10063000771F881F991F660F771F881F991F620FEA
:10064000731F841F951F660F771F881F991F0895BA
:100650007AE0979F902D879F802D910D112408950A
:10066000A0E0B0E0E6E3F3E00C949F3BEC015B011B
:100670006115710519F0FB0191838083F9908F2D2D
:1006800090E00E948E3B892BC9F7FDE2FF1621F412
:10069000F990EE24E39405C02BE2F21609F4F990E8
:1006A000EE248E0101501040C8016AE973E043E076
:1006B00050E00E949004892B01F58E010E5F1F4FC0
:1006C000C8016DE973E045E050E00E949004892B79
:1006D00019F48E01095F1F4FA114B10419F0F5013F
:1006E00011830083E0FC04C070E090E080E814C057
:1006F00070E090E080E86FEF08C1C80162EA73E043
:1007000043E050E00E949004892B69F4A114B104E5
:1007100029F470E090E080EC6FE7F7C02296F501D5
:10072000D183C083F6CF8824992440E050E060E074
:1007300070E0EF2DE053EA30A0F5F2E0EF2A8E2DC5
:1007400090E09C0128703070E2FE06C0232B79F502
:100750000894811C911C2BC0232B19F0089481084C
:100760009108DB01CA0112E0880F991FAA1FBB1F65
:100770001A95D1F7480F591F6A1F7B1F440F551F49
:10078000661F771F4E0F511D611D711D483929E9E4
:10079000520729E9620729E1720748F084E0E82A54
:1007A00006C0EE3F31F4E3FC39C098E0E92AF99045
:1007B000C0CFE53311F0E53189F529912D3219F4D7
:1007C000E0E1EE2A05C02B3219F081E090E003C091
:1007D000299182E090E0E22FE053EA3018F0C81B44
:1007E000D90B1CC020E030E0FCE020383F075CF46F
:1007F000C901880F991F880F991F280F391F220FD1
:10080000331F2E0F311DE991E053EA3068F3E4FE07
:1008100003C0309521953F4F820E931ECE2CDD24D0
:10082000E1FE07C0A114B10421F02197F501D183A5
:10083000C083CB01BA010E9477397B018C01F3E0C0
:10084000CF22DD2423E0C216D10421F417FB10953A
:1008500017F9109557016801C801B70120E030E091
:1008600040E050E00E94DA38882309F44AC097FE3D
:100870000DC029EBE22E23E0F22E90948194910892
:100880009394C0E2D0E000E010E012C091EDE92EB8
:1008900093E0F92EF6CFF7012591359145915491CA
:1008A000C601B5010E942D3A5B016C018C1A9D0AAC
:1008B0008C169D0684F7D595C7950F5F1F4F0630A0
:1008C000110529F08CEF9FEFE80EF91EF1CFC5015D
:1008D000D6017C018D018C2D880F8D2D881F8F3FB7
:1008E00051F0C601B50120E030E040E050E00E9448
:1008F000DA38882331F482E290E090935A058093AD
:1009000059057E2D9F2D802F612F272F392F482F9E
:10091000562FB901CA01CDB7DEB7ECE00C94BB3B52
:10092000FB01DC014150504088F08D9181341CF076
:100930008B350CF4805E659161341CF06B350CF4E2
:10094000605E861B611171F3990B0895881BFCCFC3
:10095000AF92BF92CF92DF92EF92FF920F931F93CD
:100960006E157F058007910734F42E153F0540076B
:10097000510764F42CC0E616F7060807190794F42B
:10098000A216B306C406D5063CF423C0A216B306CD
:10099000C406D506BCF41FC02A153B054C055D05F1
:1009A000C4F41BC06E157F058007910791F42A15CA
:1009B0003B054C055D058CF0A216B306C406D506B2
:1009C00044F409C02A153B054C055D0511F484E08B
:1009D00005C082E003C083E001C081E01F910F9158
:1009E000FF90EF90DF90CF90BF90AF9008956F92FF
:1009F0007F928F929F92AF92BF92CF92DF92EF92AF
:100A0000FF920F931F93CF93DF937C015B016627C7
:100A100057FD6095762FCB01BA010E9479393B01D1
:100A20004C010027F7FC0095102FC801B7010E9468
:100A300079397B018C01CC24B7FCC094DC2CC60135
:100A4000B5010E9479399B01AC01C801B7010E9430
:100A5000DE38A40193010E942D3A9B01AC01C40130
:100A6000B3010E9475387B018C010E944639EB016D
:100A7000BE01882777FD8095982F0E9479399B01C8
:100A8000AC01C801B7010E94753820E030E040E0B9
:100A90005FE30E94293A18160CF42196CE01DF91EB
:100AA000CF911F910F91FF90EF90DF90CF90BF906B
:100AB000AF909F908F907F906F9008952F923F926C
:100AC0004F925F926F927F928F929F92AF92BF925E
:100AD000CF92DF92EF92FF920F931F931B012C0195
:100AE00039014A0160919C0270919D0280919E02A1
:100AF00090919F020E9479397B018C01A801970196
:100B00000E942D3A5B016C01C401B301A401930161
:100B10000E942D3A9B01AC01C601B5010E947538B7
:100B20005B016C01C201B101A20191010E942D3A49
:100B30009B01AC01C601B5010E9476385B016C01D6
:100B4000C801B701A80197010E9476389B01AC014A
:100B5000C601B5010E94DE381F910F91FF90EF9002
:100B6000DF90CF90BF90AF909F908F907F906F90CD
:100B70005F904F903F902F9008950F931F93CF93C6
:100B8000DF93242F2627A22FB0E0AF70B070AA0FFA
:100B9000BB1FAA0FBB1FC8E6D0E0AC0FBD1FFD01F5
:100BA0000591159125913491E4E096958795779577
:100BB0006795EA95D1F70627172728273927429501
:100BC0004F70402750E04F705070440F551F440F36
:100BD000551F4C0F5D1FFA0185919591A591B49118
:100BE00044E036952795179507954A95D1F708273C
:100BF00019272A273B27B801C901DF91CF911F91FF
:100C00000F910895EF92FF920F931F9381309105FA
:100C100009F094C16F5F7F4F09F03FC289E593E00F
:100C200060E071E00E94B13580E992E00E94B32853
:100C30002091220230912302442737FD4095542F02
:100C40006091280270E080E090E00E94F93A0E94F2
:100C500079397B018C016091240270912502809189
:100C6000260290912702A80197010E94DE38609326
:100C70009402709395028093960290939702C80114
:100C8000B701209124023091250240912602509113
:100C900027020E94DE387B018C01609398027093DA
:100CA000990280939A0290939B026091380270910E
:100CB0003902882777FD8095982F0E947939A801FD
:100CC00097010E942D3A0E94463960939C027093CE
:100CD0009D0280939E0290939F0260913A027091D0
:100CE0003B02882777FD8095982F0E947939A801CB
:100CF00097010E942D3A0E9446396093A00270939A
:100D0000A1028093A2029093A30280E693E064E0A4
:100D100071E00E94B13587E693E067E371E00E94DD
:100D2000B1358EE693E067E371E00E94B13585E767
:100D300093E067E371E00E94B1358CE793E067E3ED
:100D400071E00E94B13583E893E066E471E00E94AF
:100D5000B1358AE893E06CE471E00E94B13581E935
:100D600093E063E571E00E94B13588E993E06BE5BB
:100D700071E00E94B1358FE993E066E671E00E9470
:100D8000B13586EA93E06CE671E00E94B1358DEAF8
:100D900093E061E771E00E94B13584EB93E064E792
:100DA00071E00E94B1358BEB93E067E771E00E9440
:100DB000B13582EC93E063E873E00E944E3681EB3C
:100DC00092E06AE771E00E94B13589EC93E06BE74D
:100DD00071E00E94B13580ED93E06DE771E00E9413
:100DE000B13587ED93E062E871E00E94B1358EED98
:100DF00093E066E871E00E94B13585EE93E06AE821
:100E000071E00E94B1358CEE93E06EE871E00E94D3
:100E1000B13583EF93E062E971E00E94B1358AEF6A
:100E200093E066E971E00E94B13581E094E06AE9FF
:100E300071E00E94B13588E094E06EE971E00E94B3
:100E4000B1358FE094E062EA71E00E94B13586E14D
:100E500094E066EA71E00E94B1358DE194E06AEABF
:100E600071E00E94B13584E294E06EEA71E00E9484
:100E7000B1358BE294E062EB71E00E94B13582E320
:100E800094E066EB71E00E94B13589E394E06AEB8F
:100E900071E00E94B13580E494E06EEB71E00E9455
:100EA000B13587E494E062EC71E00E94B1358EE4E4
:100EB00094E066EC71E00E94B13585E594E06AEC5F
:100EC00071E00E94B1358CE594E06EEC71E00E9417
:100ED000B13583E694E062ED71E00E94B1358AE6B7
:100EE00094E066ED71E00E94B13581E794E06AED2F
:100EF00071E00E94B135609122027091230289EB6A
:100F000092E041E00E94642C6091220270912302E1
:100F100085EC92E042E00E94642C81ED92E06AE56B
:100F200075E143E555E10E94382485E193E06CE4E6
:100F300075E145E455E10E943824AFC0892B09F0E2
:100F4000ACC06F5F7F4F09F0A8C081E794E00E94BA
:100F500059368AE694E00E94593683E694E00E946E
:100F600059368CE594E00E94593685E594E00E945C
:100F700059368EE494E00E94593687E494E00E944A
:100F8000593680E494E00E94593689E394E00E9447
:100F9000593682E394E00E9459368BE294E00E9435
:100FA000593684E294E00E9459368DE194E00E9423
:100FB000593686E194E00E9459368FE094E00E9411
:100FC000593688E094E00E94593681E094E00E940E
:100FD00059368AEF93E00E94593683EF93E00E94DE
:100FE00059368CEE93E00E94593685EE93E00E94CC
:100FF00059368EED93E00E94593687ED93E00E94BA
:10100000593680ED93E00E94593689EC93E00E94B6
:10101000593681EB92E00E94593682EC93E00E94AF
:1010200059368BEB93E00E94593684EB93E00E9493
:1010300059368DEA93E00E94593686EA93E00E9481
:1010400059368FE993E00E94593688E993E00E946F
:10105000593681E993E00E9459368AE893E00E946C
:10106000593683E893E00E9459368CE793E00E945A
:10107000593685E793E00E9459368EE693E00E9448
:10108000593687E693E00E94593680E693E00E9445
:10109000593689E593E00E9459361F910F91FF90D0
:1010A000EF90089580E090E06FEF7FEF0E940206DE
:1010B000089581E090E06FEF7FEF0E9402060895AF
:1010C000CF92DF92EF92FF920F931F93CF93DF9314
:1010D0006C01C0E0D0E0EE24EA94FE2C87010CC045
:1010E000C601BE010E944534482FC801B7010E94C5
:1010F000BD057B018C012196F60184819581C8177D
:10110000D90770F3A8019701209530954095509527
:10111000B901CA01DF91CF911F910F91FF90EF901C
:10112000DF90CF900895AF92BF92CF92DF92EF926F
:10113000FF920F931F937B018C01CA01B9010E949A
:101140002D3A5B016C01C801B701A80197010E940B
:101150002D3A9B01AC01C601B5010E9475380E9471
:10116000943A1F910F91FF90EF90DF90CF90BF9036
:10117000AF900895AF92BF92CF92DF92EF92FF921D
:101180000F931F937B018C0159016A0160919C02AE
:1011900070919D0280919E0290919F020E947939E8
:1011A000A80197010E9475389B01AC010E942D3A5D
:1011B0007B018C01C601B501A60195010E942D3A63
:1011C0009B01AC01C801B7010E9476380E94943A95
:1011D0001F910F91FF90EF90DF90CF90BF90AF9055
:1011E0000895AF92BF92CF92DF92EF92FF920F934A
:1011F0001F937B018C0159016A01A80197010E948C
:101200002D3A7B018C01C601B501A60195010E9412
:101210002D3A9B01AC01C801B7010E9476380E94AB
:10122000943A1F910F91FF90EF90DF90CF90BF9075
:10123000AF9008952F923F924F925F926F927F925C
:101240008F929F92AF92BF92CF92DF92EF92FF92D6
:101250000F931F93DF93CF9300D000D0CDB7DEB7AD
:1012600069837A838B839C8359016A011701280162
:10127000611571058105910559F40F2EF0E0EF2EEF
:10128000F0E0FF2EF0E00F2FF0E01F2FF02DA4C0B4
:10129000CA01B9010E942D3A7B018C01C601B5013A
:1012A00020E030E040E050E00E94DA38882324F467
:1012B00017FB109517F91095C201B101A201910118
:1012C0000E9476383B014C01C801B701A40193018B
:1012D0000E94DE387B018C0169817A818B819C813F
:1012E0000E9479399B01AC01C801B7010E94DA382C
:1012F0008823B4F5C601B50120E030E040E050E0BD
:101300000E94DA38882329F4C401B3010E94943A78
:101310000DC0C201B101A60195010E94DE389B01FA
:10132000AC015F77C601B5010E9476387B018C0164
:10133000D0902902C0902A02B0902B02A0902C02DB
:101340002D2D3C2D4B2D5A2D0E94293A18160CF0AC
:1013500043C08D2D9C2DAB2DBA2D7C018D013CC041
:10136000C601B50120E030E040E050E00E94DA38EC
:10137000882359F4C401B3010E94943A7B018C0183
:1013800017FB109517F910950FC0C201B101A60106
:1013900095010E94DE389B01AC015F77C601B50163
:1013A0000E9475387B018C018091290290912A025C
:1013B000A0912B02B0912C025C016D01D7FAD09460
:1013C000D7F8D094C801B701A60195010E94DA3878
:1013D000882314F486017501B701C8010F900F909E
:1013E0000F900F90CF91DF911F910F91FF90EF9091
:1013F000DF90CF90BF90AF909F908F907F906F9035
:101400005F904F903F902F900895809134028823F1
:10141000C1F183E395E06FE973E00E94753381EDDC
:1014200092E00E9492222091280230E040E050E0B9
:101430000E94593B83E395E0BA01A9012AE030E01C
:101440000E94DF3183E395E069EC73E00E9475331D
:1014500085E193E00E9492222091280230E040E052
:1014600050E00E94593B83E395E0BA01A9012AE0CC
:1014700030E00E94DF3183E395E060ED73E00E948D
:10148000A833089583E395E06AE873E00E94A833E7
:10149000089583E395E063E873E00E94A83308951C
:1014A000CF93DF93EC01AB01662757FD6095762F54
:1014B0000E94292407C080913502882319F0CE01AB
:1014C0000E947728CE010E94822261157105810554
:1014D000910589F70E941A2D6093A9027093AA02C0
:1014E0008093AB029093AC02DF91CF910895EF927D
:1014F000FF920F931F938091A4029091A502A09157
:10150000A602B091A7020097A105B10509F040C05D
:1015100060919C0270919D0280919E0290919F0229
:101520000E9479397B018C016091A0027091A10227
:101530008091A2029091A3020E9479399B01AC0193
:10154000C801B7010E94F10820E030E040E05FE30D
:101550000E9476380E9446396093A4027093A502D7
:101560008093A6029093A70283E395E068EA70E077
:101570000E94C9304091A4025091A5026091A60238
:101580007091A70283E395E02AE030E00E941F32C9
:101590006091A4027091A5028091A6029091A70289
:1015A0001F910F91FF90EF9008952F923F924F92CD
:1015B0005F926F927F928F929F92AF92BF92CF92E3
:1015C000DF92EF92FF920F931F937B018C015901E1
:1015D0006A010E941A2D6093A9027093AA02809357
:1015E000AB029093AC0281ED92E00E947A251B0140
:1015F0002C0185E193E00E947A253B014C0181EDAD
:1016000092E040E050E060E070E00E94F52485E167
:1016100093E040E050E060E070E00E94F524C801F3
:10162000B7010E9479390E944639AB01BC0181EDB6
:1016300092E00E941724C601B5010E9479390E94E8
:101640004639AB01BC0185E193E00E9417248091EB
:101650003102882309F042C081ED92E00E947A2590
:1016600020E030E040E050E00E94DA38882324F4A3
:1016700057FA509457F8509485E193E00E947A25E8
:1016800020E030E040E050E00E94DA38882324F483
:1016900097FA909497F8909481ED92E0B201A101AD
:1016A0000E94F52485E193E0B401A3010E94F52492
:1016B00015C080913102882349F081ED92E00E94AB
:1016C000772885E193E00E94772808C081ED92E0B9
:1016D0000E94532885E193E00E94532881ED92E017
:1016E0000E948222611571058105910549F485E109
:1016F00093E00E948222611571058105910529F010
:1017000080913502882351F3D4CF0E94050A1F919E
:101710000F91FF90EF90DF90CF90BF90AF909F9090
:101720008F907F906F905F904F903F902F90089593
:101730008F929F92AF92BF92CF92DF92EF92FF92E1
:101740000F931F93CF93DF935C016B01EA01490173
:10175000E114F104C9F483E395E06FEB70E00E94BB
:101760000C3180914102882331F0CE0162E070E0BB
:101770000E94243B2BC0CE0162E070E00E94243B1B
:10178000709561957F4F22C080914102E016F1066D
:10179000A1F4882331F0CA0162E070E00E94243B8A
:1017A00008C0CA0162E070E00E94243B7095619518
:1017B0007F4FC6010E94500A1AC0882319F0CB013E
:1017C000BA0105C066277727641B750BC6010E9406
:1017D000500AC501B4010E94500A80914102882339
:1017E00019F01092410203C081E080934102DF9121
:1017F000CF911F910F91FF90EF90DF90CF90BF900E
:10180000AF909F908F9008953F924F925F926F920A
:101810007F928F929F92AF92BF92CF92DF92EF9280
:10182000FF920F931F93DF93CF93CDB7DEB7289727
:101830000FB6F894DEBF0FBECDBFFC012B014A01ED
:10184000322E141615060CF08DC0BA010E94243BEE
:101850003B01CF01B4010E94243BAA2797FDA0952C
:10186000BA2FBC01CD010E9479397B018C01B401F2
:10187000882777FD8095982F0E9479399B01AC01CC
:10188000C801B7010E94DE3869837A838B839C8309
:101890000F2EF0E0AF2EF0E0BF2EF0E0CF2EF0E004
:1018A000DF2EF02D18861F82C30101969E838D8343
:1018B000C601B50129813A814B815C810E9476384D
:1018C0005B016C0120E030E040E85FE30E94293AD0
:1018D00087FF02C0F3010CC0C601B50120E030E073
:1018E00040E85FE30E9475385B016C01ED81FE8189
:1018F00092E0391629F481ED92E065E173E007C0CA
:10190000A3E03A1639F485E193E061ED72E0A201BB
:101910009F0118C0B4E03B1649F4222733272E1B41
:101920003F0B81ED92E065E173E00BC081E038167A
:1019300071F4222733272E1B3F0B85E193E061EDE5
:1019400072E0A2018401EF80F8840E94980B0E944B
:10195000050AAF81B8851196B887AF838A169B06B2
:101960000CF0A6CF28960FB6F894DEBF0FBECDBF01
:10197000CF91DF911F910F91FF90EF90DF90CF906B
:10198000BF90AF909F908F907F906F905F904F909F
:101990003F900895EF92FF920F931F937C0103E312
:1019A00015E0C80166E073E00E94C930C801B701C4
:1019B0000E947533C80165EF72E00E940C311F91DF
:1019C0000F91FF90EF900895AF92BF92CF92DF9268
:1019D000EF92FF920F931F93CF93DF935B016C0104
:1019E000EA01BA01882777FD8095982F0E947939FE
:1019F0002091940230919502409196025091970265
:101A00000E942D3AA60195010E94DE387B018C01CF
:101A100020E030E040E050E40E94293A87FF03C014
:101A200001E010E009C0C801B7010E9446398B01EE
:101A3000633071050CF046C083E395E066EA73E01D
:101A40000E94753383E395E064EB73E00E94753385
:101A500083E395E06BE071E00E94C93083E395E099
:101A6000B601A50122E030E00E944C3383E395E00B
:101A70006FEF70E00E94C93083E395E0BE014AE059
:101A800050E00E94333283E395E06AEF70E00E94F9
:101A9000C93083E395E0B8014AE050E00E94463245
:101AA00083E395E066EA73E00E94753383E395E093
:101AB00064EB73E00E94753383E395E06FEC70E0B4
:101AC0000E940C31C801DF91CF911F910F91FF90BF
:101AD000EF90DF90CF90BF90AF9008952F923F92FC
:101AE0004F925F926F927F928F929F92AF92BF922E
:101AF000CF92DF92EF92FF920F931F93DF93CF93DA
:101B000000D000D0CDB7DEB73B014C0159016A01CE
:101B1000FA82E982C80162E070E00E94243B8827D3
:101B200077FD8095982F661A770A880A990AA61A6F
:101B3000B70AC80AD90A1C821B821801442437FC40
:101B40004094542C2EC060E070E080E090E0A20150
:101B500091010E9427347B018C0160E070E080E0FD
:101B600090E0A20191010E9427349B01AC01002763
:101B7000F7FC0095102FE60CF71C081D191D4427D3
:101B800037FD4095542F2A0D3B1D4C1D5D1DC8018E
:101B9000B7010E94D50A2B813C812F5F3F4F3C83C8
:101BA0002B838B819C81E981FA81E817F9075CF628
:101BB0000F900F900F900F90CF91DF911F910F9189
:101BC000FF90EF90DF90CF90BF90AF909F908F905D
:101BD0007F906F905F904F903F902F9008958AE88C
:101BE00092E090934F0280934E0290935102809323
:101BF00050028FE590E090934B0280934A0280E977
:101C000091E090934D0280934C0281E090E090939C
:101C100049028093480264EF71E080E090E00E9406
:101C20004E2D0895AF92BF92CF92DF92EF92FF9226
:101C30000F931F93CF93DF93EC015B016A0180E95F
:101C400092E069E070E00E94232ACA15DB059CF44B
:101C500076010027F7FC0095102F80E992E0BE0185
:101C60000E943C29C801B7010E944E2D2196AC1656
:101C7000BD069CF712C076010027F7FC0095102FD7
:101C800080E992E0BE010E943C29C801B7010E9490
:101C90004E2D2197CA15DB059CF780E992E00E9442
:101CA000CD28DF91CF911F910F91FF90EF90DF90A2
:101CB000CF90BF90AF900895EF92FF920F931F9334
:101CC000B1EDEB2EB2E0FB2EC7010E949222AB01D8
:101CD000BC014C5F5F4F6F4F7F4FC7010E94A82828
:101CE00005E113E0C8010E949222AB01BC014C5FE8
:101CF0005F4F6F4F7F4FC8010E94A828C7010E9405
:101D00009222AB01BC014450504060407040C7017A
:101D10000E94A828C8010E949222AB01BC01445035
:101D2000504060407040C8010E94A8281F910F9148
:101D3000FF90EF9008952F923F924F925F926F9293
:101D40007F928F929F92AF92BF92CF92DF92EF924B
:101D5000FF920F931F93DF93CF93CDB7DEB7E0973A
:101D60000FB6F894DEBF0FBECDBF2B013C019CA285
:101D70008BA20E945E056B8F7C8F8D8F9E8FA3013F
:101D800092010E9493086F8B788F898F9A8FC80178
:101D9000B701A60195010E945E055B016C01A801D7
:101DA00097010E9493087B018C01C601B50120E0D8
:101DB00030E040EA51E40E94293A18160CF014C2AF
:101DC00060919C0270919D0280919E0290919F0271
:101DD00064517040804090400E9479396F8F78A3A1
:101DE00089A39AA3C601B5012F8D38A149A15AA193
:101DF0000E94DA3888230CF0F7C1C801B70120E04F
:101E000030E040EA51E40E94293A18160CF0ECC187
:101E10006091A0027091A1028091A2029091A30210
:101E200064517040804090400E9479392B013C0100
:101E3000C801B701A30192010E94DA3888230CF08F
:101E4000D3C16B8D7C8D8D8D9E8D20E030E040EA7E
:101E500051E40E94293A18160CF0C6C16B8D7C8D96
:101E60008D8D9E8D2F8D38A149A15AA10E94DA38FF
:101E700088230CF0B9C16F89788D898D9A8D20E007
:101E800030E040EA51E40E94293A18160CF0ACC147
:101E90006F89788D898D9A8DA30192010E94DA381D
:101EA00088230CF0A1C110923402C601B5012B8D1C
:101EB0003C8D4D8D5E8D0E9475381B012C01C80133
:101EC000B7012F89388D498D5A8D0E9475383B0195
:101ED0004C01C201B10120E030E040E050E00E943E
:101EE000293A18161CF48201710106C082017101A1
:101EF00017FB109517F91095C401B30120E030E0ED
:101F000040E050E00E94293A18161CF4A401930105
:101F100003C0A40193015058C801B7010E94293A97
:101F200018169CF021E030E03E8B2D8BD401C301CC
:101F3000B0588DA79EA7AFA7B8ABABA1BCA15D0160
:101F4000CC24B7FCC094DC2C4EC021E030E03E8BAA
:101F50002D8BD201C101B05889A79AA7ABA7BCA706
:101F6000ABA1BCA15D01CC24B7FCC094DC2C06C0A5
:101F70002D893E892F5F3F4F3E8B2D8BC201B101D2
:101F800020E030E040E050E00E94293A18161CF4AE
:101F90008201710104C0E9A4FAA40BA51CA5AD89B6
:101FA000BE89BD01882777FD8095982F0E947939D9
:101FB0009B01AC01C801B7010E94DE387B018C0196
:101FC000C601B5010E9479399B01AC01C801B70176
:101FD0000E94293A181664F234C02D893E892F5F79
:101FE0003F4F3E8B2D8BC401B30120E030E040E039
:101FF00050E00E94293A18161CF48401730104C0B1
:10200000EDA4FEA40FA518A9AD89BE89BD0188273E
:1020100077FD8095982F0E9479399B01AC01C8010A
:10202000B7010E94DE387B018C01C601B5010E9418
:1020300079399B01AC01C801B7010E94293A1816F1
:1020400064F22D893E895901CC24B7FCC094DC2C64
:10205000C601B5010E9479397B018C01C201B10131
:10206000A80197010E94DE386D837E838F83988755
:10207000C401B301A80197010E94DE3869837A8305
:102080008B839C8310923102198A1A8A1B8A1C8ABC
:1020900019861A861B861C86ADA2BEA2CFA2D8A620
:1020A0006B8D7C8D8D8D9E8D2D813E814F815885D0
:1020B0000E9476386B8F7C8F8D8F9E8F6F89788D85
:1020C000898D9A8D29813A814B815C810E94763875
:1020D0006F8B788F898F9A8F6B8D7C8D8D8D9E8D78
:1020E0002F89388D498D5A8D0E94F1086D877E8722
:1020F0008F87988B6B8D7C8D8D8D9E8D2F89388DE4
:10210000498D5A8D0E94BA081B012C0169847A847A
:102110008B849C848DA19EA1AFA1B8A5680E791E69
:102120008A1E9B1E69897A898B899C890E947939CC
:102130005B016C0160912D0270912E0280912F0243
:102140009091300220E030E040E850E40E942D3AC7
:102150007B018C01C401B301A60195010E941A09FB
:102160000E944639698B7A8B8B8B9C8B0E947939C4
:102170007B018C0181ED92E0B801A7010E94F5245A
:1021800085E193E0B801A7010E94F5246D857E8565
:102190008F8598890E9446397B018C01C201B1016B
:1021A0000E9446399B01AC01C801B7010E94D50AC3
:1021B00089859A85AB85BC850197A109B109898775
:1021C0009A87AB87BC878D899E89A985BA858A0F36
:1021D0009B1F892B09F064CF81E0809334028093A8
:1021E00031020E94050A06C083E395E06EED71E0BE
:1021F0000E946233E0960FB6F894DEBF0FBECDBFEB
:10220000CF91DF911F910F91FF90EF90DF90CF90D2
:10221000BF90AF909F908F907F906F905F904F9006
:102220003F902F9008950F931F93AB01BC014093F3
:102230002D0250932E0260932F027093300281ED95
:1022400092E00E94832740912D0250912E026091CE
:102250002F027091300285E193E00E94832703E30F
:1022600015E0C80164E871E00E94C93040912D0278
:1022700050912E0260912F0270913002C80122E02D
:1022800030E00E944F331F910F910895CF92DF925B
:10229000EF92FF920F931F937C018B018FE9C82E61
:1022A00084E0D82EC601B701F80140810E94EF2AD0
:1022B0000894E11CF11CC601B701F80141810E949C
:1022C000EF2A82E090E01F910F91FF90EF90DF9056
:1022D000CF9008950F931F93AB01BC014093290247
:1022E00050932A0260932B0270932C0281ED92E0AE
:1022F0000E949F244091290250912A0260912B0252
:1023000070912C0285E193E00E949F2403E315E085
:10231000C80167E971E00E94C930409129025091DB
:102320002A0260912B0270912C02C80122E030E059
:102330000E944F331F910F910895CF92DF92EF9239
:10234000FF920F931F937C018B019FE9C92E94E0AC
:10235000D92EC601B7010E94E82AF80180830894AB
:10236000E11CF11CC601B7010E94E82AF801818333
:1023700082E090E01F910F91FF90EF90DF90CF905F
:1023800008958AE290E066E472E00E949D118091D7
:1023900046029091470297FF06C08AE590E090932D
:1023A00047028093460283E395E068E872E00E946A
:1023B000C930609146027091470283E395E04AE09C
:1023C00050E00E9446328CE290E064E472E00E94A9
:1023D0009D11809144029091450297FF06C084EBC5
:1023E00090E0909345028093440283E395E069E78F
:1023F00072E00E94C930609144027091450283E30B
:1024000095E04AE050E00E944632089580E090E076
:1024100068E372E00E949D11809138029091390228
:102420001816190644F080914E0290914F02909335
:1024300039028093380283E395E06FED72E00E94E9
:10244000C930609138027091390283E395E04AE027
:1024500050E00E94463282E090E06AE372E00E941F
:102460009D1180913A0290913B021816190644F092
:10247000809150029091510290933B0280933A02D6
:1024800083E395E068EC72E00E94C93060913A0203
:1024900070913B0283E395E04AE050E00E944632AF
:1024A0000895EF92FF920F931F93CF93DF93AC01A8
:1024B000EB0124E0E22EF12CE60EF71E8A010F5FFD
:1024C0001F4F8FE994E0BA010E94E82A8993A8017E
:1024D000CE15DF0599F784E090E0DF91CF911F9151
:1024E0000F91FF90EF90089586E190E069E272E02D
:1024F0000E9451126091290270912A0280912B0250
:1025000090912C020E9446391616170664F080E05E
:1025100090E0A8E4B4E48093290290932A02A09367
:102520002B02B0932C028AE190E06DE272E00E94EF
:10253000511260912D0270912E0280912F02909184
:1025400030020E9446391616170664F080E090E0CB
:10255000A8E4B4E480932D0290932E02A0932F025E
:10256000B093300208958EE090E064E272E00E9441
:10257000511260912402709125028091260290915F
:10258000270220E030E040E85FE30E94DA38882349
:1025900094F460914A0270914B02882777FD8095F0
:1025A000982F0E94793960932402709325028093BA
:1025B00026029093270283E395E065EB72E00E9488
:1025C000C9304091240250912502609126027091F9
:1025D000270283E395E022E030E00E944F3382E15E
:1025E00090E062E272E00E949D118091220290913F
:1025F00023021816190644F080914C0290914D0266
:10260000909323028093220283E395E069E972E0CC
:102610000E94C930609122027091230283E395E009
:102620004AE050E00E94463208958FE994E064E168
:1026300070E00E94E82A80932802882321F4809188
:1026400048028093280283E395E06BE572E00E94E4
:10265000C93083E395E0609128024AE050E00E948F
:10266000C1310895AF92BF92CF92DF92EF92FF9265
:102670000F931F930E9406120E94B3120E9415131B
:102680000E94C1110E9474128EE190E06DE372E02D
:102690000E94511260913D0270913E0280913F0272
:1026A0009091400227E137EB41ED58E30E94DA3880
:1026B000882364F48DEC9CECACE4BFE380933D0292
:1026C00090933E02A0933F02B0934002A090240258
:1026D000B0902502C0902602D09027026091280277
:1026E00070E080E090E020912202309123024427A4
:1026F00037FD4095542F0E94F93A0E9479397B01A9
:102700008C01C601B501A80197010E94DE386093D3
:102710009402709395028093960290939702C80159
:10272000B701A60195010E94DE386093980270936C
:10273000990280939A0290939B0283E395E068E468
:1027400072E00E94C93040919402509195026091CC
:1027500096027091970283E395E022E030E00E94B8
:102760004C3383E395E068E372E00E94C930409106
:1027700098025091990260919A0270919B0283E3B2
:1027800095E022E030E00E944C3383E395E066E37D
:1027900072E00E94C93083E395E00E94EC306091C2
:1027A000380270913902882777FD8095982F0E9412
:1027B0007939209198023091990240919A02509172
:1027C0009B020E942D3A0E94463960939C027093AE
:1027D0009D0280939E0290939F0283E395E06AE1BD
:1027E00072E00E94C93040919C0250919D0260911C
:1027F0009E0270919F0283E395E02AE030E00E9400
:10280000DF3183E395E068E172E00E94C93083E341
:1028100095E00E94EC3060913A0270913B0288276B
:1028200077FD8095982F0E947939209198023091F8
:10283000990240919A0250919B020E942D3A0E9467
:1028400046396093A0027093A1028093A2029093F4
:10285000A30283E395E06BEF71E00E94C9304091E1
:10286000A0025091A1026091A2027091A30283E3A1
:1028700095E02AE030E00E94DF3183E395E069EFE4
:1028800071E00E94C93083E395E00E94EC30109221
:10289000A4021092A5021092A6021092A7021F9104
:1028A0000F91FF90EF90DF90CF90BF90AF90089581
:1028B000CF93DF93C0E0D0E08FE994E0BE0140E029
:1028C0000E94EF2A2196C233D105B1F70E9432133C
:1028D000DF91CF910895CF93DF93C0E0D0E083E301
:1028E00095E0BE014AE050E00E94333283E395E078
:1028F0006AE072E00E9465328FE994E0BE010E94B6
:10290000E82A682F83E395E04AE050E00E94C13155
:102910002196C832D10519F7DF91CF910895CF9252
:10292000DF92EF92FF920F931F930E946B1403E3C9
:1029300015E0C80161EF71E00E94C9306091380272
:1029400070913902C8014AE050E00E94333249ECEC
:10295000C42E43E0D42EC801B6010E9475336091A5
:102960003A0270913B02C8014AE050E00E943332C3
:1029700030EDE32E33E0F32EC801B7010E94A833F7
:10298000C80165EE71E00E94C93040912402509167
:1029900025026091260270912702C80122E030E0F2
:1029A0000E944C33C801B7010E94A833C80166EDEC
:1029B00071E00E94C9306091220270912302C80127
:1029C0004AE050E00E943332C801B7010E94A833A8
:1029D000C80164EC71E00E94C930C801609128020E
:1029E0004AE050E00E94AF31C801B7010E94A8330D
:1029F000C8016CEB71E00E94C93060914602709191
:102A00004702C8014AE050E00E943332C801B601D3
:102A10000E9475336091440270914502C8014AE0FA
:102A200050E00E943332C801B7010E94A833C801A8
:102A300063EB71E00E94C9304091290250912A0253
:102A400060912B0270912C02C80122E030E00E94BC
:102A50004C33C801B6010E94753340912D0250914C
:102A60002E0260912F0270913002C80122E030E006
:102A70000E944C33C801B7010E94A8331F910F91E7
:102A8000FF90EF90DF90CF90089585EC92E062E0A8
:102A900043E00E944E2B089585EC92E061E043E014
:102AA0000E944E2B089589EB92E062E043E00E9481
:102AB0004E2B089589EB92E061E043E00E944E2B9B
:102AC0000895EF92FF920F931F93DF93CF93CDB7AB
:102AD000DEB7FC01EDB6FEB6448155814F5F5F4F16
:102AE0008DB79EB7841B950B0FB6F8949EBF0FBE93
:102AF0008DBF0DB71EB70F5F1F4FCF01B80120E08C
:102B000030E00E94C334C8010E947A020FB6F894E4
:102B1000FEBE0FBEEDBECF91DF911F910F91FF90D2
:102B2000EF9008954F925F926F927F928F929F9253
:102B3000AF92BF92CF92DF92EF92FF920F931F93CB
:102B4000DF93CF93CDB7DEB72E970FB6F894DEBFE5
:102B50000FBECDBF6E010894C11CD11CC60167E633
:102B600073E00E944E36C6010E9461157B018C0104
:102B70006091280270E0882777FD8095982F0E9449
:102B800079399B01AC01C801B7010E942D3A2B0194
:102B90003C01C6010E94593658E0852E912C8C0EBE
:102BA0009D1EC4016EE673E00E944E36C4010E9471
:102BB00061157B018C016091280270E0882777FD08
:102BC0008095982F0E9479399B01AC01C801B7010B
:102BD0000E942D3A5B016C01C4010E945936C30169
:102BE000B2010E9446397B018C01C601B5010E94E9
:102BF00046399B01AC01C801B7010E94D50A2E9647
:102C00000FB6F894DEBF0FBECDBFCF91DF911F91FD
:102C10000F91FF90EF90DF90CF90BF90AF909F907B
:102C20008F907F906F905F904F9008950F931F93B8
:102C3000DF93CF93CDB7DEB727970FB6F894DEBFFB
:102C40000FBECDBF8E010F5F1F4FC80167E673E057
:102C50000E944E36C8010E94611560933D02709338
:102C60003E0280933F0290934002C8010E94593671
:102C700003E315E0C8016EE671E00E94C93040919F
:102C80003D0250913E0260913F0270914002C801A6
:102C900022E030E00E944C33C8016BE671E00E94F4
:102CA000C930C8010E94EC3027960FB6F894DEBFF9
:102CB0000FBECDBFCF91DF911F910F910895EF927D
:102CC000FF920F931F93DF93CF93CDB7DEB72B9770
:102CD0000FB6F894DEBF0FBECDBF8E010B5F1F4F46
:102CE000C80167E673E00E944E36C8010E94611574
:102CF00069837A838B839C83C8010E9459367E0145
:102D00000894E11CF11C6EE070E08B010F5F1F4F17
:102D1000F70141917F018FE994E00E94EF2AB80109
:102D20000231110591F70E9432132B960FB6F894D9
:102D3000DEBF0FBECDBFCF91DF911F910F91FF90EE
:102D4000EF900895EF92FF920F931F93DF93CF932D
:102D5000CDB7DEB7FC01EDB6FEB6448155814F5FBD
:102D60005F4F8DB79EB7841B950B0FB6F8949EBF2F
:102D70000FBE8DBF0DB71EB70F5F1F4FCF01B8013C
:102D800020E030E00E94C334C8010E947E020FB6EA
:102D9000F894FEBE0FBEEDBECF91DF911F910F9153
:102DA000FF90EF9008953F924F925F926F927F92C3
:102DB0008F929F92AF92BF92CF92DF92EF92FF924B
:102DC0000F931F93DF93CF93CDB7DEB7A4970FB6C2
:102DD000F894DEBF0FBECDBF8E010F5F1F4FC8013D
:102DE00067E673E00E944E36C8010E94A216AA2729
:102DF00097FDA095BA2F2091280230E040E050E0E6
:102E0000BC01CD010E94F93A5B01C8010E9459360C
:102E10008E01085F1F4FC8016EE673E00E944E36B8
:102E2000C8010E946115F62EE72ED82EC92EC801C2
:102E30000E9459368E01015F1F4FC80165E773E09C
:102E40000E944E36C8010E94611569A37AA38BA324
:102E50009CA3C8010E9459368E010A5E1F4FC8010B
:102E60006CE773E00E944E36C8010E9461152B0189
:102E70003C01C8010E94593630903C0282E08093A8
:102E80003C0280913D0290913E02A0913F02B091A0
:102E900040028D8F9E8FAF8FB8A32F2D3E2D4D2DCD
:102EA0005C2DC901DA016C017D01882499241EC0C2
:102EB0000894811C911CC0923D02D0923E02E09287
:102EC0003F02F0924002C701B601A5010E94E40C46
:102ED000AC01C501B50122E00E94040CC701B60196
:102EE000A30192010E9476386B017C01C701B601F3
:102EF00029A13AA14BA15CA10E94DA381816C4F6A8
:102F00008D8D9E8DAF8DB8A180933D0290933E0232
:102F1000A0933F02B0934002EE24FF24EA18FB087E
:102F200085E193E0B7010E94500AC50162E070E0BC
:102F30000E94243B709561957F4F3B01C50162E083
:102F400070E00E94243B6B0101E010E011C085E1BC
:102F500093E0B3010E94500A81ED92E0B7010E9414
:102F6000500A85E193E0B6010E94500A0F5F1F4F9F
:102F70008016910664F78D8D9E8DAF8DB8A18093DC
:102F80003D0290933E02A0933F02B09340023092E4
:102F90003C02A4960FB6F894DEBF0FBECDBFCF9112
:102FA000DF911F910F91FF90EF90DF90CF90BF9036
:102FB000AF909F908F907F906F905F904F903F90D9
:102FC00008950F931F93DF93CF93CDB7DEB72E975E
:102FD0000FB6F894DEBF0FBECDBF8E010F5F1F4F3F
:102FE000C80167E673E00E944E36C8010E94A2162F
:102FF00080933C02C8010E9459368E01085F1F4F22
:10300000C8016EE673E00E944E36C8010E94A21607
:103010009093430280934202C8010E9459362E9633
:103020000FB6F894DEBF0FBECDBFCF91DF911F91D9
:103030000F910895EF92FF920F931F93DF93CF9319
:10304000CDB7DEB727970FB6F894DEBF0FBECDBF62
:103050008091A80290919302823018F1992329F06F
:10306000E0904402F090450204C0E0904602F090E7
:1030700047028E010F5F1F4FC80167E673E00E9491
:103080004E36C8010E94A2169093470280934602D2
:10309000C8010E9459366091460270914702C701EB
:1030A0000AC0913061F460914602709147028091AC
:1030B00044029091450243E050E00E94120E1092AB
:1030C000930227960FB6F894DEBF0FBECDBFCF9107
:1030D000DF911F910F91FF90EF900895EF92FF9273
:1030E0000F931F93DF93CF93CDB7DEB727970FB61C
:1030F000F894DEBF0FBECDBF8091A80290919302DD
:10310000823018F1992329F0E0904402F0904502B2
:1031100004C0E0904602F09047028E010F5F1F4FFF
:10312000C80167E673E00E944E36C8010E94A216ED
:103130009093450280934402C8010E9459366091E1
:10314000440270914502C7010AC0992361F460915D
:10315000440270914502809146029091470243E0FB
:1031600050E00E94120E81E08093930227960FB6E2
:10317000F894DEBF0FBECDBFCF91DF911F910F91AD
:10318000FF90EF9008952F923F924F925F926F922F
:103190007F928F929F92AF92BF92CF92DF92EF92E7
:1031A000FF920F931F93DF93CF93CDB7DEB76B974B
:1031B0000FB6F894DEBF0FBECDBF6E010894C11CE0
:1031C000D11CC60167E673E00E944E36C6010E941C
:1031D00061157B018C016091280270E0882777FDE2
:1031E0008095982F0E9479399B01AC01C801B701E5
:1031F0000E942D3A3B014C01C6010E9459368E01B6
:10320000085F1F4FC8016EE673E00E944E36C8018A
:103210000E9461156B017C01B0902802C8010E94D8
:1032200059368E01015F1F4FC80165E773E00E94A8
:103230004E36C8010E94A2169F8B8E8BC8010E9439
:10324000593681ED92E00E949222688F798F8A8FA1
:103250009B8F85E193E00E9492221B012C01C40107
:10326000B30120E030E040EA51E40E94DA3887FD03
:1032700030C06B2D70E0882777FD8095982F0E94D5
:1032800079399B01AC01C701B6010E942D3A5B015F
:103290006C0120E030E040EA51E40E94DA3887FD1A
:1032A00018C00E94770A0E9479399B01AC01C401C1
:1032B000B3010E94293A181664F00E94770A0E940E
:1032C00079399B01AC01C601B5010E94293A181653
:1032D0003CF483E395E065E271E00E940C3116C096
:1032E000688D798D8A8D9B8D0E9479397B018C0147
:1032F000C201B1010E9479399B01AC01C801B7013B
:10330000840173018E889F880E949B0E6B960FB676
:10331000F894DEBF0FBECDBFCF91DF911F910F910B
:10332000FF90EF90DF90CF90BF90AF909F908F90E5
:103330007F906F905F904F903F902F900895EF9205
:10334000FF920F931F93DF93CF93CDB7DEB72E97E6
:103350000FB6F894DEBF0FBECDBF8E010F5F1F4FBB
:10336000C80167E673E00E944E36C8010E946115ED
:103370000E941311C8010E9459368091A80283301F
:1033800041F58E01085F1F4FC8016EE673E00E9491
:103390004E36C8010E94A2167C01C8010E9459360F
:1033A00081E0E816F104A9F46DE2E62E62E0F62E63
:1033B0006AE170E08B010F5F1F4FF70141917F01C0
:1033C0008FE994E00E94EF2A0E31110511F0B80147
:1033D000F1CF2E960FB6F894DEBF0FBECDBFCF91C2
:1033E000DF911F910F91FF90EF900895EF92FF9260
:1033F0000F931F93DF93CF93CDB7DEB72E970FB602
:10340000F894DEBF0FBECDBF8E010F5F1F4FC80106
:1034100067E673E00E944E36C8010E9461150E9463
:103420006A11C8010E9459368091A802833041F583
:103430008E01085F1F4FC8016EE673E00E944E3692
:10344000C8010E94A2167C01C8010E94593681E081
:10345000E816F104A9F479E2E72E72E0F72E66E1AE
:1034600070E08B010F5F1F4FF70141917F018FE9E2
:1034700094E00E94EF2A0A31110511F0B801F1CF52
:103480002E960FB6F894DEBF0FBECDBFCF91DF9161
:103490001F910F91FF90EF9008950F931F93DF936B
:1034A000CF93CDB7DEB762970FB6F894DEBF0FBEED
:1034B000CDBF8E010B5F1F4FC80167E673E00E940E
:1034C0004E36C8010E94A2169A838983C8010E94C1
:1034D00059368E01045F1F4FC8016EE673E00E94EB
:1034E0004E36C8010E94A2169C838B83C8010E949D
:1034F000593683E395E06CEA71E00E94C930698136
:103500007A8183E395E04AE050E00E94463283E30B
:1035100095E067EA71E00E94C9306B817C8183E3AA
:1035200095E04AE050E00E9446328091A802843043
:1035300089F48AE290E0BE016F5F7F4F0E944611DE
:103540008CE290E0BE016D5F7F4F0E9446110E94A9
:10355000C1113AC08330C1F569817A818B819C8128
:1035600043E050E00E94120E68EC70E080E090E0D2
:103570000E944E2D6B817C8189819A8143E050E0CD
:103580000E94120E68EC70E080E090E00E944E2DE8
:1035900069817A818B819C8143E050E00E94120E08
:1035A00068EC70E080E090E00E944E2D6B817C81A1
:1035B00089819A8143E050E00E94120E68EC70E02D
:1035C00080E090E00E944E2D62960FB6F894DEBF28
:1035D0000FBECDBFCF91DF911F910F9108950F9333
:1035E0001F93DF93CF93CDB7DEB729970FB6F8942B
:1035F000DEBF0FBECDBF8E010D5F1F4FC80167E656
:1036000073E00E944E36C8010E94A2169A838983F5
:1036100084E190E0BE016F5F7F4F0E944611C801B8
:103620000E9459360E94321329960FB6F894DEBFD5
:103630000FBECDBFCF91DF911F910F9108950F93D2
:103640001F93DF93CF93CDB7DEB729970FB6F894CA
:10365000DEBF0FBECDBF8E010D5F1F4FC80167E6F5
:1036600073E00E944E36C8010E94A2169A83898395
:10367000C8010E94593682E190E0BE016F5F7F4F22
:103680000E9446110E94321329960FB6F894DEBFAD
:103690000FBECDBFCF91DF911F910F9108950F9372
:1036A0001F93DF93CF93CDB7DEB764970FB6F8942F
:1036B000DEBF0FBECDBF8E01095F1F4FC80167E699
:1036C00073E00E944E36C8010E94A2169A83898335
:1036D000C8010E9459368E01025F1F4FC8016EE675
:1036E00073E00E944E36C8010E94A2169C838B8311
:1036F000C8010E94593689819A819E838D8380E01A
:1037000090E0BE016B5F7F4F0E949D1129813A813D
:103710008D819E818217930751F02B3031053CF04B
:1037200080E090E0BE016F5F7F4F0E94461182E013
:1037300090E0BE016B5F7F4F0E949D112B813C8109
:103740008D819E818217930751F02B3031053CF01B
:1037500082E090E0BE016D5F7F4F0E9446110E94A3
:10376000061264960FB6F894DEBF0FBECDBFCF91A0
:10377000DF911F910F910895EF92FF920F931F9386
:10378000DF93CF93CDB7DEB7FC01EDB6FEB6448133
:1037900055814F5F5F4F8DB79EB7841B950B0FB65A
:1037A000F8949EBF0FBE8DBF0DB71EB70F5F1F4FA2
:1037B000CF01B80120E030E00E94C334C8010E946C
:1037C0009C020FB6F894FEBE0FBEEDBECF91DF9106
:1037D0001F910F91FF90EF9008952F923F924F927B
:1037E0005F926F927F928F929F92AF92BF92CF9291
:1037F000DF92EF92FF920F931F93DF93CF93CDB79A
:10380000DEB7A0970FB6F894DEBF0FBECDBF8E0116
:103810000F5F1F4FC80167E673E00E944E36C80174
:103820000E94BC1B2091280230E040E050E00E9442
:10383000F93A6D8F7E8F8F8F98A3C8010E945936F9
:103840008E01085F1F4FC8016EE673E00E944E367E
:10385000C8010E94BC1B2091280230E040E050E0EB
:103860000E94F93A1B012C01C8010E9459368E01B1
:10387000015F1F4FC80165E773E00E944E36C80123
:103880000E94A216AA2797FDA095BA2F2091280280
:1038900030E040E050E0BC01CD010E94F93A3B012C
:1038A0004C015B01C8010E9459368E010A5E1F4F10
:1038B000C8016CE773E00E944E36C8010E94A21650
:1038C0007C01C8010E94593660913D0270913E0210
:1038D00080913F0290914002A3010E94E40CAC0150
:1038E000C7016FEF70E00E94F7047C01CC24B7FCA5
:1038F000C094DC2CC601B5010E9479392DEC3CEC5A
:103900004CE85FE30E942D3A0E9446395B016C014E
:103910006D8D7E8D8F8D98A1A201910185010E94F0
:103920006E0DA0960FB6F894DEBF0FBECDBFCF913F
:10393000DF911F910F91FF90EF90DF90CF90BF909C
:10394000AF909F908F907F906F905F904F903F903F
:103950002F9008952F923F924F925F926F927F9295
:103960008F929F92AF92BF92CF92DF92EF92FF928F
:103970000F931F93DF93CF93CDB7DEB7A6970FB604
:10398000F894DEBF0FBECDBF8E010F5F1F4FC80181
:1039900067E673E00E944E36C8010E94BC1B20916E
:1039A000280230E040E050E00E94F93A6BA37CA38B
:1039B0008DA39EA3C8010E9459368E01085F1F4F38
:1039C000C8016EE673E00E944E36C8010E94BC1B1F
:1039D0002091280230E040E050E00E94F93A1B01BB
:1039E0002C01C8010E9459368E01015F1F4FC8018A
:1039F00065E773E00E944E36C8010E94A216AA270E
:103A000097FDA095BA2F2091280230E040E050E0C9
:103A1000BC01CD010E94F93A6B017C017AA369A334
:103A2000C8010E9459368E010A5E1F4FC8016CE71B
:103A300073E00E944E36C8010E94A21698A38F8F91
:103A4000C8010E945936C60162E070E00E94243B22
:103A50004B01CB01880F991F69A07AA0681A790AD7
:103A600080913C028130C1F481ED92E00E9492226B
:103A70007B018C0185E193E00E9492225B016C0145
:103A80006BA17CA18DA19EA1A20191010E94A8041D
:103A900080934202109243022091420230914302ED
:103AA00022303105F9F49401442737FD4095542F15
:103AB000EBA0FCA00DA11EA1E21AF30A040B150B4A
:103AC000C301AA2797FDA095BA2FE80EF91E0A1F79
:103AD0001B1F6BA07CA08DA09EA0620E731E841E77
:103AE000951E3DC023303105C9F49401442737FDAC
:103AF0004095542F62015101A21AB30AC40AD50A93
:103B0000C301AA2797FDA095BA2FA80EB91ECA1EF9
:103B1000DB1E220E331E441E551E32C0C401AA27CE
:103B200097FDA095BA2FA301662757FD6095762FC4
:103B300024303105B9F4EBA0FCA00DA11EA1E80EC4
:103B4000F91E0A1F1B1FE41AF50A060B170B6BA0C0
:103B50007CA08DA09EA0681A790A8A0A9B0A62013D
:103B6000510114C05C016D01A20CB31CC41CD51C16
:103B7000A41AB50AC60AD70A281A390A4A0A5B0AD9
:103B8000EBA0FCA00DA11EA13701480160913D02F0
:103B900070913E0280913F029091400249A15AA14A
:103BA0000E94E40CAC018F8D98A16FEF70E00E9431
:103BB000F7049E8F8D8FC801B701A60195010E9461
:103BC000D50A8D8D9E8D02974CF089A19AA1BC01DA
:103BD0004D8D5E8D209142020E94040CC401B30100
:103BE000A20191010E94D50AA6960FB6F894DEBFF5
:103BF0000FBECDBFCF91DF911F910F91FF90EF903E
:103C0000DF90CF90BF90AF909F908F907F906F90FC
:103C10005F904F903F902F9008958F929F92AF9218
:103C2000BF92CF92DF92EF92FF920F931F93DF9399
:103C3000CF93CDB7DEB72E970FB6F894DEBF0FBE89
:103C4000CDBF8E010F5F1F4FC80167E673E00E9472
:103C50004E36C8010E94BC1B2091280230E040E093
:103C600050E00E94F93A4B015C01C8010E945936AC
:103C70008E01085F1F4FC8016EE673E00E944E364A
:103C8000C8010E94BC1B2091280230E040E050E0B7
:103C90000E94F93A6B017C01C8010E94593681EDFE
:103CA00092E0B501A4010E94982285E193E0B7015A
:103CB000A6010E9498220E945C0E0E94050A2E9680
:103CC0000FB6F894DEBF0FBECDBFCF91DF911F912D
:103CD0000F91FF90EF90DF90CF90BF90AF909F90AB
:103CE0008F900895CF93DF93EC0167ED73E00E940E
:103CF0003535882319F00E949215B3C0CE0162E3D6
:103D000074E00E943535882319F00E94C318A9C0B9
:103D1000CE016EED73E00E943535882319F00E94C4
:103D200016169FC0CE0163E674E00E9435358823E5
:103D300019F00E94F61995C0CE016AE674E00E945F
:103D40003535882319F00E949F198BC0CE0163EF8F
:103D500073E00E943535882319F00E94AA1C81C0A7
:103D6000CE016AEF73E00E943535882319F00E9476
:103D7000ED1B77C0CE0161E074E00E9435358823E9
:103D800019F00E94E1176DC0CE016FE074E00E944F
:103D90003535882319F00E94D31663C0CE0166E141
:103DA00074E00E943535882319F00E940D1E59C019
:103DB000CE016DE174E00E943535882319F00E9430
:103DC0001A184FC0CE0164E274E00E943535882392
:103DD00019F00E946E1845C0CE016BE274E00E949B
:103DE0003535882319F00E944D1A3BC0CE0169E396
:103DF00074E00E943535882319F00E944F1B31C0B2
:103E0000CE0165E574E00E943535882319F00E94E3
:103E10005F1627C0CE016CE574E00E94353588231B
:103E200019F00E941F1B1DC0CE0161E774E00E94C3
:103E30003535882319F00E94EF1A13C0CE0167E4CC
:103E400074E00E943535882319F00E948F1409C050
:103E5000CE016EE474E00E943535882319F00E948B
:103E6000581481E0DF91CF910895CF93DF93EC0157
:103E70000E94721E882329F4CE010E94CA0C0E945F
:103E8000490ADF91CF9108956F927F928F929F920E
:103E9000AF92BF92CF92DF92EF92FF920F931F9358
:103EA000DF93CF93CDB7DEB727970FB6F894DEBF79
:103EB0000FBECDBF4C01FC0164807580AA24BB24D9
:103EC00000E010E0EE24FF246E010894C11CD11C18
:103ED0003DC0C401B7010E9445348C32A1F5C60132
:103EE000B401A50197010E94E43502301105B9F033
:103EF000033011053CF40115110559F0013011058D
:103F0000C9F40AC00330110569F00430110591F4B9
:103F10000CC080E693E00BC087E693E008C08EE615
:103F200093E005C085E793E002C08CE793E0B6011B
:103F30000E94373657010894A11CB11C0F5F1F4F18
:103F4000C6010E9459360894E11CF11CE614F704DE
:103F50000CF4BFCF0093A80227960FB6F894DEBFEB
:103F60000FBECDBFCF91DF911F910F91FF90EF90CA
:103F7000DF90CF90BF90AF909F908F907F906F9089
:103F800008953F924F925F926F927F928F929F928D
:103F9000AF92BF92CF92DF92EF92FF920F931F9357
:103FA000DF93CF93CDB7DEB7C655D0400FB6F894A8
:103FB000DEBF0FBECDBF782E692EAA24BB2414E22B
:103FC000812E912C8C0E9D1E19C083E395E00E94DA
:103FD000C12F182F61E070E080E090E00E944E2D2C
:103FE000F401EA0DFB1D10831A3029F483E395E0F8
:103FF0000E94EA2F0AC00894A11CB11C83E395E03B
:104000000E94902F1816190604F3B4E24B2E512C7F
:104010004C0E5D1EA40CB51CF5011082872D962D4B
:10402000B2010E94B1358E010F5F1F4FC8016DE0D4
:1040300072E00E94B135872D962DB8010E94B534EB
:104040005C01C8010E945936FFEFAF16FFEFBF06B3
:1040500009F46BC03324339430927804A8E0EA2E3C
:10406000F12CEC0EFD1EA5014F5F5F4FC701672DC0
:10407000762D0E942B368E01015F1F4FC801B701BC
:104080000E944E36C8010E94BC1B6B017C01C80116
:104090000E9459368E010A5E1F4FC801672D762D8A
:1040A00040E050E095010E94E435872D962DB8013F
:1040B0000E943736C8010E9459368E01035E1F4F99
:1040C000C801672D762D0E944E36C8010E946008F7
:1040D0004B015C01C8010E9459368C149D04AE044A
:1040E000BF0419F43092B8021BC083E395E06BE281
:1040F00073E00E94C93083E395E0B2010E9462330D
:1041000083E395E062E273E00E94C93083E395E0C7
:10411000B501A4012AE030E00E941F321092B802DB
:10412000CE0108960E94593604C01092780410926D
:10413000B802872D962DCA5ADF4F0FB6F894DEBF0E
:104140000FBECDBFCF91DF911F910F91FF90EF90E8
:10415000DF90CF90BF90AF909F908F907F906F90A7
:104160005F904F903F900895AF92BF92CF92DF92B1
:10417000EF92FF920F931F93DF93CF93CDB7DEB7EC
:1041800027970FB6F894DEBF0FBECDBFB82EA92E6D
:104190000E941A2D6B010B2D1A2DC8016AE771E0E0
:1041A0000E94B1357E010894E11CF11C29C00E94D7
:1041B0001A2D6C197D09209136023091370226178D
:1041C00037072CF40E94490A0E941A2D6B01C7017F
:1041D0000E94C11FC801B7010E943736C7010E9463
:1041E000593680917804882359F08091B802882349
:1041F00039F40E94420AC8016AE771E00E94CB3597
:10420000F80184819581892B91F20E941A2D0E94D8
:104210001A2D6093A9027093AA028093AB02909327
:10422000AC026093AD027093AE028093AF029093A4
:10423000B0028B2D9A2D27960FB6F894DEBF0FBED5
:10424000CDBFCF91DF911F910F91FF90EF90DF9045
:10425000CF90BF90AF900895EF92FF920F931F936E
:10426000DF93CF93CDB7DEB727970FB6F894DEBFB5
:104270000FBECDBF7C0160ED73E00E94F034882357
:1042800071F08E010F5F1F4FC801B7010E944E36BB
:10429000C8010E94441FC8010E94593681E0279638
:1042A0000FB6F894DEBF0FBECDBFCF91DF911F9147
:1042B0000F91FF90EF900895CF92DF92FF920F93AE
:1042C0001F93DF93CF93CDB7DEB72E970FB6F89439
:1042D000DEBF0FBECDBF6C018E010F5F1F4FC80147
:1042E000B6010E944E36C8010E942C21F82EC8014A
:1042F0000E945936FF20C1F08E01085F1F4FC80190
:1043000061EB72E00E944E36C8010E94351FC80161
:104310000E945936C6016AE771E00E94CB351092BF
:10432000B8020E94490A11C083E395E06BE173E093
:104330000E94C93083E395E0B6010E94753383E3A0
:1043400095E06DE073E00E940C311092A8022E9669
:104350000FB6F894DEBF0FBECDBFCF91DF911F9196
:104360000F91FF90DF90CF900895EF92FF920F93FF
:104370001F93DF93CF93CDB7DEB727970FB6F8948F
:10438000DEBF0FBECDBF8E010F5F1F4FC8010E9461
:10439000B42081EBE82E82E0F82EC701B8010E941C
:1043A0003736C8010E945936C7010E945C21279602
:1043B0000FB6F894DEBF0FBECDBFCF91DF911F9136
:1043C0000F91FF90EF900895AF92BF92CF92DF923E
:1043D000EF92FF920F931F9303E315E0C80140E0B3
:1043E00051EE60E070E00E94092FC80161E373E0C4
:1043F0000E94C930C8010E94EC300E9432130E9412
:10440000EF0D21EDA22E22E0B22E40912902509113
:104410002A0260912B0270912C02C5010E949F24F8
:1044200040912D0250912E0260912F027091300226
:10443000C5010E94832795E1C92E93E0D92E4091B2
:10444000290250912A0260912B0270912C02C60120
:104450000E949F2440912D0250912E0260912F02C4
:1044600070913002C6010E948327609132027091E0
:104470003302882777FD8095982F0E947939209103
:1044800024023091250240912602509127020E9479
:10449000DE387B018C016091220270912302882713
:1044A00077FD8095982F0E9479399B01AC01C80156
:1044B000B7010E942D3A0E9446397B018C01C5014B
:1044C000B801A7010E949822C601B801A7010E9465
:1044D000982282EC93E063E873E00E9437360E94F2
:1044E000490A0E946E1864EF71E080E090E00E943B
:1044F0004E2D1F910F91FF90EF90DF90CF90BF90C6
:10450000AF900895FC0127853089418952898385C0
:104510009485A585B685281B390B4A0B5B0BB90121
:10452000CA010895FC016385748585859685089583
:10453000FC0143875487658776874787508B618B5B
:10454000728B13AA14AA15AA16AA13A214A215A252
:1045500016A208956F927F928F929F92AF92BF9210
:10456000CF92DF92EF92FF920F931F93CF93DF933F
:10457000EC01AF84B888C988DA888B859C85AD85C5
:10458000BE85A81AB90ACA0ADB0A2B893C894D895B
:104590005E89CA01B9010E942D3A7B018C012B8DE5
:1045A0003C8D4D8D5E8DCA01B9010E9476389B010C
:1045B000AC01C801B7010E94DE380E9446399B0158
:1045C000AC01A114B104C104D104B9F46230710585
:1045D000810591050CF085C01BA21CA21DA21EA284
:1045E00080E090E0A0E0B0E08B8B9C8BAD8BBE8B2D
:1045F0001BAA1CAA1DAA1EAA0BC1EBA8FCA80DA9E8
:104600001EA91A141B041C041D0444F51E141F04C7
:104610001006110674F46A157B058C059D05B4F52A
:10462000CD5BDF4F8881C354D040882309F059C047
:104630002DC0E114F1040105110509F452C06A15F9
:104640007B058C059D050CF04CC0CD5BDF4F888150
:10465000C354D040813009F044C038C01E141F0438
:1046600010061106DCF488279927DC018A199B09BA
:10467000AC09BD09281739074A075B073CF4CD5B35
:10468000DF4F8881C354D040813059F5882799275E
:10469000DC01821B930BA40BB50B1FC0E114F104CA
:1046A00001051105F1F088279927DC018A199B097A
:1046B000AC09BD09281739074A075B0794F4CD5B9D
:1046C000DF4F8881C354D040882359F48827992725
:1046D000DC018E199F09A00BB10B8BAB9CABADAB72
:1046E000BEAB6BA87CA88DA89EA861147104810440
:1046F0009104A9F48FA998ADA9ADBAAD8BAF9CAFC9
:10470000ADAFBEAFFE01ED5BFF4F10821A141B046C
:104710001C041D040CF049C081E0808346C0ABAC92
:10472000BCACCDACDEACC601B50120E030E040E071
:1047300050EC0E942D3A7B018C01C401B3010E9410
:10474000793920E030E040E850E40E942D3A20E042
:1047500030E040E85FE30E9476389B01AC01C8017D
:10476000B7010E94DE389B01AC01C601B5010E9471
:1047700076387B018C016BAF7CAF8DAF9EAFEF962F
:10478000A880B980CA80DB80EF979501A6010E94BE
:10479000293A181624F4D801C70157016D01C50143
:1047A000D6018BAF9CAFADAFBEAF8BA99CA9ADA915
:1047B000BEA90196A11DB11D8BAB9CABADABBEAB31
:1047C0006BAD7CAD8DAD9EAD0E944B396BA37CA3D0
:1047D0008DA39EA360E074E284E799E42BAD3CAD29
:1047E0004DAD5EAD0E94DE389B01AC016B8B7C8BC6
:1047F0008D8B9E8BCD5BDF4F8881C354D040882347
:1048000039F4DA01C901B0588B8B9C8BAD8BBE8B10
:10481000DF91CF911F910F91FF90EF90DF90CF909C
:10482000BF90AF909F908F907F906F900895FC0104
:1048300087859089A189B28984179507A607B7074C
:1048400039F04787508B618B728BCF010E94AA226F
:104850000895FC01DB01CA01438554856585768591
:10486000480F591F6A1F7B1FCF010E94172408950C
:10487000CF92DF92EF92FF920F931F93FC018DE690
:1048800092E09183808312821386148615861686A1
:104890001786108A118A128A0F2EF0E0CF2EF0E0D0
:1048A000DF2EF0E0EF2EF0E0FF2EF02DC38AD48A49
:1048B000E58AF68A00E010E020E83FE3078B108FDE
:1048C000218F328F038F148F258F368F078F10A380
:1048D00021A332A313A214A215A216A281E090E094
:1048E00094A783A78FEF86A717A210A611A612A6DA
:1048F000138214821582168270AB67A752AB41AB4C
:1049000013AA14AA15AA16AAC7AAD0AEE1AEF2AE8F
:10491000C3AED4AEE5AEF6AEFF96019311932193EC
:1049200031931082E354F04017821086118612866C
:104930001F910F91FF90EF90DF90CF900895EF922D
:10494000FF920F931F93CF93DF93EC017A018B01BA
:104950006F89788D898D9A8DA80197010E94DA3828
:104960008823E1F1EF8AF88E098F1A8FEF9660E0C5
:1049700074E284E799E4A80197010E94DE38688315
:1049800079838A839B83EF978BA99CA9ADA9BEA944
:10499000181619061A061B060CF52B893C894D8939
:1049A0005E89CA01B9010E942D3A7B018C012B8DD1
:1049B0003C8D4D8D5E8DCA01B9010E9476389B01F8
:1049C000AC01C801B7010E94DE380E9446396BABCA
:1049D0007CAB8DAB9EABCE010E94AA22DF91CF9122
:1049E0001F910F91FF90EF9008954F925F926F92F9
:1049F0007F928F929F92AF92BF92CF92DF92EF926F
:104A0000FF920F931F93CF93DF932C017A018B01B9
:104A1000CB01BA01F20123893489458956890E9464
:104A2000DA38882309F455C0F201A788B08CC18C0C
:104A3000D28C3501460197FA909497F89094C8016A
:104A4000B701A40193010E94DA3888231CF4840181
:104A500073010AC0C801B701A60195010E94293A55
:104A6000181614F486017501C801B70120E030E082
:104A700040E050E00E94DA38882331F4F20113A2BA
:104A800014A215A216A220C060E074E284E799E4A3
:104A9000A80197010E94DE389F770E944B39F201EE
:104AA00063A374A385A396A3E201CD5BDF4F1882B5
:104AB000C801B70120E030E040E050E00E94293A10
:104AC000181614F481E08883F201E38AF48A058BD6
:104AD000168BDF91CF911F910F91FF90EF90DF9098
:104AE000CF90BF90AF909F908F907F906F905F908E
:104AF0004F900895FC012389348945895689B9016D
:104B0000CA010895DC0112968C911297833001F14D
:104B1000843040F4813089F0ED91FC91119782301E
:104B200098F407C0863011F1883049F1843079F566
:104B300016C00480F581E02D1FC0ED91FC91119706
:104B40000680F781E02D18C00084F185E02D14C0A7
:104B5000ED91FC9111970284F385E02D0DC0ED914C
:104B6000FC9111970484F585E02D06C0ED91FC9130
:104B700011970684F785E02DCD0109950895ED91F3
:104B8000FC9111970088F189E02DCD0109950895D8
:104B9000CF93DF93EC016B897C898D899E8920E01E
:104BA00030E040E050E00E94293A18161CF4EFA5CE
:104BB000F8A902C0E9A9FAA90995DF91CF91089552
:104BC000DC0170E06370707061307105A9F06230D3
:104BD00071051CF4672B41F0089562307105A1F056
:104BE0006330710501F518C0ED91FC9111970190AA
:104BF000F081E02D62E00EC0ED91FC9111970190E3
:104C0000F081E02D63E006C0ED91FC910190F08110
:104C1000E02D61E009950895ED91FC910190F081FE
:104C2000E02D60E009950895DC01862F63E00E9485
:104C3000183B913071F0913018F09230E9F413C0C4
:104C4000ED91FC9111970190F081E02DCD0164E090
:104C500008C0ED91FC9111970190F081E02DCD01FC
:104C600061E009950895ED91FC9111970190F08113
:104C7000E02DCD0162E009950895DC0170E06370DC
:104C8000707061307105A9F0623071051CF4672BFA
:104C900041F0089562307105A1F06330710501F5AE
:104CA00018C0ED91FC9111970190F081E02D65E025
:104CB0000EC0ED91FC9111970190F081E02D66E01E
:104CC00006C0ED91FC910190F081E02D6AE009951C
:104CD0000895ED91FC910190F081E02D69E0099536
:104CE0000895DC01862F66E00E94183B923009F19E
:104CF000933030F4992359F0913009F03FC010C03F
:104D0000943049F19430F0F09530C1F52EC0ED911A
:104D1000FC9111970190F081E02DCD0164E023C05A
:104D2000ED91FC9111970190F081E02DCD0165E0AE
:104D30001AC0ED91FC9111970190F081E02DCD0109
:104D400061E011C0ED91FC9111970190F081E02D8F
:104D5000CD0163E008C0ED91FC9111970190F081C5
:104D6000E02DCD0162E009950895ED91FC91119738
:104D70000190F081E02DCD0166E009950895DC01F8
:104D800070E0677070706330710591F16430710587
:104D90004CF461307105E1F0623071050CF5672B60
:104DA00079F008956530710599F16530710544F128
:104DB00066307105A9F16730710509F040C038C04F
:104DC000ED91FC9111970190F081E02D61E02EC0F2
:104DD000ED91FC9111970190F081E02D65E026C0E6
:104DE000ED91FC9111970190F081E02D64E01EC0DF
:104DF000ED91FC9111970190F081E02D66E016C0D5
:104E0000ED91FC9111970190F081E02D62E00EC0D0
:104E1000ED91FC9111970190F081E02D6AE006C0C0
:104E2000ED91FC910190F081E02D68E009950895E5
:104E3000ED91FC910190F081E02D69E009950895D4
:104E4000CF92DF92EF92FF920F931F93CF93DF9356
:104E5000FC012281243029F0283019F092E0D92E6B
:104E600002C084E0D82E8F01C0E0D0E0E62EFF24FF
:104E7000CC24C394F8012381C7010C2E02C0959560
:104E800087950A94E2F7678180FD6C25822F0E9446
:104E90002B2E21960F5F1F4FCD1560F3DF91CF9121
:104EA0001F910F91FF90EF90DF90CF900895CF93D7
:104EB000DF93EC01E881F9810190F081E02DCD5B79
:104EC000DF4F8881C354D040882311F461E001C0D2
:104ED00063E0CE0109958BA59CA50E94A72DE881D2
:104EE000F9810190F081E02DCD5BDF4F8881C354C3
:104EF000D040882311F460E001C062E0CE01099542
:104F0000DF91CF9108956F927F928F929F92AF928F
:104F1000BF92CF92DF92EF92FF920F931F93CF93A6
:104F2000DF93EC013A014B01CB01BA0120E030E004
:104F300040E050E00E94DA38882309F441C0AB8C8D
:104F4000BC8CCD8CDE8CC601B501A40193010E94FE
:104F5000DA388823A9F16BA97CA98DA99EA90E94A2
:104F600079397B018C01C601B501A40193010E942E
:104F7000DE389B01AC01C801B7010E942D3A0E94A6
:104F800046396BAB7CAB8DAB9EAB60E070E080E0F4
:104F900090E4A40193010E94DE380E94943A20E03C
:104FA00034E244E759E40E942D3A6FAB78AF89AF01
:104FB0009AAF6B8E7C8E8D8E9E8ECE010E94AA2221
:104FC000DF91CF911F910F91FF90EF90DF90CF90E5
:104FD000BF90AF909F908F907F906F900895EF92C9
:104FE000FF920F931F93CF93DF93EC018BA19CA1B2
:104FF000ADA1BEA10097A105B10509F44CC00E9466
:10500000282D7B018C012FA138A549A55AA58BA17C
:105010009CA1ADA1BEA1820F931FA41FB51F821733
:105020009307A407B50730F0E816F9060A071B072F
:1050300058F405C0E816F9060A071B0760F1E216E6
:10504000F3060407150738F5CD5BDF4F8881C3549D
:10505000D0402B853C854D855E85813029F42F5FBE
:105060003F4F4F4F5F4F04C02150304040405040B1
:105070002B873C874D875E87E881F9816B85677058
:105080000280F381E02DCE010995EFA2F8A609A7D1
:105090001AA781E001C080E0DF91CF911F910F91AD
:1050A000FF90EF900895CF93DF93FC01278530891F
:1050B0004189528983859485A585B6852817390746
:1050C0004A075B0711F480E00FC0EF01CD5BDF4FB3
:1050D00082179307A407B5071CF481E0888301C0F9
:1050E0001882CF010E94EF27DF91CF910895CF93CF
:1050F000DF93EC010E94EF27882319F0CE010E9474
:10510000AA2281E0DF91CF910895CF93DF93EC0144
:105110006B897C898D899E8920E030E040E050E0F9
:105120000E94DA38882369F42F85388949895A8999
:105130008B859C85AD85BE85281739074A075B0797
:1051400021F0CE010E947728E3CFDF91CF9108951F
:105150000F931F938C010E941724C8010E94852879
:105160001F910F910895FC01809179048C3090F487
:1051700082838F5F80937904815090E0FC01EE0F71
:10518000FF1FE80FF91FE658FB4F88EB9BE0928367
:10519000818308958FEF82830895DC0112968C91AC
:1051A000129790E0FC01EE0FFF1FE80FF91FE65881
:1051B000FB4F80818F7B808312968C916CE00E94E4
:1051C000183B90E0AC01440F551F480F591F440F86
:1051D000551F440F551F20E030E0C901840F951F73
:1051E000FC01EE0FFF1FE80FF91FE658FB4F80810F
:1051F00086FD05C02F5F3F4F2C30310571F70895B4
:10520000FC0122812C30B8F58081992787FD90958B
:1052100048E850E0481B590B440F551F440F551FD9
:105220006417750784F08181992787FD909548E57B
:1052300052E0481B590B440F551F440F551F64176C
:1052400075070CF4AB0142505040CA01AA2797FDE4
:10525000A095BA2F880F991FAA1FBB1F4FB7F894AC
:1052600030E0F901EE0FFF1FE20FF31FE658FB4F8E
:10527000928381834FBF0895AF92BF92CF92DF9206
:10528000EF92FF920F931F93CF93DF93EC019B015B
:1052900082E0603278070CF048C077FF03C020E05E
:1052A00030E005C0653B710514F024EB30E000D020
:1052B00000D0B901882777FD8095982F2881332762
:1052C00027FD3095E8E8AE2EB12CA21AB30AAA0C3D
:1052D000BB1CAA0CBB1CCC24B7FCC094DC2CE98101
:1052E000FF27E7FDF09528E532E02E1B3F0B220F4C
:1052F000331F220F331F442737FD4095542FEDB73E
:10530000FEB7218332834383548320E030E040E0C2
:1053100050E004EBE02EF12C012D112D0E94BC3346
:105320009B010F900F900F900F90CE01B9010E943A
:105330000029DF91CF911F910F91FF90EF90DF90A7
:10534000CF90BF90AF900895CF92DF92EF92FF92EF
:105350001F93CF93DF93EC01162F7A0169018A81A5
:105360008C3008F064C0862F61E00E94EC2D8A81A9
:1053700090E0FC01EE0FFF1FE80FF91FE658FB4F0E
:105380001F738081807C812B808380E292E08E1964
:105390009F0964E070E00E94243B688380E699E006
:1053A0008C199D0964E070E00E94243B6983AA8106
:1053B0008A2F6CE00E94183B682F70E0AB01440F0D
:1053C000551F460F571F440F551F440F551F20E010
:1053D00030E0C901840F951FFC01EE0FFF1FE80F9D
:1053E000F91FE658FB4F808186FD15C02F5F3F4FA8
:1053F0002C30310571F724C01092800082E0809338
:1054000081001092850010928400B19A80916F0003
:10541000826080936F008A2F90E0FC01EE0FFF1FE7
:10542000E80FF91FE658FB4F8081806480838A81F2
:10543000DF91CF911F91FF90EF90DF90CF90089573
:10544000672BD1F2E8CF40E252E020E639E00E943B
:10545000A42908951F920F920FB60F9211242F9333
:105460003F934F935F936F937F938F939F93AF93EC
:10547000BF93EF93FF9380919E0487FF05C0109226
:105480008500109284002BC020919E04332727FDB5
:1054900030958091790490E02817390704F58091C0
:1054A0009E04992787FD9095FC01EE0FFF1FE80FE2
:1054B000F91FE658FB4F808186FF11C080919E0442
:1054C000992787FD9095FC01EE0FFF1FE80FF91F4C
:1054D000E658FB4F80818F7360E00E942B2E8091F5
:1054E0009E048F5F80939E0420919E04332727FDA6
:1054F00030958091790490E0281739070CF04EC060
:1055000080919E048C300CF049C020918400309131
:10551000850080919E04992787FD9095FC01EE0FF0
:10552000FF1FE80FF91FE658FB4F81819281280F7A
:10553000391F309389002093880080919E04992719
:1055400087FD9095FC01EE0FFF1FE80FF91FE6584D
:10555000FB4F808186FF2BC080919E04992787FD99
:105560009095FC01EE0FFF1FE80FF91FE658FB4F67
:1055700080818F7361E00E942B2E19C080E49CE92A
:1055800005C08091840090918500049690938900D5
:10559000809388008FEF80939E0409C080918400DF
:1055A00090918500049680549C4940F3EACFFF9186
:1055B000EF91BF91AF919F918F917F916F915F918B
:1055C0004F913F912F910F900FBE0F901F90189504
:1055D000F999FECF72BD61BDF89A80B50895F99929
:1055E000FECF1FBA72BD61BD40BD0FB6F894FA9AE6
:1055F000F99A0FBE08951092A0040895E0EBF0E030
:1056000090819368908387708093B1001092B3006B
:105610008BE061E00E94EC2D0895E0EBF0E09081DA
:105620009362908387708093B1001092B40083E0FE
:1056300061E00E94EC2D0895CF93DF938CE060E051
:105640000E942B2E88E060E00E942B2EC7E0D0E065
:1056500084E060E00E942B2E8091A10490E00C2E4B
:1056600002C0959587950A94E2F780FF03C088E011
:1056700061E002C088E060E00E942B2E84E061E0DF
:105680000E942B2E21978FEFCF3FD80709F78CE090
:1056900061E00E942B2EDF91CF9108950F931F930D
:1056A000CF93DF93EC01142F8A81813029F404E039
:1056B00042E058E070E108C0823011F080E0E0C0C4
:1056C00000E241E050E870E4113041F49B85892FFD
:1056D00086958695869580FF10C009C01230A1F48A
:1056E0009B85892F86958695869580FD06C06130BD
:1056F00011F4985F05C0985003C0613019F4905FB1
:105700009B8752C09051FCCF133041F48B856130A0
:1057100011F4885F01C088508B8746C0143009F0AF
:1057200043C08B85613011F48F5F01C081508B873E
:10573000AB85AF73AB87A03148F4B0E0E2E6F2E0AE
:10574000EA1BFB0B2081AE5ABD4F19C08A2F805136
:10575000803148F48A2F90E0FC01EE5BFD4F208100
:10576000E2E7F2E01DC08A2F8052803150F4B0E0B1
:10577000E2E8F2E0EA1BFB0B2081AE5CBD4F8C91AE
:1057800015C08A2F8053803118F080E020E00EC0D1
:105790008A2F90E0FC01EE5DFD4F2081E2E9F2E00E
:1057A000E81BF90B808102C08FEF2FEF3B853F7321
:1057B0003B879A81913029F42093B3008093B40001
:1057C00004C0923011F427BD88BD242F202B672FF1
:1057D000652B962F922B90958091A10498239093FE
:1057E000A104143019F5303118F4922B9093A104D0
:1057F000832F8051803130F4452B8091A104842B7C
:105800008093A104832F8052803130F4572B8091F4
:10581000A104852B8093A1043053303160F5702BA7
:105820008091A104872B8093A10425C0832F8695A6
:10583000869586958330B1F0843028F4813071F0FC
:10584000823070F409C0853081F0853060F0863098
:1058500079F0873081F40BC0902B0BC0922B09C0DC
:10586000942B07C0542B952B04C0962B02C0702B91
:10587000972B9093A10480EA94E00E941C2B8B85C7
:10588000DF91CF911F910F9108950F931F938C017A
:105890008CE061E00E94EC2D87E061E00E94EC2D3D
:1058A00088E061E00E94EC2D84E061E00E94EC2D34
:1058B0001092A104C8010E941C2B87E060E00E94A6
:1058C0002B2E1F910F910895DF92EF92FF920F936D
:1058D0001F938C017B01D42E80EA94E00E94452C1A
:1058E000F801F182E082D2821386F1E0DF1629F519
:1058F0008091A104817E8093A10480EA94E00E94BB
:105900001C2B8BE061E00E94EC2D83E061E00E94A3
:10591000EC2D8BE061E00E942B2E83E061E00E9481
:105920002B2E81E00E94FE2A81E00E940D2B8FEF3A
:105930008093B3008093B4002FC082E0D81661F545
:105940008091A1048E718093A10480EA94E00E946A
:105950001C2B85E061E00E94EC2D86E061E00E9456
:10596000EC2D85E061E00E942B2E86E061E00E9434
:105970002B2E84B5836884BD17BC86E061E00E944D
:10598000EC2D84B5836284BD18BC85E061E00E9483
:10599000EC2D8FEF87BD88BD1F910F91FF90EF9089
:1059A000DF9008951F920F920FB60F9211242F933C
:1059B0003F938F939F93AF93BF938091A604909151
:1059C000A704A091A804B091A9043091AA0401965B
:1059D000A11DB11D232F2D5F2D3720F02D570196CE
:1059E000A11DB11D2093AA048093A6049093A7043F
:1059F000A093A804B093A9048091A2049091A30459
:105A0000A091A404B091A5040196A11DB11D80939D
:105A1000A2049093A304A093A404B093A504BF91FF
:105A2000AF919F918F913F912F910F900FBE0F904B
:105A30001F9018958FB7F8942091A6043091A70471
:105A40004091A8045091A9048FBFB901CA010895DB
:105A50009FB7F8942091A2043091A3044091A4042C
:105A60005091A50486B5A89B06C08F3F21F02F5FFB
:105A70003F4F4F4F5F4F9FBF542F432F322F22274F
:105A8000280F311D411D511D82E0220F331F441F7D
:105A9000551F8A95D1F7B901CA0108959B01AC0140
:105AA0007FB7F8948091A2049091A304A091A404DC
:105AB000B091A50466B5A89B05C06F3F19F001968B
:105AC000A11DB11D7FBFBA2FA92F982F8827860F40
:105AD000911DA11DB11D62E0880F991FAA1FBB1F58
