:100000000C94DF010C9407020C9407020C94070275
:100010000C9407020C9407020C9407020C9407023C
:100020000C9407020C9407020C9407020C94CE2A3D
:100030000C9407020C9407020C9407020C9407021C
:100040000C946F2F0C9407020C941D310C946B319F
:100050000C9407020C9407020C9407020C940702FC
:100060000C9407020C940702000000006410B71DF6
:10007000C8206E3BAC30D9269041DC76F4516B6BD6
:100080005861B24D3C7105502083B8ED44930FF098
:10009000E8A3D6D68CB361CBB0C2649BD4D2D3864E
:1000A00078E20AA01CF2BDBD43616C63756C61749B
:1000B0006564206D61784C656E6774683A2000460F
:1000C0006972737420776176652068616C6600548C
:1000D00068697320706F696E742066616C6C732040
:1000E0006F757473696465207468652061726561F9
:1000F000206F662074686973206D616368696E653E
:100100002E20536B697070696E672069742E006DC4
:100110006D004368616E6765642050656E20776985
:1001200064746820746F20004E6577206163636596
:100130006C65726174696F6E3A20004E6577206D50
:1001400061782073706565643A200055703A20002C
:10015000446F776E3A2000504753504545442C0079
:1001600050474C4946542C005047535445504D5528
:100170004C5449504C4945522C005047535445501B
:10018000535045525245562C0050474D4D50455204
:100190005245562C00504753495A452C0050474E63
:1001A000414D452C002900526563616C63207061EC
:1001B000676548656967687420696E207374657047
:1001C000732028002900526563616C6320706167A9
:1001D00065576964746820696E2073746570732054
:1001E00028002900292C2073746570735065724DA6
:1001F0004D202800526563616C63206D6D506572FF
:10020000537465702028004C6F61646564206D6FC5
:10021000746F722073746570206D756C7469706C86
:100220006965723A004C6F61646564206D61636852
:10023000696E65206E616D653A004C6F616465643E
:1002400020757020706F733A004C6F616465642094
:10025000646F776E20706F733A004C6F61646564F1
:10026000206D6F746F722073746570732070657287
:10027000207265763A004C6F61646564206D6D2074
:10028000706572207265763A004C6F616465642017
:100290006D616368696E65206865696768743A00B6
:1002A0004C6F61646564206D616368696E65207779
:1002B000696474683A002069736E27742061206352
:1002C0006F6D6D616E642049207265636F676E6942
:1002D00073652E00536F7272792C200029206E6F87
:1002E00074207061727365642E00436F6D6D616E72
:1002F00064202800436865636B73756D206E6F74AE
:10030000206D617463686564213A004920676F74E9
:100310002000504F4C41524752415048204F4E21EF
:100320000000000000240027002A00000000002533
:100330000028002B000000000023002600290004F4
:10034000040404040404040202020202020303037C
:100350000303030102040810204080010204081076
:100360002001020408102000000007000201000024
:100370000304060000000000000000494E46494EFC
:100380004954594E414ECDCCCC3D0AD7233C17B7EA
:10039000D13877CC2B329595E6241FB14F0A000057
:1003A00020410000C84200401C4620BCBE4CCA1B75
:1003B0000E5AAEC59D7472089F2BD7326B0811245C
:1003C0001FBECFEFD8E0DEBFCDBF12E0A0E0B1E0AE
:1003D000E8E4FAE702C005900D92AC38B107D9F70E
:1003E00015E0ACE8B2E001C01D92A135B107E1F71C
:1003F00013E0CCEBD3E004C02297FE010E94D13C75
:10040000C63BD107C9F70E942D330C94173D0C94BD
:100410000000A0E0B0E0EFE0F2E00C94E83CEC017A
:10042000A880B980CA80DB80A114B104C104D104C2
:1004300041F484E2A82E89EDB82E8BE5C82E87E022
:10044000D82EC601B5012DE133EF41E050E00E9406
:10045000A03C27EA31E440E050E00E94403C7B01B0
:100460008C01C601B5012DE133EF41E050E00E945F
:10047000A03CCA01B9012CEE34EF4FEF5FEF0E94B0
:10048000403C6E0D7F1D801F911F97FF04C061507F
:10049000704080409048688379838A839B839B0166
:1004A000AC015F77B901CA01CDB7DEB7EAE00C94C1
:1004B000043D0E94090208958CE192E00E94090225
:1004C000089560931C0270931D0280931E02909306
:1004D0001F020895662777270C942003FC018827C4
:1004E0009927E89421912032E9F3293010F02E3039
:1004F000C8F32B3241F02D3239F4689404C00E94C5
:100500001803820F911D219120532A30C0F31EF44D
:10051000909581959F4F08951F93FC0199278827F7
:10052000BC01E89411911032E9F3193010F01E303B
:10053000C8F31B3251F01D3249F4689406C00E9482
:100540000303610F711D811D911D119110531A300C
:10055000B0F33EF490958095709561957F4F8F4FE5
:100560009F4F1F910895FB01DC0102C001900D9285
:1005700041505040D8F70895FB01DC018D91019066
:1005800080190110D9F3990B0895FB01DC0101904A
:100590000D920020E1F70895FB01DC01415050402D
:1005A00030F08D910190801919F40020B9F7881B63
:1005B000990B0895FB01DC014150504048F0019037
:1005C0000D920020C9F701C01D9241505040E0F744
:1005D0000895FB0151915523A9F0BF01DC014D9114
:1005E00045174111E1F759F4CD010190002049F080
:1005F0004D9140154111C9F3FB014111EFCF81E04D
:1006000090E001970895592F482F372F262F660F16
:10061000771F881F991F660F771F881F991F620F0A
:10062000731F841F951F660F771F881F991F0895DA
:100630007AE0979F902D879F802D910D112408952A
:10064000A0E0B0E0E6E2F3E00C94E63CEC015B01F4
:100650006115710519F0FB0191838083F9908F2D4D
:1006600090E00E94D53C892BC9F7FDE2FF1621F4EA
:10067000F990EE24E39405C02BE2F21609F4F99008
:10068000EE248E0101501040C8016BE773E043E097
:1006900050E00E948004892B01F58E010E5F1F4FF0
:1006A000C8016EE773E045E050E00E948004892BAA
:1006B00019F48E01095F1F4FA114B10419F0F5015F
:1006C00011830083E0FC04C070E090E080E814C077
:1006D00070E090E080E86FEF08C1C80163E873E064
:1006E00043E050E00E948004892B69F4A114B10416
:1006F00029F470E090E080EC6FE7F7C02296F501F6
:10070000D183C083F6CF8824992440E050E060E094
:1007100070E0EF2DE053EA30A0F5F2E0EF2A8E2DE5
:1007200090E09C0128703070E2FE06C0232B79F522
:100730000894811C911C2BC0232B19F0089481086C
:100740009108DB01CA0112E0880F991FAA1FBB1F85
:100750001A95D1F7480F591F6A1F7B1F440F551F69
:10076000661F771F4E0F511D611D711D483929E904
:10077000520729E9620729E1720748F084E0E82A74
:1007800006C0EE3F31F4E3FC39C098E0E92AF99065
:10079000C0CFE53311F0E53189F529912D3219F4F7
:1007A000E0E1EE2A05C02B3219F081E090E003C0B1
:1007B000299182E090E0E22FE053EA3018F0C81B64
:1007C000D90B1CC020E030E0FCE020383F075CF48F
:1007D000C901880F991F880F991F280F391F220FF1
:1007E000331F2E0F311DE991E053EA3068F3E4FE28
:1007F00003C0309521953F4F820E931ECE2CDD24F1
:10080000E1FE07C0A114B10421F02197F501D183C5
:10081000C083CB01BA010E94BE3A7B018C01F3E098
:10082000CF22DD2423E0C216D10421F417FB10955A
:1008300017F9109557016801C801B70120E030E0B1
:1008400040E050E00E94213A882309F44AC097FE14
:100850000DC02AE9E22E23E0F22E909481949108B3
:100860009394C0E2D0E000E010E012C092EBE92ED9
:1008700093E0F92EF6CFF7012591359145915491EA
:10088000C601B5010E94743B5B016C018C1A9D0A84
:100890008C169D0684F7D595C7950F5F1F4F0630C0
:1008A000110529F08CEF9FEFE80EF91EF1CFC5017D
:1008B000D6017C018D018C2D880F8D2D881F8F3FD7
:1008C00051F0C601B50120E030E040E050E00E9468
:1008D000213A882331F482E290E09093500580938E
:1008E0004F057E2D9F2D802F612F272F392F482FC9
:1008F000562FB901CA01CDB7DEB7ECE00C94023D2A
:10090000FB01DC014150504088F08D9181341CF096
:100910008B350CF4805E659161341CF06B350CF402
:10092000605E861B611171F3990B0895881BFCCFE3
:10093000AF92BF92CF92DF92EF92FF920F931F93ED
:100940006E157F058007910734F42E153F0540078B
:10095000510764F42CC0E616F7060807190794F44B
:10096000A216B306C406D5063CF423C0A216B306ED
:10097000C406D506BCF41FC02A153B054C055D0511
:10098000C4F41BC06E157F058007910791F42A15EA
:100990003B054C055D058CF0A216B306C406D506D2
:1009A00044F409C02A153B054C055D0511F484E0AB
:1009B00005C082E003C083E001C081E01F910F9178
:1009C000FF90EF90DF90CF90BF90AF900895EF929F
:1009D000FF920F931F937B018C01662757FD609553
:1009E000762FCB01BA010E94C03A20919702309134
:1009F00098024091990250919A020E94743BA8017A
:100A000097010E94253A7B018C0120E030E040E014
:100A100050E40E94703B87FF03C061E070E004C0B7
:100A2000C801B7010E948D3ACB011F910F91FF9031
:100A3000EF9008956F927F928F929F92AF92BF92A4
:100A4000CF92DF92EF92FF920F931F93CF93DF939A
:100A50007C015B01662757FD6095762FCB01BA01BB
:100A60000E94C03A3B014C010027F7FC0095102F73
:100A7000C801B7010E94C03A7B018C01CC24B7FCAD
:100A8000C094DC2CC601B5010E94C03A9B01AC01A8
:100A9000C801B7010E94253AA40193010E94743B4A
:100AA0009B01AC01C401B3010E94BC397B018C01E4
:100AB0000E948D3AEB01BE01882777FD8095982F23
:100AC0000E94C03A9B01AC01C801B7010E94BC3929
:100AD00020E030E040E05FE30E94703B18160CF429
:100AE0002196CE01DF91CF911F910F91FF90EF9052
:100AF000DF90CF90BF90AF909F908F907F906F903E
:100B000008952F923F924F925F926F927F928F92B1
:100B10009F92AF92BF92CF92DF92EF92FF920F938C
:100B20001F931B012C0139014A0160919F027091B2
:100B3000A0028091A1029091A2020E94C03A7B0182
:100B40008C01A80197010E94743B5B016C01C401F8
:100B5000B301A40193010E94743B9B01AC01C60147
:100B6000B5010E94BC395B016C01C201B101A20157
:100B700091010E94743B9B01AC01C601B5010E942A
:100B8000BD395B016C01C801B701A80197010E9442
:100B9000BD399B01AC01C601B5010E94253A1F91E8
:100BA0000F91FF90EF90DF90CF90BF90AF909F900C
:100BB0008F907F906F905F904F903F902F9008950F
:100BC0000F931F93CF93DF93242F2627A22FB0E0FC
:100BD000AF70B070AA0FBB1FAA0FBB1FC8E6D0E052
:100BE000AC0FBD1FFD010591159125913491E4E0F5
:100BF0009695879577956795EA95D1F706271727F4
:100C00002827392742954F70402750E04F70507089
:100C1000440F551F440F551F4C0F5D1FFA0185915E
:100C20009591A591B49144E0369527951795079530
:100C30004A95D1F7082719272A273B27B801C90168
:100C4000DF91CF911F910F910895EF92FF920F9333
:100C50001F938130910509F08EC16F5F7F4F09F0BE
:100C600035C28EE593E060E071E00E94FD388CE8CB
:100C700092E00E945A2980E992E065E071E00E94CA
:100C8000FD3885E693E066E071E00E94FD38209132
:100C9000200230912102442737FD4095542F609166
:100CA000260270E080E090E00E94403C0E94C03A42
:100CB0007B018C01609122027091230280912402B9
:100CC00090912502A80197010E94253A609397020E
:100CD000709398028093990290939A02C801B70189
:100CE000209122023091230240912402509125024A
:100CF0000E94253A7B018C0160939B0270939C02B9
:100D000080939D0290939E0260913602709137020B
:100D1000882777FD8095982F0E94C03AA8019701F7
:100D20000E94743B0E948D3A60939F027093A002D0
:100D30008093A1029093A2026091380270913902CF
:100D4000882777FD8095982F0E94C03AA8019701C7
:100D50000E94743B0E948D3A6093A3027093A40298
:100D60008093A5029093A6028CE693E06FE071E079
:100D70000E94FD3883E793E067E171E00E94FD384F
:100D80008AE793E06AE471E00E94FD3881E893E02D
:100D90006AE471E00E94FD3888E893E06AE471E05B
:100DA0000E94FD388FE893E06AE471E00E94FD380C
:100DB00086E993E069E571E00E94FD388DE993E0F2
:100DC0006FE571E00E94FD3884EA93E066E671E029
:100DD0000E94FD388BEA93E06EE671E00E94FD38D8
:100DE00082EB93E069E771E00E94FD3889EB93E0C4
:100DF00066E973E00E949A3986EB92E065E071E063
:100E00000E94FD3880EC93E06FE771E00E94FD38AE
:100E100087EC93E061E871E00E94FD388EEC93E08E
:100E200066E871E00E94FD3885ED93E06AE871E0C4
:100E30000E94FD388CED93E06EE871E00E94FD3871
:100E400083EE93E062E971E00E94FD388AEE93E060
:100E500066E971E00E94FD3881EF93E06AE971E094
:100E60000E94FD3888EF93E06EE971E00E94FD3842
:100E70008FEF93E062EA71E00E94FD3886E094E033
:100E800066EA71E00E94FD388DE094E06AEA71E064
:100E90000E94FD3884E194E06EEA71E00E94FD3822
:100EA0008BE194E062EB71E00E94FD3882E294E015
:100EB00066EB71E00E94FD3889E294E06AEB71E034
:100EC0000E94FD3880E394E06EEB71E00E94FD38F3
:100ED00087E394E062EC71E00E94FD388EE394E0D9
:100EE00066EC71E00E94FD3885E494E06AEC71E004
:100EF0000E94FD388CE494E06EEC71E00E94FD38B5
:100F000083E594E062ED71E00E94FD388AE594E0AB
:100F100066ED71E00E94FD3881E694E06AED71E0D3
:100F20000E94FD3888E694E06EED71E00E94FD3885
:100F300060912002709121028EEB92E041E00E94CC
:100F4000082D60912002709121028AEC92E042E02B
:100F50000E94082D86ED92E063EF75E14CEE55E1BD
:100F60000E94DF248AE193E065EE75E14EED55E1E4
:100F70000E94DF24ABC0892B09F0A8C06F5F7F4FB0
:100F800009F0A4C088E694E00E94B03981E694E0BC
:100F90000E94B0398AE594E00E94B03983E594E07C
:100FA0000E94B0398CE494E00E94B03985E494E06A
:100FB0000E94B0398EE394E00E94B03987E394E058
:100FC0000E94B03980E394E00E94B03989E294E055
:100FD0000E94B03982E294E00E94B0398BE194E043
:100FE0000E94B03984E194E00E94B0398DE094E031
:100FF0000E94B03986E094E00E94B0398FEF93E010
:101000000E94B03988EF93E00E94B03981EF93E0FD
:101010000E94B0398AEE93E00E94B03983EE93E0EB
:101020000E94B0398CED93E00E94B03985ED93E0D9
:101030000E94B0398EEC93E00E94B03987EC93E0C7
:101040000E94B03980EC93E00E94B03986EB92E0C8
:101050000E94B03989EB93E00E94B03982EB93E0B3
:101060000E94B0398BEA93E00E94B03984EA93E0A1
:101070000E94B0398DE993E00E94B03986E993E08F
:101080000E94B0398FE893E00E94B03988E893E07D
:101090000E94B03981E893E00E94B0398AE793E07A
:1010A0000E94B03983E793E00E94B0398CE693E068
:1010B0000E94B03985E693E00E94B03980E992E061
:1010C0000E94B0398EE593E00E94B0391F910F91D4
:1010D000FF90EF90089580E090E06FEF7FEF0E9427
:1010E0002506089581E090E06FEF7FEF0E942506CE
:1010F0000895CF92DF92EF92FF920F931F93CF93B9
:10110000DF936C01EE24EA94FE2C8701C0E0D0E06E
:101110000CC0C601BE010E94E236482FC801B701CB
:101120000E94E0057B018C012196F6018481958166
:10113000C817D90770F3A8019701209530954095FD
:101140005095B901CA01DF91CF911F910F91FF9086
:10115000EF90DF90CF9008950F931F9384E090E07D
:101160000E94762D8C010E94FD2D2DB73EB7201BCD
:10117000310BC9011F910F9108950E94AC089C0189
:101180008091AB029091AC0228173907D1F03093CF
:10119000AC022093AB028AE295E06CE673E00E9419
:1011A00012366091AB027091AC028AE295E04AE09F
:1011B00050E00E94D0348AE295E067EC73E00E9430
:1011C000453608958AE295E06DE973E00E94453660
:1011D00008958AE295E066E973E00E944536089535
:1011E000AF92BF92CF92DF92EF92FF920F931F9335
:1011F0007B018C01CA01B9010E94743B5B016C0147
:10120000C801B701A80197010E94743B9B01AC0182
:10121000C601B5010E94BC390E94DB3B1F910F91B2
:10122000FF90EF90DF90CF90BF90AF900895AF9276
:10123000BF92CF92DF92EF92FF920F931F937B01A9
:101240008C0159016A0160919F027091A002809106
:10125000A1029091A2020E94C03AA80197010E94A7
:10126000BC399B01AC010E94743B7B018C01C6011F
:10127000B501A60195010E94743B9B01AC01C80118
:10128000B7010E94BD390E94DB3B1F910F91FF9077
:10129000EF90DF90CF90BF90AF900895AF92BF9244
:1012A000CF92DF92EF92FF920F931F937B018C01FD
:1012B00059016A01A80197010E94743B7B018C01CE
:1012C000C601B501A60195010E94743B9B01AC01CA
:1012D000C801B7010E94BD390E94DB3B1F910F91ED
:1012E000FF90EF90DF90CF90BF90AF9008952F9236
:1012F0003F924F925F926F927F928F929F92AF92A6
:10130000BF92CF92DF92EF92FF920F931F93DF93E2
:10131000CF9300D000D0CDB7DEB769837A838B83BB
:101320009C8359016A011701280161157105810526
:10133000910559F40F2EF0E0EF2EF0E0FF2EF0E0D3
:101340000F2FF0E01F2FF02DA4C0CA01B9010E9499
:10135000743B7B018C01C601B50120E030E040E028
:1013600050E00E94213A882324F417FB109517F9C6
:101370001095C201B101A20191010E94BD393B014A
:101380004C01C801B701A40193010E94253A7B01D9
:101390008C0169817A818B819C810E94C03A9B017A
:1013A000AC01C801B7010E94213A8823B4F5C601F7
:1013B000B50120E030E040E050E00E94213A88236F
:1013C00029F4C401B3010E94DB3B0DC0C201B1018D
:1013D000A60195010E94253A9B01AC015F77C601E9
:1013E000B5010E94BD397B018C01D0902702C090CD
:1013F0002802B0902902A0902A022D2D3C2D4B2DC1
:101400005A2D0E94703B18160CF043C08D2D9C2D58
:10141000AB2DBA2D7C018D013CC0C601B50120E089
:1014200030E040E050E00E94213A882359F4C401A2
:10143000B3010E94DB3B7B018C0117FB109517F970
:1014400010950FC0C201B101A60195010E94253A75
:101450009B01AC015F77C601B5010E94BC397B01DD
:101460008C018091270290912802A0912902B091CD
:101470002A025C016D01D7FAD094D7F8D094C80144
:10148000B701A60195010E94213A882314F4860130
:101490007501B701C8010F900F900F900F90CF9179
:1014A000DF911F910F91FF90EF90DF90CF90BF9051
:1014B000AF909F908F907F906F905F904F903F90F4
:1014C0002F900895809132028823C1F18AE295E03D
:1014D00062EB73E00E94123686ED92E00E9439239F
:1014E0002091260230E040E050E00E94A03C8AE2D9
:1014F00095E0BA01A9012AE030E00E947C348AE23A
:1015000095E060EC73E00E9412368AE193E00E945D
:1015100039232091260230E040E050E00E94A03CB8
:101520008AE295E0BA01A9012AE030E00E947C3409
:101530008AE295E067EC73E00E9445360895CF9308
:10154000DF93EC01AB01662757FD6095762F0E9473
:10155000D02407C080913302882319F0CE010E9465
:101560001E29CE010E94292361157105810591056F
:1015700089F70E94B72F6093AE027093AF028093F9
:10158000B0029093B102DF91CF910895EF92FF9254
:101590000F931F938091A7029091A802A091A90296
:1015A000B091AA020097A105B10509F040C0609171
:1015B0009F027091A0028091A1029091A2020E94CC
:1015C000C03A7B018C016091A3027091A4028091CA
:1015D000A5029091A6020E94C03A9B01AC01C801ED
:1015E000B7010E944E0920E030E040E05FE30E9436
:1015F000BD390E948D3A6093A7027093A802809330
:10160000A9029093AA028AE295E068EA70E00E943B
:1016100066334091A7025091A8026091A90270918F
:10162000AA028AE295E02AE030E00E94BC34609190
:10163000A7027091A8028091A9029091AA021F911D
:101640000F91FF90EF9008952F923F924F925F92EB
:101650006F927F928F929F92AF92BF92CF92DF92C2
:10166000EF92FF920F931F937B018C0159016A0146
:101670000E94B72F6093AE027093AF028093B002C6
:101680009093B10286ED92E00E9421261B012C016D
:101690008AE193E00E9421263B014C0186ED92E015
:1016A00040E050E060E070E00E949C258AE193E019
:1016B00040E050E060E070E00E949C25C801B70166
:1016C0000E94C03A0E948D3AAB01BC0186ED92E0C7
:1016D0000E94BE24C601B5010E94C03A0E948D3A04
:1016E000AB01BC018AE193E00E94BE2480912F02ED
:1016F000882309F042C086ED92E00E94212620E076
:1017000030E040E050E00E94213A882324F457FA68
:10171000509457F850948AE193E00E94212620E0EB
:1017200030E040E050E00E94213A882324F497FA08
:10173000909497F8909486ED92E0B201A1010E94F6
:101740009C258AE193E0B401A3010E949C2515C069
:1017500080912F02882349F086ED92E00E941E2995
:101760008AE193E00E941E2908C086ED92E00E9463
:10177000FA288AE193E00E94FA2886ED92E00E941E
:101780002923611571058105910549F48AE193E0EA
:101790000E942923611571058105910529F0809129
:1017A0003302882351F3D4CF0E94620A1F910F9114
:1017B000FF90EF90DF90CF90BF90AF909F908F9071
:1017C0007F906F905F904F903F902F9008958F92F1
:1017D0009F92AF92BF92CF92DF92EF92FF920F93C0
:1017E0001F93CF93DF935C016B01EA014901E11480
:1017F000F104C9F48AE295E06FEB70E00E94A9332E
:1018000080913F02882331F0CE0162E070E00E94B7
:101810006B3C2BC0CE0162E070E00E946B3C709587
:1018200061957F4F22C080913F02E016F106A1F43E
:10183000882331F0CA0162E070E00E946B3C08C06E
:10184000CA0162E070E00E946B3C709561957F4F29
:10185000C6010E949F0A1AC0882319F0CB01BA0161
:1018600005C066277727641B750BC6010E949F0A77
:10187000C501B4010E949F0A80913F02882319F09C
:1018800010923F0203C081E080933F02DF91CF912D
:101890001F910F91FF90EF90DF90CF90BF90AF908E
:1018A0009F908F9008953F924F925F926F927F9298
:1018B0008F929F92AF92BF92CF92DF92EF92FF9260
:1018C0000F931F93DF93CF93CDB7DEB728970FB653
:1018D000F894DEBF0FBECDBFFC012B014A01322EB2
:1018E000141615060CF08DC0BA010E946B3C3B012A
:1018F000CF01B4010E946B3CAA2797FDA095BA2F97
:10190000BC01CD010E94C03A7B018C01B401882743
:1019100077FD8095982F0E94C03A9B01AC01C801C9
:10192000B7010E94253A69837A838B839C830F2EAB
:10193000F0E0AF2EF0E0BF2EF0E0CF2EF0E0DF2E93
:10194000F02D18861F82C30101969E838D83C601E8
:10195000B50129813A814B815C810E94BD395B01CF
:101960006C0120E030E040E85FE30E94703B87FFBD
:1019700002C0F3010CC0C601B50120E030E040E830
:101980005FE30E94BC395B016C01ED81FE8192E056
:10199000391629F486ED92E06AE173E007C0A3E00E
:1019A0003A1639F48AE193E066ED72E0A2019F01F4
:1019B00018C0B4E03B1649F4222733272E1B3F0BF7
:1019C00086ED92E06AE173E00BC081E0381671F4B5
:1019D000222733272E1B3F0B8AE193E066ED72E04E
:1019E000A2018401EF80F8840E94E70B0E94620A42
:1019F000AF81B8851196B887AF838A169B060CF025
:101A0000A6CF28960FB6F894DEBF0FBECDBFCF91FC
:101A1000DF911F910F91FF90EF90DF90CF90BF90DB
:101A2000AF909F908F907F906F905F904F903F907E
:101A30000895EF92FF920F931F937C010AE215E045
:101A4000C80164ED72E00E946633C801B7010E94CC
:101A50001236C80166EB72E00E94A9331F910F9104
:101A6000FF90EF9008952F923F924F925F926F9266
:101A70007F928F929F92AF92BF92CF92DF92EF921E
:101A8000FF920F931F93DF93CF9300D000D0CDB779
:101A9000DEB73B014C0159016A01FA82E982C801B3
:101AA00062E070E00E946B3C882777FD8095982F5C
:101AB000661A770A880A990AA61AB70AC80AD90ABA
:101AC0001C821B821801442437FC4094542C2EC0E5
:101AD00060E070E080E090E0A20191010E94C436D5
:101AE0007B018C0160E070E080E090E0A201910158
:101AF0000E94C4369B01AC010027F7FC0095102F13
:101B0000E60CF71C081D191D442737FD4095542F7E
:101B10002A0D3B1D4C1D5D1DC801B7010E94240B01
:101B20002B813C812F5F3F4F3C832B838B819C819A
:101B3000E981FA81E817F9075CF60F900F900F9092
:101B40000F90CF91DF911F910F91FF90EF90DF9059
:101B5000CF90BF90AF909F908F907F906F905F904D
:101B60004F903F902F9008958AE892E090934D0215
:101B700080934C0290934F0280934E028FE590E049
:101B8000909349028093480280E991E090934B0240
:101B900080934A0281E090E090934702809346024E
:101BA00064EF71E080E090E00E94EB2F0895AF9227
:101BB000BF92CF92DF92EF92FF920F931F93CF933A
:101BC000DF93EC015B016A018CE892E069E070E070
:101BD0000E94C72ACA15DB059CF476010027F7FC92
:101BE0000095102F8CE892E0BE010E94E029C80108
:101BF000B7010E94EB2F2196AC16BD069CF712C0D0
:101C000076010027F7FC0095102F8CE892E0BE01CA
:101C10000E94E029C801B7010E94EB2F2197CA1545
:101C2000DB059CF78CE892E00E947429DF91CF914C
:101C30001F910F91FF90EF90DF90CF90BF90AF90EA
:101C40000895EF92FF920F931F93B6EDEB2EB2E043
:101C5000FB2EC7010E943923AB01BC014C5F5F4FD3
:101C60006F4F7F4FC7010E944F290AE113E0C8015F
:101C70000E943923AB01BC014C5F5F4F6F4F7F4F18
:101C8000C8010E944F29C7010E943923AB01BC0142
:101C90004450504060407040C7010E944F29C80125
:101CA0000E943923AB01BC01445050406040704059
:101CB000C8010E944F291F910F91FF90EF90089546
:101CC0002F923F924F925F926F927F928F929F924C
:101CD000AF92BF92CF92DF92EF92FF920F931F933A
:101CE000DF93CF93CDB7DEB7E0970FB6F894DEBFA2
:101CF0000FBECDBF2B013C019CA28BA20E9481058F
:101D00006B8F7C8F8D8F9E8FA30192010E94F008B4
:101D10006F8B788F898F9A8FC801B701A6019501C3
:101D20000E9481055B016C01A80197010E94F008E7
:101D30007B018C01C601B50120E030E040EA51E4AE
:101D40000E94703B18160CF012C260919F027091B5
:101D5000A0028091A1029091A20264517040804043
:101D600090400E94C03A6F8F78A389A39AA3C601BE
:101D7000B5012F8D38A149A15AA10E94213A88238B
:101D80000CF0F5C1C801B70120E030E040EA51E4B1
:101D90000E94703B18160CF0EAC16091A30270918A
:101DA000A4028091A5029091A602645170408040E7
:101DB00090400E94C03A2B013C01C801B701A30129
:101DC00092010E94213A88230CF0D1C16B8D7C8D49
:101DD0008D8D9E8D20E030E040EA51E40E94703B02
:101DE00018160CF0C4C16B8D7C8D8D8D9E8D2F8D42
:101DF00038A149A15AA10E94213A88230CF0B7C109
:101E00006F89788D898D9A8D20E030E040EA51E429
:101E10000E94703B18160CF0AAC16F89788D898DCD
:101E20009A8DA30192010E94213A88230CF09FC150
:101E300010923202C601B5012B8D3C8D4D8D5E8D09
:101E40000E94BC391B012C01C801B7012F89388DB4
:101E5000498D5A8D0E94BC393B014C01C201B10130
:101E600020E030E040E050E00E94703B18161CF487
:101E70008201710106C08201710117FB109517F9EB
:101E80001095C401B30120E030E040E050E00E9432
:101E9000703B18161CF4A401930103C0A401930124
:101EA0005058C801B7010E94703B18169CF021E001
:101EB00030E03E8B2D8BD401C301B0588DA79EA777
:101EC000AFA7B8ABABA1BCA15D01CC24B7FCC0945B
:101ED000DC2C4EC021E030E03E8B2D8BD201C101C5
:101EE000B05889A79AA7ABA7BCA7ABA1BCA15D01BD
:101EF000CC24B7FCC094DC2C06C02D893E892F5F12
:101F00003F4F3E8B2D8BC201B10120E030E040E01D
:101F100050E00E94703B18161CF48201710104C04D
:101F2000E9A4FAA40BA51CA5AD89BE89BD0188272B
:101F300077FD8095982F0E94C03A9B01AC01C801A3
:101F4000B7010E94253A7B018C01C601B5010E94B0
:101F5000C03A9B01AC01C801B7010E94703B181642
:101F600064F234C02D893E892F5F3F4F3E8B2D8B0D
:101F7000C401B30120E030E040E050E00E94703B3B
:101F800018161CF48401730104C0EDA4FEA40FA56F
:101F900018A9AD89BE89BD01882777FD8095982F46
:101FA0000E94C03A9B01AC01C801B7010E94253ACA
:101FB0007B018C01C601B5010E94C03A9B01AC01B6
:101FC000C801B7010E94703B181664F22D893E8942
:101FD0005901CC24B7FCC094DC2CC601B5010E9489
:101FE000C03A7B018C01C201B101A80197010E9496
:101FF000253A6D837E838F839887C401B301A8013E
:1020000097010E94253A69837A838B839C8310927F
:102010002F02198A1A8A1B8A1C8A19861A861B861D
:102020001C86ADA2BEA2CFA2D8A66B8D7C8D8D8D55
:102030009E8D2D813E814F8158850E94BD396B8FC9
:102040007C8F8D8F9E8F6F89788D898D9A8D298158
:102050003A814B815C810E94BD396F8B788F898F6B
:102060009A8F6B8D7C8D8D8D9E8D2F89388D498DAE
:102070005A8D0E944E096D877E878F87988B6B8D56
:102080007C8D8D8D9E8D2F89388D498D5A8D0E9426
:1020900017091B012C0169847A848B849C848DA18F
:1020A0009EA1AFA1B8A5680E791E8A1E9B1E6989E4
:1020B0007A898B899C890E94C03A5B016C0160918E
:1020C0002B0270912C0280912D0290912E0220E023
:1020D00030E040E850E40E94743B7B018C01C40175
:1020E000B301A60195010E9477090E948D3A698B80
:1020F0007A8B8B8B9C8B0E94C03A7B018C0186ED86
:1021000092E0B801A7010E949C258AE193E0B80102
:10211000A7010E949C256D857E858F8598890E94E8
:102120008D3A7B018C01C201B1010E948D3A9B0165
:10213000AC01C801B7010E94240B89859A85AB8543
:10214000BC850197A109B10989879A87AB87BC87AC
:102150008D899E89A985BA858A0F9B1F892B09F0D5
:1021600064CF81E08093320280932F0206C08AE21E
:1021700095E062EE71E00E94FF350E94BD08E09696
:102180000FB6F894DEBF0FBECDBFCF91DF911F9188
:102190000F91FF90EF90DF90CF90BF90AF909F9006
:1021A0008F907F906F905F904F903F902F90089509
:1021B0000F931F93AB01BC0140932B0250932C0251
:1021C00060932D0270932E0286ED92E00E942A28E1
:1021D00040912B0250912C0260912D0270912E02A1
:1021E0008AE193E00E942A280AE215E0C80168E229
:1021F00071E00E94663340912B0250912C02609155
:102200002D0270912E02C80122E030E00E94EC35D0
:102210001F910F910895CF92DF92EF92FF920F934B
:102220001F937C018B0186E9C82E84E0D82EC6015D
:10223000B701F80140810E94932B0894E11CF11C26
:10224000C601B701F80141810E94932B82E090E022
:102250001F910F91FF90EF90DF90CF9008950F9313
:102260001F93AB01BC014093270250932802609357
:10227000290270932A0286ED92E00E944625409141
:102280002702509128026091290270912A028AE166
:1022900093E00E9446250AE215E0C8016BE371E075
:1022A0000E946633409127025091280260912902D2
:1022B00070912A02C80122E030E00E94EC351F91A3
:1022C0000F910895CF92DF92EF92FF920F931F9399
:1022D0007C018B0196E9C92E94E0D92EC601B70185
:1022E0000E948C2BF80180830894E11CF11CC6012C
:1022F000B7010E948C2BF801818382E090E01F914E
:102300000F91FF90EF90DF90CF9008958AE290E0D8
:1023100064E472E00E94621180914402909145024F
:1023200097FF06C08AE590E09093450280934402AF
:102330008AE295E069E472E00E94663360914402AB
:10234000709145028AE295E04AE050E00E94E33451
:102350008CE290E062E472E00E946211809142029D
:102360009091430297FF06C084EB90E09093430264
:10237000809342028AE295E06AE372E00E9466334B
:1023800060914202709143028AE295E04AE050E097
:102390000E94E334089580E090E066E372E00E94DA
:1023A000621180913602909137021816190644F096
:1023B00080914C0290914D029093370280933602A7
:1023C0008AE295E060EA72E00E946633609136022C
:1023D000709137028AE295E04AE050E00E94E334CF
:1023E00082E090E068E372E00E946211809138021E
:1023F000909139021816190644F080914E0290917E
:102400004F0290933902809338028AE295E069E89E
:1024100072E00E94663360913802709139028AE25C
:1024200095E04AE050E00E94E3340895EF92FF9275
:102430000F931F93CF93DF93AC01EB0124E0E22EC7
:10244000F12CE60EF71E8A010F5F1F4F86E994E01C
:10245000BA010E948C2B8993A801CE15DF0599F74C
:1024600084E090E0DF91CF911F910F91FF90EF906A
:10247000089586E190E067E272E00E941612609192
:102480002702709128028091290290912A020E94CD
:102490008D3A1616170664F080E090E0A8E4B4E4E4
:1024A0008093270290932802A0932902B0932A02D6
:1024B0008AE190E06BE272E00E94161260912B02BA
:1024C00070912C0280912D0290912E020E948D3AE3
:1024D0001616170664F080E090E0A8E4B4E4809358
:1024E0002B0290932C02A0932D02B0932E020895FC
:1024F0008EE090E062E272E00E9416126091220289
:1025000070912302809124029091250220E030E016
:1025100040E85FE30E94213A882394F460914802E6
:1025200070914902882777FD8095982F0E94C03AC4
:1025300060932202709323028093240290932502D9
:102540008AE295E066E772E00E94663340912202DB
:102550005091230260912402709125028AE295E055
:1025600022E030E00E94EC3582E190E060E272E02F
:102570000E94621180912002909121021816190682
:1025800044F080914A0290914B02909321028093F3
:1025900020028AE295E06AE572E00E94663360916B
:1025A0002002709121028AE295E04AE050E00E9408
:1025B000E334089586E994E064E170E00E948C2B96
:1025C00080932602882321F480914602809326027C
:1025D0008AE295E067E072E00E9466338AE295E065
:1025E000609126024AE050E00E945E340895BF9256
:1025F000CF92DF92EF92FF920F931F93DF93CF93CF
:10260000CDB7DEB72E970FB6F894DEBF0FBECDBFA5
:102610008E010F5F1F4FC80165E071E00E94FD3819
:1026200044E0E42EF12C38E0C32ED12CCC0EDD1E7C
:10263000B12E86E994E0B7010E948C2B182FC601B9
:10264000602F7B2D0E94A539C601612F0E94CB38D7
:10265000BC01802F9B2D0E948339C6010E94B63990
:102660000894E11CF11C8CE0E816F10411F7802FAE
:102670009B2D60E070E00E94F336FC01808188238E
:1026800031F4802F9B2D65E673E00E948339109210
:10269000A7021092A8021092A9021092AA0280E941
:1026A00092E08E010F5F1F4FB8010E9483398AE2CA
:1026B00095E065E272E00E9466338AE295E060E9A7
:1026C00072E00E944536C8010E94B0392E960FB6BE
:1026D000F894DEBF0FBECDBFCF91DF911F910F9158
:1026E000FF90EF90DF90CF90BF900895AF92BF9290
:1026F000CF92DF92EF92FF920F931F930E94CB1124
:102700000E9478120E94DA120E94F7120E9486112B
:102710000E9439128EE190E06BE372E00E94161283
:1027200060913B0270913C0280913D0290913E028B
:1027300027E137EB41ED58E30E94213A882364F406
:102740008DEC9CECACE4BFE380933B0290933C02A5
:10275000A0933D02B0933E02A0902202B0902302CB
:10276000C0902402D09025026091260270E080E0A3
:1027700090E02091200230912102442737FD4095BE
:10278000542F0E94403C0E94C03A7B018C01C6013C
:10279000B501A80197010E94253A609397027093B2
:1027A00098028093990290939A02C801B701A601FA
:1027B00095010E94253A60939B0270939C0280933E
:1027C0009D0290939E028AE295E064EF71E00E9480
:1027D00066334091970250919802609199027091EE
:1027E0009A028AE295E022E030E00E94E9358AE22E
:1027F00095E064EE71E00E94663340919B02509137
:102800009C0260919D0270919E028AE295E022E016
:1028100030E00E94E9358AE295E062EE71E00E94C4
:1028200066338AE295E00E948933609136027091A6
:102830003702882777FD8095982F0E94C03A209113
:102840009B0230919C0240919D0250919E020E94F9
:10285000743B0E948D3A60939F027093A002809314
:10286000A1029093A2028AE295E066EC71E00E94D8
:10287000663340919F025091A0026091A102709135
:10288000A2028AE295E02AE030E00E947C348AE2EB
:1028900095E064EC71E00E9466338AE295E00E9464
:1028A00089336091380270913902882777FD8095CD
:1028B000982F0E94C03A20919B0230919C02409137
:1028C0009D0250919E020E94743B0E948D3A60933B
:1028D000A3027093A4028093A5029093A6028AE2B9
:1028E00095E067EA71E00E9466334091A30250913F
:1028F000A4026091A5027091A6028AE295E02AE006
:1029000030E00E947C348AE295E065EA71E00E9442
:1029100066338AE295E00E9489331092A7021092F2
:10292000A8021092A9021092AA021F910F91FF9083
:10293000EF90DF90CF90BF90AF900895EF92FF920D
:102940000F931F93DF93CF93CDB7DEB727970FB6C3
:10295000F894DEBF0FBECDBF7E010894E11CF11CD0
:10296000C7016AE773E00E949A39C70165E673E020
:102970000E94F7378823A1F400E010E0C701B801F6
:102980000E94F336FC010C5F1F4F86E994E0B8010A
:1029900040810E94932B035010400830110571F7BD
:1029A0000E947613CE0101960E94B03927960FB689
:1029B000F894DEBF0FBECDBFCF91DF911F910F9175
:1029C000FF90EF900895CF93DF93C0E0D0E086E9C9
:1029D00094E0BE0140E00E94932B2196C233D105C2
:1029E000B1F70E947613DF91CF910895CF93DF93D3
:1029F000C0E0D0E08AE295E0BE014AE050E00E94EB
:102A0000D0348AE295E068E072E00E94023586E9FF
:102A100094E0BE010E948C2B682F8AE295E04AE088
:102A200050E00E945E342196C832D10519F7DF913B
:102A3000CF910895CF92DF92EF92FF920F931F9361
:102A40000E94F6140AE215E0C8016DE971E00E94E7
:102A50006633C80160E972E00E94123667ECE62E28
:102A600063E0F62EC801B7010E944536C80165E94A
:102A700071E00E9466336091360270913702C8019E
:102A80004AE050E00E94D03450ECC52E53E0D52EE1
:102A9000C801B6010E941236609138027091390265
:102AA000C8014AE050E00E94D034C801B7010E943A
:102AB0004536C80169E871E00E9466334091220200
:102AC000509123026091240270912502C80122E0F6
:102AD00030E00E94E935C801B7010E944536C801BF
:102AE0006AE771E00E9466336091200270912102D2
:102AF000C8014AE050E00E94D034C801B7010E94EA
:102B00004536C80168E671E00E946633C8016091ED
:102B100026024AE050E00E944C34C801B7010E94EE
:102B20004536C80160E671E00E9466336091440258
:102B300070914502C8014AE050E00E94D034C801BB
:102B4000B6010E9412366091420270914302C801A0
:102B50004AE050E00E94D034C801B7010E944536D7
:102B6000C80167E571E00E946633409127025091E9
:102B700028026091290270912A02C80122E030E007
:102B80000E94E935C801B6010E94123640912B021D
:102B900050912C0260912D0270912E02C80122E00A
:102BA00030E00E94E935C801B7010E9445361F9107
:102BB0000F91FF90EF90DF90CF9008958AEC92E014
:102BC00062E043E00E94F22B08958AEC92E061E01B
:102BD00043E00E94F22B08958EEB92E062E043E026
:102BE0000E94F22B08958EEB92E061E043E00E9498
:102BF000F22B0895EF92FF920F931F93DF93CF93E1
:102C0000CDB7DEB7FC01EDB6FEB6448155814F5F0E
:102C10005F4F8DB79EB7841B950B0FB6F8949EBF80
:102C20000FBE8DBF0DB71EB70F5F1F4FCF01B8018D
:102C300020E030E00E947537C8010E946A020FB69A
:102C4000F894FEBE0FBEEDBECF91DF911F910F91A4
:102C5000FF90EF9008954F925F926F927F928F92C4
:102C60009F92AF92BF92CF92DF92EF92FF920F931B
:102C70001F93DF93CF93CDB7DEB72E970FB6F8949F
:102C8000DEBF0FBECDBF6E010894C11CD11CC601B2
:102C90006AE773E00E949A39C6010E94FA157B0127
:102CA0008C016091260270E0882777FD8095982F2F
:102CB0000E94C03A9B01AC01C801B7010E94743B5D
:102CC0002B013C01C6010E94B03978E0872E912C7F
:102CD0008C0E9D1EC40161E873E00E949A39C40104
:102CE0000E94FA157B018C016091260270E0882712
:102CF00077FD8095982F0E94C03A9B01AC01C801D6
:102D0000B7010E94743B5B016C01C4010E94B039A1
:102D1000C301B2010E948D3A7B018C01C601B5014D
:102D20000E948D3A9B01AC01C801B7010E94240B9F
:102D30002E960FB6F894DEBF0FBECDBFCF91DF91B8
:102D40001F910F91FF90EF90DF90CF90BF90AF90C9
:102D50009F908F907F906F905F904F9008950F930A
:102D60001F93DF93CF93CDB7DEB727970FB6F894B5
:102D7000DEBF0FBECDBF8E010F5F1F4FC8016AE7D8
:102D800073E00E949A39C8010E94FA1560933B02D1
:102D900070933C0280933D0290933E02C8010E94D2
:102DA000B0390AE215E0C80162E171E00E946633C1
:102DB00040913B0250913C0260913D0270913E0275
:102DC000C80122E030E00E94E935C8016FE071E0FF
:102DD0000E946633C8010E94893327960FB6F89483
:102DE000DEBF0FBECDBFCF91DF911F910F91089530
:102DF000EF92FF920F931F93DF93CF93CDB7DEB780
:102E00002B970FB6F894DEBF0FBECDBF8E010B5FC0
:102E10001F4FC8016AE773E00E949A39C8010E94F7
:102E2000FA1569837A838B839C83C8010E94B03929
:102E30007E010894E11CF11C6EE070E08B010F5FD5
:102E40001F4FF70141917F0186E994E00E94932B87
:102E5000B8010231110591F70E9476132B960FB637
:102E6000F894DEBF0FBECDBFCF91DF911F910F91C0
:102E7000FF90EF900895EF92FF920F931F93DF93CF
:102E8000CF93CDB7DEB7FC01EDB6FEB644815581D8
:102E90004F5F5F4F8DB79EB7841B950B0FB6F894AD
:102EA0009EBF0FBE8DBF0DB71EB70F5F1F4FCF0167
:102EB000B80120E030E00E947537C8010E946E0220
:102EC0000FB6F894FEBE0FBEEDBECF91DF911F91FD
:102ED0000F91FF90EF9008953F924F925F926F9203
:102EE0007F928F929F92AF92BF92CF92DF92EF929A
:102EF000FF920F931F93DF93CF93CDB7DEB7A497C5
:102F00000FB6F894DEBF0FBECDBF8E010F5F1F4F0F
:102F1000C8016AE773E00E949A39C8010E943B1712
:102F2000AA2797FDA095BA2F2091260230E040E015
:102F300050E0BC01CD010E94403C5B01C8010E94F1
:102F4000B0398E01085F1F4FC80161E873E00E942D
:102F50009A39C8010E94FA15F62EE72ED82EC92EEE
:102F6000C8010E94B0398E01015F1F4FC80168E897
:102F700073E00E949A39C8010E94FA1569A37AA3E6
:102F80008BA39CA3C8010E94B0398E010A5E1F4F1B
:102F9000C8016FE873E00E949A39C8010E94FA15CF
:102FA0002B013C01C8010E94B03930903A0282E006
:102FB00080933A0280913B0290913C02A0913D02A5
:102FC000B0913E028D8F9E8FAF8FB8A32F2D3E2DD7
:102FD0004D2D5C2DC901DA016C017D0188249924F5
:102FE0001EC00894811C911CC0923B02D0923C02EE
:102FF000E0923D02F0923E02C701B601A5010E9497
:10300000E704AC01C501B50122E00E94530CC701E1
:10301000B601A30192010E94BD396B017C01C70179
:10302000B60129A13AA14BA15CA10E94213A181630
:10303000C4F68D8D9E8DAF8DB8A180933B02909389
:103040003C02A0933D02B0933E02EE24FF24EA1816
:10305000FB088AE193E0B7010E949F0AC50162E084
:1030600070E00E946B3C709561957F4F3B01C501FC
:1030700062E070E00E946B3C6B0101E010E011C067
:103080008AE193E0B3010E949F0A86ED92E0B701C6
:103090000E949F0A8AE193E0B6010E949F0A0F5F97
:1030A0001F4F8016910664F78D8D9E8DAF8DB8A150
:1030B00080933B0290933C02A0933D02B0933E026A
:1030C00030923A02A4960FB6F894DEBF0FBECDBF81
:1030D000CF91DF911F910F91FF90EF90DF90CF90F4
:1030E000BF90AF909F908F907F906F905F904F9028
:1030F0003F900895EF92FF920F931F93DF93CF932A
:10310000CDB7DEB727970FB6F894DEBF0FBECDBFA1
:103110008091AD0290918F02823018F1992329F0AD
:10312000E0904202F090430204C0E0904402F0902C
:1031300045028E010F5F1F4FC8016AE773E00E94CE
:103140009A39C8010E943B1790934502809344022C
:10315000C8010E94B0396091440270914502C701D4
:103160000AC0913061F460914402709145028091EF
:1031700042029091430243E050E00E94D70D10922A
:103180008F0227960FB6F894DEBF0FBECDBFCF914A
:10319000DF911F910F91FF90EF900895EF92FF92B2
:1031A0000F931F93DF93CF93CDB7DEB727970FB65B
:1031B000F894DEBF0FBECDBF8091AD0290918F021B
:1031C000823018F1992329F0E0904202F0904302F6
:1031D00004C0E0904402F09045028E010F5F1F4F43
:1031E000C8016AE773E00E949A39C8010E943B1740
:1031F0009093430280934202C8010E94B0396091CB
:10320000420270914302C7010AC0992361F46091A0
:10321000420270914302809144029091450243E042
:1032200050E00E94D70D81E080938F0227960FB661
:10323000F894DEBF0FBECDBFCF91DF911F910F91EC
:10324000FF90EF9008952F923F924F925F926F926E
:103250007F928F929F92AF92BF92CF92DF92EF9226
:10326000FF920F931F93DF93CF93CDB7DEB76B978A
:103270000FB6F894DEBF0FBECDBF6E010894C11C1F
:10328000D11CC6016AE773E00E949A39C6010E9408
:10329000FA157B018C016091260270E0882777FD8A
:1032A0008095982F0E94C03A9B01AC01C801B701DC
:1032B0000E94743B3B014C01C6010E94B0398E0153
:1032C000085F1F4FC80161E873E00E949A39C80186
:1032D0000E94FA156B017C01B0902602C8010E9481
:1032E000B0398E01015F1F4FC80168E873E00E948A
:1032F0009A39C8010E943B179F8B8E8BC8010E9490
:10330000B03986ED92E00E943923688F798F8A8FD9
:103310009B8F8AE193E00E9439231B012C01C40199
:10332000B30120E030E040EA51E40E94213A87FDF9
:1033300030C06B2D70E0882777FD8095982F0E9414
:10334000C03A9B01AC01C701B6010E94743B5B010E
:103350006C0120E030E040EA51E40E94213A87FD10
:1033600018C00E94C60A0E94C03A9B01AC01C40169
:10337000B3010E94703B181664F00E94C60A0E94B6
:10338000C03A9B01AC01C601B5010E94703B181602
:103390003CF48AE295E06FEC70E00E94A93316C01D
:1033A000688D798D8A8D9B8D0E94C03A7B018C013E
:1033B000C201B1010E94C03A9B01AC01C801B70132
:1033C000840173018E889F880E94600E6B960FB6F1
:1033D000F894DEBF0FBECDBFCF91DF911F910F914B
:1033E000FF90EF90DF90CF90BF90AF909F908F9025
:1033F0007F906F905F904F903F902F900895EF9245
:10340000FF920F931F93DF93CF93CDB7DEB72E9725
:103410000FB6F894DEBF0FBECDBF8E010F5F1F4FFA
:10342000C8016AE773E00E949A39C8010E94FA1540
:103430000E94D810C8010E94B0398091AD0283303B
:1034400041F58E01085F1F4FC80161E873E00E94DB
:103450009A39C8010E943B177C01C8010E94B0390B
:1034600081E0E816F104A9F4EBE2EE2EE2E0FE2E94
:103470006AE170E08B010F5F1F4FF70141917F01FF
:1034800086E994E00E94932B0E31110511F0B801EA
:10349000F1CF2E960FB6F894DEBF0FBECDBFCF9101
:1034A000DF911F910F91FF90EF900895EF92FF929F
:1034B0000F931F93DF93CF93CDB7DEB72E970FB641
:1034C000F894DEBF0FBECDBF8E010F5F1F4FC80146
:1034D0006AE773E00E949A39C8010E94FA150E94B7
:1034E0002F11C8010E94B0398091AD02833041F59F
:1034F0008E01085F1F4FC80161E873E00E949A398E
:10350000C8010E943B177C01C8010E94B03981E0CC
:10351000E816F104A9F4F7E2EF2EF2E0FF2E66E1DF
:1035200070E08B010F5F1F4FF70141917F0186E92A
:1035300094E00E94932B0A31110511F0B801F1CFEC
:103540002E960FB6F894DEBF0FBECDBFCF91DF91A0
:103550001F910F91FF90EF9008950F931F93DF93AA
:10356000CF93CDB7DEB762970FB6F894DEBF0FBE2C
:10357000CDBF8E010B5F1F4FC8016AE773E00E9449
:103580009A39C8010E943B179A838983C8010E9417
:10359000B0398E01045F1F4FC80161E873E00E94DB
:1035A0009A39C8010E943B179C838B83C8010E94F3
:1035B000B0398AE295E060E571E00E946633698186
:1035C0007A818AE295E04AE050E00E94E3348AE2A0
:1035D00095E06BE471E00E9466336B817C818AE246
:1035E00095E04AE050E00E94E3348091AD028430DF
:1035F00089F48AE290E0BE016F5F7F4F0E940B1159
:103600008CE290E0BE016D5F7F4F0E940B110E9423
:1036100086113AC08330C1F569817A818B819C81A2
:1036200043E050E00E94D70D68EC70E080E090E04D
:103630000E94EB2F6B817C8189819A8143E050E06D
:103640000E94D70D68EC70E080E090E00E94EB2FC4
:1036500069817A818B819C8143E050E00E94D70D83
:1036600068EC70E080E090E00E94EB2F6B817C8141
:1036700089819A8143E050E00E94D70D68EC70E0A8
:1036800080E090E00E94EB2F62960FB6F894DEBFC8
:103690000FBECDBFCF91DF911F910F9108950F9372
:1036A0001F93DF93CF93CDB7DEB729970FB6F8946A
:1036B000DEBF0FBECDBF8E010D5F1F4FC8016AE791
:1036C00073E00E949A39C8010E943B179A8389834C
:1036D00084E190E0BE016F5F7F4F0E940B11C80133
:1036E0000E94B0390E94761329960FB6F894DEBF77
:1036F0000FBECDBFCF91DF911F910F9108950F9312
:103700001F93DF93CF93CDB7DEB729970FB6F89409
:10371000DEBF0FBECDBF8E010D5F1F4FC8016AE730
:1037200073E00E949A39C8010E943B179A838983EB
:10373000C8010E94B03982E190E0BE016F5F7F4F07
:103740000E940B110E94761329960FB6F894DEBFE3
:103750000FBECDBFCF91DF911F910F9108950F93B1
:103760001F93DF93CF93CDB7DEB764970FB6F8946E
:10377000DEBF0FBECDBF8E01095F1F4FC8016AE7D4
:1037800073E00E949A39C8010E943B179A8389838B
:10379000C8010E94B0398E01025F1F4FC80161E865
:1037A00073E00E949A39C8010E943B179C838B8367
:1037B000C8010E94B03989819A819E838D8380E0FF
:1037C00090E0BE016B5F7F4F0E94621129813A81B8
:1037D0008D819E818217930751F02B3031053CF08B
:1037E00080E090E0BE016F5F7F4F0E940B1182E08E
:1037F00090E0BE016B5F7F4F0E9462112B813C8184
:103800008D819E818217930751F02B3031053CF05A
:1038100082E090E0BE016D5F7F4F0E940B110E941D
:10382000CB1164960FB6F894DEBF0FBECDBFCF911B
:10383000DF911F910F9108950F931F93DF93CF9303
:10384000CDB7DEB72E970FB6F894DEBF0FBECDBF53
:103850008E010F5F1F4FC8016AE773E00E949A391B
:10386000C8010E943B1780933A02C8010E94B039F8
:103870008E01085F1F4FC80161E873E00E949A390A
:10388000C8010E943B179093410280934002C801F7
:103890000E94B0392E960FB6F894DEBF0FBECDBF92
:1038A000CF91DF911F910F910895EF92FF920F93A7
:1038B0001F93DF93CF93CDB7DEB7FC01EDB6FEB615
:1038C000448155814F5F5F4F8DB79EB7841B950B29
:1038D0000FB6F8949EBF0FBE8DBF0DB71EB70F5F1A
:1038E0001F4FCF01B80120E030E00E947537C801BA
:1038F0000E948C020FB6F894FEBE0FBEEDBECF91B3
:10390000DF911F910F91FF90EF9008952F923F92BA
:103910004F925F926F927F928F929F92AF92BF92DF
:10392000CF92DF92EF92FF920F931F93DF93CF938B
:10393000CDB7DEB7A0970FB6F894DEBF0FBECDBFF0
:103940008E010F5F1F4FC8016AE773E00E949A392A
:10395000C8010E94551C2091260230E040E050E052
:103960000E94403C6D8F7E8F8F8F98A3C8010E946C
:10397000B0398E01085F1F4FC80161E873E00E94F3
:103980009A39C8010E94551C2091260230E040E07F
:1039900050E00E94403C1B012C01C8010E94B0393C
:1039A0008E01015F1F4FC80168E873E00E949A39D9
:1039B000C8010E943B17AA2797FDA095BA2F209116
:1039C000260230E040E050E0BC01CD010E94403CC6
:1039D0003B014C015B01C8010E94B0398E010A5EB7
:1039E0001F4FC8016FE873E00E949A39C8010E9416
:1039F0003B177C01C8010E94B03960913B02709175
:103A00003C0280913D0290913E02A3010E94E70496
:103A1000AC01C7016FEF70E00E941A057C01CC2455
:103A2000B7FCC094DC2CC601B5010E94C03A2DEC55
:103A30003CEC4CE85FE30E94743B0E948D3A5B01D2
:103A40006C016D8D7E8D8F8D98A1A20191018501F4
:103A50000E94330D0E94BD08A0960FB6F894DEBFF9
:103A60000FBECDBFCF91DF911F910F91FF90EF90CF
:103A7000DF90CF90BF90AF909F908F907F906F908E
:103A80005F904F903F902F9008952F923F924F92CA
:103A90005F926F927F928F929F92AF92BF92CF92DE
:103AA000DF92EF92FF920F931F93DF93CF93CDB7E7
:103AB000DEB7A6970FB6F894DEBF0FBECDBF8E015E
:103AC0000F5F1F4FC8016AE773E00E949A39C8016F
:103AD0000E94551C2091260230E040E050E00E94F8
:103AE000403C6BA37CA38DA39EA3C8010E94B03968
:103AF0008E01085F1F4FC80161E873E00E949A3988
:103B0000C8010E94551C2091260230E040E050E0A0
:103B10000E94403C1B012C01C8010E94B0398E015B
:103B2000015F1F4FC80168E873E00E949A39C8011D
:103B30000E943B17AA2797FDA095BA2F2091260235
:103B400030E040E050E0BC01CD010E94403C6B0100
:103B50007C017AA369A3C8010E94B0398E010A5E74
:103B60001F4FC8016FE873E00E949A39C8010E9494
:103B70003B1798A38F8FC8010E94B039C60162E03D
:103B800070E00E946B3C4B01CB01880F991F69A02C
:103B90007AA0681A790A80913A028130C1F486EDE0
:103BA00092E00E9439237B018C018AE193E00E941C
:103BB00039235B016C016BA17CA18DA19EA1A201A7
:103BC00091010E949804809340021092410220913A
:103BD00040023091410222303105F9F4940144272A
:103BE00037FD4095542FEBA0FCA00DA11EA1E21AB9
:103BF000F30A040B150BC301AA2797FDA095BA2F52
:103C0000E80EF91E0A1F1B1F6BA07CA08DA09EA0B2
:103C1000620E731E841E951E3DC023303105C9F40B
:103C20009401442737FD4095542F62015101A21A97
:103C3000B30AC40AD50AC301AA2797FDA095BA2FD3
:103C4000A80EB91ECA1EDB1E220E331E441E551EB0
:103C500032C0C401AA2797FDA095BA2FA3016627F9
:103C600057FD6095762F24303105B9F4EBA0FCA008
:103C70000DA11EA1E80EF91E0A1F1B1FE41AF50A6A
:103C8000060B170B6BA07CA08DA09EA0681A790A6A
:103C90008A0A9B0A6201510114C05C016D01A20CE9
:103CA000B31CC41CD51CA41AB50AC60AD70A281A04
:103CB000390A4A0A5B0AEBA0FCA00DA11EA137013C
:103CC000480160913B0270913C0280913D029091CD
:103CD0003E0249A15AA10E94E704AC018F8D98A130
:103CE0006FEF70E00E941A059E8F8D8FC801B7019B
:103CF000A60195010E94240B8D8D9E8D02974CF09C
:103D000089A19AA1BC014D8D5E8D209140020E9437
:103D1000530CC401B301A20191010E94240BA69689
:103D20000FB6F894DEBF0FBECDBFCF91DF911F91CC
:103D30000F91FF90EF90DF90CF90BF90AF909F904A
:103D40008F907F906F905F904F903F902F9008954D
:103D50008F929F92AF92BF92CF92DF92EF92FF929B
:103D60000F931F93DF93CF93CDB7DEB72E970FB688
:103D7000F894DEBF0FBECDBF8E010F5F1F4FC8018D
:103D80006AE773E00E949A39C8010E94551C20918D
:103D9000260230E040E050E00E94403C4B015C01D4
:103DA000C8010E94B0398E01085F1F4FC80161E849
:103DB00073E00E949A39C8010E94551C2091260286
:103DC00030E040E050E00E94403C6B017C01C801C3
:103DD0000E94B03986ED92E0B501A4010E943F2314
:103DE0008AE193E0B701A6010E943F230E94210EC1
:103DF0000E94620A2E960FB6F894DEBF0FBECDBFAA
:103E0000CF91DF911F910F91FF90EF90DF90CF90B6
:103E1000BF90AF909F908F900895CF93DF93EC0168
:103E20006EEC73E00E943038882319F00E942B1644
:103E3000BDC0CE0162E274E00E943038882319F0E0
:103E40000E942319B3C0CE0165ED73E00E943038A3
:103E5000882319F00E94AF16A9C0CE0163E574E073
:103E60000E943038882319F00E94561A9FC0CE0154
:103E70006AE574E00E943038882319F00E94FF1927
:103E800095C0CE016AEE73E00E943038882319F0A5
:103E90000E94451D8BC0CE0161EF73E00E94303857
:103EA000882319F00E94861C81C0CE0168EF73E060
:103EB0000E943038882319F00E941C1C77C0CE0164
:103EC0006FEF73E00E943038882319F00E94A81E1B
:103ED0006DC0CE016DE074E00E943038882319F087
:103EE0000E946C1763C0CE0164E174E00E94303818
:103EF000882319F00E947A1859C0CE016BE174E052
:103F00000E943038882319F00E94CE184FC0CE018D
:103F100069E274E00E943038882319F00E94AF1BD8
:103F200045C0CE0160E374E00E943038882319F068
:103F30000E949E143BC0CE0165E474E00E943038BC
:103F4000882319F00E94F81631C0CE016CE474E0A9
:103F50000E943038882319F00E947F1B27C0CE01B1
:103F600061E674E00E943038882319F00E944F1BEC
:103F70001DC0CE0168E674E00E943038882319F035
:103F80000E94AD1A13C0CE0167E374E00E9430387E
:103F9000882319F00E941A1509C0CE016EE374E05F
:103FA0000E943038882319F00E94E31481E0DF91E9
:103FB000CF910895CF93DF93EC010E940D1F8823CA
:103FC00029F4CE010E94190D0E94E908DF91CF91DA
:103FD00008956F927F928F929F92AF92BF92CF92ED
:103FE000DF92EF92FF920F931F93DF93CF93CDB7A2
:103FF000DEB727970FB6F894DEBF0FBECDBF4C01DA
:10400000FC0164807580AA24BB2400E010E0EE244B
:10401000FF246E010894C11CD11C3DC0C401B7012E
:104020000E94E2368C32A1F5C601B401A5019701C8
:104030000E94303902301105B9F0033011053CF40B
:104040000115110559F001301105C9F40AC00330FA
:10405000110569F00430110591F40CC083E793E079
:104060000BC08AE793E008C081E893E005C088E8C8
:1040700093E002C08FE893E0B6010E9483395701B4
:104080000894A11CB11C0F5F1F4FC6010E94B039DC
:104090000894E11CF11CE614F7040CF4BFCF009364
:1040A000AD0227960FB6F894DEBF0FBECDBFCF91FD
:1040B000DF911F910F91FF90EF90DF90CF90BF9015
:1040C000AF909F908F907F906F9008953F924F9206
:1040D0005F926F927F928F929F92AF92BF92CF9298
:1040E000DF92EF92FF920F931F93DF93CF93CDB7A1
:1040F000DEB7C655D0400FB6F894DEBF0FBECDBFB9
:10410000782E692EAA24BB2484E2882E912C8C0E52
:104110009D1E19C08AE295E00E945E32182F61E070
:1041200070E080E090E00E94EB2FF401EA0DFB1DAF
:1041300010831A3029F48AE295E00E9487320AC07F
:104140000894A11CB11C8AE295E00E942D32181639
:10415000190604F304E2402E512C4C0E5D1EA40CF3
:10416000B51CF5011082872D962DB2010E94FD38F5
:104170008E010F5F1F4FC8016BE072E00E94FD3897
:10418000872D962DB8010E9467375C01C8010E94F7
:10419000B039FFEFAF16FFEFBF0609F46BC0332451
:1041A000339430926F0418E0E12EF12CEC0EFD1EDA
:1041B000A5014F5F5F4FC701672D762D0E947739AC
:1041C0008E01015F1F4FC801B7010E949A39C801D3
:1041D0000E94551C6B017C01C8010E94B0398E0100
:1041E0000A5E1F4FC801672D762D40E050E0950113
:1041F0000E943039872D962DB8010E948339C8015D
:104200000E94B0398E01035E1F4FC801672D762DC5
:104210000E949A39C8010E9479084B015C01C801CB
:104220000E94B0398C149D04AE04BF0419F430927E
:10423000BD021BC08AE295E06BE073E00E9466332A
:104240008AE295E0B2010E94FF358AE295E064EFD0
:1042500072E00E9466338AE295E0B501A4012AE08B
:1042600030E00E94BC341092BD02CE0108960E943C
:10427000B03904C010926F041092BD02872D962DA4
:10428000CA5ADF4F0FB6F894DEBF0FBECDBFCF9135
:10429000DF911F910F91FF90EF90DF90CF90BF9033
:1042A000AF909F908F907F906F905F904F903F90D6
:1042B0000895AF92BF92CF92DF92EF92FF920F9349
:1042C0001F93DF93CF93CDB7DEB727970FB6F89440
:1042D000DEBF0FBECDBFB82EA92E0E94B72F6B0137
:1042E0000B2D1A2DC80165E071E00E94FD387E019A
:1042F0000894E11CF11C29C00E94B72F6C197D099C
:104300002091340230913502261737072CF40E9491
:10431000E9080E94B72F6B01C7010E946620C801FF
:10432000B7010E948339C7010E94B03980916F04A0
:10433000882359F08091BD02882339F40E94E20855
:10434000C80165E071E00E941739F8018481958108
:10435000892B91F20E94B72F0E94B72F6093AE0273
:104360007093AF028093B0029093B1026093B20257
:104370007093B3028093B4029093B5028B2D9A2D63
:1043800027960FB6F894DEBF0FBECDBFCF91DF9159
:104390001F910F91FF90EF90DF90CF90BF90AF9063
:1043A0000895EF92FF920F931F93DF93CF93CDB7B2
:1043B000DEB727970FB6F894DEBF0FBECDBF7C01E6
:1043C00067EC73E00E94A237882371F08E010F5FC3
:1043D0001F4FC801B7010E949A39C8010E94E91F06
:1043E000C8010E94B03981E027960FB6F894DEBF6D
:1043F0000FBECDBFCF91DF911F910F91FF90EF9036
:104400000895CF92DF92FF920F931F93DF93CF9384
:10441000CDB7DEB72E970FB6F894DEBF0FBECDBF77
:104420006C018E010F5F1F4FC801B6010E949A39BF
:10443000C8010E94D121F82EC8010E94B039FF2086
:10444000C1F08E01085F1F4FC80166EB72E00E9449
:104450009A39C8010E94DA1FC8010E94B039C6010A
:1044600065E071E00E9417391092BD020E94E908D0
:1044700011C08AE295E06AEE72E00E9466338AE239
:1044800095E0B6010E9412368AE295E06CED72E08A
:104490000E94A9331092AD022E960FB6F894DEBF9B
:1044A0000FBECDBFCF91DF911F910F91FF90DF9095
:1044B000CF900895EF92FF920F931F93DF93CF93C6
:1044C000CDB7DEB727970FB6F894DEBF0FBECDBFCE
:1044D0008E010F5F1F4FC8010E94592196EBE92EF4
:1044E00092E0F92EC701B8010E948339C8010E94E9
:1044F000B039C7010E94012227960FB6F894DEBF9B
:104500000FBECDBFCF91DF911F910F91FF90EF9024
:104510000895AF92BF92CF92DF92EF92FF920F93E6
:104520001F930AE215E0C80140E051EE60E070E040
:104530000E94A631C80162E173E00E946633C8019F
:104540000E9489330E9476130E94B40D36EDA32E8B
:1045500032E0B32E40912702509128026091290247
:1045600070912A02C5010E94462540912B0250916C
:104570002C0260912D0270912E02C5010E942A2802
:104580002AE1C22E23E0D22E409127025091280228
:104590006091290270912A02C6010E94462540912D
:1045A0002B0250912C0260912D0270912E02C601B7
:1045B0000E942A286091300270913102882777FD8D
:1045C0008095982F0E94C03A2091220230912302B8
:1045D00040912402509125020E94253A7B018C01D2
:1045E0006091200270912102882777FD8095982F95
:1045F0000E94C03A9B01AC01C801B7010E94743B04
:104600000E948D3A7B018C01C501B801A7010E946F
:104610003F23C601B801A7010E943F2389EB93E025
:1046200066E973E00E9483390E94E9080E94CE186F
:1046300064EF71E080E090E00E94EB2F0E94BD08E3
:104640001F910F91FF90EF90DF90CF90BF90AF90B0
:104650000895FC0127853089418952898385948595
:10466000A585B685281B390B4A0B5B0BB901CA011E
:104670000895FC0163857485858596850895FC0100
:1046800043875487658776874787508B618B728B0A
:1046900013AA14AA15AA16AA13A214A215A216A246
:1046A00008956F927F928F929F92AF92BF92CF9216
:1046B000DF92EF92FF920F931F93CF93DF93EC0162
:1046C000AF84B888C988DA888B859C85AD85BE851E
:1046D000A81AB90ACA0ADB0A2B893C894D895E8966
:1046E000CA01B9010E94743B7B018C012B8D3C8D6A
:1046F0004D8D5E8DCA01B9010E94BD399B01AC018F
:10470000C801B7010E94253A0E948D3A9B01AC0175
:10471000A114B104C104D104B9F46230710581055A
:1047200091050CF085C01BA21CA21DA21EA280E058
:1047300090E0A0E0B0E08B8B9C8BAD8BBE8B1BAA76
:104740001CAA1DAA1EAA0BC1EBA8FCA80DA91EA994
:104750001A141B041C041D0444F51E141F04100627
:10476000110674F46A157B058C059D05B4F5CD5BC7
:10477000DF4F8881C354D040882309F059C02DC031
:10478000E114F1040105110509F452C06A157B0515
:104790008C059D050CF04CC0CD5BDF4F8881C35468
:1047A000D040813009F044C038C01E141F041006E8
:1047B0001106DCF488279927DC018A199B09AC09CA
:1047C000BD09281739074A075B073CF4CD5BDF4F6B
:1047D0008881C354D040813059F588279927DC015E
:1047E000821B930BA40BB50B1FC0E114F104010550
:1047F0001105F1F088279927DC018A199B09AC097A
:10480000BD09281739074A075B0794F4CD5BDF4FD2
:104810008881C354D040882359F488279927DC0124
:104820008E199F09A00BB10B8BAB9CABADABBEAB94
:104830006BA87CA88DA89EA86114710481049104C2
:10484000A9F48FA998ADA9ADBAAD8BAF9CAFADAFB0
:10485000BEAFFE01ED5BFF4F10821A141B041C0457
:104860001D040CF049C081E0808346C0ABACBCACF9
:10487000CDACDEACC601B50120E030E040E050EC4C
:104880000E94743B7B018C01C401B3010E94C03AB9
:1048900020E030E040E850E40E94743B20E030E04B
:1048A00040E85FE30E94BD399B01AC01C801B7013C
:1048B0000E94253A9B01AC01C601B5010E94BD3999
:1048C0007B018C016BAF7CAF8DAF9EAFEF96A88064
:1048D000B980CA80DB80EF979501A6010E94703BEA
:1048E000181624F4D801C70157016D01C501D6017E
:1048F0008BAF9CAFADAFBEAF8BA99CA9ADA9BEA934
:104900000196A11DB11D8BAB9CABADABBEAB6BAD2E
:104910007CAD8DAD9EAD0E94923A6BA37CA38DA31E
:104920009EA360E074E284E799E42BAD3CAD4DAD0D
:104930005EAD0E94253A9B01AC016B8B7C8B8D8B0D
:104940009E8BCD5BDF4F8881C354D040882339F4E0
:10495000DA01C901B0588B8B9C8BAD8BBE8BDF917C
:10496000CF911F910F91FF90EF90DF90CF90BF906C
:10497000AF909F908F907F906F900895FC018785F6
:104980009089A189B28984179507A607B70739F0DE
:104990004787508B618B728BCF010E945123089502
:1049A000FC01DB01CA014385548565857685480F86
:1049B000591F6A1F7B1FCF010E94BE240895CF920A
:1049C000DF92EF92FF920F931F93FC0189E692E032
:1049D0009183808312821386148615861686178625
:1049E000108A118A128A0F2EF0E0CF2EF0E0DF2E0F
:1049F000F0E0EF2EF0E0FF2EF02DC38AD48AE58A96
:104A0000F68A00E010E020E83FE3078B108F218F4B
:104A1000328F038F148F258F368F078F10A321A31A
:104A200032A313A214A215A216A281E090E094A7CB
:104A300083A78FEF86A717A210A611A612A613822E
:104A400014821582168270AB67A752AB41AB13AAD2
:104A500014AA15AA16AAC7AAD0AEE1AEF2AEC3AE8A
:104A6000D4AEE5AEF6AEFF96019311932193319348
:104A70001082E354F04017821086118612861F912F
:104A80000F91FF90EF90DF90CF900895EF92FF92FB
:104A90000F931F93CF93DF93EC017A018B016F8902
:104AA000788D898D9A8DA80197010E94213A8823DB
:104AB000E1F1EF8AF88E098F1A8FEF9660E074E2C9
:104AC00084E799E4A80197010E94253A68837983D5
:104AD0008A839B83EF978BA99CA9ADA9BEA91816C1
:104AE00019061A061B060CF52B893C894D895E892F
:104AF000CA01B9010E94743B7B018C012B8D3C8D56
:104B00004D8D5E8DCA01B9010E94BD399B01AC017A
:104B1000C801B7010E94253A0E948D3A6BAB7CAB6D
:104B20008DAB9EABCE010E945123DF91CF911F919F
:104B30000F91FF90EF9008954F925F926F927F9246
:104B40008F929F92AF92BF92CF92DF92EF92FF929D
:104B50000F931F93CF93DF932C017A018B01CB012D
:104B6000BA01F20123893489458956890E94213A84
:104B7000882309F455C0F201A788B08CC18CD28C6F
:104B80003501460197FA909497F89094C801B701BF
:104B9000A40193010E94213A88231CF4840173012B
:104BA0000AC0C801B701A60195010E94703B181602
:104BB00014F486017501C801B70120E030E040E03F
:104BC00050E00E94213A882331F4F20113A214A28A
:104BD00015A216A220C060E074E284E799E4A8015F
:104BE00097010E94253A9F770E94923AF20163A3AF
:104BF00074A385A396A3E201CD5BDF4F1882C801A1
:104C0000B70120E030E040E050E00E94703B181611
:104C100014F481E08883F201E38AF48A058B168B11
:104C2000DF91CF911F910F91FF90EF90DF90CF9088
:104C3000BF90AF909F908F907F906F905F904F90BC
:104C40000895FC012389348945895689B901CA012F
:104C50000895DC0112968C911297833001F1843013
:104C600040F4813089F0ED91FC911197823098F4F5
:104C700007C0863011F1883049F1843079F516C0CB
:104C80000480F581E02D1FC0ED91FC911197068005
:104C9000F781E02D18C00084F185E02D14C0ED915E
:104CA000FC9111970284F385E02D0DC0ED91FC91EC
:104CB00011970484F585E02D06C0ED91FC911197C4
:104CC0000684F785E02DCD0109950895ED91FC91BD
:104CD00011970088F189E02DCD0109950895CF93B2
:104CE000DF93EC016B897C898D899E8920E030E01F
:104CF00040E050E00E94703B18161CF4EFA5F8A9A4
:104D000002C0E9A9FAA90995DF91CF910895DC01C4
:104D100070E06370707061307105A9F062307105E8
:104D20001CF4672B41F0089562307105A1F06330E7
:104D3000710501F518C0ED91FC9111970190F0817A
:104D4000E02D62E00EC0ED91FC9111970190F08191
:104D5000E02D63E006C0ED91FC910190F081E02D23
:104D600061E009950895ED91FC910190F081E02DAD
:104D700060E009950895DC01862F63E00E945F3CA6
:104D8000913071F0913018F09230E9F413C0ED9148
:104D9000FC9111970190F081E02DCD0164E008C0F5
:104DA000ED91FC9111970190F081E02DCD0161E032
:104DB00009950895ED91FC9111970190F081E02DF6
:104DC000CD0162E009950895DC0170E063707070B8
:104DD00061307105A9F0623071051CF4672B41F058
:104DE000089562307105A1F06330710501F518C0B6
:104DF000ED91FC9111970190F081E02D65E00EC0DE
:104E0000ED91FC9111970190F081E02D66E006C0D4
:104E1000ED91FC910190F081E02D6AE009950895F3
:104E2000ED91FC910190F081E02D69E009950895E4
:104E3000DC01862F66E00E945F3C923009F19330DE
:104E400030F4992359F0913009F03FC010C09430EC
:104E500049F19430F0F09530C1F52EC0ED91FC9100
:104E600011970190F081E02DCD0164E023C0ED9118
:104E7000FC9111970190F081E02DCD0165E01AC001
:104E8000ED91FC9111970190F081E02DCD0161E051
:104E900011C0ED91FC9111970190F081E02DCD01B1
:104EA00063E008C0ED91FC9111970190F081E02D35
:104EB000CD0162E009950895ED91FC911197019063
:104EC000F081E02DCD0166E009950895DC0170E0E8
:104ED000677070706330710591F1643071054CF446
:104EE00061307105E1F0623071050CF5672B79F0E6
:104EF00008956530710599F16530710544F16630AA
:104F00007105A9F16730710509F040C038C0ED9115
:104F1000FC9111970190F081E02D61E02EC0ED91A0
:104F2000FC9111970190F081E02D65E026C0ED9194
:104F3000FC9111970190F081E02D64E01EC0ED918D
:104F4000FC9111970190F081E02D66E016C0ED9183
:104F5000FC9111970190F081E02D62E00EC0ED917F
:104F6000FC9111970190F081E02D6AE006C0ED916F
:104F7000FC910190F081E02D68E009950895ED9194
:104F8000FC910190F081E02D69E009950895CF92A0
:104F9000DF92EF92FF920F931F93CF93DF93FC0169
:104FA0002281243029F0283019F092E0D92E02C055
:104FB00084E0D82E8F01C0E0D0E0E62EFF24CC2480
:104FC000C394F8012381C7010C2E02C095958795E3
:104FD0000A94E2F7678180FD6C25822F0E94C83019
:104FE00021960F5F1F4FCD1560F3DF91CF911F9179
:104FF0000F91FF90EF90DF90CF900895CF93DF93C4
:10500000EC01E881F9810190F081E02DCD5BDF4F6B
:105010008881C354D040882311F461E001C063E06B
:10502000CE0109958BA59CA50E944430E881F981A9
:105030000190F081E02DCD5BDF4F8881C354D040DB
:10504000882311F460E001C062E0CE010995DF9190
:10505000CF9108956F927F928F929F92AF92BF925D
:10506000CF92DF92EF92FF920F931F93CF93DF9334
:10507000EC013A014B01CB01BA0120E030E040E005
:1050800050E00E94213A882309F441C0AB8CBC8CCB
:10509000CD8CDE8CC601B501A40193010E94213A9A
:1050A0008823A9F16BA97CA98DA99EA90E94C03A69
:1050B0007B018C01C601B501A40193010E94253A30
:1050C0009B01AC01C801B7010E94743B0E948D3A5C
:1050D0006BAB7CAB8DAB9EAB60E070E080E090E4AE
:1050E000A40193010E94253A0E94DB3B20E034E2B8
:1050F00044E759E40E94743B6FAB78AF89AF9AAF35
:105100006B8E7C8E8D8E9E8ECE010E945123DF9100
:10511000CF911F910F91FF90EF90DF90CF90BF90B4
:10512000AF909F908F907F906F900895EF92FF9235
:105130000F931F93CF93DF93EC018BA19CA1ADA1A3
:10514000BEA10097A105B10509F44CC00E94C52F6E
:105150007B018C012FA138A549A55AA58BA19CA143
:10516000ADA1BEA1820F931FA41FB51F8217930785
:10517000A407B50730F0E816F9060A071B0758F42C
:1051800005C0E816F9060A071B0760F1E216F306E8
:105190000407150738F5CD5BDF4F8881C354D04035
:1051A0002B853C854D855E85813029F42F5F3F4FEF
:1051B0004F4F5F4F04C021503040404050402B873C
:1051C0003C874D875E87E881F9816B856770028037
:1051D000F381E02DCE010995EFA2F8A609A71AA741
:1051E00081E001C080E0DF91CF911F910F91FF908E
:1051F000EF900895CF93DF93FC0127853089418993
:10520000528983859485A585B685281739074A076D
:105210005B0711F480E00FC0EF01CD5BDF4F821719
:105220009307A407B5071CF481E0888301C01882A6
:10523000CF010E949628DF91CF910895CF93DF93FD
:10524000EC010E949628882319F0CE010E94512378
:1052500081E0DF91CF910895CF93DF93EC016B89CB
:105260007C898D899E8920E030E040E050E00E94FA
:10527000213A882369F42F85388949895A898B8591
:105280009C85AD85BE85281739074A075B0721F045
:10529000CE010E941E29E3CFDF91CF9108950F9395
:1052A0001F938C010E94BE24C8010E942C291F91CB
:1052B0000F910895FC01809170048C3090F48083EC
:1052C0008F5F80937004815090E0FC01EE0FFF1F10
:1052D000E80FF91FEF58FB4F88EB9BE09283818327
:1052E00008958FEF80830895DC018C9190E0FC019C
:1052F000EE0FFF1FE80FF91FEF58FB4F80818F7BE8
:1053000080838C916CE00E945F3C90E0AC01440F84
:10531000551F480F591F440F551F440F551F20E0BC
:1053200030E0C901840F951FFC01EE0FFF1FE80F4D
:10533000F91FEF58FB4F808186FD05C02F5F3F4F5F
:105340002C30310571F70895FC0120812C30B8F51F
:105350008181992787FD909548E850E0481B590BBB
:10536000440F551F440F551F6417750784F0828141
:10537000992787FD909548E552E0481B590B440F4B
:10538000551F440F551F641775070CF4AB014250AD
:105390005040CA01AA2797FDA095BA2F880F991FE0
:1053A000AA1FBB1F4FB7F89430E0F901EE0FFF1FA3
:1053B000E20FF31FEF58FB4F928381834FBF089595
:1053C000AF92BF92CF92DF92EF92FF920F931F9313
:1053D000CF93DF93EC019B0182E0603278070CF001
:1053E00048C077FF03C020E030E005C0653B710591
:1053F00014F024EB30E000D000D0B901882777FD0D
:105400008095982F2981332727FD3095E8E8AE2E27
:10541000B12CA21AB30AAA0CBB1CAA0CBB1CCC242C
:10542000B7FCC094DC2CEA81FF27E7FDF09528E566
:1054300032E02E1B3F0B220F331F220F331F442756
:1054400037FD4095542FEDB7FEB721833283438358
:10545000548320E030E040E050E004EBE02EF12CFB
:10546000012D112D0E9459369B010F900F900F9026
:105470000F90CE01B9010E94A429DF91CF911F9115
:105480000F91FF90EF90DF90CF90BF90AF90089575
:10549000CF92DF92EF92FF921F93CF93DF93EC01B5
:1054A000162F7A01690188818C3008F064C0862F3C
:1054B00061E00E948930888190E0FC01EE0FFF1FBF
:1054C000E80FF91FEF58FB4F1F738081807C812B01
:1054D000808380E292E08E199F0964E070E00E9470
:1054E0006B3C698380E699E08C199D0964E070E06B
:1054F0000E946B3C6A83A8818A2F6CE00E945F3C0B
:10550000682F70E0AB01440F551F460F571F440F23
:10551000551F440F551F20E030E0C901840F951F2F
:10552000FC01EE0FFF1FE80FF91FEF58FB4F8081C2
:1055300086FD15C02F5F3F4F2C30310571F724C019
:105540001092800082E0809381001092850010927A
:105550008400B19A80916F00826080936F008A2FDF
:1055600090E0FC01EE0FFF1FE80FF91FEF58FB4F13
:105570008081806480838881DF91CF911F91FF902B
:10558000EF90DF90CF900895672BD1F2E8CF40E203
:1055900052E020E639E00E94482A08951F920F92B7
:1055A0000FB60F9211242F933F934F935F936F93F6
:1055B0007F938F939F93AF93BF93EF93FF938091CC
:1055C000950487FF05C010928500109284002BC0BF
:1055D00020919504332727FD30958091700490E049
:1055E0002817390704F580919504992787FD909530
:1055F000FC01EE0FFF1FE80FF91FEF58FB4F8081F2
:1056000086FF11C080919504992787FD9095FC0134
:10561000EE0FFF1FE80FF91FEF58FB4F80818F73CC
:1056200060E00E94C830809195048F5F809395045C
:1056300020919504332727FD30958091700490E0E8
:10564000281739070CF04EC0809195048C300CF06F
:1056500049C020918400309185008091950499275C
:1056600087FD9095FC01EE0FFF1FE80FF91FEF5823
:10567000FB4F81819281280F391F3093890020933D
:10568000880080919504992787FD9095FC01EE0F85
:10569000FF1FE80FF91FEF58FB4F808186FF2BC0DB
:1056A00080919504992787FD9095FC01EE0FFF1FCF
:1056B000E80FF91FEF58FB4F80818F7361E00E9464
:1056C000C83019C080E49CE905C0809184009091A5
:1056D0008500049690938900809388008FEF8093D3
:1056E000950409C0809184009091850004968054AF
:1056F0009C4940F3EACFFF91EF91BF91AF919F9109
:105700008F917F916F915F914F913F912F910F906A
:105710000FBE0F901F901895F999FECF72BD61BD15
:10572000F89A80B50895F999FECF1FBA72BD61BD90
:1057300040BD0FB6F894FA9AF99A0FBE08951092E8
:1057400097040895E0EBF0E0908193689083877070
:105750008093B1001092B3008BE061E00E94893029
:105760000895E0EBF0E090819362908387708093DE
:10577000B1001092B40083E061E00E948930089586
:10578000CF93DF938CE060E00E94C83088E060E057
:105790000E94C830C7E0D0E084E060E00E94C830DA
:1057A0008091980490E00C2E02C0959587950A94FC
:1057B000E2F780FF03C088E061E002C088E060E0BB
:1057C0000E94C83084E061E00E94C83021978FEFCA
:1057D000CF3FD80709F78CE061E00E94C830DF9125
:1057E000CF9108950F931F93CF93DF93EC01142F64
:1057F0008A81813029F404E042E058E070E108C079
:10580000823011F080E0E0C000E241E050E870E456
:10581000113041F49B85892F86958695869580FF6A
:1058200010C009C01230A1F49B85892F86958695FA
:10583000869580FD06C0613011F4985F05C09850D0
:1058400003C0613019F4905F9B8752C09051FCCF28
:10585000133041F48B85613011F4885F01C08850AA
:105860008B8746C0143009F043C08B85613011F43A
:105870008F5F01C081508B87AB85AF73AB87A03141
:1058800048F4B0E0E0E6F2E0EA1BFB0B2081A05B0D
:10589000BD4F19C08A2F8051803148F48A2F90E083
:1058A000FC01E05CFD4F2081E0E7F2E01DC08A2FA3
:1058B0008052803150F4B0E0E0E8F2E0EA1BFB0BEC
:1058C0002081A05DBD4F8C9115C08A2F80538031FF
:1058D00018F080E020E00EC08A2F90E0FC01E05E2E
:1058E000FD4F2081E0E9F2E0E81BF90B808102C066
:1058F0008FEF2FEF3B853F733B879A81913029F4DF
:105900002093B3008093B40004C0923011F427BDFB
:1059100088BD242F202B672F652B962F922B9095D7
:1059200080919804982390939804143019F530319D
:1059300018F4922B90939804832F8051803130F487
:10594000452B80919804842B80939804832F805258
:10595000803130F4572B80919804852B80939804E4
:105960003053303160F5702B80919804872B8093F1
:10597000980425C0832F8695869586958330B1F04F
:10598000843028F4813071F0823070F409C08530A1
:1059900081F0853060F0863079F0873081F40BC07B
:1059A000902B0BC0922B09C0942B07C0542B952B26
:1059B00004C0962B02C0702B972B9093980487E914
:1059C00094E00E94C02B8B85DF91CF911F910F91A6
:1059D00008950F931F938C018CE061E00E94893041
:1059E00087E061E00E94893088E061E00E948930B0
:1059F00084E061E00E94893010929804C8010E94FE
:105A0000C02B87E060E00E94C8301F910F9108957D
:105A1000DF92EF92FF920F931F938C017B01D42EA4
:105A200087E994E00E94E92CF801F182E082D282B9
:105A30001386F1E0DF1629F580919804817E80932A
:105A4000980487E994E00E94C02B8BE061E00E94FB
:105A5000893083E061E00E9489308BE061E00E9440
:105A6000C83083E061E00E94C83081E00E94A22B30
:105A700081E00E94B12B8FEF8093B3008093B4003C
:105A80002FC082E0D81661F5809198048E718093C2
:105A9000980487E994E00E94C02B85E061E00E94B1
:105AA000893086E061E00E94893085E061E00E94F3
:105AB000C83086E061E00E94C83084B5836884BD48
:105AC00017BC86E061E00E94893084B5836284BDA2
:105AD00018BC85E061E00E9489308FEF87BD88BDEA
