:100000000C94A9010C94D1010C94D1010C94D10150
:100010000C94D1010C94D1010C94D1010C94D10118
:100020000C94D1010C94D1010C94D1010C940323B4
:100030000C94D1010C94D1010C94D1010C94D101F8
:100040000C94102A0C94D1010C94BE2B0C940C2C03
:100050000C94D1010C94D1010C94D1010C94D101D8
:100060000C9472250C94D101000000006410B71D9F
:10007000C8206E3BAC30D9269041DC76F4516B6BD6
:100080005861B24D3C7105502083B8ED44930FF098
:10009000E8A3D6D68CB361CBB0C2649BD4D2D3864E
:1000A00078E20AA01CF2BDBD6D61784C656E677484
:1000B000683A20004D53472C452C546869732070D2
:1000C0006F696E742066616C6C73206F75747369F0
:1000D0006465207468652061726561206F662074B4
:1000E000686973206D616368696E652E20536B6962
:1000F0007070696E672069742E006D6D00436861D1
:100100006E6765642050656E20776964746820743A
:100110006F20004E657720616363656C6572617462
:10012000696F6E3A20004E6577206D61782073709C
:100130006565643A200055703A2000446F776E3A46
:100140002000504753504545442C0050474C4946E9
:10015000542C005047535445504D554C5449504C25
:100160004945522C00504753544550535045525224
:1001700045562C0050474D4D5045525245562C0087
:10018000504753495A452C002900706167654865FE
:100190006967687420696E20737465707320280025
:1001A000526563616C63200029007061676557695F
:1001B00064746820696E207374657073202800521F
:1001C0006563616C6320002900292C2073746570BD
:1001D000735065724D4D2028006D6D5065725374DB
:1001E0006570202800526563616C6320007374653C
:1001F00070206D756C7469706C6965723A004C6F33
:10020000616465642000757020706F733A004C6FF4
:10021000616465642000646F776E20706F733A00CC
:100220004C6F616465642000737465707320706541
:1002300072207265763A004C6F6164656420006DCF
:100240006D5065725265763A004C6F61646564204A
:10025000006865696768743A004C6F616465642082
:100260000077696474683A004C6F616465642000CB
:10027000206E6F74207265636F676E697365642E9C
:100280000029206E6F74207061727365642E0043C4
:100290006F6D6D2028004261642053756D3A0052E5
:1002A00063643A2000504F4C41524752415048201D
:1002B0004F4E210000000000240027002A0000000B
:1002C0000000250028002B0000000000230026006D
:1002D00029000404040404040404020202020202C9
:1002E00003030303030301020408102040800102FA
:1002F000040810200102040810200000000700027A
:100300000100000304060000000000000000494E48
:1003100046494E4954594E414ECDCCCC3D0AD72387
:100320003C17B7D13877CC2B329595E6241FB14FC7
:100330000A000020410000C84200401C4620BCBE0C
:100340004CCA1B0E5AAEC59D7400CD060E24782DE6
:10035000C60611241FBECFEFD8E0DEBFCDBF12E02E
:10036000A0E0B1E0E0E4F2E702C005900D92A03A0F
:10037000B107D9F716E0A0EAB2E001C01D92AF3292
:10038000B107E1F713E0C0E5D3E004C02297FE0116
:100390000E94CD38CA34D107C9F70E94CE2D0C94E3
:1003A00013390C940000662777270C948902FC010E
:1003B00088279927E89421912032E9F3293010F019
:1003C0002E30C8F32B3241F02D3239F4689404C03A
:1003D0000E948102820F911D219120532A30C0F387
:1003E0001EF4909581959F4F08951F93FC019927C6
:1003F0008827BC01E89411911032E9F3193010F00C
:100400001E30C8F31B3251F01D3249F4689406C007
:100410000E946C02610F711D811D911D119110537D
:100420001A30B0F33EF490958095709561957F4FAA
:100430008F4F9F4F1F910895FB01DC0102C0019077
:100440000D9241505040D8F70895FB01DC018D9189
:10045000019080190110D9F3990B0895FB01DC017B
:1004600001900D920020E1F70895FB01DC0141505D
:10047000504030F08D910190801919F40020B9F7A7
:10048000881B990B0895FB01DC014150504048F056
:1004900001900D920020C9F701C01D9241505040BB
:1004A000E0F70895FB0151915523A9F0BF01DC014C
:1004B0004D9145174111E1F759F4CD01019000200C
:1004C00049F04D9140154111C9F3FB014111EFCFA6
:1004D00081E090E001970895592F482F372F262F5C
:1004E000660F771F881F991F660F771F881F991F38
:1004F000620F731F841F951F660F771F881F991F38
:1005000008957AE0979F902D879F802D910D11245B
:100510000895A0E0B0E0EFE8F2E00C94E238EC01DE
:100520005B016115710519F0FB0191838083F990DE
:100530008F2D90E00E94D138892BC9F7FDE2FF167C
:1005400021F4F990EE24E39405C02BE2F21609F4AD
:10055000F990EE248E0101501040C8016EE073E066
:1005600043E050E00E94E903892B01F58E010E5F04
:100570001F4FC80161E173E045E050E00E94E903CC
:10058000892B19F48E01095F1F4FA114B10419F0D2
:10059000F50111830083E0FC04C070E090E080E886
:1005A00014C070E090E080E86FEF08C1C80166E118
:1005B00073E043E050E00E94E903892B69F4A11441
:1005C000B10429F470E090E080EC6FE7F7C0229668
:1005D000F501D183C083F6CF8824992440E050E010
:1005E00060E070E0EF2DE053EA30A0F5F2E0EF2A92
:1005F0008E2D90E09C0128703070E2FE06C0232B07
:1006000079F50894811C911C2BC0232B19F00894B8
:1006100081089108DB01CA0112E0880F991FAA1F07
:10062000BB1F1A95D1F7480F591F6A1F7B1F440F34
:10063000551F661F771F4E0F511D611D711D4839D3
:1006400029E9520729E9620729E1720748F084E0A5
:10065000E82A06C0EE3F31F4E3FC39C098E0E92A0D
:10066000F990C0CFE53311F0E53189F529912D32AC
:1006700019F4E0E1EE2A05C02B3219F081E090E098
:1006800003C0299182E090E0E22FE053EA3018F0B5
:10069000C81BD90B1CC020E030E0FCE020383F072D
:1006A0005CF4C901880F991F880F991F280F391F03
:1006B000220F331F2E0F311DE991E053EA3068F30A
:1006C000E4FE03C0309521953F4F820E931ECE2C41
:1006D000DD24E1FE07C0A114B10421F02197F5014A
:1006E000D183C083CB01BA010E9475367B018C0196
:1006F000F3E0CF22DD2423E0C216D10421F417FB5E
:10070000109517F9109557016801C801B70120E04D
:1007100030E040E050E00E94D835882309F44AC018
:1007200097FE0DC02DE2E22E23E0F22E90948194EC
:1007300091089394C0E2D0E000E010E012C095E48C
:10074000E92E93E0F92EF6CFF701259135914591E9
:100750005491C601B5010E9480375B016C018C1A6F
:100760009D0A8C169D0684F7D595C7950F5F1F4F80
:100770000630110529F08CEF9FEFE80EF91EF1CF3E
:10078000C501D6017C018D018C2D880F8D2D881F10
:100790008F3F51F0C601B50120E030E040E050E06D
:1007A0000E94D835882331F482E290E090932E069F
:1007B00080932D067E2D9F2D802F612F272F392F7F
:1007C000482F562FB901CA01CDB7DEB7ECE00C9423
:1007D000FE38FB01DC014150504088F08D9181349E
:1007E0001CF08B350CF4805E659161341CF06B3528
:1007F0000CF4605E861B611171F3990B0895881BE0
:10080000FCCF2F923F924F925F926F927F928F9286
:100810009F92AF92BF92CF92DF92EF92FF920F938F
:100820001F931B012C0139014A016091AC027091A8
:10083000AD028091AE029091AF020E9477367B01AB
:100840008C01A80197010E9480375B016C01C401F3
:10085000B301A40193010E9480379B01AC01C60142
:10086000B5010E9473355B016C01C201B101A201A7
:1008700091010E9480379B01AC01C601B5010E9425
:1008800074355B016C01C801B701A80197010E9492
:1008900074359B01AC01C601B5010E94DC351F9186
:1008A0000F91FF90EF90DF90CF90BF90AF909F900F
:1008B0008F907F906F905F904F903F902F90089512
:1008C0000F931F93CF93DF93242F2627A22FB0E0FF
:1008D000AF70B070AA0FBB1FAA0FBB1FC8E6D0E055
:1008E000AC0FBD1FFD010591159125913491E4E0F8
:1008F0009695879577956795EA95D1F706271727F7
:100900002827392742954F70402750E04F7050708C
:10091000440F551F440F551F4C0F5D1FFA01859161
:100920009591A591B49144E0369527951795079533
:100930004A95D1F7082719272A273B27B801C9016B
:10094000DF91CF911F910F910895EF92FF920F9336
:100950001F938130910509F07DC16F5F7F4F09F0D2
:1009600010C285EB93E060E071E00E94AF3280EA54
:1009700092E00E948C212091270230912802442786
:1009800037FD4095542F60912D0270E080E090E09B
:100990000E943C380E9477367B018C0160912902CD
:1009A00070912A0280912B0290912C02A80197014C
:1009B0000E94DC356093A4027093A5028093A60286
:1009C0009093A702C801B7012091290230912A0211
:1009D00040912B0250912C020E94DC357B018C014E
:1009E0006093A8027093A9028093AA029093AB022D
:1009F00060913D0270913E02882777FD8095982F87
:100A00000E947736A80197010E9480370E944436E1
:100A10006093AC027093AD028093AE029093AF02EC
:100A200060913F0270914002882777FD8095982F52
:100A30000E947736A80197010E9480370E944436B1
:100A40006093B0027093B1028093B2029093B302AC
:100A50008CEB93E064E071E00E94AF3283EC93E0B2
:100A600067E371E00E94AF328AEC93E067E371E0E4
:100A70000E94AF3281ED93E067E371E00E94AF32F4
:100A800088ED93E067E371E00E94AF328FED93E071
:100A900066E471E00E94AF3286EE93E06CE471E0B0
:100AA0000E94AF328DEE93E063E571E00E94AF32B9
:100AB00084EF93E06BE571E00E94AF3281EC92E04D
:100AC00061E671E00E94AF3288EC92E066E671E088
:100AD0000E94AF328FEC92E069E671E00E94AF3283
:100AE00086ED92E06CE671E00E94AF328BEF93E00E
:100AF0006FED73E00E944C338DED92E06FE671E094
:100B00000E94AF3282E094E060E771E00E94AF3271
:100B100089E094E062E771E00E94AF3280E194E006
:100B200067E771E00E94AF3287E194E06BE771E024
:100B30000E94AF328EE194E06FE771E00E94AF3225
:100B400085E294E063E871E00E94AF328CE294E0C9
:100B500067E871E00E94AF3283E394E06BE871E0F4
:100B60000E94AF328AE394E06FE871E00E94AF32F6
:100B700081E494E063E971E00E94AF3288E494E09C
:100B800067E971E00E94AF328FE494E06BE971E0B5
:100B90000E94AF3286E594E06FE971E00E94AF32C7
:100BA0008DE594E063EA71E00E94AF3284E694E060
:100BB00067EA71E00E94AF328BE694E06BEA71E085
:100BC0000E94AF3282E794E06FEA71E00E94AF3298
:100BD00089E794E063EB71E00E94AF3280E894E033
:100BE00067EB71E00E94AF3287E894E06BEB71E055
:100BF0000E94AF3285EE92E060E60E94C5286091C7
:100C000027027091280285EE92E041E00E942127A0
:100C100090932A0380932903609127027091280200
:100C200085EE92E042E00E94212790932C0380936E
:100C30002B038DE293E067EB71E14EEA51E10E94F4
:100C4000111D81E793E065EA71E14CE951E10E94F1
:100C5000111D97C0892B09F094C06F5F7F4F09F079
:100C600090C087E894E00E94573380E894E00E94A7
:100C7000573389E794E00E94573382E794E00E945B
:100C800057338BE694E00E94573384E694E00E9449
:100C900057338DE594E00E94573386E594E00E9437
:100CA00057338FE494E00E94573388E494E00E9425
:100CB000573381E494E00E9457338AE394E00E9422
:100CC000573383E394E00E9457338CE294E00E9410
:100CD000573385E294E00E9457338EE194E00E94FE
:100CE000573387E194E00E94573380E194E00E94FB
:100CF000573389E094E00E94573382E094E00E94E9
:100D000057338DED92E00E9457338BEF93E00E94B2
:100D1000573386ED92E00E9457338FEC92E00E94A9
:100D2000573388EC92E00E94573381EC92E00E94A6
:100D3000573384EF93E00E9457338DEE93E00E9487
:100D4000573386EE93E00E9457338FED93E00E9475
:100D5000573388ED93E00E94573381ED93E00E9472
:100D600057338AEC93E00E94573383EC93E00E9460
:100D700057338CEB93E00E94573385EB93E00E944E
:100D800057331F910F91FF90EF90089580E090E00E
:100D90006FEF7FEF0E94A504089581E090E06FEF70
:100DA0007FEF0E94A5040895CF92DF92EF92FF9209
:100DB0000F931F93CF93DF936C01EE24EA94FE2CE4
:100DC0008701C0E0D0E00CC0C601BE010E944331E3
:100DD000482FC801B7010E9460047B018C01219655
:100DE000F60184819581C817D90770F3A80197018E
:100DF0002095309540955095B901CA01DF91CF916A
:100E00001F910F91FF90EF90DF90CF900895AF92D8
:100E1000BF92CF92DF92EF92FF920F931F937B01CD
:100E20008C01CA01B9010E9480375B016C01C801C5
:100E3000B701A80197010E9480379B01AC01C60150
:100E4000B5010E9473350E94E7371F910F91FF9003
:100E5000EF90DF90CF90BF90AF900895AF92BF9288
:100E6000CF92DF92EF92FF920F931F937B018C0141
:100E700059016A016091AC027091AD028091AE029D
:100E80009091AF020E947736A80197010E947335B6
:100E90009B01AC010E9480377B018C01C601B5012A
:100EA000A60195010E9480379B01AC01C801B701E2
:100EB0000E9474350E94E7371F910F91FF90EF90C9
:100EC000DF90CF90BF90AF900895AF92BF92CF9236
:100ED000DF92EF92FF920F931F937B018C015901D8
:100EE0006A01A80197010E9480377B018C01C6012D
:100EF000B501A60195010E9480379B01AC01C80194
:100F0000B7010E9474350E94E7371F910F91FF903F
:100F1000EF90DF90CF90BF90AF9008952F923F92C7
:100F20004F925F926F927F928F929F92AF92BF92F9
:100F3000CF92DF92EF92FF920F931F93DF93CF93A5
:100F400000D000D0CDB7DEB769837A838B839C83D2
:100F500059016A0117012801611571058105910583
:100F600059F40F2EF0E0EF2EF0E0FF2EF0E00F2FFF
:100F7000F0E01F2FF02DA4C0CA01B9010E948037F4
:100F80007B018C01C601B50120E030E040E050E07B
:100F90000E94D835882324F417FB109517F9109573
:100FA000C201B101A20191010E9474353B014C01C3
:100FB000C801B701A40193010E94DC357B018C01BB
:100FC00069817A818B819C810E9477369B01AC017B
:100FD000C801B7010E94D8358823B4F5C601B50110
:100FE00020E030E040E050E00E94D835882329F42A
:100FF000C401B3010E94E7370DC0C201B101A601CF
:1010000095010E94DC359B01AC015F77C601B501FB
:101010000E9474357B018C01D0902E02C0902F026B
:10102000B0903002A09031022D2D3C2D4B2D5A2D29
:101030000E947C3718160CF043C08D2D9C2DAB2DD3
:10104000BA2D7C018D013CC0C601B50120E030E025
:1010500040E050E00E94D835882359F4C401B30120
:101060000E94E7377B018C0117FB109517F910954B
:101070000FC0C201B101A60195010E94DC359B01A0
:10108000AC015F77C601B5010E9473357B018C010D
:1010900080912E0290912F02A0913002B0913102E6
:1010A0005C016D01D7FAD094D7F8D094C801B7018C
:1010B000A60195010E94D835882314F48601750194
:1010C000B701C8010F900F900F900F90CF91DF9153
:1010D0001F910F91FF90EF90DF90CF90BF90AF9056
:1010E0009F908F907F906F905F904F903F902F9048
:1010F0000895809139028823C1F187E096E064EF7A
:1011000073E00E94B3308DE293E00E947A1B20913D
:101110002D0230E040E050E00E949C3887E096E0ED
:10112000BA01A9012AE030E00E941D2F87E096E075
:1011300062E074E00E94B33081E793E00E947A1B82
:1011400020912D0230E040E050E00E949C3887E082
:1011500096E0BA01A9012AE030E00E941D2F87E045
:1011600096E069E074E00E94E630089587E096E03A
:1011700066EE73E00E94E630089587E096E06FED3A
:1011800073E00E94E6300895EF92FF920F931F9351
:101190008091B4029091B502A091B602B091B702CD
:1011A0000097A105B10509F040C06091AC027091B3
:1011B000AD028091AE029091AF020E9477367B0122
:1011C0008C016091B0027091B1028091B202909155
:1011D000B3020E9477369B01AC01C801B7010E949F
:1011E000650720E030E040E05FE30E9474350E9434
:1011F00044366093B4027093B5028093B602909324
:10120000B70287E096E068EA70E00E94072E4091FE
:10121000B4025091B5026091B6027091B70287E0B6
:1012200096E02AE030E00E945D2F6091B402709158
:10123000B5028091B6029091B7021F910F91FF9075
:10124000EF9008952F923F924F925F926F927F920C
:101250008F929F92AF92BF92CF92DF92EF92FF92C6
:101260000F931F937B018C0159016A010E94582A38
:101270006093B9027093BA028093BB029093BC0250
:101280008DE293E00E94531E1B012C0181E793E045
:101290000E94531E3B014C018DE293E040E050E080
:1012A00060E070E00E94CE1D81E793E040E050E0F6
:1012B00060E070E00E94CE1DC801B7010E94773641
:1012C0000E944436AB01BC018DE293E00E94FF1CFA
:1012D000C601B5010E9477360E944436AB01BC01BD
:1012E00081E793E00E94FF1C80913602882309F079
:1012F00042C08DE293E00E94531E20E030E040E0C7
:1013000050E00E94D835882324F457FA509457F8B7
:10131000509481E793E00E94531E20E030E040E0CB
:1013200050E00E94D835882324F497FA909497F8D7
:1013300090948DE293E0B201A1010E94CE1D81E75D
:1013400093E0B401A3010E94CE1D15C08091360226
:10135000882349F08DE293E00E94502181E793E0D9
:101360000E94502108C08DE293E00E942C2181E769
:1013700093E00E942C218DE293E00E946A1B61158C
:1013800071058105910549F481E793E00E946A1B8C
:10139000611571058105910529F080913A02882334
:1013A00051F3D4CF0E9479081F910F91FF90EF90D5
:1013B000DF90CF90BF90AF909F908F907F906F9075
:1013C0005F904F903F902F900895AF92BF92CF9231
:1013D000DF92EF92FF920F931F93CF93DF93EC0175
:1013E0005B016A0180EA92E069E070E00E94FC2201
:1013F000CA15DB059CF476010027F7FC0095102F39
:1014000080EA92E0BE010E941522C801B7010E9445
:101410008C2A2196AC16BD069CF712C076010027D7
:10142000F7FC0095102F80EA92E0BE010E94152281
:10143000C801B7010E948C2A2197CA15DB059CF7C9
:1014400080EA92E00E94A621DF91CF911F910F9137
:10145000FF90EF90DF90CF90BF90AF900895EF9204
:10146000FF920F931F93BDE2EB2EB3E0FB2EC7015B
:101470000E947A1BAB01BC014C5F5F4F6F4F7F4FE7
:10148000C7010E94812101E713E0C8010E947A1B75
:10149000AB01BC014C5F5F4F6F4F7F4FC8010E9493
:1014A0008121C7010E947A1BAB01BC01445050400E
:1014B00060407040C7010E948121C8010E947A1BD0
:1014C000AB01BC014450504060407040C8010E94D4
:1014D00081211F910F91FF90EF9008952F923F92DD
:1014E0004F925F926F927F928F929F92AF92BF9234
:1014F000CF92DF92EF92FF920F931F93DF93CF93E0
:10150000CDB7DEB7E0970FB6F894DEBF0FBECDBF04
:101510002B013C019CA28BA20E9401046B8F7C8F4B
:101520008D8F9E8FA30192010E9407076F8B788F8A
:10153000898F9A8FC801B701A60195010E94010405
:101540005B016C01A80197010E9407077B018C01D8
:10155000C601B50120E030E040EA51E40E947C374A
:1015600018160CF014C26091AC027091AD0280911B
:10157000AE029091AF0264517040804090400E9452
:1015800077366F8F78A389A39AA3C601B5012F8DF3
:1015900038A149A15AA10E94D83588230CF0F7C17F
:1015A000C801B70120E030E040EA51E40E947C37F6
:1015B00018160CF0ECC16091B0027091B1028091EC
:1015C000B2029091B30264517040804090400E94FA
:1015D00077362B013C01C801B701A30192010E949B
:1015E000D83588230CF0D3C16B8D7C8D8D8D9E8D6D
:1015F00020E030E040EA51E40E947C3718160CF0FD
:10160000C6C16B8D7C8D8D8D9E8D2F8D38A149A18E
:101610005AA10E94D83588230CF0B9C16F89788D02
:10162000898D9A8D20E030E040EA51E40E947C37B9
:1016300018160CF0ACC16F89788D898D9A8DA30135
:1016400092010E94D83588230CF0A1C11092390272
:10165000C601B5012B8D3C8D4D8D5E8D0E9473357D
:101660001B012C01C801B7012F89388D498D5A8D76
:101670000E9473353B014C01C201B10120E030E012
:1016800040E050E00E947C3718161CF48201710182
:1016900006C08201710117FB109517F91095C4015E
:1016A000B30120E030E040E050E00E947C371816A3
:1016B0001CF4A401930103C0A40193015058C80174
:1016C000B7010E947C3718169CF021E030E03E8B79
:1016D0002D8BD401C301B0588DA79EA7AFA7B8AB7F
:1016E000ABA1BCA15D01CC24B7FCC094DC2C4EC0E6
:1016F00021E030E03E8B2D8BD201C101B05889A78B
:101700009AA7ABA7BCA7ABA1BCA15D01CC24B7FC39
:10171000C094DC2C06C02D893E892F5F3F4F3E8B45
:101720002D8BC201B10120E030E040E050E00E948A
:101730007C3718161CF48201710104C0E9A4FAA4D4
:101740000BA51CA5AD89BE89BD01882777FD8095B5
:10175000982F0E9477369B01AC01C801B7010E9407
:10176000DC357B018C01C601B5010E9477369B01F7
:10177000AC01C801B7010E947C37181664F234C06E
:101780002D893E892F5F3F4F3E8B2D8BC401B301C6
:1017900020E030E040E050E00E947C3718161CF456
:1017A0008401730104C0EDA4FEA40FA518A9AD899E
:1017B000BE89BD01882777FD8095982F0E947736D6
:1017C0009B01AC01C801B7010E94DC357B018C0193
:1017D000C601B5010E9477369B01AC01C801B70173
:1017E0000E947C37181664F22D893E895901CC2459
:1017F000B7FCC094DC2CC601B5010E9477367B0192
:101800008C01C201B101A80197010E94DC356D83F2
:101810007E838F839887C401B301A80197010E943A
:10182000DC3569837A838B839C8310923602198A14
:101830001A8A1B8A1C8A19861A861B861C86ADA2E8
:10184000BEA2CFA2D8A66B8D7C8D8D8D9E8D2D8155
:101850003E814F8158850E9474356B8F7C8F8D8FB0
:101860009E8F6F89788D898D9A8D29813A814B81E0
:101870005C810E9474356F8B788F898F9A8F6B8D06
:101880007C8D8D8D9E8D2F89388D498D5A8D0E942E
:1018900065076D877E878F87988B6B8D7C8D8D8D8F
:1018A0009E8D2F89388D498D5A8D0E942E071B01E0
:1018B0002C0169847A848B849C848DA19EA1AFA124
:1018C000B8A5680E791E8A1E9B1E69897A898B8944
:1018D0009C890E9477365B016C01609132027091A5
:1018E0003302809134029091350220E030E040E8EC
:1018F00050E40E9480377B018C01C401B301A60132
:1019000095010E948E070E944436698B7A8B8B8BDF
:101910009C8B0E9477367B018C018DE293E0B801AD
:10192000A7010E94CE1D81E793E0B801A7010E94A4
:10193000CE1D6D857E858F8598890E9444367B01FA
:101940008C01C201B1010E9444369B01AC01C80167
:10195000B7010E94220989859A85AB85BC850197CC
:10196000A109B10989879A87AB87BC878D899E8930
:10197000A985BA858A0F9B1F892B09F064CF81E066
:1019800080933902809336020E94790806C087E06E
:1019900096E06FEB71E00E94A030E0960FB6F894ED
:1019A000DEBF0FBECDBFCF91DF911F910F91FF9092
:1019B000EF90DF90CF90BF90AF909F908F907F90EF
:1019C0006F905F904F903F902F900895EF92FF920D
:1019D0000F931F937C0107E016E0C80161EC72E0F1
:1019E0000E94B330C80168EC72E00E94B330C801B5
:1019F000B7010E94B330C80160E772E00E944A2E2E
:101A00001F910F91FF90EF9008950F931F93AB01DB
:101A1000BC014093320250933302609334027093BE
:101A200035028DE293E00E945C2040913202509199
:101A30003302609134027091350281E793E00E9495
:101A40005C2007E016E0C80163E171E00E94072E08
:101A5000409132025091330260913402709135020C
:101A6000C80122E030E00E948D301F910F9108954F
:101A7000CF92DF92EF92FF920F931F937C018B0125
:101A800085EBC82E84E0D82EC601B701F80140814D
:101A90000E94C8230894E11CF11CC601B701F8019B
:101AA00041810E94C82382E090E01F910F91FF9036
:101AB000EF90DF90CF9008950F931F93AB01BC017F
:101AC00040932E0250932F026093300270933102A4
:101AD0008DE293E00E94781D40912E0250912F02DA
:101AE000609130027091310281E793E00E94781D8D
:101AF00007E016E0C80166E271E00E94072E4091FF
:101B00002E0250912F026091300270913102C80173
:101B100022E030E00E948D301F910F910895CF9206
:101B2000DF92EF92FF920F931F937C018B0195EB55
:101B3000C92E94E0D92EC601B7010E94C123F80135
:101B400080830894E11CF11CC601B7010E94C123E7
:101B5000F801818382E090E01F910F91FF90EF9058
:101B6000DF90CF9008958AE290E063E472E00E94F3
:101B70008F0D809143029091440297FF06C08AE541
:101B800090E0909344028093430287E096E060E205
:101B900072E00E94072E87E096E066E172E00E9404
:101BA000072E609143027091440287E096E04AE07C
:101BB00050E00E94842F8CE290E061E472E00E9489
:101BC0008F0D809141029091420297FF06C084EBF5
:101BD00090E0909342028093410287E096E06EE0AD
:101BE00072E00E94072E87E096E066E072E00E94B5
:101BF000072E609141027091420287E096E04AE030
:101C000050E00E94842F089580E090E06DE372E040
:101C10000E948F0D80913D0290913E021816190688
:101C200044F080914F029091500290933E02809335
:101C30003D0287E096E068E672E00E94072E87E0AA
:101C400096E061E672E00E94072E60913D0270917D
:101C50003E0287E096E04AE050E00E94842F82E056
:101C600090E06FE372E00E948F0D80913F029091AF
:101C700040021816190644F08091510290915202C8
:101C80009093400280933F0287E096E069E572E01E
:101C90000E94072E87E096E061E572E00E94072E21
:101CA00060913F027091400287E096E04AE050E088
:101CB0000E94842F0895EF92FF920F931F93CF936A
:101CC000DF93AC01EB0124E0E22EF12CE60EF71ECF
:101CD0008A010F5F1F4F85EB94E0BA010E94C12378
:101CE0008993A801CE15DF0599F784E090E0DF9194
:101CF000CF911F910F91FF90EF90089586E190E0B2
:101D00006EE272E00E945B0E60912E0270912F02D3
:101D100080913002909131020E94443616161706C7
:101D200064F080E090E0A8E4B4E480932E02909305
:101D30002F02A0933002B09331028AE190E062E377
:101D400072E00E945B0E60913202709133028091CA
:101D50003402909135020E9444361616170664F03C
:101D600080E090E0A8E4B4E48093320290933302E0
:101D7000A0933402B093350208958EE090E069E2BA
:101D800072E00E945B0E6091290270912A0280919C
:101D90002B0290912C0220E030E040E85FE30E94AB
:101DA000D835882394F460914B0270914C028827B7
:101DB00077FD8095982F0E94773660932902709363
:101DC0002A0280932B0290932C0287E096E069E42C
:101DD00072E00E94072E87E096E06FE372E00E94B7
:101DE000072E4091290250912A0260912B02709196
:101DF0002C0287E096E022E030E00E948D3082E104
:101E000090E067E272E00E948F0D8091270290912E
:101E100028021816190644F080914D0290914E0246
:101E2000909328028093270287E096E067E372E0B0
:101E30000E94072E87E096E068E272E00E94072E7B
:101E4000609127027091280287E096E04AE050E016
:101E50000E94842F089585EB94E064E170E00E9475
:101E6000C12380932D02882321F48091490280931D
:101E70002D0287E096E06EEF71E00E94072E87E06A
:101E800096E06DEE71E00E94072E87E096E060918B
:101E90002D024AE050E00E94FF2E0895AF92BF92BB
:101EA000CF92DF92EF92FF920F931F930E94040E46
:101EB0000E94BD0E0E942B0F0E94B30D0E947E0E49
:101EC0008EE190E065E472E00E945B0E6091450255
:101ED00070914602809147029091480227E137EBCA
:101EE00041ED58E30E94D835882364F48DEC9CECD6
:101EF000ACE4BFE38093450290934602A09347026F
:101F0000B0934802A0902902B0902A02C0902B0200
:101F1000D0902C0260912D0270E080E090E0209142
:101F2000270230912802442737FD4095542F0E9404
:101F30003C380E9477367B018C01C601B501A801AF
:101F400097010E94DC356093A4027093A5028093F0
:101F5000A6029093A702C801B701A60195010E94AD
:101F6000DC356093A8027093A9028093AA02909333
:101F7000AB0287E096E065EE71E00E94072E87E0F5
:101F800096E069ED71E00E94072E4091A402509105
:101F9000A5026091A6027091A70287E096E022E078
:101FA00030E00E948A3087E096E069EC71E00E94A0
:101FB000072E4091A8025091A9026091AA02709147
:101FC000AB0287E096E022E030E00E948A3087E0B2
:101FD00096E067EC71E00E94072E87E096E00E9491
:101FE0002A2E60913D0270913E02882777FD8095F0
:101FF000982F0E9477362091A8023091A902409133
:10200000AA025091AB020E9480370E94443660932E
:10201000AC027093AD028093AE029093AF0287E062
:1020200096E06FEB71E00E94072E87E096E06AEA87
:1020300071E00E94072E4091AC025091AD02609178
:10204000AE027091AF0287E096E02AE030E00E9495
:102050001D2F87E096E068EA71E00E94072E87E076
:1020600096E00E942A2E60913F02709140028827DC
:1020700077FD8095982F0E9477362091A8023091A5
:10208000A9024091AA025091AB020E9480370E949F
:1020900044366093B0027093B1028093B202909381
:1020A000B30287E096E060EA71E00E94072E87E0C5
:1020B00096E06AE871E00E94072E4091B0025091CC
:1020C000B1026091B2027091B30287E096E02AE01B
:1020D00030E00E941D2F87E096E068E871E00E94E2
:1020E000072E87E096E00E942A2E1092B4021092EA
:1020F000B5021092B6021092B7021F910F91FF9095
:10210000EF90DF90CF90BF90AF900895CF93DF9383
:10211000C0E0D0E085EB94E0BE0140E00E94C8231F
:102120002196C233D105B1F70E944E0FDF91CF91B6
:102130000895CF93DF93C0E0D0E087E096E0BE0142
:102140004AE050E00E94712F87E096E06BEE71E06C
:102150000E94A32F85EB94E0BE010E94C123682F4B
:1021600087E096E04AE050E00E94FF2E2196C832B8
:10217000D10519F7DF91CF910895CF92DF92EF92B9
:10218000FF920F931F930E94991007E016E0C80179
:1021900060E871E00E94072E60913D0270913E025E
:1021A000C8014AE050E00E94712F42E0C42E44E092
:1021B000D42EC801B6010E94B33060913F027091E5
:1021C0004002C8014AE050E00E94712F39E0E32E3E
:1021D00034E0F32EC801B7010E94E630C80164E77D
:1021E00071E00E94072E4091290250912A026091CD
:1021F0002B0270912C02C80122E030E00E948A304C
:10220000C801B7010E94E630C80165E671E00E948E
:10221000072E6091270270912802C8014AE050E021
:102220000E94712FC801B7010E94E630C80163E522
:1022300071E00E94072EC80160912D024AE050E033
:102240000E94ED2EC801B7010E94E630C8016BE480
:1022500071E00E94072E6091430270914402C80110
:102260004AE050E00E94712FC801B6010E94B330CD
:102270006091410270914202C8014AE050E00E9420
:10228000712FC801B7010E94E630C80162E471E015
:102290000E94072E40912E0250912F026091300231
:1022A00070913102C80122E030E00E948A30C801FA
:1022B000B6010E94B33040913202509133026091D6
:1022C000340270913502C80122E030E00E948A3069
:1022D000C801B7010E94E6301F910F91FF90EF9067
:1022E000DF90CF9008958AE892E090935002809317
:1022F0004F0290935202809351028FE590E09093A9
:102300004C0280934B0280E991E090934E028093BF
:102310004D0281E090E090934A028093490285EE5D
:1023200092E060E476E00E948E2864EF71E080E045
:1023300090E00E948C2A089580912B0390912C03A9
:1023400062E044E00E949227089580912B039091CF
:102350002C0361E044E00E949227089580912903B4
:1023600090912A0362E044E00E94922708958091B0
:10237000290390912A0361E044E00E949227089586
:10238000EF92FF920F931F93DF93CF93CDB7DEB7FA
:10239000FC01EDB6FEB6448155814F5F5F4F8DB7AE
:1023A0009EB7841B950B0FB6F8949EBF0FBE8DBFD2
:1023B0000DB71EB70F5F1F4FCF01B80120E030E00F
:1023C0000E94C131C8010E94D3010FB6F894FEBE2D
:1023D0000FBEEDBECF91DF911F910F91FF90EF9057
:1023E00008954F925F926F927F928F929F92AF92D9
:1023F000BF92CF92DF92EF92FF920F931F93DF93E2
:10240000CF93CDB7DEB72E970FB6F894DEBF0FBED1
:10241000CDBF6E010894C11CD11CC60163EC73E0F2
:102420000E944C33C6010E94C0117B018C01609157
:102430002D0270E0882777FD8095982F0E947736CF
:102440009B01AC01C801B7010E9480372B013C0100
:10245000C6010E94573358E0852E912C8C0E9D1E8C
:10246000C4016AEC73E00E944C33C4010E94C011A5
:102470007B018C0160912D0270E0882777FD8095AB
:10248000982F0E9477369B01AC01C801B7010E94CA
:1024900080375B016C01C4010E945733C301B20154
:1024A0000E9444367B018C01C601B5010E9444366E
:1024B0009B01AC01C801B7010E9422092E960FB6FC
:1024C000F894DEBF0FBECDBFCF91DF911F910F916A
:1024D000FF90EF90DF90CF90BF90AF909F908F9044
:1024E0007F906F905F904F9008950F931F93DF93AD
:1024F000CF93CDB7DEB727970FB6F894DEBF0FBEE8
:10250000CDBF8E010F5F1F4FC80163EC73E00E94C7
:102510004C33C8010E94C01160934502709346027B
:102520008093470290934802C8010E94573307E006
:1025300016E0C8016DEF70E00E94072E4091450241
:10254000509146026091470270914802C80122E012
:1025500030E00E948A30C8016AEF70E00E94072EC6
:10256000C8010E942A2E27960FB6F894DEBF0FBE30
:10257000CDBFCF91DF911F910F910895EF92FF9200
:102580000F931F93DF93CF93CDB7DEB72B970FB683
:10259000F894DEBF0FBECDBF8E010B5F1F4FC80189
:1025A00063EC73E00E944C33C8010E94C011698340
:1025B0007A838B839C83C8010E9457337E010894E1
:1025C000E11CF11C6EE070E08B010F5F1F4FF70103
:1025D00041917F0185EB94E00E94C823B80102314C
:1025E000110591F70E944E0F2B960FB6F894DEBF9F
:1025F0000FBECDBFCF91DF911F910F91FF90EF9054
:102600000895EF92FF920F931F93DF93CF93CDB76F
:10261000DEB7FC01EDB6FEB6448155814F5F5F4FDA
:102620008DB79EB7841B950B0FB6F8949EBF0FBE57
:102630008DBF0DB71EB70F5F1F4FCF01B80120E050
:1026400030E00E94C131C8010E94D7010FB6F89452
:10265000FEBE0FBEEDBECF91DF911F910F91FF9097
:10266000EF900895EF92FF920F931F93DF93CF9314
:10267000CDB7DEB727970FB6F894DEBF0FBECDBF3C
:102680008091B8029091A302823018F1992329F029
:10269000E0904102F090420204C0E0904302F090CA
:1026A00044028E010F5F1F4FC80163EC73E00E946C
:1026B0004C33C8010E94011390934402809343025B
:1026C000C8010E9457336091430270914402C701D0
:1026D0000AC0913061F4609143027091440280918C
:1026E00041029091420243E050E00E94E5091092BD
:1026F000A30227960FB6F894DEBF0FBECDBFCF91D1
:10270000DF911F910F91FF90EF900895EF92FF924C
:102710000F931F93DF93CF93CDB7DEB727970FB6F5
:10272000F894DEBF0FBECDBF8091B8029091A30296
:10273000823018F1992329F0E0904102F090420292
:1027400004C0E0904302F09044028E010F5F1F4FDF
:10275000C80163EC73E00E944C33C8010E9401136E
:102760009093420280934102C8010E9457336091C6
:10277000410270914202C7010AC0992361F460913D
:10278000410270914202809143029091440243E0E1
:1027900050E00E94E50981E08093A30227960FB6DE
:1027A000F894DEBF0FBECDBFCF91DF911F910F9187
:1027B000FF90EF9008952F923F924F925F926F9209
:1027C0007F928F929F92AF92BF92CF92DF92EF92C1
:1027D000FF920F931F93DF93CF93CDB7DEB76B9725
:1027E0000FB6F894DEBF0FBECDBF6E010894C11CBA
:1027F000D11CC60163EC73E00E944C33C6010E94F9
:10280000C0117B018C0160912D0270E0882777FD5B
:102810008095982F0E9477369B01AC01C801B701C3
:102820000E9480373B014C01C6010E9457338E0144
:10283000085F1F4FC8016AEC73E00E944C33C80167
:102840000E94C0116B017C01B0902D02C8010E9452
:1028500057338E01015F1F4FC80161ED73E00E9485
:102860004C33C8010E9401139F8B8E8BC8010E94BC
:1028700057338DE293E00E947A1B688F798F8A8F9D
:102880009B8F81E793E00E947A1B1B012C01C401FE
:10289000B30120E030E040EA51E40E94D83587FDE2
:1028A00030C06B2D70E0882777FD8095982F0E94AF
:1028B00077369B01AC01C701B6010E9480375B01EE
:1028C0006C0120E030E040EA51E40E94D83587FDF9
:1028D00018C00E94C4080E9477369B01AC01C40155
:1028E000B3010E947C37181664F00E94C4080E944D
:1028F00077369B01AC01C601B5010E947C371816E2
:102900003CF487E096E064EB70E00E944A2E16C02B
:10291000688D798D8A8D9B8D0E9477367B018C0125
:10292000C201B1010E9477369B01AC01C801B70119
:10293000840173018E889F880E946E0A6B960FB681
:10294000F894DEBF0FBECDBFCF91DF911F910F91E5
:10295000FF90EF90DF90CF90BF90AF909F908F90BF
:102960007F906F905F904F903F902F900895EF92DF
:10297000FF920F931F93DF93CF93CDB7DEB72E97C0
:102980000FB6F894DEBF0FBECDBF8E010F5F1F4F95
:10299000C80163EC73E00E944C33C8010E94C0116F
:1029A0000E94050DC8010E9457338091B802833000
:1029B00041F58E01085F1F4FC8016AEC73E00E9469
:1029C0004C33C8010E9401137C01C8010E94573397
:1029D00081E0E816F104A9F462E3E62E62E0F62E47
:1029E0006AE170E08B010F5F1F4FF70141917F019A
:1029F00085EB94E00E94C8230E31110511F0B80157
:102A0000F1CF2E960FB6F894DEBF0FBECDBFCF919B
:102A1000DF911F910F91FF90EF900895EF92FF9239
:102A20000F931F93DF93CF93CDB7DEB72E970FB6DB
:102A3000F894DEBF0FBECDBF8E010F5F1F4FC801E0
:102A400063EC73E00E944C33C8010E94C0110E94E5
:102A50005C0DC8010E9457338091B802833041F564
:102A60008E01085F1F4FC8016AEC73E00E944C336F
:102A7000C8010E9401137C01C8010E94573381E004
:102A8000E816F104A9F47EE2E72E72E0F72E66E183
:102A900070E08B010F5F1F4FF70141917F0185EBC4
:102AA00094E00E94C8230A31110511F0B801F1CF5A
:102AB0002E960FB6F894DEBF0FBECDBFCF91DF913B
:102AC0001F910F91FF90EF9008950F931F93DF9345
:102AD000CF93CDB7DEB762970FB6F894DEBF0FBEC7
:102AE000CDBF8E010B5F1F4FC80163EC73E00E94E6
:102AF0004C33C8010E9401139A838983C8010E9444
:102B000057338E01045F1F4FC8016AEC73E00E94C7
:102B10004C33C8010E9401139C838B83C8010E941F
:102B2000573387E096E06BE371E00E94072E6981DE
:102B30007A8187E096E04AE050E00E94842F87E0A7
:102B400096E066E371E00E94072E6B817C8187E04E
:102B500096E04AE050E00E94842F8091B8028430D1
:102B600089F48AE290E0BE016F5F7F4F0E94380DCA
:102B70008CE290E0BE016D5F7F4F0E94380D0E9495
:102B8000B30D3AC08330C1F569817A818B819C8114
:102B900043E050E00E94E50968EC70E080E090E0DE
:102BA0000E948C2A6B817C8189819A8143E050E06C
:102BB0000E94E50968EC70E080E090E00E948C2AB9
:102BC00069817A818B819C8143E050E00E94E50914
:102BD00068EC70E080E090E00E948C2A6B817C8140
:102BE00089819A8143E050E00E94E50968EC70E039
:102BF00080E090E00E948C2A62960FB6F894DEBFC7
:102C00000FBECDBFCF91DF911F910F9108950F930C
:102C10001F93DF93CF93CDB7DEB729970FB6F89404
:102C2000DEBF0FBECDBF8E010D5F1F4FC80163EC2D
:102C300073E00E944C33C8010E9401139A83898378
:102C400084E190E0BE016F5F7F4F0E94380DC801A4
:102C50000E9457330E944E0F29960FB6F894DEBF9C
:102C60000FBECDBFCF91DF911F910F9108950F93AC
:102C70001F93DF93CF93CDB7DEB729970FB6F894A4
:102C8000DEBF0FBECDBF8E010D5F1F4FC80163ECCD
:102C900073E00E944C33C8010E9401139A83898318
:102CA000C8010E94573382E190E0BE016F5F7F4F01
:102CB0000E94380D0E944E0F29960FB6F894DEBF81
:102CC0000FBECDBFCF91DF911F910F9108950F934C
:102CD0001F93DF93CF93CDB7DEB764970FB6F89409
:102CE000DEBF0FBECDBF8E01095F1F4FC80163EC71
:102CF00073E00E944C33C8010E9401139A838983B8
:102D0000C8010E9457338E01025F1F4FC8016AEC51
:102D100073E00E944C33C8010E9401139C838B8393
:102D2000C8010E94573389819A819E838D8380E0F8
:102D300090E0BE016B5F7F4F0E948F0D29813A8129
:102D40008D819E818217930751F02B3031053CF025
:102D500080E090E0BE016F5F7F4F0E94380D82E0FF
:102D600090E0BE016B5F7F4F0E948F0D2B813C81F5
:102D70008D819E818217930751F02B3031053CF0F5
:102D800082E090E0BE016D5F7F4F0E94380D0E948F
:102D9000040E64960FB6F894DEBF0FBECDBFCF9180
:102DA000DF911F910F910895EF92FF920F931F9360
:102DB000DF93CF93CDB7DEB7FC01EDB6FEB644810D
:102DC00055814F5F5F4F8DB79EB7841B950B0FB634
:102DD000F8949EBF0FBE8DBF0DB71EB70F5F1F4F7C
:102DE000CF01B80120E030E00E94C131C8010E944B
:102DF000F5010FB6F894FEBE0FBEEDBECF91DF9188
:102E00001F910F91FF90EF9008958F929F92AF9234
:102E1000BF92CF92DF92EF92FF920F931F93DF93B7
:102E2000CF93CDB7DEB72E970FB6F894DEBF0FBEA7
:102E3000CDBF8E010F5F1F4FC80163EC73E00E948E
:102E40004C33C8010E94D41620912D0230E040E09E
:102E500050E00E943C384B015C01C8010E9457338E
:102E60008E01085F1F4FC8016AEC73E00E944C336B
:102E7000C8010E94D41620912D0230E040E050E0BD
:102E80000E943C386B017C01C8010E9457338DE2DF
:102E900093E0B501A4010E94801B81E793E0B70194
:102EA000A6010E94801B0E942F0A0E9479082E967C
:102EB0000FB6F894DEBF0FBECDBFCF91DF911F914B
:102EC0000F91FF90EF90DF90CF90BF90AF909F90C9
:102ED0008F900895CF93DF93EC0160E174E00E943E
:102EE0003332882319F00E94F1118BC0CE0168E4BF
:102EF00074E00E943332882319F00E94DB1381C0F2
:102F0000CE0167E174E00E943332882319F00E94F9
:102F1000751277C0CE0169E774E00E9433328823CE
:102F200019F00E940E156DC0CE0160E874E00E9499
:102F30003332882319F00E94B71463C0CE016CE2CB
:102F400074E00E943332882319F00E94051759C09B
:102F5000CE0163E374E00E943332882319F00E94AB
:102F600032134FC0CE016AE374E00E9433328823EB
:102F700019F00E94861345C0CE0161E474E00E94FE
:102F80003332882319F00E9465153BC0CE016FE4EF
:102F900074E00E943332882319F00E94671631C012
:102FA000CE016BE674E00E943332882319F00E9450
:102FB000BE1227C0CE0162E774E00E94333288233C
:102FC00019F00E9437161DC0CE0167E874E00E9418
:102FD0003332882319F00E94071613C0CE016DE525
:102FE00074E00E943332882319F00E94BD1009C09A
:102FF000CE0164E674E00E943332882319F00E9407
:10300000861081E0DF91CF910895CF93DF93EC019B
:103010000E946A17882329F4CE010E94E60C0E94C0
:10302000BD08DF91CF9108956F927F928F929F920A
:10303000AF92BF92CF92DF92EF92FF920F931F93C6
:10304000DF93CF93CDB7DEB727970FB6F894DEBFE7
:103050000FBECDBF4C01FC0164807580AA24BB2447
:1030600000E010E0EE24FF246E010894C11CD11C86
:103070003DC0C401B7010E9443318C32A1F5C601A5
:10308000B401A50197010E94E23202301105B9F0A6
:10309000033011053CF40115110559F001301105FB
:1030A000C9F40AC00330110569F00430110591F428
:1030B0000CC08CEB93E00BC083EC93E008C08AEC6F
:1030C00093E005C081ED93E002C088ED93E0B60186
:1030D0000E94353357010894A11CB11C0F5F1F4F8C
:1030E000C6010E9457330894E11CF11CE614F70452
:1030F0000CF4BFCF0093B80227960FB6F894DEBF4A
:103100000FBECDBFCF91DF911F910F91FF90EF9038
:10311000DF90CF90BF90AF909F908F907F906F90F7
:1031200008953F924F925F926F927F928F929F92FB
:10313000AF92BF92CF92DF92EF92FF920F931F93C5
:10314000DF93CF93CDB7DEB7C655D0400FB6F89416
:10315000DEBF0FBECDBF782E692EAA24BB24B4E2F9
:103160008B2E912C8C0E9D1E19C087E096E00E943C
:10317000FF2C182F61E070E080E090E00E948C2A24
:10318000F401EA0DFB1D10831A3029F487E096E064
:103190000E94282D0AC00894A11CB11C87E096E06B
:1031A0000E94CE2C1816190604F3A4E24A2E512CC4
:1031B0004C0E5D1EA40CB51CF5011082872D962DBA
:1031C000B2010E94AF328E010F5F1F4FC8016EEE39
:1031D00071E00E94AF32872D962DB8010E94B33165
:1031E0005C01C8010E945733FFEFAF16FFEFBF0627
:1031F00009F477C03324339430928E04F8E0EF2E34
:10320000F12CEC0EFD1EA5014F5F5F4FC701672D2E
:10321000762D0E9429338E01015F1F4FC801B7012F
:103220000E944C33C8010E94D4166B017C01C80176
:103230000E9457338E010A5E1F4FC801672D762DFD
:1032400040E050E095010E94E232872D962DB801B2
:103250000E943533C8010E9457338E01035E1F4F11
:10326000C801672D762D0E944C33C8010E94D406F8
:103270004B015C01C8010E9457338C149D04AE04BD
:10328000BF0419F43092E40227C087E096E061ECB5
:1032900072E00E94B33087E096E068EC72E00E9432
:1032A000B33087E096E06FE972E00E94072E87E076
:1032B00096E0B2010E94A03087E096E066E972E0F5
:1032C0000E94072E87E096E0B501A4012AE030E0D5
:1032D0000E945D2F1092E402CE0108960E9457339F
:1032E00004C010928E041092E402872D962DCA5AC3
:1032F000DF4F0FB6F894DEBF0FBECDBFCF91DF9189
:103300001F910F91FF90EF90DF90CF90BF90AF9003
:103310009F908F907F906F905F904F903F90089517
:10332000AF92BF92CF92DF92EF92FF920F931F93D3
:10333000DF93CF93CDB7DEB727970FB6F894DEBFF4
:103340000FBECDBFB82EA92E0E94582A6B010B2D9F
:103350001A2DC8016FE671E00E94AF327E01089419
:10336000E11CF11C29C00E94582A6C197D0920918A
:103370003B0230913C02261737072CF40E94BD080F
:103380000E94582A6B01C7010E949118C801B70119
:103390000E943533C7010E94573380918E048823E1
:1033A00059F08091E402882339F40E94B608C801DC
:1033B0006FE671E00E94C932F80184819581892B02
:1033C00091F20E94582A0E94582A6093B902709381
:1033D000BA028093BB029093BC026093BD027093CB
:1033E000BE028093BF029093C0028B2D9A2D279628
:1033F0000FB6F894DEBF0FBECDBFCF91DF911F9106
:103400000F91FF90EF90DF90CF90BF90AF90089515
:10341000EF92FF920F931F93DF93CF93CDB7DEB759
:1034200027970FB6F894DEBF0FBECDBF7C0169E0D1
:1034300074E00E94EE31882371F08E010F5F1F4F00
:10344000C801B7010E944C33C8010E941418C8017A
:103450000E94573381E027960FB6F894DEBF0FBE67
:10346000CDBFCF91DF911F910F91FF90EF90089505
:10347000CF92DF92FF920F931F93DF93CF93CDB73D
:10348000DEB72E970FB6F894DEBF0FBECDBF6C012E
:103490008E010F5F1F4FC801B6010E944C33C80157
:1034A0000E94081AF82EC8010E945733FF20C1F06D
:1034B0008E01085F1F4FC8016DED72E00E944C3312
:1034C000C8010E940518C8010E945733C6016FE663
:1034D00071E00E94C9321092E4020E94BD081DC032
:1034E00087E096E061EC72E00E94B33087E096E0FE
:1034F00068EC72E00E94B33087E096E06FE872E01B
:103500000E94072E87E096E0B6010E94B33087E064
:1035100096E061E872E00E944A2E1092B8022E9660
:103520000FB6F894DEBF0FBECDBFCF91DF911F91D4
:103530000F91FF90DF90CF900895EF92FF920F933D
:103540001F93DF93CF93CDB7DEB727970FB6F894CD
:10355000DEBF0FBECDBF8E010F5F1F4FC8010E949F
:1035600090198DEDE82E82E0F82EC701B8010E9477
:103570003533C8010E945733C7010E94381A279675
:103580000FB6F894DEBF0FBECDBFCF91DF911F9174
:103590000F91FF90EF900895AF92BF92CF92DF927C
:1035A000EF92FF920F931F9307E016E0C80140E0EF
:1035B00051EE60E070E00E94472CC80165EA72E0BD
:1035C0000E94072EC8010E942A2E0E944E0F0E94C0
:1035D00073112DE2A22E23E0B22E40912E025091C3
:1035E0002F026091300270913102C5010E94781D56
:1035F0004091320250913302609134027091350251
:10360000C5010E945C2091E7C92E93E0D92E40911C
:103610002E0250912F026091300270913102C6014A
:103620000E94781D40913202509133026091340221
:1036300070913502C6010E945C2060913702709142
:103640003802882777FD8095982F0E947736209141
:10365000290230912A0240912B0250912C020E94A3
:10366000DC357B018C01609127027091280288274C
:1036700077FD8095982F0E9477369B01AC01C80199
:10368000B7010E9480370E9444367B018C01C5013E
:10369000B801A7010E94801BC601B801A7010E94C2
:1036A000801B8BEF93E06FED73E00E9435330E9437
:1036B000BD080E94861364EF71E080E090E00E94F4
:1036C0008C2A1F910F91FF90EF90DF90CF90BF90C9
:1036D000AF900895FC0127853089418952898385FF
:1036E0009485A585B685281B390B4A0B5B0BB90160
:1036F000CA010895FC0163857485858596850895C2
:10370000FC0143875487658776874787508B618B99
:10371000728B13AA14AA15AA16AA13A214A215A290
:1037200016A208956F927F928F929F92AF92BF924E
:10373000CF92DF92EF92FF920F931F93CF93DF937D
:10374000EC01AF84B888C988DA888B859C85AD8503
:10375000BE85A81AB90ACA0ADB0A2B893C894D8999
:103760005E89CA01B9010E9480377B018C012B8DD3
:103770003C8D4D8D5E8DCA01B9010E9474359B014F
:10378000AC01C801B7010E94DC350E9444369B01A0
:10379000AC01A114B104C104D104B9F462307105C3
:1037A000810591050CF085C01BA21CA21DA21EA2C2
:1037B00080E090E0A0E0B0E08B8B9C8BAD8BBE8B6B
:1037C0001BAA1CAA1DAA1EAA0BC1EBA8FCA80DA926
:1037D0001EA91A141B041C041D0444F51E141F0406
:1037E0001006110674F46A157B058C059D05B4F569
:1037F000CD5BDF4F8881C354D040882309F059C086
:103800002DC0E114F1040105110509F452C06A1537
:103810007B058C059D050CF04CC0CD5BDF4F88818E
:10382000C354D040813009F044C038C01E141F0476
:1038300010061106DCF488279927DC018A199B09F8
:10384000AC09BD09281739074A075B073CF4CD5B73
:10385000DF4F8881C354D040813059F5882799279C
:10386000DC01821B930BA40BB50B1FC0E114F10408
:1038700001051105F1F088279927DC018A199B09B8
:10388000AC09BD09281739074A075B0794F4CD5BDB
:10389000DF4F8881C354D040882359F48827992763
:1038A000DC018E199F09A00BB10B8BAB9CABADABB0
:1038B000BEAB6BA87CA88DA89EA86114710481047E
:1038C0009104A9F48FA998ADA9ADBAAD8BAF9CAF07
:1038D000ADAFBEAFFE01ED5BFF4F10821A141B04AB
:1038E0001C041D040CF049C081E0808346C0ABACD1
:1038F000BCACCDACDEACC601B50120E030E040E0B0
:1039000050EC0E9480377B018C01C401B3010E94FE
:10391000773620E030E040E850E40E94803720E035
:1039200030E040E85FE30E9474359B01AC01C801C0
:10393000B7010E94DC359B01AC01C601B5010E94B4
:1039400074357B018C016BAF7CAF8DAF9EAFEF9672
:10395000A880B980CA80DB80EF979501A6010E94FC
:103960007C37181624F4D801C70157016D01C50131
:10397000D6018BAF9CAFADAFBEAF8BA99CA9ADA953
:10398000BEA90196A11DB11D8BAB9CABADABBEAB6F
:103990006BAD7CAD8DAD9EAD0E9449366BA37CA313
:1039A0008DA39EA360E074E284E799E42BAD3CAD67
:1039B0004DAD5EAD0E94DC359B01AC016B8B7C8B09
:1039C0008D8B9E8BCD5BDF4F8881C354D040882385
:1039D00039F4DA01C901B0588B8B9C8BAD8BBE8B4F
:1039E000DF91CF911F910F91FF90EF90DF90CF90DB
:1039F000BF90AF909F908F907F906F900895FC0143
:103A000087859089A189B28984179507A607B7078A
:103A100039F04787508B618B728BCF010E94921BCC
:103A20000895CF92DF92EF92FF920F931F93FC01C4
:103A30008EE692E091838083128213861486158627
:103A400016861786108A118A128A0F2EF0E0CF2E62
:103A5000F0E0DF2EF0E0EF2EF0E0FF2EF02DC38A35
:103A6000D48AE58AF68A00E010E020E83FE3078B7D
:103A7000108F218F328F038F148F258F368F078FF2
:103A800010A321A332A313A214A215A216A281E0AF
:103A900090E094A783A78FEF86A717A210A611A680
:103AA00012A6138214821582168270AB67A752ABDE
:103AB00041AB13AA14AA15AA16AAC7AAD0AEE1AEA2
:103AC000F2AEC3AED4AEE5AEF6AEFF96019311935F
:103AD000219331931082E354F040178210861186AF
:103AE00012861F910F91FF90EF90DF90CF90089575
:103AF000EF92FF920F931F93CF93DF93EC017A0124
:103B00008B016F89788D898D9A8DA80197010E940C
:103B1000D8358823E1F1EF8AF88E098F1A8FEF9656
:103B200060E074E284E799E4A80197010E94DC3523
:103B3000688379838A839B83EF978BA99CA9ADA91E
:103B4000BEA9181619061A061B060CF52B893C8906
:103B50004D895E89CA01B9010E9480377B018C01C1
:103B60002B8D3C8D4D8D5E8DCA01B9010E9474353F
:103B70009B01AC01C801B7010E94DC350E944436AC
:103B80006BAB7CAB8DAB9EABCE010E94921BDF91E9
:103B9000CF911F910F91FF90EF9008954F925F92F8
:103BA0006F927F928F929F92AF92BF92CF92DF924D
:103BB000EF92FF920F931F93CF93DF932C017A0123
:103BC0008B01CB01BA01F2012389348945895689D9
:103BD0000E94D835882309F455C0F201A788B08C1B
:103BE000C18CD28C3501460197FA909497F8909445
:103BF000C801B701A40193010E94D83588231CF4A1
:103C0000840173010AC0C801B701A60195010E9491
:103C10007C37181614F486017501C801B70120E03D
:103C200030E040E050E00E94D835882331F4F201C2
:103C300013A214A215A216A220C060E074E284E7C9
:103C400099E4A80197010E94DC359F770E944936CC
:103C5000F20163A374A385A396A3E201CD5BDF4FBA
:103C60001882C801B70120E030E040E050E00E9437
:103C70007C37181614F481E08883F201E38AF48A11
:103C8000058B168BDF91CF911F910F91FF90EF90D5
:103C9000DF90CF90BF90AF909F908F907F906F906C
:103CA0005F904F900895FC01238934894589568996
:103CB000B901CA010895DC0112968C9112978330E4
:103CC00001F1843040F4813089F0ED91FC9111973D
:103CD000823098F407C0863011F1883049F1843081
:103CE00079F516C00480F581E02D1FC0ED91FC919F
:103CF00011970680F781E02D18C00084F185E02D32
:103D000014C0ED91FC9111970284F385E02D0DC054
:103D1000ED91FC9111970484F585E02D06C0ED919D
:103D2000FC9111970684F785E02DCD010995089542
:103D3000ED91FC9111970088F189E02DCD01099555
:103D40000895CF93DF93EC016B897C898D899E89DF
:103D500020E030E040E050E00E947C3718161CF470
:103D6000EFA5F8A902C0E9A9FAA90995DF91CF91B9
:103D70000895DC0170E06370707061307105A9F026
:103D8000623071051CF4672B41F0089562307105B3
:103D9000A1F06330710501F518C0ED91FC91119708
:103DA0000190F081E02D62E00EC0ED91FC91119741
:103DB0000190F081E02D63E006C0ED91FC9101904F
:103DC000F081E02D61E009950895ED91FC9101905D
:103DD000F081E02D60E009950895DC01862F63E015
:103DE0000E945B38913071F0913018F09230E9F414
:103DF00013C0ED91FC9111970190F081E02DCD0160
:103E000064E008C0ED91FC9111970190F081E02DE4
:103E1000CD0161E009950895ED91FC911197019014
:103E2000F081E02DCD0162E009950895DC0170E09C
:103E30006370707061307105A9F0623071051CF417
:103E4000672B41F0089562307105A1F06330710570
:103E500001F518C0ED91FC9111970190F081E02DD2
:103E600065E00EC0ED91FC9111970190F081E02D7D
:103E700066E006C0ED91FC910190F081E02D6AE0D2
:103E800009950895ED91FC910190F081E02D69E094
:103E900009950895DC01862F66E00E945B38923018
:103EA00009F1933030F4992359F0913009F03FC073
:103EB00010C0943049F19430F0F09530C1F52EC027
:103EC000ED91FC9111970190F081E02DCD0164E01E
:103ED00023C0ED91FC9111970190F081E02DCD016F
:103EE00065E01AC0ED91FC9111970190F081E02DF1
:103EF000CD0161E011C0ED91FC9111970190F0812D
:103F0000E02DCD0163E008C0ED91FC911197019087
:103F1000F081E02DCD0162E009950895ED91FC91CD
:103F200011970190F081E02DCD0166E0099508958B
:103F3000DC0170E0677070706330710591F164307E
:103F400071054CF461307105E1F0623071050CF5DA
:103F5000672B79F008956530710599F16530710529
:103F600044F166307105A9F16730710509F040C070
:103F700038C0ED91FC9111970190F081E02D61E046
:103F80002EC0ED91FC9111970190F081E02D65E03C
:103F900026C0ED91FC9111970190F081E02D64E035
:103FA0001EC0ED91FC9111970190F081E02D66E02B
:103FB00016C0ED91FC9111970190F081E02D62E027
:103FC0000EC0ED91FC9111970190F081E02D6AE017
:103FD00006C0ED91FC910190F081E02D68E009951B
:103FE0000895ED91FC910190F081E02D69E0099533
:103FF0000895CF92DF92EF92FF920F931F93CF938A
:10400000DF93FC012281243029F0283019F092E05E
:10401000D92E02C084E0D82E8F01C0E0D0E0E62E79
:10402000FF24CC24C394F8012381C7010C2E02C0C5
:10403000959587950A94E2F7678180FD6C25822F1C
:104040000E94692B21960F5F1F4FCD1560F3DF9102
:10405000CF911F910F91FF90EF90DF90CF90089537
:10406000CF93DF93EC01E881F9810190F081E02D9D
:10407000CD5BDF4F8881C354D040882311F461E0C9
:1040800001C063E0CE0109958BA59CA50E94E52A9D
:10409000E881F9810190F081E02DCD5BDF4F8881CF
:1040A000C354D040882311F460E001C062E0CE0127
:1040B0000995DF91CF9108956F927F928F929F9291
:1040C000AF92BF92CF92DF92EF92FF920F931F9326
:1040D000CF93DF93EC013A014B01CB01BA0120E011
:1040E00030E040E050E00E94D835882309F441C018
:1040F000AB8CBC8CCD8CDE8CC601B501A4019301C8
:104100000E94D8358823A9F16BA97CA98DA99EA905
:104110000E9477367B018C01C601B501A401930191
:104120000E94DC359B01AC01C801B7010E948037B9
:104130000E9444366BAB7CAB8DAB9EAB60E070E015
:1041400080E090E4A40193010E94DC350E94E737EF
:1041500020E034E244E759E40E9480376FAB78AF47
:1041600089AF9AAF6B8E7C8E8D8E9E8ECE010E9413
:10417000921BDF91CF911F910F91FF90EF90DF90F5
:10418000CF90BF90AF909F908F907F906F90089549
:10419000EF92FF920F931F93CF93DF93EC018BA1CC
:1041A0009CA1ADA1BEA10097A105B10509F44CC029
:1041B0000E94662A7B018C012FA138A549A55AA52A
:1041C0008BA19CA1ADA1BEA1820F931FA41FB51FFF
:1041D00082179307A407B50730F0E816F9060A0717
:1041E0001B0758F405C0E816F9060A071B0760F11B
:1041F000E216F3060407150738F5CD5BDF4F88811B
:10420000C354D0402B853C854D855E85813029F493
:104210002F5F3F4F4F4F5F4F04C021503040404011
:1042200050402B873C874D875E87E881F9816B85FD
:1042300067700280F381E02DCE010995EFA2F8A608
:1042400009A71AA781E001C080E0DF91CF911F91FB
:104250000F91FF90EF900895CF93DF93FC01278596
:1042600030894189528983859485A585B68528172B
:1042700039074A075B0711F480E00FC0EF01CD5BFF
:10428000DF4F82179307A407B5071CF481E08883EA
:1042900001C01882CF010E94C820DF91CF910895FC
:1042A000CF93DF93EC010E94C820882319F0CE0140
:1042B0000E94921B81E0DF91CF910895CF93DF930D
:1042C000EC016B897C898D899E8920E030E040E09B
:1042D00050E00E94D835882369F42F8538894989B0
:1042E0005A898B859C85AD85BE85281739074A0775
:1042F0005B0721F0CE010E945021E3CFDF91CF91E7
:1043000008950F931F938C010E94FF1CC8010E9407
:104310005E211F910F910895FC0180918F048C30D4
:1043200090F482838F5F80938F04815090E0FC0132
:10433000EE0FFF1FE80FF91FE057FB4F88EB9BE0E4
:104340009283818308958FEF82830895DC01129612
:104350008C91129790E0FC01EE0FFF1FE80FF91F00
:10436000E057FB4F80818F7B808312968C916CE0AD
:104370000E945B3890E0AC01440F551F480F591F55
:10438000440F551F440F551F20E030E0C901840F32
:10439000951FFC01EE0FFF1FE80FF91FE057FB4FC1
:1043A000808186FD05C02F5F3F4F2C30310571F7AE
:1043B0000895FC0122812C30B8F58081992787FD72
:1043C000909548E850E0481B590B440F551F440F87
:1043D000551F6417750784F08181992787FD909593
:1043E00048E552E0481B590B440F551F440F551F19
:1043F000641775070CF4AB0142505040CA01AA275C
:1044000097FDA095BA2F880F991FAA1FBB1F4FB702
:10441000F89430E0F901EE0FFF1FE20FF31FE057B1
:10442000FB4F928381834FBF0895AF92BF92CF928B
:10443000DF92EF92FF920F931F93CF93DF93EC01E4
:104440009B0182E0603278070CF048C077FF03C020
:1044500020E030E005C0653B710514F024EB30E04E
:1044600000D000D0B901882777FD8095982F28814A
:10447000332727FD3095E8E8AE2EB12CA21AB30AF7
:10448000AA0CBB1CAA0CBB1CCC24B7FCC094DC2C13
:10449000E981FF27E7FDF09528E532E02E1B3F0B71
:1044A000220F331F220F331F442737FD4095542F0F
:1044B000EDB7FEB7218332834383548320E030E09D
:1044C00040E050E004EBE02EF12C012D112D0E9474
:1044D000FA309B010F900F900F900F90CE01B90111
:1044E0000E94D921DF91CF911F910F91FF90EF9002
:1044F000DF90CF90BF90AF900895CF92DF92EF9270
:10450000FF921F93CF93DF93EC01162F7A0169017D
:104510008A818C3008F064C0862F61E00E942A2BCB
:104520008A8190E0FC01EE0FFF1FE80FF91FE057B2
:10453000FB4F1F738081807C812B808380E292E01F
:104540008E199F0964E070E00E946738688380E6F6
:1045500099E08C199D0964E070E00E9467386983D6
:10456000AA818A2F6CE00E945B38682F70E0AB0153
:10457000440F551F460F571F440F551F440F551F1B
:1045800020E030E0C901840F951FFC01EE0FFF1FF2
:10459000E80FF91FE057FB4F808186FD15C02F5FA4
:1045A0003F4F2C30310571F724C01092800082E01B
:1045B000809381001092850010928400B19A8091BE
:1045C0006F00826080936F008A2F90E0FC01EE0FF5
:1045D000FF1FE80FF91FE057FB4F80818064808345
:1045E0008A81DF91CF911F91FF90EF90DF90CF9064
:1045F0000895672BD1F2E8CF40E252E020E639E09F
:104600000E947D2208951F920F920FB60F921124DF
:104610002F933F934F935F936F937F938F939F93CA
:10462000AF93BF93EF93FF938091B40487FF05C0CE
:1046300010928500109284002BC02091B40433277F
:1046400027FD309580918F0490E02817390704F5F5
:104650008091B404992787FD9095FC01EE0FFF1F10
:10466000E80FF91FE057FB4F808186FF11C0809152
:10467000B404992787FD9095FC01EE0FFF1FE80F0A
:10468000F91FE057FB4F80818F7360E00E94692B18
:104690008091B4048F5F8093B4042091B4043327D5
:1046A00027FD309580918F0490E0281739070CF092
:1046B0004EC08091B4048C300CF049C0209184002D
:1046C000309185008091B404992787FD9095FC0175
:1046D000EE0FFF1FE80FF91FE057FB4F818192811A
:1046E000280F391F30938900209388008091B404EB
:1046F000992787FD9095FC01EE0FFF1FE80FF91F2A
:10470000E057FB4F808186FF2BC08091B40499272E
:1047100087FD9095FC01EE0FFF1FE80FF91FE05792
:10472000FB4F80818F7361E00E94692B19C080E488
:104730009CE905C080918400909185000496909337
:104740008900809388008FEF8093B40409C0809122
:10475000840090918500049680549C4940F3EACFF0
:10476000FF91EF91BF91AF919F918F917F916F9149
:104770005F914F913F912F910F900FBE0F901F901F
:104780001895F999FECF72BD61BDF89A80B508956C
:10479000F999FECF1FBA72BD61BD40BD0FB6F89446
:1047A000FA9AF99A0FBE089581E08093FB04609312
:1047B000D8041092F9041092FA0408952091D704B5
:1047C00030E08091D604281B3109C9010895409139
:1047D000D6048091D704481718F02FEF3FEF0AC096
:1047E000E42FF0E0EA54FB4F8081282F30E04F5F48
:1047F0004093D604C9010895E091D6048091D7046E
:10480000E81718F0EFEFFFEF06C0F0E0EA54FB4FB7
:104810008081E82FF0E0CF01089508951092FF0401
:104820001092FE0488EE93E0A0E0B0E080930005D3
:1048300090930105A0930205B093030584E892E0EC
:104840009093FD048093FC040895CF92DF92EF9241
:10485000FF920F931F93CF93DF937C016B018A012B
:104860008091FB048823A1F0C0E0D0E00DC0D70107
:10487000ED91FC91D601AC0FBD1F0190F081E02DB0
:10488000C7016C9109952196C017D10780F304C028
:10489000CB01642F0E945725C801DF91CF911F9152
:1048A0000F91FF90EF90DF90CF900895DF93CF931B
:1048B0000F92CDB7DEB7FC0169838091FB0488239A
:1048C000C9F08091FA04803238F081E090E093835F
:1048D000828320E030E015C08091F904E82FF0E0F9
:1048E000E752FB4F998190838F5F8093F904809307
:1048F000FA0405C0CE01019661E00E94572521E02F
:1049000030E0C9010F90CF91DF9108950F93062FEA
:104910008091D80469ED74E04091FA0421E00E948E
:1049200002251092F9041092FA041092FB040F91E0
:10493000089561E00E9486240895413208F040E223
:10494000862F66EB74E00E94B9241092D6048093FF
:10495000D704089521E00E949D2408951092D60462
:104960001092D7041092F9041092FA040E940327BF
:104970000895382F413210F040E042C08091080580
:104980008823E1F791E09093080520930A058FEFC3
:1049900080937505109230054150409331054F5F6B
:1049A0009093090580910905330F832B80930905A6
:1049B00080910B05813041F410920B05809109051F
:1049C0008093BB0085EC01C085EE8093BC00809194
:1049D00008058130E1F380913005841710F440918F
:1049E000300520E030E00AC0FB01E20FF31FD901DF
:1049F000A05FBA4F8C9180832F5F3F4F2417A0F3A5
:104A0000842F08950F931F93582F122F413210F0C7
:104A100081E04AC0809108058823E1F782E0809315
:104A2000080500930A058FEF8093750510923005F5
:104A300040933105A0E1B5E0FB0102C081918D9367
:104A40008E2F861B8417D0F31092090580910905DB
:104A5000550F852B8093090580910B05813041F41A
:104A600010920B05809109058093BB0085EC01C075
:104A700085EE8093BC00112321F0809108058230DF
:104A8000E1F3809175058F3F11F480E00DC08091B6
:104A90007505803211F482E007C08091750580337E
:104AA00011F084E001C083E01F910F910895482F19
:104AB000613210F081E0089580910805843011F092
:104AC00082E0089560935305A2E3B5E0842F9C0132
:104AD000F90102C081918D938E2F841B8617D0F32C
:104AE00080E008951F920F920FB60F9211242F931A
:104AF0003F934F935F936F937F938F939F93AF9366
:104B0000BF93EF93FF938091B90090E0887F9070FE
:104B10008036910509F4F2C081369105CCF58832D2
:104B2000910509F47BC089329105B4F48031910577
:104B300009F46FC0813191053CF4009709F447C135
:104B4000089709F04FC165C08831910509F466C026
:104B5000809709F047C182C08034910509F4A4C050
:104B60008134910544F48033910509F482C0C897DB
:104B700009F038C189C08035910509F489C08835AC
:104B8000910509F496C08834910509F02BC1AEC097
:104B90008839910509F413C189399105ECF48837F6
:104BA000910509F4ABC0893791054CF4883691051D
:104BB00009F4A4C08037910509F014C19FC088385A
:104BC000910509F4FCC08039910509F49DC0803835
:104BD000910509F007C198C0803B910509F4C6C052
:104BE000813B91054CF4803A910509F49FC0883AC5
:104BF000910509F0F7C0BAC0803C910509F4E3C003
:104C0000883C910509F4DFC0883B910509F0EAC0B2
:104C1000C2C0809109058093BB00CFC09091300540
:104C200080913105981768F490913005E92FF0E0F4
:104C3000E05FFA4F80818093BB009F5F90933005C7
:104C4000BCC080910A05882309F44BC085ED809390
:104C5000BC008091BC0084FDFCCFC2C080E2809388
:104C6000750585ED8093BC008091BC0084FDFCCF70
:104C7000B7C080E38093750585ED8093BC0080917B
:104C8000BC0084FDFCCFACC088E3809375059BC05D
:104C9000809130059091BB00E82FF0E0E05FFA4F83
:104CA00090838F5F8093300590913005809131051E
:104CB00082C0809130059091BB00E82FF0E0E05F6A
:104CC000FA4F90838F5F8093300580910A05882387
:104CD00041F085ED8093BC008091BC0084FDFCCF49
:104CE0007FC081E080930B0584EA6EC085ED8093E0
:104CF000BC008091BC0084FDFCCF72C083E0809337
:104D000008051092740559C080917405803208F02E
:104D100056C0809174059091BB00E82FF0E0EC5AEA
:104D2000FA4F90838F5F8093740547C0809174051C
:104D3000803230F4E0917405F0E0EC5AFA4F1082C2
:104D400085ED8093BC008091BC0084FDFCCF109267
:104D5000080560917405E0910E05F0910F0584E55A
:104D600095E070E00995109274052DC084E0809361
:104D700008051092520510925305E0910C05F09130
:104D80000D05099580915305882329F481E08093CE
:104D900053051092320590915205E92FF0E0EE5C38
:104DA000FA4F80818093BB009F5F90935205909152
:104DB000520580915305981710F485EC01C085E8E1
:104DC0008093BC000FC085EC8093BC0009C010929A
:104DD000750585ED8093BC008091BC0084FDFCCFFF
:104DE00010920805FF91EF91BF91AF919F918F9124
:104DF0007F916F915F914F913F912F910F900FBED7
:104E00000F901F9018951092080581E080930A0575
:104E100010920B0582E161E00E94692B83E161E061
:104E20000E94692BE9EBF0E080818E7F8083808196
:104E30008D7F80838CE08093B80085E48093BC00F4
:104E400008950F931F93DC019B01433018F020E07D
:104E500030E045C04150642F70E084E190E0689FED
:104E6000F001699FF00D789FF00D1124EA0FFB1FF0
:104E700086A5882339F546A732A721A7B5A7A4A7F9
:104E8000442339F408E01DE05AE049E03BE02CE01F
:104E900008C0413031F402E017E054E043E035E06F
:104EA00026E084E190E0689FF001699FF00D789F13
:104EB000F00D1124EA0FFB1F03A316A354A345A36F
:104EC00037A320A784E190E0689F9001699F300D8F
:104ED000789F300D1124255E3F4F2A0F3B1FC901DB
:104EE0001F910F9108958D5B9F4F442319F440E06B
:104EF00050E002C040E050E120E030E00E94322962
:104F000008959A018D5B9F4F40E12030340728F0CF
:104F100040E050E120E030E002C040E050E00E947C
:104F2000322908950F931F93CF93DF93EC01042F41
:104F3000413041F49889892F86958695869580FF22
:104F40000AC012C0423069F49889892F86958695E7
:104F5000869580FF09C0613011F4905F08C09051C0
:104F600006C0433041F49889613019F4985F988BFA
:104F700048C09850FCCF443009F043C09889613054
:104F800011F49F5F01C09150988BA889AF73A88BD3
:104F9000A03148F4B0E0E3E6F2E0EA1BFB0B40810D
:104FA000AD5ABD4F19C08A2F8051803148F48A2FE5
:104FB00090E0FC01ED5BFD4F4081E3E7F2E01DC0B6
:104FC0008A2F8052803150F4B0E0E3E8F2E0EA1B2F
:104FD000FB0B4081AD5CBD4F1C9115C08A2F8053E7
:104FE000803118F010E040E00EC08A2F90E0FC0104
:104FF000ED5DFD4F4081E3E9F2E0E81BF90B108124
:1050000002C01FEF4FEF88898F73888B50E024E038
:10501000440F551F2A95E1F789899A8968850E946E
:105020008127412F50E094E0440F551F9A95E1F7F6
:1050300089899A896B850E94812798890430A1F417
:10504000903110F423E001C020E0892F805180319D
:1050500008F42660892F8052803108F42C60905328
:10506000903148F5296027C0892F869586958695C9
:105070008330C1F0843028F4813081F0823080F4B4
:1050800009C0853099F0853078F0863089F0873016
:1050900019F410C021E00FC020E00DC023E00BC0C8
:1050A00022E009C026E007C024E005C02CE003C0D0
:1050B00028E001C029E0122F89899A8920FF03C0C6
:1050C0006A8541E002C06A8540E00E9473278989B1
:1050D0009A8911FF03C06C8541E002C06C8540E0F5
:1050E0000E94732789899A8912FF03C0698541E06C
:1050F00002C0698540E00E94732789899A8913FF5D
:1051000003C06D8541E002C06D8540E00E947327B9
:105110008889DF91CF911F910F910895CF92DF92EF
:10512000EF92FF920F931F93CF93DF938C016B014C
:105130008CEF94E00E94AE24E801CD5BDF4FCE01FE
:105140000E94032AF801D282C182EE24FF24C70103
:10515000B6010E947536AB01BC01CE010E949529B3
:1051600000E0CE01602F40E050E020E030E00E94FF
:1051700032290F5F0031A9F7DF91CF911F910F9175
:10518000FF90EF90DF90CF900895DF92EF92FF9223
:105190000F931F93DF93CF930F92CDB7DEB77C01B0
:1051A000D62EFC01339680E090E0148213821582A3
:1051B0001282118210820696369688319105A9F7DF
:1051C000F70113A616A612A611A617AE82E490E068
:1051D000E80EF91EF70110828EEB9FEFE80EF91E24
:1051E000F70116AE15AE87010D5B1F4FC80160E4D5
:1051F0000E940D29F701D082CE0101966D2D0E94EB
:105200000D298981F80180830F90CF91DF911F9143
:105210000F91FF90EF90DF900895FC016083089557
:10522000EF92FF920F931F93FC01F62EE42E0CEFEA
:1052300014E0C80160810E94D423C8016F2D0E9430
:105240005624C8016E2D0E945624C8010E9499243C
:105250001F910F91FF90EF90089560E040E00E9451
:1052600010290895AF92BF92CF92DF92EF92FF92F2
:105270000F931F93FC01062FD42EC52EB22EA32E02
:105280009CEFE92E94E0F92EC70160810E94D4239F
:1052900010E0000F111F000F111F0A5F1F4FC70101
:1052A000602F0E945624C7016D2D0E945624C7010D
:1052B0006C2D0E945624C7016B2D0E945624C701F5
:1052C0006A2D0E945624C7010E9499241F910F91B4
:1052D000FF90EF90DF90CF90BF90AF900895DF9256
:1052E000EF92FF920F931F938C01D62E2CEFE22E9C
:1052F00024E0F22EC701F80160810E94D423C70187
:105300006D2D0E945624C7010E949924C701F801FF
:10531000608141E00E94AA24C7010E94E7231F91F7
:105320000F91FF90EF90DF900895AF92BF92CF92D0
:10533000DF92EF92FF920F931F935C019A01AB01F2
:1053400060E27CEB8EEB95E40E94DC3520E030E0FF
:1053500040E85FE30E9473357B018C0137E0C32E88
:1053600036E0D32EC60160EF71E00E94A32FC60184
:10537000B801A70122E030E00E948D30C801B701DA
:1053800020E030E040E05FE30E9474350E94B236D6
:105390000E9449367B018C01C60166E072E00E94E2
:1053A000A32FC6016E2D4AE050E00E94FF2EC501DA
:1053B00060E00E946F29D82E482F4F764061C501CA
:1053C00060E00E941029C5016EEF4E2D0E94102949
:1053D000C50160E04D2D0E94102965E070E080E07D
:1053E00090E00E948C2A81EAD82AC50160E04D2D08
:1053F0000E9410291F910F91FF90EF90DF90CF90A6
:10540000BF90AF9008950F931F938C018CEF94E0A1
:105410000E94AE24C8010E942D291F910F9108956A
:105420001F920F920FB60F9211242F933F938F93D9
:105430009F93AF93BF9380917A0590917B05A09144
:105440007C05B0917D0530917E050196A11DB11DB1
:10545000232F2D5F2D3720F02D570196A11DB11D53
:1054600020937E0580937A0590937B05A0937C051D
:10547000B0937D058091760590917705A091780590
:10548000B09179050196A11DB11D80937605909389
:105490007705A0937805B0937905BF91AF919F915F
:1054A0008F913F912F910F900FBE0F901F901895E5
:1054B0008FB7F89420917A0530917B0540917C0557
:1054C00050917D058FBFB901CA0108959FB7F89427
:1054D00020917605309177054091780550917905B6
:1054E00086B5A89B06C08F3F21F02F5F3F4F4F4FDF
:1054F0005F4F9FBF542F432F322F2227280F311D7C
:10550000411D511D82E0220F331F441F551F8A95F4
:10551000D1F7B901CA0108959B01AC017FB7F89496
:105520008091760590917705A0917805B0917905E5
:1055300066B5A89B05C06F3F19F00196A11DB11D6E
:105540007FBFBA2FA92F982F8827860F911DA11DE5
:10555000B11D62E0880F991FAA1FBB1F6A95D1F782
:10556000BC012DC0FFB7F894809176059091770526
:10557000A0917805B0917905E6B5A89B05C0EF3FED
:1055800019F00196A11DB11DFFBFBA2FA92F982FA9
:1055900088278E0F911DA11DB11DE2E0880F991F74
:1055A000AA1FBB1FEA95D1F7861B970B885E934015
:1055B000C8F2215030404040504068517C4F211586
:1055C00031054105510571F60895019739F0880FAD
:1055D000991F880F991F02970197F1F70895789402
:1055E00084B5826084BD84B5816084BD85B58260E8
:1055F00085BD85B5816085BDEEE6F0E08081816086
:105600008083E1E8F0E01082808182608083808185
:1056100081608083E0E8F0E0808181608083E1EB5D
:10562000F0E0808184608083E0EBF0E08081816045
:105630008083EAE7F0E080818460808380818260FB
:1056400080838081816080838081806880831092E4
:10565000C1000895CF93DF93482F50E0CA018A51CB
:105660009D4FFC0134914E525D4FFA018491882385
:1056700069F190E0880F991FFC01EC54FD4FA59152
:10568000B491FC01E254FD4FC591D491662351F4CD
:105690002FB7F8948C91932F909589238C938881C0
:1056A00089230BC0623061F42FB7F8948C91932F4B
:1056B000909589238C938881832B88832FBF06C084
:1056C0009FB7F8948C91832B8C939FBFDF91CF91E0
:1056D0000895482F50E0CA0186509D4FFC01249147
:1056E000CA018A519D4FFC0194914E525D4FFA01BF
:1056F0003491332309F440C0222351F1233071F057
:10570000243028F42130A1F0223011F514C02630C5
:10571000B1F02730C1F02430D9F404C0809180006A
:105720008F7703C0809180008F7D8093800010C0B0
:1057300084B58F7702C084B58F7D84BD09C0809108
:10574000B0008F7703C08091B0008F7D8093B00050
:10575000E32FF0E0EE0FFF1FE254FD4FA591B4914F
:105760002FB7F894662321F48C919095892302C079
:105770008C91892B8C932FBF089508951F920F92BF
:105780000FB60F9211242F933F934F938F939F93B4
:10579000EF93FF938091C00082FD1DC04091C60031
:1057A0002091BF053091C0052F5F3F4F2F733070A0
:1057B0008091C1059091C2052817390771F0E091D9
:1057C000BF05F091C005E158FA4F40833093C00502
:1057D0002093BF0502C08091C600FF91EF919F9179
:1057E0008F914F913F912F910F900FBE0F901F906F
:1057F0001895E0911306F0911406E05CFF4F81913B
:10580000919120813181821B930B8F739070892B32
:1058100011F00E94BD2B08951F920F920FB60F92A8
:1058200011242F933F938F939F93EF93FF93209196
:10583000030630910406809105069091060628170C
:10584000390731F48091C1008F7D8093C10014C06D
:10585000E0910506F0910606ED53FA4F2081809104
:1058600005069091060601968F7390709093060638
:10587000809305062093C600FF91EF919F918F9131
:105880003F912F910F900FBE0F901F901895AF92E0
:10589000BF92DF92EF92FF920F931F93CF93DF930C
:1058A000EC017A018B01DD24403081EE580780E065
:1058B000680780E0780711F0DD24D39491E0A92EE9
:1058C000B12CEC89FD89DD2069F0C50108A002C07A
:1058D000880F991F0A94E2F7808360E079E08DE3F6
:1058E00090E005C0108260E874E88EE190E0A801C5
:1058F00097010E947A3821503040404050405695E0
:1059000047953795279580E12030380720F0DD2036
:1059100011F0DD24D6CFE889F9893083EA89FB8943
:10592000208319A2EE89FF89408121E030E0C9017E
:105930000C8C02C0880F991F0A94E2F7482B408311
:10594000EE89FF894081C9010D8C02C0880F991F23
:105950000A94E2F7482B4083EE89FF894081C90110
:105960000E8C02C0880F991F0A94E2F7482B4083DF
:10597000EE89FF8980810F8C02C0220F331F0A94A9
:10598000E2F7209528232083DF91CF911F910F917B
:10599000FF90EF90DF90BF90AF900895DC011C96D0
:1059A000ED91FC911D97E05CFF4F21913191808139
:1059B0009181281B390B2F733070C9010895DC01C8
:1059C0001C96ED91FC911D97E05CFF4F2081318189
:1059D000E054F040DF01AE5BBF4F8D919C91119779
:1059E0002817390719F42FEF3FEF07C08D919C91CD
:1059F000E80FF91F8081282F30E0C9010895DC01EC
:105A00001C96ED91FC911D97E05CFF4F2081318148
:105A1000E054F040DF01AE5BBF4F8D919C91119738
:105A20002817390719F42FEF3FEF10C08D919C9183
:105A30001197E80FF91F20818D919C911197019684
:105A40008F73907011969C938E9330E0C9010895E6
:105A5000DC0191968C919197882339F05496ED91C1
:105A6000FC915597808186FFF9CF91961C920895FD
:105A7000CF93DF93EC01EE85FF85E05CFF4F208143
:105A80003181E054F0402F5F3F4F2F733070DF01C2
:105A9000AE5BBF4F8D919C91119728173907D1F3B9
:105AA000E05CFF4F80819181E054F040E80FF91FE6
:105AB0006083EE85FF85E05CFF4F31832083EE89B4
:105AC000FF89208181E090E00F8C02C0880F991F30
:105AD0000A94E2F7282B208381E089A3EC89FD89D1
