:100000000C94E1010C9409020C9409020C9409026D
:100010000C9409020C9409020C9409020C94090234
:100020000C9409020C9409020C9409020C948C257E
:100030000C9409020C9409020C9409020C94090214
:100040000C94992C0C9409020C94472E0C94952E28
:100050000C9409020C9409020C9409020C940902F4
:100060000C94FB270C9409026D61784C656E6774E3
:10007000683A20004669727374207761766520685B
:10008000616C66004D53472C492C596F7520707276
:100090006F6261626C7920776F6E27742067657478
:1000A00020616E792064657461696C20696E2074CA
:1000B0006869732E0020697320002C20726F7753BB
:1000C000697A653A20004D53472C492C4D617820C0
:1000D00064656E7369747920666F722070656E5303
:1000E000697A653A20004D53475F494E464F5F534A
:1000F0005452506F776572696E6720646F776E2E09
:10010000004D53475F4552524F525F5354524C6912
:100110006E65206973206E6F74206F6E2074686541
:1001200020706167652E20536B697070696E67205F
:1001300069742E004D53475F455F535452546869AC
:100140007320706F696E742066616C6C73206F75BC
:100150007473696465207468652061726561206FDD
:10016000662074686973206D616368696E652E200E
:10017000536B697070696E672069742E006D6D0035
:100180004368616E6765642050656E2077696474AA
:100190006820746F20004E657720616363656C3A58
:1001A00020004E6577206D61782073706565643A34
:1001B000200055703A2000446F776E3A2000504777
:1001C00053504545442C0050474C4946542C005050
:1001D00047535445504D554C5449504C4945522C69
:1001E00000504753544550535045525245562C00E9
:1001F00050474D4D5045525245562C00504753499B
:100200005A452C0029007061676548656967687404
:1002100020696E20737465707320280052656361D5
:100220006C6320002900526563616C632070616714
:1002300065576964746820696E20737465707320F3
:1002400028002900292C2073746570735065724D45
:100250004D202800526563616C63206D6D5065729E
:10026000537465702028004C6F616465642073745A
:100270006570206D756C7469706C6965723A004CBC
:100280006F6164656420757020706F733A004C6F05
:100290006164656420646F776E20706F733A004C00
:1002A0006F6164656420737465707320706572207B
:1002B0007265763A004C6F61646564206D6D5065BF
:1002C000725265763A004C6F6164656420686569B6
:1002D0006768743A004C6F61646564207769647480
:1002E000683A00206E6F74207265636F676E697381
:1002F00065642E004D53472C452C00524553454E06
:10030000440044524157494E470052454144590028
:1003100029206E6F74207061727365642E00436FC4
:100320006D6D20280000000000240027002A000036
:10033000000000250028002B0000000000230026FC
:10034000002900040404040404040402020202025A
:100350000203030303030301020408102040800189
:100360000204081020010204081020000000070009
:100370000201000003040600000000000000004924
:100380004E46494E4954594E414ECDCCCC3D0AD7EC
:10039000233C17B7D13877CC2B329595E6241FB183
:1003A0004F0A000020410000C84200401C4620BC0B
:1003B000BE4CCA1B0E5AAEC59D746307972601300A
:1003C0005C0711241FBECFEFD8E0DEBFCDBF12E027
:1003D000A0E0B1E0E6E1F5E702C005900D92A2339E
:1003E000B107D9F715E0A2E3B2E001C01D92A93C24
:1003F000B107E1F713E0C0ECD3E004C02297FE019F
:100400000E94383ACA3BD107C9F70E9457300C9472
:100410007E3A0C940000A0E0B0E0E1E1F2E00C9440
:100420004F3AEC01A880B980CA80DB80A114B104E6
:10043000C104D10441F484E2A82E89EDB82E8BE5E5
:10044000C82E87E0D82EC601B5012DE133EF41E07B
:1004500050E00E94073A27EA31E440E050E00E9471
:10046000A7397B018C01C601B5012DE133EF41E0D5
:1004700050E00E94073ACA01B9012CEE34EF4FEF69
:100480005FEF0E94A7396E0D7F1D801F911F97FFA0
:1004900004C06150704080409048688379838A83AB
:1004A0009B839B01AC015F77B901CA01CDB7DEB771
:1004B000EAE00C946B3A0E940B02089586EA91E000
:1004C0000E940B0208956093A6017093A701809388
:1004D000A8019093A9010895662777270C944A03F1
:1004E000FC0188279927E89421912032E9F32930EB
:1004F00010F02E30C8F32B3241F02D3239F46894CD
:1005000004C00E944203820F911D219120532A3082
:10051000C0F31EF4909581959F4F08951F93FC01A1
:1005200099278827BC01E89411911032E9F319301A
:1005300010F01E30C8F31B3251F01D3249F468949C
:1005400006C00E942D03610F711D811D911D119127
:1005500010531A30B0F33EF49095809570956195E4
:100560007F4F8F4F9F4F1F91089542E352E00E94AB
:10057000FB020895FB01DC0102C001900D92415085
:100580005040D8F70895FB01DC018D91019080194E
:100590000110D9F3990B0895FB01DC0101900D9234
:1005A0000020E1F70895FB01DC014150504030F09C
:1005B0008D910190801919F40020B9F7881B990BCF
:1005C0000895FB0151915523A9F0BF01DC014D9124
:1005D00045174111E1F759F4CD010190002049F090
:1005E0004D9140154111C9F3FB014111EFCF81E05D
:1005F00090E001970895009731F4DA018D919C9174
:10060000009709F40EC0DC01FB013D9121912223EA
:1006100019F03217C9F3FACF332331F4DA011D92FE
:100620001C928827992708951197AF93BF93FB01D8
:100630003D912191321771F4332321F488279927B2
:10064000119702C01E921196FA01A193B0839F9157
:100650008F910895222369F7EACF592F482F372F1A
:10066000262F660F771F881F991F660F771F881F19
:10067000991F620F731F841F951F660F771F881FB6
:10068000991F08957AE0979F902D879F802D910D57
:1006900011240895A0E0B0E0E0E5F3E00C944D3AB9
:1006A000EC015B016115710519F0FB0191838083F9
:1006B000F9908F2D90E00E943C3A892BC9F7FDE21A
:1006C000FF1621F4F990EE24E39405C02BE2F21614
:1006D00009F4F990EE248E0101501040C8016FE733
:1006E00073E043E050E00E94AA04892B01F58E01DB
:1006F0000E5F1F4FC80162E873E045E050E00E94C2
:10070000AA04892B19F48E01095F1F4FA114B104AB
:1007100019F0F50111830083E0FC04C070E090E063
:1007200080E814C070E090E080E86FEF08C1C80175
:1007300067E873E043E050E00E94AA04892B69F463
:10074000A114B10429F470E090E080EC6FE7F7C0E9
:100750002296F501D183C083F6CF8824992440E006
:1007600050E060E070E0EF2DE053EA30A0F5F2E0F9
:10077000EF2A8E2D90E09C0128703070E2FE06C0BA
:10078000232B79F50894811C911C2BC0232B19F085
:10079000089481089108DB01CA0112E0880F991FB3
:1007A000AA1FBB1F1A95D1F7480F591F6A1F7B1F3D
:1007B000440F551F661F771F4E0F511D611D711D80
:1007C000483929E9520729E9620729E1720748F007
:1007D00084E0E82A06C0EE3F31F4E3FC39C098E03B
:1007E000E92AF990C0CFE53311F0E53189F5299177
:1007F0002D3219F4E0E1EE2A05C02B3219F081E028
:1008000090E003C0299182E090E0E22FE053EA30CB
:1008100018F0C81BD90B1CC020E030E0FCE02038E9
:100820003F075CF4C901880F991F880F991F280F93
:10083000391F220F331F2E0F311DE991E053EA308B
:1008400068F3E4FE03C0309521953F4F820E931E5E
:10085000CE2CDD24E1FE07C0A114B10421F02197C4
:10086000F501D183C083CB01BA010E94E0377B013F
:100870008C01F3E0CF22DD2423E0C216D10421F461
:1008800017FB109517F9109557016801C801B701BA
:1008900020E030E040E050E00E944337882309F434
:1008A0004AC097FE0DC02EE9E22E23E0F22E90946E
:1008B000819491089394C0E2D0E000E010E012C06F
:1008C00096EBE92E93E0F92EF6CFF70125913591BD
:1008D00045915491C601B5010E94EB385B016C0152
:1008E0008C1A9D0A8C169D0684F7D595C7950F5FC7
:1008F0001F4F0630110529F08CEF9FEFE80EF91E0F
:10090000F1CFC501D6017C018D018C2D880F8D2D75
:10091000881F8F3F51F0C601B50120E030E040E074
:1009200050E00E944337882331F482E290E09093B4
:10093000C8058093C7057E2D9F2D802F612F272FFF
:10094000392F482F562FB901CA01CDB7DEB7ECE0D9
:100950000C94693AFB01DC014150504088F08D91C4
:1009600081341CF08B350CF4805E659161341CF091
:100970006B350CF4605E861B611171F3990B089561
:10098000881BFCCFAF92BF92CF92DF92EF92FF9283
:100990000F931F936E157F058007910734F42E1572
:1009A0003F054007510764F42CC0E616F706080718
:1009B000190794F4A216B306C406D5063CF423C066
:1009C000A216B306C406D506BCF41FC02A153B0503
:1009D0004C055D05C4F41BC06E157F0580079107AB
:1009E00091F42A153B054C055D058CF0A216B30663
:1009F000C406D50644F409C02A153B054C055D051F
:100A000011F484E005C082E003C083E001C081E00E
:100A10001F910F91FF90EF90DF90CF90BF90AF901C
:100A200008956F927F928F929F92AF92BF92CF92D2
:100A3000DF92EF92FF920F931F93CF93DF937C018E
:100A40005B01662757FD6095762FCB01BA010E94A6
:100A5000E2373B014C010027F7FC0095102FC8013D
:100A6000B7010E94E2377B018C01CC24B7FCC09413
:100A7000DC2CC601B5010E94E2379B01AC01C80124
:100A8000B7010E944737A40193010E94EB389B01F4
:100A9000AC01C401B3010E94DE367B018C010E94CF
:100AA000AF37EB01BE01882777FD8095982F0E9414
:100AB000E2379B01AC01C801B7010E94DE3620E09D
:100AC00030E040E05FE30E94E73818160CF421960E
:100AD000CE01DF91CF911F910F91FF90EF90DF90AA
:100AE000CF90BF90AF909F908F907F906F90089520
:100AF0002F923F924F925F926F927F928F929F922E
:100B0000AF92BF92CF92DF92EF92FF920F931F931B
:100B10001B012C0139014A01609140027091410290
:100B200080914202909143020E94E2377B018C0146
:100B3000A80197010E94EB385B016C01C401B3016D
:100B4000A40193010E94EB389B01AC01C601B501E1
:100B50000E94DE365B016C01C201B101A20191016C
:100B60000E94EB389B01AC01C601B5010E94DF3643
:100B70005B016C01C801B701A80197010E94DF3633
:100B80009B01AC01C601B5010E9447371F910F912F
:100B9000FF90EF90DF90CF90BF90AF909F908F909D
:100BA0007F906F905F904F903F902F900895AF92FD
:100BB000BF92CF92DF92EF92FF920F931F938130FB
:100BC000910509F019C16F5F7F4F09F06CC18BE58A
:100BD00093E060E071E00E94A83484E392E00E9418
:100BE0001524A090AC01B090AD01C090AE01D090A2
:100BF000AF016091B00170E080E090E02091AA0127
:100C00003091AB01442737FD4095542F0E94A739FE
:100C10000E94E2377B018C01C601B501A801970152
:100C20000E944737609338027093390280933A02EA
:100C300090933B02C801B701A60195010E94473776
:100C40007B018C0160933C0270933D0280933E02D5
:100C500090933F026091C4017091C501882777FD90
:100C60008095982F0E94E237A80197010E94EB38E7
:100C70000E94AF376093400270934102809342021A
:100C8000909343026091C6017091C701882777FD58
:100C90008095982F0E94E237A80197010E94EB38B7
:100CA0000E94AF37609344027093450280934602DE
:100CB0009093470282E693E065E071E00E94A834D9
:100CC00089E693E069E071E00E94A83480E793E050
:100CD0006DE071E00E94A83487E793E061E171E084
:100CE0000E94A8348EE793E065E171E00E94A83489
:100CF00085E893E069E171E00E94A8348CE893E014
:100D00006DE171E00E94A83483E993E061E271E053
:100D10000E94A8348AE993E065E271E00E94A83459
:100D200081EA93E069E271E00E94A83488EA93E0E6
:100D30006DE271E00E94A8348FEA93E061E371E014
:100D40000E94A83486EB93E065E371E00E94A8342A
:100D50008DEB93E069E371E00E94A83484EC93E0AA
:100D60006DE371E00E94A8348BEC93E061E471E0E4
:100D70000E94A83482ED93E065E471E00E94A834FB
:100D800089ED93E069E471E00E94A83480EE93E07D
:100D90006DE471E00E94A8348BE892E060E60E9466
:100DA0004E2B6091AA017091AB018BE892E041E07B
:100DB0000E94AA299093D0028093CF026091AA0149
:100DC0007091AB018BE892E042E00E94AA299093D7
:100DD000D2028093D10283ED92E064E57BE14BE4A3
:100DE0005BE10E94581F87E193E062E47BE149E305
:100DF0005BE10E94581F57C0892B09F054C06F5FF8
:100E00007F4F09F050C080EE93E00E94C23489ED1C
:100E100093E00E94C23482ED93E00E94C2348BECD6
:100E200093E00E94C23484EC93E00E94C2348DEBC4
:100E300093E00E94C23486EB93E00E94C2348FEAB2
:100E400093E00E94C23488EA93E00E94C23481EAAF
:100E500093E00E94C2348AE993E00E94C23483E99D
:100E600093E00E94C2348CE893E00E94C23485E88B
:100E700093E00E94C2348EE793E00E94C23487E779
:100E800093E00E94C23480E793E00E94C23489E676
:100E900093E00E94C23482E693E00E94C2348BE564
:100EA00093E00E94C2341F910F91FF90EF90DF906A
:100EB000CF90BF90AF90089580E090E06FEF7FEF0C
:100EC0000E94D705089581E090E06FEF7FEF0E94C8
:100ED000D7050895AF92BF92CF92DF92EF92FF9223
:100EE0000F931F937B018C01CA01B9010E94EB385B
:100EF0005B016C01C801B701A80197010E94EB38A2
:100F00009B01AC01C601B5010E94DE360E94523938
:100F10001F910F91FF90EF90DF90CF90BF90AF9017
:100F20000895AF92BF92CF92DF92EF92FF920F930C
:100F30001F937B018C0159016A01609140027091FD
:100F4000410280914202909143020E94E237A8013F
:100F500097010E94DE369B01AC010E94EB387B01B9
:100F60008C01C601B501A60195010E94EB389B01D9
:100F7000AC01C801B7010E94DF360E9452391F91AF
:100F80000F91FF90EF90DF90CF90BF90AF900895BA
:100F9000AF92BF92CF92DF92EF92FF920F931F9387
:100FA0007B018C0159016A01A80197010E94EB386D
:100FB0007B018C01C601B501A60195010E94EB38A9
:100FC0009B01AC01C801B7010E94DF360E94523973
:100FD0001F910F91FF90EF90DF90CF90BF90AF9057
:100FE00008952F923F924F925F926F927F928F92CD
:100FF0009F92AF92BF92CF92DF92EF92FF920F93A8
:101000001F93DF93CF9300D000D0CDB7DEB76983B5
:101010007A838B839C8359016A011701280161152A
:1010200071058105910559F40F2EF0E0EF2EF0E0E7
:10103000FF2EF0E00F2FF0E01F2FF02DA4C0CA010B
:10104000B9010E94EB387B018C01C601B50120E09B
:1010500030E040E050E00E944337882324F417FB3F
:10106000109517F91095C201B101A20191010E94DA
:10107000DF363B014C01C801B701A40193010E9476
:1010800047377B018C0169817A818B819C810E9429
:10109000E2379B01AC01C801B7010E9443378823A6
:1010A000B4F5C601B50120E030E040E050E00E9418
:1010B0004337882329F4C401B3010E9452390DC07B
:1010C000C201B101A60195010E9447379B01AC0105
:1010D0005F77C601B5010E94DF367B018C01D0909D
:1010E000B101C090B201B090B301A090B4012D2D18
:1010F0003C2D4B2D5A2D0E94E73818160CF043C09A
:101100008D2D9C2DAB2DBA2D7C018D013CC0C601CF
:10111000B50120E030E040E050E00E9443378823F2
:1011200059F4C401B3010E9452397B018C0117FBB1
:10113000109517F910950FC0C201B101A6019501D4
:101140000E9447379B01AC015F77C601B5010E9441
:10115000DE367B018C018091B1019091B201A091AA
:10116000B301B091B4015C016D01D7FAD094D7F806
:10117000D094C801B701A60195010E944337882386
:1011800014F486017501B701C8010F900F900F90FC
:101190000F90CF91DF911F910F91FF90EF90DF9013
:1011A000CF90BF90AF909F908F907F906F905F9007
:1011B0004F903F902F9008958091BC018823C1F1FA
:1011C00081EA95E061E571E00E942C3283ED92E0C6
:1011D0000E94B21D2091B00130E040E050E00E943A
:1011E000073A81EA95E0BA01A9012AE030E00E94BD
:1011F000A63181EA95E065EF71E00E942C3287E12B
:1012000093E00E94B21D2091B00130E040E050E038
:101210000E94073A81EA95E0BA01A9012AE030E08C
:101220000E94A63181EA95E067EF71E00E942933C0
:101230000895EF92FF920F931F938091480290912F
:101240004902A0914A02B0914B020097A105B10555
:1012500009F040C0609140027091410280914202C9
:10126000909143020E94E2377B018C01609144021D
:101270007091450280914602909147020E94E237A8
:101280009B01AC01C801B7010E94C80720E030E013
:1012900040E05FE30E94DF360E94AF376093480270
:1012A0007093490280934A0290934B0281EA95E041
:1012B00068E670E00E9490304091480250914902E7
:1012C00060914A0270914B0281EA95E02AE030E099
:1012D0000E94E631609148027091490280914A0271
:1012E00090914B021F910F91FF90EF90089587EE20
:1012F00093E00E9470028093C80185EF93E00E9402
:1013000070029093CF018093CE01089581EA95E019
:101310006AE073E00E94D33008950F931F9387EE25
:1013200093E00E946C026093C9017093CA0180939C
:10133000CB019093CC0101EA15E0C80160E871E0AF
:101340000E9490304091C9015091CA016091CB0137
:101350007091CC01C80122E030E00E941333C80133
:101360006DE771E00E94D3301F910F910895AF9205
:10137000BF92CF92DF92EF92FF920F931F93CF9382
:10138000DF935B016C01EA01BA01882777FD809544
:10139000982F0E94E2372091380230913902409113
:1013A0003A0250913B020E94EB38A60195010E943F
:1013B00047377B018C0120E030E040E050E40E94A0
:1013C000E73887FF03C001E010E008C0C801B7019B
:1013D0000E94AF378B016330710574F581EA95E0A7
:1013E00066EC70E00E94903081EA95E0B601A501BC
:1013F00022E030E00E94133381EA95E06AEB70E06E
:101400000E94903081EA95E0BE014AE050E00E94DF
:10141000FA3181EA95E065EB70E00E94903081EA54
:1014200095E0B8014AE050E00E940D3281EA95E073
:1014300064E870E00E94D330C801DF91CF911F9122
:101440000F91FF90EF90DF90CF90BF90AF900895F5
:10145000AF92BF92CF92DF92EF92FF920F931F93C2
:10146000CF93DF93EC015B016A0184E392E069E0D2
:1014700070E00E948525CA15DB059CF476010027E3
:10148000F7FC0095102F84E392E0BE010E949E2499
:10149000C801B7010E94152D2196AC16BD069CF718
:1014A00012C076010027F7FC0095102F84E392E02C
:1014B000BE010E949E24C801B7010E94152D2197EC
:1014C000CA15DB059CF784E392E00E942F24DF918C
:1014D000CF911F910F91FF90EF90DF90CF90BF9031
:1014E000AF900895CF93DF9380914C029091370293
:1014F0008230B0F0992329F0C091D001D091D10170
:1015000004C0C091D201D091D30187EE93E00E9434
:101510007002BC019093D3018093D201CE010AC026
:10152000913061F46091D2017091D3018091D0012A
:101530009091D10143E050E00E94280A10923702B6
:10154000DF91CF910895CF93DF9380914C029091DA
:1015500037028230B0F0992329F0C091D001D091A8
:10156000D10104C0C091D201D091D30187EE93E0A4
:101570000E947002BC019093D1018093D001CE01F2
:101580000AC0992361F46091D0017091D1018091DA
:10159000D2019091D30143E050E00E94280A81E0FB
:1015A00080933702DF91CF91089583ED92E00E94FE
:1015B000402287E193E00E9440220E94A30A1092F9
:1015C00086020895EF92FF920F931F930E94E12CE1
:1015D0009B01AC01E0908102F090820200918302B5
:1015E00010918402809185028823E9F0809186021F
:1015F0008823C9F02E193F09400B510B8091C0017F
:101600009091C101A091C201B091C30182179307CB
:10161000A407B50744F481EA95E066EE70E00E9405
:10162000D3300E94D50A1F910F91FF90EF9008953B
:10163000CF93DF93EC01AB01662757FD6095762FC2
:101640000E94491F09C00E94E20A8091BD018823BF
:1016500019F0CE010E94D923CE010E94A21D61156E
:1016600071058105910579F70E94E12C6093810253
:10167000709382028093830290938402DF91CF91D2
:1016800008958F929F92AF92BF92CF92DF92EF9286
:10169000FF920F931F93CF93DF935C016B01EA01DD
:1016A0004901E114F104C9F481EA95E064E770E0CE
:1016B0000E94D3308091CD01882331F0CE0162E0C9
:1016C00070E00E94D2392BC0CE0162E070E00E942F
:1016D000D239709561957F4F22C08091CD01E0167F
:1016E000F106A1F4882331F0CA0162E070E00E94A3
:1016F000D23908C0CA0162E070E00E94D239709508
:1017000061957F4FC6010E94180B1AC0882319F0FB
:10171000CB01BA0105C066277727641B750BC6018C
:101720000E94180BC501B4010E94180B8091CD01D5
:10173000882319F01092CD0103C081E08093CD0180
:10174000DF91CF911F910F91FF90EF90DF90CF909D
:10175000BF90AF909F908F9008953F924F925F926D
:101760006F927F928F929F92AF92BF92CF92DF92B1
:10177000EF92FF920F931F93DF93CF93CDB7DEB716
:1017800028970FB6F894DEBF0FBECDBFFC012B012A
:101790004A01322E141615060CF08DC0BA010E94B3
:1017A000D2393B01CF01B4010E94D239AA2797FD5B
:1017B000A095BA2FBC01CD010E94E2377B018C01BC
:1017C000B401882777FD8095982F0E94E2379B010E
:1017D000AC01C801B7010E94473769837A838B83C4
:1017E0009C830F2EF0E0AF2EF0E0BF2EF0E0CF2E66
:1017F000F0E0DF2EF02D18861F82C30101969E8334
:101800008D83C601B50129813A814B815C810E949B
:10181000DF365B016C0120E030E040E85FE30E94CE
:10182000E73887FF02C0F3010CC0C601B50120E014
:1018300030E040E85FE30E94DE365B016C01ED8141
:10184000FE8192E0391629F483ED92E067E173E0BE
:1018500007C0A3E03A1639F487E193E063ED72E044
:10186000A2019F0118C0B4E03B1649F42227332798
:101870002E1B3F0B83ED92E067E173E00BC081E02C
:10188000381671F4222733272E1B3F0B87E193E094
:1018900063ED72E0A2018401EF80F8840E94410BA5
:1018A0000E94DC08AF81B8851196B887AF838A168D
:1018B0009B060CF0A6CF28960FB6F894DEBF0FBE9D
:1018C000CDBFCF91DF911F910F91FF90EF90DF90EF
:1018D000CF90BF90AF909F908F907F906F905F90D0
:1018E0004F903F9008953F924F925F926F927F92F8
:1018F0008F929F92AF92BF92CF92DF92EF92FF9220
:101900000F931F93DF93CF9300D000D000D0CDB7BB
:10191000DEB787EE93E00E947002E090B001FF24F2
:1019200000E010E09C01442737FD4095542FC8018A
:10193000B7010E94A7397E836D8385EF93E00E94F3
:101940006C02162F072FF82EE92E83E094E00E94F8
:101950006C022B013C0181E194E00E946C024B017E
:101960005C013090C80182E08093C8018091C90178
:101970009091CA01A091CB01B091CC0189839A8347
:10198000AB83BC83212F302F4F2D5E2DC901DA018F
:101990007C018D01CC24DD2420C00894C11CD11C05
:1019A000E092C901F092CA010093CB011093CC01DF
:1019B000C801B7014D815E810E94B709AC018D81DC
:1019C0009E81BC0122E00E94AD0BC801B701A501B8
:1019D00094010E94DF367B018C01C801B701A3018D
:1019E00092010E9443371816C4F689819A81AB810F
:1019F000BC818093C9019093CA01A093CB01B0939D
:101A0000CC01ED80FE80F094E194F108F39487E13D
:101A100093E0B7010E94180B8D819E8162E070E017
:101A20000E94D239709561957F4F4B018D819E81C7
:101A300062E070E00E94D2395B0101E010E011C069
:101A400087E193E0B4010E94180B83ED92E0B701A7
:101A50000E94180B87E193E0B5010E94180B0F5FFD
:101A60001F4FC016D10664F789819A81AB81BC8172
:101A70008093C9019093CA01A093CB01B093CC018C
:101A80003092C80126960FB6F894DEBF0FBECDBFC8
:101A9000CF91DF911F910F91FF90EF90DF90CF904A
:101AA000BF90AF909F908F907F906F905F904F907E
:101AB0003F9008952F923F924F925F926F927F9244
:101AC0008F929F92AF92BF92CF92DF92EF92FF924E
:101AD0000F931F937B018C0159016A010E94E12C35
:101AE00060938102709382028093830290938402B8
:101AF00083ED92E00E949A201B012C0187E193E084
:101B00000E949A203B014C0183ED92E040E050E0BE
:101B100060E070E00E94152087E193E040E050E033
:101B200060E070E00E941520C801B7010E94E23712
:101B30000E94AF37AB01BC0183ED92E00E94371FDA
:101B4000C601B5010E94E2370E94AF37AB01BC016C
:101B500087E193E00E94371F8091B901882309F043
:101B600042C083ED92E00E949A2020E030E040E005
:101B700050E00E944337882324F457FA509457F8D2
:101B8000509487E193E00E949A2020E030E040E00A
:101B900050E00E944337882324F497FA909497F8F2
:101BA000909483ED92E0B201A1010E94152087E19B
:101BB00093E0B401A3010E94152015C08091B901E2
:101BC000882349F083ED92E00E94D92387E193E0D6
:101BD0000E94D92308C083ED92E00E94B52387E1DB
:101BE00093E00E94B52383ED92E00E94A21D61154F
:101BF00071058105910549F487E193E00E94A21DDA
:101C0000611571058105910539F00E94E20A809104
:101C1000BD01882341F3D2CF0E94DC081F910F91B0
:101C2000FF90EF90DF90CF90BF90AF909F908F90FC
:101C30007F906F905F904F903F902F9008952F92DC
:101C40003F924F925F926F927F928F929F92AF924C
:101C5000BF92CF92DF92EF92FF920F931F93DF9389
:101C6000CF9300D000D0CDB7DEB73B014C01590176
:101C70006A01FA82E982C80162E070E00E94D2390A
:101C8000882777FD8095982F661A770A880A990A1F
:101C9000A61AB70AC80AD90A1C821B821801442452
:101CA00037FC4094542C2EC060E070E080E090E05F
:101CB000A20191010E94DA337B018C0160E070E0A7
:101CC00080E090E0A20191010E94DA339B01AC0117
:101CD0000027F7FC0095102FE60CF71C081D191DB6
:101CE000442737FD4095542F2A0D3B1D4C1D5D1D8B
:101CF000C801B7010E945A0D2B813C812F5F3F4FD5
:101D00003C832B838B819C81E981FA81E817F90759
:101D10005CF60F900F900F900F90CF91DF911F9175
:101D20000F91FF90EF90DF90CF90BF90AF909F907A
:101D30008F907F906F905F904F903F902F9008957D
:101D40002F923F924F925F926F927F928F929F92CB
:101D5000AF92BF92CF92DF92EF92FF920F931F93B9
:101D6000DF93CF93CDB7DEB72C970FB6F894DEBFD5
:101D70000FBECDBF87EE93E00E948E026D837E83FF
:101D80008F839887A090B001BB24CC24DD2485EFFD
:101D900093E00E948E0269837A838B839C8383E025
:101DA00094E00E947002AA2797FDA095BA2FBC016B
:101DB000CD01A60195010E94A7397B018C013B0151
:101DC00081E194E00E9470022C016091C901709140
:101DD000CA018091CB019091CC01A7010E94B70963
:101DE000AC01C2016FEF70E00E9411057C01C601D9
:101DF000B5012D813E814F8158850E94A7396987A1
:101E00007A878B879C87C601B50129813A814B81EE
:101E10005C810E94A7391B012C01882477FC8094E7
:101E2000982CC401B3010E94E2372DEC3CEC4CE845
:101E30005FE30E94EB380E94AF375B016C0169855C
:101E40007A858B859C85A201910185010E941F0ED8
:101E50002C960FB6F894DEBF0FBECDBFCF91DF91A9
:101E60001F910F91FF90EF90DF90CF90BF90AF90B8
:101E70009F908F907F906F905F904F903F902F90AA
:101E800008952F923F924F925F926F927F928F921E
:101E90009F92AF92BF92CF92DF92EF92FF920F93F9
:101EA0001F93DF93CF93CDB7DEB72A970FB6F89481
:101EB000DEBF0FBECDBF87EE93E00E948E029B0176
:101EC000AC01E090B001FF2400E010E0C801B701D0
:101ED0000E94A7396D837E838F83988785EF93E077
:101EE0000E948E029B01AC01C801B7010E94A73974
:101EF0001B012C0183E094E00E947002AA2797FD49
:101F0000A095BA2FBC01CD01A80197010E94A73965
:101F10007B018C017C836B8381E194E00E947002E1
:101F20009A838983C70162E070E00E94D2394B0135
:101F3000CB01880F991F3701681A790A8091C8016F
:101F40008130C1F483ED92E00E94B21D7B018C01CF
:101F500087E193E00E94B21D5B016C016D817E817F
:101F60008F819885A20191010E94C2048093CE01C5
:101F70001092CF012091CE013091CF012230310556
:101F8000F9F49401442737FD4095542FED80FE80ED
:101F90000F811885E21AF30A040B150BC301AA2757
:101FA00097FDA095BA2FE80EF91E0A1F1B1F6D8022
:101FB0007E808F809884620E731E841E951E3DC0A5
:101FC00023303105C9F49401442737FD4095542F3F
:101FD00062015101A21AB30AC40AD50AC301AA2791
:101FE00097FDA095BA2FA80EB91ECA1EDB1E220EA1
:101FF000331E441E551E32C0C401AA2797FDA0956A
:10200000BA2FA301662757FD6095762F243031053E
:10201000B9F4ED80FE800F811885E80EF91E0A1FC5
:102020001B1FE41AF50A060B170B6D807E808F804C
:102030009884681A790A8A0A9B0A6201510114C0BD
:102040005C016D01A20CB31CC41CD51CA41AB50AFA
:10205000C60AD70A281A390A4A0A5B0AED80FE80A6
:102060000F811885370148016091C9017091CA013B
:102070008091CB019091CC014B815C810E94B7098A
:10208000AC0189819A816FEF70E00E9411059A87F7
:102090008987C801B701A60195010E945A0D89855B
:1020A0009A8502974CF08B819C81BC0149855A85A9
:1020B0002091CE010E94AD0BC401B301A201910198
:1020C0000E945A0D2A960FB6F894DEBF0FBECDBF00
:1020D000CF91DF911F910F91FF90EF90DF90CF9004
:1020E000BF90AF909F908F907F906F905F904F9038
:1020F0003F902F9008952F923F924F925F926F9250
:102100007F928F929F92AF92BF92CF92DF92EF9287
:10211000FF920F931F93DF93CF93CDB7DEB7E09776
:102120000FB6F894DEBF0FBECDBF2B013C019CA2C1
:102130008BA20E9478056B8F7C8F8D8F9E8FA30161
:1021400092010E946A076F8B788F898F9A8FC801DE
:10215000B701A60195010E9478055B016C01A801F9
:1021600097010E946A077B018C01C601B50120E03E
:1021700030E040EA51E40E94E73818160CF014C22F
:10218000609140027091410280914202909143021D
:1021900064517040804090400E94E2376F8F78A376
:1021A00089A39AA3C601B5012F8D38A149A15AA1CF
:1021B0000E94433788230CF0F7C1C801B70120E023
:1021C00030E040EA51E40E94E73818160CF0ECC108
:1021D00060914402709145028091460290914702BD
:1021E00064517040804090400E94E2372B013C01D6
:1021F000C801B701A30192010E94433788230CF064
:10220000D3C16B8D7C8D8D8D9E8D20E030E040EABA
:1022100051E40E94E73818160CF0C6C16B8D7C8D16
:102220008D8D9E8D2F8D38A149A15AA10E944337D3
:1022300088230CF0B9C16F89788D898D9A8D20E043
:1022400030E040EA51E40E94E73818160CF0ACC1C7
:102250006F89788D898D9A8DA30192010E944337F1
:1022600088230CF0A1C11092BC01C601B5012B8DD1
:102270003C8D4D8D5E8D0E94DE361B012C01C80108
:10228000B7012F89388D498D5A8D0E94DE363B016A
:102290004C01C201B10120E030E040E050E00E947A
:1022A000E73818161CF48201710106C08201710121
:1022B00017FB109517F91095C401B30120E030E029
:1022C00040E050E00E94E73818161CF4A401930186
:1022D00003C0A40193015058C801B7010E94E73818
:1022E00018169CF021E030E03E8B2D8BD401C30109
:1022F000B0588DA79EA7AFA7B8ABABA1BCA15D019D
:10230000CC24B7FCC094DC2C4EC021E030E03E8BE6
:102310002D8BD201C101B05889A79AA7ABA7BCA742
:10232000ABA1BCA15D01CC24B7FCC094DC2C06C0E1
:102330002D893E892F5F3F4F3E8B2D8BC201B1010E
:1023400020E030E040E050E00E94E73818161CF42E
:102350008201710104C0E9A4FAA40BA51CA5AD89F2
:10236000BE89BD01882777FD8095982F0E94E237AE
:102370009B01AC01C801B7010E9447377B018C016A
:10238000C601B5010E94E2379B01AC01C801B7014B
:102390000E94E738181664F234C02D893E892F5FF9
:1023A0003F4F3E8B2D8BC401B30120E030E040E075
:1023B00050E00E94E73818161CF48401730104C031
:1023C000EDA4FEA40FA518A9AD89BE89BD0188277B
:1023D00077FD8095982F0E94E2379B01AC01C801E0
:1023E000B7010E9447377B018C01C601B5010E94ED
:1023F000E2379B01AC01C801B7010E94E73818160B
:1024000064F22D893E895901CC24B7FCC094DC2CA0
:10241000C601B5010E94E2377B018C01C201B10106
:10242000A80197010E9447376D837E838F83988729
:10243000C401B301A80197010E94473769837A83D9
:102440008B839C831092B901198A1A8A1B8A1C8A71
:1024500019861A861B861C86ADA2BEA2CFA2D8A65C
:102460006B8D7C8D8D8D9E8D2D813E814F8158850C
:102470000E94DF366B8F7C8F8D8F9E8F6F89788D5A
:10248000898D9A8D29813A814B815C810E94DF364A
:102490006F8B788F898F9A8F6B8D7C8D8D8D9E8DB4
:1024A0002F89388D498D5A8D0E94C8076D877E8788
:1024B0008F87988B6B8D7C8D8D8D9E8D2F89388D20
:1024C000498D5A8D0E9491071B012C0169847A84E1
:1024D0008B849C848DA19EA1AFA1B8A5680E791EA6
:1024E0008A1E9B1E69897A898B899C890E94E237A2
:1024F0005B016C016091B5017091B6018091B701EB
:102500009091B80120E030E040E850E40E94EB38C0
:102510007B018C01C401B301A60195010E94F10762
:102520000E94AF37698B7A8B8B8B9C8B0E94E23732
:102530007B018C0183ED92E0B801A7010E94152078
:1025400087E193E0B801A7010E9415206D857E8583
:102550008F8598890E94AF377B018C01C201B10140
:102560000E94AF379B01AC01C801B7010E945A0D10
:1025700089859A85AB85BC850197A109B1098987B1
:102580009A87AB87BC878D899E89A985BA858A0F72
:102590009B1F892B09F064CF81E08093BC0180935D
:1025A000B9010E94DC0806C081EA95E061E071E0B3
:1025B0000E94D330E0960FB6F894DEBF0FBECDBFB9
:1025C000CF91DF911F910F91FF90EF90DF90CF900F
:1025D000BF90AF909F908F907F906F905F904F9043
:1025E0003F902F9008952F923F924F925F926F925B
:1025F0007F928F929F92AF92BF92CF92DF92EF9293
:10260000FF920F931F93DF93CF9300D000D000D0A1
:10261000CDB7DEB787EE93E00E946C027B018C01A0
:102620006091B00170E0882777FD8095982F0E9417
:10263000E2379B01AC01C801B7010E94EB383B01B6
:102640004C0185EF93E00E946C027B018C01D090DD
:10265000B00183E094E00E9470029E838D8383ED3D
:1026600092E00E94B21D69837A838B839C8387E109
:1026700093E00E94B21D1B012C01C401B30120E0B4
:1026800030E040EA51E40E94433787FD30C06D2DB1
:1026900070E0882777FD8095982F0E94E2379B0194
:1026A000AC01C801B7010E94EB385B016C0120E06E
:1026B00030E040EA51E40E94433787FD18C00E9491
:1026C00019090E94E2379B01AC01C401B3010E94C9
:1026D000E738181664F00E9419090E94E2379B013E
:1026E000AC01C601B5010E94E73818163CF481EA36
:1026F00095E064E371E00E94D33016C069817A816D
:102700008B819C810E94E2377B018C01C201B10167
:102710000E94E2379B01AC01C801B701840173013B
:102720008D809E800E947B1026960FB6F894DEBFA7
:102730000FBECDBFCF91DF911F910F91FF90EF9012
:10274000DF90CF90BF90AF909F908F907F906F90D1
:102750005F904F903F902F900895AF92BF92CF928D
:10276000DF92EF92FF920F931F9337EEC32E33E069
:10277000D32EC6010E946C027B018C016091B001D6
:1027800070E0882777FD8095982F0E94E2379B01A3
:10279000AC01C801B7010E94EB387B018C01C60176
:1027A0000E946C025B016C01C801B7010E94AF3747
:1027B0007B018C016091B00170E0882777FD8095E6
:1027C000982F0E94E2379B01AC01C601B5010E941F
:1027D000EB380E94AF379B01AC01C801B7010E94E2
:1027E0005A0D1F910F91FF90EF90DF90CF90BF9007
:1027F000AF900895EF92FF920F931F9303ED12E0B5
:10280000C8010E948E2247E1E42E43E0F42EC70166
:102810000E948E2281E080938602C8010E94B21D30
:10282000AB01BC014C5F5F4F6F4F7F4FC8010E94EF
:102830000A24C7010E94B21DAB01BC014C5F5F4F6F
:102840006F4F7F4FC7010E940A24C8010E94B21D2A
:10285000AB01BC014450504060407040C8010E9430
:102860000A24C7010E94B21DAB01BC014450504074
:1028700060407040C7010E940A241F910F91FF9091
:10288000EF9008956F927F928F929F92AF92BF9236
:10289000CF92DF92EF92FF920F931F9387EE93E018
:1028A0000E948E025B016C01E090B001FF2400E009
:1028B00010E085EF93E00E948E023B014C01C801BD
:1028C000B701A60195010E94A739AB01BC0183EDB8
:1028D00092E00E94B81DC801B701A40193010E94B3
:1028E000A739AB01BC0187E193E00E94B81D0E94AB
:1028F000FA130E94DC081F910F91FF90EF90DF9078
:10290000CF90BF90AF909F908F907F906F900895E1
:102910000F931F93AB01BC014093B5015093B601D7
:102920006093B7017093B80183ED92E00E94E522B5
:102930004091B5015091B6016091B7017091B80115
:1029400087E193E00E94E52201EA15E0C80166E90B
:1029500071E00E9490304091B5015091B6016091B4
:10296000B7017091B801C80122E030E00E9416332F
:102970001F910F9108950F931F93CF93DF9387EECD
:1029800093E00E946C020E94881480914C02833074
:10299000C1F485EF93E00E947002019791F405EB7A
:1029A00011E06AE170E0EB012196F80141918F019D
:1029B0008FE494E00E945126CE31D10511F0BE0182
:1029C000F2CFDF91CF911F910F910895CF92DF92B7
:1029D000EF92FF920F931F937C018B015FE4C52E52
:1029E00054E0D52EC601B701F80140810E9451265E
:1029F0000894E11CF11CC601B701F80141810E9455
:102A0000512682E090E01F910F91FF90EF90DF90B0
:102A1000CF9008950F931F93AB01BC014093B10178
:102A20005093B2016093B3017093B40183ED92E0CF
:102A30000E94BF1F4091B1015091B2016091B3015A
:102A40007091B40187E193E00E94BF1F01EA15E095
:102A5000C80162EA71E00E9490304091B10150914A
:102A6000B2016091B3017091B401C80122E030E07D
:102A70000E9416331F910F9108950F931F93CF93C8
:102A8000DF9387EE93E00E946C020E940A1580910A
:102A90004C028330C1F485EF93E00E9470020197ED
:102AA00091F401EB11E066E170E0EB012196F80191
:102AB00041918F018FE494E00E945126CA31D105E3
:102AC00011F0BE01F2CFDF91CF911F910F910895C8
:102AD000CF92DF92EF92FF920F931F937C018B01B5
:102AE0006FE4C62E64E0D62EC601B7010E944A26C6
:102AF000F80180830894E11CF11CC601B7010E9413
:102B00004A26F801818382E090E01F910F91FF90A7
:102B1000EF90DF90CF9008958AE290E062ED71E04F
:102B20000E9468158091D2019091D30197FF06C051
:102B30008AE590E09093D3018093D20181EA95E0F9
:102B40006EE872E00E9490306091D2017091D301E2
:102B500081EA95E04AE050E00E940D328CE290E07C
:102B600060ED71E00E9468158091D0019091D101D3
:102B700097FF06C084EB90E09093D1018093D00141
:102B800081EA95E06FE772E00E9490306091D00199
:102B90007091D10181EA95E04AE050E00E940D3247
:102BA0000895DF93CF9300D000D0CDB7DEB787EE86
:102BB00093E00E9470029A83898385EF93E00E94DC
:102BC00070029C838B8381EA95E067EB71E00E9441
:102BD000903069817A8181EA95E04AE050E00E9474
:102BE0000D3281EA95E062EB71E00E9490306B81DA
:102BF0007C8181EA95E04AE050E00E940D328091AC
:102C00004C02843089F48AE290E0BE016F5F7F4F0E
:102C10000E94E6148CE290E0BE016D5F7F4F0E943F
:102C2000E6140E948C153AC08330C1F569817A811F
:102C30008B819C8143E050E00E94280A68EC70E0A0
:102C400080E090E00E94152D6B817C8189819A81C2
:102C500043E050E00E94280A68EC70E080E090E0D9
:102C60000E94152D69817A818B819C8143E050E01F
:102C70000E94280A68EC70E080E090E00E94152D28
:102C80006B817C8189819A8143E050E00E94280A0F
:102C900068EC70E080E090E00E94152D0F900F909E
:102CA0000F900F90CF91DF91089580E090E064EC59
:102CB00071E00E9468158091C4019091C5011816B9
:102CC000190644F08091DA019091DB019093C501DF
:102CD0008093C40181EA95E065ED72E00E94903036
:102CE0006091C4017091C50181EA95E04AE050E02D
:102CF0000E940D3282E090E066EC71E00E9468155F
:102D00008091C6019091C7011816190644F0809170
:102D1000DC019091DD019093C7018093C60181EAA7
:102D200095E066EC72E00E9490306091C60170916F
:102D3000C70181EA95E04AE050E00E940D32089513
:102D40000F931F93DF93CF9300D000D000D0CDB767
:102D5000DEB787EE93E00E9470028C019A8389832C
:102D600085EF93E00E9470029C838B831E830D830A
:102D700080E090E0BE016B5F7F4F0E946815298163
:102D80003A818D819E818217930751F02B30310556
:102D90003CF080E090E0BE016F5F7F4F0E94E61440
:102DA00082E090E0BE016B5F7F4F0E9468152B812F
:102DB0003C818D819E818217930751F02B30310524
:102DC0003CF082E090E0BE016D5F7F4F0E94E61410
:102DD0000E94551626960FB6F894DEBF0FBECDBFE3
:102DE000CF91DF911F910F910895EF92FF920F9372
:102DF0001F93CF93DF93AC019B01EB0174E0E72EAF
:102E0000F12CE20EF31E8A010F5F1F4F8FE494E056
:102E1000BA010E944A268993A801CE15DF0599F7C9
:102E200084E090E0DF91CF911F910F91FF90EF90A0
:102E3000089586E190E061EB71E00E94F5166091E3
:102E4000B1017091B2018091B3019091B4010E94DF
:102E5000AF371616170664F080E090E0A8E4B4E4FB
:102E60008093B1019093B201A093B301B093B401E8
:102E70008AE190E065EB71E00E94F5166091B50182
:102E80007091B6018091B7019091B8010E94AF375F
:102E90001616170664F080E090E0A8E4B4E480938E
:102EA000B5019093B601A093B701B093B80108950E
:102EB0008EE090E06CEA71E00E94F5166091AC0142
:102EC0007091AD018091AE019091AF0120E030E0B2
:102ED00040E85FE30E944337882394F46091D60171
:102EE0007091D701882777FD8095982F0E94E2374F
:102EF0006093AC017093AD018093AE019093AF01EC
:102F000081EA95E065EB72E00E9490304091AC015F
:102F10005091AD016091AE017091AF0181EA95E0F1
:102F200022E030E00E94163382E190E06AEA71E02C
:102F30000E9468158091AA019091AB01181619069C
:102F400044F08091D8019091D9019093AB01809386
:102F5000AA0181EA95E06FE972E00E9490306091E9
:102F6000AA017091AB0181EA95E04AE050E00E942D
:102F70000D3208958FE494E064E170E00E944A26E7
:102F80008093B001882321F48091D4018093B00113
:102F900081EA95E067E672E00E94903081EA95E070
:102FA0006091B0014AE050E00E9488310895AF92EC
:102FB000BF92CF92DF92EF92FF920F931F930E94E6
:102FC00055160E9458170E94BA170E948C150E942D
:102FD00019178EE190E069EC71E00E94F51660919E
:102FE000C9017091CA018091CB019091CC0127E178
:102FF00037EB41ED58E30E944337882364F48DECAE
:103000009CECACE4BFE38093C9019093CA01A09308
:10301000CB01B093CC01A090AC01B090AD01C090B9
:10302000AE01D090AF016091B00170E080E090E01F
:103030002091AA013091AB01442737FD4095542FD0
:103040000E94A7390E94E2377B018C01C601B501BD
:10305000A80197010E9447376093380270933902A4
:1030600080933A0290933B02C801B701A6019501F3
:103070000E94473760933C0270933D0280933E026A
:1030800090933F0281EA95E064E572E00E949030FF
:10309000409138025091390260913A0270913B029E
:1030A00081EA95E022E030E00E94133381EA95E066
:1030B00064E472E00E94903040913C0250913D02E5
:1030C00060913E0270913F0281EA95E022E030E09B
:1030D0000E94133381EA95E062E472E00E94D330EB
:1030E0006091C4017091C501882777FD8095982F64
:1030F0000E94E23720913C0230913D0240913E0215
:1031000050913F020E94EB380E94AF37609340021B
:1031100070934102809342029093430281EA95E0CA
:1031200066E272E00E94903040914002509141026C
:10313000609142027091430281EA95E02AE030E01A
:103140000E94A63181EA95E064E272E00E94D330E9
:103150006091C6017091C701882777FD8095982FEF
:103160000E94E23720913C0230913D0240913E02A4
:1031700050913F020E94EB380E94AF3760934402A7
:1031800070934502809346029093470281EA95E04E
:103190006CE172E00E94903081EA95E066E072E0B6
:1031A0000E94903040914402509145026091460245
:1031B0007091470281EA95E02AE030E00E94A63152
:1031C00081EA95E064E072E00E94903081EA95E047
:1031D0000E94B330109248021092490210924A02A3
:1031E00010924B021F910F91FF90EF90DF90CF90C4
:1031F000BF90AF900895DF93CF9300D0CDB7DEB7E7
:1032000087EE93E00E9470029A83898384E190E0C4
:10321000BE016F5F7F4F0E94E6140E94D7170F9088
:103220000F90CF91DF910895DF93CF9300D0CDB76A
:10323000DEB787EE93E00E9470029A83898382E171
:1032400090E0BE016F5F7F4F0E94E6140E94D71787
:103250000F900F90CF91DF910895EF92FF920F930F
:103260001F93DF93CF9300D000D0CDB7DEB787EEAA
:1032700093E00E946C0269837A838B839C837E0136
:103280000894E11CF11C6EE070E08B010F5F1F4F92
:10329000F70141917F018FE494E00E945126B8012B
:1032A0000231110591F70E94D7170F900F900F90E0
:1032B0000F90CF91DF911F910F91FF90EF900895A4
:1032C000CF93DF93C0E0D0E08FE494E0BE0140E014
:1032D0000E9451262196C233D105B1F70E94D7171B
:1032E000DF91CF910895CF93DF93C0E0D0E081EAE2
:1032F00095E0BE014AE050E00E94FA3181EA95E093
:1033000067E571E00E942C328FE494E0BE010E94D8
:103310004A26682F81EA95E04AE050E00E94883111
:103320002196C832D10519F7DF91CF910895CF9238
:10333000DF92EF92FF920F931F930E94731901EA9D
:1033400015E0C8016CEF71E00E9490306091C401FB
:103350007091C501C8014AE050E00E94FA31F5EFD2
:10336000CF2EF1E0DF2EC801B6010E942C32609111
:10337000C6017091C701C8014AE050E00E94FA31CD
:10338000E7EFEE2EE1E0FE2EC801B7010E942933DF
:10339000C80160EF71E00E9490304091AC01509103
:1033A000AD016091AE017091AF01C80122E030E043
:1033B0000E941333C801B7010E942933C80161EE8E
:1033C00071E00E9490306091AA017091AB01C80138
:1033D0004AE050E00E94FA31C801B7010E94293347
:1033E000C8016FEC71E00E949030C8016091B0019B
:1033F0004AE050E00E947631C801B7010E942933AB
:10340000C80167EC71E00E9490306091D201709128
:10341000D301C8014AE050E00E94FA31C801B60168
:103420000E942C326091D0017091D101C8014AE014
:1034300050E00E94FA31C801B7010E942933C80147
:103440006EEB71E00E9490304091B1015091B20159
:103450006091B3017091B401C80122E030E00E9494
:103460001333C801B6010E942C324091B50150912E
:10347000B6016091B7017091B801C80122E030E057
:103480000E941333C801B7010E9429331F910F9185
:10349000FF90EF90DF90CF900895CF93DF93EC01F2
:1034A00062E673E00E942C34882319F00E94AD1369
:1034B000B3C0CE0168EA73E00E942C34882319F06F
:1034C0000E94F312A9C0CE0169E673E00E942C3479
:1034D000882319F00E948D099FC0CE0162ED73E030
:1034E0000E942C34882319F00E943D1595C0CE010E
:1034F00069ED73E00E942C34882319F00E94BB14FC
:103500008BC0CE0160E773E00E942C34882319F051
:103510000E94410F81C0CE0167E773E00E942C3406
:10352000882319F00E94A00E77C0CE016EE773E0E9
:103530000E942C34882319F00E9477096DC0CE01B7
:1035400065E873E00E942C34882319F00E94730C04
:1035500063C0CE016CE873E00E942C34882319F01C
:103560000E94421459C0CE0163E973E00E942C34DA
:10357000882319F00E94720A4FC0CE016AE973E0F5
:103580000E942C34882319F00E94A30A45C0CE0162
:1035900061EA73E00E942C34882319F00E94D1154F
:1035A0003BC0CE016FEA73E00E942C34882319F0EF
:1035B0000E94A01631C0CE0164EC73E00E942C344E
:1035C000882319F00E942D1927C0CE016BEC73E0FF
:1035D0000E942C34882319F00E9414191DC0CE01BA
:1035E00060EE73E00E942C34882319F00E94FB18CF
:1035F00013C0CE0166EB73E00E942C34882319F0CF
:103600000E94971909C0CE016DEB73E00E942C3423
:10361000882319F00E94601981E0DF91CF9108950D
:103620008AE892E09093DB018093DA019093DD01C8
:103630008093DC018FE590E09093D7018093D601D1
:1036400080E991E09093D9018093D80181E090E0E6
:103650009093D5018093D4018BE892E060E476E00A
:103660000E94172B64EF71E080E090E00E94152D1E
:1036700008958091D1029091D20262E044E00E94CC
:103680001B2A08958091D1029091D20261E044E01A
:103690000E941B2A08958091CF029091D00262E08F
:1036A00044E00E941B2A08958091CF029091D0029D
:1036B00061E044E00E941B2A0895EF92FF920F936D
:1036C0001F937C0101EA15E0C80164EF72E00E94DB
:1036D0009030C801B7010E943C33C80163EE72E02C
:1036E0000E94D3301F910F91FF90EF900895CF93D8
:1036F000DF93EC010E944D1A882329F4CE010E9429
:103700005D1B0E948609DF91CF910895EF92FF9291
:103710000F931F93DF93CF93CDB7DEB7BC01EDB608
:10372000FEB6FC0101900020E9F73197E81BF90B88
:103730008DB79EB78E1B9F0B0FB6F8949EBF0FBE22
:103740008DBF0DB71EB70F5F1F4FC8010E94CC027F
:10375000C80165EF71E00E94B502BC0100E010E015
:103760002DC002301105B9F0033011053CF40115EC
:10377000110559F001301105C1F40AC003301105DB
:1037800069F00430110589F40CC08FE194E00BC09E
:1037900087EE93E008C085EF93E005C083E094E0F6
:1037A00002C081E194E00E94CC0280E090E065EFED
:1037B00071E00E94B502BC010F5F1F4F61157105DA
:1037C00081F600934C020FB6F894FEBE0FBEEDBE1C
:1037D000CF91DF911F910F91FF90EF900895CF93BC
:1037E000DF93EC0167EF71E00E94E102FC011482BB
:1037F00067EF71E00E94C302009711F080E004C0FF
:10380000CE010E94861B81E0DF91CF910895EF9257
:10381000FF920F931F93DF93CF93CDB7DEB7279718
:103820000FB6F894DEBF0FBECDBF7C010E94EF1B28
:103830008823E9F08E010F5F1F4FC8016DE472E02D
:103840000E94A834C8010E94771BC8010E94C2349C
:1038500080E090E0F701E80FF91F108201968233B3
:103860009105C1F7109280020E94860917C081EA73
:1038700095E06AE571E00E942C3281EA95E06EE104
:1038800073E00E94903081EA95E0B7010E942C32EB
:1038900081EA95E060E173E00E94D33010924C021F
:1038A00027960FB6F894DEBF0FBECDBFCF91DF9144
:1038B0001F910F91FF90EF9008958F929F92AF927A
:1038C000BF92CF92DF92EF92FF920F931F93CF930D
:1038D000DF934C010E94E12C20E030E0F401E20F84
:1038E000F31F10822F5F3F4F22333105B9F7AC0130
:1038F000CB01DA015C016D01EE24FF248701C0E0F9
:10390000D0E00E94E12C2097A9F06E197F09800B6E
:10391000910B653671058105910564F080E090E0BA
:10392000F401E80FF91F1082019682339105C1F767
:10393000C0E0D0E00E94E20A0E94E12C6A197B09F3
:103940008C099D092091BE013091BF01442737FDAC
:103950004095542F26173707480759074CF40E9403
:1039600086090E94E12CAC01CB01DA015C016D01FA
:1039700081EA95E00E94572F1816190614F681EA7D
:1039800095E00E94882FF401EC0FFD1F8A3051F45E
:103990001082CE0102C01192019681339105DCF3B1
:1039A00011E003C08083219610E00E94E12C1123D6
:1039B00031F4AC01CB01DA017C018D01A2CF0E9470
:1039C000E12C0E94E12C609381027093820280932B
:1039D000830290938402609387027093880280939D
:1039E000890290938A0281E0DF91CF911F910F911C
:1039F000FF90EF90DF90CF90BF90AF909F908F900F
:103A000008958DE492E00E945D1C882321F08DE4EE
:103A100092E00E94071C0895EF92FF920F931F936C
:103A200081EA95E040E051EE60E070E00E94D02E27
:103A300081EA95E061E671E00E942C3281EA95E02E
:103A40000E94B3300E94D7170E94101B4091B10111
:103A50005091B2016091B3017091B40183ED92E095
:103A60000E94BF1F4091B5015091B6016091B7010E
:103A70007091B80183ED92E00E94E5224091B1017E
:103A80005091B2016091B3017091B40187E193E06C
:103A90000E94BF1F4091B5015091B6016091B701DE
:103AA0007091B80187E193E00E94E5226091BA012C
:103AB0007091BB01882777FD8095982F0E94E2378F
:103AC0002091AC013091AD014091AE015091AF0118
:103AD0000E9447377B018C016091AA017091AB0174
:103AE000882777FD8095982F0E94E2379B01AC01D3
:103AF000C801B7010E94EB380E94AF377B018C01EF
:103B000083ED92E0B801A7010E94B81D87E193E020
:103B1000B801A7010E94B81DEDE4F2E0119282E025
:103B2000EF37F807D9F70E9486090E94A30A64EFCD
:103B300071E080E090E00E94152D1F910F91FF90A1
:103B4000EF900895FC01278530894189528983854A
:103B50009485A585B685281B390B4A0B5B0BB901EB
:103B6000CA010895FC01638574858585968508954D
:103B7000FC0143875487658776874787508B618B25
:103B8000728B13AA14AA15AA16AA13A214A215A21C
:103B900016A208956F927F928F929F92AF92BF92DA
:103BA000CF92DF92EF92FF920F931F93CF93DF9309
:103BB000EC01AF84B888C988DA888B859C85AD858F
:103BC000BE85A81AB90ACA0ADB0A2B893C894D8925
:103BD0005E89CA01B9010E94EB387B018C012B8DF3
:103BE0003C8D4D8D5E8DCA01B9010E94DF369B016F
:103BF000AC01C801B7010E9447370E94AF379B0153
:103C0000AC01A114B104C104D104B9F4623071054E
:103C1000810591050CF085C01BA21CA21DA21EA24D
:103C200080E090E0A0E0B0E08B8B9C8BAD8BBE8BF6
:103C30001BAA1CAA1DAA1EAA0BC1EBA8FCA80DA9B1
:103C40001EA91A141B041C041D0444F51E141F0491
:103C50001006110674F46A157B058C059D05B4F5F4
:103C6000CD5BDF4F8881C354D040882309F059C011
:103C70002DC0E114F1040105110509F452C06A15C3
:103C80007B058C059D050CF04CC0CD5BDF4F88811A
:103C9000C354D040813009F044C038C01E141F0402
:103CA00010061106DCF488279927DC018A199B0984
:103CB000AC09BD09281739074A075B073CF4CD5BFF
:103CC000DF4F8881C354D040813059F58827992728
:103CD000DC01821B930BA40BB50B1FC0E114F10494
:103CE00001051105F1F088279927DC018A199B0944
:103CF000AC09BD09281739074A075B0794F4CD5B67
:103D0000DF4F8881C354D040882359F488279927EE
:103D1000DC018E199F09A00BB10B8BAB9CABADAB3B
:103D2000BEAB6BA87CA88DA89EA861147104810409
:103D30009104A9F48FA998ADA9ADBAAD8BAF9CAF92
:103D4000ADAFBEAFFE01ED5BFF4F10821A141B0436
:103D50001C041D040CF049C081E0808346C0ABAC5C
:103D6000BCACCDACDEACC601B50120E030E040E03B
:103D700050EC0E94EB387B018C01C401B3010E941E
:103D8000E23720E030E040E850E40E94EB3820E0E9
:103D900030E040E85FE30E94DF369B01AC01C801E0
:103DA000B7010E9447379B01AC01C601B5010E94D3
:103DB000DF367B018C016BAF7CAF8DAF9EAFEF9692
:103DC000A880B980CA80DB80EF979501A6010E9488
:103DD000E738181624F4D801C70157016D01C50151
:103DE000D6018BAF9CAFADAFBEAF8BA99CA9ADA9DF
:103DF000BEA90196A11DB11D8BAB9CABADABBEABFB
:103E00006BAD7CAD8DAD9EAD0E94B4376BA37CA332
:103E10008DA39EA360E074E284E799E42BAD3CADF2
:103E20004DAD5EAD0E9447379B01AC016B8B7C8B27
:103E30008D8B9E8BCD5BDF4F8881C354D040882310
:103E400039F4DA01C901B0588B8B9C8BAD8BBE8BDA
:103E5000DF91CF911F910F91FF90EF90DF90CF9066
:103E6000BF90AF909F908F907F906F900895FC01CE
:103E700087859089A189B28984179507A607B70716
:103E800039F04787508B618B728BCF010E94CA1D1E
:103E90000895FC01DB01CA0143855485658576855B
:103EA000480F591F6A1F7B1FCF010E94371F0895BB
:103EB000CF92DF92EF92FF920F931F93FC0180E06D
:103EC00092E091838083128213861486158616866B
:103ED0001786108A118A128A0F2EF0E0CF2EF0E09A
:103EE000DF2EF0E0EF2EF0E0FF2EF02DC38AD48A13
:103EF000E58AF68A00E010E020E83FE3078B108FA8
:103F0000218F328F038F148F258F368F078F10A349
:103F100021A332A313A214A215A216A281E090E05D
:103F200094A783A78FEF86A717A210A611A612A6A3
:103F3000138214821582168270AB67A752AB41AB15
:103F400013AA14AA15AA16AAC7AAD0AEE1AEF2AE59
:103F5000C3AED4AEE5AEF6AEFF96019311932193B6
:103F600031931082E354F040178210861186128636
:103F70001F910F91FF90EF90DF90CF900895EF92F7
:103F8000FF920F931F93CF93DF93EC017A018B0184
:103F90006F89788D898D9A8DA80197010E9443378A
:103FA0008823E1F1EF8AF88E098F1A8FEF9660E08F
:103FB00074E284E799E4A80197010E944737688377
:103FC00079838A839B83EF978BA99CA9ADA9BEA90E
:103FD000181619061A061B060CF52B893C894D8903
:103FE0005E89CA01B9010E94EB387B018C012B8DDF
:103FF0003C8D4D8D5E8DCA01B9010E94DF369B015B
:10400000AC01C801B7010E9447370E94AF376BABC4
:104010007CAB8DAB9EABCE010E94CA1DDF91CF91D0
:104020001F910F91FF90EF9008954F925F926F92C2
:104030007F928F929F92AF92BF92CF92DF92EF9238
:10404000FF920F931F93CF93DF932C017A018B0183
:10405000CB01BA01F20123893489458956890E942E
:104060004337882309F455C0F201A788B08CC18C6E
:10407000D28C3501460197FA909497F89094C80134
:10408000B701A40193010E94433788231CF48401E3
:1040900073010AC0C801B701A60195010E94E73863
:1040A000181614F486017501C801B70120E030E04C
:1040B00040E050E00E944337882331F4F20113A21C
:1040C00014A215A216A220C060E074E284E799E46D
:1040D000A80197010E9447379F770E94B437F201E9
:1040E00063A374A385A396A3E201CD5BDF4F18827F
:1040F000C801B70120E030E040E050E00E94E7381E
:10410000181614F481E08883F201E38AF48A058B9F
:10411000168BDF91CF911F910F91FF90EF90DF9061
:10412000CF90BF90AF909F908F907F906F905F9057
:104130004F900895FC012389348945895689B90136
:10414000CA010895DC0112968C911297833001F117
:10415000843040F4813089F0ED91FC9111978230E8
:1041600098F407C0863011F1883049F1843079F530
:1041700016C00480F581E02D1FC0ED91FC911197D0
:104180000680F781E02D18C00084F185E02D14C071
:10419000ED91FC9111970284F385E02D0DC0ED9116
:1041A000FC9111970484F585E02D06C0ED91FC91FA
:1041B00011970684F785E02DCD0109950895ED91BD
:1041C000FC9111970088F189E02DCD0109950895A2
:1041D000CF93DF93EC016B897C898D899E8920E0E8
:1041E00030E040E050E00E94E73818161CF4EFA5DC
:1041F000F8A902C0E9A9FAA90995DF91CF9108951C
:10420000DC0170E06370707061307105A9F062309C
:1042100071051CF4672B41F0089562307105A1F01F
:104220006330710501F518C0ED91FC911197019073
:10423000F081E02D62E00EC0ED91FC9111970190AC
:10424000F081E02D63E006C0ED91FC910190F081DA
:10425000E02D61E009950895ED91FC910190F081C8
:10426000E02D60E009950895DC01862F63E00E944F
:10427000C639913071F0913018F09230E9F413C0E2
:10428000ED91FC9111970190F081E02DCD0164E05A
:1042900008C0ED91FC9111970190F081E02DCD01C6
:1042A00061E009950895ED91FC9111970190F081DD
:1042B000E02DCD0162E009950895DC0170E06370A6
:1042C000707061307105A9F0623071051CF4672BC4
:1042D00041F0089562307105A1F06330710501F578
:1042E00018C0ED91FC9111970190F081E02D65E0EF
:1042F0000EC0ED91FC9111970190F081E02D66E0E8
:1043000006C0ED91FC910190F081E02D6AE00995E5
:104310000895ED91FC910190F081E02D69E00995FF
:104320000895DC01862F66E00E94C639923009F1BB
:10433000933030F4992359F0913009F03FC010C008
:10434000943049F19430F0F09530C1F52EC0ED91E4
:10435000FC9111970190F081E02DCD0164E023C024
:10436000ED91FC9111970190F081E02DCD0165E078
:104370001AC0ED91FC9111970190F081E02DCD01D3
:1043800061E011C0ED91FC9111970190F081E02D59
:10439000CD0163E008C0ED91FC9111970190F0818F
:1043A000E02DCD0162E009950895ED91FC91119702
:1043B0000190F081E02DCD0166E009950895DC01C2
:1043C00070E0677070706330710591F16430710551
:1043D0004CF461307105E1F0623071050CF5672B2A
:1043E00079F008956530710599F16530710544F1F2
:1043F00066307105A9F16730710509F040C038C019
:10440000ED91FC9111970190F081E02D61E02EC0BB
:10441000ED91FC9111970190F081E02D65E026C0AF
:10442000ED91FC9111970190F081E02D64E01EC0A8
:10443000ED91FC9111970190F081E02D66E016C09E
:10444000ED91FC9111970190F081E02D62E00EC09A
:10445000ED91FC9111970190F081E02D6AE006C08A
:10446000ED91FC910190F081E02D68E009950895AF
:10447000ED91FC910190F081E02D69E0099508959E
:10448000CF93DF93EC018A81882371F0E881F98171
:104490000190F081E02DCE0160E009958EA58F3F5F
:1044A00019F06DA50E94F22DDF91CF910895CF9262
:1044B000DF92EF92FF920F931F93CF93DF93FC0154
:1044C0002281243029F0283019F092E0D92E02C040
:1044D00084E0D82E8F01C0E0D0E0E62EFF24CC246B
:1044E000C394F8012381C7010C2E02C095958795CE
:1044F0000A94E2F7678180FD6C25822F0E94F22DDD
:1045000021960F5F1F4FCD1560F3DF91CF911F9163
:104510000F91FF90EF90DF90CF900895CF93DF93AE
:10452000EC018A81882311F18B8161E00E94B32D17
:104530008C8161E00E94B32D8A81843011F0883033
:1045400041F48D8161E00E94B32D8E8161E00E9473
:10455000B32D9EA59F3F51F06DA581E06827892F5F
:104560000E94F22D8EA561E00E94B32DDF91CF91C4
:104570000895CF93DF93EC01E881F9810190F081F8
:10458000E02DCD5BDF4F8881C354D040882311F4E8
:1045900061E001C063E0CE0109958BA59CA50E9456
:1045A0006E2DE881F9810190F081E02DCD5BDF4F28
:1045B0008881C354D040882311F460E001C062E0D8
:1045C000CE010995DF91CF9108956F927F928F92DE
:1045D0009F92AF92BF92CF92DF92EF92FF920F9392
:1045E0001F93CF93DF93EC013A014B01CB01BA014A
:1045F00020E030E040E050E00E944337882309F497
:1046000041C0AB8CBC8CCD8CDE8CC601B501A40145
:1046100093010E9443378823A9F16BA97CA98DA936
:104620009EA90E94E2377B018C01C601B501A4015D
:1046300093010E9447379B01AC01C801B7010E945A
:10464000EB380E94AF376BAB7CAB8DAB9EAB60E0C1
:1046500070E080E090E4A40193010E9447370E943B
:10466000523920E034E244E759E40E94EB386FAB62
:1046700078AF89AF9AAF6B8E7C8E8D8E9E8ECE0179
:104680000E94CA1DDF91CF911F910F91FF90EF9073
:10469000DF90CF90BF90AF909F908F907F906F9062
:1046A0000895EF92FF920F931F93CF93DF93EC0146
:1046B0008BA19CA1ADA1BEA10097A105B10509F4F4
:1046C0004CC00E94EF2C7B018C012FA138A549A57D
:1046D0005AA58BA19CA1ADA1BEA1820F931FA41FBF
:1046E000B51F82179307A407B50730F0E816F9063F
:1046F0000A071B0758F405C0E816F9060A071B0746
:1047000060F1E216F3060407150738F5CD5BDF4FBD
:104710008881C354D0402B853C854D855E85813092
:1047200029F42F5F3F4F4F4F5F4F04C0215030405F
:10473000404050402B873C874D875E87E881F98158
:104740006B8567700280F381E02DCE010995EFA2A1
:10475000F8A609A71AA781E001C080E0DF91CF91F8
:104760001F910F91FF90EF900895CF93DF93FC017D
:10477000278530894189528983859485A585B685A9
:10478000281739074A075B0711F480E00FC0EF01D3
:10479000CD5BDF4F82179307A407B5071CF481E0B8
:1047A000888301C01882CF010E945123DF91CF91ED
:1047B0000895CF93DF93EC010E945123882319F0D1
:1047C000CE010E94CA1D81E0DF91CF910895CF9361
:1047D000DF93EC016B897C898D899E8920E030E034
:1047E00040E050E00E944337882369F42F853889E0
:1047F00049895A898B859C85AD85BE8528173907DF
:104800004A075B0721F0CE010E94D923E3CFDF9155
:10481000CF9108950F931F938C010E94371FC801F9
:104820000E94E7231F910F910895FC0180912904B4
:104830008C3090F482838F5F80932904815090E0C4
:10484000FC01EE0FFF1FE80FF91FE65DFB4F88EB41
:104850009BE09283818308958FEF82830895DC012A
:1048600012968C91129790E0FC01EE0FFF1FE80F5B
:10487000F91FE65DFB4F80818F7B808312968C91C0
:104880006CE00E94C63990E0AC01440F551F480F00
:10489000591F440F551F440F551F20E030E0C90138
:1048A000840F951FFC01EE0FFF1FE80FF91FE65D57
:1048B000FB4F808186FD05C02F5F3F4F2C303105B7
:1048C00071F70895FC0122812C30B8F58081992779
:1048D00087FD909548E850E0481B590B440F551F41
:1048E000440F551F6417750784F08181992787FD50
:1048F000909548E552E0481B590B440F551F440F53
:10490000551F641775070CF4AB0142505040CA01A3
:10491000AA2797FDA095BA2F880F991FAA1FBB1F22
:104920004FB7F89430E0F901EE0FFF1FE20FF31FCD
:10493000E65DFB4F928381834FBF0895AF92BF9294
:10494000CF92DF92EF92FF920F931F93CF93DF935B
:10495000EC019B0182E0603278070CF048C077FFE1
:1049600003C020E030E005C0653B710514F024EB86
:1049700030E000D000D0B901882777FD8095982FCE
:104980002881332727FD3095E8E8AE2EB12CA21AF6
:10499000B30AAA0CBB1CAA0CBB1CCC24B7FCC09449
:1049A000DC2CE981FF27E7FDF09528E532E02E1B9E
:1049B0003F0B220F331F220F331F442737FD409533
:1049C000542FEDB7FEB7218332834383548320E015
:1049D00030E040E050E004EBE02EF12C012D112DF1
:1049E0000E946F339B010F900F900F900F90CE019C
:1049F000B9010E946224DF91CF911F910F91FF9026
:104A0000EF90DF90CF90BF90AF900895CF92DF925C
:104A1000EF92FF921F93CF93DF93EC01162F7A0151
:104A200069018A818C3008F064C0862F61E00E94A1
:104A3000B32D8A8190E0FC01EE0FFF1FE80FF91FF4
:104A4000E65DFB4F1F738081807C812B808380E239
:104A500092E08E199F0964E070E00E94D239688369
:104A600080E699E08C199D0964E070E00E94D239DB
:104A70006983AA818A2F6CE00E94C639682F70E092
:104A8000AB01440F551F460F571F440F551F440FCE
:104A9000551F20E030E0C901840F951FFC01EE0F87
:104AA000FF1FE80FF91FE65DFB4F808186FD15C0F3
:104AB0002F5F3F4F2C30310571F724C010928000DA
:104AC00082E0809381001092850010928400B19A58
:104AD00080916F00826080936F008A2F90E0FC01CC
:104AE000EE0FFF1FE80FF91FE65DFB4F808180642A
:104AF00080838A81DF91CF911F91FF90EF90DF90AB
:104B0000CF900895672BD1F2E8CF40E252E020E643
:104B100039E00E94062508951F920F920FB60F925A
:104B200011242F933F934F935F936F937F938F93B2
:104B30009F93AF93BF93EF93FF9380914E0487FFB2
:104B400005C010928500109284002BC020914E0465
:104B5000332727FD30958091290490E028173907E5
:104B600004F580914E04992787FD9095FC01EE0F86
:104B7000FF1FE80FF91FE65DFB4F808186FF11C024
:104B800080914E04992787FD9095FC01EE0FFF1F41
:104B9000E80FF91FE65DFB4F80818F7360E00E9494
:104BA000F22D80914E048F5F80934E0420914E042D
:104BB000332727FD30958091290490E02817390785
:104BC0000CF04EC080914E048C300CF049C0209106
:104BD00084003091850080914E04992787FD90953F
:104BE000FC01EE0FFF1FE80FF91FE65DFB4F81810F
:104BF0009281280F391F309389002093880080917B
:104C00004E04992787FD9095FC01EE0FFF1FE80FDA
:104C1000F91FE65DFB4F808186FF2BC080914E041B
:104C2000992787FD9095FC01EE0FFF1FE80FF91FF4
:104C3000E65DFB4F80818F7361E00E94F22D19C009
:104C400080E49CE905C080918400909185000496E1
:104C500090938900809388008FEF80934E0409C061
:104C60008091840090918500049680549C4940F383
:104C7000EACFFF91EF91BF91AF919F918F917F917B
:104C80006F915F914F913F912F910F900FBE0F90B9
:104C90001F901895F999FECF72BD61BDF89A80B545
:104CA0000895F999FECF1FBA72BD61BD40BD0FB620
:104CB000F894FA9AF99A0FBE089581E080939504CA
:104CC00060937204109293041092940408952091BA
:104CD000710430E080917004281B3109C9010895E6
:104CE0004091700480917104481718F02FEF3FEF46
:104CF0000AC0E42FF0E0E05BFB4F8081282F30E01A
:104D00004F5F40937004C9010895E0917004809151
:104D10007104E81718F0EFEFFFEF06C0F0E0E05B7A
:104D2000FB4F8081E82FF0E0CF01089508951092A5
:104D300099041092980488EE93E0A0E0B0E080938C
:104D40009A0490939B04A0939C04B0939D0486E1E5
:104D500092E090939704809396040895CF92DF9207
:104D6000EF92FF920F931F93CF93DF937C016B0120
:104D70008A01809195048823A1F0C0E0D0E00DC0A5
:104D8000D701ED91FC91D601AC0FBD1F0190F081D0
:104D9000E02DC7016C9109952196C017D10780F3CA
:104DA00004C0CB01642F0E94E027C801DF91CF919E
:104DB0001F910F91FF90EF90DF90CF900895DF93B8
:104DC000CF930F92CDB7DEB7FC0169838091950434
:104DD0008823C9F080919404803238F081E090E01B
:104DE0009383828320E030E015C080919304E82F04
:104DF000F0E0ED58FB4F998190838F5F809393048F
:104E00008093940405C0CE01019661E00E94E027E2
:104E100021E030E0C9010F90CF91DF9108950F9309
:104E2000062F8091720463E774E04091940421E0BE
:104E30000E948B2710929304109294041092950470
:104E40000F91089561E00E940F270895413208F004
:104E500040E2862F60E574E00E94422710927004C1
:104E600080937104089521E00E94262708951092EE
:104E700070041092710410929304109294040E9492
:104E80008C290895382F413210F040E042C08091C3
:104E9000A2048823E1F791E09093A2042093A40454
:104EA0008FEF80930F051092CA0441504093CB04BA
:104EB0004F5F9093A3048091A304330F832B8093BF
:104EC000A3048091A504813041F41092A50480913F
:104ED000A3048093BB0085EC01C085EE8093BC00E9
:104EE0008091A2048130E1F38091CA04841710F408
:104EF0004091CA0420E030E00AC0FB01E20FF31F3A
:104F0000D901A655BB4F8C9180832F5F3F4F24174B
:104F1000A0F3842F08950F931F93582F122F41321F
:104F200010F081E04AC08091A2048823E1F782E07A
:104F30008093A2040093A4048FEF80930F05109236
:104F4000CA044093CB04AAEAB4E0FB0102C08191F9
:104F50008D938E2F861B8417D0F31092A30480911B
:104F6000A304550F852B8093A3048091A504813061
:104F700041F41092A5048091A3048093BB0085ECBA
:104F800001C085EE8093BC00112321F08091A20422
:104F90008230E1F380910F058F3F11F480E00DC066
:104FA00080910F05803211F482E007C080910F05D7
:104FB000803311F084E001C083E01F910F910895C8
:104FC000482F613210F081E008958091A20484306E
:104FD00011F082E008956093ED04ACECB4E0842F0E
:104FE0009C01F90102C081918D938E2F841B86173D
:104FF000D0F380E008951F920F920FB60F92112404
:105000002F933F934F935F936F937F938F939F93D0
:10501000AF93BF93EF93FF938091B90090E0887FA7
:1050200090708036910509F4F2C081369105CCF577
:105030008832910509F47BC089329105B4F480313E
:10504000910509F46FC0813191053CF4009709F492
:1050500047C1089709F04FC165C08831910509F42F
:1050600066C0809709F047C182C08034910509F479
:10507000A4C08134910544F48033910509F482C0C1
:10508000C89709F038C189C08035910509F489C0F5
:105090008835910509F496C08834910509F02BC133
:1050A000AEC08839910509F413C189399105ECF432
:1050B0008837910509F4ABC0893791054CF48836DF
:1050C000910509F4A4C08037910509F014C19FC06F
:1050D0008838910509F4FCC08039910509F49DC018
:1050E0008038910509F007C198C0803B910509F40B
:1050F000C6C0813B91054CF4803A910509F49FC0EC
:10510000883A910509F0F7C0BAC0803C910509F4CE
:10511000E3C0883C910509F4DFC0883B910509F0A4
:10512000EAC0C2C08091A3048093BB00CFC090911D
:10513000CA048091CB04981768F49091CA04E92FAF
:10514000F0E0E655FB4F80818093BB009F5F90931A
:10515000CA04BCC08091A404882309F44BC085ED27
:105160008093BC008091BC0084FDFCCFC2C080E273
:1051700080930F0585ED8093BC008091BC0084FD79
:10518000FCCFB7C080E380930F0585ED8093BC0012
:105190008091BC0084FDFCCFACC088E380930F05F8
:1051A0009BC08091CA049091BB00E82FF0E0E655C7
:1051B000FB4F90838F5F8093CA049091CA048091C3
:1051C000CB0482C08091CA049091BB00E82FF0E02C
:1051D000E655FB4F90838F5F8093CA048091A404AF
:1051E000882341F085ED8093BC008091BC0084FD54
:1051F000FCCF7FC081E08093A50484EA6EC085ED7A
:105200008093BC008091BC0084FDFCCF72C083E021
:105210008093A20410920E0559C080910E05803231
:1052200008F056C080910E059091BB00E82FF0E089
:10523000E251FB4F90838F5F80930E0547C08091B2
:105240000E05803230F4E0910E05F0E0E251FB4FA4
:10525000108285ED8093BC008091BC0084FDFCCF62
:105260001092A20460910E05E091A804F091A904A7
:105270008EEE94E070E0099510920E052DC084E04A
:105280008093A2041092EC041092ED04E091A60425
:10529000F091A70409958091ED04882329F481E019
:1052A0008093ED041092CC049091EC04E92FF0E08F
:1052B000E453FB4F80818093BB009F5F9093EC048D
:1052C0009091EC048091ED04981710F485EC01C0E6
:1052D00085E88093BC000FC085EC8093BC0009C0BA
:1052E00010920F0585ED8093BC008091BC0084FD79
:1052F000FCCF1092A204FF91EF91BF91AF919F91CB
:105300008F917F916F915F914F913F912F910F906E
:105310000FBE0F901F9018951092A20481E0809309
:10532000A4041092A50482E161E00E94F22D83E1C1
:1053300061E00E94F22DE9EBF0E080818E7F8083B6
:1053400080818D7F80838CE08093B80085E480939A
:10535000BC0008950F931F93DC019B01433018F0AC
:1053600020E030E045C04150642F70E084E190E0DF
:10537000689FF001699FF00D789FF00D1124EA0FEE
:10538000FB1F86A5882339F546A732A721A7B5A715
:10539000A4A7442339F408E01DE05AE049E03BE0CB
:1053A0002CE008C0413031F402E017E054E043E063
:1053B00035E026E084E190E0689FF001699FF00D00
:1053C000789FF00D1124EA0FFB1F03A316A354A32B
:1053D00045A337A320A784E190E0689F9001699FCF
:1053E000300D789F300D1124255E3F4F2A0F3B1F53
:1053F000C9011F910F9108958D5B9F4F442319F4AC
:1054000040E050E002C040E050E120E030E00E9487
:10541000BB2B08959A018D5B9F4F40E120303407EC
:1054200028F040E050E120E030E002C040E050E0F1
:105430000E94BB2B08950F931F93CF93DF93EC0132
:10544000042F413041F49889892F86958695869559
:1054500080FF0AC012C0423069F49889892F86956E
:105460008695869580FF09C0613011F4905F08C071
:10547000905106C0433041F49889613019F4985F27
:10548000988B48C09850FCCF443009F043C09889AD
:10549000613011F49F5F01C09150988BA889AF7360
:1054A000A88BA03148F4B0E0EEEEF1E0EA1BFB0B74
:1054B0004081A252BE4F19C08A2F8051803148F4DA
:1054C0008A2F90E0FC01E253FE4F4081EEEFF1E0C5
:1054D0001DC08A2F8052803150F4B0E0EEE0F2E03F
:1054E000EA1BFB0B4081A254BE4F1C9115C08A2FB2
:1054F0008053803118F010E040E00EC08A2F90E019
:10550000FC01E255FE4F4081EEE1F2E0E81BF90BB1
:10551000108102C01FEF4FEF88898F73888B50E096
:1055200024E0440F551F2A95E1F789899A896885F7
:105530000E940A2A412F50E094E0440F551F9A958B
:10554000E1F789899A896B850E940A2A9889043033
:10555000A1F4903110F423E001C020E0892F8051A4
:10556000803108F42660892F8052803108F42C6045
:105570009053903148F5296027C0892F86958695EC
:1055800086958330C1F0843028F4813081F08230F8
:1055900080F409C0853099F0853078F0863089F044
:1055A000873019F410C021E00FC020E00DC023E0C7
:1055B0000BC022E009C026E007C024E005C02CE0B3
:1055C00003C028E001C029E0122F89899A8920FFB1
:1055D00003C06A8541E002C06A8540E00E94FC2960
:1055E00089899A8911FF03C06C8541E002C06C85EE
:1055F00040E00E94FC2989899A8912FF03C06985CD
:1056000041E002C0698540E00E94FC2989899A89AD
:1056100013FF03C06D8541E002C06D8540E00E942C
:10562000FC298889DF91CF911F910F910895CF9226
:10563000DF92EF92FF920F931F93CF93DF938C0132
:105640006B0186E994E00E943727E801CD5BDF4FCC
:10565000CE010E948C2CF801D282C182EE24FF245C
:10566000C701B6010E94E037AB01BC01CE010E9428
:105670001E2C00E0CE01602F40E050E020E030E042
:105680000E94BB2B0F5F0031A9F7DF91CF911F91D3
:105690000F91FF90EF90DF90CF900895DF92EF92FF
:1056A000FF920F931F93DF93CF930F92CDB7DEB787
:1056B0007C01D62EFC01339680E090E014821382A8
:1056C00015821282118210820696369688319105D3
:1056D000A9F7F70113A616A612A611A617AE82E423
:1056E00090E0E80EF91EF70110828EEB9FEFE80EB6
:1056F000F91EF70116AE15AE87010D5B1F4FC801ED
:1057000060E40E94962BF701D082CE0101966D2DA8
:105710000E94962B8981F80180830F90CF91DF91B1
:105720001F910F91FF90EF90DF900895FC0160832F
:105730000895EF92FF920F931F93FC01F62EE42E33
:1057400006E914E0C80160810E945D26C8016F2D42
:105750000E94DF26C8016E2D0E94DF26C8010E942C
:1057600022271F910F91FF90EF90089560E040E095
:105770000E94992B0895AF92BF92CF92DF92EF9241
:10578000FF920F931F93FC01062FD42EC52EB22E2D
:10579000A32E96E9E92E94E0F92EC70160810E94BC
:1057A0005D2610E0000F111F000F111F0A5F1F4F31
:1057B000C701602F0E94DF26C7016D2D0E94DF26E2
:1057C000C7016C2D0E94DF26C7016B2D0E94DF26CA
:1057D000C7016A2D0E94DF26C7010E9422271F9160
:1057E0000F91FF90EF90DF90CF90BF90AF90089512
:1057F000DF92EF92FF920F931F938C01D62E26E932
:10580000E22E24E0F22EC701F80160810E945D269D
:10581000C7016D2D0E94DF26C7010E942227C70104
:10582000F801608141E00E943327C7010E94702681
:105830001F910F91FF90EF90DF900895AF92BF926C
:10584000CF92DF92EF92FF920F931F935C019A0128
:10585000AB0160E27CEB8EEB95E40E94473720E0E1
:1058600030E040E85FE30E94DE367B018C0131EAE4
:10587000C32E35E0D32EC60160E771E00E942C32C2
:10588000C601B801A70122E030E00E941633C8012A
:10589000B70120E030E040E05FE30E94DF360E9485
:1058A0001D380E94B4377B018C01C60166E871E0A7
:1058B0000E942C32C6016E2D4AE050E00E948831D1
:1058C000C50160E00E94F82BD82E482F4F7640612A
:1058D000C50160E00E94992BC5016EEF4E2D0E941C
:1058E000992BC50160E04D2D0E94992B65E070E079
:1058F00080E090E00E94152D81EAD82AC50160E081
:105900004D2D0E94992B1F910F91FF90EF90DF90EA
:10591000CF90BF90AF9008950F931F938C0186E9AD
:1059200094E00E943727C8010E94B62B1F910F9167
:1059300008951F920F920FB60F9211242F933F9349
:105940008F939F93AF93BF9380911405909115050A
:10595000A0911605B0911705309118050196A11D6B
:10596000B11D232F2D5F2D3720F02D570196A11D3E
:10597000B11D209318058093140590931505A093ED
:105980001605B09317058091100590911105A0910F
:105990001205B09113050196A11DB11D809310054C
:1059A00090931105A0931205B0931305BF91AF9189
:1059B0009F918F913F912F910F900FBE0F901F904D
:1059C00018958FB7F89420911405309115054091E2
:1059D0001605509117058FBFB901CA0108959FB7E9
:1059E000F8942091100530911105409112055091C5
:1059F000130586B5A89B06C08F3F21F02F5F3F4F50
:105A00004F4F5F4F9FBF542F432F322F2227280F16
:105A1000311D411D511D82E0220F331F441F551FB0
:105A20008A95D1F7B901CA0108959B01AC017FB7EE
:105A3000F8948091100590911105A0911205B091F4
:105A4000130566B5A89B05C06F3F19F00196A11D0F
:105A5000B11D7FBFBA2FA92F982F8827860F911DC0
:105A6000A11DB11D62E0880F991FAA1FBB1F6A9577
:105A7000D1F7BC012DC0FFB7F8948091100590912B
:105A80001105A0911205B0911305E6B5A89B05C0BC
:105A9000EF3F19F00196A11DB11DFFBFBA2FA92F2D
:105AA000982F88278E0F911DA11DB11DE2E0880F50
:105AB000991FAA1FBB1FEA95D1F7861B970B885E1B
:105AC0009340C8F2215030404040504068517C4FD4
:105AD000211531054105510571F60895019739F0F9
