:100000000C94CD010C94F5010C94F5010C94F501C0
:100010000C94F5010C94F5010C94F5010C94F50188
:100020000C94F5010C94F5010C94F5010C947F25CA
:100030000C94F5010C94F5010C94F5010C94F50168
:100040000C9427280C94F5010C94D5290C94232AA0
:100050000C94F5010C94F5010C94F5010C94F50148
:100060000C94F5010C94F5016D61784C656E677424
:10007000683A20004669727374207761766520685B
:10008000616C66004D53472C492C596F7520707276
:100090006F6261626C7920776F6E27742067657478
:1000A00020616E792064657461696C20696E2074CA
:1000B0006869732E0020697320002C20726F7753BB
:1000C000697A653A20004D53472C492C4D617820C0
:1000D00064656E7369747920666F722070656E5303
:1000E000697A653A20004D53475F494E464F5F534A
:1000F0005452506F776572696E6720646F776E2E09
:10010000004C696E65206973206E6F74206F6E20DD
:1001100074686520706167652E20536B6970706923
:100120006E672069742E005468697320706F696E61
:10013000742066616C6C73206F75747369646520DC
:100140007468652061726561206F662074686973E8
:10015000206D616368696E652E20536B69707069EC
:100160006E672069742E006D6D004368616E67656F
:10017000642050656E20776964746820746F200075
:100180004E657720616363656C3A20004E65772089
:100190006D61782073706565643A20005047535054
:1001A0004545442C0050474C4946542C0050475379
:1001B0005445504D554C5449504C4945522C0050D3
:1001C0004753544550535045525245562C005047C2
:1001D0004D4D5045525245562C00504753495A45B3
:1001E0002C0029007061676548656967687420693B
:1001F0006E207374657073202800526563616C63B0
:1002000020002900526563616C6320706167655747
:100210006964746820696E207374657073202800A7
:100220002900292C2073746570735065724D4D2020
:100230002800526563616C63206D6D506572537464
:1002400065702028004C6F6164656420737465706C
:10025000206D756C7469706C6965723A004C6F61E1
:1002600064656420757020706F733A004C6F616430
:10027000656420646F776E20706F733A004C6F6115
:100280006465642073746570732070657220726594
:10029000763A004C6F61646564206D6D50657252F2
:1002A00065763A004C6F61646564206865696768CB
:1002B000743A004C6F616465642077696474683ACD
:1002C00000206E6F74207265636F676E697365647A
:1002D0002E00524553454E440044524157494E4723
:1002E0000052454144590029206E6F74207061729C
:1002F0007365642E00436F6D6D20280000000000C0
:10030000240027002A0000000000250028002B0000
:100310000000000023002600290004040404040453
:1003200004040202020202020303030303030102A4
:100330000408102040800102040810200102040873
:100340001020000000070002010000030406000066
:10035000000000000000494E46494E4954594E41A4
:100360004ECDCCCC3D0AD7233C17B7D13877CC2B18
:10037000329595E6241FB14F0A000020410000C8C5
:100380004200401C4620BCBE4CCA1B0E5AAEC59D46
:100390007400420750268F2B3B0711241FBECFEF5E
:1003A000D8E0DEBFCDBF12E0A0E0B1E0E8EAFBE6B6
:1003B00002C005900D92A431B107D9F714E0A4E171
:1003C000B2E001C01D92AD3BB107E1F713E0C8E90F
:1003D000D3E004C02297FE010E948135C239D107C3
:1003E000C9F70E94E52B0C94C7350C940000A0E0DF
:1003F000B0E0EDEFF1E00C949835EC01A880B98005
:10040000CA80DB80A114B104C104D10441F484E2A8
:10041000A82E89EDB82E8BE5C82E87E0D82EC60110
:10042000B5012DE133EF41E050E00E94503527EA5D
:1004300031E440E050E00E94F0347B018C01C601C1
:10044000B5012DE133EF41E050E00E945035CA0183
:10045000B9012CEE34EF4FEF5FEF0E94F0346E0DD8
:100460007F1D801F911F97FF04C061507040804026
:100470009048688379838A839B839B01AC015F7773
:10048000B901CA01CDB7DEB7EAE00C94B4350E94D9
:10049000F701089580E991E00E94F70108956093C3
:1004A000900170939101809392019093930108952C
:1004B000662777270C943603FC0188279927E89450
:1004C00021912032E9F3293010F02E30C8F32B327D
:1004D00041F02D3239F4689404C00E942E03820F3B
:1004E000911D219120532A30C0F31EF490958195DF
:1004F0009F4F08951F93FC0199278827BC01E8941A
:1005000011911032E9F3193010F01E30C8F31B328C
:1005100051F01D3249F4689406C00E941903610F1E
:10052000711D811D911D119110531A30B0F33EF4CD
:1005300090958095709561957F4F8F4F9F4F1F913C
:10054000089544E152E00E94E7020895FB01DC01B6
:1005500002C001900D9241505040D8F70895FB0120
:10056000DC018D91019080190110D9F3990B089548
:10057000FB01DC0101900D920020E1F70895FB01E1
:10058000DC014150504030F08D910190801919F4F8
:100590000020B9F7881B990B0895FB015191552351
:1005A000A9F0BF01DC014D9145174111E1F759F464
:1005B000CD010190002049F04D9140154111C9F342
:1005C000FB014111EFCF81E090E001970895009782
:1005D00031F4DA018D919C91009709F40EC0DC0191
:1005E000FB013D912191222319F03217C9F3FACF73
:1005F000332331F4DA011D921C928827992708953C
:100600001197AF93BF93FB013D912191321771F484
:10061000332321F488279927119702C01E9211963F
:10062000FA01A193B0839F918F910895222369F7D6
:10063000EACF592F482F372F262F660F771F881F95
:10064000991F660F771F881F991F620F731F841FE2
:10065000951F660F771F881F991F08957AE0979F4F
:10066000902D879F802D910D11240895A0E0B0E07A
:10067000ECE3F3E00C949635EC015B016115710538
:1006800019F0FB0191838083F9908F2D90E00E94F7
:100690008535892BC9F7FDE2FF1621F4F990EE2488
:1006A000E39405C02BE2F21609F4F990EE248E01D2
:1006B00001501040C80166E573E043E050E00E943D
:1006C0009604892B01F58E010E5F1F4FC80169E565
:1006D00073E045E050E00E949604892B19F48E01E6
:1006E000095F1F4FA114B10419F0F50111830083B4
:1006F000E0FC04C070E090E080E814C070E090E09E
:1007000080E86FEF08C1C8016EE573E043E050E098
:100710000E949604892B69F4A114B10429F470E0B5
:1007200090E080EC6FE7F7C02296F501D183C0839B
:10073000F6CF8824992440E050E060E070E0EF2D8F
:10074000E053EA30A0F5F2E0EF2A8E2D90E09C0114
:1007500028703070E2FE06C0232B79F50894811CC6
:10076000911C2BC0232B19F0089481089108DB0100
:10077000CA0112E0880F991FAA1FBB1F1A95D1F753
:10078000480F591F6A1F7B1F440F551F661F771F95
:100790004E0F511D611D711D483929E9520729E984
:1007A000620729E1720748F084E0E82A06C0EE3FBC
:1007B00031F4E3FC39C098E0E92AF990C0CFE53381
:1007C00011F0E53189F529912D3219F4E0E1EE2A95
:1007D00005C02B3219F081E090E003C0299182E03E
:1007E00090E0E22FE053EA3018F0C81BD90B1CC090
:1007F00020E030E0FCE020383F075CF4C901880FBE
:10080000991F880F991F280F391F220F331F2E0F92
:10081000311DE991E053EA3068F3E4FE03C03095FE
:1008200021953F4F820E931ECE2CDD24E1FE07C0A2
:10083000A114B10421F02197F501D183C083CB012C
:10084000BA010E946E337B018C01F3E0CF22DD24DC
:1008500023E0C216D10421F417FB109517F9109567
:1008600057016801C801B70120E030E040E050E0E6
:100870000E94D132882309F44AC097FE0DC025E7B3
:10088000E22E23E0F22E9094819491089394C0E29A
:10089000D0E000E010E012C09DE8E92E93E0F92ED0
:1008A000F6CFF7012591359145915491C601B501D7
:1008B0000E9424345B016C018C1A9D0A8C169D06E3
:1008C00084F7D595C7950F5F1F4F0630110529F0A6
:1008D0008CEF9FEFE80EF91EF1CFC501D6017C0128
:1008E0008D018C2D880F8D2D881F8F3F51F0C601F3
:1008F000B50120E030E040E050E00E94D132882392
:1009000031F482E290E09093BC048093BB047E2D8E
:100910009F2D802F612F272F392F482F562FB90158
:10092000CA01CDB7DEB7ECE00C94B235FB01DC01B7
:100930004150504088F08D9181341CF08B350CF47F
:10094000805E659161341CF06B350CF4605E861B33
:10095000611171F3990B0895881BFCCFAF92BF9280
:10096000CF92DF92EF92FF920F931F936E157F0548
:100970008007910734F42E153F054007510764F4B2
:100980002CC0E616F7060807190794F4A216B3065A
:10099000C406D5063CF423C0A216B306C406D50689
:1009A000BCF41FC02A153B054C055D05C4F41BC0F3
:1009B0006E157F058007910791F42A153B054C05BC
:1009C0005D058CF0A216B306C406D50644F409C032
:1009D0002A153B054C055D0511F484E005C082E055
:1009E00003C083E001C081E01F910F91FF90EF9061
:1009F000DF90CF90BF90AF9008956F927F928F92CB
:100A00009F92AF92BF92CF92DF92EF92FF920F939D
:100A10001F93CF93DF937C015B01662757FD6095A1
:100A2000762FCB01BA010E9470333B014C010027A5
:100A3000F7FC0095102FC801B7010E9470337B01AD
:100A40008C01CC24B7FCC094DC2CC601B5010E94FB
:100A500070339B01AC01C801B7010E94D532A401DB
:100A600093010E9424349B01AC01C401B3010E9494
:100A70006C327B018C010E943D33EB01BE01882763
:100A800077FD8095982F0E9470339B01AC01C801BF
:100A9000B7010E946C3220E030E040E05FE30E944A
:100AA000203418160CF42196CE01DF91CF911F91BE
:100AB0000F91FF90EF90DF90CF90BF90AF909F90FD
:100AC0008F907F906F9008952F923F924F925F92F8
:100AD0006F927F928F929F92AF92BF92CF92DF924E
:100AE000EF92FF920F931F931B012C0139014A01D2
:100AF000609122027091230280912402909125023C
:100B00000E9470337B018C01A80197010E9424345C
:100B10005B016C01C401B301A40193010E94243460
:100B20009B01AC01C601B5010E946C325B016C01F6
:100B3000C201B101A20191010E9424349B01AC01C8
:100B4000C601B5010E946D325B016C01C801B7019D
:100B5000A80197010E946D329B01AC01C601B5014D
:100B60000E94D5321F910F91FF90EF90DF90CF90B0
:100B7000BF90AF909F908F907F906F905F904F90BD
:100B80003F902F900895AF92BF92CF92DF92EF9255
:100B9000FF920F931F938130910509F00CC16F5F95
:100BA0007F4F09F05FC18DE093E060E071E00E944B
:100BB000363086E192E00E940824A0909601B09021
:100BC0009701C0909801D090990160919A0170E0CE
:100BD00080E090E02091940130919501442737FD09
:100BE0004095542F0E94F0340E9470337B018C0199
:100BF000C601B501A80197010E94D53260931A027F
:100C000070931B0280931C0290931D02C801B701D0
:100C1000A60195010E94D5327B018C0160931E02D2
:100C200070931F0280932002909321026091B9017A
:100C30007091BA01882777FD8095982F0E947033B4
:100C4000A80197010E9424340E943D336093220240
:100C50007093230280932402909325026091BB013C
:100C60007091BC01882777FD8095982F0E94703382
:100C7000A80197010E9424340E943D33609326020C
:100C800070932702809328029093290284E193E0D5
:100C900067E071E00E9436308BE193E06BE071E039
:100CA0000E94363082E293E06FE071E00E943630BD
:100CB00089E293E063E171E00E94363080E393E0E3
:100CC00067E171E00E94363087E393E06BE171E009
:100CD0000E9436308EE393E06FE171E00E9436307F
:100CE00085E493E063E271E00E9436308CE493E0A7
:100CF00067E271E00E94363083E593E06BE271E0D9
:100D00000E9436308AE593E06FE271E00E9436304F
:100D100081E693E063E371E00E94363088E693E079
:100D200067E371E00E9436308FE693E06BE371E099
:100D30000E94363086E793E06FE371E00E94363020
:100D40008DE793E063E471E00E94363084E893E03D
:100D500067E471E00E9436308BE893E06BE471E069
:100D60000E94363082E993E06FE471E00E943630F1
:100D700060919401709195018DE692E041E00E94AE
:100D8000B927609194017091950189E792E042E062
:100D90000E94B92785E892E069E27BE142E25BE1EB
:100DA0000E944B1F89EC92E06BE17BE144E15BE147
:100DB0000E944B1F57C0892B09F054C06F5F7F4FB3
:100DC00009F050C082E993E00E9450308BE893E034
:100DD0000E94503084E893E00E9450308DE793E009
:100DE0000E94503086E793E00E9450308FE693E0F7
:100DF0000E94503088E693E00E94503081E693E0F4
:100E00000E9450308AE593E00E94503083E593E0E1
:100E10000E9450308CE493E00E94503085E493E0CF
:100E20000E9450308EE393E00E94503087E393E0BD
:100E30000E94503080E393E00E94503089E293E0BA
:100E40000E94503082E293E00E9450308BE193E0A8
:100E50000E94503084E193E00E9450308DE093E096
:100E60000E9450301F910F91FF90EF90DF90CF9034
:100E7000BF90AF90089580E090E06FEF7FEF0E9409
:100E8000C305089581E090E06FEF7FEF0E94C305F6
:100E90000895AF92BF92CF92DF92EF92FF920F939D
:100EA0001F937B018C01CA01B9010E9424345B01AC
:100EB0006C01C801B701A80197010E9424349B016D
:100EC000AC01C601B5010E946C320E948B341F91A7
:100ED0000F91FF90EF90DF90CF90BF90AF9008956B
:100EE000AF92BF92CF92DF92EF92FF920F931F9338
:100EF0007B018C0159016A016091220270912302E9
:100F000080912402909125020E947033A8019701DC
:100F10000E946C329B01AC010E9424347B018C0145
:100F2000C601B501A60195010E9424349B01AC01C4
:100F3000C801B7010E946D320E948B341F910F913E
:100F4000FF90EF90DF90CF90BF90AF900895AF9259
:100F5000BF92CF92DF92EF92FF920F931F937B018C
:100F60008C0159016A01A80197010E9424347B0178
:100F70008C01C601B501A60195010E9424349B0194
:100F8000AC01C801B7010E946D320E948B341F91E1
:100F90000F91FF90EF90DF90CF90BF90AF900895AA
:100FA0002F923F924F925F926F927F928F929F9279
:100FB000AF92BF92CF92DF92EF92FF920F931F9367
:100FC000DF93CF9300D000D0CDB7DEB769837A83AB
:100FD0008B839C8359016A011701280161157105F2
:100FE0008105910559F40F2EF0E0EF2EF0E0FF2E71
:100FF000F0E00F2FF0E01F2FF02DA4C0CA01B901BF
:101000000E9424347B018C01C601B50120E030E050
:1010100040E050E00E94D132882324F417FB109561
:1010200017F91095C201B101A20191010E946D3220
:101030003B014C01C801B701A40193010E94D532C4
:101040007B018C0169817A818B819C810E94703344
:101050009B01AC01C801B7010E94D1328823B4F5CD
:10106000C601B50120E030E040E050E00E94D132FE
:10107000882329F4C401B3010E948B340DC0C2013E
:10108000B101A60195010E94D5329B01AC015F77A9
:10109000C601B5010E946D327B018C01D0909B018D
:1010A000C0909C01B0909D01A0909E012D2D3C2DE3
:1010B0004B2D5A2D0E94203418160CF043C08D2D54
:1010C0009C2DAB2DBA2D7C018D013CC0C601B50114
:1010D00020E030E040E050E00E94D132882359F413
:1010E000C401B3010E948B347B018C0117FB109566
:1010F00017F910950FC0C201B101A60195010E9418
:10110000D5329B01AC015F77C601B5010E946C32FC
:101110007B018C0180919B0190919C01A0919D018C
:10112000B0919E015C016D01D7FAD094D7F8D094AC
:10113000C801B701A60195010E94D132882314F499
:1011400086017501B701C8010F900F900F900F90A5
:10115000CF91DF911F910F91FF90EF90DF90CF9093
:10116000BF90AF909F908F907F906F905F904F90C7
:101170003F902F9008958091AA018823C1F185E9BD
:1011800094E063E571E00E94BA2D85E892E00E9448
:10119000A51D20919A0130E040E050E00E945035BA
:1011A00085E994E0BA01A9012AE030E00E94342DDB
:1011B00085E994E066EE71E00E94BA2D89EC92E038
:1011C0000E94A51D20919A0130E040E050E00E946D
:1011D000503585E994E0BA01A9012AE030E00E9487
:1011E000342D85E994E068EE71E00E94B72E0895F1
:1011F000EF92FF920F931F9380912A0290912B02FE
:10120000A0912C02B0912D020097A105B10509F023
:1012100040C060912202709123028091240290913B
:1012200025020E9470337B018C016091260270912F
:10123000270280912802909129020E9470339B011D
:10124000AC01C801B7010E94A70720E030E040E0F0
:101250005FE30E946D320E943D3360932A027093D7
:101260002B0280932C0290932D0285E994E068E68E
:1012700070E00E941E2C40912A0250912B02609136
:101280002C0270912D0285E994E02AE030E00E9462
:10129000742D60912A0270912B0280912C02909102
:1012A0002D021F910F91FF90EF90089589E993E02F
:1012B0000E945C028093BD0187EA93E00E945C0279
:1012C0009093C0018093BF01089585E994E061EE99
:1012D00072E00E94612C08950F931F9389E993E0B7
:1012E0000E9458026093A6017093A7018093A80101
:1012F0009093A90105E914E0C8016AE671E00E9433
:101300001E2C4091A6015091A7016091A8017091F7
:10131000A901C80122E030E00E94A12EC80167E6C1
:1013200071E00E94612C1F910F9108958F929F92FE
:10133000AF92BF92CF92DF92EF92FF920F931F93E3
:10134000CF93DF935B016C014A01BA01882777FDD7
:101350008095982F0E94703320911A0230911B02C1
:1013600040911C0250911D020E942434A601950157
:101370000E94D5327B018C0120E030E040E050E457
:101380000E94203487FF03C0C1E0D0E008C0C8013C
:10139000B7010E943D33EB0163307105E4F585E947
:1013A00094E069E571E00E94BA2D85E994E0B80106
:1013B000A70122E030E00E94A42E85E994E066ECCB
:1013C00070E00E941E2C85E994E0B601A50122E0A0
:1013D00030E00E94A12E85E994E06AEB70E00E9463
:1013E0001E2C85E994E0B4014AE050E00E94882D6B
:1013F00085E994E065EB70E00E941E2C85E994E09D
:10140000BE014AE050E00E949B2D85E994E064E82B
:1014100070E00E94612CCE01DF91CF911F910F915E
:10142000FF90EF90DF90CF90BF90AF909F908F9004
:1014300008958AE892E09093CC018093CB01909339
:10144000CE018093CD018FE590E09093C801809309
:10145000C70180E991E09093CA018093C90181E0BE
:1014600090E09093C6018093C50164EF71E080E045
:1014700090E00E94A3280895AF92BF92CF92DF928E
:10148000EF92FF920F931F93CF93DF93EC015B01D9
:101490006A0186E192E069E070E00E947825CA1551
:1014A000DB059CF476010027F7FC0095102F86E100
:1014B00092E0BE010E949124C801B7010E94A328B6
:1014C0002196AC16BD069CF712C076010027F7FCEA
:1014D0000095102F86E192E0BE010E949124C80180
:1014E000B7010E94A3282197CA15DB059CF786E166
:1014F00092E00E942224DF91CF911F910F91FF90E3
:10150000EF90DF90CF90BF90AF900895CF93DF938F
:1015100080912E02909119028230B0F0992329F027
:10152000C091C101D091C20104C0C091C301D0914A
:10153000C40189E993E00E945C02BC019093C4015C
:101540008093C301CE010AC0913061F46091C30160
:101550007091C4018091C1019091C20143E050E0BB
:101560000E943C0A10921902DF91CF910895CF9307
:10157000DF9380912E02909119028230B0F099236E
:1015800029F0C091C101D091C20104C0C091C30132
:10159000D091C40189E993E00E945C02BC01909360
:1015A000C2018093C101CE010AC0992361F4609108
:1015B000C1017091C2018091C3019091C40143E0C7
:1015C00050E00E943C0A81E080931902DF91CF91A4
:1015D000089585E892E00E94332289EC92E00E940F
:1015E00033220E94B70A109268020895EF92FF9288
:1015F0000F931F930E946F289B01AC01E090630240
:10160000F090640200916502109166028091670279
:101610008823E9F0809168028823C9F02E193F09D8
:10162000400B510B8091AE019091AF01A091B001A0
:10163000B091B10182179307A407B50744F485E977
:1016400094E066EE70E00E94612C0E94E90A1F910E
:101650000F91FF90EF900895CF93DF93EC01AB01D2
:10166000662757FD6095762F0E943C1F09C00E9497
:10167000F60A8091AB01882319F0CE010E94CC2399
:10168000CE010E94951D611571058105910579F7BF
:101690000E946F28609363027093640280936502D6
:1016A00090936602DF91CF9108958F929F92AF92AF
:1016B000BF92CF92DF92EF92FF920F931F93CF933F
:1016C000DF935C016B01EA014901E114F104C9F403
:1016D00085E994E064E770E00E94612C8091BE018E
:1016E000882331F0CE0162E070E00E941B352BC0F0
:1016F000CE0162E070E00E941B35709561957F4FCE
:1017000022C08091BE01E016F106A1F4882331F0D9
:10171000CA0162E070E00E941B3508C0CA0162E0A5
:1017200070E00E941B35709561957F4FC6010E9445
:101730002C0B1AC0882319F0CB01BA0105C066270B
:101740007727641B750BC6010E942C0BC501B401E1
:101750000E942C0B8091BE01882319F01092BE01CB
:1017600003C081E08093BE01DF91CF911F910F9163
:10177000FF90EF90DF90CF90BF90AF909F908F90B1
:1017800008953F924F925F926F927F928F929F92B5
:10179000AF92BF92CF92DF92EF92FF920F931F937F
:1017A000DF93CF93CDB7DEB728970FB6F894DEBF9F
:1017B0000FBECDBFFC012B014A01322E14161506B7
:1017C0000CF08DC0BA010E941B353B01CF01B40162
:1017D0000E941B35AA2797FDA095BA2FBC01CD0109
:1017E0000E9470337B018C01B401882777FD8095BE
:1017F000982F0E9470339B01AC01C801B7010E9471
:10180000D53269837A838B839C830F2EF0E0AF2ED1
:10181000F0E0BF2EF0E0CF2EF0E0DF2EF02D1886A6
:101820001F82C30101969E838D83C601B501298164
:101830003A814B815C810E946D325B016C0120E03A
:1018400030E040E85FE30E94203487FF02C0F301EC
:101850000CC0C601B50120E030E040E85FE30E9423
:101860006C325B016C01ED81FE8192E0391629F446
:1018700085E892E069EC72E007C0A3E03A1639F41B
:1018800089EC92E065E872E0A2019F0118C0B4E023
:101890003B1649F4222733272E1B3F0B85E892E0A5
:1018A00069EC72E00BC081E0381671F4222733270F
:1018B0002E1B3F0B89EC92E065E872E0A2018401E7
:1018C000EF80F8840E94550B0E94BB08AF81B88559
:1018D0001196B887AF838A169B060CF0A6CF289680
:1018E0000FB6F894DEBF0FBECDBFCF91DF911F9131
:1018F0000F91FF90EF90DF90CF90BF90AF909F90AF
:101900008F907F906F905F904F903F9008953F929F
:101910004F925F926F927F928F929F92AF92BF92FF
:10192000CF92DF92EF92FF920F931F93DF93CF93AB
:1019300000D000D000D0CDB7DEB789E993E00E9497
:101940005C02E0909A01FF2400E010E09C01442733
:1019500037FD4095542FC801B7010E94F0347E83B3
:101960006D8387EA93E00E945802162F072FF82E06
:10197000E92E85EB93E00E9458022B013C0183EC99
:1019800093E00E9458024B015C013090BD0182E05F
:101990008093BD018091A6019091A701A091A8011B
:1019A000B091A90189839A83AB83BC83212F302F07
:1019B0004F2D5E2DC901DA017C018D01CC24DD247F
:1019C00020C00894C11CD11CE092A601F092A7018E
:1019D0000093A8011093A901C801B7014D815E8150
:1019E0000E949609AC018D819E81BC0122E00E947B
:1019F000C10BC801B701A50194010E946D327B01A2
:101A00008C01C801B701A30192010E94D1321816BE
:101A1000C4F689819A81AB81BC818093A6019093A1
:101A2000A701A093A801B093A901ED80FE80F094D6
:101A3000E194F108F39489EC92E0B7010E942C0B39
:101A40008D819E8162E070E00E941B3570956195EA
:101A50007F4F4B018D819E8162E070E00E941B35BB
:101A60005B0101E010E011C089EC92E0B4010E943A
:101A70002C0B85E892E0B7010E942C0B89EC92E0D8
:101A8000B5010E942C0B0F5F1F4FC016D10664F7E3
:101A900089819A81AB81BC818093A6019093A70133
:101AA000A093A801B093A9013092BD0126960FB66C
:101AB000F894DEBF0FBECDBFCF91DF911F910F9184
:101AC000FF90EF90DF90CF90BF90AF909F908F905E
:101AD0007F906F905F904F903F9008952F923F922C
:101AE0004F925F926F927F928F929F92AF92BF922E
:101AF000CF92DF92EF92FF920F931F937B018C01A5
:101B000059016A010E946F28609363027093640216
:101B1000809365029093660285E892E00E948D2092
:101B20001B012C0189EC92E00E948D203B014C01AD
:101B300085E892E040E050E060E070E00E9408201C
:101B400089EC92E040E050E060E070E00E94082004
:101B5000C801B7010E9470330E943D33AB01BC0144
:101B600085E892E00E942A1FC601B5010E947033E9
:101B70000E943D33AB01BC0189EC92E00E942A1F18
:101B80008091A301882309F042C085E892E00E9479
:101B90008D2020E030E040E050E00E94D1328823E8
:101BA00024F457FA509457F8509489EC92E00E942C
:101BB0008D2020E030E040E050E00E94D1328823C8
:101BC00024F497FA909497F8909485E892E0B20103
:101BD000A1010E94082089EC92E0B401A3010E94B7
:101BE000082015C08091A301882349F085E892E080
:101BF0000E94CC2389EC92E00E94CC2308C085E8A7
:101C000092E00E94A82389EC92E00E94A82385E834
:101C100092E00E94951D611571058105910549F4B9
:101C200089EC92E00E94951D611571058105910571
:101C300039F00E94F60A8091AB01882341F3D2CF9C
:101C40000E94BB081F910F91FF90EF90DF90CF9003
:101C5000BF90AF909F908F907F906F905F904F90CC
:101C60003F902F9008952F923F924F925F926F92E4
:101C70007F928F929F92AF92BF92CF92DF92EF921C
:101C8000FF920F931F93DF93CF9300D000D0CDB777
:101C9000DEB73B014C0159016A01FA82E982C801B1
:101CA00062E070E00E941B35882777FD8095982FB1
:101CB000661A770A880A990AA61AB70AC80AD90AB8
:101CC0001C821B821801442437FC4094542C2EC0E3
:101CD00060E070E080E090E0A20191010E94682F36
:101CE0007B018C0160E070E080E090E0A201910156
:101CF0000E94682F9B01AC010027F7FC0095102F74
:101D0000E60CF71C081D191D442737FD4095542F7C
:101D10002A0D3B1D4C1D5D1DC801B7010E946E0DB3
:101D20002B813C812F5F3F4F3C832B838B819C8198
:101D3000E981FA81E817F9075CF60F900F900F9090
:101D40000F90CF91DF911F910F91FF90EF90DF9057
:101D5000CF90BF90AF909F908F907F906F905F904B
:101D60004F903F902F9008952F923F924F925F9205
:101D70006F927F928F929F92AF92BF92CF92DF929B
:101D8000EF92FF920F931F93DF93CF93CDB7DEB700
:101D90002C970FB6F894DEBF0FBECDBF89E993E054
:101DA0000E947A026D837E838F839887A0909A0128
:101DB000BB24CC24DD2487EA93E00E947A02698365
:101DC0007A838B839C8385EB93E00E945C02AA2735
:101DD00097FDA095BA2FBC01CD01A60195010E94E7
:101DE000F0347B018C013B0183EC93E00E945C02A8
:101DF0002C016091A6017091A7018091A80190919A
:101E0000A901A7010E949609AC01C2016FEF70E021
:101E10000E94FD047C01C601B5012D813E814F81E8
:101E200058850E94F03469877A878B879C87C60122
:101E3000B50129813A814B815C810E94F0341B01FC
:101E40002C01882477FC8094982CC401B3010E9453
:101E500070332DEC3CEC4CE85FE30E9424340E948C
:101E60003D335B016C0169857A858B859C85A20178
:101E7000910185010E94330E2C960FB6F894DEBFB7
:101E80000FBECDBFCF91DF911F910F91FF90EF90CB
:101E9000DF90CF90BF90AF909F908F907F906F908A
:101EA0005F904F903F902F9008952F923F924F92C6
:101EB0005F926F927F928F929F92AF92BF92CF92DA
:101EC000DF92EF92FF920F931F93DF93CF93CDB7E3
:101ED000DEB72A970FB6F894DEBF0FBECDBF89E9F3
:101EE00093E00E947A029B01AC01E0909A01FF24EA
:101EF00000E010E0C801B7010E94F0346D837E83DA
:101F00008F83988787EA93E00E947A029B01AC0155
:101F1000C801B7010E94F0341B012C0185EB93E04E
:101F20000E945C02AA2797FDA095BA2FBC01CD01A3
:101F3000A80197010E94F0347B018C017C836B83A4
:101F400083EC93E00E945C029A838983C70162E07C
:101F500070E00E941B354B01CB01880F991F3701A0
:101F6000681A790A8091BD018130C1F485E892E058
:101F70000E94A51D7B018C0189EC92E00E94A51DA9
:101F80005B016C016D817E818F819885A201910139
:101F90000E94AE048093BF011092C0012091BF0146
:101FA0003091C00122303105F9F49401442737FD06
:101FB0004095542FED80FE800F811885E21AF30AB8
:101FC000040B150BC301AA2797FDA095BA2FE80EA5
:101FD000F91E0A1F1B1F6D807E808F809884620E01
:101FE000731E841E951E3DC023303105C9F4940133
:101FF000442737FD4095542F62015101A21AB30ABC
:10200000C40AD50AC301AA2797FDA095BA2FA80E26
:10201000B91ECA1EDB1E220E331E441E551E32C0C0
:10202000C401AA2797FDA095BA2FA301662757FDE3
:102030006095762F24303105B9F4ED80FE800F8154
:102040001885E80EF91E0A1F1B1FE41AF50A060B75
:10205000170B6D807E808F809884681A790A8A0AAF
:102060009B0A6201510114C05C016D01A20CB31CFA
:10207000C41CD51CA41AB50AC60AD70A281A390ADC
:102080004A0A5B0AED80FE800F81188537014801FE
:102090006091A6017091A7018091A8019091A9017A
:1020A0004B815C810E949609AC0189819A816FEF16
:1020B00070E00E94FD049A878987C801B701A601D4
:1020C00095010E946E0D89859A8502974CF08B814F
:1020D0009C81BC0149855A852091BF010E94C10B9A
:1020E000C401B301A20191010E946E0D2A960FB6A0
:1020F000F894DEBF0FBECDBFCF91DF911F910F913E
:10210000FF90EF90DF90CF90BF90AF909F908F9017
:102110007F906F905F904F903F902F9008952F92F7
:102120003F924F925F926F927F928F929F92AF9267
:10213000BF92CF92DF92EF92FF920F931F93DF93A4
:10214000CF93CDB7DEB7E0970FB6F894DEBF0FBEE2
:10215000CDBF2B013C019CA28BA20E9464056B8F1A
:102160007C8F8D8F9E8FA30192010E9449076F8BF8
:10217000788F898F9A8FC801B701A60195010E94B7
:1021800064055B016C01A80197010E9449077B016E
:102190008C01C601B50120E030E040EA51E40E9424
:1021A000203418160CF014C26091220270912302A0
:1021B00080912402909125026451704080409040AB
:1021C0000E9470336F8F78A389A39AA3C601B501CB
:1021D0002F8D38A149A15AA10E94D13288230CF039
:1021E000F7C1C801B70120E030E040EA51E40E94A5
:1021F000203418160CF0ECC1609126027091270271
:102200008091280290912902645170408040904052
:102210000E9470332B013C01C801B701A301920158
:102220000E94D13288230CF0D3C16B8D7C8D8D8DB3
:102230009E8D20E030E040EA51E40E9420341816E0
:102240000CF0C6C16B8D7C8D8D8D9E8D2F8D38A130
:1022500049A15AA10E94D13288230CF0B9C16F89DB
:10226000788D898D9A8D20E030E040EA51E40E941B
:10227000203418160CF0ACC16F89788D898D9A8D39
:10228000A30192010E94D13288230CF0A1C11092C7
:10229000AA01C601B5012B8D3C8D4D8D5E8D0E942E
:1022A0006C321B012C01C801B7012F89388D498D73
:1022B0005A8D0E946C323B014C01C201B10120E0F9
:1022C00030E040E050E00E94203418161CF48201F7
:1022D000710106C08201710117FB109517F9109565
:1022E000C401B30120E030E040E050E00E9420341F
:1022F00018161CF4A401930103C0A40193015058C3
:10230000C801B7010E94203418169CF021E030E08B
:102310003E8B2D8BD401C301B0588DA79EA7AFA7CC
:10232000B8ABABA1BCA15D01CC24B7FCC094DC2C44
:102330004EC021E030E03E8B2D8BD201C101B05860
:1023400089A79AA7ABA7BCA7ABA1BCA15D01CC2470
:10235000B7FCC094DC2C06C02D893E892F5F3F4F0F
:102360003E8B2D8BC201B10120E030E040E050E017
:102370000E94203418161CF48201710104C0E9A4E3
:10238000FAA40BA51CA5AD89BE89BD01882777FDE0
:102390008095982F0E9470339B01AC01C801B70152
:1023A0000E94D5327B018C01C601B5010E947033B9
:1023B0009B01AC01C801B7010E942034181664F2D9
:1023C00034C02D893E892F5F3F4F3E8B2D8BC4013A
:1023D000B30120E030E040E050E00E9420341816C5
:1023E0001CF48401730104C0EDA4FEA40FA518A978
:1023F000AD89BE89BD01882777FD8095982F0E9401
:1024000070339B01AC01C801B7010E94D5327B013A
:102410008C01C601B5010E9470339B01AC01C8015B
:10242000B7010E942034181664F22D893E895901A3
:10243000CC24B7FCC094DC2CC601B5010E947033DB
:102440007B018C01C201B101A80197010E94D53224
:102450006D837E838F839887C401B301A8019701A0
:102460000E94D53269837A838B839C831092A30167
:10247000198A1A8A1B8A1C8A19861A861B861C8648
:10248000ADA2BEA2CFA2D8A66B8D7C8D8D8D9E8D68
:102490002D813E814F8158850E946D326B8F7C8FDC
:1024A0008D8F9E8F6F89788D898D9A8D29813A8144
:1024B0004B815C810E946D326F8B788F898F9A8FF0
:1024C0006B8D7C8D8D8D9E8D2F89388D498D5A8D8C
:1024D0000E94A7076D877E878F87988B6B8D7C8D79
:1024E0008D8D9E8D2F89388D498D5A8D0E94700754
:1024F0001B012C0169847A848B849C848DA19EA10C
:10250000AFA1B8A5680E791E8A1E9B1E69897A89BB
:102510008B899C890E9470335B016C0160919F01E3
:102520007091A0018091A1019091A20120E030E082
:1025300040E850E40E9424347B018C01C401B301C3
:10254000A60195010E94D0070E943D33698B7A8BCA
:102550008B8B9C8B0E9470337B018C0185E892E011
:10256000B801A7010E94082089EC92E0B801A701F8
:102570000E9408206D857E858F8598890E943D3355
:102580007B018C01C201B1010E943D339B01AC0172
:10259000C801B7010E946E0D89859A85AB85BC85FF
:1025A0000197A109B10989879A87AB87BC878D8973
:1025B0009E89A985BA858A0F9B1F892B09F064CF54
:1025C00081E08093AA018093A3010E94BB080CC004
:1025D00085E994E062EB71E00E94BA2D85E994E010
:1025E00061E071E00E94612CE0960FB6F894DEBFC6
:1025F0000FBECDBFCF91DF911F910F91FF90EF9054
:10260000DF90CF90BF90AF909F908F907F906F9012
:102610005F904F903F902F9008952F923F924F924E
:102620005F926F927F928F929F92AF92BF92CF9262
:10263000DF92EF92FF920F931F93DF93CF9300D01F
:1026400000D000D0CDB7DEB789E993E00E945802F0
:102650007B018C0160919A0170E0882777FD80955D
:10266000982F0E9470339B01AC01C801B7010E94F2
:1026700024343B014C0187EA93E00E9458027B011D
:102680008C01D0909A0185EB93E00E945C029E83BE
:102690008D8385E892E00E94A51D69837A838B83F0
:1026A0009C8389EC92E00E94A51D1B012C01C401B2
:1026B000B30120E030E040EA51E40E94D13287FDCE
:1026C00030C06D2D70E0882777FD8095982F0E948F
:1026D00070339B01AC01C801B7010E9424345B0137
:1026E0006C0120E030E040EA51E40E94D13287FDE5
:1026F00018C00E94F8080E9470339B01AC01C4010D
:10270000B3010E942034181664F00E94F8080E9459
:1027100070339B01AC01C601B5010E94203418162C
:102720006CF485E994E062EB71E00E94BA2D85E9D2
:1027300094E067E271E00E94612C16C069817A81A1
:102740008B819C810E9470337B018C01C201B1019D
:102750000E9470339B01AC01C801B7018401730171
:102760008D809E800E948F1026960FB6F894DEBF53
:102770000FBECDBFCF91DF911F910F91FF90EF90D2
:10278000DF90CF90BF90AF909F908F907F906F9091
:102790005F904F903F902F900895AF92BF92CF924D
:1027A000DF92EF92FF920F931F9389E993E00E94CB
:1027B00058027B018C0160919A0170E0882777FDB7
:1027C0008095982F0E9470339B01AC01C801B7011E
:1027D0000E9424347B018C0187EA93E00E94580216
:1027E0005B016C01C801B7010E943D337B018C0184
:1027F00060919A0170E0882777FD8095982F0E945C
:1028000070339B01AC01C601B5010E9424340E94C3
:102810003D339B01AC01C801B7010E946E0D1F91B1
:102820000F91FF90EF90DF90CF90BF90AF90089501
:10283000EF92FF920F931F9305E812E0C8010E94E8
:10284000812239ECE32E32E0F32EC7010E9481226F
:1028500081E080936802C8010E94A51DAB01BC0104
:102860004C5F5F4F6F4F7F4FC8010E94FD23C70130
:102870000E94A51DAB01BC014C5F5F4F6F4F7F4FA6
:10288000C7010E94FD23C8010E94A51DAB01BC0128
:102890004450504060407040C8010E94FD23C70171
:1028A0000E94A51DAB01BC014450504060407040E7
:1028B000C7010E94FD231F910F91FF90EF90089593
:1028C0006F927F928F929F92AF92BF92CF92DF9240
:1028D000EF92FF920F931F9389E993E00E947A028F
:1028E0005B016C01E0909A01FF2400E010E087EAB0
:1028F00093E00E947A023B014C01C801B701A60196
:1029000095010E94F034AB01BC0185E892E00E9481
:10291000AB1DC801B701A40193010E94F034AB01C3
:10292000BC0189EC92E00E94AB1D0E9418140E9429
:10293000BB081F910F91FF90EF90DF90CF90BF9059
:10294000AF909F908F907F906F9008950F931F93FB
:10295000AB01BC0140939F015093A0016093A10182
:102960007093A20185E892E00E94D82240919F01D5
:102970005091A0016091A1017091A20189EC92E0B7
:102980000E94D82205E914E0C80160E871E00E94C5
:102990001E2C40919F015091A0016091A101709166
:1029A000A201C80122E030E00E94A42E1F910F91E5
:1029B00008950F931F93CF93DF9389E993E00E94CB
:1029C00058020E94A61480912E028230C1F487EA38
:1029D00093E00E945C02019791F40FE911E06AE133
:1029E00070E0EB012196F80141918F0181E094E0C4
:1029F0000E944426CE31D10511F0BE01F2CFDF9105
:102A0000CF911F910F910895CF92DF92EF92FF9295
:102A10000F931F937C018B0141E0C42E44E0D42E20
:102A2000C601B701F80140810E9444260894E11CC8
:102A3000F11CC601B701F80141810E94442682E0E1
:102A400090E01F910F91FF90EF90DF90CF9008954D
:102A50000F931F93AB01BC0140939B0150939C01CA
:102A600060939D0170939E0185E892E00E94B21FE1
:102A700040919B0150919C0160919D0170919E013C
:102A800089EC92E00E94B21F05E914E0C8016CE8ED
:102A900071E00E941E2C40919B0150919C0160911D
:102AA0009D0170919E01C80122E030E00E94A42E99
:102AB0001F910F9108950F931F93CF93DF9389E98F
:102AC00093E00E9458020E94281580912E028230C5
:102AD000C1F487EA93E00E945C02019791F40BE94C
:102AE00011E066E170E0EB012196F80141918F0160
:102AF00081E094E00E944426CA31D10511F0BE0164
:102B0000F2CFDF91CF911F910F910895CF92DF9275
:102B1000EF92FF920F931F937C018B0151E0C52E22
:102B200054E0D52EC601B7010E943D26F8018083EE
:102B30000894E11CF11CC601B7010E943D26F80172
:102B4000818382E090E01F910F91FF90EF90DF90E2
:102B5000CF9008958AE290E063EC71E00E948615C0
:102B60008091C3019091C40197FF06C08AE590E06F
:102B70009093C4018093C30185E994E06CE672E010
:102B80000E941E2C6091C3017091C40185E994E0FC
:102B90004AE050E00E949B2D8CE290E061EC71E0F5
:102BA0000E9486158091C1019091C20197FF06C0D5
:102BB00084EB90E09093C2018093C10185E994E099
:102BC0006DE572E00E941E2C6091C1017091C201FE
:102BD00085E994E04AE050E00E949B2D08950F9310
:102BE0001F93DF93CF9300D000D0CDB7DEB789E934
:102BF00093E00E945C028C019A83898387EA93E0C8
:102C00000E945C029C838B8320912E02233089F4E6
:102C10008AE290E0BE016F5F7F4F0E9404158CE254
:102C200090E0BE016D5F7F4F0E9404150E94AA15BF
:102C300037C02230A9F5B80143E050E00E943C0AB9
:102C400068EC70E080E090E00E94A3286B817C81BA
:102C500089819A8143E050E00E943C0A68EC70E070
:102C600080E090E00E94A32869817A818B819C8119
:102C700043E050E00E943C0A68EC70E080E090E0A5
:102C80000E94A3286B817C8189819A8143E050E076
:102C90000E943C0A68EC70E080E090E00E94A3286B
:102CA0000F900F900F900F90CF91DF911F910F9188
:102CB000089580E090E069EB71E00E9486158091B4
:102CC000B9019091BA011816190644F08091CB0110
:102CD0009091CC019093BA018093B90185E994E079
:102CE00063EB72E00E941E2C6091B9017091BA01F1
:102CF00085E994E04AE050E00E949B2D82E090E05C
:102D00006BEB71E00E9486158091BB019091BC0134
:102D10001816190644F08091CD019091CE01909340
:102D2000BC018093BB0185E994E064EA72E00E94F3
:102D30001E2C6091BB017091BC0185E994E04AE0D2
:102D400050E00E949B2D08950F931F93DF93CF9324
:102D500000D000D000D0CDB7DEB789E993E00E9463
:102D60005C028C019A83898387EA93E00E945C026B
:102D70009C838B831E830D8380E090E0BE016B5F9C
:102D80007F4F0E94861529813A818D819E8182170D
:102D9000930751F02B3031053CF080E090E0BE010C
:102DA0006F5F7F4F0E94041582E090E0BE016B5F71
:102DB0007F4F0E9486152B813C818D819E818217D9
:102DC000930751F02B3031053CF082E090E0BE01DA
:102DD0006D5F7F4F0E9404150E94591626960FB60C
:102DE000F894DEBF0FBECDBFCF91DF911F910F9141
:102DF0000895EF92FF920F931F93CF93DF93AC014F
:102E00009B01EB0164E0E62EF12CE20EF31E8A0139
:102E10000F5F1F4F81E094E0BA010E943D26899325
:102E2000A801CE15DF0599F784E090E0DF91CF91FE
:102E30001F910F91FF90EF90089586E190E06BE96C
:102E400071E00E94F91660919B0170919C01809144
:102E50009D0190919E010E943D331616170664F065
:102E600080E090E0A8E4B4E480939B0190939C01FF
:102E7000A0939D01B0939E018AE190E06FE971E01B
:102E80000E94F91660919F017091A0018091A101AB
:102E90009091A2010E943D331616170664F080E05F
:102EA00090E0A8E4B4E480939F019093A001A093E4
:102EB000A101B093A20108958EE090E066E971E06F
:102EC0000E94F91660919601709197018091980186
:102ED0009091990120E030E040E85FE30E94D13218
:102EE000882394F46091C7017091C801882777FD09
:102EF0008095982F0E94703360939601709397018C
:102F0000809398019093990185E994E063E972E0D8
:102F10000E941E2C4091960150919701609198015A
:102F20007091990185E994E022E030E00E94A42E9E
:102F300082E190E064E971E00E948615809194013D
:102F4000909195011816190644F08091C90190914D
:102F5000CA01909395018093940185E994E06DE70F
:102F600072E00E941E2C609194017091950185E998
:102F700094E04AE050E00E949B2D089581E094E0A7
:102F800064E170E00E943D2680939A01882321F439
:102F90008091C50180939A0185E994E065E472E02F
:102FA0000E941E2C85E994E060919A014AE050E06D
:102FB0000E94162D0895AF92BF92CF92DF92EF92AA
:102FC000FF920F931F930E9459160E945C170E9454
:102FD000BE170E94AA150E941D178EE190E066EAB6
:102FE00071E00E94F9166091A6017091A70180918D
:102FF000A8019091A90127E137EB41ED58E30E9428
:10300000D132882364F48DEC9CECACE4BFE3809374
:10301000A6019093A701A093A801B093A901A09045
:103020009601B0909701C0909801D090990160915D
:103030009A0170E080E090E0209194013091950138
:10304000442737FD4095542F0E94F0340E9470337E
:103050007B018C01C601B501A80197010E94D53200
:1030600060931A0270931B0280931C0290931D02BE
:10307000C801B701A60195010E94D53260931E02D6
:1030800070931F02809320029093210285E994E0BF
:1030900062E372E00E941E2C40911A0250911B02C2
:1030A00060911C0270911D0285E994E022E030E0FD
:1030B0000E94A12E85E994E062E272E00E941E2C3B
:1030C00040911E0250911F026091200270912102D6
:1030D00085E994E022E030E00E94A12E85E994E0A9
:1030E00060E272E00E94612C6091B9017091BA01B6
:1030F000882777FD8095982F0E94703320911E02BB
:1031000030911F0240912002509121020E942434EC
:103110000E943D3360932202709323028093240225
:103120009093250285E994E064E072E00E941E2CF1
:103130004091220250912302609124027091250255
:1031400085E994E02AE030E00E94342D85E994E09E
:1031500062E072E00E94612C6091BB017091BC0141
:10316000882777FD8095982F0E94703320911E024A
:1031700030911F0240912002509121020E9424347C
:103180000E943D33609326027093270280932802A9
:103190009093290285E994E06AEF71E00E941E2C69
:1031A00085E994E064EE71E00E941E2C40912602B5
:1031B00050912702609128027091290285E994E0DC
:1031C0002AE030E00E94342D85E994E062EE71E05F
:1031D0000E941E2C85E994E00E94412C10922A0244
:1031E00010922B0210922C0210922D021F910F911F
:1031F000FF90EF90DF90CF90BF90AF900895DF9356
:10320000CF9300D0CDB7DEB789E993E00E945C028E
:103210009A83898384E190E0BE016F5F7F4F0E94B3
:1032200004150E94DB170F900F90CF91DF91089546
:10323000DF93CF9300D0CDB7DEB789E993E00E944A
:103240005C029A83898382E190E0BE016F5F7F4FC9
:103250000E9404150E94DB170F900F90CF91DF9111
:103260000895EF92FF920F931F93DF93CF9300D0B7
:1032700000D0CDB7DEB789E993E00E945802698398
:103280007A838B839C837E010894E11CF11C6EE0A1
:1032900070E08B010F5F1F4FF70141917F0181E0CB
:1032A00094E00E944426B8010231110591F70E9472
:1032B000DB170F900F900F900F90CF91DF911F9120
:1032C0000F91FF90EF900895CF93DF93C0E0D0E08F
:1032D00081E094E0BE0140E00E9444262196C23382
:1032E000D105B1F70E94DB17DF91CF910895CF93FD
:1032F000DF93C0E0D0E085E994E0BE014AE050E011
:103300000E94882D85E994E060E771E00E94BA2D63
:1033100081E094E0BE010E943D26682F85E994E09B
:103320004AE050E00E94162D2196C832D10519F7C7
:10333000DF91CF910895CF92DF92EF92FF920F939A
:103340001F930E94771905E914E0C8016AED71E046
:103350000E941E2C6091B9017091BA01C8014AE027
:1033600050E00E94882DE6EECE2EE1E0DE2EC80170
:10337000B6010E94BA2D6091BB017091BC01C801D9
:103380004AE050E00E94882D78EEE72E71E0F72E9B
:10339000C801B7010E94B72EC8016EEC71E00E940F
:1033A0001E2C409196015091970160919801709167
:1033B0009901C80122E030E00E94A12EC801B701A6
:1033C0000E94B72EC8016FEB71E00E941E2C609125
:1033D000940170919501C8014AE050E00E94882D47
:1033E000C801B7010E94B72EC8016DEA71E00E94C2
:1033F0001E2CC80160919A014AE050E00E94042D01
:10340000C801B7010E94B72EC80165EA71E00E94A9
:103410001E2C6091C3017091C401C8014AE050E0C4
:103420000E94882DC801B6010E94BA2D6091C10189
:103430007091C201C8014AE050E00E94882DC80185
:10344000B7010E94B72EC8016CE971E00E941E2CE2
:1034500040919B0150919C0160919D0170919E0152
:10346000C80122E030E00E94A12EC801B6010E94EE
:10347000BA2D40919F015091A0016091A1017091DE
:10348000A201C80122E030E00E94A12EC801B701CC
:103490000E94B72E1F910F91FF90EF90DF90CF9079
:1034A0000895CF93DF93EC0164E173E00E94BA2F9B
:1034B000882319F00E94CD13B3C0CE016AE573E0F2
:1034C0000E94BA2F882319F00E940D13A9C0CE01C3
:1034D0006BE173E00E94BA2F882319F00E946C09F7
:1034E0009FC0CE0164E873E00E94BA2F882319F0D0
:1034F0000E945B1595C0CE016BE873E00E94BA2F65
:10350000882319F00E94D9148BC0CE0162E273E0C7
:103510000E94BA2F882319F00E94550F81C0CE0156
:1035200069E273E00E94BA2F882319F00E94B40E5A
:1035300077C0CE0160E373E00E94BA2F882319F0B0
:103540000E9456096DC0CE0167E373E00E94BA2F56
:10355000882319F00E94870C63C0CE016EE373E0EC
:103560000E94BA2F882319F00E94601459C0CE011E
:1035700065E473E00E94BA2F882319F00E94860A3E
:103580004FC0CE016CE473E00E94BA2F882319F07B
:103590000E94B70A45C0CE0163E573E00E94BA2FCE
:1035A000882319F00E94EF153BC0CE0161E673E05D
:1035B0000E94BA2F882319F00E94A41631C0CE01B0
:1035C00066E773E00E94BA2F882319F00E94311930
:1035D00027C0CE016DE773E00E94BA2F882319F04F
:1035E0000E9418191DC0CE0162E973E00E94BA2F33
:1035F000882319F00E94FF1813C0CE0168E673E01B
:103600000E94BA2F882319F00E949B1909C0CE018D
:103610006FE673E00E94BA2F882319F00E946419A4
:1036200081E0DF91CF91089589E792E062E043E085
:103630000E94A326089589E792E061E043E00E949A
:10364000A32608958DE692E062E043E00E94A3265F
:1036500008958DE692E061E043E00E94A32608957C
:10366000EF92FF920F931F937C0105E914E0C801CC
:1036700062EB71E00E94BA2DC801B7010E94CA2E08
:10368000C80161EC72E00E94612C1F910F91FF90C4
:10369000EF900895CF93DF93EC010E94511A882395
:1036A00029F4CE010E94301B0E946509DF91CF9161
:1036B0000895CF92DF92EF92FF920F931F93DF93C3
:1036C000CF93CDB7DEB7BC01CDB6DEB6FC0101901D
:1036D0000020E9F73197E81BF90B8DB79EB78E1BD9
:1036E0009F0B0FB6F8949EBF0FBE8DBF0DB71EB7D0
:1036F0000F5F1F4FC8010E94B802C80166EE71E05B
:103700000E94A1028C01109299031092A7031092BB
:10371000B5031092C303EE24FF24FF2019F481EDBA
:1037200093E038C080E090E066EE71E00E94A10274
:103730008C01009741F088EE91E0B8010E94CD0223
:10374000009709F4E39492E0F91699F09F1520F0A0
:1037500081E0F81611F507C093E0F91681F084E0D6
:10376000F816D9F412C001151105B9F089E993E0F2
:1037700011C00115110589F087EA93E00BC001150E
:10378000110559F085EB93E005C00115110529F0ED
:1037900083EC93E0B8010E94B802F39496E0F91626
:1037A00009F0BBCFE0922E020FB6F894DEBE0FBE3A
:1037B000CDBECF91DF911F910F91FF90EF90DF90E1
:1037C000CF900895CF93DF93EC0168EE71E00E94F3
:1037D000CD02FC01148268EE71E00E94AF020097F6
:1037E00011F080E004C0CE010E94591B81E0DF91FE
:1037F000CF910895EF92FF920F931F93DF93CF9392
:10380000CDB7DEB727970FB6F894DEBF0FBECDBF9A
:103810007C010E94E21B8823E9F08E010F5F1F4F9D
:10382000C8016FE272E00E943630C8010E944A1B54
:10383000C8010E94503080E090E0F701E80FF91FC6
:103840001082019682339105C1F7109262020E94A4
:10385000650917C085E994E062EB71E00E94BA2D1A
:1038600085E994E065EF72E00E941E2C85E994E002
:10387000B7010E94BA2D85E994E067EE72E00E94DC
:10388000612C10922E0227960FB6F894DEBF0FBE61
:10389000CDBFCF91DF911F910F91FF90EF900895D1
:1038A0008F929F92AF92BF92CF92DF92EF92FF9250
:1038B0000F931F93CF93DF934C010E946F2820E05A
:1038C00030E0F401E20FF31F10822F5F3F4F2233ED
:1038D0003105B9F7AC01CB01DA015C016D01C0E043
:1038E000D0E0EE24FF2487010E946F282097A9F0E2
:1038F0006E197F09800B910B653671058105910565
:1039000064F080E090E0F401E80FF91F1082019666
:1039100082339105C1F7C0E0D0E00E94F60A0E9410
:103920006F286A197B098C099D092091AC0130919F
:10393000AD01442737FD4095542F26173707480718
:1039400059074CF40E9465090E946F28AC01CB0115
:10395000DA015C016D0185E994E00E94E52A181600
:10396000190614F685E994E00E94162BF401EC0F79
:10397000FD1F8A3051F41082CE0102C011920196CF
:1039800081339105DCF311E003C08083219610E0C0
:103990000E946F28112331F4AC01CB01DA017C01C4
:1039A0008D01A2CF0E946F280E946F28609363024E
:1039B000709364028093650290936602609369023B
:1039C00070936A0280936B0290936C0281E0DF91A6
:1039D000CF911F910F91FF90EF90DF90CF90BF900C
:1039E000AF909F908F9008958FE292E00E94501CBC
:1039F000882321F08FE292E00E94FA1B0895EF9253
:103A0000FF920F931F9385E994E040E051EE60E050
:103A100070E00E945E2A85E994E063E771E00E940D
:103A2000BA2D85E994E00E94412C0E94DB170E9488
:103A3000190A40919B0150919C0160919D017091E8
:103A40009E0185E892E00E94B21F40919F01509133
:103A5000A0016091A1017091A20185E892E00E940D
:103A6000D82240919B0150919C0160919D017091E1
:103A70009E0189EC92E00E94B21F40919F015091FB
:103A8000A0016091A1017091A20189EC92E00E94D5
:103A9000D8226091A4017091A501882777FD8095B7
:103AA000982F0E9470332091960130919701409198
:103AB0009801509199010E94D5327B018C0160914F
:103AC000940170919501882777FD8095982F0E9429
:103AD00070339B01AC01C801B7010E9424340E94DD
:103AE0003D337B018C0185E892E0B801A7010E947B
:103AF000AB1D89EC92E0B801A7010E94AB1DEFE27B
:103B0000F2E0119282E0E136F807D9F70E946509E8
:103B10000E94B70A64EF71E080E090E00E94A32861
:103B20001F910F91FF90EF900895FC012785308938
:103B30004189528983859485A585B685281B390BD3
:103B40004A0B5B0BB901CA010895FC0163857485BA
:103B5000858596850895FC01438754876587768718
:103B60004787508B618B728B13AA14AA15AA16AAC9
:103B700013A214A215A216A208956F927F928F929B
:103B80009F92AF92BF92CF92DF92EF92FF920F93EC
:103B90001F93CF93DF93EC01AF84B888C988DA888C
:103BA0008B859C85AD85BE85A81AB90ACA0ADB0A31
:103BB0002B893C894D895E89CA01B9010E94243450
:103BC0007B018C012B8D3C8D4D8D5E8DCA01B90121
:103BD0000E946D329B01AC01C801B7010E94D53231
:103BE0000E943D339B01AC01A114B104C104D10476
:103BF000B9F462307105810591050CF085C01BA2F6
:103C00001CA21DA21EA280E090E0A0E0B0E08B8B81
:103C10009C8BAD8BBE8B1BAA1CAA1DAA1EAA0BC116
:103C2000EBA8FCA80DA91EA91A141B041C041D0452
:103C300044F51E141F041006110674F46A157B0562
:103C40008C059D05B4F5CD5BDF4F8881C354D04012
:103C5000882309F059C02DC0E114F10401051105B4
:103C600009F452C06A157B058C059D050CF04CC00B
:103C7000CD5BDF4F8881C354D040813009F044C010
:103C800038C01E141F0410061106DCF4882799277B
:103C9000DC018A199B09AC09BD09281739074A07B5
:103CA0005B073CF4CD5BDF4F8881C354D04081304B
:103CB00059F588279927DC01821B930BA40BB50BC0
:103CC0001FC0E114F10401051105F1F088279927BF
:103CD000DC018A199B09AC09BD09281739074A0775
:103CE0005B0794F4CD5BDF4F8881C354D0408823B9
:103CF00059F488279927DC018E199F09A00BB10B75
:103D00008BAB9CABADABBEAB6BA87CA88DA89EA8C3
:103D10006114710481049104A9F48FA998ADA9AD2F
:103D2000BAAD8BAF9CAFADAFBEAFFE01ED5BFF4F49
:103D300010821A141B041C041D040CF049C081E0FD
:103D4000808346C0ABACBCACCDACDEACC601B5012B
:103D500020E030E040E050EC0E9424347B018C01F4
:103D6000C401B3010E94703320E030E040E850E429
:103D70000E94243420E030E040E85FE30E946D328E
:103D80009B01AC01C801B7010E94D5329B01AC0177
:103D9000C601B5010E946D327B018C016BAF7CAF17
:103DA0008DAF9EAFEF96A880B980CA80DB80EF9779
:103DB0009501A6010E942034181624F4D801C701E9
:103DC00057016D01C501D6018BAF9CAFADAFBEAF42
:103DD0008BA99CA9ADA9BEA90196A11DB11D8BAB54
:103DE0009CABADABBEAB6BAD7CAD8DAD9EAD0E9463
:103DF00042336BA37CA38DA39EA360E074E284E7AF
:103E000099E42BAD3CAD4DAD5EAD0E94D5329B012A
:103E1000AC016B8B7C8B8D8B9E8BCD5BDF4F888158
:103E2000C354D040882339F4DA01C901B0588B8BD0
:103E30009C8BAD8BBE8BDF91CF911F910F91FF902B
:103E4000EF90DF90CF90BF90AF909F908F907F903A
:103E50006F900895FC0187859089A189B2898417A4
:103E60009507A607B70739F04787508B618B728B90
:103E7000CF010E94BD1D0895FC01DB01CA014385ED
:103E8000548565857685480F591F6A1F7B1FCF01B2
:103E90000E942A1F0895CF92DF92EF92FF920F9314
:103EA0001F93FC0181EF91E091838083128213863E
:103EB0001486158616861786108A118A128A0F2E86
:103EC000F0E0CF2EF0E0DF2EF0E0EF2EF0E0FF2E5E
:103ED000F02DC38AD48AE58AF68A00E010E020E853
:103EE0003FE3078B108F218F328F038F148F258F25
:103EF000368F078F10A321A332A313A214A215A2F9
:103F000016A281E090E094A783A78FEF86A717A25F
:103F100010A611A612A6138214821582168270AB07
:103F200067A752AB41AB13AA14AA15AA16AAC7AA2F
:103F3000D0AEE1AEF2AEC3AED4AEE5AEF6AEFF9615
:103F400001931193219331931082E354F04017822F
:103F50001086118612861F910F91FF90EF90DF90CF
:103F6000CF900895EF92FF920F931F93CF93DF931B
:103F7000EC017A018B016F89788D898D9A8DA8016A
:103F800097010E94D1328823E1F1EF8AF88E098FE0
:103F90001A8FEF9660E074E284E799E4A801970134
:103FA0000E94D532688379838A839B83EF978BA99C
:103FB0009CA9ADA9BEA9181619061A061B060CF570
:103FC0002B893C894D895E89CA01B9010E9424343C
:103FD0007B018C012B8D3C8D4D8D5E8DCA01B9010D
:103FE0000E946D329B01AC01C801B7010E94D5321D
:103FF0000E943D336BAB7CAB8DAB9EABCE010E9480
:10400000BD1DDF91CF911F910F91FF90EF9008950B
:104010004F925F926F927F928F929F92AF92BF92D8
:10402000CF92DF92EF92FF920F931F93CF93DF9384
:104030002C017A018B01CB01BA01F2012389348969
:10404000458956890E94D132882309F455C0F2016E
:10405000A788B08CC18CD28C3501460197FA909418
:1040600097F89094C801B701A40193010E94D1323E
:1040700088231CF4840173010AC0C801B701A6019A
:1040800095010E942034181614F486017501C801A8
:10409000B70120E030E040E050E00E94D1328823B8
:1040A00031F4F20113A214A215A216A220C060E0FE
:1040B00074E284E799E4A80197010E94D5329F77C2
:1040C0000E944233F20163A374A385A396A3E20185
:1040D000CD5BDF4F1882C801B70120E030E040E03F
:1040E00050E00E942034181614F481E08883F20115
:1040F000E38AF48A058B168BDF91CF911F910F9184
:10410000FF90EF90DF90CF90BF90AF909F908F90F7
:104110007F906F905F904F900895FC0123893489C0
:1041200045895689B901CA010895DC0112968C911E
:104130001297833001F1843040F4813089F0ED91A1
:10414000FC911197823098F407C0863011F18830C5
:1041500049F1843079F516C00480F581E02D1FC047
:10416000ED91FC9111970680F781E02D18C0008435
:10417000F185E02D14C0ED91FC9111970284F38537
:10418000E02D0DC0ED91FC9111970484F585E02D93
:1041900006C0ED91FC9111970684F785E02DCD01C5
:1041A00009950895ED91FC9111970088F189E02D12
:1041B000CD0109950895CF93DF93EC016B897C893C
:1041C0008D899E8920E030E040E050E00E9420345C
:1041D00018161CF4EFA5F8A902C0E9A9FAA90995D7
:1041E000DF91CF910895DC0170E0637070706130F1
:1041F0007105A9F0623071051CF4672B41F0089538
:1042000062307105A1F06330710501F518C0ED91C0
:10421000FC9111970190F081E02D62E00EC0ED91CC
:10422000FC9111970190F081E02D63E006C0ED91C3
:10423000FC910190F081E02D61E009950895ED91E8
:10424000FC910190F081E02D60E009950895DC017A
:10425000862F63E00E940F35913071F0913018F095
:104260009230E9F413C0ED91FC9111970190F08127
:10427000E02DCD0164E008C0ED91FC911197019013
:10428000F081E02DCD0161E009950895ED91FC915B
:1042900011970190F081E02DCD0162E0099508951C
:1042A000DC0170E06370707061307105A9F06230FC
:1042B00071051CF4672B41F0089562307105A1F07F
:1042C0006330710501F518C0ED91FC9111970190D3
:1042D000F081E02D65E00EC0ED91FC911197019009
:1042E000F081E02D66E006C0ED91FC910190F08137
:1042F000E02D6AE009950895ED91FC910190F0811F
:10430000E02D69E009950895DC01862F66E00E94A2
:104310000F35923009F1933030F4992359F09130F0
:1043200009F03FC010C0943049F19430F0F095305E
:10433000C1F52EC0ED91FC9111970190F081E02D17
:10434000CD0164E023C0ED91FC9111970190F081C3
:10435000E02DCD0165E01AC0ED91FC91119701901F
:10436000F081E02DCD0161E011C0ED91FC9111973C
:104370000190F081E02DCD0163E008C0ED91FC914A
:1043800011970190F081E02DCD0162E0099508952B
:10439000ED91FC9111970190F081E02DCD0166E047
:1043A00009950895DC0170E06770707063307105E5
:1043B00091F1643071054CF461307105E1F06230C7
:1043C00071050CF5672B79F008956530710599F149
:1043D0006530710544F166307105A9F167307105EA
:1043E00009F040C038C0ED91FC9111970190F08127
:1043F000E02D61E02EC0ED91FC9111970190F081CC
:10440000E02D65E026C0ED91FC9111970190F081BF
:10441000E02D64E01EC0ED91FC9111970190F081B8
:10442000E02D66E016C0ED91FC9111970190F081AE
:10443000E02D62E00EC0ED91FC9111970190F081AA
:10444000E02D6AE006C0ED91FC910190F081E02D35
:1044500068E009950895ED91FC910190F081E02DBF
:1044600069E009950895CF93DF93EC018A81882351
:1044700071F0E881F9810190F081E02DCE0160E0DA
:1044800009958EA58F3F19F06DA50E948029DF91B7
:10449000CF910895CF92DF92EF92FF920F931F93E7
:1044A000CF93DF93FC012281243029F0283019F0CA
:1044B00092E0D92E02C084E0D82E8F01C0E0D0E077
:1044C000E62EFF24CC24C394F8012381C7010C2ECF
:1044D00002C0959587950A94E2F7678180FD6C2567
:1044E000822F0E94802921960F5F1F4FCD1560F308
:1044F000DF91CF911F910F91FF90EF90DF90CF90C0
:104500000895CF93DF93EC018A81882311F18B8189
:1045100061E00E9441298C8161E00E9441298A81E9
:10452000843011F0883041F48D8161E00E9441298E
:104530008E8161E00E9441299EA59F3F51F06DA5AB
:1045400081E06827892F0E9480298EA561E00E9462
:104550004129DF91CF910895CF93DF93EC01E8815A
:10456000F9810190F081E02DCD5BDF4F8881C3544C
:10457000D040882311F461E001C063E0CE010995C9
:104580008BA59CA50E94FC28E881F9810190F0810F
:10459000E02DCD5BDF4F8881C354D040882311F4D8
:1045A00060E001C062E0CE010995DF91CF910895EE
:1045B0006F927F928F929F92AF92BF92CF92DF9233
:1045C000EF92FF920F931F93CF93DF93EC013A0189
:1045D0004B01CB01BA0120E030E040E050E00E9406
:1045E000D132882309F441C0AB8CBC8CCD8CDE8CDD
:1045F000C601B501A40193010E94D1328823A9F11B
:104600006BA97CA98DA99EA90E9470337B018C01A6
:10461000C601B501A40193010E94D5329B01AC01F2
:10462000C801B7010E9424340E943D336BAB7CABC0
:104630008DAB9EAB60E070E080E090E4A40193015C
:104640000E94D5320E948B3420E034E244E759E4E2
:104650000E9424346FAB78AF89AF9AAF6B8E7C8E9B
:104660008D8E9E8ECE010E94BD1DDF91CF911F9138
:104670000F91FF90EF90DF90CF90BF90AF909F9001
:104680008F907F906F900895EF92FF920F931F93FA
:10469000CF93DF93EC018BA19CA1ADA1BEA10097AC
:1046A000A105B10509F44CC00E947D287B018C0155
:1046B0002FA138A549A55AA58BA19CA1ADA1BEA14A
:1046C000820F931FA41FB51F82179307A407B50776
:1046D00030F0E816F9060A071B0758F405C0E8167B
:1046E000F9060A071B0760F1E216F306040715072F
:1046F00038F5CD5BDF4F8881C354D0402B853C8596
:104700004D855E85813029F42F5F3F4F4F4F5F4FBE
:1047100004C021503040404050402B873C874D879B
:104720005E87E881F9816B8567700280F381E02DF7
:10473000CE010995EFA2F8A609A71AA781E001C04A
:1047400080E0DF91CF911F910F91FF90EF9008953E
:10475000CF93DF93FC012785308941895289838576
:104760009485A585B685281739074A075B0711F494
:1047700080E00FC0EF01CD5BDF4F82179307A407E6
:10478000B5071CF481E0888301C01882CF010E9424
:104790004423DF91CF910895CF93DF93EC010E94E2
:1047A0004423882319F0CE010E94BD1D81E0DF91D2
:1047B000CF910895CF93DF93EC016B897C898D892C
:1047C0009E8920E030E040E050E00E94D132882312
:1047D00069F42F85388949895A898B859C85AD85EF
:1047E000BE85281739074A075B0721F0CE010E94D2
:1047F000CC23E3CFDF91CF9108950F931F938C01CA
:104800000E942A1FC8010E94DA231F910F91089568
:10481000FC018091DB038C3090F482838F5F809366
:10482000DB03815090E0FC01EE0FFF1FE80FF91F42
:10483000E452FC4F88EB9BE09283818308958FEFD5
:1048400082830895DC0112968C91129790E0FC010E
:10485000EE0FFF1FE80FF91FE452FC4F80818F7BA2
:10486000808312968C916CE00E940F3590E0AC0131
:10487000440F551F480F591F440F551F440F551F14
:1048800020E030E0C901840F951FFC01EE0FFF1FEF
:10489000E80FF91FE452FC4F808186FD05C02F5FB1
:1048A0003F4F2C30310571F70895FC0122812C30E7
:1048B000B8F58081992787FD909548E850E0481B1E
:1048C000590B440F551F440F551F6417750784F08B
:1048D0008181992787FD909548E552E0481B590B47
:1048E000440F551F440F551F641775070CF4AB0197
:1048F00042505040CA01AA2797FDA095BA2F880FB1
:10490000991FAA1FBB1F4FB7F89430E0F901EE0FB3
:10491000FF1FE20FF31FE452FC4F928381834FBFCE
:104920000895AF92BF92CF92DF92EF92FF920F93D2
:104930001F93CF93DF93EC019B0182E060327807F5
:104940000CF048C077FF03C020E030E005C0653BB5
:10495000710514F024EB30E000D000D0B9018827B5
:1049600077FD8095982F2881332727FD3095E8E83B
:10497000AE2EB12CA21AB30AAA0CBB1CAA0CBB1CEB
:10498000CC24B7FCC094DC2CE981FF27E7FDF0952F
:1049900028E532E02E1B3F0B220F331F220F331F5F
:1049A000442737FD4095542FEDB7FEB7218332835E
:1049B0004383548320E030E040E050E004EBE02EFD
:1049C000F12C012D112D0E94FD2E9B010F900F90B7
:1049D0000F900F90CE01B9010E945524DF91CF9125
:1049E0001F910F91FF90EF90DF90CF90BF90AF900D
:1049F0000895CF92DF92EF92FF921F93CF93DF93B0
:104A0000EC01162F7A0169018A818C3008F064C0AC
:104A1000862F61E00E9441298A8190E0FC01EE0F1F
:104A2000FF1FE80FF91FE452FC4F1F738081807C49
:104A3000812B808380E292E08E199F0964E070E010
:104A40000E941B35688380E699E08C199D0964E01B
:104A500070E00E941B356983AA818A2F6CE00E9456
:104A60000F35682F70E0AB01440F551F460F571FDD
:104A7000440F551F440F551F20E030E0C901840F3B
:104A8000951FFC01EE0FFF1FE80FF91FE452FC4FCA
:104A9000808186FD15C02F5F3F4F2C30310571F7A7
:104AA00024C01092800082E08093810010928500E3
:104AB00010928400B19A80916F00826080936F00A1
:104AC0008A2F90E0FC01EE0FFF1FE80FF91FE45260
:104AD000FC4F8081806480838A81DF91CF911F9118
:104AE000FF90EF90DF90CF900895672BD1F2E8CF41
:104AF00040E252E020E639E00E94F92408951F9236
:104B00000F920FB60F9211242F933F934F935F9301
:104B10006F937F938F939F93AF93BF93EF93FF9385
:104B20008091000487FF05C01092850010928400D8
:104B30002BC020910004332727FD30958091DB03A3
:104B400090E02817390704F580910004992787FD24
:104B50009095FC01EE0FFF1FE80FF91FE452FC4F88
:104B6000808186FF11C080910004992787FD909570
:104B7000FC01EE0FFF1FE80FF91FE452FC4F80818C
:104B80008F7360E00E948029809100048F5F809382
:104B9000000420910004332727FD30958091DB032A
:104BA00090E0281739070CF04EC0809100048C303B
:104BB0000CF049C020918400309185008091000460
:104BC000992787FD9095FC01EE0FFF1FE80FF91F55
:104BD000E452FC4F81819281280F391F3093890064
:104BE0002093880080910004992787FD9095FC010F
:104BF000EE0FFF1FE80FF91FE452FC4F808186FF84
:104C00002BC080910004992787FD9095FC01EE0F41
:104C1000FF1FE80FF91FE452FC4F80818F7361E0A2
:104C20000E94802919C080E49CE905C0809184001D
:104C300090918500049690938900809388008FEF6F
:104C40008093000409C080918400909185000496AF
:104C500080549C4940F3EACFFF91EF91BF91AF910F
:104C60009F918F917F916F915F914F913F912F9184
:104C70000F900FBE0F901F901895F999FECF72BD3F
:104C800061BDF89A80B50895F999FECF1FBA72BD3B
:104C900061BD40BD0FB6F894FA9AF99A0FBE089517
:104CA000109202040895E0EBF0E090819368908305
:104CB00087708093B1001092B3008BE061E00E9496
:104CC00041290895E0EBF0E0908193629083877032
:104CD0008093B1001092B40083E061E00E9441290A
:104CE0000895CF93DF938CE060E00E94802988E0F4
:104CF00060E00E948029C7E0D0E084E060E00E948C
:104D000080298091030490E00C2E02C09595879530
:104D10000A94E2F780FF03C088E061E002C088E007
:104D200060E00E94802984E061E00E948029219750
:104D30008FEFCF3FD80709F78CE061E00E94802910
:104D4000DF91CF9108950F931F93CF93DF93EC01E1
:104D5000142F8A81813029F404E042E058E070E1A8
:104D600008C0823011F080E0E0C000E241E050E88D
:104D700070E4113041F49B85892F86958695869540
:104D800080FF10C009C01230A1F49B85892F869541
:104D90008695869580FD06C0613011F4985F05C048
:104DA000985003C0613019F4905F9B8752C09051B6
:104DB000FCCF133041F48B85613011F4885F01C062
:104DC00088508B8746C0143009F043C08B85613012
:104DD00011F48F5F01C081508B87AB85AF73AB87B8
:104DE000A03148F4B0E0EFEDF1E0EA1BFB0B2081CD
:104DF000A153BE4F19C08A2F8051803148F48A2FA9
:104E000090E0FC01E154FE4F2081EFEEF1E01DC087
:104E10008A2F8052803150F4B0E0EFEFF1E0EA1BCE
:104E2000FB0B2081A155BE4F8C9115C08A2F80535A
:104E3000803118F080E020E00EC08A2F90E0FC0165
:104E4000E156FE4F2081EFE0F2E0E81BF90B808194
:104E500002C08FEF2FEF3B853F733B879A819130E4
:104E600029F42093B3008093B40004C0923011F46D
:104E700027BD88BD242F202B672F652B962F922BC3
:104E8000909580910304982390930304143019F5AE
:104E9000303118F4922B90930304832F805180318A
:104EA00030F4452B80910304842B80930304832FDB
:104EB0008052803130F4572B80910304852B8093EE
:104EC00003043053303160F5702B80910304872B3D
:104ED0008093030425C0832F86958695869583301D
:104EE000B1F0843028F4813071F0823070F409C060
:104EF000853081F0853060F0863079F0873081F43C
:104F00000BC0902B0BC0922B09C0942B07C0542BC5
:104F1000952B04C0962B02C0702B972B9093030403
:104F200082E094E00E9471268B85DF91CF911F91E2
:104F30000F9108950F931F938C018CE061E00E9404
:104F4000412987E061E00E94412988E061E00E94F8
:104F5000412984E061E00E94412910920304C801C4
:104F60000E94712687E060E00E9480291F910F91C6
:104F70000895DF92EF92FF920F931F938C017B01B4
:104F8000D42E82E094E00E949A27F801F182E08218
:104F9000D2821386F1E0DF1629F580910304817E29
:104FA0008093030482E094E00E9471268BE061E02C
:104FB0000E94412983E061E00E9441298BE061E089
:104FC0000E94802983E061E00E94802981E00E94A4
:104FD000532681E00E9462268FEF8093B300809376
:104FE000B4002FC082E0D81661F5809103048E7161
:104FF0008093030482E094E00E94712685E061E0E2
:105000000E94412986E061E00E94412985E061E03B
:105010000E94802986E061E00E94802984B583682F
:1050200084BD17BC86E061E00E94412984B583629B
:1050300084BD18BC85E061E00E9441298FEF87BDE7
:1050400088BD1F910F91FF90EF90DF9008951F9200
:105050000F920FB60F9211242F933F938F939F932C
:10506000AF93BF938091080490910904A0910A0422
:10507000B0910B0430910C040196A11DB11D232F9A
:105080002D5F2D3720F02D570196A11DB11D2093C6
:105090000C048093080490930904A0930A04B0932D
:1050A0000B048091040490910504A0910604B09132
:1050B00007040196A11DB11D80930404909305047B
:1050C000A0930604B0930704BF91AF919F918F9175
:1050D0003F912F910F900FBE0F901F9018958FB793
:1050E000F894209108043091090440910A045091E9
:1050F0000B048FBFB901CA0108959FB7F89420919E
:10510000040430910504409106045091070486B5CB
:10511000A89B06C08F3F21F02F5F3F4F4F4F5F4F3F
:105120009FBF542F432F322F2227280F311D411D9F
:10513000511D82E0220F331F441F551F8A95D1F75E
:10514000B901CA0108959B01AC017FB7F894809121
:10515000040490910504A0910604B091070466B57B
:10516000A89B05C06F3F19F00196A11DB11D7FBF1F
:10517000BA2FA92F982F8827860F911DA11DB11D29
:1051800062E0880F991FAA1FBB1F6A95D1F7BC0167
:105190002DC0FFB7F8948091040490910504A0916C
:1051A0000604B0910704E6B5A89B05C0EF3F19F0CF
:1051B0000196A11DB11DFFBFBA2FA92F982F8827D7
:1051C0008E0F911DA11DB11DE2E0880F991FAA1F2E
:1051D000BB1FEA95D1F7861B970B885E9340C8F2F8
:1051E000215030404040504068517C4F21153105DE
:1051F0004105510571F60895019739F0880F991FFF
:10520000880F991F02970197F1F70895789484B554
:10521000826084BD84B5816084BD85B5826085BDB2
:1052200085B5816085BDEEE6F0E080818160808398
:10523000E1E8F0E01082808182608083808181607B
:105240008083E0E8F0E0808181608083E1EBF0E042
:10525000808184608083E0EBF0E0808181608083E6
:10526000EAE7F0E0808184608083808182608083CF
:105270008081816080838081806880831092C100FA
:105280000895CF93DF93482F50E0CA01825D9C4F71
:10529000FC013491465E5C4FFA018491882369F1E8
:1052A00090E0880F991FFC01E450FD4FA591B49147
:1052B000FC01EA5FFC4FC591D491662351F42FB7EE
:1052C000F8948C91932F909589238C9388818923CE
:1052D0000BC0623061F42FB7F8948C91932F9095A6
:1052E00089238C938881832B88832FBF06C09FB727
:1052F000F8948C91832B8C939FBFDF91CF9108956D
:10530000482F50E0CA018E5B9C4FFC012491CA01DA
:10531000825D9C4FFC019491465E5C4FFA01349192
:10532000332309F440C0222351F1233071F024309B
:1053300028F42130A1F0223011F514C02630B1F04C
:105340002730C1F02430D9F404C0809180008F77D9
:1053500003C0809180008F7D8093800010C084B551
:105360008F7702C084B58F7D84BD09C08091B00065
:105370008F7703C08091B0008F7D8093B000E32FC2
:10538000F0E0EE0FFF1FEA5FFC4FA591B4912FB73D
:10539000F894662321F48C919095892302C08C9116
:1053A000892B8C932FBF089508951F920F920FB6EB
:1053B0000F9211242F933F934F938F939F93EF93CB
:1053C000FF938091C00082FD1DC04091C6002091D6
:1053D0004D0430914E042F5F3F4F2F7330708091FA
:1053E0004F04909150042817390771F0E0914D0453
:1053F000F0914E04E35FFB4F408330934E042093C3
:105400004D0402C08091C600FF91EF919F918F9152
:105410004F913F912F910F900FBE0F901F901895B5
:10542000E091A104F091A204E05CFF4F8191919181
:1054300020813181821B930B8F739070892B11F027
:105440000E94D42908951F920F920FB60F92112433
:105450002F933F938F939F93EF93FF93209191040A
:105460003091920480919304909194042817390705
:1054700031F48091C1008F7D8093C10014C0E09110
:105480009304F0919404EF5AFB4F20818091930490
:105490009091940401968F739070909394048093EC
:1054A00093042093C600FF91EF919F918F913F91BC
:1054B0002F910F900FBE0F901F901895AF92BF9233
:1054C000DF92EF92FF920F931F93CF93DF93EC0144
:1054D0007A018B01DD24403081EE580780E06807B7
:1054E00080E0780711F0DD24D39491E0A92EB12C4F
:1054F000EC89FD89DD2069F0C50108A002C0880F94
:10550000991F0A94E2F7808360E079E08DE390E0F0
:1055100005C0108260E874E88EE190E0A801970170
:105520000E942E35215030404040504056954795BE
:105530003795279580E12030380720F0DD2011F0E5
:10554000DD24D6CFE889F9893083EA89FB89208375
:1055500019A2EE89FF89408121E030E0C9010C8C5D
:1055600002C0880F991F0A94E2F7482B4083EE8906
:10557000FF894081C9010D8C02C0880F991F0A94D0
:10558000E2F7482B4083EE89FF894081C9010E8CE8
:1055900002C0880F991F0A94E2F7482B4083EE89D6
:1055A000FF8980810F8C02C0220F331F0A94E2F71B
:1055B000209528232083DF91CF911F910F91FF9099
:1055C000EF90DF90BF90AF900895DC011C96ED91B5
:1055D000FC911D97E05CFF4F219131918081918179
:1055E000281B390B2F733070C9010895DC011C96FC
:1055F000ED91FC911D97E05CFF4F20813181E054DB
:10560000F040DF01AE5BBF4F8D919C911197281741
:10561000390719F42FEF3FEF07C08D919C91E80FE8
:10562000F91F8081282F30E0C9010895DC011C9604
:10563000ED91FC911D97E05CFF4F20813181E0549A
:10564000F040DF01AE5BBF4F8D919C911197281701
:10565000390719F42FEF3FEF10C08D919C911197EE
:10566000E80FF91F20818D919C91119701968F73FE
:10567000907011969C938E9330E0C9010895DC01DF
:1056800091968C919197882339F05496ED91FC91E5
:105690005597808186FFF9CF91961C920895CF93FC
:1056A000DF93EC01EE85FF85E05CFF4F20813181C7
:1056B000E054F0402F5F3F4F2F733070DF01AE5B3F
:1056C000BF4F8D919C91119728173907D1F3E05C5A
:1056D000FF4F80819181E054F040E80FF91F608313
:1056E000EE85FF85E05CFF4F31832083EE89FF89E3
:1056F000208181E090E00F8C02C0880F991F0A94EE
:10570000E2F7282B208381E089A3EC89FD89808141
:105710008064808381E090E0DF91CF9108951092C2
:1057200098041092970488EE93E0A0E0B0E0809394
:10573000990490939A04A0939B04B0939C0487E0EF
:1057400092E090939604809395048DE094E090937A
:10575000A2048093A10481E594E09093A404809333
:10576000A30485EC90E09093A6048093A50484ECB8
:1057700090E09093A8048093A70480EC90E090932D
:10578000AA048093A90481EC90E09093AC048093E8
:10579000AB0482EC90E09093AE048093AD0486EC71
:1057A00090E09093B0048093AF0484E08093B104C0
:1057B00083E08093B20487E08093B30485E0809314
:1057C000B40481E08093B5040895CF93DF930E94E1
:1057D00006290E94FF1CC0E1DAE20E94F41C209717
:1057E000E1F30E94102AF9CFCF92DF92EF92FF925D
:1057F0000F931F93CF93DF937C016B018A01C0E06D
:10580000D0E00FC0D6016D916D01D701ED91FC91F3
:105810000190F081E02DC7010995C80FD91F0150F3
:1058200010400115110571F7CE01DF91CF911F9145
:105830000F91FF90EF90DF90CF900895EF92FF923D
:105840000F931F93CF93DF937C018B01C0E0D0E0D7
:10585000F8010F5F1F4F6491662359F0D701ED9156
:10586000FC910190F081E02DC7010995C80FD91F67
:10587000EFCFCE01DF91CF911F910F91FF90EF906D
:105880000895EF92FF920F931F938C01DC01ED912D
:10589000FC910190F081E02D6DE009957C01D8012B
:1058A000ED91FC910190F081E02DC8016AE009952D
:1058B0009C012E0D3F1DC9011F910F91FF90EF908C
:1058C0000895EF92FF920F931F937C010E941E2C6C
:1058D0008C01C7010E94412C9C01200F311FC9017E
:1058E0001F910F91FF90EF900895CF93DF93EC01FC
:1058F0006115710519F420E030E00FC0DB010D9057
:105900000020E9F71197A61BB70BE881F981028007
:10591000F381E02DAD0109959C01C901DF91CF9183
:1059200008954F925F927F928F929F92AF92BF9213
:10593000CF92DF92EF92FF920F931F93DF93CF935B
:10594000CDB7DEB7A1970FB6F894DEBF0FBECDBFBF
:105950002C01742ECB01223008F42AE019A231E286
:10596000C32ED12CCC0EDD1E822E9924AA24BB245A
:10597000672D752FA50194010E942E3579018A01AA
:10598000C801B701A50194010E94F034472D461BC0
:105990000894C108D1084A3014F4405D01C0495C44
:1059A000F6014083E114F1040105110521F07E2C7C
:1059B0005F2DC801DDCFC201B6010E94752CA196F2
:1059C0000FB6F894DEBF0FBECDBFCF91DF911F9110
:1059D0000F91FF90EF90DF90CF90BF90AF909F908E
:1059E0008F907F905F904F900895DC0121153105D5
:1059F00041F4ED91FC910190F081E02D642F099527
:105A000008950E94912C0895EF92FF920F931F9397
:105A10009A01E62EFF2400E010E0B801A7010E94E1
:105A2000F52C1F910F91FF90EF900895CF92DF9288
:105A3000EF92FF920F931F936C01E62E9A01FF24C1
:105A400000E010E0B801A7010E94F52C8C01C6010E
:105A50000E94412C080F191FC8011F910F91FF9040
:105A6000EF90DF90CF900895CF92DF92EF92FF9268
:105A70000F931F93CF93DF93EC016A017B012115F4
:105A8000310541F4E881F9810190F081E02D642F26
:105A900009951FC02A303105D1F477FF17C0E8817E
:105AA000F9810190F081E02D6DE209958C01442788
:105AB0005527BA014C195D096E097F09CE012AE00C
:105AC0000E94912C9801280F391F04C02AE00E94DF
:105AD000912C9C01C901DF91CF911F910F91FF90F3
