:100000000C94D3010C94FB010C94FB010C94FB01A8
:100010000C94FB010C94FB010C94FB010C94FB0170
:100020000C94FB010C94FB010C94FB010C94AA258D
:100030000C94FB010C94FB010C94FB010C94FB0150
:100040000C94B72C0C94FB010C94652E0C94B32EDD
:100050000C94FB010C94FB010C94FB010C94FB0130
:100060000C9419280C94FB016D61784C656E6774D3
:10007000683A20004669727374207761766520685B
:10008000616C66004D53472C492C596F7520707276
:100090006F6261626C7920776F6E27742067657478
:1000A00020616E792064657461696C20696E2074CA
:1000B0006869732E0020697320002C20726F7753BB
:1000C000697A653A20004D53472C492C4D617820C0
:1000D00064656E7369747920666F722070656E5303
:1000E000697A653A20004D53475F494E464F5F534A
:1000F0005452506F776572696E6720646F776E2E09
:10010000004C696E65206973206E6F74206F6E20DD
:1001100074686520706167652E20536B6970706923
:100120006E672069742E005468697320706F696E61
:10013000742066616C6C73206F75747369646520DC
:100140007468652061726561206F662074686973E8
:10015000206D616368696E652E20536B69707069EC
:100160006E672069742E006D6D004368616E67656F
:10017000642050656E20776964746820746F200075
:100180004E657720616363656C3A20004E65772089
:100190006D61782073706565643A200055703A206F
:1001A00000446F776E3A2000504753504545442C29
:1001B0000050474C4946542C005047535445504D2D
:1001C000554C5449504C4945522C005047535445C6
:1001D00050535045525245562C0050474D4D5045B6
:1001E000525245562C00504753495A452C0029007D
:1001F0007061676548656967687420696E2073740B
:10020000657073202800526563616C6320002900CB
:10021000526563616C6320706167655769647468D7
:1002200020696E2073746570732028002900292CC2
:100230002073746570735065724D4D2028005265AF
:1002400063616C63206D6D50657253746570202816
:10025000004C6F616465642073746570206D756C0B
:100260007469706C6965723A004C6F6164656420F2
:10027000757020706F733A004C6F61646564206420
:100280006F776E20706F733A004C6F616465642005
:10029000737465707320706572207265763A004CD5
:1002A0006F61646564206D6D5065725265763A00C9
:1002B0004C6F61646564206865696768743A004CD6
:1002C0006F616465642077696474683A00206E6FBA
:1002D00074207265636F676E697365642E005245A2
:1002E00053454E440044524157494E470052454100
:1002F00044590029206E6F74207061727365642EFA
:1003000000436F6D6D2028000000000024002700CE
:100310002A0000000000250028002B00000000003B
:100320002300260029000404040404040404020237
:100330000202020203030303030301020408102064
:10034000408001020408102001020408102000006F
:100350000007000201000003040600000000000086
:100360000000494E46494E4954594E414ECDCCCCE1
:100370003D0AD7233C17B7D13877CC2B329595E679
:10038000241FB14F0A000020410000C84200401C59
:100390004620BCBE4CCA1B0E5AAEC59D7400550704
:1003A000B5261F304E0711241FBECFEFD8E0DEBFA9
:1003B000CDBF12E0A0E0B1E0E2E5F5E702C00590B4
:1003C0000D92A433B107D9F715E0A4E3B2E001C060
:1003D0001D92AB3CB107E1F713E0C4EAD3E004C0DF
:1003E0002297FE010E94563ACE39D107C9F70E94E2
:1003F00075300C949C3A0C940000A0E0B0E0E3E06F
:10040000F2E00C946D3AEC01A880B980CA80DB80E0
:10041000A114B104C104D10441F484E2A82E89EDF1
:10042000B82E8BE5C82E87E0D82EC601B5012DE188
:1004300033EF41E050E00E94253A27EA31E440E002
:1004400050E00E94C5397B018C01C601B5012DE148
:1004500033EF41E050E00E94253ACA01B9012CEE89
:1004600034EF4FEF5FEF0E94C5396E0D7F1D801F87
:10047000911F97FF04C0615070408040904868838E
:1004800079838A839B839B01AC015F77B901CA01A1
:10049000CDB7DEB7EAE00C94893A0E94FD010895D9
:1004A00081EA91E00E94FD0108956093A10170939B
:1004B000A2018093A3019093A40108956627772752
:1004C0000C943C03FC0188279927E8942191203261
:1004D000E9F3293010F02E30C8F32B3241F02D32E1
:1004E00039F4689404C00E943403820F911D219155
:1004F00020532A30C0F31EF4909581959F4F0895A4
:100500001F93FC0199278827BC01E89411911032B0
:10051000E9F3193010F01E30C8F31B3251F01D32D0
:1005200049F4689406C00E941F03610F711D811D6C
:10053000911D119110531A30B0F33EF490958095AF
:10054000709561957F4F8F4F9F4F1F91089544E3A2
:1005500052E00E94ED020895FB01DC0102C001900F
:100560000D9241505040D8F70895FB01DC018D9168
:10057000019080190110D9F3990B0895FB01DC015A
:1005800001900D920020E1F70895FB01DC0141503C
:10059000504030F08D910190801919F40020B9F786
:1005A000881B990B0895FB0151915523A9F0BF01B8
:1005B000DC014D9145174111E1F759F4CD0101904E
:1005C000002049F04D9140154111C9F3FB01411143
:1005D000EFCF81E090E001970895009731F4DA01C0
:1005E0008D919C91009709F40EC0DC01FB013D91B7
:1005F0002191222319F03217C9F3FACF332331F4B2
:10060000DA011D921C928827992708951197AF93BC
:10061000BF93FB013D912191321771F4332321F4F3
:1006200088279927119702C01E921196FA01A1936B
:10063000B0839F918F910895222369F7EACF592FB4
:10064000482F372F262F660F771F881F991F660F99
:10065000771F881F991F620F731F841F951F660FD6
:10066000771F881F991F08957AE0979F902D879F85
:10067000802D910D11240895A0E0B0E0E2E4F3E0B4
:100680000C946B3AEC015B016115710519F0FB01EB
:1006900091838083F9908F2D90E00E945A3A892BA4
:1006A000C9F7FDE2FF1621F4F990EE24E39405C0AA
:1006B0002BE2F21609F4F990EE248E01015010405D
:1006C000C80162E673E043E050E00E949C04892B7D
:1006D00001F58E010E5F1F4FC80165E673E045E02E
:1006E00050E00E949C04892B19F48E01095F1F4F72
:1006F000A114B10419F0F50111830083E0FC04C0DA
:1007000070E090E080E814C070E090E080E86FEF67
:1007100008C1C8016AE673E043E050E00E949C040F
:10072000892B69F4A114B10429F470E090E080EC05
:100730006FE7F7C02296F501D183C083F6CF8824F6
:10074000992440E050E060E070E0EF2DE053EA30A3
:10075000A0F5F2E0EF2A8E2D90E09C012870307019
:10076000E2FE06C0232B79F50894811C911C2BC056
:10077000232B19F0089481089108DB01CA0112E0CB
:10078000880F991FAA1FBB1F1A95D1F7480F591F31
:100790006A1F7B1F440F551F661F771F4E0F511D89
:1007A000611D711D483929E9520729E9620729E1CC
:1007B000720748F084E0E82A06C0EE3F31F4E3FC1B
:1007C00039C098E0E92AF990C0CFE53311F0E5315E
:1007D00089F529912D3219F4E0E1EE2A05C02B327A
:1007E00019F081E090E003C0299182E090E0E22FCF
:1007F000E053EA3018F0C81BD90B1CC020E030E0F1
:10080000FCE020383F075CF4C901880F991F880F6E
:10081000991F280F391F220F331F2E0F311DE99109
:10082000E053EA3068F3E4FE03C0309521953F4F72
:10083000820E931ECE2CDD24E1FE07C0A114B1046C
:1008400021F02197F501D183C083CB01BA010E9429
:10085000FE377B018C01F3E0CF22DD2423E0C216BA
:10086000D10421F417FB109517F910955701680171
:10087000C801B70120E030E040E050E00E9461375D
:10088000882309F44AC097FE0DC021E8E22E23E038
:10089000F22E9094819491089394C0E2D0E000E00D
:1008A00010E012C099E9E92E93E0F92EF6CFF70196
:1008B0002591359145915491C601B5010E940939A0
:1008C0005B016C018C1A9D0A8C169D0684F7D595E8
:1008D000C7950F5F1F4F0630110529F08CEF9FEF72
:1008E000E80EF91EF1CFC501D6017C018D018C2DDA
:1008F000880F8D2D881F8F3F51F0C601B50120E074
:1009000030E040E050E00E946137882331F482E219
:1009100090E09093CA058093C9057E2D9F2D802F6E
:10092000612F272F392F482F562FB901CA01CDB774
:10093000DEB7ECE00C94873AFB01DC0141505040FB
:1009400088F08D9181341CF08B350CF4805E6591BC
:1009500061341CF06B350CF4605E861B611171F321
:10096000990B0895881BFCCFAF92BF92CF92DF9274
:10097000EF92FF920F931F936E157F0580079107EB
:1009800034F42E153F054007510764F42CC0E616D9
:10099000F7060807190794F4A216B306C406D5068D
:1009A0003CF423C0A216B306C406D506BCF41FC08F
:1009B0002A153B054C055D05C4F41BC06E157F056B
:1009C0008007910791F42A153B054C055D058CF0D5
:1009D000A216B306C406D50644F409C02A153B0581
:1009E0004C055D0511F484E005C082E003C083E09E
:1009F00001C081E01F910F91FF90EF90DF90CF90A9
:100A0000BF90AF9008956F927F928F929F92AF9216
:100A1000BF92CF92DF92EF92FF920F931F93CF93EB
:100A2000DF937C015B01662757FD6095762FCB0134
:100A3000BA010E9400383B014C010027F7FC0095E9
:100A4000102FC801B7010E9400387B018C01CC2413
:100A5000B7FCC094DC2CC601B5010E9400389B0194
:100A6000AC01C801B7010E946537A40193010E943F
:100A700009399B01AC01C401B3010E94FC367B0122
:100A80008C010E94CD37EB01BE01882777FD809550
:100A9000982F0E9400389B01AC01C801B7010E9449
:100AA000FC3620E030E040E05FE30E940539181694
:100AB0000CF42196CE01DF91CF911F910F91FF9001
:100AC000EF90DF90CF90BF90AF909F908F907F90EE
:100AD0006F9008952F923F924F925F926F927F9204
:100AE0008F929F92AF92BF92CF92DF92EF92FF923E
:100AF0000F931F931B012C0139014A01609142029F
:100B00007091430280914402909145020E94003806
:100B10007B018C01A80197010E9409395B016C01DE
:100B2000C401B301A40193010E9409399B01AC01E6
:100B3000C601B5010E94FC365B016C01C201B10126
:100B4000A20191010E9409399B01AC01C601B501C6
:100B50000E94FD365B016C01C801B701A801970135
:100B60000E94FD369B01AC01C601B5010E946537AC
:100B70001F910F91FF90EF90DF90CF90BF90AF90BB
:100B80009F908F907F906F905F904F903F902F90AD
:100B90000895AF92BF92CF92DF92EF92FF920F93A0
:100BA0001F938130910509F019C16F5F7F4F09F0E4
:100BB0006CC18DE593E060E071E00E94C63486E38D
:100BC00092E00E943324A090A701B090A801C090A9
:100BD000A901D090AA016091AB0170E080E090E0A3
:100BE0002091A5013091A601442737FD4095542F4F
:100BF0000E94C5390E9400387B018C01C601B501F5
:100C0000A80197010E94653760933A0270933B02F6
:100C100080933C0290933D02C801B701A601950163
:100C20000E9465377B018C0160933E0270933F0206
:100C300080934002909341026091C6017091C70178
:100C4000882777FD8095982F0E940038A80197018A
:100C50000E9409390E94CD3760934202709343028B
:100C600080934402909345026091C8017091C9013C
:100C7000882777FD8095982F0E940038A80197015A
:100C80000E9409390E94CD37609346027093470253
:100C9000809348029093490284E693E067E071E014
:100CA0000E94C6348BE693E06BE071E00E94C6348C
:100CB00082E793E06FE071E00E94C63489E793E039
:100CC00063E171E00E94C63480E893E067E171E07F
:100CD0000E94C63487E893E06BE171E00E94C6345D
:100CE0008EE893E06FE171E00E94C63485E993E0FD
:100CF00063E271E00E94C6348CE993E067E271E040
:100D00000E94C63483EA93E06BE271E00E94C6342D
:100D10008AEA93E06FE271E00E94C63481EB93E0CF
:100D200063E371E00E94C63488EB93E067E371E00F
:100D30000E94C6348FEB93E06BE371E00E94C634EF
:100D400086EC93E06FE371E00E94C6348DEC93E093
:100D500063E471E00E94C63484ED93E067E471E0DF
:100D60000E94C6348BED93E06BE471E00E94C634C0
:100D700082EE93E06FE471E00E94C6348DE892E069
:100D800060E60E946C2B6091A5017091A6018DE830
:100D900092E041E00E94C8299093D2028093D10250
:100DA0006091A5017091A6018DE892E042E00E9459
:100DB000C8299093D4028093D30285ED92E062E536
:100DC0007BE149E45BE10E94761F89E193E060E406
:100DD0007BE147E35BE10E94761F57C0892B09F056
:100DE00054C06F5F7F4F09F050C082EE93E00E94C5
:100DF000E0348BED93E00E94E03484ED93E00E94B8
:100E0000E0348DEC93E00E94E03486EC93E00E94A5
:100E1000E0348FEB93E00E94E03488EB93E00E9493
:100E2000E03481EB93E00E94E0348AEA93E00E9490
:100E3000E03483EA93E00E94E0348CE993E00E947E
:100E4000E03485E993E00E94E0348EE893E00E946C
:100E5000E03487E893E00E94E03480E893E00E9469
:100E6000E03489E793E00E94E03482E793E00E9457
:100E7000E0348BE693E00E94E03484E693E00E9445
:100E8000E0348DE593E00E94E0341F910F91FF90D4
:100E9000EF90DF90CF90BF90AF90089580E090E00A
:100EA0006FEF7FEF0E94C905089581E090E06FEF3A
:100EB0007FEF0E94C9050895AF92BF92CF92DF9253
:100EC000EF92FF920F931F937B018C01CA01B9012E
:100ED0000E9409395B016C01C801B701A8019701A3
:100EE0000E9409399B01AC01C601B5010E94FC3684
:100EF0000E9470391F910F91FF90EF90DF90CF907B
:100F0000BF90AF900895AF92BF92CF92DF92EF92D1
:100F1000FF920F931F937B018C0159016A0160912D
:100F200042027091430280914402909145020E94D6
:100F30000038A80197010E94FC369B01AC010E9479
:100F400009397B018C01C601B501A60195010E94FA
:100F500009399B01AC01C801B7010E94FD360E940E
:100F600070391F910F91FF90EF90DF90CF90BF905D
:100F7000AF900895AF92BF92CF92DF92EF92FF921F
:100F80000F931F937B018C0159016A01A8019701FE
:100F90000E9409397B018C01C601B501A6019501AA
:100FA0000E9409399B01AC01C801B7010E94FD36BE
:100FB0000E9470391F910F91FF90EF90DF90CF90BA
:100FC000BF90AF9008952F923F924F925F926F9291
:100FD0007F928F929F92AF92BF92CF92DF92EF92C9
:100FE000FF920F931F93DF93CF9300D000D0CDB724
:100FF000DEB769837A838B839C8359016A01170169
:101000002801611571058105910559F40F2EF0E055
:10101000EF2EF0E0FF2EF0E00F2FF0E01F2FF02D6D
:10102000A4C0CA01B9010E9409397B018C01C60123
:10103000B50120E030E040E050E00E9461378823B5
:1010400024F417FB109517F91095C201B101A20104
:1010500091010E94FD363B014C01C801B701A4017A
:1010600093010E9465377B018C0169817A818B81B4
:101070009C810E9400389B01AC01C801B7010E940D
:1010800061378823B4F5C601B50120E030E040E0C7
:1010900050E00E946137882329F4C401B3010E9403
:1010A00070390DC0C201B101A60195010E946537DA
:1010B0009B01AC015F77C601B5010E94FD367B0143
:1010C0008C01D090AC01C090AD01B090AE01A09069
:1010D000AF012D2D3C2D4B2D5A2D0E940539181690
:1010E0000CF043C08D2D9C2DAB2DBA2D7C018D01B4
:1010F0003CC0C601B50120E030E040E050E00E9475
:101100006137882359F4C401B3010E9470397B010F
:101110008C0117FB109517F910950FC0C201B10192
:10112000A60195010E9465379B01AC015F77C6015E
:10113000B5010E94FC367B018C018091AC0190913D
:10114000AD01A091AE01B091AF015C016D01D7FA84
:10115000D094D7F8D094C801B701A60195010E9498
:101160006137882314F486017501B701C8010F9017
:101170000F900F900F90CF91DF911F910F91FF90E3
:10118000EF90DF90CF90BF90AF909F908F907F9027
:101190006F905F904F903F902F9008958091B7018E
:1011A0008823C1F183EA95E063E571E00E944A3249
:1011B00085ED92E00E94D01D2091AB0130E040E02F
:1011C00050E00E94253A83EA95E0BA01A9012AE09D
:1011D00030E00E94C43183EA95E067EF71E00E943D
:1011E0004A3289E193E00E94D01D2091AB0130E0AA
:1011F00040E050E00E94253A83EA95E0BA01A90157
:101200002AE030E00E94C43183EA95E069EF71E0A2
:101210000E9447330895EF92FF920F931F9380919E
:101220004A0290914B02A0914C02B0914D0200975E
:10123000A105B10509F040C06091420270914302DE
:1012400080914402909145020E9400387B018C01FC
:101250006091460270914702809148029091490244
:101260000E9400389B01AC01C801B7010E94BA0777
:1012700020E030E040E05FE30E94FD360E94CD3781
:1012800060934A0270934B0280934C0290934D02FC
:1012900083EA95E068E670E00E94AE3040914A0231
:1012A00050914B0260914C0270914D0283EA95E09F
:1012B0002AE030E00E94043260914A0270914B02B1
:1012C00080914C0290914D021F910F91FF90EF90F1
:1012D000089589EE93E00E9462028093CA0187EF2D
:1012E00093E00E9462029093D1018093D00108950F
:1012F00083EA95E06DEE72E00E94F13008950F935D
:101300001F9389EE93E00E945E026093CB0170937D
:10131000CC018093CD019093CE0103EA15E0C80182
:101320006AE671E00E94AE304091CB015091CC0151
:101330006091CD017091CE01C80122E030E00E94A1
:101340003133C80167E671E00E94F1301F910F91BF
:101350000895AF92BF92CF92DF92EF92FF920F93D8
:101360001F93CF93DF935B016C01EA01BA018827D9
:1013700077FD8095982F0E94003820913A02309195
:101380003B0240913C0250913D020E940939A60166
:1013900095010E9465377B018C0120E030E040E040
:1013A00050E40E94053987FF03C001E010E008C047
:1013B000C801B7010E94CD378B016330710574F508
:1013C00083EA95E066EC70E00E94AE3083EA95E037
:1013D000B601A50122E030E00E94313383EA95E0B6
:1013E0006AEB70E00E94AE3083EA95E0BE014AE00D
:1013F00050E00E94183283EA95E065EB70E00E94AD
:10140000AE3083EA95E0B8014AE050E00E942B320A
:1014100083EA95E064E870E00E94F130C801DF9152
:10142000CF911F910F91FF90EF90DF90CF90BF90E1
:10143000AF900895AF92BF92CF92DF92EF92FF925A
:101440000F931F93CF93DF93EC015B016A0186E357
:1014500092E069E070E00E94A325CA15DB059CF4C8
:1014600076010027F7FC0095102F86E392E0BE017D
:101470000E94BC24C801B7010E94332D2196AC16EE
:10148000BD069CF712C076010027F7FC0095102FCF
:1014900086E392E0BE010E94BC24C801B7010E940D
:1014A000332D2197CA15DB059CF786E392E00E9455
:1014B0004D24DF91CF911F910F91FF90EF90DF901E
:1014C000CF90BF90AF900895CF93DF9380914E025D
:1014D000909139028230B0F0992329F0C091D20165
:1014E000D091D30104C0C091D401D091D50189EE2F
:1014F00093E00E946202BC019093D5018093D401D5
:10150000CE010AC0913061F46091D4017091D5018F
:101510008091D2019091D30143E050E00E941A0AD9
:1015200010923902DF91CF910895CF93DF9380918C
:101530004E02909139028230B0F0992329F0C09187
:10154000D201D091D30104C0C091D401D091D50172
:1015500089EE93E00E946202BC019093D3018093D4
:10156000D201CE010AC0992361F46091D201709139
:10157000D3018091D4019091D50143E050E00E94C5
:101580001A0A81E080933902DF91CF91089585EDA9
:1015900092E00E945E2289E193E00E945E220E9416
:1015A000950A109288020895EF92FF920F931F936D
:1015B0000E94FF2C9B01AC01E0908302F09084021A
:1015C0000091850210918602809187028823E9F0BC
:1015D000809188028823C9F02E193F09400B510BD6
:1015E0008091BB019091BC01A091BD01B091BE0161
:1015F00082179307A407B50744F483EA95E066EEE3
:1016000070E00E94F1300E94C70A1F910F91FF9075
:10161000EF900895CF93DF93EC01AB01662757FD60
:101620006095762F0E94671F09C00E94D40A80919E
:10163000B801882319F0CE010E94F723CE010E9441
:10164000C01D611571058105910579F70E94FF2C78
:101650006093830270938402809385029093860244
:10166000DF91CF9108958F929F92AF92BF92CF92C8
:10167000DF92EF92FF920F931F93CF93DF935C0162
:101680006B01EA014901E114F104C9F483EA95E030
:1016900064E770E00E94F1308091CF01882331F03F
:1016A000CE0162E070E00E94F0392BC0CE0162E012
:1016B00070E00E94F039709561957F4F22C0809153
:1016C000CF01E016F106A1F4882331F0CA0162E0EF
:1016D00070E00E94F03908C0CA0162E070E00E9428
:1016E000F039709561957F4FC6010E940A0B1AC0B0
:1016F000882319F0CB01BA0105C066277727641B40
:10170000750BC6010E940A0BC501B4010E940A0BA9
:101710008091CF01882319F01092CF0103C081E09E
:101720008093CF01DF91CF911F910F91FF90EF90A8
:10173000DF90CF90BF90AF909F908F9008953F9291
:101740004F925F926F927F928F929F92AF92BF92D1
:10175000CF92DF92EF92FF920F931F93DF93CF937D
:10176000CDB7DEB728970FB6F894DEBF0FBECDBF5A
:10177000FC012B014A01322E141615060CF08DC007
:10178000BA010E94F0393B01CF01B4010E94F03947
:10179000AA2797FDA095BA2FBC01CD010E94003861
:1017A0007B018C01B401882777FD8095982F0E94DA
:1017B00000389B01AC01C801B7010E9465376983FD
:1017C0007A838B839C830F2EF0E0AF2EF0E0BF2E48
:1017D000F0E0CF2EF0E0DF2EF02D18861F82C3013F
:1017E00001969E838D83C601B50129813A814B8183
:1017F0005C810E94FD365B016C0120E030E040E836
:101800005FE30E94053987FF02C0F3010CC0C601E7
:10181000B50120E030E040E85FE30E94FC365B0168
:101820006C01ED81FE8192E0391629F485ED92E09C
:1018300069E173E007C0A3E03A1639F489E193E067
:1018400065ED72E0A2019F0118C0B4E03B1649F4B7
:10185000222733272E1B3F0B85ED92E069E173E0D1
:101860000BC081E0381671F4222733272E1B3F0B63
:1018700089E193E065ED72E0A2018401EF80F884D4
:101880000E94330B0E94CE08AF81B8851196B887AD
:10189000AF838A169B060CF0A6CF28960FB6F89455
:1018A000DEBF0FBECDBFCF91DF911F910F91FF9093
:1018B000EF90DF90CF90BF90AF909F908F907F90F0
:1018C0006F905F904F903F9008953F924F925F923C
:1018D0006F927F928F929F92AF92BF92CF92DF9240
:1018E000EF92FF920F931F93DF93CF9300D000D01E
:1018F00000D0CDB7DEB789EE93E00E946202E0909F
:10190000AB01FF2400E010E09C01442737FD409527
:10191000542FC801B7010E94C5397E836D8387EFBC
:1019200093E00E945E02162F072FF82EE92E85E025
:1019300094E00E945E022B013C0183E194E00E944E
:101940005E024B015C013090CA0182E08093CA01C3
:101950008091CB019091CC01A091CD01B091CE01AD
:1019600089839A83AB83BC83212F302F4F2D5E2D2B
:10197000C901DA017C018D01CC24DD2420C008944A
:10198000C11CD11CE092CB01F092CC010093CD019F
:101990001093CE01C801B7014D815E810E94A90953
:1019A000AC018D819E81BC0122E00E949F0BC80189
:1019B000B701A50194010E94FD367B018C01C8018D
:1019C000B701A30192010E9461371816C4F68981FC
:1019D0009A81AB81BC818093CB019093CC01A09381
:1019E000CD01B093CE01ED80FE80F094E194F1083A
:1019F000F39489E193E0B7010E940A0B8D819E81E7
:101A000062E070E00E94F039709561957F4F4B0164
:101A10008D819E8162E070E00E94F0395B0101E0FF
:101A200010E011C089E193E0B4010E940A0B85ED3A
:101A300092E0B7010E940A0B89E193E0B5010E9490
:101A40000A0B0F5F1F4FC016D10664F789819A8178
:101A5000AB81BC818093CB019093CC01A093CD014D
:101A6000B093CE013092CA0126960FB6F894DEBF2D
:101A70000FBECDBFCF91DF911F910F91FF90EF90DF
:101A8000DF90CF90BF90AF909F908F907F906F909E
:101A90005F904F903F9008952F923F924F925F92A8
:101AA0006F927F928F929F92AF92BF92CF92DF926E
:101AB000EF92FF920F931F937B018C0159016A01F2
:101AC0000E94FF2C609383027093840280938502AE
:101AD0009093860285ED92E00E94B8201B012C01B4
:101AE00089E193E00E94B8203B014C0185ED92E032
:101AF00040E050E060E070E00E94332089E193E034
:101B000040E050E060E070E00E943320C801B7017F
:101B10000E9400380E94CD37AB01BC0185ED92E0F8
:101B20000E94551FC601B5010E9400380E94CD37A2
:101B3000AB01BC0189E193E00E94551F8091B40183
:101B4000882309F042C085ED92E00E94B82020E091
:101B500030E040E050E00E946137882324F457FAD7
:101B6000509457F8509489E193E00E94B82020E007
:101B700030E040E050E00E946137882324F497FA77
:101B8000909497F8909485ED92E0B201A1010E94A3
:101B9000332089E193E0B401A3010E94332015C0F2
:101BA0008091B401882349F085ED92E00E94F723EB
:101BB00089E193E00E94F72308C085ED92E00E943E
:101BC000D32389E193E00E94D32385ED92E00E9424
:101BD000C01D611571058105910549F489E193E006
:101BE0000E94C01D611571058105910539F00E94A3
:101BF000D40A8091B801882341F3D2CF0E94CE0845
:101C00001F910F91FF90EF90DF90CF90BF90AF901A
:101C10009F908F907F906F905F904F903F902F900C
:101C200008952F923F924F925F926F927F928F9280
:101C30009F92AF92BF92CF92DF92EF92FF920F935B
:101C40001F93DF93CF9300D000D0CDB7DEB73B0119
:101C50004C0159016A01FA82E982C80162E070E030
:101C60000E94F039882777FD8095982F661A770AA9
:101C7000880A990AA61AB70AC80AD90A1C821B82BE
:101C80001801442437FC4094542C2EC060E070E0CE
:101C900080E090E0A20191010E94F8337B018C0169
:101CA00060E070E080E090E0A20191010E94F833D2
:101CB0009B01AC010027F7FC0095102FE60CF71CE8
:101CC000081D191D442737FD4095542F2A0D3B1D33
:101CD0004C1D5D1DC801B7010E944C0D2B813C813C
:101CE0002F5F3F4F3C832B838B819C81E981FA815D
:101CF000E817F9075CF60F900F900F900F90CF91B7
:101D0000DF911F910F91FF90EF90DF90CF90BF90E8
:101D1000AF909F908F907F906F905F904F903F908B
:101D20002F9008952F923F924F925F926F927F92E1
:101D30008F929F92AF92BF92CF92DF92EF92FF92DB
:101D40000F931F93DF93CF93CDB7DEB72C970FB6CA
:101D5000F894DEBF0FBECDBF89EE93E00E948002F3
:101D60006D837E838F839887A090AB01BB24CC24A6
:101D7000DD2487EF93E00E94800269837A838B835E
:101D80009C8385E094E00E946202AA2797FDA095BB
:101D9000BA2FBC01CD01A60195010E94C5397B0176
:101DA0008C013B0183E194E00E9462022C0160916E
:101DB000CB017091CC018091CD019091CE01A70112
:101DC0000E94A909AC01C2016FEF70E00E940305F7
:101DD0007C01C601B5012D813E814F8158850E944D
:101DE000C53969877A878B879C87C601B5012981A8
:101DF0003A814B815C810E94C5391B012C018824EA
:101E000077FC8094982CC401B3010E9400382DEC1B
:101E10003CEC4CE85FE30E9409390E94CD375B013E
:101E20006C0169857A858B859C85A201910185016C
:101E30000E94110E2C960FB6F894DEBF0FBECDBFD8
:101E4000CF91DF911F910F91FF90EF90DF90CF9096
:101E5000BF90AF909F908F907F906F905F904F90CA
:101E60003F902F9008952F923F924F925F926F92E2
:101E70007F928F929F92AF92BF92CF92DF92EF921A
:101E8000FF920F931F93DF93CF93CDB7DEB72A97BF
:101E90000FB6F894DEBF0FBECDBF89EE93E00E946F
:101EA00080029B01AC01E090AB01FF2400E010E058
:101EB000C801B7010E94C5396D837E838F839887DF
:101EC00087EF93E00E9480029B01AC01C801B7013B
:101ED0000E94C5391B012C0185E094E00E9462023A
:101EE000AA2797FDA095BA2FBC01CD01A8019701A3
:101EF0000E94C5397B018C017C836B8383E194E074
:101F00000E9462029A838983C70162E070E00E94A6
:101F1000F0394B01CB01880F991F3701681A790AF4
:101F20008091CA018130C1F485ED92E00E94D01DFC
:101F30007B018C0189E193E00E94D01D5B016C0163
:101F40006D817E818F819885A20191010E94B404E8
:101F50008093D0011092D1012091D0013091D10114
:101F600022303105F9F49401442737FD4095542F70
:101F7000ED80FE800F811885E21AF30A040B150B21
:101F8000C301AA2797FDA095BA2FE80EF91E0A1FD4
:101F90001B1F6D807E808F809884620E731E841E4E
:101FA000951E3DC023303105C9F49401442737FD07
:101FB0004095542F62015101A21AB30AC40AD50AEE
:101FC000C301AA2797FDA095BA2FA80EB91ECA1E55
:101FD000DB1E220E331E441E551E32C0C401AA272A
:101FE00097FDA095BA2FA301662757FD6095762F20
:101FF00024303105B9F4ED80FE800F811885E80E9C
:10200000F91E0A1F1B1FE41AF50A060B170B6D8039
:102010007E808F809884681A790A8A0A9B0A6201F6
:10202000510114C05C016D01A20CB31CC41CD51C71
:10203000A41AB50AC60AD70A281A390A4A0A5B0A34
:10204000ED80FE800F811885370148016091CB013A
:102050007091CC018091CD019091CE014B815C813A
:102060000E94A909AC0189819A816FEF70E00E94FA
:1020700003059A878987C801B701A60195010E94C7
:102080004C0D89859A8502974CF08B819C81BC010F
:1020900049855A852091D0010E949F0BC401B3014C
:1020A000A20191010E944C0D2A960FB6F894DEBF52
:1020B0000FBECDBFCF91DF911F910F91FF90EF9099
:1020C000DF90CF90BF90AF909F908F907F906F9058
:1020D0005F904F903F902F9008952F923F924F9294
:1020E0005F926F927F928F929F92AF92BF92CF92A8
:1020F000DF92EF92FF920F931F93DF93CF93CDB7B1
:10210000DEB7E0970FB6F894DEBF0FBECDBF2B0150
:102110003C019CA28BA20E946A056B8F7C8F8D8FE5
:102120009E8FA30192010E945C076F8B788F898F2D
:102130009A8FC801B701A60195010E946A055B014B
:102140006C01A80197010E945C077B018C01C6010C
:10215000B50120E030E040EA51E40E94053918164C
:102160000CF014C2609142027091430280914402CB
:102170009091450264517040804090400E94003828
:102180006F8F78A389A39AA3C601B5012F8D38A1BB
:1021900049A15AA10E94613788230CF0F7C1C801F8
:1021A000B70120E030E040EA51E40E9405391816FA
:1021B0000CF0ECC160914602709147028091480298
:1021C0009091490264517040804090400E940038D4
:1021D0002B013C01C801B701A30192010E946137A4
:1021E00088230CF0D3C16B8D7C8D8D8D9E8D20E06E
:1021F00030E040EA51E40E94053918160CF0C6C1DF
:102200006B8D7C8D8D8D9E8D2F8D38A149A15AA10E
:102210000E94613788230CF0B9C16F89788D898D50
:102220009A8D20E030E040EA51E40E94053918160A
:102230000CF0ACC16F89788D898D9A8DA3019201C4
:102240000E94613788230CF0A1C11092B701C6012A
:10225000B5012B8D3C8D4D8D5E8D0E94FC361B0192
:102260002C01C801B7012F89388D498D5A8D0E94E4
:10227000FC363B014C01C201B10120E030E040E0FE
:1022800050E00E94053918161CF48201710106C045
:102290008201710117FB109517F91095C401B30164
:1022A00020E030E040E050E00E94053918161CF4B0
:1022B000A401930103C0A40193015058C801B701C0
:1022C0000E94053918169CF021E030E03E8B2D8BE2
:1022D000D401C301B0588DA79EA7AFA7B8ABABA1DF
:1022E000BCA15D01CC24B7FCC094DC2C4EC021E025
:1022F00030E03E8B2D8BD201C101B05889A79AA73F
:10230000ABA7BCA7ABA1BCA15D01CC24B7FCC0941A
:10231000DC2C06C02D893E892F5F3F4F3E8B2D8BD5
:10232000C201B10120E030E040E050E00E940539F8
:1023300018161CF48201710104C0E9A4FAA40BA5CB
:102340001CA5AD89BE89BD01882777FD8095982F92
:102350000E9400389B01AC01C801B7010E9465379B
:102360007B018C01C601B5010E9400389B01AC01C4
:10237000C801B7010E940539181664F234C02D89CE
:102380003E892F5F3F4F3E8B2D8BC401B30120E070
:1023900030E040E050E00E94053918161CF484013A
:1023A000730104C0EDA4FEA40FA518A9AD89BE89D0
:1023B000BD01882777FD8095982F0E9400389B01EA
:1023C000AC01C801B7010E9465377B018C01C601D1
:1023D000B5010E9400389B01AC01C801B7010E9401
:1023E0000539181664F22D893E895901CC24B7FCB1
:1023F000C094DC2CC601B5010E9400387B018C0121
:10240000C201B101A80197010E9465376D837E83E7
:102410008F839887C401B301A80197010E94653793
:1024200069837A838B839C831092B401198A1A8AF8
:102430001B8A1C8A19861A861B861C86ADA2BEA220
:10244000CFA2D8A66B8D7C8D8D8D9E8D2D813E81EA
:102450004F8158850E94FD366B8F7C8F8D8F9E8FAC
:102460006F89788D898D9A8D29813A814B815C8124
:102470000E94FD366F8B788F898F9A8F6B8D7C8D44
:102480008D8D9E8D2F89388D498D5A8D0E94BA076A
:102490006D877E878F87988B6B8D7C8D8D8D9E8DC4
:1024A0002F89388D498D5A8D0E9483071B012C017D
:1024B00069847A848B849C848DA19EA1AFA1B8A5E8
:1024C000680E791E8A1E9B1E69897A898B899C8970
:1024D0000E9400385B016C016091B0017091B10104
:1024E0008091B2019091B30120E030E040E850E4E7
:1024F0000E9409397B018C01C401B301A601950139
:102500000E94E3070E94CD37698B7A8B8B8B9C8B63
:102510000E9400387B018C0185ED92E0B801A70193
:102520000E94332089E193E0B801A7010E94332083
:102530006D857E858F8598890E94CD377B018C01C2
:10254000C201B1010E94CD379B01AC01C801B701A6
:102550000E944C0D89859A85AB85BC850197A109A0
:10256000B10989879A87AB87BC878D899E89A985A0
:10257000BA858A0F9B1F892B09F064CF81E0809375
:10258000B7018093B4010E94CE080CC083EA95E0A5
:102590006FEB71E00E944A3283EA95E061E071E0FE
:1025A0000E94F130E0960FB6F894DEBF0FBECDBFAB
:1025B000CF91DF911F910F91FF90EF90DF90CF901F
:1025C000BF90AF909F908F907F906F905F904F9053
:1025D0003F902F9008952F923F924F925F926F926B
:1025E0007F928F929F92AF92BF92CF92DF92EF92A3
:1025F000FF920F931F93DF93CF9300D000D000D0B2
:10260000CDB7DEB789EE93E00E945E027B018C01BC
:102610006091AB0170E0882777FD8095982F0E942C
:1026200000389B01AC01C801B7010E9409393B0188
:102630004C0187EF93E00E945E027B018C01D090F9
:10264000AB0185E094E00E9462029E838D8385ED5C
:1026500092E00E94D01D69837A838B839C8389E1F9
:1026600093E00E94D01D1B012C01C401B30120E0A6
:1026700030E040EA51E40E94613787FD30C06D2DA3
:1026800070E0882777FD8095982F0E9400389B0185
:10269000AC01C801B7010E9409395B016C0120E05F
:1026A00030E040EA51E40E94613787FD18C00E9483
:1026B0000B090E9400389B01AC01C401B3010E94C8
:1026C0000539181664F00E940B090E9400389B011E
:1026D000AC01C601B5010E94053918166CF483EAF5
:1026E00095E06FEB71E00E944A3283EA95E067E281
:1026F00071E00E94F13016C069817A818B819C81E2
:102700000E9400387B018C01C201B1010E94003897
:102710009B01AC01C801B701840173018D809E80CB
:102720000E946D1026960FB6F894DEBF0FBECDBF87
:10273000CF91DF911F910F91FF90EF90DF90CF909D
:10274000BF90AF909F908F907F906F905F904F90D1
:102750003F902F900895AF92BF92CF92DF92EF9269
:10276000FF920F931F9339EEC32E33E0D32EC60191
:102770000E945E027B018C016091AB0170E08827B2
:1027800077FD8095982F0E9400389B01AC01C8010D
:10279000B7010E9409397B018C01C6010E945E02CB
:1027A0005B016C01C801B7010E94CD377B018C0130
:1027B0006091AB0170E0882777FD8095982F0E948B
:1027C00000389B01AC01C601B5010E9409390E9485
:1027D000CD379B01AC01C801B7010E944C0D1F9180
:1027E0000F91FF90EF90DF90CF90BF90AF90089542
:1027F000EF92FF920F931F9305ED12E0C8010E9424
:10280000AC2249E1E42E43E0F42EC7010E94AC2241
:1028100081E080938802C8010E94D01DAB01BC01F9
:102820004C5F5F4F6F4F7F4FC8010E942824C70144
:102830000E94D01DAB01BC014C5F5F4F6F4F7F4FBB
:10284000C7010E942824C8010E94D01DAB01BC0111
:102850004450504060407040C8010E942824C70185
:102860000E94D01DAB01BC014450504060407040FC
:10287000C7010E9428241F910F91FF90EF900895A7
:102880006F927F928F929F92AF92BF92CF92DF9280
:10289000EF92FF920F931F9389EE93E00E948002C4
:1028A0005B016C01E090AB01FF2400E010E087EFDA
:1028B00093E00E9480023B014C01C801B701A601D0
:1028C00095010E94C539AB01BC0185ED92E00E94E3
:1028D000D61DC801B701A40193010E94C539AB01FF
:1028E000BC0189E193E00E94D61D0E94F8130E946A
:1028F000CE081F910F91FF90EF90DF90CF90BF9087
:10290000AF909F908F907F906F9008950F931F933B
:10291000AB01BC014093B0015093B1016093B2018F
:102920007093B30185ED92E00E9403234091B001C2
:102930005091B1016091B2017091B30189E193E0CE
:102940000E94032303EA15E0C80160E871E00E94D9
:10295000AE304091B0015091B1016091B2017091DF
:10296000B301C80122E030E00E9434331F910F917F
:1029700008950F931F93CF93DF9389EE93E00E9406
:102980005E020E94861480914E028330C1F487EF6C
:1029900093E00E946202019791F400EB11E06AE17A
:1029A00070E0EB012196F80141918F0181E594E0FF
:1029B0000E946F26CE31D10511F0BE01F2CFDF911A
:1029C000CF911F910F910895CF92DF92EF92FF92D6
:1029D0000F931F937C018B0151E5C52E54E0D52E3A
:1029E000C601B701F80140810E946F260894E11CDE
:1029F000F11CC601B701F80141810E946F2682E0F7
:102A000090E01F910F91FF90EF90DF90CF9008958D
:102A10000F931F93AB01BC014093AC015093AD01E8
:102A20006093AE017093AF0185ED92E00E94DD1FCF
:102A30004091AC015091AD016091AE017091AF0138
:102A400089E193E00E94DD1F03EA15E0C8016CE80C
:102A500071E00E94AE304091AC015091AD016091A7
:102A6000AE017091AF01C80122E030E00E94343322
:102A70001F910F9108950F931F93CF93DF9389EECA
:102A800093E00E945E020E94081580914E028330FE
:102A9000C1F487EF93E00E946202019791F40CEA7F
:102AA00011E066E170E0EB012196F80141918F01A0
:102AB00081E594E00E946F26CA31D10511F0BE0174
:102AC000F2CFDF91CF911F910F910895CF92DF92B6
:102AD000EF92FF920F931F937C018B0161E5C62E4D
:102AE00064E0D62EC601B7010E946826F8018083F3
:102AF0000894E11CF11CC601B7010E946826F80188
:102B0000818382E090E01F910F91FF90EF90DF9022
:102B1000CF9008958AE290E064ED71E00E9466151E
:102B20008091D4019091D50197FF06C08AE590E08D
:102B30009093D5018093D40183EA95E068E772E031
:102B40000E94AE306091D4017091D50183EA95E086
:102B50004AE050E00E942B328CE290E062ED71E09E
:102B60000E9466158091D2019091D30197FF06C013
:102B700084EB90E09093D3018093D20183EA95E0B7
:102B800069E672E00E94AE306091D2017091D3018B
:102B900083EA95E04AE050E00E942B320895DF93EB
:102BA000CF9300D000D0CDB7DEB789EE93E00E947E
:102BB00062029A83898387EF93E00E9462029C837A
:102BC0008B8383EA95E061EA71E00E94AE3069810F
:102BD0007A8183EA95E04AE050E00E942B3283EA52
:102BE00095E06CE971E00E94AE306B817C8183EAF4
:102BF00095E04AE050E00E942B3280914E028430F2
:102C000089F48AE290E0BE016F5F7F4F0E94E41476
:102C10008CE290E0BE016D5F7F4F0E94E4140E9441
:102C20008A153AC08330C1F569817A818B819C8194
:102C300043E050E00E941A0A68EC70E080E090E007
:102C40000E94332D6B817C8189819A8143E050E021
:102C50000E941A0A68EC70E080E090E00E94332D38
:102C600069817A818B819C8143E050E00E941A0A3D
:102C700068EC70E080E090E00E94332D6B817C81F5
:102C800089819A8143E050E00E941A0A68EC70E062
:102C900080E090E00E94332D0F900F900F900F90E6
:102CA000CF91DF91089580E090E066EC71E00E94A2
:102CB00066158091C6019091C7011816190644F057
:102CC0008091DC019091DD019093C7018093C60152
:102CD00083EA95E06FEB72E00E94AE306091C6012E
:102CE0007091C70183EA95E04AE050E00E942B32E0
:102CF00082E090E068EC71E00E9466158091C80166
:102D00009091C9011816190644F08091DE01909146
:102D1000DF019093C9018093C80183EA95E060EBDD
:102D200072E00E94AE306091C8017091C90183EADF
:102D300095E04AE050E00E942B3208950F931F93D4
:102D4000DF93CF9300D000D000D0CDB7DEB789EEAF
:102D500093E00E9462028C019A83898387EF93E05B
:102D60000E9462029C838B831E830D8380E090E02F
:102D7000BE016B5F7F4F0E94661529813A818D816C
:102D80009E818217930751F02B3031053CF080E093
:102D900090E0BE016F5F7F4F0E94E41482E090E0FC
:102DA000BE016B5F7F4F0E9466152B813C818D8138
:102DB0009E818217930751F02B3031053CF082E061
:102DC00090E0BE016D5F7F4F0E94E4140E94531695
:102DD00026960FB6F894DEBF0FBECDBFCF91DF9120
:102DE0001F910F910895EF92FF920F931F93CF932E
:102DF000DF93AC019B01EB0174E0E72EF12CE20EB6
:102E0000F31E8A010F5F1F4F81E594E0BA010E9413
:102E100068268993A801CE15DF0599F784E090E034
:102E2000DF91CF911F910F91FF90EF90089586E170
:102E300090E06CEA71E00E94F3166091AC01709131
:102E4000AD018091AE019091AF010E94CD37161671
:102E5000170664F080E090E0A8E4B4E48093AC014D
:102E60009093AD01A093AE01B093AF018AE190E0E1
:102E700060EB71E00E94F3166091B0017091B101B6
:102E80008091B2019091B3010E94CD3716161706BA
:102E900064F080E090E0A8E4B4E48093B001909303
:102EA000B101A093B201B093B30108958EE090E018
:102EB00067EA71E00E94F3166091A7017091A80182
:102EC0008091A9019091AA0120E030E040E85FE301
:102ED0000E946137882394F46091D8017091D901E0
:102EE000882777FD8095982F0E9400386093A7016E
:102EF0007093A8018093A9019093AA0183EA95E0B9
:102F00006FE972E00E94AE304091A7015091A80194
:102F10006091A9017091AA0183EA95E022E030E076
:102F20000E94343382E190E065EA71E00E94661508
:102F30008091A5019091A6011816190644F0809180
:102F4000DA019091DB019093A6018093A50183EAB9
:102F500095E069E872E00E94AE306091A501709141
:102F6000A60183EA95E04AE050E00E942B320895E2
:102F700081E594E064E170E00E9468268093AB01F3
:102F8000882321F48091D6018093AB0183EA95E0F8
:102F900061E572E00E94AE3083EA95E06091AB019A
:102FA0004AE050E00E94A6310895AF92BF92CF92BE
:102FB000DF92EF92FF920F931F930E9453160E948D
:102FC00056170E94B8170E948A150E9417178EE1A3
:102FD00090E06BEC71E00E94F3166091CB01709170
:102FE000CC018091CD019091CE0127E137EB41EDED
:102FF00058E30E946137882364F48DEC9CECACE4C8
:10300000BFE38093CB019093CC01A093CD01B0930B
:10301000CE01A090A701B090A801C090A901D090C6
:10302000AA016091AB0170E080E090E02091A501E1
:103030003091A601442737FD4095542F0E94C53991
:103040000E9400387B018C01C601B501A8019701DF
:103050000E94653760933A0270933B0280933C0272
:1030600090933D02C801B701A60195010E94653702
:1030700060933E0270933F0280934002909341021E
:1030800083EA95E06EE372E00E94AE3040913A022E
:1030900050913B0260913C0270913D0283EA95E0C1
:1030A00022E030E00E94313383EA95E06EE272E084
:1030B0000E94AE3040913E0250913F02609140022A
:1030C0007091410283EA95E022E030E00E943133C2
:1030D00083EA95E06CE272E00E94F1306091C601F3
:1030E0007091C701882777FD8095982F0E9400383E
:1030F00020913E0230913F024091400250914102A6
:103100000E9409390E94CD376093420270934302B6
:10311000809344029093450283EA95E060E172E077
:103120000E94AE30409142025091430260914402AD
:103130007091450283EA95E02AE030E00E94C431B4
:1031400083EA95E06EE072E00E94F1306091C80180
:103150007091C901882777FD8095982F0E940038CB
:1031600020913E0230913F02409140025091410235
:103170000E9409390E94CD3760934602709347023E
:10318000809348029093490283EA95E066E072E0FA
:103190000E94AE3083EA95E060EF71E00E94AE30AD
:1031A0004091460250914702609148027091490255
:1031B00083EA95E02AE030E00E94C43183EA95E09A
:1031C0006EEE71E00E94AE3083EA95E00E94D1304D
:1031D00010924A0210924B0210924C0210924D0231
:1031E0001F910F91FF90EF90DF90CF90BF90AF9025
:1031F0000895DF93CF9300D0CDB7DEB789EE93E08B
:103200000E9462029A83898384E190E0BE016F5F2D
:103210007F4F0E94E4140E94D5170F900F90CF911A
:10322000DF910895DF93CF9300D0CDB7DEB789EE5D
:1032300093E00E9462029A83898382E190E0BE015A
:103240006F5F7F4F0E94E4140E94D5170F900F907C
:10325000CF91DF910895EF92FF920F931F93DF9329
:10326000CF9300D000D0CDB7DEB789EE93E00E94B7
:103270005E0269837A838B839C837E010894E11CC0
:10328000F11C6EE070E08B010F5F1F4FF701419161
:103290007F0181E594E00E946F26B801023111059B
:1032A00091F70E94D5170F900F900F900F90CF912C
:1032B000DF911F910F91FF90EF900895CF93DF93CF
:1032C000C0E0D0E081E594E0BE0140E00E946F26BE
:1032D0002196C233D105B1F70E94D517DF91CF9166
:1032E0000895CF93DF93C0E0D0E083EA95E0BE017C
:1032F0004AE050E00E94183283EA95E069E571E007
:103300000E944A3281E594E0BE010E946826682F3F
:1033100083EA95E04AE050E00E94A6312196C83247
:10332000D10519F7DF91CF910895CF92DF92EF92F7
:10333000FF920F931F930E94711903EA15E0C801D1
:1033400066EE71E00E94AE306091C6017091C701D7
:10335000C8014AE050E00E941832F7EFCF2EF1E0AA
:10336000DF2EC801B6010E944A326091C8017091F7
:10337000C901C8014AE050E00E941832E9EFEE2E80
:10338000E1E0FE2EC801B7010E944733C8016AED93
:1033900071E00E94AE304091A7015091A801609168
:1033A000A9017091AA01C80122E030E00E943133E6
:1033B000C801B7010E944733C8016BEC71E00E945D
:1033C000AE306091A5017091A601C8014AE050E0BD
:1033D0000E941832C801B7010E944733C80169EB47
:1033E00071E00E94AE30C8016091AB014AE050E04C
:1033F0000E949431C801B7010E944733C80161EBB4
:1034000071E00E94AE306091D4017091D501C80185
:103410004AE050E00E941832C801B6010E944A32C8
:103420006091D2017091D301C8014AE050E00E943E
:103430001832C801B7010E944733C80168EA71E039
:103440000E94AE304091AC015091AD016091AE014F
:103450007091AF01C80122E030E00E943133C80111
:10346000B6010E944A324091B0015091B101609181
:10347000B2017091B301C80122E030E00E94313303
:10348000C801B7010E9447331F910F91FF90EF9041
:10349000DF90CF900895CF93DF93EC0164E673E063
:1034A0000E944A34882319F00E94AB13B3C0CE01A6
:1034B0006AEA73E00E944A34882319F00E94EB12F2
:1034C000A9C0CE016BE673E00E944A34882319F04C
:1034D0000E947F099FC0CE0164ED73E00E944A34D0
:1034E000882319F00E943B1595C0CE016BED73E067
:1034F0000E944A34882319F00E94B9148BC0CE016F
:1035000062E773E00E944A34882319F00E94330F67
:1035100081C0CE0169E773E00E944A34882319F024
:103520000E94920E77C0CE0160E873E00E944A3498
:10353000882319F00E9469096DC0CE0167E873E025
:103540000E944A34882319F00E94650C63C0CE01A2
:103550006EE873E00E944A34882319F00E944014F8
:1035600059C0CE0165E973E00E944A34882319F0FE
:103570000E94640A4FC0CE016CE973E00E944A3495
:10358000882319F00E94950A45C0CE0163EA73E0D2
:103590000E944A34882319F00E94CF153BC0CE0107
:1035A00061EB73E00E944A34882319F00E949E1652
:1035B00031C0CE0166EC73E00E944A34882319F0D2
:1035C0000E942B1927C0CE016DEC73E00E944A3493
:1035D000882319F00E9412191DC0CE0162EE73E01B
:1035E0000E944A34882319F00E94F91813C0CE01B2
:1035F00068EB73E00E944A34882319F00E94951901
:1036000009C0CE016FEB73E00E944A34882319F0A1
:103610000E945E1981E0DF91CF9108958AE892E0DF
:103620009093DD018093DC019093DF018093DE01B4
:103630008FE590E09093D9018093D80180E991E0E3
:103640009093DB018093DA0181E090E09093D701C1
:103650008093D6018DE892E060E476E00E94352BFD
:1036600064EF71E080E090E00E94332D0895809136
:10367000D3029091D40262E044E00E94392A089576
:103680008091D3029091D40261E044E00E94392AF3
:1036900008958091D1029091D20262E044E00E94AC
:1036A000392A08958091D1029091D20261E044E0DC
:1036B0000E94392A0895EF92FF920F931F937C0185
:1036C00003EA15E0C8016FEB71E00E944A32C801BD
:1036D000B7010E945A33C8016DEC72E00E94F130CC
:1036E0001F910F91FF90EF900895CF93DF93EC011E
:1036F0000E944B1A882329F4CE010E945B1B0E9472
:103700007809DF91CF910895CF92DF92EF92FF92E7
:103710000F931F93DF93CF93CDB7DEB7BC01CDB628
:10372000DEB6FC0101900020E9F73197E81BF90BA8
:103730008DB79EB78E1B9F0B0FB6F8949EBF0FBE22
:103740008DBF0DB71EB70F5F1F4FC8010E94BE028D
:10375000C80167EF71E00E94A7028C011092E90393
:103760001092F7031092050410921304EE24FF2424
:10377000FF2019F481E294E038C080E090E067EF28
:1037800071E00E94A7028C01009741F089EF91E05F
:10379000B8010E94D302009709F4E39492E0F9166D
:1037A00099F09F1520F081E0F81611F507C093E01D
:1037B000F91681F084E0F816D9F412C0011511054C
:1037C000B9F089EE93E011C00115110589F087EF7A
:1037D00093E00BC00115110559F085E094E005C098
:1037E0000115110529F083E194E0B8010E94BE02A1
:1037F000F39496E0F91609F0BBCFE0924E020FB6B3
:10380000F894DEBE0FBECDBECF91DF911F910F9118
:10381000FF90EF90DF90CF900895CF93DF93EC016E
:1038200069EF71E00E94D302FC01148269EF71E03C
:103830000E94B502009711F080E004C0CE010E9402
:10384000841B81E0DF91CF910895EF92FF920F9357
:103850001F93DF93CF93CDB7DEB727970FB6F894BA
:10386000DEBF0FBECDBF7C010E940D1C8823E9F096
:103870008E010F5F1F4FC8016FE472E00E94C634D3
:10388000C8010E94751BC8010E94E03480E090E0EE
:10389000F701E80FF91F1082019682339105C1F7F5
:1038A000109282020E94780917C083EA95E06FEBBC
:1038B00071E00E944A3283EA95E061E073E00E9481
:1038C000AE3083EA95E0B7010E944A3283EA95E080
:1038D00063EF72E00E94F13010924E0227960FB60D
:1038E000F894DEBF0FBECDBFCF91DF911F910F9136
:1038F000FF90EF9008958F929F92AF92BF92CF92D8
:10390000DF92EF92FF920F931F93CF93DF934C01BF
:103910000E94FF2C20E030E0F401E20FF31F108240
:103920002F5F3F4F22333105B9F7AC01CB01DA01EC
:103930005C016D01C0E0D0E0EE24FF2487010E940D
:10394000FF2C2097A9F06E197F09800B910B65362B
:1039500071058105910564F080E090E0F401E80FC5
:10396000F91F1082019682339105C1F7C0E0D0E0C3
:103970000E94D40A0E94FF2C6A197B098C099D09B8
:103980002091B9013091BA01442737FD4095542F59
:1039900026173707480759074CF40E9478090E94F8
:1039A000FF2CAC01CB01DA015C016D0183EA95E0EB
:1039B0000E94752F1816190614F683EA95E00E94E6
:1039C000A62FF401EC0FFD1F8A3051F41082CE01B6
:1039D00002C01192019681339105DCF311E003C01E
:1039E0008083219610E00E94FF2C112331F4AC015A
:1039F000CB01DA017C018D01A2CF0E94FF2C0E9435
:103A0000FF2C6093830270938402809385029093CD
:103A100086026093890270938A0280938B0290934E
:103A20008C0281E0DF91CF911F910F91FF90EF9079
:103A3000DF90CF90BF90AF909F908F9008958FE4CC
:103A400092E00E947B1C882321F08FE492E00E9488
:103A5000251C0895EF92FF920F931F9383EA95E040
:103A600040E051EE60E070E00E94EE2E83EA95E0C7
:103A70006CE571E00E944A3283EA95E00E94D13001
:103A80000E94D5170E940E1B4091AC015091AD01D0
:103A90006091AE017091AF0185ED92E00E94DD1F53
:103AA0004091B0015091B1016091B2017091B301A8
:103AB00085ED92E00E9403234091AC015091AD014D
:103AC0006091AE017091AF0189E193E00E94DD1F2A
:103AD0004091B0015091B1016091B2017091B30178
:103AE00089E193E00E9403236091B5017091B601D2
:103AF000882777FD8095982F0E9400382091A70194
:103B00003091A8014091A9015091AA010E94653706
:103B10007B018C016091A5017091A601882777FD3A
:103B20008095982F0E9400389B01AC01C801B70115
:103B30000E9409390E94CD377B018C0185ED92E00E
:103B4000B801A7010E94D61D89E193E0B801A70141
:103B50000E94D61DEFE4F2E0119282E0E138F8070E
:103B6000D9F70E9478090E94950A64EF71E080E01D
:103B700090E00E94332D1F910F91FF90EF900895D8
:103B8000FC01278530894189528983859485A585E3
:103B9000B685281B390B4A0B5B0BB901CA01089586
:103BA000FC0163857485858596850895FC014387AE
:103BB0005487658776874787508B618B728B13AAF2
:103BC00014AA15AA16AA13A214A215A216A2089541
:103BD0006F927F928F929F92AF92BF92CF92DF921D
:103BE000EF92FF920F931F93CF93DF93EC01AF847B
:103BF000B888C988DA888B859C85AD85BE85A81A6A
:103C0000B90ACA0ADB0A2B893C894D895E89CA0137
:103C1000B9010E9409397B018C012B8D3C8D4D8DA2
:103C20005E8DCA01B9010E94FD369B01AC01C8013D
:103C3000B7010E9465370E94CD379B01AC01A114EA
:103C4000B104C104D104B9F4623071058105910554
:103C50000CF085C01BA21CA21DA21EA280E090E059
:103C6000A0E0B0E08B8B9C8BAD8BBE8B1BAA1CAAFB
:103C70001DAA1EAA0BC1EBA8FCA80DA91EA91A1407
:103C80001B041C041D0444F51E141F041006110619
:103C900074F46A157B058C059D05B4F5CD5BDF4F8B
:103CA0008881C354D040882309F059C02DC0E11445
:103CB000F1040105110509F452C06A157B058C0554
:103CC0009D050CF04CC0CD5BDF4F8881C354D040C4
:103CD000813009F044C038C01E141F0410061106BC
:103CE000DCF488279927DC018A199B09AC09BD09F6
:103CF000281739074A075B073CF4CD5BDF4F888103
:103D0000C354D040813059F588279927DC01821BA4
:103D1000930BA40BB50B1FC0E114F10401051105B1
:103D2000F1F088279927DC018A199B09AC09BD09A4
:103D3000281739074A075B0794F4CD5BDF4F88816A
:103D4000C354D040882359F488279927DC018E1961
:103D50009F09A00BB10B8BAB9CABADABBEAB6BA803
:103D60007CA88DA89EA86114710481049104A9F413
:103D70008FA998ADA9ADBAAD8BAF9CAFADAFBEAFBB
:103D8000FE01ED5BFF4F10821A141B041C041D047E
:103D90000CF049C081E0808346C0ABACBCACCDAC7C
:103DA000DEACC601B50120E030E040E050EC0E94FE
:103DB00009397B018C01C401B3010E94003820E065
:103DC00030E040E850E40E94093920E030E040E86B
:103DD0005FE30E94FD369B01AC01C801B7010E9460
:103DE00065379B01AC01C601B5010E94FD367B0120
:103DF0008C016BAF7CAF8DAF9EAFEF96A880B98082
:103E0000CA80DB80EF979501A6010E94053918163C
:103E100024F4D801C70157016D01C501D6018BAF4C
:103E20009CAFADAFBEAF8BA99CA9ADA9BEA90196B1
:103E3000A11DB11D8BAB9CABADABBEAB6BAD7CAD77
:103E40008DAD9EAD0E94D2376BA37CA38DA39EA3A4
:103E500060E074E284E799E42BAD3CAD4DAD5EAD1E
:103E60000E9465379B01AC016B8B7C8B8D8B9E8B8D
:103E7000CD5BDF4F8881C354D040882339F4DA0109
:103E8000C901B0588B8B9C8BAD8BBE8BDF91CF91D2
:103E90001F910F91FF90EF90DF90CF90BF90AF9068
:103EA0009F908F907F906F900895FC0187859089F7
:103EB000A189B28984179507A607B70739F0478704
:103EC000508B618B728BCF010E94E81D0895FC011D
:103ED000DB01CA014385548565857685480F591FE6
:103EE0006A1F7B1FCF010E94551F0895CF92DF925A
:103EF000EF92FF920F931F93FC0182E092E0918377
:103F00008083128213861486158616861786108A79
:103F1000118A128A0F2EF0E0CF2EF0E0DF2EF0E0B3
:103F2000EF2EF0E0FF2EF02DC38AD48AE58AF68AC0
:103F300000E010E020E83FE3078B108F218F328FE5
:103F4000038F148F258F368F078F10A321A332A3E1
:103F500013A214A215A216A281E090E094A783A751
:103F60008FEF86A717A210A611A612A6138214829D
:103F70001582168270AB67A752AB41AB13AA14AA85
:103F800015AA16AAC7AAD0AEE1AEF2AEC3AED4AEA1
:103F9000E5AEF6AEFF960193119321933193108213
:103FA000E354F04017821086118612861F910F91FC
:103FB000FF90EF90DF90CF900895EF92FF920F93D4
:103FC0001F93CF93DF93EC017A018B016F89788D7A
:103FD000898D9A8DA80197010E9461378823E1F1AC
:103FE000EF8AF88E098F1A8FEF9660E074E284E70B
:103FF00099E4A80197010E946537688379838A83D1
:104000009B83EF978BA99CA9ADA9BEA91816190689
:104010001A061B060CF52B893C894D895E89CA015D
:10402000B9010E9409397B018C012B8D3C8D4D8D8E
:104030005E8DCA01B9010E94FD369B01AC01C80129
:10404000B7010E9465370E94CD376BAB7CAB8DAB5F
:104050009EABCE010E94E81DDF91CF911F910F9181
:10406000FF90EF9008954F925F926F927F928F92A0
:104070009F92AF92BF92CF92DF92EF92FF920F93F7
:104080001F93CF93DF932C017A018B01CB01BA01EF
:10409000F20123893489458956890E946137882332
:1040A00009F455C0F201A788B08CC18CD28C3501BF
:1040B000460197FA909497F89094C801B701A4012B
:1040C00093010E94613788231CF4840173010AC0A4
:1040D000C801B701A60195010E940539181614F40C
:1040E00086017501C801B70120E030E040E050E0F2
:1040F0000E946137882331F4F20113A214A215A2A1
:1041000016A220C060E074E284E799E4A801970158
:104110000E9465379F770E94D237F20163A374A390
:1041200085A396A3E201CD5BDF4F1882C801B701DA
:1041300020E030E040E050E00E940539181614F409
:1041400081E08883F201E38AF48A058B168BDF9184
:10415000CF911F910F91FF90EF90DF90CF90BF9084
:10416000AF909F908F907F906F905F904F90089549
:10417000FC012389348945895689B901CA0108950A
:10418000DC0112968C911297833001F1843040F457
:10419000813089F0ED91FC911197823098F407C03D
:1041A000863011F1883049F1843079F516C00480E9
:1041B000F581E02D1FC0ED91FC9111970680F781EC
:1041C000E02D18C00084F185E02D14C0ED91FC9124
:1041D00011970284F385E02D0DC0ED91FC911197AC
:1041E0000484F585E02D06C0ED91FC9111970684BD
:1041F000F785E02DCD0109950895ED91FC9111977A
:104200000088F189E02DCD0109950895CF93DF93C2
:10421000EC016B897C898D899E8920E030E040E04B
:1042200050E00E94053918161CF4EFA5F8A902C049
:10423000E9A9FAA90995DF91CF910895DC0170E011
:104240006370707061307105A9F0623071051CF403
:10425000672B41F0089562307105A1F0633071055C
:1042600001F518C0ED91FC9111970190F081E02DBE
:1042700062E00EC0ED91FC9111970190F081E02D6C
:1042800063E006C0ED91FC910190F081E02D61E0CA
:1042900009950895ED91FC910190F081E02D60E089
:1042A00009950895DC01862F63E00E94E43991307E
:1042B00071F0913018F09230E9F413C0ED91FC9157
:1042C00011970190F081E02DCD0164E008C0ED91DF
:1042D000FC9111970190F081E02DCD0161E00995ED
:1042E0000895ED91FC9111970190F081E02DCD01A1
:1042F00062E009950895DC0170E0637070706130D0
:104300007105A9F0623071051CF4672B41F0089526
:1043100062307105A1F06330710501F518C0ED91AF
:10432000FC9111970190F081E02D65E00EC0ED91B8
:10433000FC9111970190F081E02D66E006C0ED91AF
:10434000FC910190F081E02D6AE009950895ED91CE
:10435000FC910190F081E02D69E009950895DC0160
:10436000862F66E00E94E439923009F1933030F4F0
:10437000992359F0913009F03FC010C0943049F1B1
:104380009430F0F09530C1F52EC0ED91FC9111976D
:104390000190F081E02DCD0164E023C0ED91FC910E
:1043A00011970190F081E02DCD0165E01AC0ED91EB
:1043B000FC9111970190F081E02DCD0161E011C0D9
:1043C000ED91FC9111970190F081E02DCD0163E01A
:1043D00008C0ED91FC9111970190F081E02DCD0185
:1043E00062E009950895ED91FC9111970190F0819B
:1043F000E02DCD0166E009950895DC0170E067705D
:1044000070706330710591F1643071054CF4613066
:104410007105E1F0623071050CF5672B79F00895B4
:104420006530710599F16530710544F166307105AB
:10443000A9F16730710509F040C038C0ED91FC91D9
:1044400011970190F081E02D61E02EC0ED91FC917B
:1044500011970190F081E02D65E026C0ED91FC916F
:1044600011970190F081E02D64E01EC0ED91FC9168
:1044700011970190F081E02D66E016C0ED91FC915E
:1044800011970190F081E02D62E00EC0ED91FC915A
:1044900011970190F081E02D6AE006C0ED91FC914A
:1044A0000190F081E02D68E009950895ED91FC916F
:1044B0000190F081E02D69E009950895CF93DF9395
:1044C000EC018A81882371F0E881F9810190F08103
:1044D000E02DCE0160E009958EA58F3F19F06DA506
:1044E0000E94102EDF91CF910895CF92DF92EF922C
:1044F000FF920F931F93CF93DF93FC01228124300F
:1045000029F0283019F092E0D92E02C084E0D82E8C
:104510008F01C0E0D0E0E62EFF24CC24C394F80144
:104520002381C7010C2E02C0959587950A94E2F766
:10453000678180FD6C25822F0E94102E21960F5FCF
:104540001F4FCD1560F3DF91CF911F910F91FF9019
:10455000EF90DF90CF900895CF93DF93EC018A81A5
:10456000882311F18B8161E00E94D12D8C8161E063
:104570000E94D12D8A81843011F0883041F48D81E0
:1045800061E00E94D12D8E8161E00E94D12D9EA517
:104590009F3F51F06DA581E06827892F0E94102E62
:1045A0008EA561E00E94D12DDF91CF910895CF9328
:1045B000DF93EC01E881F9810190F081E02DCD5B82
:1045C000DF4F8881C354D040882311F461E001C0DB
:1045D00063E0CE0109958BA59CA50E948C2DE881F6
:1045E000F9810190F081E02DCD5BDF4F8881C354CC
:1045F000D040882311F460E001C062E0CE0109954B
:10460000DF91CF9108956F927F928F929F92AF9298
:10461000BF92CF92DF92EF92FF920F931F93CF93AF
:10462000DF93EC013A014B01CB01BA0120E030E00D
:1046300040E050E00E946137882309F441C0AB8C10
:10464000BC8CCD8CDE8CC601B501A40193010E9407
:1046500061378823A9F16BA97CA98DA99EA90E9425
:1046600000387B018C01C601B501A40193010E94B1
:1046700065379B01AC01C801B7010E9409390E944E
:10468000CD376BAB7CAB8DAB9EAB60E070E080E078
:1046900090E4A40193010E9465370E94703920E0E4
:1046A00034E244E759E40E9409396FAB78AF89AF2F
:1046B0009AAF6B8E7C8E8D8E9E8ECE010E94E81DF1
:1046C000DF91CF911F910F91FF90EF90DF90CF90EE
:1046D000BF90AF909F908F907F906F900895EF92D2
:1046E000FF920F931F93CF93DF93EC018BA19CA1BB
:1046F000ADA1BEA10097A105B10509F44CC00E946F
:104700000D2D7B018C012FA138A549A55AA58BA1A0
:104710009CA1ADA1BEA1820F931FA41FB51F82173C
:104720009307A407B50730F0E816F9060A071B0738
:1047300058F405C0E816F9060A071B0760F1E216EF
:10474000F3060407150738F5CD5BDF4F8881C354A6
:10475000D0402B853C854D855E85813029F42F5FC7
:104760003F4F4F4F5F4F04C02150304040405040BA
:104770002B873C874D875E87E881F9816B85677061
:104780000280F381E02DCE010995EFA2F8A609A7DA
:104790001AA781E001C080E0DF91CF911F910F91B6
:1047A000FF90EF900895CF93DF93FC012785308928
:1047B0004189528983859485A585B685281739074F
:1047C0004A075B0711F480E00FC0EF01CD5BDF4FBC
:1047D00082179307A407B5071CF481E0888301C002
:1047E0001882CF010E946F23DF91CF910895CF935C
:1047F000DF93EC010E946F23882319F0CE010E9401
:10480000E81D81E0DF91CF910895CF93DF93EC0114
:104810006B897C898D899E8920E030E040E050E002
:104820000E946137882369F42F85388949895A891C
:104830008B859C85AD85BE85281739074A075B07A0
:1048400021F0CE010E94F723E3CFDF91CF910895AD
:104850000F931F938C010E94551FC8010E940524CD
:104860001F910F910895FC0180912B048C3090F4DE
:1048700082838F5F80932B04815090E0FC01EE0FC8
:10488000FF1FE80FF91FE45DFB4F88EB9BE092836D
:10489000818308958FEF82830895DC0112968C91B5
:1048A000129790E0FC01EE0FFF1FE80FF91FE45D87
:1048B000FB4F80818F7B808312968C916CE00E94ED
:1048C000E43990E0AC01440F551F480F591F440FC5
:1048D000551F440F551F20E030E0C901840F951F7C
:1048E000FC01EE0FFF1FE80FF91FE45DFB4F808115
:1048F00086FD05C02F5F3F4F2C30310571F70895BD
:10490000FC0122812C30B8F58081992787FD909594
:1049100048E850E0481B590B440F551F440F551FE2
:104920006417750784F08181992787FD909548E584
:1049300052E0481B590B440F551F440F551F641775
:1049400075070CF4AB0142505040CA01AA2797FDED
:10495000A095BA2F880F991FAA1FBB1F4FB7F894B5
:1049600030E0F901EE0FFF1FE20FF31FE45DFB4F94
:10497000928381834FBF0895AF92BF92CF92DF920F
:10498000EF92FF920F931F93CF93DF93EC019B0164
:1049900082E0603278070CF048C077FF03C020E067
:1049A00030E005C0653B710514F024EB30E000D029
:1049B00000D0B901882777FD8095982F288133276B
:1049C00027FD3095E8E8AE2EB12CA21AB30AAA0C46
:1049D000BB1CAA0CBB1CCC24B7FCC094DC2CE9810A
:1049E000FF27E7FDF09528E532E02E1B3F0B220F55
:1049F000331F220F331F442737FD4095542FEDB747
:104A0000FEB7218332834383548320E030E040E0CB
:104A100050E004EBE02EF12C012D112D0E948D337E
:104A20009B010F900F900F900F90CE01B9010E9443
:104A30008024DF91CF911F910F91FF90EF90DF9035
:104A4000CF90BF90AF900895CF92DF92EF92FF92F8
:104A50001F93CF93DF93EC01162F7A0169018A81AE
:104A60008C3008F064C0862F61E00E94D12D8A81CD
:104A700090E0FC01EE0FFF1FE80FF91FE45DFB4F14
:104A80001F738081807C812B808380E292E08E196D
:104A90009F0964E070E00E94F039688380E699E045
:104AA0008C199D0964E070E00E94F0396983AA8145
:104AB0008A2F6CE00E94E439682F70E0AB01440F4C
:104AC000551F460F571F440F551F440F551F20E019
:104AD00030E0C901840F951FFC01EE0FFF1FE80FA6
:104AE000F91FE45DFB4F808186FD15C02F5F3F4FAE
:104AF0002C30310571F724C01092800082E0809341
:104B000081001092850010928400B19A80916F000C
:104B1000826080936F008A2F90E0FC01EE0FFF1FF0
:104B2000E80FF91FE45DFB4F8081806480838A81F8
:104B3000DF91CF911F91FF90EF90DF90CF9008957C
:104B4000672BD1F2E8CF40E252E020E639E00E9444
:104B5000242508951F920F920FB60F9211242F93C0
:104B60003F934F935F936F937F938F939F93AF93F5
:104B7000BF93EF93FF938091500487FF05C010927D
:104B80008500109284002BC020915004332727FD0C
:104B9000309580912B0490E02817390704F5809117
:104BA0005004992787FD9095FC01EE0FFF1FE80F39
:104BB000F91FE45DFB4F808186FF11C08091500496
:104BC000992787FD9095FC01EE0FFF1FE80FF91F55
:104BD000E45DFB4F80818F7360E00E94102E809116
:104BE00050048F5F8093500420915004332727FD99
:104BF000309580912B0490E0281739070CF04EC0B7
:104C0000809150048C300CF049C020918400309188
:104C1000850080915004992787FD9095FC01EE0F47
:104C2000FF1FE80FF91FE45DFB4F81819281280F80
:104C3000391F309389002093880080915004992770
:104C400087FD9095FC01EE0FFF1FE80FF91FE45D53
:104C5000FB4F808186FF2BC080915004992787FDF0
:104C60009095FC01EE0FFF1FE80FF91FE45DFB4F6D
:104C700080818F7361E00E94102E19C080E49CE94E
:104C800005C08091840090918500049690938900DE
:104C9000809388008FEF8093500409C08091840036
:104CA00090918500049680549C4940F3EACFFF918F
:104CB000EF91BF91AF919F918F917F916F915F9194
:104CC0004F913F912F910F900FBE0F901F9018950D
:104CD000F999FECF72BD61BDF89A80B50895F99932
:104CE000FECF1FBA72BD61BD40BD0FB6F894FA9AEF
:104CF000F99A0FBE089581E080939704609374043D
:104D0000109295041092960408952091730430E057
:104D100080917204281B3109C901089540917204E1
:104D200080917304481718F02FEF3FEF0AC0E42F6B
:104D3000F0E0EE5AFB4F8081282F30E04F5F409328
:104D40007204C9010895E091720480917304E81718
:104D500018F0EFEFFFEF06C0F0E0EE5AFB4F808156
:104D6000E82FF0E0CF010895089510929B0410926F
:104D70009A0488EE93E0A0E0B0E080939C049093C6
:104D80009D04A0939E04B0939F0488E192E09093C9
:104D90009904809398040895CF92DF92EF92FF9246
:104DA0000F931F93CF93DF937C016B018A01809156
:104DB00097048823A1F0C0E0D0E00DC0D701ED91A9
:104DC000FC91D601AC0FBD1F0190F081E02DC70111
:104DD0006C9109952196C017D10780F304C0CB01CF
:104DE000642F0E94FE27C801DF91CF911F910F9180
:104DF000FF90EF90DF90CF900895DF93CF930F92C5
:104E0000CDB7DEB7FC016983809197048823C9F090
:104E100080919604803238F081E090E09383828321
:104E200020E030E015C080919504E82FF0E0EB58C9
:104E3000FB4F998190838F5F8093950480939604B4
:104E400005C0CE01019661E00E94FE2721E030E01E
:104E5000C9010F90CF91DF9108950F93062F809194
:104E6000740465E774E04091960421E00E94A9274C
:104E70001092950410929604109297040F91089541
:104E800061E00E942D270895413208F040E2862F0C
:104E900062E574E00E9460271092720480937304AC
:104EA000089521E00E944427089510927204109200
:104EB000730410929504109296040E94AA290895F2
:104EC000382F413210F040E042C08091A404882382
:104ED000E1F791E09093A4042093A6048FEF8093D0
:104EE00011051092CC0441504093CD044F5F909334
:104EF000A5048091A504330F832B8093A504809192
:104F0000A704813041F41092A7048091A5048093F6
:104F1000BB0085EC01C085EE8093BC008091A404A9
:104F20008130E1F38091CC04841710F44091CC04DB
:104F300020E030E00AC0FB01E20FF31FD901A455C5
:104F4000BB4F8C9180832F5F3F4F2417A0F3842F9A
:104F500008950F931F93582F122F413210F081E0C4
:104F60004AC08091A4048823E1F782E08093A404DE
:104F70000093A6048FEF809311051092CC04409308
:104F8000CD04ACEAB4E0FB0102C081918D938E2F79
:104F9000861B8417D0F31092A5048091A504550FA9
:104FA000852B8093A5048091A704813041F4109251
:104FB000A7048091A5048093BB0085EC01C085EE19
:104FC0008093BC00112321F08091A4048230E1F38E
:104FD000809111058F3F11F480E00DC08091110583
:104FE000803211F482E007C080911105803311F006
:104FF00084E001C083E01F910F910895482F613232
:1050000010F081E008958091A404843011F082E0D2
:1050100008956093EF04AEECB4E0842F9C01F90195
:1050200002C081918D938E2F841B8617D0F380E070
:1050300008951F920F920FB60F9211242F933F9352
:105040004F935F936F937F938F939F93AF93BF9390
:10505000EF93FF938091B90090E0887F9070803645
:10506000910509F4F2C081369105CCF5883291059D
:1050700009F47BC089329105B4F48031910509F4BB
:105080006FC0813191053CF4009709F447C108973E
:1050900009F04FC165C08831910509F466C0809759
:1050A00009F047C182C08034910509F4A4C081345D
:1050B000910544F48033910509F482C0C89709F042
:1050C00038C189C08035910509F489C088359105BA
:1050D00009F496C08834910509F02BC1AEC0883917
:1050E000910509F413C189399105ECF488379105CC
:1050F00009F4ABC0893791054CF48836910509F461
:10510000A4C08037910509F014C19FC0883891056B
:1051100009F4FCC08039910509F49DC080389105DF
:1051200009F007C198C0803B910509F4C6C0813BD6
:1051300091054CF4803A910509F49FC0883A910595
:1051400009F0F7C0BAC0803C910509F4E3C0883C7F
:10515000910509F4DFC0883B910509F0EAC0C2C09F
:105160008091A5048093BB00CFC09091CC04809126
:10517000CD04981768F49091CC04E92FF0E0E45541
:10518000FB4F80818093BB009F5F9093CC04BCC099
:105190008091A604882309F44BC085ED8093BC0060
:1051A0008091BC0084FDFCCFC2C080E280931105D9
:1051B00085ED8093BC008091BC0084FDFCCFB7C01E
:1051C00080E38093110585ED8093BC008091BC0045
:1051D00084FDFCCFACC088E3809311059BC0809117
:1051E000CC049091BB00E82FF0E0E455FB4F908396
:1051F0008F5F8093CC049091CC048091CD0482C0C9
:105200008091CC049091BB00E82FF0E0E455FB4F77
:1052100090838F5F8093CC048091A604882341F013
:1052200085ED8093BC008091BC0084FDFCCF7FC0E5
:1052300081E08093A70484EA6EC085ED8093BC0072
:105240008091BC0084FDFCCF72C083E08093A404F5
:105250001092100559C080911005803208F056C098
:10526000809110059091BB00E82FF0E0E051FB4FDA
:1052700090838F5F8093100547C080911005803226
:1052800030F4E0911005F0E0E051FB4F108285ED25
:105290008093BC008091BC0084FDFCCF1092A404DC
:1052A00060911005E091AA04F091AB0480EF94E0C6
:1052B00070E00995109210052DC084E08093A4043D
:1052C0001092EE041092EF04E091A804F091A9046A
:1052D00009958091EF04882329F481E08093EF04FD
:1052E0001092CE049091EE04E92FF0E0E253FB4FD0
:1052F00080818093BB009F5F9093EE049091EE04B9
:105300008091EF04981710F485EC01C085E8809334
:10531000BC000FC085EC8093BC0009C01092110541
:1053200085ED8093BC008091BC0084FDFCCF109281
:10533000A404FF91EF91BF91AF919F918F917F91C5
:105340006F915F914F913F912F910F900FBE0F90F2
:105350001F9018951092A40481E08093A6041092E7
:10536000A70482E161E00E94102E83E161E00E94C7
:10537000102EE9EBF0E080818E7F808380818D7F2D
:1053800080838CE08093B80085E48093BC0008950E
:105390000F931F93DC019B01433018F020E030E0B5
:1053A00045C04150642F70E084E190E0689FF001B7
:1053B000699FF00D789FF00D1124EA0FFB1F86A561
:1053C000882339F546A732A721A7B5A7A4A7442368
:1053D00039F408E01DE05AE049E03BE02CE008C069
:1053E000413031F402E017E054E043E035E026E0DC
:1053F00084E190E0689FF001699FF00D789FF00DC7
:105400001124EA0FFB1F03A316A354A345A337A33C
:1054100020A784E190E0689F9001699F300D789FFC
:10542000300D1124255E3F4F2A0F3B1FC9011F91EC
:105430000F9108958D5B9F4F442319F440E050E095
:1054400002C040E050E120E030E00E94D92B0895F6
:105450009A018D5B9F4F40E12030340728F040E0F7
:1054600050E120E030E002C040E050E00E94D92B43
:1054700008950F931F93CF93DF93EC01042F4130D6
:1054800041F49889892F86958695869580FF0AC074
:1054900012C0423069F49889892F86958695869541
:1054A00080FF09C0613011F4905F08C0905106C0C0
:1054B000433041F49889613019F4985F988B48C063
:1054C0009850FCCF443009F043C09889613011F402
:1054D0009F5F01C09150988BA889AF73A88BA031B2
:1054E00048F4B0E0E0EFF1E0EA1BFB0B4081A05292
:1054F000BE4F19C08A2F8051803148F48A2F90E026
:10550000FC01E053FE4F4081E0E0F2E01DC08A2F35
:105510008052803150F4B0E0E0E1F2E0EA1BFB0B96
:105520004081A054BE4F1C9115C08A2F80538031FA
:1055300018F010E040E00EC08A2F90E0FC01E0552A
:10554000FE4F4081E0E2F2E0E81BF90B108102C05F
:105550001FEF4FEF88898F73888B50E024E0440F52
:10556000551F2A95E1F789899A8968850E94282A1A
:10557000412F50E094E0440F551F9A95E1F7898937
:105580009A896B850E94282A98890430A1F4903169
:1055900010F423E001C020E0892F8051803108F40D
:1055A0002660892F8052803108F42C60905390310E
:1055B00048F5296027C0892F869586958695833082
:1055C000C1F0843028F4813081F0823080F409C049
:1055D000853099F0853078F0863089F0873019F47D
:1055E00010C021E00FC020E00DC023E00BC022E07E
:1055F00009C026E007C024E005C02CE003C028E075
:1056000001C029E0122F89899A8920FF03C06A8589
:1056100041E002C06A8540E00E941A2A89899A897D
:1056200011FF03C06C8541E002C06C8540E00E9420
:105630001A2A89899A8912FF03C0698541E002C04C
:10564000698540E00E941A2A89899A8913FF03C05C
:105650006D8541E002C06D8540E00E941A2A88896C
:10566000DF91CF911F910F910895CF92DF92EF922A
:10567000FF920F931F93CF93DF938C016B0188E907
:1056800094E00E945527E801CD5BDF4FCE010E94D8
:10569000AA2CF801D282C182EE24FF24C701B601F0
:1056A0000E94FE37AB01BC01CE010E943C2C00E001
:1056B000CE01602F40E050E020E030E00E94D92B86
:1056C0000F5F0031A9F7DF91CF911F910F91FF90EC
:1056D000EF90DF90CF900895DF92EF92FF920F93BB
:1056E0001F93DF93CF930F92CDB7DEB77C01D62EF9
:1056F000FC01339680E090E01482138215821282BE
:10570000118210820696369688319105A9F7F70125
:1057100013A616A612A611A617AE82E490E0E80E14
:10572000F91EF70110828EEB9FEFE80EF91EF701CC
:1057300016AE15AE87010D5B1F4FC80160E40E94D5
:10574000B42BF701D082CE0101966D2D0E94B42BAF
:105750008981F80180830F90CF91DF911F910F9184
:10576000FF90EF90DF900895FC0160830895EF9221
:10577000FF920F931F93FC01F62EE42E08E914E02C
:10578000C80160810E947B26C8016F2D0E94FD2602
:10579000C8016E2D0E94FD26C8010E9440271F915E
:1057A0000F91FF90EF90089560E040E00E94B72BCA
:1057B0000895AF92BF92CF92DF92EF92FF920F9334
:1057C0001F93FC01062FD42EC52EB22EA32E98E9CE
:1057D000E92E94E0F92EC70160810E947B2610E03B
:1057E000000F111F000F111F0A5F1F4FC701602F0D
:1057F0000E94FD26C7016D2D0E94FD26C7016C2D5C
:105800000E94FD26C7016B2D0E94FD26C7016A2D4F
:105810000E94FD26C7010E9440271F910F91FF9013
:10582000EF90DF90CF90BF90AF900895DF92EF920E
:10583000FF920F931F938C01D62E28E9E22E24E0CD
:10584000F22EC701F80160810E947B26C7016D2DF1
:105850000E94FD26C7010E944027C701F801608110
:1058600041E00E945127C7010E948E261F910F918F
:10587000FF90EF90DF900895AF92BF92CF92DF92AA
:10588000EF92FF920F931F935C019A01AB0160E2CC
:105890007CEB8EEB95E40E94653720E030E040E839
:1058A0005FE30E94FC367B018C0133EAC32E35E0B6
:1058B000D32EC6016BE671E00E944A32C601B801E0
:1058C000A70122E030E00E943433C801B70120E094
:1058D00030E040E05FE30E94FD360E943B380E94CA
:1058E000D2377B018C01C60161E871E00E944A3227
:1058F000C6016E2D4AE050E00E94A631C50160E06D
:105900000E94162CD82E482F4F764061C50160E0CA
:105910000E94B72BC5016EEF4E2D0E94B72BC5011B
:1059200060E04D2D0E94B72B65E070E080E090E0D4
:105930000E94332D81EAD82AC50160E04D2D0E94D6
:10594000B72B1F910F91FF90EF90DF90CF90BF90FA
:10595000AF9008950F931F938C0188E994E00E9403
:105960005527C8010E94D42B1F910F9108951F92B3
:105970000F920FB60F9211242F933F938F939F9303
:10598000AF93BF938091160590911705A0911805CC
:10599000B091190530911A050196A11DB11D232F53
:1059A0002D5F2D3720F02D570196A11DB11D20939D
:1059B0001A058093160590931705A0931805B093C8
:1059C00019058091120590911305A0911405B091CD
:1059D00015050196A11DB11D809312059093130525
:1059E000A0931405B0931505BF91AF919F918F912E
:1059F0003F912F910F900FBE0F901F9018958FB76A
:105A0000F894209116053091170540911805509192
:105A100019058FBFB901CA0108959FB7F894209165
:105A2000120530911305409114055091150586B566
:105A3000A89B06C08F3F21F02F5F3F4F4F4F5F4F16
:105A40009FBF542F432F322F2227280F311D411D76
:105A5000511D82E0220F331F441F551F8A95D1F735
:105A6000B901CA0108959B01AC017FB7F8948091F8
:105A7000120590911305A0911405B091150566B516
:105A8000A89B05C06F3F19F00196A11DB11D7FBFF6
:105A9000BA2FA92F982F8827860F911DA11DB11D00
:105AA00062E0880F991FAA1FBB1F6A95D1F7BC013E
:105AB0002DC0FFB7F8948091120590911305A09125
:105AC0001405B0911505E6B5A89B05C0EF3F19F088
:105AD0000196A11DB11DFFBFBA2FA92F982F8827AE
