:100000000C94AC010C94D4010C94D4010C94D40144
:100010000C94D4010C94D4010C94D4010C94D4010C
:100020000C94D4010C94D4010C94D4010C94872B1F
:100030000C94D4010C94D4010C94D4010C94D401EC
:100040000C9428300C94D4010C94D6310C942432A6
:100050000C94D4010C94D4010C94D4010C94D401CC
:100060000C94D4010C94D401000000006410B71D5E
:10007000C8206E3BAC30D9269041DC76F4516B6BD6
:100080005861B24D3C7105502083B8ED44930FF098
:10009000E8A3D6D68CB361CBB0C2649BD4D2D3864E
:1000A00078E20AA01CF2BDBD6D6D004368616E6709
:1000B00065642050656E20776964746820746F20D1
:1000C000004E657720616363656C65726174696F6A
:1000D0006E3A20004E6577206D61782073706565FB
:1000E000643A200055703A2000446F776E3A200041
:1000F000504753504545442C0050474C4946542CDA
:10010000005047535445504D554C5449504C494567
:10011000522C005047535445505350455252455667
:100120002C0050474D4D5045525245562C005047DB
:1001300053495A452C0050474E414D452C0029004B
:10014000526563616C6320706167654865696768C3
:100150007420696E20737465707320280029005222
:100160006563616C632070616765576964746820BA
:10017000696E2073746570732028002900292C2073
:1001800073746570735065724D4D2028005265631D
:10019000616C63206D6D506572537465702028002A
:1001A0004C6F61646564206D6F746F722073746549
:1001B00070206D756C7469706C6965723A004C6F73
:1001C00061646564206D616368696E65206E616D50
:1001D000653A004C6F6164656420757020706F73C0
:1001E0003A004C6F6164656420646F776E20706FB5
:1001F000733A004C6F61646564206D6F746F722098
:10020000737465707320706572207265763A004C65
:100210006F61646564206D6D207065722072657613
:100220003A004C6F61646564206D616368696E6556
:10023000206865696768743A004C6F616465642082
:100240006D616368696E652077696474683A00203F
:1002500069736E2774206120636F6D6D616E642019
:1002600049207265636F676E6973652E00536F7204
:1002700072792C200029206E6F7420706172736572
:10028000642E00436F6D6D616E64202800436865C5
:10029000636B73756D206E6F74206D617463686538
:1002A00064213A004920676F742000504F4C41523E
:1002B0004752415048204F4E2100000000002400CA
:1002C00027002A0000000000250028002B00000065
:1002D000000023002600290004040404040404048C
:1002E00002020202020203030303030301020408E1
:1002F0001020408001020408102001020408102090
:1003000000000007000201000003040600000000D6
:1003100000000000494E46494E4954594E414ECDC9
:10032000CCCC3D0AD7233C17B7D13877CC2B3295AC
:1003300095E6241FB14F0A000020410000C842008A
:10034000401C4620BCBE4CCA1B0E5AAEC59D740054
:100350008308582C90337C0811241FBECFEFD8E0BF
:10036000DEBFCDBF12E0A0E0B1E0E6E9FBE702C0EE
:1003700005900D92A83FB107D9F715E0A8EFB2E0BC
:1003800001C01D92AE3CB107E1F713E0C6E5D3E032
:1003900004C02297FE010E94783DC035D107C9F7FD
:1003A0000E94E6330C94BE3D0C940000A0E0B0E047
:1003B000ECEDF1E00C948F3DEC01A880B980CA808F
:1003C000DB80A114B104C104D10441F484E2A82E5D
:1003D00089EDB82E8BE5C82E87E0D82EC601B50171
:1003E0002DE133EF41E050E00E94473D27EA31E440
:1003F00040E050E00E94E73C7B018C01C601B50162
:100400002DE133EF41E050E00E94473DCA01B901C0
:100410002CEE34EF4FEF5FEF0E94E73C6E0D7F1D37
:10042000801F911F97FF04C061507040804090482A
:10043000688379838A839B839B01AC015F77B901D1
:10044000CA01CDB7DEB7EAE00C94AB3D0E94D601FD
:10045000089589E892E00E94D60108956093890288
:1004600070938A0280938B0290938C020895662782
:1004700077270C94ED02FC0188279927E8942191B5
:100480002032E9F3293010F02E30C8F32B3241F03E
:100490002D3239F4689404C00E94E502820F911D48
:1004A000219120532A30C0F31EF4909581959F4FDF
:1004B00008951F93FC0199278827BC01E8941191A6
:1004C0001032E9F3193010F01E30C8F31B3251F02E
:1004D0001D3249F4689406C00E94D002610F711D5C
:1004E000811D911D119110531A30B0F33EF4909577
:1004F0008095709561957F4F8F4F9F4F1F91089505
:10050000FB01DC0102C001900D9241505040D8F730
:100510000895FB01DC018D91019080190110D9F340
:10052000990B0895FB01DC0101900D920020E1F789
:100530000895FB01DC014150504030F08D91019055
:10054000801919F40020B9F7881B990B0895FB0155
:10055000DC014150504048F001900D920020C9F755
:1005600001C01D9241505040E0F70895FB015191A8
:100570005523A9F0BF01DC014D9145174111E1F769
:1005800059F4CD010190002049F04D9140154111E1
:10059000C9F3FB014111EFCF81E090E0019708958D
:1005A000592F482F372F262F660F771F881F991F27
:1005B000660F771F881F991F620F731F841F951F77
:1005C000660F771F881F991F08957AE0979F902DD7
:1005D000879F802D910D11240895A0E0B0E0E3EFF6
:1005E000F2E00C948D3DEC015B016115710519F091
:1005F000FB0191838083F9908F2D90E00E947C3DD8
:10060000892BC9F7FDE2FF1621F4F990EE24E3945B
:1006100005C02BE2F21609F4F990EE248E01015088
:100620001040C80164E173E043E050E00E944D04D3
:10063000892B01F58E010E5F1F4FC80167E173E042
:1006400045E050E00E944D04892B19F48E01095FAA
:100650001F4FA114B10419F0F50111830083E0FCD0
:1006600004C070E090E080E814C070E090E080E8A2
:100670006FEF08C1C8016CE173E043E050E00E94F5
:100680004D04892B69F4A114B10429F470E090E0C1
:1006900080EC6FE7F7C02296F501D183C083F6CFD7
:1006A0008824992440E050E060E070E0EF2DE053B2
:1006B000EA30A0F5F2E0EF2A8E2D90E09C01287040
:1006C0003070E2FE06C0232B79F50894811C911C42
:1006D0002BC0232B19F0089481089108DB01CA0173
:1006E00012E0880F991FAA1FBB1F1A95D1F7480F58
:1006F000591F6A1F7B1F440F551F661F771F4E0F20
:10070000511D611D711D483929E9520729E9620708
:1007100029E1720748F084E0E82A06C0EE3F31F490
:10072000E3FC39C098E0E92AF990C0CFE53311F035
:10073000E53189F529912D3219F4E0E1EE2A05C061
:100740002B3219F081E090E003C0299182E090E023
:10075000E22FE053EA3018F0C81BD90B1CC020E090
:1007600030E0FCE020383F075CF4C901880F991F96
:10077000880F991F280F391F220F331F2E0F311D8D
:10078000E991E053EA3068F3E4FE03C03095219527
:100790003F4F820E931ECE2CDD24E1FE07C0A11434
:1007A000B10421F02197F501D183C083CB01BA01B7
:1007B0000E94653B7B018C01F3E0CF22DD2423E026
:1007C000C216D10421F417FB109517F910955701A3
:1007D0006801C801B70120E030E040E050E00E942D
:1007E000C83A882309F44AC097FE0DC023E3E22EDD
:1007F00023E0F22E9094819491089394C0E2D0E08B
:1008000000E010E012C09BE4E92E93E0F92EF6CF51
:10081000F7012591359145915491C601B5010E948A
:100820001B3C5B016C018C1A9D0A8C169D0684F79B
:10083000D595C7950F5F1F4F0630110529F08CEF36
:100840009FEFE80EF91EF1CFC501D6017C018D01A5
:100850008C2D880F8D2D881F8F3F51F0C601B5015B
:1008600020E030E040E050E00E94C83A882331F4B4
:1008700082E290E09093CD058093CC057E2D9F2D54
:10088000802F612F272F392F482F562FB901CA01EA
:10089000CDB7DEB7ECE00C94A93DFB01DC01415083
:1008A000504088F08D9181341CF08B350CF4805EC3
:1008B000659161341CF06B350CF4605E861B611130
:1008C00071F3990B0895881BFCCFAF92BF92CF9222
:1008D000DF92EF92FF920F931F936E157F058007B3
:1008E000910734F42E153F054007510764F42CC0DE
:1008F000E616F7060807190794F4A216B306C4060D
:10090000D5063CF423C0A216B306C406D506BCF433
:100910001FC02A153B054C055D05C4F41BC06E15B0
:100920007F058007910791F42A153B054C055D056D
:100930008CF0A216B306C406D50644F409C02A15E5
:100940003B054C055D0511F484E005C082E003C061
:1009500083E001C081E01F910F91FF90EF90DF9045
:10096000CF90BF90AF900895EF92FF920F931F9397
:100970007B018C01662757FD6095762FCB01BA016C
:100980000E94673B209104033091050340910603C8
:10099000509107030E941B3CA80197010E94CC3A8A
:1009A0007B018C0120E030E040E050E40E94173CE5
:1009B00087FF03C061E070E004C0C801B7010E9476
:1009C000343BCB011F910F91FF90EF9008956F92F0
:1009D0007F928F929F92AF92BF92CF92DF92EF92CF
:1009E000FF920F931F93CF93DF937C015B016627E8
:1009F00057FD6095762FCB01BA010E94673B3B0102
:100A00004C010027F7FC0095102FC801B7010E9488
:100A1000673B7B018C01CC24B7FCC094DC2CC60165
:100A2000B5010E94673B9B01AC01C801B7010E9460
:100A3000CC3AA40193010E941B3C9B01AC01C40170
:100A4000B3010E94633A7B018C010E94343BEB01AD
:100A5000BE01882777FD8095982F0E94673B9B01F8
:100A6000AC01C801B7010E94633A20E030E040E0E9
:100A70005FE30E94173C18160CF42196CE01DF911B
:100A8000CF911F910F91FF90EF90DF90CF90BF908B
:100A9000AF909F908F907F906F900895EF92FF920C
:100AA0000F931F938C017B01FC0160817181828116
:100AB000938120E030E040E050E00E94643AF80189
:100AC0006083718382839383F70160817181828166
:100AD000938120E030E040E050E00E94643AF7016A
:100AE00060837183828393831F910F91FF90EF90B6
:100AF00008952F923F924F925F926F927F928F92C2
:100B00009F92AF92BF92CF92DF92EF92FF920F939C
:100B10001F931B012C0139014A01E0900C03F09056
:100B20000D0300910E0310910F03C801B701A80136
:100B300097010E94E73C0E94673B5B016C01C40186
:100B4000B301A40193010E941B3C9B01AC01C601AF
:100B5000B5010E94633A5B016C01C201B101A201BF
:100B600091010E941B3C9B01AC01C601B5010E9492
:100B7000643A5B016C01EE0CFF1C001F111FC801E1
:100B8000B7010E94673B9B01AC01C601B5010E9401
:100B9000CC3A1F910F91FF90EF90DF90CF90BF90D4
:100BA000AF909F908F907F906F905F904F903F900D
:100BB0002F9008950F931F93CF93DF93242F262711
:100BC000A22FB0E0AF70B070AA0FBB1FAA0FBB1F5F
:100BD000C8E6D0E0AC0FBD1FFD0105911591259130
:100BE0003491E4E09695879577956795EA95D1F7E6
:100BF000062717272827392742954F70402750E0AE
:100C00004F705070440F551F440F551F4C0F5D1F00
:100C1000FA0185919591A591B49144E03695279577
:100C2000179507954A95D1F7082719272A273B27B3
:100C3000B801C901DF91CF911F910F910895EF92F3
:100C4000FF920F931F938130910509F09DC16F5F53
:100C50007F4F09F04CC28CEC93E060E071E00E94A1
:100C6000A43989EF92E00E94132A8DEF92E065E0AB
:100C700071E00E94A43983ED93E066E071E00E9488
:100C8000A43920918D0230918E02442737FD409582
:100C9000542F6091930270919402882777FD80957C
:100CA000982F0E94E73C0E94673B7B018C0160917A
:100CB0008F02709190028091910290919202A8010E
:100CC00097010E94CC3A60930403709305038093CC
:100CD000060390930703C801B70120918F0230915A
:100CE000900240919102509192020E94CC3A7B0175
:100CF0008C01609308037093090380930A03909317
:100D00000B036091A4027091A502882777FD80955E
:100D1000982F0E94673BA80197010E941B3C0E94EC
:100D2000343B60930C0370930D0380930E039093F8
:100D30000F036091A6027091A702882777FD809526
:100D4000982F0E94673BA80197010E941B3C0E94BC
:100D5000343B6093100370931103809312039093BC
:100D600013038AED93E06FE071E00E94A43981EEF5
:100D700093E061E171E00E94A43988EE93E065E1BF
:100D800071E00E94A4398FEE93E06DE171E00E9462
:100D9000A43986EF93E060E571E00E94A4398DEFFD
:100DA00093E060E571E00E94A43984E094E060E59E
:100DB00071E00E94A4398BE094E060E571E00E944C
:100DC000A43982E194E06FE571E00E94A43989E1E1
:100DD00094E065E671E00E94A43980E294E06CE65C
:100DE00071E00E94A43987E294E064E771E00E9418
:100DF000A4398EE294E06FE771E00E94A43985E3A4
:100E000094E062E174E00E94413A84E293E065E09C
:100E100071E00E94A4398CE394E065E871E00E94DF
:100E2000A43983E494E067E871E00E94A4398AE47D
:100E300094E06CE871E00E94A43981E594E060E9F7
:100E400071E00E94A43988E594E064E971E00E94B1
:100E5000A4398FE594E068E971E00E94A43986E640
:100E600094E06CE971E00E94A4398DE694E060EAB8
:100E700071E00E94A43984E794E064EA71E00E9482
:100E8000A4398BE794E068EA71E00E94A43982E813
:100E900094E06CEA71E00E94A43989E894E060EB88
:100EA00071E00E94A43980E994E064EB71E00E9453
:100EB000A43987E994E068EB71E00E94A4398EE9D7
:100EC00094E06CEB71E00E94A43985EA94E060EC58
:100ED00071E00E94A4398CEA94E064EC71E00E9415
:100EE000A43983EB94E068EC71E00E94A4398AEBAA
:100EF00094E06CEC71E00E94A43981EC94E060ED28
:100F000071E00E94A43988EC94E064ED71E00E94E5
:100F1000A4398FEC94E068ED71E00E94A43986ED6D
:100F200094E06CED71E00E94A4398DED94E060EEE8
:100F300071E00E94A43984EE94E064EE71E00E94B6
:100F4000A43960918D0270918E028CE293E041E0B1
:100F50000E94C12D60918D0270918E0288E393E012
:100F600042E00E94C12D84E493E061E776E14AE625
:100F700056E10E94982588E893E063E676E14CE527
:100F800056E10E949825B3C0892B09F0B0C06F5F6D
:100F90007F4F09F0ACC084EE94E00E94573A8DED8B
:100FA00094E00E94573A86ED94E00E94573A8FEC05
:100FB00094E00E94573A88EC94E00E94573A81EC02
:100FC00094E00E94573A8AEB94E00E94573A83EBF0
:100FD00094E00E94573A8CEA94E00E94573A85EADE
:100FE00094E00E94573A8EE994E00E94573A87E9CC
:100FF00094E00E94573A80E994E00E94573A89E8C9
:1010000094E00E94573A82E894E00E94573A8BE7B6
:1010100094E00E94573A84E794E00E94573A8DE6A4
:1010200094E00E94573A86E694E00E94573A8FE592
:1010300094E00E94573A88E594E00E94573A81E58F
:1010400094E00E94573A8AE494E00E94573A83E47D
:1010500094E00E94573A8CE394E00E94573A84E26D
:1010600093E00E94573A85E394E00E94573A8EE25B
:1010700094E00E94573A87E294E00E94573A80E257
:1010800094E00E94573A89E194E00E94573A82E145
:1010900094E00E94573A8BE094E00E94573A84E033
:1010A00094E00E94573A8DEF93E00E94573A86EF02
:1010B00093E00E94573A8FEE93E00E94573A88EEF1
:1010C00093E00E94573A81EE93E00E94573A8AEDEE
:1010D00093E00E94573A83ED93E00E94573A8DEFD8
:1010E00092E00E94573A8CEC93E00E94573A1F918D
:1010F0000F91FF90EF90089580E090E06FEF7FEF09
:101100000E941F06089581E090E06FEF7FEF0E943C
:101110001F060895CF92DF92EF92FF920F931F93D5
:10112000CF93DF936C01EE24EA94FE2C8701C0E09C
:10113000D0E00CC0C601BE010E948937482FC8010B
:10114000B7010E94DA057B018C012196F6018481AA
:101150009581C817D90770F3A8019701209530959C
:1011600040955095B901CA01DF91CF911F910F9120
:10117000FF90EF90DF90CF9008950F931F9384E03E
:1011800090E00E942F2E8C010E94B62E2DB73EB704
:10119000201B310BC9011F910F9108950E94BD08BA
:1011A0009C01809118039091190328173907D1F0F9
:1011B000309319032093180387EA95E068EE73E0F3
:1011C0000E94B936609118037091190387EA95E07F
:1011D0004AE050E00E94773587EA95E063E474E0E6
:1011E0000E94EC36089587EA95E069E174E00E9478
:1011F000EC36089587EA95E062E174E00E94EC36EF
:101200000895AF92BF92CF92DF92EF92FF920F9329
:101210001F937B018C01CA01B9010E941B3C5B0139
:101220006C01C801B701A80197010E941B3C9B01FA
:10123000AC01C601B5010E94633A0E94823C1F9135
:101240000F91FF90EF90DF90CF90BF90AF900895F7
:10125000AF92BF92CF92DF92EF92FF920F931F93C4
:101260007B018C0159016A0160910C0370910D039F
:1012700080910E0390910F030E94673BA801970194
:101280000E94633A9B01AC010E941B3C7B018C01D4
:10129000C601B501A60195010E941B3C9B01AC0152
:1012A000C801B7010E94643A0E94823C1F910F91CD
:1012B000FF90EF90DF90CF90BF90AF900895AF92E6
:1012C000BF92CF92DF92EF92FF920F931F937B0119
:1012D0008C0159016A01A80197010E941B3C7B0106
:1012E0008C01C601B501A60195010E941B3C9B0122
:1012F000AC01C801B7010E94643A0E94823C1F9170
:101300000F91FF90EF90DF90CF90BF90AF90089536
:101310002F923F924F925F926F927F928F929F9205
:10132000AF92BF92CF92DF92EF92FF920F931F93F3
:10133000DF93CF9300D000D0CDB7DEB769837A8337
:101340008B839C8359016A0117012801611571057E
:101350008105910559F40F2EF0E0EF2EF0E0FF2EFD
:10136000F0E00F2FF0E01F2FF02DA4C0CA01B9014B
:101370000E941B3C7B018C01C601B50120E030E0DE
:1013800040E050E00E94C83A882324F417FB1095EF
:1013900017F91095C201B101A20191010E94643AAE
:1013A0003B014C01C801B701A40193010E94CC3A52
:1013B0007B018C0169817A818B819C810E94673BD2
:1013C0009B01AC01C801B7010E94C83A8823B4F55B
:1013D000C601B50120E030E040E050E00E94C83A8C
:1013E000882329F4C401B3010E94823C0DC0C201CC
:1013F000B101A60195010E94CC3A9B01AC015F7737
:10140000C601B5010E94643A7B018C01D09095021F
:10141000C0909602B0909702A09098022D2D3C2D7E
:101420004B2D5A2D0E94173C18160CF043C08D2DE1
:101430009C2DAB2DBA2D7C018D013CC0C601B501A0
:1014400020E030E040E050E00E94C83A882359F4A0
:10145000C401B3010E94823C7B018C0117FB1095F3
:1014600017F910950FC0C201B101A60195010E94A4
:10147000CC3A9B01AC015F77C601B5010E94633A8B
:101480007B018C018091950290919602A091970228
:10149000B09198025C016D01D7FAD094D7F8D0943E
:1014A000C801B701A60195010E94C83A882314F427
:1014B00086017501B701C8010F900F900F900F9032
:1014C000CF91DF911F910F91FF90EF90DF90CF9020
:1014D000BF90AF909F908F907F906F905F904F9054
:1014E0003F902F9008958091A0028823F1F187EA20
:1014F00095E06EE274E00E94B93684E493E00E94C5
:10150000F2232091930230919402442737FD4095B5
:10151000542F0E94473D87EA95E0BA01A9012AE0CD
:1015200030E00E94233587EA95E06CE374E00E9486
:10153000B93688E893E00E94F2232091930230911B
:101540009402442737FD4095542F0E94473D87EA77
:1015500095E0BA01A9012AE030E00E94233587EA2C
:1015600095E063E474E00E94EC360895AC016627D0
:1015700057FD6095762F88E893E00E94892508C082
:101580008091A102882321F088E893E00E94D72966
:1015900088E893E00E94E2236115710581059105B9
:1015A00079F70E94703060931C0370931D03809341
:1015B0001E0390931F030895AC01662757FD6095A5
:1015C000762F84E493E00E94892508C08091A102CF
:1015D000882321F084E493E00E94D72984E493E0F7
:1015E0000E94E223611571058105910579F70E943A
:1015F000703060931C0370931D0380931E039093BF
:101600001F030895CF93DF93FC01EB0121153105F2
:10161000A9F48091AE02882339F0CF0162E070E036
:101620000E94123DCB012CC0CF0162E070E00E940D
:10163000123DCB01909581959F4F22C08091AE02C3
:1016400024173507A9F4882339F0CF0162E070E050
:101650000E94123DCB0109C0CF0162E070E00E9400
:10166000123DCB01909581959F4F0E94DC0A17C0D7
:10167000882311F0CF0104C0882799278E1B9F0B68
:101680000E94DC0ACE010E94B60A8091AE02882335
:1016900019F01092AE0203C081E08093AE02DF9198
:1016A000CF910895EF92FF920F931F9380911403AF
:1016B00090911503A0911603B09117030097A1050F
:1016C000B10509F040C060910C0370910D03809149
:1016D0000E0390910F030E94673B7B018C01609188
:1016E00010037091110380911203909113030E94D3
:1016F000673B9B01AC01C801B7010E945F0920E074
:1017000030E040E05FE30E94643A0E94343B609323
:10171000140370931503809316039093170387EABD
:1017200095E068EE71E00E94A93540911403509154
:101730001503609116037091170387EA95E02AE07C
:1017400030E00E946335609114037091150380911D
:101750001603909117031F910F91FF90EF9008953A
:10176000AF92BF92CF92DF92EF92FF920F931F93AF
:10177000DF93CF93CDB7DEB728970FB6F894DEBFCF
:101780000FBECDBF69837A838B839C832D833E8379
:101790004F8358870E94703060931C0370931D0321
:1017A00080931E0390931F03CE010196BE016B5FD1
:1017B0007F4F0E944E0584E493E00E94DA265B018D
:1017C0006C0188E893E00E94DA267B018C0184E4B6
:1017D00093E040E050E060E070E00E94552688E829
:1017E00093E040E050E060E070E00E94552669819F
:1017F0007A818B819C810E94343BAB01BC0184E4E3
:1018000093E00E9477256D817E818F8198850E946B
:10181000343BAB01BC0188E893E00E9477258091BE
:101820009D02882309F042C084E493E00E94DA26F6
:1018300020E030E040E050E00E94C83A882324F4E1
:10184000D7FAD094D7F8D09488E893E00E94DA26AB
:1018500020E030E040E050E00E94C83A882324F4C1
:1018600017FB109517F9109584E493E0B601A501D4
:101870000E94552688E893E0B801A7010E945526EA
:1018800015C080919D02882349F084E493E00E9472
:10189000D72988E893E00E94D72908C084E493E020
:1018A0000E94B32988E893E00E94B32984E493E07E
:1018B0000E94E223611571058105910549F488E8CC
:1018C00093E00E94E223611571058105910529F0DD
:1018D0008091A102882351F3D4CF0E94730A2896E5
:1018E0000FB6F894DEBF0FBECDBFCF91DF911F9131
:1018F0000F91FF90EF90DF90CF90BF90AF90089541
:10190000AF92BF92CF92DF92EF92FF920F931F930D
:1019100079018A010E94673B5B016C01C801B70134
:101920000E94673B9B01AC01C601B5010E94B00B50
:101930001F910F91FF90EF90DF90CF90BF90AF90ED
:1019400008950F931F93CF93DF93EC018B01211523
:101950003105D9F487EA95E06FEF71E00E94A63671
:101960008091AE02882339F0CE0162E070E00E94DF
:10197000123DCB012CC0CE0162E070E00E94123D0E
:10198000CB01909581959F4F22C08091AE02241784
:101990003507A9F4882339F0CE0162E070E00E9497
:1019A000123DCB0109C0CE0162E070E00E94123D01
:1019B000CB01909581959F4F0E94B60A17C088234E
:1019C00011F0CE0104C0882799278C1B9D0B0E9423
:1019D000B60AC8010E94DC0A8091AE02882319F081
:1019E0001092AE0203C081E08093AE02DF91CF91EE
:1019F0001F910F9108953F924F925F926F927F9245
:101A00008F929F92AF92BF92CF92DF92EF92FF920E
:101A10000F931F93DF93CF9300D000D0CDB7DEB7E5
:101A2000FC014B016A01322E141615060CF081C020
:101A3000BA010E94123D5B01CF01B6010E94123D26
:101A4000AA2797FDA095BA2FBC01CD010E94673B44
:101A50007B018C01B601882777FD8095982F0E9425
:101A6000673B9B01AC01C801B7010E94CC3A2B0136
:101A70003C010F2EF0E0EF2EF0E0FF2EF0E00F2FF4
:101A8000F0E01F2FF02D1C821B82C50101969A8366
:101A90008983C801B701A30192010E94643A7B01C6
:101AA0008C0120E030E040E85FE30E94173C87FFB4
:101AB00002C095010CC0C801B70120E030E040E849
:101AC0005FE30E94633A7B018C0129813A8192E0B5
:101AD000391619F4C401B9010EC0E3E03E1619F439
:101AE000C401B90116C0F4E03F1659F46627772700
:101AF000621B730BC401A6012B813C810E94A10CC7
:101B00000DC081E0381651F466277727621B730BEE
:101B1000C401A6012B813C810E94020B0E94730A22
:101B2000EB81FC813196FC83EB83CE16DF060CF053
:101B3000B0CF0F900F900F900F90CF91DF911F912A
:101B40000F91FF90EF90DF90CF90BF90AF909F905C
:101B50008F907F906F905F904F903F9008952F925D
:101B60003F924F925F926F927F928F929F92AF922D
:101B7000BF92CF92DF92EF92FF920F931F93DF936A
:101B8000CF93CDB7DEB7E0970FB6F894DEBF0FBEA8
:101B9000CDBF2B013C019CA28BA20E9479056B8FCB
:101BA0007C8F8D8F9E8FA30192010E9401096F8B04
:101BB000788F898F9A8FC801B701A60195010E947D
:101BC00079055B016C01A80197010E9401097B0165
:101BD0008C01C601B50120E030E040EA51E40E94EA
:101BE000173C18160CF008C260910C0370910D039D
:101BF00080910E0390910F0364517040804090409B
:101C00000E94673B6F8F78A389A39AA3C601B50191
:101C10002F8D38A149A15AA10E94C83A88230CF0FF
:101C2000EBC1C801B70120E030E040EA51E40E9476
:101C3000173C18160CF0E0C160911003709111036D
:101C40008091120390911303645170408040904042
:101C50000E94673B2B013C01C801B701A30192011F
:101C60000E94C83A88230CF0C7C16B8D7C8D8D8D86
:101C70009E8D20E030E040EA51E40E94173C1816A7
:101C80000CF0BAC16B8D7C8D8D8D9E8D2F8D38A102
:101C900049A15AA10E94C83A88230CF0ADC16F89AE
:101CA000788D898D9A8D20E030E040EA51E40E94E1
:101CB000173C18160CF0A0C16F89788D898D9A8D0C
:101CC000A30192010E94C83A88230CF095C110929A
:101CD000A002C601B5012B8D3C8D4D8D5E8D0E94FD
:101CE000633A1B012C01C801B7012F89388D498D3A
:101CF0005A8D0E94633A3B014C01C201B10120E0C0
:101D000030E040E050E00E94173C18161CF48201BD
:101D1000710106C08201710117FB109517F910952A
:101D2000C401B30120E030E040E050E00E94173CE5
:101D300018161CF4A401930103C0A4019301505888
:101D4000C801B7010E94173C18169CF021E030E052
:101D50003E8B2D8BD401C301B0588DA79EA7AFA792
:101D6000B8ABABA1BCA15D01CC24B7FCC094DC2C0A
:101D70004EC021E030E03E8B2D8BD201C101B05826
:101D800089A79AA7ABA7BCA7ABA1BCA15D01CC2436
:101D9000B7FCC094DC2C06C02D893E892F5F3F4FD5
:101DA0003E8B2D8BC201B10120E030E040E050E0DD
:101DB0000E94173C18161CF48201710104C0E9A4AA
:101DC000FAA40BA51CA5AD89BE89BD01882777FDA6
:101DD0008095982F0E94673B9B01AC01C801B70119
:101DE0000E94CC3A7B018C01C601B5010E94673B81
:101DF0009B01AC01C801B7010E94173C181664F2A0
:101E000034C02D893E892F5F3F4F3E8B2D8BC401FF
:101E1000B30120E030E040E050E00E94173C18168B
:101E20001CF48401730104C0EDA4FEA40FA518A93D
:101E3000AD89BE89BD01882777FD8095982F0E94C6
:101E4000673B9B01AC01C801B7010E94CC3A7B0102
:101E50008C01C601B5010E94673B9B01AC01C80122
:101E6000B7010E94173C181664F22D893E8959016A
:101E7000CC24B7FCC094DC2CC601B5010E94673BA2
:101E80007B018C01C201B101A80197010E94CC3AEB
:101E90006D837E838F839887C401B301A801970166
:101EA0000E94CC3A69837A838B839C8310929D0233
:101EB000198A1A8A1B8A1C8A19861A861B861C860E
:101EC000ADA2BEA2CFA2D8A66B8D7C8D8D8D9E8D2E
:101ED0002D813E814F8158850E94643A6B8F7C8FA3
:101EE0008D8F9E8F6F89788D898D9A8D29813A810A
:101EF0004B815C810E94643A6F8B788F898F9A8FB7
:101F00006B8D7C8D8D8D9E8D2F89388D498D5A8D51
:101F10000E945F096D877E878F87988B6B8D7C8D84
:101F20008D8D9E8D2F89388D498D5A8D0E9428095F
:101F30001B012C0169847A848B849C848DA19EA1D1
:101F4000AFA1B8A5680E791E8A1E9B1E69897A8981
:101F50008B899C890E94673B5B016C0160919902AF
:101F600070919A0280919B0290919C0220E030E057
:101F700040E850E40E941B3C7B018C01C401B3018A
:101F8000A60195010E9488090E94343B698B7A8BD7
:101F90008B8B9C8B0E94673B7B018C0184E493E0DC
:101FA000B801A7010E94552688E893E0B801A7016F
:101FB0000E9455266D857E858F859889A2019101A5
:101FC0000E94B00B89859A85AB85BC850197A109D4
:101FD000B10989879A87AB87BC878D899E89A98536
:101FE000BA858A0F9B1F892B09F06ECF81E0809301
:101FF000A00280939D0206C087EA95E06FE072E040
:102000000E94A6360E94CE08E0960FB6F894DEBF76
:102010000FBECDBFCF91DF911F910F91FF90EF9039
:10202000DF90CF90BF90AF909F908F907F906F90F8
:102030005F904F903F902F9008952F923F924F9234
:102040005F926F927F928F929F92AF92BF92CF9248
:10205000DF92EF92FF920F931F93DF93CF9300D005
:1020600000D0CDB7DEB73B014C0159016A01FA82BD
:10207000E982C80162E070E00E94123D882777FD86
:102080008095982F661A770A880A990AA61AB70ABD
:10209000C80AD90A1C821B821801442437FC4094C8
:1020A000542C2EC060E070E080E090E0A20191012D
:1020B0000E946B377B018C0160E070E080E090E073
:1020C000A20191010E946B379B01AC010027F7FC34
:1020D0000095102FE60CF71C081D191D442737FD2D
:1020E0004095542F2A0D3B1D4C1D5D1DC801B701A5
:1020F0000E94800C2B813C812F5F3F4F3C832B83C0
:102100008B819C81E981FA81E817F9075CF60F90D1
:102110000F900F900F90CF91DF911F910F91FF9033
:10212000EF90DF90CF90BF90AF909F908F907F9077
:102130006F905F904F903F902F9008958AE892E0C3
:102140009093BA028093B9029093BC028093BB0231
:102150008FE590E09093B6028093B50280E991E01C
:102160009093B8028093B70281E090E09093B4021C
:102170008093B30264EF71E080E090E00E94A430AD
:102180000895AF92BF92CF92DF92EF92FF920F939A
:102190001F93CF93DF93EC015B016A0189EF92E01B
:1021A00069E070E00E94802BCA15DB059CF4760183
:1021B0000027F7FC0095102F89EF92E0BE010E94E6
:1021C000992AC801B7010E94A4302196AC16BD0619
:1021D0009CF712C076010027F7FC0095102F89EFBD
:1021E00092E0BE010E94992AC801B7010E94A43062
:1021F0002197CA15DB059CF789EF92E00E942D2AF2
:10220000DF91CF911F910F91FF90EF90DF90CF90D2
:10221000BF90AF900895EF92FF920F931F93B4E495
:10222000EB2EB3E0FB2EC7010E94F223AB01BC01F1
:102230004C5F5F4F6F4F7F4FC7010E94082A08E82D
:1022400013E0C8010E94F223AB01BC014C5F5F4F59
:102250006F4F7F4FC8010E94082AC7010E94F223D6
:10226000AB01BC014450504060407040C7010E9427
:10227000082AC8010E94F223AB01BC01445050401F
:1022800060407040C8010E94082A1F910F91FF9082
:10229000EF9008950F931F93AB01BC0140939902F7
:1022A00050939A0260939B0270939C0284E493E0A3
:1022B0000E94E3284091990250919A0260919B02FA
:1022C00070919C0288E893E00E94E32807EA15E0F9
:1022D000C80161EC70E00E941F3440919902509156
:1022E0009A0260919B0270919C02C80122E030E04A
:1022F0000E9493361F910F910895CF92DF92EF9233
:10230000FF920F931F937C018B0183E1C82E85E020
:10231000D82EC601B701F80140810E944C2C0894C8
:10232000E11CF11CC601B701F80141810E944C2C4F
:1023300082E090E01F910F91FF90EF90DF90CF909F
:1023400008950F931F93AB01BC01409395025093E6
:102350009602609397027093980284E493E00E943F
:10236000FF254091950250919602609197027091DD
:10237000980288E893E00E94FF2507EA15E0C8016B
:1023800064ED70E00E941F344091950250919602D6
:102390006091970270919802C80122E030E00E949B
:1023A00093361F910F910895CF92DF92EF92FF9293
:1023B0000F931F937C018B0193E1C92E95E0D92ED9
:1023C000C601B7010E94452CF80180830894E11CE6
:1023D000F11CC601B7010E94452CF801818382E0FF
:1023E00090E01F910F91FF90EF90DF90CF900895B4
:1023F00084E190E063E972E00E94D411809193023D
:10240000909194021816190644F08091B3029091AD
:10241000B402909394028093930287EA95E060EA75
:1024200071E00E941F34609193027091940287EAD8
:1024300095E04AE050E00E948A3508958AE290E0F3
:1024400061EB72E00E94D4118091B1029091B202CE
:1024500097FF06C08AE590E09093B2028093B102A4
:1024600087EA95E062EE71E00E941F346091B1024C
:102470007091B20287EA95E04AE050E00E948A3506
:102480008CE290E06BEE74E00E94D4118091EB043A
:102490009091EC0497FF04C01092EC041092EB04AE
:1024A00087EA95E063ED71E00E941F346091EB04D0
:1024B0007091EC0487EA95E04AE050E00E948A358A
:1024C000089580E090E064EA72E00E94D411809167
:1024D000A4029091A5021816190644F08091B90241
:1024E0009091BA029093A5028093A40287EA95E0A6
:1024F00069E372E00E941F346091A4027091A5020A
:1025000087EA95E04AE050E00E948A3582E090E058
:1025100066EA72E00E94D4118091A6029091A7020F
:102520001816190644F08091BB029091BC0290935A
:10253000A7028093A60287EA95E062E272E00E9419
:102540001F346091A6027091A70287EA95E04AE0E5
:1025500050E00E948A350895EF92FF920F931F93E7
:10256000CF93DF93AC01EB0124E0E22EF12CE60ED9
:10257000F71E8A010F5F1F4F83E195E0BA010E94A9
:10258000452C8993A801CE15DF0599F784E090E0EA
:10259000DF91CF911F910F91FF90EF90089586E109
:1025A00090E065E972E00E94AC1260919502709132
:1025B000960280919702909198020E94343B1616E1
:1025C000170664F080E090E0A8E4B4E480939502FC
:1025D00090939602A0939702B09398028AE190E0BC
:1025E00069E972E00E94AC126091990270919A02BE
:1025F00080919B0290919C020E94343B1616170614
:1026000064F080E090E0A8E4B4E4809399029093B1
:102610009A02A0939B02B0939C0208958EE090E0F2
:102620006FE872E00E94AC1260918F02709190028C
:10263000809191029091920220E030E040E85FE3C7
:102640000E94C83A882394F46091B5027091B60252
:10265000882777FD8095982F0E94673B60938F02B3
:1026600070939002809391029093920287EA95E092
:102670006FE072E00E941F3440918F0250919002EF
:10268000609191027091920287EA95E022E030E039
:102690000E94933682E190E06DE872E00E94D411CE
:1026A00080918D0290918E021816190644F0809147
:1026B000B7029091B80290938E0280938D0287EAC0
:1026C00095E063EF71E00E941F3460918D0270917C
:1026D0008E0287EA95E04AE050E00E948A3508952C
:1026E000BF92CF92DF92EF92FF920F931F93DF93EF
:1026F000CF93CDB7DEB72E970FB6F894DEBF0FBEDF
:10270000CDBF8E010F5F1F4FC80165E071E00E94D1
:10271000A43944E0E42EF12C38E0C32ED12CCC0EA9
:10272000DD1EB12E83E195E0B7010E94452C182FE4
:10273000C601602F7B2D0E944C3AC601612F0E947A
:102740007239BC01802F9B2D0E942A3AC6010E943B
:102750005D3A0894E11CF11C8CE0E816F10411F7D5
:10276000802F9B2D60E070E00E949A37FC018081F1
:10277000882331F4802F9B2D63ED73E00E942A3A69
:10278000109214031092150310921603109217035F
:102790008DEF92E08E010F5F1F4FB8010E942A3A21
:1027A00087EA95E06EEB71E00E941F3487EA95E0BE
:1027B0006DEF72E00E94EC36C8010E94573A2E96E7
:1027C0000FB6F894DEBF0FBECDBFCF91DF911F9142
:1027D0000F91FF90EF90DF90CF90BF900895AF9250
:1027E000BF92CF92DF92EF92FF920F931F930E94BE
:1027F00061120E940E130E94F8110E9470130E9431
:102800001E120E94CF128EE190E06AEA72E00E94EE
:10281000AC126091AA027091AB028091AC029091CF
:10282000AD0227E137EB41ED58E30E94C83A882317
:1028300064F48DEC9CECACE4BFE38093AA0290932B
:10284000AB02A093AC02B093AD02A0908F02B09007
:102850009002C0909102D090920260919302709188
:102860009402882777FD8095982F20918D023091D2
:102870008E02442737FD4095542F0E94E73C0E946A
:10288000673B7B018C01C601B501A80197010E943D
:10289000CC3A6093040370930503809306039093EE
:1028A0000703C801B701A60195010E94CC3A6093C5
:1028B00008037093090380930A0390930B0387EA3C
:1028C00095E06DE871E00E941F344091040350913F
:1028D0000503609106037091070387EA95E022E003
:1028E00030E00E94903687EA95E06DE771E00E9443
:1028F0001F34409108035091090360910A037091BD
:102900000B0387EA95E022E030E00E94903687EAE8
:1029100095E06BE771E00E941F3487EA95E00E9422
:1029200042346091A4027091A502882777FD8095BA
:10293000982F0E94673B2091080330910903409132
:102940000A0350910B030E941B3C0E94343B60938E
:102950000C0370930D0380930E0390930F0387EA8B
:1029600095E06FE571E00E941F3440910C03509197
:102970000D0360910E0370910F0387EA95E02AE042
:1029800030E00E94233587EA95E06DE571E00E9412
:102990001F3487EA95E00E9442346091A60270914C
:1029A000A702882777FD8095982F0E94673B20918A
:1029B00008033091090340910A0350910B030E94D0
:1029C0001B3C0E94343B609310037093110380936F
:1029D00012039093130387EA95E060E471E00E948C
:1029E0001F344091100350911103609112037091B4
:1029F000130387EA95E02AE030E00E94233587EA56
:102A000095E06EE371E00E941F3487EA95E00E9432
:102A10004234109214031092150310921603109270
:102A200017031F910F91FF90EF90DF90CF90BF9011
:102A3000AF900895EF92FF920F931F93DF93CF9380
:102A4000CDB7DEB727970FB6F894DEBF0FBECDBF68
:102A50007E010894E11CF11CC70166EF73E00E943F
:102A6000413AC70163ED73E00E949E388823A1F4C8
:102A700000E010E0C701B8010E949A37FC010C5F2A
:102A80001F4F83E195E0B80140810E944C2C035018
:102A900010400830110571F70E94EF13CE01019626
:102AA0000E94573A27960FB6F894DEBF0FBECDBFEF
:102AB000CF91DF911F910F91FF90EF900895CF93E9
:102AC000DF93C0E0D0E083E195E0BE0140E00E94EA
:102AD0004C2C2196C233D105B1F70E94EF13DF9140
:102AE000CF910895CF93DF93C0E0D0E087EA95E0DF
:102AF000BE014AE050E00E94773587EA95E065E341
:102B000072E00E94A93583E195E0BE010E94452C48
:102B1000682F87EA95E04AE050E00E94053521964B
:102B2000C832D10519F7DF91CF910895CF92DF9286
:102B3000EF92FF920F931F930E94721507EA15E020
:102B4000C80166E371E00E941F34C8016DEF72E0B6
:102B50000E94B93663E4E62E64E0F62EC801B701A0
:102B60000E94EC36C8016EE271E00E941F34609151
:102B7000A4027091A502C8014AE050E00E94773596
:102B80005CE3C52E54E0D52EC801B6010E94B936CB
:102B90006091A6027091A702C8014AE050E00E942D
:102BA0007735C801B7010E94EC36C80162E271E0D6
:102BB0000E941F3440918F025091900260919102C7
:102BC00070919202C80122E030E00E949036C80164
:102BD000B7010E94EC36C80163E171E00E941F3426
:102BE00060918D0270918E02C8014AE050E00E940F
:102BF0007735C801B7010E94EC36C80161E071E089
:102C00000E941F346091930270919402C8014AE0BF
:102C100050E00E947735C801B7010E94EC36C80128
:102C200069EF70E00E941F346091B1027091B202AE
:102C3000C8014AE050E00E947735C801B6010E9401
:102C4000B9366091EB047091EC04C8014AE050E0A1
:102C50000E947735C801B7010E94EC36C80160EFC9
:102C600070E00E941F34409195025091960260914D
:102C7000970270919802C80122E030E00E949036DD
:102C8000C801B6010E94B9364091990250919A024A
:102C900060919B0270919C02C80122E030E00E948A
:102CA0009036C801B7010E94EC361F910F91FF903A
:102CB000EF90DF90CF90089588E393E062E043E0E7
:102CC0000E94AB2C089588E393E061E043E00E940A
:102CD000AB2C08958CE293E062E043E00E94AB2CC1
:102CE00008958CE293E061E043E00E94AB2C0895EC
:102CF000EF92FF920F931F937C0107EA15E0C80142
:102D00006DE672E00E941F34C801B7010E94B93617
:102D1000C8016FE472E00E9462341F910F91FF902E
:102D2000EF900895EF92FF920F931F93DF93CF934D
:102D3000CDB7DEB7FC01EDB6FEB6448155814F5FDD
:102D40005F4F8DB79EB7841B950B0FB6F8949EBF4F
:102D50000FBE8DBF0DB71EB70F5F1F4FCF01B8015C
:102D600020E030E00E941C38C8010E9437020FB6F4
:102D7000F894FEBE0FBEEDBECF91DF911F910F9173
:102D8000FF90EF9008958F929F92AF92BF92CF9253
:102D9000DF92EF92FF920F931F93DF93CF93CDB704
:102DA000DEB72E970FB6F894DEBF0FBECDBF4E0133
:102DB0000894811C911CC40166EF73E00E94413AA3
:102DC000C4010E9492167B018C0160919302709164
:102DD0009402882777FD8095982F0E94673B9B017E
:102DE000AC01C801B7010E941B3C5B016C01C4012E
:102DF0000E94573A78E0872E912C8C0E9D1EC401BC
:102E00006DEF73E00E94413AC4010E9492167B016B
:102E10008C016091930270919402882777FD8095D0
:102E2000982F0E94673B9B01AC01C801B7010E942B
:102E30001B3C7B018C01C4010E94573AB501C601BD
:102E40009701A8010E94B00B2E960FB6F894DEBF32
:102E50000FBECDBFCF91DF911F910F91FF90EF90EB
:102E6000DF90CF90BF90AF909F908F9008950F9379
:102E70001F93DF93CF93CDB7DEB727970FB6F894A4
:102E8000DEBF0FBECDBF8E010F5F1F4FC80166EFC3
:102E900073E00E94413AC8010E9492166093AA0210
:102EA0007093AB028093AC029093AD02C8010E9474
:102EB000573A07EA15E0C8016BEA70E00E941F3438
:102EC0004091AA025091AB026091AC027091AD02A8
:102ED000C80122E030E00E949036C80168EA70E044
:102EE0000E941F34C8010E94423427960FB6F894FE
:102EF000DEBF0FBECDBFCF91DF911F910F9108951F
:102F0000EF92FF920F931F93DF93CF93CDB7DEB76E
:102F10002B970FB6F894DEBF0FBECDBF8E010B5FAF
:102F20001F4FC80166EF73E00E94413AC8010E943A
:102F3000921669837A838B839C83C8010E94573AD7
:102F40007E010894E11CF11C6EE070E08B010F5FC4
:102F50001F4FF70141917F0183E195E00E944C2CC6
:102F6000B8010231110591F70E94EF132B960FB6AD
:102F7000F894DEBF0FBECDBFCF91DF911F910F91AF
:102F8000FF90EF900895EF92FF920F931F93DF93BE
:102F9000CF93CDB7DEB7FC01EDB6FEB644815581C7
:102FA0004F5F5F4F8DB79EB7841B950B0FB6F8949C
:102FB0009EBF0FBE8DBF0DB71EB70F5F1F4FCF0156
:102FC000B80120E030E00E941C38C8010E943B029A
:102FD0000FB6F894FEBE0FBEEDBECF91DF911F91EC
:102FE0000F91FF90EF9008952F923F924F925F9232
:102FF0006F927F928F929F92AF92BF92CF92DF9209
:10300000EF92FF920F931F93DF93CF93CDB7DEB76D
:10301000A4970FB6F894DEBF0FBECDBF8E010F5F31
:103020001F4FC80166EF73E00E94413AC8010E9439
:10303000C317AA2797FDA095BA2F2091930230912C
:103040009402442737FD4095542FBC01CD010E94C6
:10305000E73C5B01C8010E94573A8E01085F1F4F91
:10306000C8016DEF73E00E94413AC8010E949216B8
:10307000F62EE72ED82EC92EC8010E94573A8E018F
:10308000015F1F4FC80164E074E00E94413AC8012B
:103090000E94921669A37AA38BA39CA3C8010E94E5
:1030A000573A8E010A5E1F4FC8016BE074E00E9420
:1030B000413AC8010E9492162B013C01C8010E94AE
:1030C000573A2090A8023090A90282E090E09093B5
:1030D000A9028093A8028091AA029091AB02A091CC
:1030E000AC02B091AD028D8F9E8FAF8FB8A32F2D04
:1030F0003E2D4D2D5C2DC901DA016C017D01882426
:1031000099241EC00894811C911CC092AA02D092DE
:10311000AB02E092AC02F092AD02C701B601A5018C
:103120000E94B404AC01C501B50122E00E94FB0C71
:10313000C701B601A30192010E94643A6B017C01B0
:10314000C701B60129A13AA14BA15CA10E94C83ACE
:103150001816C4F68D8D9E8DAF8DB8A18093AA02EE
:103160009093AB02A093AC02B093AD02EE24FF2487
:10317000EA18FB08C7010E94B60AC50162E070E0C8
:103180000E94123D709561957F4F3B01C50162E041
:1031900070E00E94123D6B0101E010E00BC0C30122
:1031A0000E94B60AC7010E94DC0AC6010E94B60A44
:1031B0000F5F1F4F8016910694F78D8D9E8DAF8DFA
:1031C000B8A18093AA029093AB02A093AC02B093F3
:1031D000AD023092A9022092A802A4960FB6F894EC
:1031E000DEBF0FBECDBFCF91DF911F910F91FF903A
:1031F000EF90DF90CF90BF90AF909F908F907F9097
:103200006F905F904F903F902F900895EF92FF92B4
:103210000F931F93DF93CF93CDB7DEB727970FB6EA
:10322000F894DEBF0FBECDBF80911A0390911B03AF
:103230002091FC0202971CF1222329F0E090EB047C
:10324000F090EC0404C0E090B102F090B2028E0164
:103250000F5F1F4FC80166EF73E00E94413AC8013B
:103260000E94C3179093B2028093B102C8010E94DA
:10327000573A6091B1027091B202C7010AC0213081
:1032800061F46091B1027091B2028091EB0490916F
:10329000EC0443E050E00E94C1101092FC0227961B
:1032A0000FB6F894DEBF0FBECDBFCF91DF911F9157
:1032B0000F91FF90EF900895EF92FF920F931F935D
:1032C000DF93CF93CDB7DEB727970FB6F894DEBF65
:1032D0000FBECDBF80911A0390911B032091FC0279
:1032E00002971CF1222329F0E090EB04F090EC040B
:1032F00004C0E090B102F090B2028E010F5F1F4F48
:10330000C80166EF73E00E94413AC8010E94C317EA
:103310009093EC048093EB04C8010E94573A6091AB
:10332000EB047091EC04C7010AC0222361F46091A0
:10333000EB047091EC048091B1029091B20243E0F1
:1033400050E00E94C11081E08093FC0227960FB6E6
:10335000F894DEBF0FBECDBFCF91DF911F910F91CB
:10336000FF90EF9008952F923F924F925F926F924D
:103370007F928F929F92AF92BF92CF92DF92EF9205
:10338000FF920F931F93DF93CF93CDB7DEB76B9769
:103390000FB6F894DEBF0FBECDBF6E010894C11CFE
:1033A000D11CC60166EF73E00E94413AC6010E943B
:1033B00092167B018C016091930270919402882790
:1033C00077FD8095982F0E94673B9B01AC01C80157
:1033D000B7010E941B3C3B014C01C6010E94573AB9
:1033E0008E01085F1F4FC8016DEF73E00E94413AE4
:1033F000C8010E9492166B017C01A0909302B090CC
:103400009402C8010E94573A8E01015F1F4FC80104
:1034100064E074E00E94413AC8010E94C3179F8B88
:103420008E8BC8010E94573A84E493E00E94F223F5
:10343000688F798F8A8F9B8F88E893E00E94F223B0
:103440001B012C01C401B30120E030E040EA51E44B
:103450000E94C83A87FD2FC0B501882777FD809567
:10346000982F0E94673B9B01AC01C701B6010E94E7
:103470001B3C5B016C0120E030E040EA51E40E941B
:10348000C83A87FD18C00E94520B0E94673B9B01FF
:10349000AC01C401B3010E94173C181664F00E94ED
:1034A000520B0E94673B9B01AC01C601B5010E9413
:1034B000173C18163CF487EA95E068E372E00E9436
:1034C000A63616C0688D798D8A8D9B8D0E94673BCC
:1034D0007B018C01C201B1010E94673B9B01AC01E1
:1034E000C801B701840173018E889F880E94AF0DC7
:1034F0006B960FB6F894DEBF0FBECDBFCF91DF91B4
:103500001F910F91FF90EF90DF90CF90BF90AF9001
:103510009F908F907F906F905F904F903F902F90F3
:103520000895EF92FF920F931F93DF93CF93CDB740
:10353000DEB72E970FB6F894DEBF0FBECDBF8E015B
:103540000F5F1F4FC80166EF73E00E94413AC80148
:103550000E9492160E944A11C8010E94573A809117
:103560001A0390911B03039741F58E01085F1F4FCB
:10357000C8016DEF73E00E94413AC8010E94C31771
:103580007C01C8010E94573A81E0E816F104A9F4D1
:10359000E9E9EE2EE2E0FE2E6AE170E08B010F5FBA
:1035A0001F4FF70141917F0183E195E00E944C2C70
:1035B0000E31110511F0B801F1CF2E960FB6F89427
:1035C000DEBF0FBECDBFCF91DF911F910F91FF9056
:1035D000EF900895EF92FF920F931F93DF93CF9395
:1035E000CDB7DEB72E970FB6F894DEBF0FBECDBFB6
:1035F0008E010F5F1F4FC80166EF73E00E94413AD2
:10360000C8010E9492160E94A111C8010E94573A57
:1036100080911A0390911B03039741F58E01085F77
:103620001F4FC8016DEF73E00E94413AC8010E942C
:10363000C3177C01C8010E94573A81E0E816F104E3
:10364000A9F4F5E9EF2EF2E0FF2E66E170E08B01C0
:103650000F5F1F4FF70141917F0183E195E00E94C9
:103660004C2C0A31110511F0B801F1CF2E960FB68E
:10367000F894DEBF0FBECDBFCF91DF911F910F91A8
:10368000FF90EF9008950F931F93DF93CF93CDB7E3
:10369000DEB762970FB6F894DEBF0FBECDBF8E01C6
:1036A0000B5F1F4FC80166EF73E00E94413AC801EB
:1036B0000E94C3179A838983C8010E94573A8E01DA
:1036C000045F1F4FC8016DEF73E00E94413AC801CB
:1036D0000E94C3179C838B83C8010E94573A87EAD4
:1036E00095E069EE70E00E941F3469817A8187EA73
:1036F00095E04AE050E00E948A3587EA95E064EE62
:1037000070E00E941F346B817C8187EA95E04AE07B
:1037100050E00E948A3580911A0390911B038430F7
:10372000910589F48AE290E0BE016F5F7F4F0E94AD
:103730007D118CE290E0BE016D5F7F4F0E947D1194
:103740000E941E123AC00397C1F569817A818B816C
:103750009C8143E050E00E94C11068EC70E080E082
:1037600090E00E94A4306B817C8189819A8143E042
:1037700050E00E94C11068EC70E080E090E00E9490
:10378000A43069817A818B819C8143E050E00E9462
:10379000C11068EC70E080E090E00E94A4306B8182
:1037A0007C8189819A8143E050E00E94C11068ECDD
:1037B00070E080E090E00E94A43062960FB6F8942A
:1037C000DEBF0FBECDBFCF91DF911F910F91089546
:1037D0000F931F93DF93CF93CDB7DEB729970FB623
:1037E000F894DEBF0FBECDBF8E010D5F1F4FC80125
:1037F00066EF73E00E94413AC8010E94C3179A83A2
:10380000898384E190E0BE016F5F7F4F0E947D114C
:10381000C8010E94573A0E94EF1329960FB6F894F8
:10382000DEBF0FBECDBFCF91DF911F910F910895E5
:103830000F931F93DF93CF93CDB7DEB729970FB6C2
:10384000F894DEBF0FBECDBF8E010D5F1F4FC801C4
:1038500066EF73E00E94413AC8010E94C3179A8341
:103860008983C8010E94573A82E190E0BE016F5FF0
:103870007F4F0E947D110E94EF1329960FB6F89496
:10388000DEBF0FBECDBFCF91DF911F910F91089585
:103890000F931F93DF93CF93CDB7DEB764970FB627
:1038A000F894DEBF0FBECDBF8E01095F1F4FC80168
:1038B00066EF73E00E94413AC8010E94C3179A83E1
:1038C0008983C8010E94573A8E01025F1F4FC801C9
:1038D0006DEF73E00E94413AC8010E94C3179C83B8
:1038E0008B83C8010E94573A89819A819E838D8378
:1038F00080E090E0BE016B5F7F4F0E94D411298170
:103900003A818D819E818217930751F02B303105CA
:103910003CF080E090E0BE016F5F7F4F0E947D1120
:1039200082E090E0BE016B5F7F4F0E94D4112B813B
:103930003C818D819E818217930751F02B30310598
:103940003CF082E090E0BE016D5F7F4F0E947D11F0
:103950000E94611264960FB6F894DEBF0FBECDBF11
:10396000CF91DF911F910F9108950F931F93DF93D4
:10397000CF93CDB7DEB72E970FB6F894DEBF0FBE4C
:10398000CDBF8E010F5F1F4FC80166EF73E00E942D
:10399000413AC8010E94C3179093A9028093A802DC
:1039A000C8010E94573A8E01085F1F4FC8016DEF92
:1039B00073E00E94413AC8010E94C3179093B0027D
:1039C0008093AF02C8010E94573A2E960FB6F89422
:1039D000DEBF0FBECDBFCF91DF911F910F91089534
:1039E000EF92FF920F931F93DF93CF93CDB7DEB784
:1039F000FC01EDB6FEB6448155814F5F5F4F8DB738
:103A00009EB7841B950B0FB6F8949EBF0FBE8DBF5B
:103A10000DB71EB70F5F1F4FCF01B80120E030E098
:103A20000E941C38C8010E9459020FB6F894FEBECD
:103A30000FBEEDBECF91DF911F910F91FF90EF90E0
:103A400008952F923F924F925F926F927F928F9242
:103A50009F92AF92BF92CF92DF92EF92FF920F931D
:103A60001F93DF93CF93CDB7DEB7A0970FB6F8942F
:103A7000DEBF0FBECDBF8E010F5F1F4FC80166EFC7
:103A800073E00E94413AC8010E94F01C2091930209
:103A900030919402442737FD4095542F0E94E73C13
:103AA0006D8F7E8F8F8F98A3C8010E94573A8E0129
:103AB000085F1F4FC8016DEF73E00E94413AC801D3
:103AC0000E94F01C2091930230919402442737FD0C
:103AD0004095542F0E94E73C1B012C01C8010E9415
:103AE000573A8E01015F1F4FC80164E074E00E94E5
:103AF000413AC8010E94C317AA2797FDA095BA2F83
:103B00002091930230919402442737FD4095542F21
:103B1000BC01CD010E94E73C3B014C015B01C801A7
:103B20000E94573A8E010A5E1F4FC8016BE074E095
:103B30000E94413AC8010E94C3177C01C8010E943B
:103B4000573A6091AA027091AB028091AC029091B9
:103B5000AD02A3010E94B404AC01C7016FEF70E095
:103B60000E94E7047C01CC24B7FCC094DC2CC60185
:103B7000B5010E94673B2DEC3CEC4CE85FE30E94F2
:103B80001B3C0E94343B5B016C016D8D7E8D8F8DE3
:103B900098A1A201910185010E941D100E94CE08EA
:103BA000A0960FB6F894DEBF0FBECDBFCF91DF91C8
:103BB0001F910F91FF90EF90DF90CF90BF90AF904B
:103BC0009F908F907F906F905F904F903F902F903D
:103BD00008952F923F924F925F926F927F928F92B1
:103BE0009F92AF92BF92CF92DF92EF92FF920F938C
:103BF0001F93DF93CF93CDB7DEB7A6970FB6F89498
:103C0000DEBF0FBECDBF8E010F5F1F4FC80166EF35
:103C100073E00E94413AC8010E94F01C2091930277
:103C200030919402442737FD4095542F0E94E73C81
:103C30006BA37CA38DA39EA3C8010E94573A8E015B
:103C4000085F1F4FC8016DEF73E00E94413AC80141
:103C50000E94F01C2091930230919402442737FD7A
:103C60004095542F0E94E73C1B012C01C8010E9483
:103C7000573A8E01015F1F4FC80164E074E00E9453
:103C8000413AC8010E94C317AA2797FDA095BA2FF1
:103C90002091930230919402442737FD4095542F90
:103CA000BC01CD010E94E73C6B017C017AA369A3B2
:103CB000C8010E94573A8E010A5E1F4FC8016BE08F
:103CC00074E00E94413AC8010E94C31798A38F8FE5
:103CD000C8010E94573AC60162E070E00E94123D9E
:103CE0004B01CB01880F991F69A07AA0681A790A45
:103CF0008091A8029091A9020197C1F484E493E015
:103D00000E94F2237B018C0188E893E00E94F22359
:103D10005B016C016BA17CA18DA19EA1A20191010F
:103D20000E9465048093AF021092B0022091AF020E
:103D30003091B00222303105F9F49401442737FD67
:103D40004095542FEBA0FCA00DA11EA1E21AF30A8E
:103D5000040B150BC301AA2797FDA095BA2FE80EF7
:103D6000F91E0A1F1B1F6BA07CA08DA09EA0620ED7
:103D7000731E841E951E3DC023303105C9F4940185
:103D8000442737FD4095542F62015101A21AB30A0E
:103D9000C40AD50AC301AA2797FDA095BA2FA80E79
:103DA000B91ECA1EDB1E220E331E441E551E32C013
:103DB000C401AA2797FDA095BA2FA301662757FD36
:103DC0006095762F24303105B9F4EBA0FCA00DA14D
:103DD0001EA1E80EF91E0A1F1B1FE41AF50A060BA6
:103DE000170B6BA07CA08DA09EA0681A790A8A0A86
:103DF0009B0A6201510114C05C016D01A20CB31C4D
:103E0000C41CD51CA41AB50AC60AD70A281A390A2E
:103E10004A0A5B0AEBA0FCA00DA11EA137014801D4
:103E20006091AA027091AB028091AC029091AD02B8
:103E300049A15AA10E94B404AC018F8D98A16FEFE3
:103E400070E00E94E7049E8F8D8FC801B701A60124
:103E500095010E94800C8D8D9E8D02974CF089A15A
:103E60009AA1BC014D8D5E8D2091AF020E94FB0C8A
:103E7000C401B301A20191010E94800CA6960FB665
:103E8000F894DEBF0FBECDBFCF91DF911F910F9190
:103E9000FF90EF90DF90CF90BF90AF909F908F906A
:103EA0007F906F905F904F903F902F9008958F92EA
:103EB0009F92AF92BF92CF92DF92EF92FF920F93B9
:103EC0001F93DF93CF93CDB7DEB72E970FB6F8943D
:103ED000DEBF0FBECDBF8E010F5F1F4FC80166EF63
:103EE00073E00E94413AC8010E94F01C20919302A5
:103EF00030919402442737FD4095542F0E94E73CAF
:103F00004B015C01C8010E94573A8E01085F1F4FA8
:103F1000C8016DEF73E00E94413AC8010E94F01C95
:103F20002091930230919402442737FD4095542FFD
:103F30000E94E73C6B017C01C8010E94573A84E46F
:103F400093E0B501A4010E94F82388E893E0B7014B
:103F5000A6010E94F8230E940B110E94730A2E965C
:103F60000FB6F894DEBF0FBECDBFCF91DF911F918A
:103F70000F91FF90EF90DF90CF90BF90AF909F9008
:103F80008F900895CF93DF93EC016AE474E00E9470
:103F9000D738882319F00E94C316BDC0CE016EE940
:103FA00074E00E94D738882319F00E94B319B3C077
:103FB000CE0161E574E00E94D738882319F00E9491
:103FC0003717A9C0CE016FEC74E00E94D738882360
:103FD00019F00E94EA1A9FC0CE0166ED74E00E94BB
:103FE000D738882319F00E94911A95C0CE0166E651
:103FF00074E00E94D738882319F00E94E91D8BC015
:10400000CE016DE674E00E94D738882319F00E9433
:10401000211D81C0CE0164E774E00E94D738882357
:1040200019F00E94B51C77C0CE016BE774E00E94C6
:10403000D738882319F00E94571F6DC0CE0169E858
:1040400074E00E94D738882319F00E94F41763C0E7
:10405000CE0160E974E00E94D738882319F00E94ED
:10406000061959C0CE0167E974E00E94D738882349
:1040700019F00E945C194FC0CE0165EA74E00E94FD
:10408000D738882319F00E94481C45C0CE016CEA3D
:1040900074E00E94D738882319F00E941A153BC09B
:1040A000CE0161EC74E00E94D738882319F00E9499
:1040B000801731C0CE0168EC74E00E94D7388823A5
:1040C00019F00E94181C27C0CE016DED74E00E940B
:1040D000D738882319F00E94E81B1DC0CE0164EE7A
:1040E00074E00E94D738882319F00E94431B13C044
:1040F000CE0163EB74E00E94D738882319F00E9448
:10410000961509C0CE016AEB74E00E94D738882367
:1041100019F00E945F1581E0DF91CF910895CF9350
:10412000DF93EC010E94C21F882329F4CE010E9474
:1041300078160E94FA08DF91CF9108956F927F92CE
:104140008F929F92AF92BF92CF92DF92EF92FF92A7
:104150000F931F93DF93CF93CDB7DEB727970FB69B
:10416000F894DEBF0FBECDBF4C01FC0164807580AA
:10417000AA24BB2400E010E0EE24FF246E01089482
:10418000C11CD11C3DC0C401B7010E9489378C32CB
:10419000A1F5C601B401A50197010E94D7390230EB
:1041A0001105B9F0033011053CF40115110559F062
:1041B00001301105C9F40AC00330110569F004305B
:1041C000110591F40CC08FEE93E00BC086EF93E0E5
:1041D00008C08DEF93E005C084E094E002C08BE05E
:1041E00094E0B6010E942A3A57010894A11CB11C20
:1041F0000F5F1F4FC6010E94573A0894E11CF11C43
:10420000E614F7040CF4BFCF10931B0300931A03BA
:1042100027960FB6F894DEBF0FBECDBFCF91DF91CA
:104220001F910F91FF90EF90DF90CF90BF90AF90D4
:104230009F908F907F906F9008953F924F925F92E2
:104240006F927F928F929F92AF92BF92CF92DF92A6
:10425000EF92FF920F931F93DF93CF93CDB7DEB70B
:10426000C655D0400FB6F894DEBF0FBECDBF782E36
:10427000692EAA24BB2484E2882E912C8C0E9D1ECC
:1042800019C087EA95E00E941733182F61E070E0AB
:1042900080E090E00E94A430F401EA0DFB1D108341
:1042A0001A3029F487EA95E00E9440330AC0089446
:1042B000A11CB11C87EA95E00E94E6321816190687
:1042C00004F304E2402E512C4C0E5D1EA40CB51CD0
:1042D000F5011082872D962DB2010E94A4398E011E
:1042E0000F5F1F4FC80168E772E00E94A439872D55
:1042F000962DB8010E940E385C01C8010E94573A01
:10430000FFEFAF16FFEFBF0609F46BC03324339401
:104310003092F80218E0E12EF12CEC0EFD1EA50102
:104320004F5F5F4FC701672D762D0E941E3A8E01A9
:10433000015F1F4FC801B7010E94413AC8010E94A6
:10434000F01C6B017C01C8010E94573A8E010A5E85
:104350001F4FC801672D762D40E050E095010E9467
:10436000D739872D962DB8010E942A3AC8010E949C
:10437000573A8E01035E1F4FC801672D762D0E94AC
:10438000413AC8010E948A084B015C01C8010E94A1
:10439000573A8C149D04AE04BF0419F430922B03D9
:1043A0001BC087EA95E064EA72E00E941F3487EA46
:1043B00095E0B2010E94A63687EA95E06DE872E0CA
:1043C0000E941F3487EA95E0B501A4012AE030E09D
:1043D0000E94633510922B03CE0108960E94573A33
:1043E00004C01092F80210922B03872D962DCA5A02
:1043F000DF4F0FB6F894DEBF0FBECDBFCF91DF9178
:104400001F910F91FF90EF90DF90CF90BF90AF90F2
:104410009F908F907F906F905F904F903F90089506
:10442000AF92BF92CF92DF92EF92FF920F931F93C2
:10443000DF93CF93CDB7DEB727970FB6F894DEBFE3
:104440000FBECDBFB82EA92E0E9470306B010B2D70
:104450001A2DC80165E071E00E94A4397E0108941C
:10446000E11CF11C29C00E9470306C197D0920915B
:10447000A2023091A302261737072CF40E94FA08F3
:104480000E9470306B01C7010E941D21C801B70155
:104490000E942A3AC7010E94573A8091F802882365
:1044A00059F080912B03882339F40E94F308C80146
:1044B00065E071E00E94BE39F80184819581892B05
:1044C00091F20E9470300E94703060931C037093D0
:1044D0001D0380931E0390931F036093200370932A
:1044E000210380932203909323038B2D9A2D2796EB
:1044F0000FB6F894DEBF0FBECDBFCF91DF911F91F5
:104500000F91FF90EF90DF90CF90BF90AF90089504
:10451000EF92FF920F931F93DF93CF93CDB7DEB748
:1045200027970FB6F894DEBF0FBECDBF7C0163E4C2
:1045300074E00E944938882371F08E010F5F1F4F8D
:10454000C801B7010E94413AC8010E949E20C801DB
:104550000E94573A81E027960FB6F894DEBF0FBE4F
:10456000CDBFCF91DF911F910F91FF90EF900895F4
:10457000CF92DF92FF920F931F93DF93CF93CDB72C
:10458000DEB72E970FB6F894DEBF0FBECDBF6C011D
:104590008E010F5F1F4FC801B6010E94413AC8014A
:1045A0000E948822F82EC8010E94573AFF20C1F0CD
:1045B0008E01085F1F4FC80164E273E00E94413A18
:1045C000C8010E948F20C8010E94573AC60165E0C9
:1045D00071E00E94BE3910922B030E94FA0811C0AC
:1045E00087EA95E063E872E00E941F3487EA95E06D
:1045F000B6010E94B93687EA95E065E772E00E944D
:10460000623410921B0310921A032E960FB6F89480
:10461000DEBF0FBECDBFCF91DF911F910F91FF90F5
:10462000DF90CF900895EF92FF920F931F93DF9347
:10463000CF93CDB7DEB727970FB6F894DEBF0FBE86
:10464000CDBF8E010F5F1F4FC8010E94102294E260
:10465000E92E93E0F92EC701B8010E942A3AC80159
:104660000E94573AC7010E94B82227960FB6F894C5
:10467000DEBF0FBECDBFCF91DF911F910F91FF9095
:10468000EF900895AF92BF92CF92DF92EF92FF9298
:104690000F931F9307EA15E0C80140E051EE60E078
:1046A00070E00E945F32C8016BEA72E00E941F3422
:1046B000C8010E9442340E94EF130E949E1034E40D
:1046C000A32E33E0B32E4091950250919602609153
:1046D000970270919802C5010E94FF2540919902AE
:1046E00050919A0260919B0270919C02C5010E94B8
:1046F000E32828E8C22E23E0D22E40919502509163
:1047000096026091970270919802C6010E94FF255F
:104710004091990250919A0260919B0270919C0283
:10472000C6010E94E32860919E0270919F02882733
:1047300077FD8095982F0E94673B20918F023091E2
:10474000900240919102509192020E94CC3A7B01DA
:104750008C0160918D0270918E02882777FD809583
:10476000982F0E94673B9B01AC01C801B7010E94D2
:104770001B3C0E94343B7B018C01C501B801A701A1
:104780000E94F823C601B801A7010E94F82385E31F
:1047900094E062E174E00E942A3A0E94FA080E94C2
:1047A0005C1964EF71E080E090E00E94A4300E9408
:1047B000CE081F910F91FF90EF90DF90CF90BF90A8
:1047C000AF900895FC0127853089418952898385FE
:1047D0009485A585B685281B390B4A0B5B0BB9015F
:1047E000CA010895FC0163857485858596850895C1
:1047F000FC0143875487658776874787508B618B99
:10480000728B13AA14AA15AA16AA13A214A215A28F
:1048100016A208956F927F928F929F92AF92BF924D
:10482000CF92DF92EF92FF920F931F93CF93DF937C
:10483000EC01AF84B888C988DA888B859C85AD8502
:10484000BE85A81AB90ACA0ADB0A2B893C894D8998
:104850005E89CA01B9010E941B3C7B018C012B8D32
:104860003C8D4D8D5E8DCA01B9010E94643A9B0159
:10487000AC01C801B7010E94CC3A0E94343B9B01B5
:10488000AC01A114B104C104D104B9F462307105C2
:10489000810591050CF085C01BA21CA21DA21EA2C1
:1048A00080E090E0A0E0B0E08B8B9C8BAD8BBE8B6A
:1048B0001BAA1CAA1DAA1EAA0BC1EBA8FCA80DA925
:1048C0001EA91A141B041C041D0444F51E141F0405
:1048D0001006110674F46A157B058C059D05B4F568
:1048E000CD5BDF4F8881C354D040882309F059C085
:1048F0002DC0E114F1040105110509F452C06A1537
:104900007B058C059D050CF04CC0CD5BDF4F88818D
:10491000C354D040813009F044C038C01E141F0475
:1049200010061106DCF488279927DC018A199B09F7
:10493000AC09BD09281739074A075B073CF4CD5B72
:10494000DF4F8881C354D040813059F5882799279B
:10495000DC01821B930BA40BB50B1FC0E114F10407
:1049600001051105F1F088279927DC018A199B09B7
:10497000AC09BD09281739074A075B0794F4CD5BDA
:10498000DF4F8881C354D040882359F48827992762
:10499000DC018E199F09A00BB10B8BAB9CABADABAF
:1049A000BEAB6BA87CA88DA89EA86114710481047D
:1049B0009104A9F48FA998ADA9ADBAAD8BAF9CAF06
:1049C000ADAFBEAFFE01ED5BFF4F10821A141B04AA
:1049D0001C041D040CF049C081E0808346C0ABACD0
:1049E000BCACCDACDEACC601B50120E030E040E0AF
:1049F00050EC0E941B3C7B018C01C401B3010E945E
:104A0000673B20E030E040E850E40E941B3C20E09F
:104A100030E040E85FE30E94643A9B01AC01C801CA
:104A2000B7010E94CC3A9B01AC01C601B5010E94BE
:104A3000643A7B018C016BAF7CAF8DAF9EAFEF967C
:104A4000A880B980CA80DB80EF979501A6010E94FB
:104A5000173C181624F4D801C70157016D01C50190
:104A6000D6018BAF9CAFADAFBEAF8BA99CA9ADA952
:104A7000BEA90196A11DB11D8BAB9CABADABBEAB6E
:104A80006BAD7CAD8DAD9EAD0E94393B6BA37CA31D
:104A90008DA39EA360E074E284E799E42BAD3CAD66
:104AA0004DAD5EAD0E94CC3A9B01AC016B8B7C8B13
:104AB0008D8B9E8BCD5BDF4F8881C354D040882384
:104AC00039F4DA01C901B0588B8B9C8BAD8BBE8B4E
:104AD000DF91CF911F910F91FF90EF90DF90CF90DA
:104AE000BF90AF909F908F907F906F900895FC0142
:104AF00087859089A189B28984179507A607B7078A
:104B000039F04787508B618B728BCF010E940A244A
:104B10000895FC01DB01CA014385548565857685CE
:104B2000480F591F6A1F7B1FCF010E9477250895E8
:104B3000CF92DF92EF92FF920F931F93FC0186EDCD
:104B400092E09183808312821386148615861686DE
:104B50001786108A118A128A0F2EF0E0CF2EF0E00D
:104B6000DF2EF0E0EF2EF0E0FF2EF02DC38AD48A86
:104B7000E58AF68A00E010E020E83FE3078B108F1B
:104B8000218F328F038F148F258F368F078F10A3BD
:104B900021A332A313A214A215A216A281E090E0D1
:104BA00094A783A78FEF86A717A210A611A612A617
:104BB000138214821582168270AB67A752AB41AB89
:104BC00013AA14AA15AA16AAC7AAD0AEE1AEF2AECD
:104BD000C3AED4AEE5AEF6AEFF960193119321932A
:104BE00031931082E354F0401782108611861286AA
:104BF0001F910F91FF90EF90DF90CF900895EF926B
:104C0000FF920F931F93CF93DF93EC017A018B01F7
:104C10006F89788D898D9A8DA80197010E94C83A75
:104C20008823E1F1EF8AF88E098F1A8FEF9660E002
:104C300074E284E799E4A80197010E94CC3A688362
:104C400079838A839B83EF978BA99CA9ADA9BEA981
:104C5000181619061A061B060CF52B893C894D8976
:104C60005E89CA01B9010E941B3C7B018C012B8D1E
:104C70003C8D4D8D5E8DCA01B9010E94643A9B0145
:104C8000AC01C801B7010E94CC3A0E94343B6BAB27
:104C90007CAB8DAB9EABCE010E940A24DF91CF91FD
:104CA0001F910F91FF90EF9008954F925F926F9236
:104CB0007F928F929F92AF92BF92CF92DF92EF92AC
:104CC000FF920F931F93CF93DF932C017A018B01F7
:104CD000CB01BA01F20123893489458956890E94A2
:104CE000C83A882309F455C0F201A788B08CC18C5A
:104CF000D28C3501460197FA909497F89094C801A8
:104D0000B701A40193010E94C83A88231CF48401CE
:104D100073010AC0C801B701A60195010E94173CA2
:104D2000181614F486017501C801B70120E030E0BF
:104D300040E050E00E94C83A882331F4F20113A207
:104D400014A215A216A220C060E074E284E799E4E0
:104D5000A80197010E94CC3A9F770E94393BF2014B
:104D600063A374A385A396A3E201CD5BDF4F1882F2
:104D7000C801B70120E030E040E050E00E94173C5D
:104D8000181614F481E08883F201E38AF48A058B13
:104D9000168BDF91CF911F910F91FF90EF90DF90D5
:104DA000CF90BF90AF909F908F907F906F905F90CB
:104DB0004F900895FC012389348945895689B901AA
:104DC000CA010895DC0112968C911297833001F18B
:104DD000843040F4813089F0ED91FC91119782305C
:104DE00098F407C0863011F1883049F1843079F5A4
:104DF00016C00480F581E02D1FC0ED91FC91119744
:104E00000680F781E02D18C00084F185E02D14C0E4
:104E1000ED91FC9111970284F385E02D0DC0ED9189
:104E2000FC9111970484F585E02D06C0ED91FC916D
:104E300011970684F785E02DCD0109950895ED9130
:104E4000FC9111970088F189E02DCD010995089515
:104E5000CF93DF93EC016B897C898D899E8920E05B
:104E600030E040E050E00E94173C18161CF4EFA51B
:104E7000F8A902C0E9A9FAA90995DF91CF9108958F
:104E8000DC0170E06370707061307105A9F0623010
:104E900071051CF4672B41F0089562307105A1F093
:104EA0006330710501F518C0ED91FC9111970190E7
:104EB000F081E02D62E00EC0ED91FC911197019020
:104EC000F081E02D63E006C0ED91FC910190F0814E
:104ED000E02D61E009950895ED91FC910190F0813C
:104EE000E02D60E009950895DC01862F63E00E94C3
:104EF000063D913071F0913018F09230E9F413C012
:104F0000ED91FC9111970190F081E02DCD0164E0CD
:104F100008C0ED91FC9111970190F081E02DCD0139
:104F200061E009950895ED91FC9111970190F08150
:104F3000E02DCD0162E009950895DC0170E0637019
:104F4000707061307105A9F0623071051CF4672B37
:104F500041F0089562307105A1F06330710501F5EB
:104F600018C0ED91FC9111970190F081E02D65E062
:104F70000EC0ED91FC9111970190F081E02D66E05B
:104F800006C0ED91FC910190F081E02D6AE0099559
:104F90000895ED91FC910190F081E02D69E0099573
:104FA0000895DC01862F66E00E94063D923009F1EB
:104FB000933030F4992359F0913009F03FC010C07C
:104FC000943049F19430F0F09530C1F52EC0ED9158
:104FD000FC9111970190F081E02DCD0164E023C098
:104FE000ED91FC9111970190F081E02DCD0165E0EC
:104FF0001AC0ED91FC9111970190F081E02DCD0147
:1050000061E011C0ED91FC9111970190F081E02DCC
:10501000CD0163E008C0ED91FC9111970190F08102
:10502000E02DCD0162E009950895ED91FC91119775
:105030000190F081E02DCD0166E009950895DC0135
:1050400070E0677070706330710591F164307105C4
:105050004CF461307105E1F0623071050CF5672B9D
:1050600079F008956530710599F16530710544F165
:1050700066307105A9F16730710509F040C038C08C
:10508000ED91FC9111970190F081E02D61E02EC02F
:10509000ED91FC9111970190F081E02D65E026C023
:1050A000ED91FC9111970190F081E02D64E01EC01C
:1050B000ED91FC9111970190F081E02D66E016C012
:1050C000ED91FC9111970190F081E02D62E00EC00E
:1050D000ED91FC9111970190F081E02D6AE006C0FE
:1050E000ED91FC910190F081E02D68E00995089523
:1050F000ED91FC910190F081E02D69E00995089512
:10510000CF92DF92EF92FF920F931F93CF93DF9393
:10511000FC012281243029F0283019F092E0D92EA8
:1051200002C084E0D82E8F01C0E0D0E0E62EFF243C
:10513000CC24C394F8012381C7010C2E02C095959D
:1051400087950A94E2F7678180FD6C25822F0E9483
:10515000813121960F5F1F4FCD1560F3DF91CF9105
:105160001F910F91FF90EF90DF90CF900895CF9314
:10517000DF93EC01E881F9810190F081E02DCD5BB6
:10518000DF4F8881C354D040882311F461E001C00F
:1051900063E0CE0109958BA59CA50E94FD30E881B6
:1051A000F9810190F081E02DCD5BDF4F8881C35400
:1051B000D040882311F460E001C062E0CE0109957F
:1051C000DF91CF9108956F927F928F929F92AF92CD
:1051D000BF92CF92DF92EF92FF920F931F93CF93E4
:1051E000DF93EC013A014B01CB01BA0120E030E042
:1051F00040E050E00E94C83A882309F441C0AB8CDB
:10520000BC8CCD8CDE8CC601B501A40193010E943B
:10521000C83A8823A9F16BA97CA98DA99EA90E94EF
:10522000673B7B018C01C601B501A40193010E947B
:10523000CC3A9B01AC01C801B7010E941B3C0E9403
:10524000343B6BAB7CAB8DAB9EAB60E070E080E041
:1052500090E4A40193010E94CC3A0E94823C20E099
:1052600034E244E759E40E941B3C6FAB78AF89AF4E
:105270009AAF6B8E7C8E8D8E9E8ECE010E940A24FC
:10528000DF91CF911F910F91FF90EF90DF90CF9022
:10529000BF90AF909F908F907F906F900895EF9206
:1052A000FF920F931F93CF93DF93EC018BA19CA1EF
:1052B000ADA1BEA10097A105B10509F44CC00E94A3
:1052C0007E307B018C012FA138A549A55AA58BA161
:1052D0009CA1ADA1BEA1820F931FA41FB51F821771
:1052E0009307A407B50730F0E816F9060A071B076D
:1052F00058F405C0E816F9060A071B0760F1E21624
:10530000F3060407150738F5CD5BDF4F8881C354DA
:10531000D0402B853C854D855E85813029F42F5FFB
:105320003F4F4F4F5F4F04C02150304040405040EE
:105330002B873C874D875E87E881F9816B85677095
:105340000280F381E02DCE010995EFA2F8A609A70E
:105350001AA781E001C080E0DF91CF911F910F91EA
:10536000FF90EF900895CF93DF93FC01278530895C
:105370004189528983859485A585B6852817390783
:105380004A075B0711F480E00FC0EF01CD5BDF4FF0
:1053900082179307A407B5071CF481E0888301C036
:1053A0001882CF010E944F29DF91CF910895CF93AA
:1053B000DF93EC010E944F29882319F0CE010E944F
:1053C0000A2481E0DF91CF910895CF93DF93EC0120
:1053D0006B897C898D899E8920E030E040E050E037
:1053E0000E94C83A882369F42F85388949895A89E7
:1053F0008B859C85AD85BE85281739074A075B07D5
:1054000021F0CE010E94D729E3CFDF91CF910895FB
:105410000F931F938C010E947725C8010E94E529F4
:105420001F910F910895FC018091ED048C3090F450
:1054300080838F5F8093ED04815090E0FC01EE0F3C
:10544000FF1FE80FF91FE251FB4F88EB9BE09283AF
:10545000818308958FEF80830895DC018C9190E023
:10546000FC01EE0FFF1FE80FF91FE251FB4F808197
:105470008F7B80838C916CE00E94063D90E0AC01B4
:10548000440F551F480F591F440F551F440F551FF8
:1054900020E030E0C901840F951FFC01EE0FFF1FD3
:1054A000E80FF91FE251FB4F808186FD05C02F5F99
:1054B0003F4F2C30310571F70895FC0120812C30CD
:1054C000B8F58181992787FD909548E850E0481B01
:1054D000590B440F551F440F551F6417750784F06F
:1054E0008281992787FD909548E552E0481B590B2A
:1054F000440F551F440F551F641775070CF4AB017B
:1055000042505040CA01AA2797FDA095BA2F880F94
:10551000991FAA1FBB1F4FB7F89430E0F901EE0F97
:10552000FF1FE20FF31FE251FB4F928381834FBFB6
:105530000895AF92BF92CF92DF92EF92FF920F93B6
:105540001F93CF93DF93EC019B0182E060327807D9
:105550000CF048C077FF03C020E030E005C0653B99
:10556000710514F024EB30E000D000D0B901882799
:1055700077FD8095982F2981332727FD3095E8E81E
:10558000AE2EB12CA21AB30AAA0CBB1CAA0CBB1CCF
:10559000CC24B7FCC094DC2CEA81FF27E7FDF09512
:1055A00028E532E02E1B3F0B220F331F220F331F43
:1055B000442737FD4095542FEDB7FEB72183328342
:1055C0004383548320E030E040E050E004EBE02EE1
:1055D000F12C012D112D0E9400379B010F900F908F
:1055E0000F900F90CE01B9010E945D2ADF91CF91FB
:1055F0001F910F91FF90EF90DF90CF90BF90AF90F1
:105600000895CF92DF92EF92FF921F93CF93DF9393
:10561000EC01162F7A01690188818C3008F064C092
:10562000862F61E00E944231888190E0FC01EE0FFC
:10563000FF1FE80FF91FE251FB4F1F738081807C31
:10564000812B808380E292E08E199F0964E070E0F4
:105650000E94123D698380E699E08C199D0964E0FF
:1056600070E00E94123D6A83A8818A2F6CE00E943C
:10567000063D682F70E0AB01440F551F460F571FC2
:10568000440F551F440F551F20E030E0C901840F1F
:10569000951FFC01EE0FFF1FE80FF91FE251FB4FB2
:1056A000808186FD15C02F5F3F4F2C30310571F78B
:1056B00024C01092800082E08093810010928500C7
:1056C00010928400B19A80916F00826080936F0085
:1056D0008A2F90E0FC01EE0FFF1FE80FF91FE25147
:1056E000FB4F8081806480838881DF91CF911F91FF
:1056F000FF90EF90DF90CF900895672BD1F2E8CF25
:1057000040E252E020E639E00E94012B08951F920A
:105710000F920FB60F9211242F933F934F935F93E5
:105720006F937F938F939F93AF93BF93EF93FF9369
:105730008091120587FF05C01092850010928400A9
:105740002BC020911205332727FD30958091ED0461
:1057500090E02817390704F580911205992787FDF5
:105760009095FC01EE0FFF1FE80FF91FE251FB4F70
:10577000808186FF11C080911205992787FD909541
:10578000FC01EE0FFF1FE80FF91FE251FB4F808174
:105790008F7360E00E948131809112058F5F80934A
:1057A000120520911205332727FD30958091ED04D5
:1057B00090E0281739070CF04EC0809112058C300C
:1057C0000CF049C020918400309185008091120531
:1057D000992787FD9095FC01EE0FFF1FE80FF91F39
:1057E000E251FB4F81819281280F391F309389004C
:1057F0002093880080911205992787FD9095FC01E0
:10580000EE0FFF1FE80FF91FE251FB4F808186FF6B
:105810002BC080911205992787FD9095FC01EE0F12
:10582000FF1FE80FF91FE251FB4F80818F7361E08A
:105830000E94813119C080E49CE905C080918400F8
:1058400090918500049690938900809388008FEF53
:105850008093120509C08091840090918500049680
:1058600080549C4940F3EACFFF91EF91BF91AF91F3
:105870009F918F917F916F915F914F913F912F9168
:105880000F900FBE0F901F901895F999FECF72BD23
:1058900061BDF89A80B50895F999FECF1FBA72BD1F
:1058A00061BD40BD0FB6F894FA9AF99A0FBE0895FB
:1058B000109214050895E0EBF0E0908193689083D6
:1058C00087708093B1001092B3008BE061E00E947A
:1058D00042310895E0EBF0E090819362908387700D
:1058E0008093B1001092B40083E061E00E944231E5
:1058F0000895CF93DF938CE060E00E94813188E0CF
:1059000060E00E948131C7E0D0E084E060E00E9466
:1059100081318091150590E00C2E02C095958795F8
:105920000A94E2F780FF03C088E061E002C088E0EB
:1059300060E00E94813184E061E00E948131219722
:105940008FEFCF3FD80709F78CE061E00E948131EB
:10595000DF91CF9108950F931F93CF93DF93EC01C5
:10596000142F8A81813029F404E042E058E070E18C
:1059700008C0823011F080E0E0C000E241E050E871
:1059800070E4113041F49B85892F86958695869524
:1059900080FF10C009C01230A1F49B85892F869525
:1059A0008695869580FD06C0613011F4985F05C02C
:1059B000985003C0613019F4905F9B8752C090519A
:1059C000FCCF133041F48B85613011F4885F01C046
:1059D00088508B8746C0143009F043C08B856130F6
:1059E00011F48F5F01C081508B87AB85AF73AB879C
:1059F000A03148F4B0E0EDECF2E0EA1BFB0B2081B3
:105A0000A354BD4F19C08A2F8051803148F48A2F8A
:105A100090E0FC01E355FD4F2081EDEDF2E01DC06B
:105A20008A2F8052803150F4B0E0EDEEF2E0EA1BB4
:105A3000FB0B2081A356BD4F8C9115C08A2F80533C
:105A4000803118F080E020E00EC08A2F90E0FC0149
:105A5000E357FD4F2081EDEFF2E0E81BF90B808169
:105A600002C08FEF2FEF3B853F733B879A819130C8
:105A700029F42093B3008093B40004C0923011F451
:105A800027BD88BD242F202B672F652B962F922BA7
:105A9000909580911505982390931505143019F56C
:105AA000303118F4922B90931505832F805180315B
:105AB00030F4452B80911505842B80931505832F99
:105AC0008052803130F4572B80911505852B8093BF
:105AD00015053053303160F5702B80911505872BFB
