:100000005DC2000088C2000086C2000084C20000F9
:1000100082C2000080C200007EC200007CC20000DC
:100020007AC2000078C2000076C200000C948329D6
:1000300072C2000070C200006EC200006CC20000FC
:100040006AC2000068C2000066C2000064C200000C
:1000500062C2000060C200005EC200000C94092C65
:100060005AC200000C94302E0C94742F54C200001D
:1000700052C2000050C200004EC200004CC200003C
:100080004AC2000048C2000046C2000044C200004C
:100090000C94702E0C94B32F3EC200003CC20000A2
:1000A0003AC2000038C2000036C2000034C200006C
:1000B00032C2000030C200002EC200002CC200007C
:1000C0002AC2000028C2000026C200000C94B02EF4
:1000D0000C94F22F20C200000C94F02E0C943130BE
:1000E0001AC20000000000006410B71DC8206E3B5B
:1000F000AC30D9269041DC76F4516B6B5861B24D2F
:100100003C7105502083B8ED44930FF0E8A3D6D698
:100110008CB361CBB0C2649BD4D2D38678E20AA000
:100120001CF2BDBD43616C63756C61746564206DC8
:1001300061784C656E6774683A2000466972737422
:1001400020776176652068616C6600546869732069
:10015000706F696E742066616C6C73206F75747358
:10016000696465207468652061726561206F66202E
:1001700074686973206D616368696E652E20536BC6
:10018000697070696E672069742E006D6D00436838
:10019000616E6765642050656E20776964746820BD
:1001A000746F20004E657720616363656C657261D2
:1001B00074696F6E3A20004E6577206D6178207308
:1001C000706565643A200055703A2000446F776E80
:1001D0003A2000504753504545442C0050474C4965
:1001E00046542C005047535445504D554C5449509B
:1001F0004C4945522C00504753544550535045529A
:100200005245562C0050474D4D5045525245562CA4
:1002100000504753495A452C002900526563616CD0
:1002200063207061676548656967687420696E203E
:1002300073746570732028002900526563616C63D4
:100240002070616765576964746820696E207374F3
:100250006570732028002900292C20737465707341
:100260005065724D4D202800526563616C63206DAE
:100270006D506572537465702028004C6F61646521
:1002800064206D6F746F722073746570206D756C6F
:100290007469706C6965723A004C6F6164656420C2
:1002A000757020706F733A004C6F616465642064F0
:1002B0006F776E20706F733A004C6F6164656420D5
:1002C0006D6F746F72207374657073207065722027
:1002D0007265763A004C6F61646564206D6D2070C4
:1002E0006572207265763A004C6F61646564206DBA
:1002F000616368696E65206865696768743A004C77
:100300006F61646564206D616368696E65207769FB
:100310006474683A00206E6F74207265636F676E54
:10032000697365642E0029206E6F7420706172738A
:1003300065642E00436F6D6D202800426164205378
:10034000756D3A005263643A2000504F4C41524759
:1003500052415048204F4E21000000210024002728
:10036000002A002D003000330001010000040107C5
:10037000010A0100002200250028002B002E003178
:1003800000340002010000050108010B01000020FB
:10039000002300260029002C002F0032000001005D
:1003A0000003010601090105050505070508080800
:1003B00008020202020A0A080804040404010101F6
:1003C00001010101010303030303030303040707FE
:1003D000070C0C0C0C0C0C0C0C020202020606069C
:1003E00006060606060B0B0B0B0B0B0B0B01021084
:1003F000202008081020401020408002010201083F
:1004000004020101020408102040808040201008EE
:100410000402018004020180402010080402010847
:1004200004020101020408102040800102040810A7
:100430002040800000090A02080B0C0D0706030487
:1004400001000000000000000000000000000000AB
:10045000000000000000000000000000000000118B
:10046000100F00000000000000000000000000006D
:10047000000000000000000000494E46494E49546B
:10048000594E414ECDCCCC3D0AD7233C17B7D1387D
:1004900077CC2B329595E6241FB14F0A00002041FE
:1004A0000000C84200401C4620BCBE4CCA1B0E5A6D
:1004B000AEC59D74CB08522AA131C60811241FBEB7
:1004C000CFEFD1E2DEBFCDBF00E00CBF13E0A0E074
:1004D000B2E0E6EBFBE700E00BBF02C007900D9235
:1004E000AC37B107D9F71BBE18E0ACE7B3E001C0E9
:1004F0001D92A932B107E1F714E0CAEBD4E004C0C1
:100500002297FE010E94893DC43BD107C9F70E9492
:10051000D7320C94CF3D74CDA0E0B0E0E2E9F2E038
:100520000C94A03DEC01A880B980CA80DB80A114A6
:10053000B104C104D10441F484E2A82E89EDB82E9F
:100540008BE5C82E87E0D82EC601B5012DE133EF2B
:1005500041E050E00E94583D27EA31E440E050E09D
:100560000E94F83C7B018C01C601B5012DE133EFFF
:1005700041E050E00E94583DCA01B9012CEE34EF31
:100580004FEF5FEF0E94F83C6E0D7F1D801F911FA3
:1005900097FF04C061507040804090486883798321
:1005A0008A839B839B01AC015F77B901CA01CDB7F8
:1005B000DEB7EAE00C94BC3DAFCF8AE093E0ACCF6D
:1005C00060930A0370930B0380930C0390930D03C5
:1005D000089566277727B0C0FC0188279927E894FB
:1005E00021912032E9F3293010F02E30C8F32B325C
:1005F00039F02D3231F4689403C096D0820F911DEA
:10060000219120532A30C8F31EF4909581959F4F75
:1006100008951F93FC0199278827BC01E894119144
:100620001032E9F3193010F01E30C8F31B3249F0D4
:100630001D3241F4689405C062D0610F711D811DA7
:10064000911D119110531A30B8F33EF49095809596
:10065000709561957F4F8F4F9F4F1F910895FB01BC
:10066000DC0102C001900D9241505040D8F708952E
:10067000FB01DC018D91019080190110D9F3990BD8
:100680000895FB01DC0101900D920020E1F708952F
:10069000FB01DC014150504030F08D9101908019F8
:1006A00019F40020B9F7881B990B0895FB01DC01B0
:1006B0004150504048F001900D920020C9F701C010
:1006C0001D9241505040E0F70895FB015191552390
:1006D000A9F0BF01DC014D9145174111E1F759F433
:1006E000CD010190002049F04D9140154111C9F311
:1006F000FB014111EFCF81E090E001970895592F60
:10070000482F372F262F660F771F881F991F660FD8
:10071000771F881F991F620F731F841F951F660F15
:10072000771F881F991F08957AE0979F902D879FC4
:10073000802D910D11240895A0E0B0E0E2EAF3E0ED
:100740000C949E3DEC015B016115710519F0FB01F4
:1007500091838083F9908F2D90E00E948D3D892BAD
:10076000C9F7FDE2FF1621F4F990EE24E39405C0E9
:100770002BE2F21609F4F990EE248E01015010409C
:10078000C80169E774E043E050E033D1892BF9F404
:100790008E010E5F1F4FC8016CE774E045E050E02A
:1007A00028D1892B19F48E01095F1F4FA114B104C0
:1007B00019F0F50111830083E0FC04C070E090E0C3
:1007C00080E813C070E090E080E86FEF07C1C801D7
:1007D00061E874E043E050E00CD1892B69F4A11486
:1007E000B10429F470E090E080EC6FE7F7C0229646
:1007F000F501D183C083F6CF8824992440E050E0EE
:1008000060E070E0EF2DE053EA30A0F5F2E0EF2A6F
:100810008E2D90E09C0128703070E2FE06C0232BE4
:1008200079F50894811C911C2BC0232B19F0089496
:1008300081089108DB01CA0112E0880F991FAA1FE5
:10084000BB1F1A95D1F7480F591F6A1F7B1F440F12
:10085000551F661F771F4E0F511D611D711D4839B1
:1008600029E9520729E9620729E1720748F084E083
:10087000E82A06C0EE3F31F4E3FC39C098E0E92AEB
:10088000F990C0CFE53311F0E53189F529912D328A
:1008900019F4E0E1EE2A05C02B3219F081E090E076
:1008A00003C0299182E090E0E22FE053EA3018F093
:1008B000C81BD90B1CC020E030E0FCE020383F070B
:1008C0005CF4C901880F991F880F991F280F391FE1
:1008D000220F331F2E0F311DE991E053EA3068F3E8
:1008E000E4FE03C0309521953F4F820E931ECE2C1F
:1008F000DD24E1FE07C0A114B10421F02197F50128
:10090000D183C083CB01BA010E94763B7B018C016D
:10091000F3E0CF22DD2423E0C216D10421F417FB3B
:10092000109517F9109557016801C801B70120E02B
:1009300030E040E050E00E94D93A882309F44AC0F0
:1009400097FE0DC028E9E22E24E0F22E90948194C7
:1009500091089394C0E2D0E000E010E012C090EB68
:10096000E92E94E0F92EF6CFF701259135914591C6
:100970005491C601B5010E942C3C5B016C018C1A9C
:100980009D0A8C169D0684F7D595C7950F5F1F4F5E
:100990000630110529F08CEF9FEFE80EF91EF1CF1C
:1009A000C501D6017C018D018C2D880F8D2D881FEE
:1009B0008F3F51F0C601B50120E030E040E050E04B
:1009C0000E94D93A882331F482E290E0909328087B
:1009D000809327087E2D9F2D802F612F272F392F61
:1009E000482F562FB901CA01CDB7DEB7ECE00C9401
:1009F000BA3DFB01DC014150504088F08D918134BB
:100A00001CF08B350CF4805E659161341CF06B3505
:100A10000CF4605E861B611171F3990B0895881BBD
:100A2000FCCFAF92BF92CF92DF92EF92FF920F93E3
:100A30001F936E157F058007910734F42E153F052F
:100A40004007510764F42CC0E616F706080719079B
:100A500094F4A216B306C406D5063CF423C0A2162D
:100A6000B306C406D506BCF41FC02A153B054C05C9
:100A70005D05C4F41BC06E157F058007910791F4D6
:100A80002A153B054C055D058CF0A216B306C4067D
:100A9000D50644F409C02A153B054C055D0511F443
:100AA00084E005C082E003C083E001C081E01F91C3
:100AB0000F91FF90EF90DF90CF90BF90AF9008958F
:100AC000EF92FF920F931F937B018C01662757FDD6
:100AD0006095762FCB01BA010E94783B209180036C
:100AE0003091810340918203509183030E942C3CFA
:100AF000A80197010E94DD3A7B018C0120E030E0E3
:100B000040E050E40E94283C87FF03C061E070E0B1
:100B100004C0C801B7010E94453BCB011F910F9152
:100B2000FF90EF9008956F927F928F929F92AF9275
:100B3000BF92CF92DF92EF92FF920F931F93CF93CA
:100B4000DF937C015B01662757FD6095762FCB0113
:100B5000BA010E94783B3B014C010027F7FC00954D
:100B6000102FC801B7010E94783B7B018C01CC2477
:100B7000B7FCC094DC2CC601B5010E94783B9B01F8
:100B8000AC01C801B7010E94DD3AA40193010E94A3
:100B90002C3C9B01AC01C401B3010E94743A7B015F
:100BA0008C010E94453BEB01BE01882777FD8095B3
:100BB000982F0E94783B9B01AC01C801B7010E94AD
:100BC000743A20E030E040E05FE30E94283C1816D1
:100BD0000CF42196CE01DF91CF911F910F91FF90E0
:100BE000EF90DF90CF90BF90AF909F908F907F90CD
:100BF0006F9008952F923F924F925F926F927F92E3
:100C00008F929F92AF92BF92CF92DF92EF92FF921C
:100C10000F931F931B012C0139014A016091880336
:100C20007091890380918A0390918B030E94783B95
:100C30007B018C01A80197010E942C3C5B016C0197
:100C4000C401B301A40193010E942C3C9B01AC019F
:100C5000C601B5010E94743A5B016C01C201B10189
:100C6000A20191010E942C3C9B01AC01C601B5017F
:100C70000E94753A5B016C01C801B701A801970198
:100C80000E94753A9B01AC01C601B5010E94DD3A94
:100C90001F910F91FF90EF90DF90CF90BF90AF909A
:100CA0009F908F907F906F905F904F903F902F908C
:100CB00008950F931F93CF93DF93242F2627A22FFE
:100CC000B0E0AF70B070AA0FBB1FAA0FBB1FC4EE7D
:100CD000D0E0AC0FBD1FFD01059115912591349118
:100CE000E4E09695879577956795EA95D1F706277D
:100CF00017272827392742954F70402750E04F701B
:100D00005070440F551F440F551F4C0F5D1FFA01C3
:100D100085919591A591B49144E0369527951795C5
:100D200007954A95D1F7082719272A273B27B801A5
:100D3000C901DF91CF911F910F910895EF92FF921A
:100D40000F931F938130910509F07CC16F5F7F4F36
:100D500009F017C285E494E060E072E00E94C037B9
:100D60008CE793E00E94102820910E0330910F032E
:100D7000442737FD4095542F6091140370E080E0C4
:100D800090E00E94F83C0E94783B7B018C016091CE
:100D90001003709111038091120390911303A80125
:100DA00097010E94DD3A60938003709381038093E2
:100DB000820390938303C801B701209110033091FF
:100DC000110340911203509113030E94DD3A7B01FD
:100DD0008C016093840370938503809386039093C2
:100DE00087036091240370912503882777FD809500
:100DF000982F0E94783BA80197010E942C3C0E94EA
:100E0000453B609388037093890380938A03909392
:100E10008B036091260370912703882777FD8095C7
:100E2000982F0E94783BA80197010E942C3C0E94B9
:100E3000453B60938C0370938D0380938E03909356
:100E40008F038CE494E064E072E00E94C03783E595
:100E500094E067E372E00E94C0378AE594E067E3BC
:100E600072E00E94C03781E694E067E372E00E947E
:100E7000C03788E694E067E372E00E94C0378FE6EF
:100E800094E066E472E00E94C03786E794E06CE488
:100E900072E00E94C0378DE794E063E572E00E9443
:100EA000C03784E894E06BE572E00E94C0378BE8BD
:100EB00094E066E672E00E94C03782E994E06FE653
:100EC00074E00E9455388DE993E06CE672E00E9470
:100ED000C03789E994E06DE672E00E94C03780EA8D
:100EE00094E06FE672E00E94C03787EA94E064E71E
:100EF00072E00E94C0378EEA94E068E772E00E94D8
:100F0000C03785EB94E06CE772E00E94C0378CEB51
:100F100094E060E872E00E94C03783EC94E064E8FB
:100F200072E00E94C0378AEC94E068E872E00E94A8
:100F3000C03781ED94E06CE872E00E94C03788ED24
:100F400094E060E972E00E94C0378FED94E064E9BC
:100F500072E00E94C03786EE94E068E972E00E9479
:100F6000C0378DEE94E06CE972E00E94C03784EFE8
:100F700094E060EA72E00E94C0378BEF94E064EA8C
:100F800072E00E94C03782E095E068EA72E00E9459
:100F9000C03789E095E06CEA72E00E94C03780E1DA
:100FA00095E060EB72E00E94C03787E195E064EB6A
:100FB00072E00E94C0378EE195E068EB72E00E941B
:100FC000C03785E295E06CEB72E00E94C0378CE29E
:100FD00095E060EC72E00E94C03783E395E064EC3A
:100FE00072E00E94C0378AE395E068EC72E00E94EC
:100FF000C03781E495E06CEC72E00E94C0376091EC
:101000000E0370910F0385EA93E041E00E94AA2B42
:1010100060910E0370910F0381EB93E042E00E9418
:10102000AA2B8DEB93E06CE075E146E055E10E9460
:10103000A02381E094E060E075E14AEF54E10E9472
:10104000A0239FC0892B09F09CC06F5F7F4F09F0E0
:1010500098C081E495E00E945E388AE395E00E94A2
:101060005E3883E395E00E945E388CE295E00E9452
:101070005E3885E295E00E945E388EE195E00E9440
:101080005E3887E195E00E945E3880E195E00E943D
:101090005E3889E095E00E945E3882E095E00E942B
:1010A0005E388BEF94E00E945E3884EF94E00E94FB
:1010B0005E388DEE94E00E945E3886EE94E00E94E9
:1010C0005E388FED94E00E945E3888ED94E00E94D7
:1010D0005E3881ED94E00E945E388AEC94E00E94D4
:1010E0005E3883EC94E00E945E388CEB94E00E94C2
:1010F0005E3885EB94E00E945E388EEA94E00E94B0
:101100005E3887EA94E00E945E3880EA94E00E94AC
:101110005E3889E994E00E945E388DE993E00E9490
:101120005E3882E994E00E945E388BE894E00E9489
:101130005E3884E894E00E945E388DE794E00E9477
:101140005E3886E794E00E945E388FE694E00E9465
:101150005E3888E694E00E945E3881E694E00E9462
:101160005E388AE594E00E945E3883E594E00E9450
:101170005E388CE494E00E945E3885E494E00E943E
:101180005E381F910F91FF90EF90089580E090E0FE
:101190006FEF7FEFD3CD81E090E06FEF7FEFCECDAB
:1011A000CF92DF92EF92FF920F931F93CF93DF9333
:1011B0006C01EE24EA94FE2C8701C0E0D0E00BC065
:1011C000C601BE010E945D36482FC801B70171DD1E
:1011D0007B018C012196F60184819581C817D9077E
:1011E00078F3A80197012095309540955095B90165
:1011F000CA01DF91CF911F910F91FF90EF90DF9087
:10120000CF900895AF92BF92CF92DF92EF92FF926C
:101210000F931F937B018C01CA01B9010E942C3CE2
:101220005B016C01C801B701A80197010E942C3C29
:101230009B01AC01C601B5010E94743A0E94933C27
:101240001F910F91FF90EF90DF90CF90BF90AF90E4
:101250000895AF92BF92CF92DF92EF92FF920F93D9
:101260001F937B018C0159016A0160918803709181
:10127000890380918A0390918B030E94783BA80197
:1012800097010E94743A9B01AC010E942C3C7B01A7
:101290008C01C601B501A60195010E942C3C9B0161
:1012A000AC01C801B7010E94753A0E94933C1F919E
:1012B0000F91FF90EF90DF90CF90BF90AF90089587
:1012C000AF92BF92CF92DF92EF92FF920F931F9354
:1012D0007B018C0159016A01A80197010E942C3CF5
:1012E0007B018C01C601B501A60195010E942C3C31
:1012F0009B01AC01C801B7010E94753A0E94933C62
:101300001F910F91FF90EF90DF90CF90BF90AF9023
:1013100008952F923F924F925F926F927F928F9299
:101320009F92AF92BF92CF92DF92EF92FF920F9374
:101330001F93DF93CF9300D000D0CDB7DEB7698382
:101340007A838B839C8359016A01170128016115F7
:1013500071058105910559F40F2EF0E0EF2EF0E0B4
:10136000FF2EF0E00F2FF0E01F2FF02DA4C0CA01D8
:10137000B9010E942C3C7B018C01C601B50120E023
:1013800030E040E050E00E94D93A882324F417FB73
:10139000109517F91095C201B101A20191010E94A7
:1013A000753A3B014C01C801B701A40193010E94A9
:1013B000DD3A7B018C0169817A818B819C810E945D
:1013C000783B9B01AC01C801B7010E94D93A882340
:1013D000B4F5C601B50120E030E040E050E00E94E5
:1013E000D93A882329F4C401B3010E94933C0DC06B
:1013F000C201B101A60195010E94DD3A9B01AC0139
:101400005F77C601B5010E94753A7B018C01D090CF
:101410001503C0901603B0901703A09018032D2D4C
:101420003C2D4B2D5A2D0E94283C18160CF043C021
:101430008D2D9C2DAB2DBA2D7C018D013CC0C6019C
:10144000B50120E030E040E050E00E94D93A882326
:1014500059F4C401B3010E94933C7B018C0117FB3A
:10146000109517F910950FC0C201B101A6019501A1
:101470000E94DD3A9B01AC015F77C601B5010E9475
:10148000743A7B018C018091150390911603A09111
:101490001703B09118035C016D01D7FAD094D7F807
:1014A000D094C801B701A60195010E94D93A8823BA
:1014B00014F486017501B701C8010F900F900F90C9
:1014C0000F90CF91DF911F910F91FF90EF90DF90E0
:1014D000CF90BF90AF909F908F907F906F905F90D4
:1014E0004F903F902F900895809120038823C1F161
:1014F0008BE997E06BE874E00E9494358DEB93E004
:101500000E94FD212091140330E040E050E00E9451
:10151000583D8BE997E0BA01A9012AE030E00E942A
:101520001C348BE997E069E974E00E94943581E00E
:1015300094E00E94FD212091140330E040E050E04F
:101540000E94583D8BE997E0BA01A9012AE030E0FA
:101550000E941C348BE997E060EA74E00C94C63575
:1015600008958BE997E066E774E00C94C6358BE943
:1015700097E06FE674E00C94C635CF93DF93EC01EF
:10158000AB01662757FD6095762F0E94932307C015
:1015900080912103882319F0CE010E94D927CE0122
:1015A0000E94ED21611571058105910589F70E9461
:1015B000512C6093950370939603809397039093B7
:1015C0009803DF91CF910895EF92FF920F931F93AD
:1015D0008091900390919103A0919203B091930315
:1015E0000097A105B10509F03FC060918803709193
:1015F000890380918A0390918B030E94783B7B0141
:101600008C0160918C0370918D0380918E03909179
:101610008F030E94783B9B01AC01C801B70150DEEB
:1016200020E030E040E05FE30E94753A0E94453BD5
:10163000609390037093910380939203909393032C
:101640008BE997E064E271E00E940E3340919003D1
:101650005091910360919203709193038BE997E00D
:101660002AE030E00E945A34609190037091910317
:1016700080919203909193031F910F91FF90EF90AF
:1016800008952F923F924F925F926F927F928F9226
:101690009F92AF92BF92CF92DF92EF92FF920F9301
:1016A0001F937B018C0159016A010E94512C6093A8
:1016B00095037093960380939703909398038DEB13
:1016C00093E00E94E1241B012C0181E094E00E9440
:1016D000E1243B014C018DEB93E040E050E060E001
:1016E00070E00E945C2481E094E040E050E060E023
:1016F00070E00E945C24C801B7010E94783B0E9400
:10170000453BAB01BC018DEB93E00E948223C601F7
:10171000B5010E94783B0E94453BAB01BC0181E0D2
:1017200094E00E94822380911D03882309F042C027
:101730008DEB93E00E94E12420E030E040E050E0B7
:101740000E94D93A882324F457FA509457F85094B9
:1017500081E094E00E94E12420E030E040E050E0AD
:101760000E94D93A882324F497FA909497F8909499
:101770008DEB93E0B201A1010E945C2481E094E032
:10178000B401A3010E945C2415C080911D0388232D
:1017900049F08DEB93E00E94D92781E094E00E940C
:1017A000D92708C08DEB93E00E94B62781E094E032
:1017B0000E94B6278DEB93E00E94ED216115710523
:1017C0008105910549F481E094E00E94ED216115C5
:1017D00071058105910529F080912103882351F33A
:1017E000D4CF82DE1F910F91FF90EF90DF90CF90CA
:1017F000BF90AF909F908F907F906F905F904F9031
:101800003F902F9008958F929F92AF92BF92CF9268
:10181000DF92EF92FF920F931F93CF93DF935C01C0
:101820006B01EA014901E114F104C9F48BE997E085
:101830006BE371E00E94513380912D03882331F0D6
:10184000CE0162E070E00E94233D2AC0CE0162E03A
:1018500070E00E94233D709561957F4F21C080917B
:101860002D03E016F10699F4882331F0CA0162E0F5
:1018700070E00E94233D08C0CA0162E070E00E944F
:10188000233D709561957F4FC60177DE18C0882390
:1018900019F0CB01BA0105C066277727641B750BC9
:1018A000C6016BDEC501B40168DE80912D0388237B
:1018B00019F010922D0303C081E080932D03DF9176
:1018C000CF911F910F91FF90EF90DF90CF90BF903D
:1018D000AF909F908F9008953F924F925F926F923A
:1018E0007F928F929F92AF92BF92CF92DF92EF92B0
:1018F000FF920F931F93DF93CF93CDB7DEB7289757
:101900000FB6F894DEBF0FBECDBFFC012B014A011C
:10191000322E141615060CF08BC0BA010E94233D1E
:101920003B01CF01B4010E94233DAA2797FDA0955A
:10193000BA2FBC01CD010E94783B7B018C01B40120
:10194000882777FD8095982F0E94783B9B01AC01FA
:10195000C801B7010E94DD3A69837A838B839C8337
:101960000F2EF0E0AF2EF0E0BF2EF0E0CF2EF0E033
:10197000DF2EF02D18861F82C30101969E838D8372
:10198000C601B50129813A814B815C810E94753A7B
:101990005B016C0120E030E040E85FE30E94283CFE
:1019A00087FF02C0F3010CC0C601B50120E030E0A2
:1019B00040E85FE30E94743A5B016C01ED81FE81B7
:1019C00092E0391629F48DEB93E061E074E007C0F2
:1019D000A3E03A1639F481E094E06DEB73E0A201E4
:1019E0009F0118C0B4E03B1649F4222733272E1B71
:1019F0003F0B8DEB93E061E074E00BC081E03816A3
:101A000069F4222733272E1B3F0B81E094E06DEB16
:101A100073E0A2018401EF80F884F5DE65DDAF811B
:101A2000B8851196B887AF838A169B060CF0A8CFAD
:101A300028960FB6F894DEBF0FBECDBFCF91DF91D1
:101A40001F910F91FF90EF90DF90CF90BF90AF90DC
:101A50009F908F907F906F905F904F903F900895F0
:101A60000F931F93BC010BE917E0C8010E94943546
:101A7000C80165E173E00E9451331F910F910895F1
:101A80002F923F924F925F926F927F928F929F928E
:101A9000AF92BF92CF92DF92EF92FF920F931F937C
:101AA000DF93CF9300D000D0CDB7DEB73B014C0120
:101AB00059016A01FA82E982C80162E070E00E947D
:101AC000233D882777FD8095982F661A770A880A24
:101AD000990AA61AB70AC80AD90A1C821B821801D9
:101AE000442437FC4094542C2DC060E070E080E02A
:101AF00090E0A20191010E9440367B018C0160E0E0
:101B000070E080E090E0A20191010E9440369B01CC
:101B1000AC010027F7FC0095102FE60CF71C081D00
:101B2000191D442737FD4095542F2A0D3B1D4C1D90
:101B30005D1DC801B701A5DD2B813C812F5F3F4FA3
:101B40003C832B838B819C81E981FA81E817F9071B
:101B500064F60F900F900F900F90CF91DF911F912F
:101B60000F91FF90EF90DF90CF90BF90AF909F903C
:101B70008F907F906F905F904F903F902F9008953F
:101B80008AE892E090933B0380933A0390933D035D
:101B900080933C038FE590E0909337038093360366
:101BA00080E991E0909339038093380381E090E0DD
:101BB000909335038093340364EF71E080E090E00C
:101BC0000C94852CAF92BF92CF92DF92EF92FF924E
:101BD0000F931F93CF93DF93EC015B016A018CE7B6
:101BE00093E069E070E00E947E29CA15DB059CF451
:101BF00076010027F7FC0095102F8CE793E0BE01DB
:101C00000E949928C801B7010E94852C2196AC1624
:101C1000BD069CF712C076010027F7FC0095102F37
:101C20008CE793E0BE010E949928C801B7010E9489
:101C3000852C2197CA15DB059CF78CE793E00E9461
:101C40002A28DF91CF911F910F91FF90EF90DF90A5
:101C5000CF90BF90AF900895EF92FF920F931F9394
:101C6000BDEBEB2EB3E0FB2EC7010E94FD21AB01C3
:101C7000BC014C5F5F4F6F4F7F4FC7010E94072829
:101C800001E014E0C8010E94FD21AB01BC014C5FE2
:101C90005F4F6F4F7F4FC8010E940728C7010E9406
:101CA000FD21AB01BC014450504060407040C70171
:101CB0000E940728C8010E94FD21AB01BC014450CD
:101CC000504060407040C8010E9407281F910F914A
:101CD000FF90EF9008952F923F924F925F926F92F4
:101CE0007F928F929F92AF92BF92CF92DF92EF92AC
:101CF000FF920F931F93DF93CF93CDB7DEB7E0979B
:101D00000FB6F894DEBF0FBECDBF2B013C019CA2E5
:101D10008BA20E94FA056B8F7C8F8D8F9E8FA30103
:101D2000920170DA6F8B788F898F9A8FC801B70113
:101D3000A60195010E94FA055B016C01A8019701BB
:101D400061DA7B018C01C601B50120E030E040EA98
:101D500051E40E94283C18160CF00FC260918803D1
:101D60007091890380918A0390918B036451704034
:101D7000804090400E94783B6F8F78A389A39AA3FC
:101D8000C601B5012F8D38A149A15AA10E94D93AA7
:101D900088230CF0F2C1C801B70120E030E040EA2E
:101DA00051E40E94283C18160CF0E7C160918C03A6
:101DB00070918D0380918E0390918F0364517040D8
:101DC000804090400E94783B2B013C01C801B70144
:101DD000A30192010E94D93A88230CF0CEC16B8DE9
:101DE0007C8D8D8D9E8D20E030E040EA51E40E9494
:101DF000283C18160CF0C1C16B8D7C8D8D8D9E8D8D
:101E00002F8D38A149A15AA10E94D93A88230CF0FC
:101E1000B4C16F89788D898D9A8D20E030E040EAD9
:101E200051E40E94283C18160CF0A7C16F89788DE8
:101E3000898D9A8DA30192010E94D93A88230CF0D2
:101E40009CC110922003C601B5012B8D3C8D4D8D98
:101E50005E8D0E94743A1B012C01C801B7012F89C5
:101E6000388D498D5A8D0E94743A3B014C01C20154
:101E7000B10120E030E040E050E00E94283C18161C
:101E80001CF48201710106C08201710117FB1095DB
:101E900017F91095C401B30120E030E040E050E0B4
:101EA0000E94283C18161CF4A401930103C0A4014D
:101EB00093015058C801B7010E94283C18169CF0A5
:101EC00021E030E03E8B2D8BD401C301B0588DA7AB
:101ED0009EA7AFA7B8ABABA1BCA15D01CC24B7FC5A
:101EE000C094DC2C4EC021E030E03E8B2D8BD20123
:101EF000C101B05889A79AA7ABA7BCA7ABA1BCA149
:101F00005D01CC24B7FCC094DC2C06C02D893E8931
:101F10002F5F3F4F3E8B2D8BC201B10120E030E09F
:101F200040E050E00E94283C18161CF48201710128
:101F300004C0E9A4FAA40BA51CA5AD89BE89BD0106
:101F4000882777FD8095982F0E94783B9B01AC01F4
:101F5000C801B7010E94DD3A7B018C01C601B501C1
:101F60000E94783B9B01AC01C801B7010E94283C4C
:101F7000181664F234C02D893E892F5F3F4F3E8B87
:101F80002D8BC401B30120E030E040E050E00E941E
:101F9000283C18161CF48401730104C0EDA4FEA4AF
:101FA0000FA518A9AD89BE89BD01882777FD809549
:101FB000982F0E94783B9B01AC01C801B7010E9499
:101FC000DD3A7B018C01C601B5010E94783B9B0183
:101FD000AC01C801B7010E94283C181664F22D8993
:101FE0003E895901CC24B7FCC094DC2CC601B50154
:101FF0000E94783B7B018C01C201B101A8019701CD
:102000000E94DD3A6D837E838F839887C401B3017C
:10201000A80197010E94DD3A69837A838B839C83B0
:1020200010921D03198A1A8A1B8A1C8A19861A861D
:102030001B861C86ADA2BEA2CFA2D8A66B8D7C8DBE
:102040008D8D9E8D2D813E814F8158850E94753AE0
:102050006B8F7C8F8D8F9E8F6F89788D898D9A8DF8
:1020600029813A814B815C810E94753A6F8B788F10
:10207000898F9A8F6B8D7C8D8D8D9E8D2F89388D5C
:10208000498D5A8D1DD96D877E878F87988B6B8D73
:102090007C8D8D8D9E8D2F89388D498D5A8DD9D807
:1020A0001B012C0169847A848B849C848DA19EA160
:1020B000AFA1B8A5680E791E8A1E9B1E69897A8910
:1020C0008B899C890E94783B5B016C0160911903AC
:1020D00070911A0380911B0390911C0320E030E063
:1020E00040E850E40E942C3C7B018C01C401B30108
:1020F000A60195010ED90E94453B698B7A8B8B8B8B
:102100009C8B0E94783B7B018C018DEB93E0B801A6
:10211000A7010E945C2481E094E0B801A7010E941D
:102120005C246D857E858F8598890E94453B7B0167
:102130008C01C201B1010E94453B9B01AC01C80169
:10214000B7019FDA89859A85AB85BC850197A1097E
:10215000B10989879A87AB87BC878D899E89A985B4
:10216000BA858A0F9B1F892B09F068CF81E0809385
:10217000200380931D03B8D906C08BE997E060ED7A
:1021800072E00E948335E0960FB6F894DEBF0FBE72
:10219000CDBFCF91DF911F910F91FF90EF90DF9016
:1021A000CF90BF90AF909F908F907F906F905F90F7
:1021B0004F903F902F9008950F931F93AB01BC0158
:1021C0004093190350931A0360931B0370931C03ED
:1021D0008DEB93E00E94E8264091190350911A0379
:1021E00060911B0370911C0381E094E00E94E8263B
:1021F0000BE917E0C80164EA71E00E940E334091D8
:10220000190350911A0360911B0370911C03C801BC
:1022100022E030E00E9472351F910F910895CF9215
:10222000DF92EF92FF920F931F937C018B018FE659
:10223000C82E85E0D82EC601B701F80140810E9462
:10224000462A0894E11CF11CC601B701F80141813E
:102250000E94462A82E090E01F910F91FF90EF903C
:10226000DF90CF9008950F931F93AB01BC01409373
:1022700015035093160360931703709318038DEBA7
:1022800093E00E940724409115035091160360913A
:1022900017037091180381E094E00E9407240BE972
:1022A00017E0C80167EB71E00E940E3340911503FF
:1022B000509116036091170370911803C80122E032
:1022C00030E00E9472351F910F910895CF92DF92F6
:1022D000EF92FF920F931F937C018B019FE6C92E13
:1022E00095E0D92EC601B7010E943F2AF8018083EC
:1022F0000894E11CF11CC601B7010E943F2AF801B5
:10230000818382E090E01F910F91FF90EF90DF902A
:10231000CF9008958AE290E062E373E0D7DF809186
:1023200032039091330397FF06C08AE590E09093C3
:102330003303809332038BE997E068EA72E00E94EE
:102340000E3360913203709133038BE997E04AE0DA
:1023500050E00E947E348CE290E060E373E0B6DFF0
:10236000809130039091310397FF06C084EB90E099
:1023700090933103809330038BE997E069E972E031
:102380000E940E3360913003709131038BE997E026
:102390004AE050E00C947E3480E090E064E273E028
:1023A00095DF80912403909125031816190644F0B7
:1023B00080913A0390913B039093250380932403EB
:1023C0008BE997E06FEF72E00E940E336091240377
:1023D000709125038BE997E04AE050E00E947E343B
:1023E00082E090E066E273E071DF809126039091D5
:1023F00027031816190644F080913C0390913D0381
:1024000090932703809326038BE997E068EE72E0B0
:102410000E940E3360912603709127038BE997E0A9
:102420004AE050E00C947E34EF92FF920F931F939A
:10243000CF93DF93AC01EB0124E0E22EF12CE60E0A
:10244000F71E8A010F5F1F4F8FE695E0BA010E94C9
:102450003F2A8993A801CE15DF0599F784E090E023
:10246000DF91CF911F910F91FF90EF90089586E13A
:1024700090E065E173E0D8DF609115037091160379
:1024800080911703909118030E94453B161617067A
:1024900064F080E090E0A8E4B4E4809315039093A6
:1024A0001603A0931703B09318038AE190E069E143
:1024B00073E0BADF6091190370911A0380911B03D6
:1024C00090911C030E94453B1616170664F080E0AD
:1024D00090E0A8E4B4E48093190390931A03A093C6
:1024E0001B03B0931C0308958EE090E060E173E05D
:1024F0009BDF609110037091110380911203909102
:10250000130320E030E040E85FE30E94D93A8823DB
:1025100094F46091360370913703882777FD809596
:10252000982F0E94783B609310037093110380935F
:102530001203909313038BE997E065ED72E00E941C
:102540000E3340911003509111036091120370916A
:1025500013038BE997E022E030E00E94723582E1BC
:1025600090E06EE073E0B2DE80910E0390910F0375
:102570001816190644F0809138039091390390930E
:102580000F0380930E038BE997E069EB72E00E94E2
:102590000E3360910E0370910F038BE997E04AE0D0
:1025A00050E00C947E348FE695E064E170E00E9488
:1025B0003F2A80931403882321F48091340380936D
:1025C00014038BE997E06BE772E00E940E338BE90E
:1025D00097E0609114034AE050E00C940034AF920D
:1025E000BF92CF92DF92EF92FF920F931F93D4DEB0
:1025F0007BDFD9DF8FDE3BDF8EE190E069E273E0C5
:1026000013DF6091290370912A0380912B0390912D
:102610002C0327E137EB41ED58E30E94D93A882398
:1026200064F48DEC9CECACE4BFE3809329039093BD
:102630002A03A0932B03B0932C03A0901003B09017
:102640001103C0901203D09013036091140370E043
:1026500080E090E020910E0330910F03442737FD76
:102660004095542F0E94F83C0E94783B7B018C01DE
:10267000C601B501A80197010E94DD3A609380036D
:10268000709381038093820390938303C801B70101
:10269000A60195010E94DD3A60938403709385033F
:1026A00080938603909387038BE997E068E672E056
:1026B0000E940E3340918003509181036091820308
:1026C000709183038BE997E022E030E00E9470353F
:1026D0008BE997E068E572E00E940E334091840335
:1026E0005091850360918603709187038BE997E091
:1026F00022E030E00E9470358BE997E066E572E0F9
:102700000E940E338BE997E00E94313360912403DD
:1027100070912503882777FD8095982F0E94783B3C
:102720002091840330918503409186035091870363
:102730000E942C3C0E94453B609388037093890360
:1027400080938A0390938B038BE997E06AE372E0AE
:102750000E940E33409188035091890360918A034F
:1027600070918B038BE997E02AE030E00E941C34E3
:102770008BE997E068E372E00E940E338BE997E003
:102780000E9431336091260370912703882777FDDB
:102790008095982F0E94783B209184033091850387
:1027A00040918603509187030E942C3C0E94453B38
:1027B00060938C0370938D0380938E0390938F03AB
:1027C0008BE997E06BE172E00E940E3340918C033D
:1027D00050918D0360918E0370918F038BE997E088
:1027E0002AE030E00E941C348BE997E069E172E056
:1027F0000E940E338BE997E00E94313310929003D0
:102800001092910310929203109293031F910F91D3
:10281000FF90EF90DF90CF90BF90AF900895CF934F
:10282000DF93C0E0D0E08FE695E0BE0140E00E947B
:10283000462A2196C233D105B1F7D1DEDF91CF917F
:102840000895CF93DF93C0E0D0E08BE997E0BE011D
:102850004AE050E00E946C348BE997E066EF72E04A
:102860000E949B348FE695E0BE010E943F2A682FAC
:102870008BE997E04AE050E00E9400342196C8328C
:10288000D10519F7DF91CF910895CF92DF92EF92A2
:10289000FF920F931F93D5DF0BE917E0C80161E1A9
:1028A00072E00E940E336091240370912503C801E9
:1028B0004AE050E00E946C3449E9C42E44E0D42E32
:1028C000C801B6010E9494356091260370912703D8
:1028D000C8014AE050E00E946C3430EAE32E34E054
:1028E000F32EC801B7010E94C635C80165E072E049
:1028F0000E940E3340911003509111036091120316
:1029000070911303C80122E030E00E947035C801C5
:10291000B7010E94C635C80166EF71E00E940E3310
:1029200060910E0370910F03C8014AE050E00E94CD
:102930006C34C801B7010E94C635C80164EE71E06D
:102940000E940E33C801609114034AE050E00E94D7
:10295000EF33C801B7010E94C635C8016CED71E0C4
:102960000E940E336091320370913303C8014AE034
:1029700050E00E946C34C801B6010E949435609109
:10298000300370913103C8014AE050E00E946C347A
:10299000C801B7010E94C635C80163ED71E00E940D
:1029A0000E334091150350911603609117037091F7
:1029B0001803C80122E030E00E947035C801B6015A
:1029C0000E9494354091190350911A0360911B03A2
:1029D00070911C03C80122E030E00E947035C801EC
:1029E000B7010E94C6351F910F91FF90EF90DF90C5
:1029F000CF90089581EB93E062E043E00C949B2A32
:102A000081EB93E061E043E00C949B2A85EA93E03C
:102A100062E043E00C949B2A85EA93E061E043E0A6
:102A20000C949B2AEF92FF920F931F93DF93CF9307
:102A3000CDB7DEB7FC01EDB6FEB6448155814F5FE0
:102A40005F4F8DB79EB7841B950B0FB6F8949EBF52
:102A50000FBE8DBF0DB71EB70F5F1F4FCF01B8015F
:102A600020E030E00E94D936C8010E94E9020FB68A
:102A7000F894FEBE0FBEEDBECF91DF911F910F9176
:102A8000FF90EF9008954F925F926F927F928F9296
:102A90009F92AF92BF92CF92DF92EF92FF920F93ED
:102AA0001F93DF93CF93CDB7DEB72E970FB6F89471
:102AB000DEBF0FBECDBF6E010894C11CD11CC60184
:102AC00063E574E00E945538C601ACDF7B018C01E0
:102AD0006091140370E0882777FD8095982F0E94FD
:102AE000783B9B01AC01C801B7010E942C3C2B0133
:102AF0003C01C6010E945E3858E0852E912C8C0E58
:102B00009D1EC4016AE574E00E945538C4018ADF45
:102B10007B018C016091140370E0882777FD80951C
:102B2000982F0E94783B9B01AC01C801B7010E941D
:102B30002C3C5B016C01C4010E945E38C301B201F0
:102B40000E94453B7B018C01C601B5010E94453BBB
:102B50009B01AC01C801B7010E94410B2E960FB634
:102B6000F894DEBF0FBECDBFCF91DF911F910F91C3
:102B7000FF90EF90DF90CF90BF90AF909F908F909D
:102B80007F906F905F904F9008950F931F93DF9306
:102B9000CF93CDB7DEB727970FB6F894DEBF0FBE41
:102BA000CDBF8E010F5F1F4FC80163E574E00E9427
:102BB0005538C80137DF6093290370932A03809347
:102BC0002B0390932C03C8010E945E380BE917E099
:102BD000C8016EE871E00E940E33409129035091C4
:102BE0002A0360912B0370912C03C80122E030E08E
:102BF0000E947035C8016BE871E00E940E33C80175
:102C00000E94313327960FB6F894DEBF0FBECDBFBA
:102C1000CF91DF911F910F910895EF92FF920F9343
:102C20001F93DF93CF93CDB7DEB72B970FB6F894F2
:102C3000DEBF0FBECDBF8E010B5F1F4FC80163E526
:102C400074E00E945538C801EDDE69837A838B8376
:102C50009C83C8010E945E387E010894E11CF11C2F
:102C60006EE070E08B010F5F1F4FF70141917F0114
:102C70008FE695E00E94462AB8010231110591F7CE
:102C8000AEDC2B960FB6F894DEBF0FBECDBFCF9152
:102C9000DF911F910F91FF90EF900895EF92FF92B7
:102CA0000F931F93DF93CF93CDB7DEB7FC01EDB643
:102CB000FEB6448155814F5F5F4F8DB79EB7841B31
:102CC000950B0FB6F8949EBF0FBE8DBF0DB71EB704
:102CD0000F5F1F4FCF01B80120E030E00E94D936CE
:102CE000C8010E94EC020FB6F894FEBE0FBEEDBE06
:102CF000CF91DF911F910F91FF90EF9008953F9238
:102D00004F925F926F927F928F929F92AF92BF92FB
:102D1000CF92DF92EF92FF920F931F93DF93CF93A7
:102D2000CDB7DEB7A4970FB6F894DEBF0FBECDBF08
:102D30008E010F5F1F4FC80163E574E00E94553894
:102D4000C801ACDFAA2797FDA095BA2F20911403E4
:102D500030E040E050E0BC01CD010E94F83C5B0156
:102D6000C8010E945E388E01085F1F4FC8016AE5E6
:102D700074E00E945538C80155DEF62EE72ED82E95
:102D8000C92EC8010E945E388E01015F1F4FC80125
:102D900061E674E00E945538C80144DE69A37AA355
:102DA0008BA39CA3C8010E945E388E010A5E1F4F50
:102DB000C80168E674E00E945538C80133DE2B0173
:102DC0003C01C8010E945E383090280382E0809365
:102DD00028038091290390912A03A0912B03B0919D
:102DE0002C038D8F9E8FAF8FB8A32F2D3E2D4D2D91
:102DF0005C2DC901DA016C017D01882499241EC073
:102E00000894811C911CC0922903D0922A03E0925D
:102E10002B03F0922C03C701B601A5010E946005A7
:102E2000AC01C501B50122E00E946C0CC701B601DE
:102E3000A30192010E94753A6B017C01C701B601A2
:102E400029A13AA14BA15CA10E94D93A1816C4F657
:102E50008D8D9E8DAF8DB8A18093290390932A0309
:102E6000A0932B03B0932C03EE24FF24EA18FB0855
:102E700081E094E0B7010E94BD0AC50162E070E004
:102E80000E94233D709561957F4F3B01C50162E033
:102E900070E00E94233D6B0101E010E011C081E071
:102EA00094E0B3010E94BD0A8DEB93E0B7010E944C
:102EB000BD0A81E094E0B6010E94BD0A0F5F1F4F7A
:102EC0008016910664F78D8D9E8DAF8DB8A180938D
:102ED000290390932A03A0932B03B0932C033092E1
:102EE0002803A4960FB6F894DEBF0FBECDBFCF91D6
:102EF000DF911F910F91FF90EF90DF90CF90BF90E7
:102F0000AF909F908F907F906F905F904F903F9089
:102F100008950F931F93DF93CF93CDB7DEB72E970E
:102F20000FB6F894DEBF0FBECDBF8E010F5F1F4FEF
:102F3000C80163E574E00E945538C801AFDE809394
:102F40002803C8010E945E388E01085F1F4FC80128
:102F50006AE574E00E945538C801A0DE90932F0303
:102F600080932E03C8010E945E382E960FB6F89407
:102F7000DEBF0FBECDBFCF91DF911F910F9108959E
:102F8000EF92FF920F931F93DF93CF93CDB7DEB7EE
:102F900027970FB6F894DEBF0FBECDBF8091940384
:102FA00090917F03823010F1992329F0E090300353
:102FB000F090310304C0E0903203F09033038E01AF
:102FC0000F5F1F4FC80163E574E00E945538C801C8
:102FD00065DE9093330380933203C8010E945E380C
:102FE0006091320370913303C7010AC0913061F4DC
:102FF00060913203709133038091300390913103DB
:1030000043E050E00E94E20D10927F0327960FB636
:10301000F894DEBF0FBECDBFCF91DF911F910F910E
:10302000FF90EF900895EF92FF920F931F93DF931D
:10303000CF93CDB7DEB727970FB6F894DEBF0FBE9C
:10304000CDBF8091940390917F03823010F199233A
:1030500029F0E0903003F090310304C0E090320397
:10306000F09033038E010F5F1F4FC80163E574E0DA
:103070000E945538C80112DE9093310380933003CB
:10308000C8010E945E386091300370913103C7011E
:103090000AC0992361F460913003709131038091EB
:1030A00032039091330343E050E00E94E20D81E04F
:1030B00080937F0327960FB6F894DEBF0FBECDBF77
:1030C000CF91DF911F910F91FF90EF9008952F9274
:1030D0003F924F925F926F927F928F929F92AF92A8
:1030E000BF92CF92DF92EF92FF920F931F93DF93E5
:1030F000CF93CDB7DEB76B970FB6F894DEBF0FBE98
:10310000CDBF6E010894C11CD11CC60163E574E0FB
:103110000E945538C60186DC7B018C016091140346
:1031200070E0882777FD8095982F0E94783B9B015F
:10313000AC01C801B7010E942C3C3B014C01C60107
:103140000E945E388E01085F1F4FC8016AE574E077
:103150000E945538C80166DC6B017C01B0901403F5
:10316000C8010E945E388E01015F1F4FC80161E6F1
:1031700074E00E945538C80191DD9F8B8E8BC80189
:103180000E945E388DEB93E00E94FD21688F798F5D
:103190008A8F9B8F81E094E00E94FD211B012C010E
:1031A000C401B30120E030E040EA51E40E94D93A82
:1031B00087FD30C06B2D70E0882777FD8095982FB4
:1031C0000E94783B9B01AC01C701B6010E942C3CD8
:1031D0005B016C0120E030E040EA51E40E94D93A02
:1031E00087FD18C00E94E40A0E94783B9B01AC0155
:1031F000C401B3010E94283C181664F00E94E40A3E
:103200000E94783B9B01AC01C601B5010E94283C9D
:1032100018163CF48BE997E06BE471E00E9451339F
:1032200016C0688D798D8A8D9B8D0E94783B7B01BD
:103230008C01C201B1010E94783B9B01AC01C80125
:10324000B701840173018E889F880E946B0E6B9674
:103250000FB6F894DEBF0FBECDBFCF91DF911F91A7
:103260000F91FF90EF90DF90CF90BF90AF909F9025
:103270008F907F906F905F904F903F902F90089528
:10328000EF92FF920F931F93DF93CF93CDB7DEB7EB
:103290002E970FB6F894DEBF0FBECDBF8E010F5F25
:1032A0001F4FC80163E574E00E945538C801BADBBE
:1032B0000E94DC10C8010E945E3880919403833024
:1032C00039F58E01085F1F4FC8016AE574E00E945E
:1032D0005538C801E3DC7C01C8010E945E3881E0FA
:1032E000E816F104A9F469E1E62E63E0F62E6AE13E
:1032F00070E08B010F5F1F4FF70141917F018FE657
:1033000095E00E94462A0E31110511F0B801F1CF67
:103310002E960FB6F894DEBF0FBECDBFCF91DF91D2
:103320001F910F91FF90EF900895EF92FF920F93EE
:103330001F93DF93CF93CDB7DEB72E970FB6F894D8
:10334000DEBF0FBECDBF8E010F5F1F4FC80163E50B
:1033500074E00E945538C80165DB0E943311C80132
:103360000E945E3880919403833039F58E01085FA6
:103370001F4FC8016AE574E00E945538C8018EDC11
:103380007C01C8010E945E3881E0E816F104A9F4CE
:1033900075E1E72E73E0F72E66E170E08B010F5FB9
:1033A0001F4FF70141917F018FE695E00E94462A69
:1033B0000A31110511F0B801F1CF2E960FB6F8942D
:1033C000DEBF0FBECDBFCF91DF911F910F91FF9058
:1033D000EF9008950F931F93DF93CF93CDB7DEB790
:1033E00062970FB6F894DEBF0FBECDBF8E010B5FA4
:1033F0001F4FC80163E574E00E945538C8014EDCD8
:103400009A838983C8010E945E388E01045F1F4F32
:10341000C8016AE574E00E945538C8013FDC9C830E
:103420008B83C8010E945E388BE997E06CEC71E0F9
:103430000E940E3369817A818BE997E04AE050E07F
:103440000E947E348BE997E067EC71E00E940E33B6
:103450006B817C818BE997E04AE050E00E947E34EA
:1034600080919403843089F48AE290E0BE016F5F1A
:103470007F4F0E940F118CE290E0BE016D5F7F4F85
:103480000E940F110E948A113AC08330C1F56981F0
:103490007A818B819C8143E050E00E94E20D68ECD0
:1034A00070E080E090E00E94852C6B817C818981B6
:1034B0009A8143E050E00E94E20D68EC70E080E009
:1034C00090E00E94852C69817A818B819C8143E008
:1034D00050E00E94E20D68EC70E080E090E00E9415
:1034E000852C6B817C8189819A8143E050E00E9428
:1034F000E20D68EC70E080E090E00E94852C62961E
:103500000FB6F894DEBF0FBECDBFCF91DF911F91F4
:103510000F9108950F931F93DF93CF93CDB7DEB72D
:1035200029970FB6F894DEBF0FBECDBF8E010D5F99
:103530001F4FC80163E574E00E945538C801AEDB37
:103540009A83898384E190E0BE016F5F7F4F0E9480
:103550000F11C8010E945E3842D829960FB6F89420
:10356000DEBF0FBECDBFCF91DF911F910F910895A8
:103570000F931F93DF93CF93CDB7DEB729970FB685
:10358000F894DEBF0FBECDBF8E010D5F1F4FC80187
:1035900063E574E00E945538C80180DB9A83898313
:1035A000C8010E945E3882E190E0BE016F5F7F4FEC
:1035B0000E940F1114D829960FB6F894DEBF0FBEE3
:1035C000CDBFCF91DF911F910F9108950F931F935E
:1035D000DF93CF93CDB7DEB764970FB6F894DEBF15
:1035E0000FBECDBF8E01095F1F4FC80163E574E0B8
:1035F0000E945538C80152DB9A838983C8010E9412
:103600005E388E01025F1F4FC8016AE574E00E94B8
:103610005538C80143DB9C838B83C8010E945E3808
:1036200089819A819E838D8380E090E0BE016B5FEB
:103630007F4F0E94661129813A818D819E81821778
:10364000930751F02B3031053CF080E090E0BE0153
:103650006F5F7F4F0E940F1182E090E0BE016B5FB1
:103660007F4F0E9466112B813C818D819E81821744
:10367000930751F02B3031053CF082E090E0BE0121
:103680006D5F7F4F0E940F110E94CC1164960FB6A0
:10369000F894DEBF0FBECDBFCF91DF911F910F9188
:1036A0000895EF92FF920F931F93DF93CF93CDB7BF
:1036B000DEB7FC01EDB6FEB6448155814F5F5F4F2A
:1036C0008DB79EB7841B950B0FB6F8949EBF0FBEA7
:1036D0008DBF0DB71EB70F5F1F4FCF01B80120E0A0
:1036E00030E00E94D936C8010E9409030FB6F89451
:1036F000FEBE0FBEEDBECF91DF911F910F91FF90E7
:10370000EF9008952F923F924F925F926F927F9227
:103710008F929F92AF92BF92CF92DF92EF92FF92E1
:103720000F931F93DF93CF93CDB7DEB7A0970FB65C
:10373000F894DEBF0FBECDBF8E010F5F1F4FC801D3
:1037400063E574E00E945538C801ABDF2091140393
:1037500030E040E050E00E94F83C6D8F7E8F8F8F0C
:1037600098A3C8010E945E388E01085F1F4FC801F0
:103770006AE574E00E945538C80193DF2091140374
:1037800030E040E050E00E94F83C1B012C01C801F1
:103790000E945E388E01015F1F4FC80161E674E030
:1037A0000E945538C8017ADAAA2797FDA095BA2F4A
:1037B0002091140330E040E050E0BC01CD010E94B4
:1037C000F83C3B014C015B01C8010E945E388E0150
:1037D0000A5E1F4FC80168E674E00E945538C801B0
:1037E0005DDA7C01C8010E945E3860912903709106
:1037F0002A0380912B0390912C03A3010E94600562
:10380000AC01C7016FEF70E00E9493057C01CC24EE
:10381000B7FCC094DC2CC601B5010E94783B2DECAE
:103820003CEC4CE85FE30E942C3C0E94453B5B0172
:103830006C016D8D7E8D8F8D98A1A2019101850106
:103840000E94400DA0960FB6F894DEBF0FBECDBF0C
:10385000CF91DF911F910F91FF90EF90DF90CF906C
:10386000BF90AF909F908F907F906F905F904F90A0
:103870003F902F9008952F923F924F925F926F92B8
:103880007F928F929F92AF92BF92CF92DF92EF92F0
:10389000FF920F931F93DF93CF93CDB7DEB7A69719
:1038A0000FB6F894DEBF0FBECDBF8E010F5F1F4F66
:1038B000C80163E574E00E945538C801F2DE20912A
:1038C000140330E040E050E00E94F83C6BA37CA37E
:1038D0008DA39EA3C8010E945E388E01085F1F4F12
:1038E000C8016AE574E00E945538C801DADE20910B
:1038F000140330E040E050E00E94F83C1B012C0132
:10390000C8010E945E388E01015F1F4FC80161E649
:1039100074E00E945538C801C1D9AA2797FDA09527
:10392000BA2F2091140330E040E050E0BC01CD01FB
:103930000E94F83C6B017C017AA369A3C8010E9434
:103940005E388E010A5E1F4FC80168E674E00E946F
:103950005538C801A3D998A38F8FC8010E945E383B
:10396000C60162E070E00E94233D4B01CB01880F4D
:10397000991F69A07AA0681A790A8091280381307A
:10398000B1F48DEB93E039D57B018C0181E094E0BB
:1039900034D55B016C016BA17CA18DA19EA1A2011C
:1039A00091010E94110580932E0310922F03209104
:1039B0002E0330912F0322303105F9F4940144276E
:1039C00037FD4095542FEBA0FCA00DA11EA1E21ADB
:1039D000F30A040B150BC301AA2797FDA095BA2F74
:1039E000E80EF91E0A1F1B1F6BA07CA08DA09EA0D5
:1039F000620E731E841E951E3DC023303105C9F42E
:103A00009401442737FD4095542F62015101A21AB9
:103A1000B30AC40AD50AC301AA2797FDA095BA2FF5
:103A2000A80EB91ECA1EDB1E220E331E441E551ED2
:103A300032C0C401AA2797FDA095BA2FA30166271B
:103A400057FD6095762F24303105B9F4EBA0FCA02A
:103A50000DA11EA1E80EF91E0A1F1B1FE41AF50A8C
:103A6000060B170B6BA07CA08DA09EA0681A790A8C
:103A70008A0A9B0A6201510114C05C016D01A20C0B
:103A8000B31CC41CD51CA41AB50AC60AD70A281A26
:103A9000390A4A0A5B0AEBA0FCA00DA11EA137015E
:103AA00048016091290370912A0380912B03909122
:103AB0002C0349A15AA10E946005AC018F8D98A1E9
:103AC0006FEF70E00E9493059E8F8D8FC801B70144
:103AD000A60195010E94410B8D8D9E8D02974CF0A1
:103AE00089A19AA1BC014D8D5E8D20912E030E946B
:103AF0006C0CC401B301A20191010E94410BA69676
:103B00000FB6F894DEBF0FBECDBFCF91DF911F91EE
:103B10000F91FF90EF90DF90CF90BF90AF909F906C
:103B20008F907F906F905F904F903F902F9008956F
:103B30008F929F92AF92BF92CF92DF92EF92FF92BD
:103B40000F931F93DF93CF93CDB7DEB72E970FB6AA
:103B5000F894DEBF0FBECDBF8E010F5F1F4FC801AF
:103B600063E574E00E945538C8019BDD2091140381
:103B700030E040E050E00E94F83C4B015C01C8019D
:103B80000E945E388E01085F1F4FC8016AE574E02D
:103B90000E945538C80185DD2091140330E040E0D3
:103BA00050E00E94F83C6B017C01C8010E945E3825
:103BB0008DEB93E0B501A40126D481E094E0B70138
:103BC000A60121D40E942C0E0E94740A2E960FB6D4
:103BD000F894DEBF0FBECDBFCF91DF911F910F9143
:103BE000FF90EF90DF90CF90BF90AF909F908F901D
:103BF0000895CF93DF93EC0167EA74E00E944B379E
:103C0000882319F00E944315A5C0CE0162E075E03B
:103C10000E944B37882311F05ADA9CC0CE016EEA1D
:103C200074E00E944B37882319F00E94C51592C09A
:103C3000CE0163E375E00E944B37882311F075DBFA
:103C400089C0CE016AE375E00E944B37882311F0EA
:103C500017DB80C0CE0163EC74E00E944B378823F1
:103C600011F009DE77C0CE016AEC74E00E944B3798
:103C7000882311F047DD6EC0CE0161ED74E00E9433
:103C80004B37882311F045D965C0CE016FED74E044
:103C90000E944B37882311F032D85CC0CE0166EE0B
:103CA00074E00E944B37882311F042DF53C0CE01ED
:103CB0006DEE74E00E944B37882311F061D94AC041
:103CC000CE0164EF74E00E944B37882311F0ABD92A
:103CD00041C0CE016BEF74E00E944B37882311F096
:103CE00079DB38C0CE0169E075E00E944B3788234C
:103CF00011F06CDC2FC0CE0165E275E00E944B37FD
:103D0000882319F00E940D1625C0CE016CE275E0E3
:103D10000E944B37882311F02BDC1CC0CE0161E4DC
:103D200075E00E944B37882311F0F4DB13C0CE01FD
:103D300067E175E00E944B37882319F00E94451413
:103D400009C0CE016EE175E00E944B37882319F05F
:103D50000E940F1481E0DF91CF910895CF93DF93FC
:103D6000EC0147DF882329F4CE010E94300D0E9428
:103D7000B70ADF91CF9108956F927F928F929F92B1
:103D8000AF92BF92CF92DF92EF92FF920F931F9369
:103D9000DF93CF93CDB7DEB727970FB6F894DEBF8A
:103DA0000FBECDBF4C01FC0164807580AA24BB24EA
:103DB00000E010E0EE24FF246E010894C11CD11C29
:103DC0003DC0C401B7010E945D368C32A1F5C60129
:103DD000B401A50197010E94F03702301105B9F036
:103DE000033011053CF40115110559F0013011059E
:103DF000C9F40AC00330110569F00430110591F4CB
:103E00000CC08CE494E00BC083E594E008C08AE524
:103E100094E005C081E694E002C088E694E0B60133
:103E20000E94403857010894A11CB11C0F5F1F4F1E
:103E3000C6010E945E380894E11CF11CE614F704E8
:103E40000CF4BFCF0093940327960FB6F894DEBF0F
:103E50000FBECDBFCF91DF911F910F91FF90EF90DB
:103E6000DF90CF90BF90AF909F908F907F906F909A
:103E700008953F924F925F926F927F928F929F929E
:103E8000AF92BF92CF92DF92EF92FF920F931F9368
:103E9000DF93CF93CDB7DEB7C655D0400FB6F894B9
:103EA000DEBF0FBECDBF782E692EAA24BB2414E23C
:103EB000812E912C8C0E9D1E19C08BE997E00E94DB
:103EC0002831182F61E070E080E090E00E94852C9E
:103ED000F401EA0DFB1D10831A3029F48BE997E0F9
:103EE0000E9451310AC00894A11CB11C8BE997E0D3
:103EF0000E94F7301816190604F3B4E24B2E512C29
:103F00004C0E5D1EA40CB51CF5011082872D962D5C
:103F1000B2010E94C0378E010F5F1F4FC80169EFC9
:103F200072E00E94C037872D962DB8010E94CD36D1
:103F30005C01C8010E945E38FFEFAF16FFEFBF06BD
:103F400009F46AC03324339430924805A8E0EA2E7D
:103F5000F12CEC0EFD1EA5014F5F5F4FC701672DD1
:103F6000762D0E9435388E01015F1F4FC801B701C1
:103F70000E945538C80195DB6B017C01C8010E9485
:103F80005E388E010A5E1F4FC801672D762D40E016
:103F900050E095010E94F037872D962DB8010E94C0
:103FA0004038C8010E945E388E01035E1F4FC80171
:103FB000672D762D0E945538C8010E94D0084B010C
:103FC0005C01C8010E945E388C149D04AE04BF04DD
:103FD00019F43092A4031BC08BE997E064E473E00A
:103FE0000E940E338BE997E0B2010E9483358BE982
:103FF00097E06BE373E00E940E338BE997E0B50125
:10400000A4012AE030E00E945A341092A403CE01A9
:1040100008960E945E3804C0109248051092A403CE
:10402000872D962DCA5ADF4F0FB6F894DEBF0FBE0C
:10403000CDBFCF91DF911F910F91FF90EF90DF9057
:10404000CF90BF90AF909F908F907F906F905F9038
:104050004F903F900895AF92BF92CF92DF92EF9230
:10406000FF920F931F93DF93CF93CDB7DEB72797C0
:104070000FB6F894DEBF0FBECDBFB82EA92E0E949A
:10408000512C6B010B2D1A2DC8016CE672E00E94B9
:10409000C0377E010894E11CF11C28C00E94512CFD
:1040A0006C197D09209122033091230326173707CD
:1040B0002CF40E94B70A0E94512C6B01C701D9DE73
:1040C000C801B7010E944038C7010E945E38809144
:1040D0004805882359F08091A403882339F40E946D
:1040E000B10AC8016CE672E00E94D937F8018481F8
:1040F0009581892B99F20E94512C0E94512C60933A
:10410000950370939603809397039093980360931D
:10411000990370939A0380939B0390939C038B2D38
:104120009A2D27960FB6F894DEBF0FBECDBFCF9164
:10413000DF911F910F91FF90EF90DF90CF90BF9094
:10414000AF900895EF92FF920F931F93DF93CF9359
:10415000CDB7DEB727970FB6F894DEBF0FBECDBF41
:104160007C0160EA74E00E940637882369F08E01C2
:104170000F5F1F4FC801B7010E945538C801FCDD11
:10418000C8010E945E3881E027960FB6F894DEBF22
:104190000FBECDBFCF91DF911F910F91FF90EF9098
:1041A0000895CF92DF92FF920F931F93DF93CF93E7
:1041B000CDB7DEB72E970FB6F894DEBF0FBECDBFDA
:1041C0006C018E010F5F1F4FC801B6010E94553868
:1041D000C801B8DFF82EC8010E945E38FF20B9F090
:1041E0008E01085F1F4FC8016DE973E00E945538CA
:1041F000C801B4DDC8010E945E38C6016CE672E0F9
:104200000E94D9371092A4030E94B70A11C08BE90B
:1042100097E064E373E00E940E338BE997E0B60108
:104220000E9494358BE997E066E273E00E94513377
:10423000109294032E960FB6F894DEBF0FBECDBF3A
:10424000CF91DF911F910F91FF90DF90CF90089554
:10425000EF92FF920F931F93DF93CF93CDB7DEB70B
:1042600027970FB6F894DEBF0FBECDBF8E010F5F4C
:104270001F4FC801F0DE8DE9E82E83E0F82EC7015C
:10428000B8010E944038C8010E945E38C70189DF2A
:1042900027960FB6F894DEBF0FBECDBFCF91DF914A
:1042A0001F910F91FF90EF900895AF92BF92CF9220
:1042B000DF92EF92FF920F931F930BE917E0C80173
:1042C00040E051EE60E070E00E947030C8016AE4A6
:1042D00073E00E940E33C8010E9431330E94EF1236
:1042E0000E94C00D2DEBA22E23E0B22E40911503AB
:1042F000509116036091170370911803C50187D27E
:104300004091190350911A0360911B0370911C0393
:10431000C5015ED591E0C92E94E0D92E40911503D8
:10432000509116036091170370911803C6016FD264
:104330004091190350911A0360911B0370911C0363
:10434000C60146D560911E0370911F03882777FD33
:104350008095982F0E94783B209110033091110393
:1043600040911203509113030E94DD3A7B018C01AE
:1043700060910E0370910F03882777FD8095982F29
:104380000E94783B9B01AC01C801B7010E942C3C04
:104390000E94453B7B018C01C501B801A70133D0C8
:1043A000C601B801A7012FD082E994E06FE674E05E
:1043B0000E9440380E94B70A0E94131864EF71E00F
:1043C00080E090E00E94852C1F910F91FF90EF906C
:1043D000DF90CF90BF90AF900895FC012785308982
:1043E0004189528983859485A585B685281B390B1B
:1043F0004A0B5B0BB901CA010895FC016385748502
:10440000858596850895FC0143875487658776875F
:104410004787508B618B728B13AA14AA15AA16AA10
:1044200013A214A215A216A208956F927F928F92E2
:104430009F92AF92BF92CF92DF92EF92FF920F9333
:104440001F93CF93DF93EC01AF84B888C988DA88D3
:104450008B859C85AD85BE85A81AB90ACA0ADB0A78
:104460002B893C894D895E89CA01B9010E942C3C87
:104470007B018C012B8D3C8D4D8D5E8DCA01B90168
:104480000E94753A9B01AC01C801B7010E94DD3A58
:104490000E94453B9B01AC01A114B104C104D104AD
:1044A000B9F462307105810591050CF085C01BA23D
:1044B0001CA21DA21EA280E090E0A0E0B0E08B8BC9
:1044C0009C8BAD8BBE8B1BAA1CAA1DAA1EAA0BC15E
:1044D000EBA8FCA80DA91EA91A141B041C041D049A
:1044E00044F51E141F041006110674F46A157B05AA
:1044F0008C059D05B4F5CD5BDF4F8881C354D0405A
:10450000882309F059C02DC0E114F10401051105FB
:1045100009F452C06A157B058C059D050CF04CC052
:10452000CD5BDF4F8881C354D040813009F044C057
:1045300038C01E141F0410061106DCF488279927C2
:10454000DC018A199B09AC09BD09281739074A07FC
:104550005B073CF4CD5BDF4F8881C354D040813092
:1045600059F588279927DC01821B930BA40BB50B07
:104570001FC0E114F10401051105F1F08827992706
:10458000DC018A199B09AC09BD09281739074A07BC
:104590005B0794F4CD5BDF4F8881C354D040882300
:1045A00059F488279927DC018E199F09A00BB10BBC
:1045B0008BAB9CABADABBEAB6BA87CA88DA89EA80B
:1045C0006114710481049104A9F48FA998ADA9AD77
:1045D000BAAD8BAF9CAFADAFBEAFFE01ED5BFF4F91
:1045E00010821A141B041C041D040CF049C081E045
:1045F000808346C0ABACBCACCDACDEACC601B50173
:1046000020E030E040E050EC0E942C3C7B018C012B
:10461000C401B3010E94783B20E030E040E850E460
:104620000E942C3C20E030E040E85FE30E94753AB5
:104630009B01AC01C801B7010E94DD3A9B01AC01AE
:10464000C601B5010E94753A7B018C016BAF7CAF4E
:104650008DAF9EAFEF96A880B980CA80DB80EF97C0
:104660009501A6010E94283C181624F4D801C70120
:1046700057016D01C501D6018BAF9CAFADAFBEAF89
:104680008BA99CA9ADA9BEA90196A11DB11D8BAB9B
:104690009CABADABBEAB6BAD7CAD8DAD9EAD0E94AA
:1046A0004A3B6BA37CA38DA39EA360E074E284E7E6
:1046B00099E42BAD3CAD4DAD5EAD0E94DD3A9B0162
:1046C000AC016B8B7C8B8D8B9E8BCD5BDF4F8881A0
:1046D000C354D040882339F4DA01C901B0588B8B18
:1046E0009C8BAD8BBE8BDF91CF911F910F91FF9073
:1046F000EF90DF90CF90BF90AF909F908F907F9082
:104700006F900895FC0187859089A189B2898417EB
:104710009507A607B70731F04787508B618B728BDF
:10472000CF0183CE0895FC01DB01CA014385548586
:1047300065857685480F591F6A1F7B1FCF01E2CF21
:10474000CF92DF92EF92FF920F931F93FC0189E5C6
:1047500093E09183808312821386148615861686D1
:104760001786108A118A128A0F2EF0E0CF2EF0E001
:10477000DF2EF0E0EF2EF0E0FF2EF02DC38AD48A7A
:10478000E58AF68A00E010E020E83FE3078B108F0F
:10479000218F328F038F148F258F368F078F10A3B1
:1047A00021A332A313A214A215A216A281E090E0C5
:1047B00094A783A78FEF86A717A210A611A612A60B
:1047C000138214821582168270AB67A752AB41AB7D
:1047D00013AA14AA15AA16AAC7AAD0AEE1AEF2AEC1
:1047E000C3AED4AEE5AEF6AEFF960193119321931E
:1047F00031931082E354F04017821086118612869E
:104800001F910F91FF90EF90DF90CF900895EF925E
:10481000FF920F931F93CF93DF93EC017A018B01EB
:104820006F89788D898D9A8DA80197010E94D93A58
:104830008823D9F1EF8AF88E098F1A8FEF9660E0FE
:1048400074E284E799E4A80197010E94DD3A688345
:1048500079838A839B83EF978BA99CA9ADA9BEA975
:10486000181619061A061B0604F52B893C894D8972
:104870005E89CA01B9010E942C3C7B018C012B8D01
:104880003C8D4D8D5E8DCA01B9010E94753A9B0128
:10489000AC01C801B7010E94DD3A0E94453B6BABF9
:1048A0007CAB8DAB9EABCE01C0DDDF91CF911F9174
:1048B0000F91FF90EF9008954F925F926F927F92C9
:1048C0008F929F92AF92BF92CF92DF92EF92FF9220
:1048D0000F931F93CF93DF932C017A018B01CB01B0
:1048E000BA01F20123893489458956890E94D93A4F
:1048F000882309F455C0F201A788B08CC18CD28CF2
:104900003501460197FA909497F89094C801B70141
:10491000A40193010E94D93A88231CF484017301F5
:104920000AC0C801B701A60195010E94283C1816CB
:1049300014F486017501C801B70120E030E040E0C1
:1049400050E00E94D93A882331F4F20113A214A254
:1049500015A216A220C060E074E284E799E4A801E1
:1049600097010E94DD3A9F770E944A3BF20163A3C0
:1049700074A385A396A3E201CD5BDF4F1882C80123
:10498000B70120E030E040E050E00E94283C1816DB
:1049900014F481E08883F201E38AF48A058B168B94
:1049A000DF91CF911F910F91FF90EF90DF90CF900B
:1049B000BF90AF909F908F907F906F905F904F903F
:1049C0000895FC012389348945895689B901CA01B2
:1049D0000895DC0112968C911297833001F1843096
:1049E00040F4813089F0ED91FC911197823098F478
:1049F00007C0863011F1883049F1843079F516C04E
:104A00000480F581E02D1FC0ED91FC911197068087
:104A1000F781E02D18C00084F185E02D14C0ED91E0
:104A2000FC9111970284F385E02D0DC0ED91FC916E
:104A300011970484F585E02D06C0ED91FC91119746
:104A40000684F785E02DCD0109950895ED91FC913F
:104A500011970088F189E02DCD0109950895CF9334
:104A6000DF93EC016B897C898D899E8920E030E0A1
:104A700040E050E00E94283C18161CF4EFA5F8A96D
:104A800002C0E9A9FAA90995DF91CF910895DC0147
:104A900070E06370707061307105A9F0623071056B
:104AA0001CF4672B41F0089562307105A1F063306A
:104AB000710501F518C0ED91FC9111970190F081FD
:104AC000E02D62E00EC0ED91FC9111970190F08114
:104AD000E02D63E006C0ED91FC910190F081E02DA6
:104AE00061E009950895ED91FC910190F081E02D30
:104AF00060E009950895DC01862F63E00E94173D70
:104B0000913071F0913018F09230E9F413C0ED91CA
:104B1000FC9111970190F081E02DCD0164E008C077
:104B2000ED91FC9111970190F081E02DCD0161E0B4
:104B300009950895ED91FC9111970190F081E02D78
:104B4000CD0162E009950895DC0170E0637070703A
:104B500061307105A9F0623071051CF4672B41F0DA
:104B6000089562307105A1F06330710501F518C038
:104B7000ED91FC9111970190F081E02D65E00EC060
:104B8000ED91FC9111970190F081E02D66E006C057
:104B9000ED91FC910190F081E02D6AE00995089576
:104BA000ED91FC910190F081E02D69E00995089567
:104BB000DC01862F66E00E94173D923009F19330A8
:104BC00030F4992359F0913009F03FC010C094306F
:104BD00049F19430F0F09530C1F52EC0ED91FC9183
:104BE00011970190F081E02DCD0164E023C0ED919B
:104BF000FC9111970190F081E02DCD0165E01AC084
:104C0000ED91FC9111970190F081E02DCD0161E0D3
:104C100011C0ED91FC9111970190F081E02DCD0133
:104C200063E008C0ED91FC9111970190F081E02DB7
:104C3000CD0162E009950895ED91FC9111970190E5
:104C4000F081E02DCD0166E009950895DC0170E06A
:104C5000677070706330710591F1643071054CF4C8
:104C600061307105E1F0623071050CF5672B79F068
:104C700008956530710599F16530710544F166302C
:104C80007105A9F16730710509F040C038C0ED9198
:104C9000FC9111970190F081E02D61E02EC0ED9123
:104CA000FC9111970190F081E02D65E026C0ED9117
:104CB000FC9111970190F081E02D64E01EC0ED9110
:104CC000FC9111970190F081E02D66E016C0ED9106
:104CD000FC9111970190F081E02D62E00EC0ED9102
:104CE000FC9111970190F081E02D6AE006C0ED91F2
:104CF000FC910190F081E02D68E009950895ED9117
:104D0000FC910190F081E02D69E009950895CF9222
:104D1000DF92EF92FF920F931F93CF93DF93FC01EB
:104D20002281243029F0283019F092E0D92E02C0D7
:104D300084E0D82E8F01C0E0D0E0E62EFF24CC2402
:104D4000C394F8012381C7010C2E02C09595879565
:104D50000A94E2F7678180FD6C25822F4ED7219659
:104D60000F5F1F4FCD1568F3DF91CF911F910F910A
:104D7000FF90EF90DF90CF900895CF93DF93EC01F9
:104D8000E881F9810190F081E02DCD5BDF4F8881D2
:104D9000C354D040882311F461E001C063E0CE0128
:104DA00009958BA59CA50AD6E881F9810190F0812F
:104DB000E02DCD5BDF4F8881C354D040882311F4B0
:104DC00060E001C062E0CE010995DF91CF910895C6
:104DD0006F927F928F929F92AF92BF92CF92DF920B
:104DE000EF92FF920F931F93CF93DF93EC013A0161
:104DF0004B01CB01BA0120E030E040E050E00E94DE
:104E0000D93A882309F440C0AB8CBC8CCD8CDE8CA5
:104E1000C601B501A40193010E94D93A8823A1F1EA
:104E20006BA97CA98DA99EA90E94783B7B018C016E
:104E3000C601B501A40193010E94DD3A9B01AC01BA
:104E4000C801B7010E942C3C0E94453B6BAB7CAB78
:104E50008DAB9EAB60E070E080E090E4A401930134
:104E60000E94DD3A0E94933C20E034E244E759E49A
:104E70000E942C3C6FAB78AF89AF9AAF6B8E7C8E63
:104E80008D8E9E8ECE01D1DADF91CF911F910F9141
:104E9000FF90EF90DF90CF90BF90AF909F908F905A
:104EA0007F906F900895EF92FF920F931F93CF938F
:104EB000DF93EC018BA19CA1ADA1BEA10097A10540
:104EC000B10509F44BC0FBD47B018C012FA138A59F
:104ED00049A55AA58BA19CA1ADA1BEA1820F931F8C
:104EE000A41FB51F82179307A407B50730F0E81673
:104EF000F9060A071B0758F405C0E816F9060A0761
:104F00001B0760F1E216F3060407150738F5CD5BC1
:104F1000DF4F8881C354D0402B853C854D855E850D
:104F2000813029F42F5F3F4F4F4F5F4F04C0215016
:104F30003040404050402B873C874D875E87E8815A
:104F4000F9816B8567700280F381E02DCE010995B0
:104F5000EFA2F8A609A71AA781E001C080E0DF91BF
:104F6000CF911F910F91FF90EF900895CF93DF9312
:104F7000FC01278530894189528983859485A585DF
:104F8000B685281739074A075B0711F480E00EC081
:104F9000EF01CD5BDF4F82179307A407B5071CF421
:104FA00081E0888301C01882CF017DDFDF91CF913E
:104FB0000895CF93DF93EC0176DF882311F0CE01C3
:104FC00034DA81E0DF91CF910895CF93DF93EC0144
:104FD0006B897C898D899E8920E030E040E050E03B
:104FE0000E94D93A882369F42F85388949895A89DA
:104FF0008B859C85AD85BE85281739074A075B07D9
:1050000019F0CE01D6DFE4CFDF91CF9108950F9351
:105010001F938C0177DBC801D8DF1F910F91089592
:10502000FC01809149058C3090F482838F5F8093DE
:105030004905815090E0FC01EE0FFF1FE80FF91FBA
:10504000E65BFA4F88EB9BE09283818308958FEFB4
:1050500082830895DC0112968C91129790E0FC01F6
:10506000EE0FFF1FE80FF91FE65BFA4F80818F7B81
:10507000808312968C916CE00E94173D90E0AC0109
:10508000440F551F480F591F440F551F440F551FFC
:1050900020E030E0C901840F951FFC01EE0FFF1FD7
:1050A000E80FF91FE65BFA4F808186FD05C02F5F90
:1050B0003F4F2C30310571F70895FC0122812C30CF
:1050C000B8F58081992787FD909548E850E0481B06
:1050D000590B440F551F440F551F6417750784F073
:1050E0008181992787FD909548E552E0481B590B2F
:1050F000440F551F440F551F641775070CF4AB017F
:1051000042505040CA01AA2797FDA095BA2F880F98
:10511000991FAA1FBB1F4FB7F89430E0F901EE0F9B
:10512000FF1FE20FF31FE65BFA4F928381834FBFAD
:105130000895AF92BF92CF92DF92EF92FF920F93BA
:105140001F93CF93DF93EC019B0182E060327807DD
:105150000CF048C077FF03C020E030E005C0653B9D
:10516000710514F024EB30E000D000D0B90188279D
:1051700077FD8095982F2881332727FD3095E8E823
:10518000AE2EB12CA21AB30AAA0CBB1CAA0CBB1CD3
:10519000CC24B7FCC094DC2CE981FF27E7FDF09517
:1051A00028E532E02E1B3F0B220F331F220F331F47
:1051B000442737FD4095542FEDB7FEB72183328346
:1051C0004383548320E030E040E050E004EBE02EE5
:1051D000F12C012D112D0E94D8359B010F900F90BD
:1051E0000F900F90CE01B90168DFDF91CF911F9131
:1051F0000F91FF90EF90DF90CF90BF90AF90089508
:10520000CF92DF92EF92FF921F93CF93DF93EC0147
:10521000162F7A0169018A818C3008F063C0862FCD
:1052200061E038D48A8190E0FC01EE0FFF1FE80FA7
:10523000F91FE65BFA4F1F738081807C812B80838E
:1052400080E292E08E199F0964E070E00E94233DA5
:10525000688380E699E08C199D0964E070E00E9403
:10526000233D6983AA818A2F6CE00E94173D682F35
:1052700070E0AB01440F551F460F571F440F551FD9
:10528000440F551F20E030E0C901840F951FFC0139
:10529000EE0FFF1FE80FF91FE65BFA4F808186FDD6
:1052A00015C02F5F3F4F2C30310571F724C010928D
:1052B000800082E08093810010928500109284002B
:1052C000B19A80916F00826080936F008A2F90E086
:1052D000FC01EE0FFF1FE80FF91FE65BFA4F80811C
:1052E000806480838A81DF91CF911F91FF90EF903E
:1052F000DF90CF900895672BD1F2E8CF40E252E0E3
:1053000020E639E07DCF1F920F920FB60F92112445
:105310002F933F934F935F936F937F938F939F93BD
:10532000AF93BF93EF93FF9380916E0587FF05C006
:1053300010928500109284002AC020916E053327B8
:1053400027FD30958091490590E028173907FCF436
:1053500080916E05992787FD9095FC01EE0FFF1F48
:10536000E80FF91FE65BFA4F808186FF10C080913D
:105370006E05992787FD9095FC01EE0FFF1FE80F42
:10538000F91FE65BFA4F80818F7360E036D480911D
:105390006E058F5F80936E0520916E05332727FD84
:1053A00030958091490590E0281739070CF04DC0E1
:1053B00080916E058C300CF048C0209184003091B3
:1053C000850080916E05992787FD9095FC01EE0F71
:1053D000FF1FE80FF91FE65BFA4F81819281280FCA
:1053E000391F309389002093880080916E0599279A
:1053F00087FD9095FC01EE0FFF1FE80FF91FE65B9C
:10540000FA4F808186FF2AC080916E05992787FD1B
:105410009095FC01EE0FFF1FE80FF91FE65BFA4FB6
:1054200080818F7361E0E9D319C080E49CE905C0F5
:1054300080918400909185000496909389008093D8
:1054400088008FEF80936E0509C080918400909151
:105450008500049680549C4940F3EACFFF91EF9178
:10546000BF91AF919F918F917F916F915F914F917C
:105470003F912F910F900FBE0F901F901895F999A3
:10548000FECF72BD61BDF89A80B50895F999FECF3F
:105490001FBA72BD61BD40BD0FB6F894FA9AF99A71
:1054A0000FBE0895109270050895E0EBF0E0908132
:1054B0009368908387708093B1001092B3008BE063
:1054C00061E0E8C2E0EBF0E0908193629083877046
:1054D0008093B1001092B40083E061E0DBC2CF930F
:1054E000DF938CE060E089D388E060E086D3C7E09A
:1054F000D0E084E060E081D38091710590E00C2ED3
:1055000002C0959587950A94E2F780FF03C088E072
:1055100061E002C088E060E070D384E061E06DD3B8
:1055200021978FEFCF3FD80721F78CE061E065D35B
:10553000DF91CF9108950F931F93CF93DF93EC01E9
:10554000142F8A81813029F404E042E058E070E1B0
:1055500008C0823011F080E0DFC000E241E050E896
:1055600070E4113041F49B85892F86958695869548
:1055700080FF10C009C01230A1F49B85892F869549
:105580008695869580FD06C0613011F4985F05C050
:10559000985003C0613019F4905F9B8752C09051BE
:1055A000FCCF133041F48B85613011F4885F01C06A
:1055B00088508B8746C0143009F043C08B8561301A
:1055C00011F48F5F01C081508B87AB85AF73AB87C0
:1055D000A03148F4B0E0EEE4F3E0EA1BFB0B2081DD
:1055E000A25CBC4F19C08A2F8051803148F48A2FA9
:1055F00090E0FC01E25DFC4F2081EEE5F3E01DC090
:105600008A2F8052803150F4B0E0EEE6F3E0EA1BDE
:10561000FB0B2081A25EBC4F8C9115C08A2F80535A
:10562000803118F080E020E00EC08A2F90E0FC016D
:10563000E25FFC4F2081EEE7F3E0E81BF90B80818D
:1056400002C08FEF2FEF3B853F733B879A819130EC
:1056500029F42093B3008093B40004C0923011F475
:1056600027BD88BD242F202B672F652B962F922BCB
:10567000909580917105982390937105143019F5D8
:10568000303118F4922B90937105832F8051803123
:1056900030F4452B80917105842B80937105832F05
:1056A0008052803130F4572B80917105852B809387
:1056B00071053053303160F5702B80917105872B67
:1056C0008093710525C0832F8695869586958330B6
:1056D000B1F0843028F4813071F0823070F409C068
:1056E000853081F0853060F0863079F0873081F444
:1056F0000BC0902B0BC0922B09C0942B07C0542BCE
:10570000952B04C0962B02C0702B972B909371059C
:1057100080E795E0E4DE8B85DF91CF911F910F91BB
:1057200008950F931F938C018CE061E0B3D187E063
:1057300061E0B0D188E061E0ADD184E061E0AAD160
:1057400010927105C801CBDE87E060E056D21F9150
:105750000F910895DF92EF92FF920F931F938C01A8
:105760007B01D42E80E795E0DCDFF801F182E08256
:10577000D2821386F1E0DF16F1F480917105817E0B
:105780008093710580E795E0AADE8BE061E082D12D
:1057900083E061E07FD18BE061E02FD283E061E0C4
:1057A0002CD281E082DE81E08DDE8FEF8093B3002A
:1057B0008093B40028C082E0D81629F58091710545
:1057C0008E718093710580E795E089DE85E061E068
:1057D00061D186E061E05ED185E061E00ED286E0D5
:1057E00061E00BD284B5836884BD17BC86E061E0BC
:1057F00051D184B5836284BD18BC85E061E04AD193
:105800008FEF87BD88BD1F910F91FF90EF90DF90C4
:1058100008951F920F920FB60F9211242F933F936A
:105820008F939F93AF93BF93809176059091770567
:10583000A0917805B091790530917A050196A11D66
:10584000B11D232F2D5F2D3720F02D570196A11D5F
:10585000B11D20937A058093760590937705A093E8
:105860007805B09379058091720590917305A091A8
:105870007405B09175050196A11DB11D8093720547
:1058800090937305A0937405B0937505BF91AF9184
:105890009F918F913F912F910F900FBE0F901F906E
:1058A00018958FB7F894209176053091770540913F
:1058B0007805509179058FBFB901CA0108959FB746
:1058C000F8942091720530917305409174055091C0
:1058D000750586B5A89B06C08F3F21F02F5F3F4F0F
:1058E0004F4F5F4F9FBF542F432F322F2227280F38
:1058F000311D411D511D82E0220F331F441F551FD2
:105900008A95D1F7B901CA0108959B01AC017FB70F
:10591000F8948091720590917305A0917405B091EF
:10592000750566B5A89B05C06F3F19F00196A11DCE
:10593000B11D7FBFBA2FA92F982F8827860F911DE1
:10594000A11DB11D62E0880F991FAA1FBB1F6A9598
:10595000D1F7BC012DC0FFB7F894809172059091EA
:105960007305A0917405B0917505E6B5A89B05C0B7
:10597000EF3F19F00196A11DB11DFFBFBA2FA92F4E
:10598000982F88278E0F911DA11DB11DE2E0880F71
:10599000991FAA1FBB1FEA95D1F7861B970B885E3C
:1059A0009340C8F2215030404040504068517C4FF5
:1059B000211531054105510571F60895019739F01A
:1059C000880F991F880F991F02970197F1F7089583
:1059D000789484B5826084BD84B5816084BD85B5CA
:1059E000826085BD85B5816085BDEEE6F0E0808191
:1059F00081608083E1E8F0E01082808182608083B2
:105A0000808181608083E0E8F0E080818160808334
:105A1000E1EBF0E0808184608083E0EBF0E0808166
:105A200081608083E1E9F0E0808182608083808111
:105A300081608083E0E9F0E0808181608083E1EA39
:105A4000F0E0808182608083808181608083E0EAF1
:105A5000F0E0808181608083E1E2F1E0808182601A
:105A60008083808181608083E0E2F1E080818160D9
:105A70008083EAE7F0E080818460808380818260B7
:105A800080838081816080838081806880831092A0
:105A9000C1000895CF93DF93482F50E0CA0183518E
:105AA0009C4FFC01349149555C4FFA018491882345
:105AB00069F190E0880F991FFC01E75AFC4FA5910E
:105AC000B491FC01ED58FC4FC591D491662351F47B
:105AD0002FB7F8948C91932F909589238C9388817C
