:100000000C9490010C94B8010C94B8010C94B801B4
:100010000C94B8010C94B8010C94B8010C94B8017C
:100020000C94B8010C94B8010C94B8010C948E2275
:100030000C94B8010C94B8010C94B8010C94B8015C
:100040000C94642A0C94B8010C94272D0C94592D0F
:100050000C94B8010C94B8010C94B8010C94B8013C
:100060000C944A260C94B8011E1C251C2C1C331C15
:100070003A1C511C411C511C481CC11CC51CC91CEC
:10008000CD1CD11CD51CD91C6D61784C656E677474
:10009000683A2000506F776572696E6720646F77E9
:1000A0006E2E004C696E65206E6F74206F6E20702E
:1000B0006167652E20536B697070696E6720697483
:1000C0002E005468697320706F696E742066616CCD
:1000D0006C73206F75747369646520746865206142
:1000E000726561206F662074686973206D61636852
:1000F000696E652E20536B697070696E6720697434
:100100002E006D6D004368616E6765642050656EFA
:1001100020776964746820746F20004E65772061D1
:100120006363656C3A20004E6577206D61782073BB
:10013000706565643A2000504753504545442C0093
:1001400050474C4946542C005047535445504D5548
:100150004C5449504C4945522C005047535445503B
:10016000535045525245562C0050474D4D50455224
:100170005245562C00504753495A452C00290070CF
:1001800061676548656967687420696E2073746586
:100190007073202800526563616C6320002900524F
:1001A0006563616C6320706167655769647468207A
:1001B000696E2073746570732028002900292C2033
:1001C00073746570735065724D4D202800526563DD
:1001D000616C63206D6D50657253746570202800EA
:1001E0004C6F616465642073746570206D756C7408
:1001F00069706C6965723A004C6F61646564207562
:100200007020706F733A004C6F6164656420646F96
:10021000776E20706F733A004C6F61646564207371
:100220007465707320706572207265763A004C6F49
:1002300061646564206D6D5065725265763A004C5C
:100240006F61646564206865696768743A004C6F23
:10025000616465642077696474683A00206E6F7425
:10026000207265636F676E697365642E0052454145
:1002700044590029206E6F74207061727365642E7A
:1002800000436F6D6D20280000000008000201008F
:100290000003040700000000000000000102040841
:1002A00010204080010204081020010204081020E0
:1002B000040404040404040402020202020203030C
:1002C0000303030300000000250028002B000000AA
:1002D0000000240027002A004E414E494E4954593F
:1002E000494E46CDCCCC3D0AD7233C17B7D1387701
:1002F000CC2B329595E6241FB14F0A000020410017
:1003000000C84200401C4620BCBE4CCA1B0E5AAE60
:10031000C59D7400F90B2D1484166825892DFF0CDA
:1003200011241FBECFEFD8E0DEBFCDBF12E0A0E0AA
:10033000B1E0EEEDF2E702C005900D92A434B107F2
:10034000D9F727E0A4E4B2E001C01D92A93FB207AB
:10035000E1F713E0CEE1D3E004C02297FE010E9452
:10036000A634C431D107C9F70E94CD2D0C9462394F
:100370000C94000044E061E08091D0029091D102A1
:100380000C94902844E062E08091D0029091D102D8
:100390000C94902844E061E08091CE029091CF02CD
:1003A0000C94902844E062E08091CE029091CF02BC
:1003B0000C949028CF92DF92EF92FF920F931F93AD
:1003C000CF93DF93CDB7DEB7BC01EDB6FEB6FC012F
:1003D00001900020E9F73197E81BF90B8DB79EB724
:1003E0008E1B9F0B0FB6F8949EBF0FBE8DBF0DB72F
:1003F0001EB70F5F1F4FC8010E94243761EC71E0E8
:10040000C8010E940D378C011092D8031092CA03C4
:100410001092BC031092AE03D12CC12CD11004C099
:10042000B80186EE93E03CC061EC71E080E090E0C2
:100430000E940D378C01009741F0BC018CEB91E0DC
:100440000E943937892B09F4C39492E0D916A1F0A0
:100450009D1520F081E0D81641F024C093E0D91614
:1004600091F084E0D816B1F01DC001151105D1F04E
:10047000B80188ED93E014C00115110599F0B80199
:100480008AEC93E00DC00115110561F0B8018CEB09
:1004900093E006C00115110529F0B8018EEA93E03A
:1004A0000E942437D39496E0D912B8CFC092AD03FE
:1004B0000FB6F894FEBE0FBEEDBEDF91CF911F9137
:1004C0000F91FF90EF90DF90CF900895CF93DF933F
:1004D000EC016CEB71E00E943937FC0114826CEB8B
:1004E00071E00E941B37892B29F4CE010E94DA01AA
:1004F00081E001C080E0DF91CF9108956DE672E068
:1005000086E597E00C946A2ECF93DF93EC0161E1CE
:1005100071E086E597E00E944D2EBE0186E597E0EA
:100520000E943F2E6CE572E086E597E0DF91CF9167
:100530000C946A2E8AE892E09093380180933701F8
:1005400090933601809335018FE590E090933401CC
:100550008093330180E991E09093320180933101DF
:1005600081E08093300160E476E082ED92E00E94C9
:100570007F2764EF71E080E090E00C94DD2ACF9358
:10058000DF93C0E0D0E04AE050E0BE0186E597E0AE
:100590000E94312F6DE571E086E597E00E944D2EB7
:1005A000BE018CE896E00E9490244AE050E0682F5B
:1005B00086E597E00E94772F2196C832D10519F77A
:1005C000DF91CF91089564E170E08CE896E00E949D
:1005D000902480933D01811104C08091300180936B
:1005E0003D0160EE71E086E597E00E941A2E4AE038
:1005F00050E060913D0186E597E00C94772F0E94D2
:10060000BF0265E771E086E597E00E941A2E6091CF
:100610003B0170913C014AE050E086E597E00E9482
:10062000312F61EC71E086E597E00E944D2E6091DC
:10063000390170913A014AE050E086E597E00E9466
:10064000312F6CEB71E086E597E00E947C2E69E625
:1006500071E086E597E00E941A2E40913E0150918C
:100660003F01609140017091410122E030E086E558
:1006700097E00E9479306CEB71E086E597E00E948C
:100680007C2E6AE571E086E597E00E941A2E609163
:100690004201709143014AE050E086E597E00E94F4
:1006A000312F6CEB71E086E597E00E947C2E68E4C8
:1006B00071E086E597E00E941A2E4AE050E06091D2
:1006C0003D0186E597E00E94702F6CEB71E086E5B6
:1006D00097E00E947C2E60E471E086E597E00E943E
:1006E0001A2E60914401709145014AE050E086E580
:1006F00097E00E94312F61EC71E086E597E00E945F
:100700004D2E60914601709147014AE050E086E528
:1007100097E00E94312F6CEB71E086E597E00E9434
:100720007C2E67E371E086E597E00E941A2E4091E7
:100730002C0150912D0160912E0170912F0122E02A
:1007400030E086E597E00E94793061EC71E086E563
:1007500097E00E944D2E409128015091290160910F
:100760002A0170912B0122E030E086E597E00E949B
:1007700079306CEB71E086E597E00C947C2EAB0150
:10078000BC0140932C0150932D0160932E01709376
:100790002F018AE892E00E94482140912C0150915B
:1007A0002D0160912E0170912F0186E492E00E944C
:1007B000482167E271E086E597E00E941A2E409199
:1007C0002C0150912D0160912E0170912F0122E09A
:1007D00030E086E597E00C947B30AB01BC014093A0
:1007E00028015093290160932A0170932B018AE814
:1007F00092E00E94AD214091280150912901609121
:100800002A0170912B0186E492E00E94AD216BE1F8
:1008100071E086E597E00E941A2E409128015091E0
:10082000290160912A0170912B0122E030E086E5D8
:1008300097E00C947B3088ED93E00E94BC36609387
:10084000210170932201809323019093240165E09C
:1008500071E086E597E00E941A2E409121015091A7
:100860002201609123017091240122E030E086E5AD
:1008700097E00E94793062E071E086E597E00C94A1
:100880006A2E4F925F926F927F928F929F92AF9259
:10089000BF92CF92DF92EF92FF920F931F93CF936D
:1008A000DF93CDB7DEB728970FB6F894DEBF0FBE43
:1008B000CDBF6D837E838F83988749015A0167017D
:1008C0007801672B682B692B09F494C0C501B4012A
:1008D0000E9497332B013C0120E030E0A901C501C3
:1008E000B4010E94F13187FF04C077FA709477F861
:1008F0007094A7019601C701B6010E948D316983EA
:100900007A838B839C839B01AC01C301B2010E945B
:10091000F5312B013C016D817E818F8198850E948C
:1009200090329B01AC01C301B2010E94F1314090B1
:100930002C0150902D0160902E0170902F0120E02D
:1009400030E0A90187FF23C0C501B4010E94F13145
:10095000811107C069817A818B819C810E94FE335D
:100960000DC0A5019401C701B6010E94F5319B019C
:10097000AC015F77C501B4010E948D316B017C0130
:10098000A30192010E9493331816CCF12EC0C50129
:10099000B4010E94F13181110DC069817A818B818E
:1009A0009C810E94FE336B017C01F7FAF094F7F80A
:1009B000F0940FC0A5019401C701B6010E94F53162
:1009C0009B01AC015F77C501B4010E948C316B01C2
:1009D0007C0177FA709477F87094A3019201C701B3
:1009E000B6010E94F13187FD0AC05C2D4D2D3E2DD0
:1009F0002F2D09C050E040E030E020E004C0542D2D
:100A0000452D362D272D652F742F832F922F289655
:100A10000FB6F894DEBF0FBECDBFDF91CF911F910F
:100A20000F91FF90EF90DF90CF90BF90AF909F908D
:100A30008F907F906F905F904F900895CF92DF924C
:100A4000EF92FF920F931F93CF93DF93EC018B01F3
:100A50006A0169E070E085E094E00E94E423EE24FE
:100A6000D7FCE094FE2CC017D107CCF4BE0185E082
:100A700094E00E942B24C701B6010E94DD2A219632
:100A80000C171D079CF785E094E0DF91CF911F9133
:100A90000F91FF90EF90DF90CF900C94EA23BE016E
:100AA00085E094E00E942B24C701B6010E94DD2A54
:100AB0002197C017D1079CF7E6CFCF93DF93909192
:100AC000AD03809104049230C0F0882329F0C091D6
:100AD0004601D091470104C0C0914401D091450125
:100AE00088ED93E00E94C0369093470180934601C1
:100AF00043E050E0BC01CE010CC081110CC06091FC
:100B000046017091470143E050E08091440190918B
:100B100045010E941E0581E080930404DF91CF917E
:100B20000895CF93DF939091AD03809104049230A8
:100B3000C0F0882329F0C0914601D091470104C03C
:100B4000C0914401D091450188ED93E00E94C036E8
:100B5000909345018093440143E050E0BC01CE01F5
:100B60000CC0882361F0609144017091450143E01D
:100B700050E080914601909147010E941E0510921D
:100B80000404DF91CF9108958F929F92AF92BF920C
:100B9000CF92DF92EF92FF9269017A019B01AC0143
:100BA0000E9497334B015C01A7019601C701B60172
:100BB0000E9497339B01AC01C501B4010E948D31A5
:100BC000FF90EF90DF90CF90BF90AF909F908F906D
:100BD0000C94FE33CF93DF9300D000D0CDB7DEB7B7
:100BE0008091F0039091F103A091F203B091F3038F
:100BF000892B8A2B8B2B09F044C06091F4037091F0
:100C0000F5038091F6039091F7030E9490329B01C7
:100C1000AC016091F8037091F9038091FA0390910F
:100C2000FB0329833A834B835C830E9490322981A2
:100C30003A814B815C810E94C40520E030E040E0B5
:100C40005FE30E948D310E945D326093F0037093E8
:100C5000F1038093F2039093F30368E870E086E574
:100C600097E00E941A2E4091F0035091F103609199
:100C7000F2037091F3032AE030E086E597E00E94EA
:100C8000512F6091F0037091F1038091F2039091E4
:100C9000F3030F900F900F900F90DF91CF91089575
:100CA0008F929F92AF92BF92CF92DF92EF92FF927C
:100CB0004B015C0169017A016091F8037091F903BD
:100CC0008091FA039091FB030E949032A501940158
:100CD0000E948C319B01AC010E9497334B015C0157
:100CE000A7019601C701B6010E9497339B01AC0191
:100CF000C501B4010E948D31FF90EF90DF90CF903D
:100D0000BF90AF909F908F900C94FE338091200104
:100D10008823C1F160E671E086E597E00E944D2EE0
:100D20008AE892E00E94B01E20913D0130E040E050
:100D300050E00E948534BA01A9012AE030E086E53E
:100D400097E00E94E72E61EC71E086E597E00E9453
:100D50004D2E86E492E00E94B01E20913D0130E0CD
:100D600040E050E00E948534BA01A9012AE030E059
:100D700086E597E00E94E72E6CEB71E086E597E050
:100D80000C947C2E08954F925F926F927F928F9277
:100D90009F92AF92BF92CF92DF92EF92FF92CF934A
:100DA000DF9300D000D0CDB7DEB74B015C01290145
:100DB0003A016091F8037091F9038091FA039091E0
:100DC000FB030E9490326B017C019B01AC010E94ED
:100DD000973369837A838B839C83A3019201C30138
:100DE000B2010E9497339B01AC0169817A818B81AA
:100DF0009C810E948C312B013C01A5019401C5010D
:100E0000B4010E9497339B01AC01C301B2010E945F
:100E10008D314B015C01A7019601C701B6010E940B
:100E20008D319B01AC01C501B4010E94F5310F90D9
:100E30000F900F900F90DF91CF91FF90EF90DF9088
:100E4000CF90BF90AF909F908F907F906F905F906A
:100E50004F9008958F929F92AF92BF92CF92DF9260
:100E6000EF92FF926B017C01CA01B9010E94973396
:100E70004B015C01A7019601C701B6010E9497339F
:100E80009B01AC01C501B4010E948C31FF90EF9031
:100E9000DF90CF90BF90AF909F908F900C94FE33D7
:100EA0000F931F93CF93DF938C01EB01BC018CE870
:100EB00096E00E9490248883B8016F5F7F4F8CE892
:100EC00096E00E949024898382E090E0DF91CF91A8
:100ED0001F910F9108956BE371E080E090E00E9414
:100EE000500780913B0190913C011816190644F07F
:100EF000809137019091380190933C0180933B01A0
:100F00006EE472E086E597E00E941A2E60913B0144
:100F100070913C014AE050E086E597E00E94392F4D
:100F200069E371E082E090E00E945007809139010E
:100F300090913A011816190644F08091350190916C
:100F4000360190933A01809339016FE372E086E5B0
:100F500097E00E941A2E6091390170913A014AE09F
:100F600050E086E597E00C94392F64E471E08AE262
:100F700090E00E945007809144019091450197FFB5
:100F800006C08AE590E0909345018093440167E0B4
:100F900072E086E597E00E941A2E609144017091FC
:100FA00045014AE050E086E597E00E94392F66E46B
:100FB00071E08CE290E00E94500780914601909190
:100FC000470197FF06C084EB90E090934701809320
:100FD000460168EF71E086E597E00E941A2E609165
:100FE0004601709147014AE050E086E597E00C9495
:100FF000392FEF92FF920F931F93CF93DF937C01D2
:101000008B01C0E0D0E0BE016E0D7F1D8CE896E044
:101010000E949024F80181938F012196C430D1055C
:1010200091F784E090E0DF91CF911F910F91FF90B5
:10103000EF9008956EE371E08EE090E00E94F90772
:1010400020E030E040E85FE360913E0170913F01B5
:1010500080914001909141010E94F13187FF12C0BF
:101060006091330170913401882777FD8095982F26
:101070000E94903260933E0170933F018093400143
:10108000909341016EE272E086E597E00E941A2E8D
:1010900040913E0150913F016091400170914101AA
:1010A00022E030E086E597E00E947B3062E471E068
:1010B00082E190E00E9450078091420190914301AB
:1010C0001816190644F080913101909132019093E5
:1010D00043018093420168E172E086E597E00E9457
:1010E0001A2E60914201709143014AE050E086E57A
:1010F00097E00C94392F6CE271E086E190E00E9459
:10110000F90760912C0170912D0180912E01909131
:101110002F010E945D321616170664F080E090E001
:10112000A8E4B4E480932C0190932D01A0932E01A8
:10113000B0932F0168E271E08AE190E00E94F90724
:10114000609128017091290180912A0190912B01D1
:101150000E945D321616170664F080E090E0A8E465
:10116000B4E48093280190932901A0932A01B093BD
:101170002B0108958F929F92AF92BF92CF92DF92F0
:10118000EF92FF920E946B070E941A080E94E302EE
:101190000E94B5070E947B0861E271E08EE190E059
:1011A0000E94F90727E137EB41ED58E360912101F7
:1011B0007091220180912301909124010E94F131CC
:1011C00087FF0CC08DEC9CECACE4BFE38093210165
:1011D00090932201A0932301B093240180903E01BB
:1011E00090903F01A0904001B0904101A091420138
:1011F000B091430120913D0130E00E94B9340E943A
:1012000090326B017C019B01AC01C501B4010E94CD
:10121000F53160930004709301048093020490936D
:101220000304A5019401C701B6010E94F531609342
:10123000FC037093FD038093FE039093FF036DEC1A
:1012400071E086E597E00E941A2E409100045091CB
:101250000104609102047091030422E030E086E50D
:1012600097E00E9479306DEB71E086E597E00E948F
:101270001A2E4091FC035091FD036091FE03709182
:10128000FF0322E030E086E597E00E9479306BEBC7
:1012900071E086E597E00E946A2E60913B017091B3
:1012A0003C01882777FD8095982F0E9490322091ED
:1012B000FC033091FD034091FE035091FF030E9417
:1012C00097330E945D326093F8037093F903809323
:1012D000FA039093FB036FE971E086E597E00E94C3
:1012E0001A2E4091F8035091F9036091FA0370911E
:1012F000FB032AE030E086E597E00E94E72E6DE9E7
:1013000071E086E597E00E946A2E60913901709144
:101310003A01882777FD8095982F0E94903220917E
:10132000FC033091FD034091FE035091FF030E94A6
:1013300097330E945D326093F4037093F5038093BA
:10134000F6039093F70365E971E086E597E00E9464
:101350001A2E6FE771E086E597E00E941A2E409101
:10136000F4035091F5036091F6037091F7032AE0BE
:1013700030E086E597E00E94E72E6DE771E086E5B4
:1013800097E00E941A2E86E597E00E94562E109252
:10139000F0031092F1031092F2031092F303FF9006
:1013A000EF90DF90CF90BF90AF909F908F90089577
:1013B000CF92DF92EF92FF9226E040E051EE60E0A4
:1013C00070E086E597E00E94C52C66E671E086E550
:1013D00097E00E947C2E65E771E086E597E00E9429
:1013E0007C2E0E94BA080E949A0240912C015091D2
:1013F0002D0160912E0170912F018AE892E00E94E8
:101400004821409128015091290160912A01709151
:101410002B018AE892E00E94AD2140912C0150916D
:101420002D0160912E0170912F0186E492E00E94BF
:101430004821409128015091290160912A01709121
:101440002B0186E492E00E94AD216091250170910C
:101450002601882777FD8095982F0E949032209151
:101460003E0130913F0140914001509141010E9465
:10147000F5316B017C016091420170914301882735
:1014800077FD8095982F0E9490329B01AC01C70197
:10149000B6010E9497330E945D326B017C01AB0163
:1014A000BC018AE892E00E94B61EB701A60186E45C
:1014B00092E00E94B61EEAE7F3E0119283E0EC3A74
:1014C000F807D9F70E947E020E945D0564EF71E083
:1014D00080E090E0FF90EF90DF90CF900C94DD2AB9
:1014E000CF93DF93C0E0D0E040E0BE018CE896E00F
:1014F0000E9493242196C233D105B1F7DF91CF9199
:101500000C94BA080F931F93CF93DF938C01EB01D8
:101510004881BC018CE896E00E949324B8016F5F7B
:101520007F4F49818CE896E00E94932482E090E00E
:10153000DF91CF911F910F9108950F931F93CF9338
:10154000DF9300D000D000D0CDB7DEB788ED93E0B8
:101550000E94C0368C019E838D838AEC93E00E94AA
:10156000C0369C838B831A830983BE016F5F7F4FD4
:1015700080E090E00E9450078D819E8129813A8110
:101580002817390749F00B973CF0BE016B5F7F4F7E
:1015900080E090E00E94820ABE016F5F7F4F82E090
:1015A00090E00E9450078B819C8129813A81281705
:1015B000390749F00B973CF0BE016D5F7F4F82E029
:1015C00090E00E94820A0E946B0726960FB6F8945C
:1015D000DEBF0FBECDBFDF91CF911F910F91089558
:1015E000CF93DF9300D0CDB7DEB788ED93E00E94B4
:1015F000C0369A838983BE016F5F7F4F82E190E09E
:101600000E94820A0E94BA080F900F90DF91CF913A
:101610000895CF93DF9300D0CDB7DEB788ED93E088
:101620000E94C0369A838983BE016F5F7F4F84E139
:1016300090E00E94820A0E94BA080F900F90DF91FA
:10164000CF9108950F931F93CF93DF9300D000D0D5
:10165000CDB7DEB788ED93E00E94C0368C019C8345
:101660008B838AEC93E00E94C0369A838983209111
:10167000AD03233089F4BE016D5F7F4F8AE290E0B5
:101680000E94820ABE016F5F7F4F8CE290E00E9451
:10169000820A0E94B50737C02230A9F543E050E026
:1016A000B8010E941E0568EC70E080E090E00E94A6
:1016B000DD2A69817A8143E050E08B819C810E9420
:1016C0001E0568EC70E080E090E00E94DD2A6B81EE
:1016D0007C8143E050E089819A810E941E0568EC7C
:1016E00070E080E090E00E94DD2A69817A8143E029
:1016F00050E08B819C810E941E0568EC70E080E0C8
:1017000090E00E94DD2A0F900F900F900F90DF91D4
:10171000CF911F910F910895EF92FF920F931F9316
:10172000CF93DF937C018B01C0E0D0E0F8014191C1
:101730008F01BE016E0D7F1D8CE896E00E94932400
:101740002196C430D10591F784E090E0DF91CF91EC
:101750001F910F91FF90EF900895CF93DF9300D0EA
:1017600000D0CDB7DEB788ED93E00E94BC36698328
:101770007A838B839C83BE016F5F7F4F8EE090E006
:101780000E948C0B0E94BA080F900F900F900F9040
:10179000DF91CF91089588ED93E00E94BC360E94BE
:1017A000BF038091AD03823061F48AEC93E00E9424
:1017B000C036019731F46CE271E086E190E00C9460
:1017C0008C0B089588ED93E00E94BC360E94ED03D7
:1017D0008091AD03823061F48AEC93E00E94C036C0
:1017E000019731F468E271E08AE190E00C948C0B8F
:1017F00008958F929F92AF92BF92CF92DF92EF9215
:10180000FF926CE771E088E094E00E94423185E04D
:1018100094E00E944A2380903E0190903F01A09066
:101820004001B0904101A0914201B091430120914B
:101830003D0130E00E94B9340E9490326B017C017E
:101840009B01AC01C501B4010E94F5316093000415
:10185000709301048093020490930304A501940102
:10186000C701B6010E94F5316B017C016093FC0356
:101870007093FD038093FE039093FF0360913B01FF
:1018800070913C01882777FD8095982F0E949032B7
:10189000A70196010E9497330E945D326093F8037E
:1018A0007093F9038093FA039093FB0360913901DD
:1018B00070913A01882777FD8095982F0E94903289
:1018C000A70196010E9497330E945D326093F40352
:1018D0007093F5038093F6039093F70360E871E04B
:1018E0008AE693E00E94423164E871E084E693E086
:1018F0000E94423168E871E08EE593E00E94423137
:101900006CE871E088E593E00E94423160E971E0A3
:1019100082E593E00E94423164E971E08CE493E057
:101920000E94423168E971E086E493E00E9442310E
:101930006CE971E080E493E00E94423160EA71E07A
:101940008AE393E00E94423164EA71E084E393E029
:101950000E94423168EA71E08EE293E00E944231D7
:101960006CEA71E088E293E00E94423160EB71E042
:1019700082E293E00E94423164EB71E08CE193E0FB
:101980000E94423168EB71E086E193E00E944231AF
:1019900060E682ED92E00E94212860914201709100
:1019A000430141E082ED92E00E94CD279093D10265
:1019B0008093D002609142017091430142E082ED38
:1019C00092E00E94CD279093CF028093CE0242EC0A
:1019D00051E06AEB71E08AE892E00E94EE2042ED6D
:1019E00051E06AEC71E086E492E0FF90EF90DF90C6
:1019F000CF90BF90AF909F908F900C94EE2086E197
:101A000093E00E94D4308CE193E00E94D43082E2D3
:101A100093E00E94D43088E293E00E94D4308EE2BA
:101A200093E00E94D43084E393E00E94D4308AE3B0
:101A300093E00E94D43080E493E00E94D43086E4A6
:101A400093E00E94D4308CE493E00E94D43082E58D
:101A500093E00E94D43088E593E00E94D4308EE574
:101A600093E00E94D43084E693E00E94D4308AE66A
:101A700093E00E94D43088E094E00C94D4308AE85B
:101A800092E00E94021E86E492E00E94021E81E023
:101A9000809374038AE892E00E94B01EAB01BC01FF
:101AA0004C5F5F4F6F4F7F4F8AE892E00E94842225
:101AB00086E492E00E94B01EAB01BC014C5F5F4F18
:101AC0006F4F7F4F86E492E00E9484228AE892E082
:101AD0000E94B01EAB01BC0144505109610971095B
:101AE0008AE892E00E94842286E492E00E94B01E7E
:101AF000AB01BC01445051096109710986E492E0CF
:101B00000C9484228F929F92AF92BF92CF92DF92D9
:101B1000EF92FF9288ED93E00E94DE369B01AC01CC
:101B2000C0903D01D12CE12CF12CC701B6010E94DF
:101B300047344B015C018AEC93E00E94DE369B0146
:101B4000AC01C701B6010E9447346B017C01B501AD
:101B5000A4018AE892E00E94B61EB701A60186E4BD
:101B600092E00E94B61E0E943F0DFF90EF90DF9022
:101B7000CF90BF90AF909F908F900C9486068AE88C
:101B800092E00E94E91D86E492E00E94E91D8091A6
:101B9000D0029091D1020E9469288091CE0290914A
:101BA000CF020E9469280E945D0510927403089577
:101BB000CF92DF92EF92FF920F931F930E94AE2A73
:101BC000009175031091760320917703309178038B
:101BD00040911801442359F140917403442339F191
:101BE0006B017C01C01AD10AE20AF30A8091190143
:101BF00090911A01A0911B01B0911C018C159D05BB
:101C0000AE05BF05A4F46AE071E086E597E00E94A6
:101C10004D2E64E970E086E597E00E946A2E1F91E0
:101C20000F91FF90EF90DF90CF900C94BF0D1F911C
:101C30000F91FF90EF90DF90CF9008954F925F92B9
:101C40006F927F928F929F92AF92BF92CF92DF92CC
:101C5000EF92FF920F931F93CF93DF938C010E941B
:101C6000AE2A4B015C01F80180E090E011920196F0
:101C700082339105D9F7C12CD12C7601C0E0D0E098
:101C80000E94AE2A209719F4C0E0D0E014C0DC0115
:101C9000CB018C199D09AE09BF0985369105A105B7
:101CA000B1054CF0F80180E090E01192019682338A
:101CB0009105D9F7E9CF0E94D80D0E94AE2A681984
:101CC00079098A099B0920911D0130911E01290182
:101CD000662457FC6094762C4616570668067906EB
:101CE00034F40E947E020E94AE2A4B015C0186E51C
:101CF00097E00E94E22B1816190614F686E597E085
:101D00000E94FB2BF801EC0FFD1F8A3011F08B3382
:101D100059F41082CF01801B910BC19714F41192DA
:101D2000F9CF7724739403C080832196712C0E948D
:101D3000AE2A6B017C01772009F4A2CF0E94AE2A63
:101D40000E94AE2A609375037093760380937703A5
:101D50009093780360937003709371038093720380
:101D60009093730381E0DF91CF911F910F91FF90CA
:101D7000EF90DF90CF90BF90AF909F908F907F902B
:101D80006F905F904F9008954F925F926F927F9205
:101D90008F929F92AF92BF92CF92DF92EF92FF927B
:101DA000CF93DF9300D000D0CDB7DEB72B013C013D
:101DB00029833A834B835C830E94AE2A6093750328
:101DC0007093760380937703909378038AE892E088
:101DD0000E9450224B015C0186E492E00E94502256
:101DE0006B017C0140E050E0BA018AE892E00E9479
:101DF000D12140E050E0BA0186E492E00E94D12176
:101E0000C301B2010E9490320E945D32AB01BC015D
:101E10008AE892E00E943A2069817A818B819C81D4
:101E20000E9490320E945D32AB01BC0186E492E0D8
:101E30000E943A208091270181113DC08AE892E0FA
:101E40000E94502220E030E0A9010E94F13187FF7A
:101E500004C0B7FAB094B7F8B09486E492E00E9458
:101E6000502220E030E0A9010E94F13187FF04C038
:101E7000F7FAF094F7F8F094B501A4018AE892E03B
:101E80000E94D121B701A60186E492E00E94D121EF
:101E900012C00E94D80D80911F01882361F08091AB
:101EA0002701882389F08AE892E00E94C12086E415
:101EB00092E00E94C1208AE892E00E949E1E672B59
:101EC000682B692B31F709C08AE892E00E946122F1
:101ED00086E492E00E946122EECF86E492E00E94C6
:101EE0009E1E672B682B692BA1F60F900F900F9009
:101EF0000F90DF91CF91FF90EF90DF90CF90BF9048
:101F0000AF909F908F907F906F905F904F900C94C8
:101F100086068F929F92AF92BF92CF92DF92EF92FE
:101F2000FF92CF93DF9300D000D0CDB7DEB788ED1E
:101F300093E00E94BC366B017C0160913D0170E032
:101F400080E090E00E9490329B01AC01C701B60195
:101F50000E9497336B017C018AEC93E00E94BC36AF
:101F60004B015C0160913D0170E080E090E00E94D7
:101F700090329B01AC01C501B4010E9497330E94CD
:101F80005D329B01AC01C701B60129833A834B83C3
:101F90005C830E945D3229813A814B815C810F9084
:101FA0000F900F900F90DF91CF91FF90EF90DF9007
:101FB000CF90BF90AF909F908F900C94C40E2F92B3
:101FC0003F924F925F926F927F928F929F92AF92C9
:101FD000BF92CF92DF92EF92FF920F931F93CF9316
:101FE000DF93CDB7DEB7A0970FB6F894DEBF0FBE74
:101FF000CDBF2B013C01E982FA820B831C83840153
:102000000E94C3066D837E838F839887A30192010C
:102010000E942A0769877A878B879C87A60195018A
:1020200069817A818B819C810E94C3062B013C01CE
:1020300029813A814B815C810E942A076B017C01D6
:1020400020E030E040EA51E4C301B2010E94933342
:1020500018160CF003C26091F8037091F903809197
:10206000FA039091FB0364517109810991090E945F
:1020700090324B015C019B01AC01C301B2010E9493
:10208000F13187FFEBC120E030E040EA51E4C701C5
:10209000B6010E94933318160CF0E0C16091F4036E
:1020A0007091F5038091F6039091F70364517109E3
:1020B000810991090E94903269837A838B839C8382
:1020C0009B01AC01C701B6010E94F13187FFC6C177
:1020D00020E030E040EA51E46D817E818F81988577
:1020E0000E94933318160CF0B9C1A50194016D81BB
:1020F0007E818F8198850E94F13187FFAFC120E0FA
:1021000030E040EA51E469857A858B859C850E94A0
:10211000933318160CF0A2C129813A814B815C815E
:1021200069857A858B859C850E94F13187FF96C1F0
:10213000109220012D813E814F815885C301B2014B
:102140000E948C314B015C0129853A854B855C8569
:10215000C701B6010E948C316B017C0120E030E0A8
:10216000A901C501B4010E94933324013501181659
:1021700024F077FA709477F8709420E030E0A901A9
:10218000C701B6010E949333A701960118160CF0FF
:102190005058C301B2010E9493339801442737FD80
:1021A0004095542F29833A834B835C831816E4F0BF
:1021B0002601370177FA709477F8709420E030E0C8
:1021C000A901C701B6010E94933318162CF41C2DE7
:1021D0000D2DED86F98A04C0142D052D6D86798AA2
:1021E00022242394312C3EC02401350177FA7094C7
:1021F00077F8709420E030E0A901C501B4010E9495
:10220000933318162CF4182D092DAD86B98A04C005
:10221000142D052D6D86798A22242394312CB10149
:10222000882777FD8095982F0E9490329B01AC0102
:10223000612F702F8D8599890E94F5312B013C010A
:1022400069817A818B819C810E9490329B01AC01D3
:10225000C301B2010E94933318163CF53FEF231AD5
:10226000330ADDCFB101882777FD8095982F0E9432
:1022700090329B01AC01612F702F8D8599890E944E
:10228000F5312B013C0169817A818B819C810E940F
:1022900090329B01AC01C301B2010E949333181626
:1022A00024F44FEF241A340ADDCFC101AA2797FD89
:1022B000A095BA2F89839A83AB83BC83BC01CD01DF
:1022C0000E9490322B013C019B01AC01C501B4017D
:1022D0000E94F5316D877E878F87988BA3019201CD
:1022E000C701B6010E94F531698B7A8B8B8B9C8B71
:1022F00010922701812C912C5401C12CD12C7601F4
:102300002D853E854F8558896D817E818F81988589
:102310000E948D316D837E838F83988729893A89C6
:102320004B895C8969857A858B859C850E948D3176
:1023300069877A878B879C879B01AC016D817E8141
:102340008F8198850E94C4056D8B7E8B8F8B988FB3
:1023500029853A854B855C856D817E818F81988545
:102360000E945006698F7A8F8B8F9C8F20E030E01F
:1023700040E850E4609128017091290180912A0180
:1023800090912B010E9497332B013C01C701B601AC
:102390000E9490329B01AC0169817A818B819C8182
:1023A000680D791D8A1D9B1D830172010E944104E5
:1023B0000E945D326B017C010E9490322B013C0136
:1023C000AB01BC018AE892E00E94D121B301A201D5
:1023D00086E492E00E94D121698D7A8D8B8D9C8D4F
:1023E0000E945D329B01AC016D897E898F89988D39
:1023F0002D8F3E8F4F8F58A30E945D322D8D3E8DC5
:102400004F8D58A10E94C40E91E0891A9108A1082D
:10241000B108C101880D991D892B09F071CF81E0A8
:102420008093200180932701A0960FB6F894DEBF19
:102430000FBECDBFDF91CF911F910F91FF90EF9015
:10244000DF90CF90BF90AF909F908F907F906F90D4
:102450005F904F903F902F900C94860661E171E061
:1024600086E597E00E944D2E63EA70E086E597E0EE
:10247000A0960FB6F894DEBF0FBECDBFDF91CF910F
:102480001F910F91FF90EF90DF90CF90BF90AF9092
:102490009F908F907F906F905F904F903F902F9084
:1024A0000C946A2E4F925F926F927F928F929F92BE
:1024B000AF92BF92CF92DF92EF92FF920F931F9352
:1024C000CF93DF93CDB7DEB72C970FB6F894DEBF6E
:1024D0000FBECDBF88ED93E00E94BC366B017C013E
:1024E00060913D0170E080E090E00E9490329B019D
:1024F000AC01C701B6010E9497332B013C018AEC65
:1025000093E00E94BC366B017C01B0903D018CEBE6
:1025100093E00E94C0364C018AE892E00E94B01E0F
:1025200069837A838B839C8386E492E00E94B01E49
:102530006D837E838F83988720E030E040EA51E40A
:10254000C301B2010E94F13187FD2EC06B2D70E0F6
:1025500080E090E00E9490329B01AC01C701B6017F
:102560000E9497335B016C0120E030E040EA51E4C7
:102570000E94F13187FD18C00E94EA050E94903246
:102580009B01AC01C301B2010E949333181664F0A1
:102590000E94EA050E9490329B01AC01C601B50180
:1025A0000E949333181614F561E171E086E597E017
:1025B0000E944D2E62EC70E086E597E02C960FB6F7
:1025C000F894DEBF0FBECDBFDF91CF911F910F9169
:1025D000FF90EF90DF90CF90BF90AF909F908F9043
:1025E0007F906F905F904F900C946A2E6D817E81EA
:1025F0008F8198850E9490329B01AC0169817A811C
:102600008B819C8129873A874B875C870E94903217
:102610008301720129853A854B855C850E94DF0F15
:102620002C960FB6F894DEBF0FBECDBFDF91CF91D1
:102630001F910F91FF90EF90DF90CF90BF90AF90E0
:102640009F908F907F906F905F904F900895CF9361
:10265000DF93EC016AE673E00E947C31882319F075
:102660000E94890F8BC066E473E0CE010E947C312A
:10267000882319F00E94521281C064E673E0CE01F3
:102680000E947C31882319F00E941B0477C062E20B
:1026900073E0CE010E947C31882319F00E94CB0B9D
:1026A0006DC06CE173E0CE010E947C31882319F08B
:1026B0000E94E20B63C06EE573E0CE010E947C31A4
:1026C000882319F00E94820D59C068E573E0CE019D
:1026D0000E947C31882319F00E9491054FC062E569
:1026E00073E0CE010E947C31882319F00E945D05C1
:1026F00045C06CE473E0CE010E947C31882319F060
:102700000E94220B3BC060E473E0CE010E947C314A
:10271000882319F00E949D0A31C06EE273E0CE0159
:102720000E947C31882319F00E94AD0B27C068E21B
:1027300073E0CE010E947C31882319F00E94F00AD8
:102740001DC066E173E0CE010E947C31882319F040
:102750000E94090B13C06AE373E0CE010E947C3132
:10276000882319F00E94FF0209C064E373E0CE01E0
:102770000E947C31882321F00E94700A81E001C010
:1027800080E0DF91CF910895CF93DF93EC010E9419
:102790002713811107C0CE010E948402DF91CF91DF
:1027A0000C947E02DF91CF9108950F931F93CF93E6
:1027B000DF9300D000D000D0CDB7DEB78C010E94EF
:1027C00066028823D9F06AE773E0CE0101960E9481
:1027D0004231CE0101960E94C413CE0101960E949F
:1027E000D430F80180E090E0119201968233910597
:1027F000D9F7109279030E947E0217C061E171E05F
:1028000086E597E00E944D2E61E872E086E597E04C
:102810000E941A2EB80186E597E00E944D2E63E7CC
:1028200072E086E597E00E946A2E1092AD0326962C
:102830000FB6F894DEBF0FBECDBFDF91CF911F91D1
:102840000F9108958AE793E00E941E0E882321F0DD
:102850008AE793E00C94D513089510921604109211
:10286000170410921A0410921C0482E090E0A0E079
:10287000B0E080931D0490931E04A0931F04B093B6
:1028800020041092340410923E0410923D0487EC10
:1028900091E090933C0480933B041092400408958F
:1028A0009FB7F8942091100480910E04213019F400
:1028B0008DBB9FBF08958FBF0895209110042223E0
:1028C00099F03FB7F89420911004213059F42DB3BA
:1028D00020930E044DB320910F04209524232DBB8B
:1028E0003FBF02C030930E048CBD9DBD08958EBDC8
:1028F00000000DB407FEFDCF8EB508958FEF0C9448
:10290000771461E0FC0184810E94AC2B80915A0411
:10291000882339F010925A048091100481110C948C
:1029200050140895CF93DF93EC0180915A048111E4
:1029300009C081E080935A0480915B0490915C040B
:102940000E945D1460E08C81DF91CF910C94AC2BE0
:10295000CF93DF93EC018E81882389F08F81988556
:102960009C012F5F3F4F38872F838230924018F4AD
:102970000E947E14F3CFCE010E9481141E82DF914B
:10298000CF9108950F931F93CF93DF93EB010E9494
:10299000AE2A8B010E947E148F3F49F00E94AE2A1E
:1029A000601B710B6C177D07A8F380E001C081E00C
:1029B000DF91CF911F910F910895CF92DF92FF92F7
:1029C0000F931F93CF93DF9300D000D0CDB7DEB726
:1029D0006C01F62E29833A834B835C830E94A814F2
:1029E000C6010E9492146CE271E0C6010E94C214FA
:1029F0008F2D80640E94771408E110E05C814B8188
:102A00003A812981DA01C901002E04C0B695A79543
:102A1000979587950A94D2F729833A834B835C83F1
:102A20000E9477140850110929813A814B815C81F9
:102A3000083F8FEF180731F7FF2029F0E8E0FE1676
:102A400021F08FEF03C085E901C087E80E94771469
:102A500010E00E947E14F601828787FF04C01F3FAA
:102A600011F01F5FF6CF0F900F900F900F90DF9136
:102A7000CF911F910F91FF90DF90CF9008950F930A
:102A80001F93CF93DF93EC010E94AE2A8B010E942B
:102A90007E148A878F3F49F40E94AE2A601B710B17
:102AA0006D327140A0F38FE003C08E3F39F08DE0AE
:102AB0008D83CE010E94811480E001C081E0DF910E
:102AC000CF911F910F910895CF92DF92EF92FF92D5
:102AD0000F931F93CF93DF93EC016901011511054B
:102AE00009F462C0C801820F931F8130924008F040
:102AF0005DC08E81882371F088819981AA81BB8114
:102B0000481759076A077B0729F48F819885C816EB
:102B1000D90610F5488359836A837B838B8583307C
:102B200039F039E0440F551F661F771F3A95D1F7EA
:102B30009A01AB0161E1CE010E94DD14882319F0F6
:102B400083E08D8333C0CE010E943F15882371F14D
:102B500018861F8281E08E838F8198858C159D0554
:102B600040F40E947E148F819885019698878F8308
:102B7000F3CF6701E00EF11ECE14DF0431F00E94A6
:102B80007E14F60181936F01F7CF8F819885800FB6
:102B9000911F98878F832985222319F081159240F0
:102BA00018F0CE010E94A81481E004C0CE010E945A
:102BB000811480E0DF91CF911F910F91FF90EF90F2
:102BC000DF90CF900895EF92FF920F931F937901BA
:102BD00000E012E020E030E00E9464151F910F91A8
:102BE000FF90EF900895CF92DF92EF92FF920F93B4
:102BF0001F93CF93DF9300D0CDB7DEB78C01862F24
:102C000049835A830E9477144981C42E5A81D52E54
:102C1000E12CF12CF60181916F010E947714FFEFF6
:102C2000EF1AFF0AE11482E0F806A1F78FEF0E9485
:102C300077148FEF0E9477140E947E14F801828728
:102C40008F71853039F081E18583C8010E9481143C
:102C500080E001C081E00F900F90DF91CF911F9134
:102C60000F91FF90EF90DF90CF9008950F931F93F7
:102C7000CF93DF93EC018901411551056105710581
:102C800011F482E132C08B85833039F089E0440F42
:102C9000551F661F771F8A95D1F79A01AB0168E12E
:102CA000CE010E94DD14882311F084E01EC0A8012B
:102CB0006EEFCE010E94F3158823C1F068E572E043
:102CC000CE010E94C214811102C085E10EC020E035
:102CD00030E0A9016DE0CE010E94DD14811104C035
:102CE0000E947E14882339F084E18D83CE010E94F6
:102CF000811480E004C0CE010E94811481E0DF9144
:102D0000CF911F910F91089580E580935B041092FD
:102D10005C040895CF93DF93EC019C012A5F3F4F41
:102D200041E050E060E070E08B8D9C8D0E94FB1ACA
:102D30008823A1F04F89588D698D7A8D452B462BBC
:102D4000472B71F44E815F81688579854F8B588F51
:102D5000698F7A8F8C8180688C8302C080E001C08B
:102D600081E0DF91CF910895CF93DF93EC01462F5F
:102D70006E857F85888999890E949B19882341F0F7
:102D80008A8920E2829FC00111248A599B4F02C088
:102D900080E090E0DF91CF9108954F925F926F9223
:102DA0007F92AF92BF92CF92DF92EF92FF920F93FA
:102DB0001F93CF93DF93EC016A017B012D812223C6
:102DC00009F457C08B899C89AD89BE898417950702
:102DD000A607B70708F44DC04EC08A859B85AC8511
:102DE000BD85EB8DFC8DE585F0E03996AC01BD012C
:102DF00041505109610971090E2E04C076956795FD
:102E0000579547950A94D2F7970186010150110909
:102E10002109310904C03695279517950795EA953C
:102E2000D2F70417150726073707B0F58F89988D55
:102E3000A98DBA8D8E839F83A887B9872801390110
:102E40005E0186E0A80EB11C4114510461047104B6
:102E500061F14E815F816885798595018B8D9C8DAF
:102E60000E94D61991E0491A510861087108811130
:102E7000EBCF80E01FC02230C1F0C114D104E104C7
:102E8000F10409F0AACF1E821F82188619861A86BD
:102E90001B861C861D860DC0892B8A2B8B2B31F23D
:102EA000041B150B260B370BC9CFCA86DB86EC86B5
:102EB000FD8681E0DF91CF911F910F91FF90EF9000
:102EC000DF90CF90BF90AF907F906F905F904F90CA
:102ED00008950F931F93CF93DF93EC018D81882387
:102EE000C9F18C8187FF30C061E0CE010E94B41629
:102EF0008C01009779F18D81823048F44B895C898F
:102F00006D897E89F801448F558F668F778F4F8941
:102F1000588D698D7A8DF801538F428F758B648B34
:102F2000E0915D04F0915E04309759F0B8016A5E5B
:102F30007F4FC80148960995F801808D918D938B3C
:102F4000828B8C818F778C83DF91CF911F910F9132
:102F50000C94601980E0DF91CF911F910F9108953B
:102F60002F923F924F925F926F927F928F929F9299
:102F7000AF92BF92CF92DF92EF92FF920F931F9387
:102F8000CF93DF9300D000D01F92CDB7DEB78C0176
:102F90007B013A01DC0115968C9115978130C9F4BB
:102FA00014968C9181FF15C082FF1BC0F8014389E4
:102FB00054896589768982859385A485B58584172A
:102FC0009507A607B70769F0C8010E94CD168111C1
:102FD00008C081E090E0F8019383828380E090E074
:102FE00046C1630180C0D8015B968D919C915C972E
:102FF000FC01F481F150B501A40129E076956795B3
:10300000579547952A95D1F7F423FD8321E0922225
:10301000FF2309F474C080E092E0881999095601F1
:103020008C159D0508F45C01D8015B96ED91FC912F
:103030005C9716962D903D904D905C901997B2E05C
:103040002B1A310841085108058404C0220C331C96
:10305000441C551C0A94D2F786859785A089B189AE
:10306000280E391E4A1E5B1EED812E0E311C411C9E
:10307000511CA114F2E0BF0609F088C080914801FC
:1030800090914901A0914A01B0914B01821593059D
:10309000A405B50559F48FEF9FEFDC01809348013B
:1030A00090934901A0934A01B0934B019701B2015B
:1030B000A10180916404909165040E9436168823D2
:1030C00009F487CF9EEFF91ACA18DB08F801828548
:1030D0009385A485B5858A0D9B1DA11DB11D828791
:1030E0009387A487B587D8011A968D909D90AD904F
:1030F000BC901D97C114D10409F075CF8AC081140A
:10310000910409F088CF16964D915D916D917C9157
:103110001997411551056105710559F457968D911F
:103120009D910D90BC91A02D0097A105B10541F591
:1031300021C09E012F5F3F4F0E94D619882309F4BA
:103140004ECF89819A81AB81BC81F801238D348D6A
:10315000F9012789203129F448EF5FEF60E070E042
:1031600004C048EF5FEF6FEF7FE084179507A60775
:10317000B70730F0C8010E948A1681114CCF29CFC1
:10318000F80186839783A087B18745CF8114910486
:1031900029F5D8011A964D915D916D917C911D97FD
:1031A00053968D919D910D90BC91A02D4817590774
:1031B0006A077B0798F00E946019882309F409CFF9
:1031C000209248013092490140924A0150924B01AD
:1031D0008091630481608093630408C041E0C20170
:1031E000B1010E949B19882309F4F3CEC4018A59C6
:1031F0009B4FD7019C012A0D3B1DFC01E217F307F1
:1032000019F04D914193FACFE81BF90BEE0EFF1E1A
:103210005BCF53968D919D910D90BC91A02DF8019F
:10322000248188159905AA05BB0538F4838A948AF8
:10323000A58AB68A206824830CC080915D04909191
:103240005E04892B31F06114710419F02068F801D3
:103250002483D80114968C9183FD02C0C30107C05A
:10326000C8010E946917882309F4B3CEF7CF0F90E5
:103270000F900F900F900F90DF91CF911F910F91B2
:10328000FF90EF90DF90CF90BF90AF909F908F9086
:103290007F906F905F904F903F902F900895CF93C5
:1032A000DF931F92CDB7DEB7698341E050E0BE01E6
:1032B0006F5F7F4F0E94B0170F90DF91CF910895FD
:1032C00080916304882399F140914801509149010C
:1032D00060914A0170914B0126E634E080916404CC
:1032E000909165040E943616882319F140915F047D
:1032F0005091600460916104709162044115510520
:103300006105710591F026E634E0809164049091A6
:1033100065040E943616882361F010925F041092B3
:10332000600410926104109262041092630481E0C0
:10333000089580E00895CF92DF92EF92FF92CF93AD
:103340006B017C01C42F8091480190914901A091AB
:103350004A01B0914B018C159D05AE05BF05D1F01A
:103360000E946019811102C080E01AC026E634E094
:10337000B701A60180916404909165040E94E31551
:10338000882391F3C0924801D0924901E0924A010A
:10339000F0924B01809163048C2B8093630481E055
:1033A000CF91FF90EF90DF90CF9008958F929F92F2
:1033B000AF92BF92CF92DF92EF92FF920F931F9343
:1033C000CF93DF938C016A017B01E901FC018185C8
:1033D0009285A385B4850196A11DB11D841795071B
:1033E000A607B70710F480E058C0F8014389548954
:1033F000658976898789803129F4BB27AF2D9E2D79
:103400008D2D09C0D701C60127E0B695A7959795E0
:1034100087952A95D1F74C015D01840E951EA61E55
:10342000B71EC501B4018090480190904901A09059
:103430004A01B0904B01681579058A059B0589F40E
:10344000F8018789803199F4DD24EE24FF24F60108
:10345000EE0FFF1FEA59FB4F80819181A0E0B0E0A1
:1034600017C040E00E949B198111EACFBCCFE894BD
:10347000C7F8DD24EE24FF24F601EE0FFF1FEE0F48
:10348000FF1FEA59FB4F80819181A281B381BF70F8
:1034900088839983AA83BB8381E0DF91CF911F91B9
:1034A0000F91FF90EF90DF90CF90BF90AF909F90E3
:1034B0008F9008954F925F926F927F928F929F921A
:1034C000AF92BF92CF92DF92EF92FF920F931F9332
:1034D000CF93DF93EC016A017B012801390142306F
:1034E00051056105710508F474C049855A856B85DD
:1034F0007C854F5F5F4F6F4F7F4F4C155D056E05AD
:103500007F0508F466C08B889C88AD88BE888F894B
:10351000803129F477276F2D5E2D4D2D09C0B7011D
:10352000A601E7E07695679557954795EA95D1F717
:10353000840E951EA61EB71E409148015091490168
:1035400060914A0170914B0184169506A606B70654
:1035500071F48F89803199F4DD24EE24FF24F60183
:10356000EE0FFF1FEA59FB4F5182408218C040E026
:10357000C501B4010E949B198111EBCF2AC0E894C8
:10358000C7F8DD24EE24FF24F601EE0FFF1FEE0F37
:10359000FF1FEA59FB4F4082518262827382809101
:1035A00063048160809363048A89823080F08D8116
:1035B0009E81AF81B885880D991DAA1DBB1D809382
:1035C0005F0490936004A0936104B093620481E06F
:1035D00001C080E0DF91CF911F910F91FF90EF909C
:1035E000DF90CF90BF90AF909F908F907F906F9023
:1035F0005F904F9008952F923F924F925F926F92FB
:103600007F929F92AF92BF92CF92DF92EF92FF9202
:103610000F931F93CF93DF93CDB7DEB760970FB6AD
:10362000F894DEBF0FBECDBF5C014D875E876F870C
:10363000788B1901D9014D905D906D907C9041146B
:1036400051046104710431F0BFEF4B1A5B0A6B0A3D
:103650007B0A10C0FC0140805180628073809924F5
:1036600093940D851E852F8538890130110521051C
:10367000310509F0912CD50119962D913D914D916F
:103680005C911C972F5F3F4F4F4F5F4F29873A87C1
:103690004B875C87730162011D821E821F82188620
:1036A000F50181859285A385B4850D811E812F81C9
:1036B0003885081719072A073B0708F056C02985DF
:1036C0003A854B855C852C153D054E055F0550F40C
:1036D000A2E0CA2ED12CE12CF12CB2E04B2E512CC1
:1036E000612C712C9E012F5F3F4FB701A601C501D0
:1036F0000E94D6198823C9F149815A816B817C8146
:10370000D701C6010196A11DB11D452B462B472BA4
:1037100019F02C013D010FC0AC01BD014419550940
:10372000660977090D851E852F8538894017510751
:103730006207730779F02D813E814F8158852F5F95
:103740003F4F4F4F5F4F2D833E834F8358876C0110
:103750007D01A6CF0FEF1FEF2FEF3FE0B701A601CE
:10376000C5010E945A1A811118C080E041C0D701DA
:10377000C6010197A109B1098D839E83AF83B887E4
:1037800097018601AC01BD01C5010E945A1A882328
:1037900061F3CD80DE80EF80F8844C145D046E040C
:1037A0007F0428F3D1014D915D916D917C9141157C
:1037B00051056105710599F4F101408251826282DF
:1037C00073829920A1F0FFEF4F1A5F0A6F0A7F0AF8
:1037D000D5014D925D926D927C92139708C0930132
:1037E0008201C5010E945A1A8111E6CFBECF81E045
:1037F00060960FB6F894DEBF0FBECDBFDF91CF91BC
:103800001F910F91FF90EF90DF90CF90BF90AF90FE
:103810009F907F906F905F904F903F902F90089572
:103820000F931F93DC0112960C9110E009301105E3
:10383000C0F5F801EC5CFF4F0C94A434DC01ED9171
:10384000FC910084F185E02D29C0DC01ED91FC9113
:103850000284F385E02D22C0DC01ED91FC9104840B
:10386000F585E02D1BC0DC01ED91FC910684F78508
:10387000E02D14C0DC01ED91FC910088F189E02D70
:103880000DC0DC01ED91FC910288F389E02D06C0AA
:10389000DC01ED91FC910488F589E02D1F910F91D9
:1038A00009941F910F910895CF93DF93EC01CB0101
:1038B000BA0126E030E040E050E00E9485346230FA
:1038C00071058105910559F18CF46115710581052A
:1038D0009105F1F06130710581059105C1F5E8812F
:1038E000F9810480F581E02D65E02DC0643071051B
:1038F0008105910511F1D4F06530710581059105BF
:1039000031F5E881F9810480F581E02D66E01BC086
:10391000E881F9810480F581E02D64E014C0E8813C
:10392000F9810480F581E02D61E00DC0E881F98125
:103930000480F581E02D63E006C0E881F981048010
:10394000F581E02D62E0CE01DF91CF910994DF9106
:10395000CF910895CF93DF93477055276627772738
:1039600041505109DC01CD91DC914730510528F4DB
:10397000435C5F4FFA010C94A434EC81FD8161E05B
:103980001BC0EC81FD8165E017C0EC81FD8164E026
:1039900013C0EC81FD8166E00FC0EC81FD8162E027
:1039A0000BC0EC81FD816AE007C0EC81FD8168E01D
:1039B00003C0EC81FD8169E0DF91CF910994AF9262
:1039C000BF92DF92EF92FF920F931F93CF93DF93FB
:1039D0001F92CDB7DEB78C01FC018281843041F0AB
:1039E000883031F0833031F0863021F022E003C09E
:1039F00024E001C023E0A12CB12CE62EF12CDD2423
:103A0000D394F801EA0DFB1DC7010A2C02C095955D
:103A100087950A94E2F7678180FD6D25838129836C
:103A20000E94AC2BFFEFAF1ABF0A2981A21648F300
:103A30000F90DF91CF911F910F91FF90EF90DF904A
:103A4000BF90AF9008950F931F93CF93DF93EC0136
:103A5000E881F9810480F581E02D8C010D5B1F4F19
:103A6000D8018C91882311F062E001C060E0CE01A2
:103A70000995E881F9810480F581E02DD8018C91C8
:103A8000882311F063E001C061E0CE0109958BA5A8
:103A90009CA50E94052BE881F9810480F581E02D29
:103AA000D8018C91882311F062E001C060E0CE0162
:103AB000DF91CF911F910F910994CF93DF93EC0188
:103AC00020E030E0A9016B897C898D899E890E9464
:103AD000933318161CF4EFA5F8A902C0E9A9FAA9B6
:103AE000DF91CF9109944370552766277727DC0132
:103AF000ED91FC910480F581E02D42305105610586
:103B0000710571F0433051056105710559F041307F
:103B100051056105710511F062E005C063E003C065
:103B200061E001C060E00994CF93DF93EC01CB0129
:103B3000BA0123E030E040E050E00E94853461307B
:103B400071058105910581F062307105810591054E
:103B500091F0672B682B692BC1F4E881F98104800F
:103B6000F581E02D64E00DC0E881F9810480F581E4
:103B7000E02D61E006C0E881F9810480F581E02D47
:103B800062E0CE01DF91CF910994DF91CF9108954A
:103B90004370552766277727DC01ED91FC9104805F
:103BA000F581E02D423051056105710571F043301A
:103BB00051056105710559F04130510561057105E7
:103BC00011F065E005C066E003C06AE001C069E08D
:103BD0000994CF93DF93EC018A81882381F0E881F7
:103BE000F9810480F581E02D60E0CE0109958EA574
:103BF0008F3F29F06DA5DF91CF910C94AC2BDF9115
:103C0000CF910895CF93DF93EC018A81882351F1FE
:103C100061E08B810E94732B61E08C810E94732B89
:103C20008A81843011F0883039F461E08D810E94FE
:103C3000732B61E08E8106C0833011F0863021F451
:103C400061E08D810E94732B8EA58F3F59F061E05A
:103C50000E94732B6DA581E068278EA5DF91CF911F
:103C60000C94AC2BDF91CF910895CF92DF92EF921D
:103C7000FF920F931F93CF93DF93EC014BA15CA1B5
:103C80006DA17EA1452B462B472B09F44DC00E9408
:103C9000BA2A6B017C010FA118A529A53AA54BA151
:103CA0005CA16DA17EA1400F511F621F731F4017C1
:103CB00051076207730730F0C416D506E606F7060B
:103CC00058F405C0C416D506E606F70668F1C01616
:103CD000D106E206F30640F5FE01ED5BFF4F808161
:103CE0004B855C856D857E85882329F04F5F5F4F0E
:103CF0006F4F7F4F04C041505109610971094B87D3
:103D00005C876D877E87E881F9814B855C856D8551
:103D10007E850680F781E02DCE010995CFA2D8A639
:103D2000E9A6FAA681E001C080E0DF91CF911F9162
:103D30000F91FF90EF90DF90CF9008950F931F9316
:103D4000FC016785708981899289038514852585A1
:103D50003685601B710B820B930B1F910F91089599
:103D6000FC0163857485858596850895FC014387EC
:103D70005487658776874787508B618B728B13AA30
:103D800014AA15AA16AA13A214A215A216A208957F
:103D90002F923F924F925F926F927F928F929F925B
:103DA000AF92BF92CF92DF92EF92FF920F931F9349
:103DB000CF93DF9300D000D0CDB7DEB71C01FC015C
:103DC00087849088A188B28883859485A585B685E7
:103DD000881A990AAA0ABB0A63897489858996890F
:103DE0009B01AC010E9497336B017C01F101638D53
:103DF000748D858D968D9B01AC010E948D319B0148
:103E0000AC01C701B6010E94F5310E945D328114F8
:103E10009104A104B104A1F46230710581059105FA
:103E20000CF07CC0F10113A214A215A216A2138AF1
:103E3000148A158A168A13AA14AA15AA16AA03C1E7
:103E4000F10103A914A925A936A9ED5BFF4F1814A8
:103E500019041A041B04FCF41016110612061306AA
:103E60004CF4681579058A059B054CF520812111D4
:103E700055C025C0011511052105310509F44EC0B5
:103E8000681579058A059B050CF048C08081882358
:103E900009F444C037C01016110612061306F4F4D4
:103EA000002711279801081919092A093B096017E9
:103EB0007107820793071CF42081222379F19B016B
:103EC000AC0188279927DC01821B930BA40BB50B4F
:103ED000F10183AB94ABA5ABB6AB20C001151105C6
:103EE00021053105D9F0CC24DD247601C818D90884
:103EF000EA08FB086C157D058E059F057CF4808122
:103F000081110CC030952095109501951F4F2F4FB2
:103F10003F4FF10103AB14AB25AB36ABF101C3A8A6
:103F2000D4A8E5A8F6A881010D5B1F4FC114D104E8
:103F3000E104F10491F487A990ADA1ADB2AD83AFD6
:103F400094AFA5AFB6AF81E0181419041A041B048E
:103F50000CF080E0F801808340C0F10183AC94ACA8
:103F6000A5ACB6ACA5019401C501B4010E948D3188
:103F70002B013C01C701B6010E94903220E030E0E5
:103F800040E850E40E94973320E030E040E85FE3EF
:103F90000E948D319B01AC01C301B2010E94F53139
:103FA0009B01AC01C501B4010E948C312B013C0185
:103FB000F101FF9680809180A280B3809401A501D9
:103FC0000E949333181614F442015301C401D50121
:103FD000F10183AF94AFA5AFB6AFFFEFCF1ADF0A01
:103FE000EF0AFF0AF101C3AAD4AAE5AAF6AA23ADF3
:103FF00034AD45AD56ADCA01B90129833A834B832F
:104000005C830E946232F10163A374A385A396A32B
:1040100029813A814B815C8160E074E284E799E414
:104020000E94F531F101638B748B858B968BF801BF
:104030002081211108C0DC01CB01B058F101838B34
:10404000948BA58BB68B0F900F900F900F90DF91F4
:10405000CF911F910F91FF90EF90DF90CF90BF9085
:10406000AF909F908F907F906F905F904F903F9018
:104070002F9008950F931F93FC01078510892189C4
:104080003289041715072607370741F04787508BF9
:10409000618B728B1F910F910C94C81E1F910F9111
:1040A00008954F925F926F927F928F929F92AF92FC
:1040B000BF92CF92DF92EF92FF92CF93DF93EC010A
:1040C0006A017B018B8C9C8CAD8CBE8C9A01AB0100
:1040D000C501B4010E94F131882309F443C06BA9E2
:1040E0007CA98DA99EA90E9490322B013C01A701B9
:1040F0009601C501B4010E94F5319B01AC01C301D9
:10410000B2010E9497330E945D326BAB7CAB8DABEA
:104110009EABA701960160E070E080E89FE30E94FB
:10412000F5310E94FE3320E034E244E759E40E9476
:1041300097336FAB78AF89AF9AAFCB8EDC8EED8EB5
:10414000FE8ECE01DF91CF91FF90EF90DF90CF9068
:10415000BF90AF909F908F907F906F905F904F90A7
:104160000C94C81EDF91CF91FF90EF90DF90CF901D
:10417000BF90AF909F908F907F906F905F904F9087
:1041800008950F931F93CF93DF93EC010E94351E88
:10419000882319F0CE010E94C81E20E030E0A9015A
:1041A0006B897C898D899E890E94F131811110C0B3
:1041B00081E00F85188929893A894B855C856D8551
:1041C0007E85041715072607370719F480E001C01C
:1041D00081E0DF91CF911F910F9108950F931F936D
:1041E000FC018FEC91E09183808312821386148608
:1041F000158616861786108A118A128A138A148ADF
:10420000158A168A00E010E020E83FE3078B108F44
:10421000218F328F138E148E158E168E078F10A35A
:1042200021A332A313A214A215A216A281E090E04A
:1042300094A783A78FEF86A717A210A611A612A690
:10424000138214821582168270AB67A752AB41AB02
:1042500013AA14AA15AA16AA17AA10AE11AE12AE66
:1042600013AE14AE15AE16AEDF01DF960D931D939F
:104270002D933C93139714961C92178210861186E7
:104280001286B901A801CF011F910F910C94512002
:10429000CF92DF92EF92FF920F931F93CF93DF9312
:1042A000EC016A017B019A01AB016F89788D898DE0
:1042B0009A8D0E94F131882309F446C0CF8AD88EA6
:1042C000E98EFA8E8E01015C1F4FA701960160E016
:1042D00074E284E799E40E94F531F8016083718308
:1042E000828393838BA99CA9ADA9BEA91816190630
:1042F0001A061B064CF56B897C898D899E899B016A
:10430000AC010E9497336B017C016B8D7C8D8D8D90
:104310009E8D9B01AC010E948D319B01AC01C701B8
:10432000B6010E94F5310E945D326BAB7CAB8DAB68
:104330009EABCE01DF91CF911F910F91FF90EF9037
:10434000DF90CF900C94C81EDF91CF911F910F91F9
:10435000FF90EF90DF90CF900895CF92DF92EF9291
:10436000FF92CF93DF93EC016A017B0120E030E004
:10437000A901C701B6010E94F131882359F0B701A4
:10438000A601CE01DF91CF91FF90EF90DF90CF900B
:104390000C945120DF91CF91FF90EF90DF90CF9060
:1043A00008956F927F928F929F92AF92BF92CF9219
:1043B000DF92EF92FF920F931F93CF93DF93EC0165
:1043C0003A018B012B893C894D895E89B301C80173
:1043D0000E94F131882309F454C0CF88D88CE98C2D
:1043E000FA8C46015701B7FAB094B7F8B094A5011A
:1043F0009401B301C8010E94F13187FD0BC0A701F0
:104400009601B301C8010E94933318162CF43601AB
:10441000870102C03401850120E030E0A901B30129
:10442000C8010E94F131811105C01BA21CA21DA26E
:104430001EA221C09301A80160E074E284E799E420
:104440000E94F5319F770E9462326BA37CA38DA3FB
:104450009EA37E0183E4E80EF11CDD24D39420E0CA
:1044600030E0A901B301C8010E94933318160CF083
:10447000D12CF701D082C301D8018B8B9C8BAD8BE3
:10448000BE8BDF91CF911F910F91FF90EF90DF9046
:10449000CF90BF90AF909F908F907F906F90089536
:1044A000FC0163897489858996890895CF93DF9388
:1044B000EC01CE010E94C1208111FBCFDF91CF9191
:1044C00008950F931F93FC01078510892189328974
:1044D00043855485658576850417150726073707B4
:1044E00079F0ED5BFF4F40175107620773071CF42B
:1044F00021E0208301C010821F910F910C94351E82
:1045000080E01F910F910895CF93DF93EC010E94FB
:104510003A20CE01DF91CF910C9456221F920F9238
:104520000FB60F9211242F933F934F935F936F9386
:104530007F938F939F93AF93BF93EF93FF9380915C
:10454000670687FF05C010928500109284001AC08C
:1045500020916706332727FD30958091660690E00D
:10456000281739077CF480916706992787FD909575
:10457000FC01EE0FFF1FE80FF91FE859F94F80818A
:1045800086FD15C0809167068F5F80936706209136
:104590006706332727FD30958091660690E028173F
:1045A0003907BCF4809167068C305CF112C08091B1
:1045B0006706992787FD9095FC01EE0FFF1FE80F16
:1045C000F91FE859F94F808160E08F730E94AC2B8E
:1045D000D9CF8091840090918500049680349C49C5
:1045E00018F480E49CE905C08091840090918500D6
:1045F000049690938900809388008FEF80936706DC
:1046000038C02091840030918500809167069927F9
:1046100087FD9095FC01EE0FFF1FE80FF91FE85989
:10462000F94F81819281820F931F9093890080932B
:10463000880080916706992787FD9095FC01EE0F11
:10464000FF1FE80FF91FE859F94F808186FF11C05D
:1046500080916706992787FD9095FC01EE0FFF1F5B
:10466000E80FF91FE859F94F808161E08F730E94CC
:10467000AC2BFF91EF91BF91AF919F918F917F9163
:104680006F915F914F913F912F910F900FBE0F90BF
:104690001F901895209166062C30A0F431E0320F5F
:1046A00030936606FC012083822F90E0FC01EE0F20
:1046B000FF1FE80FF91FE859F94F88EB9BE0928341
:1046C000818308952FEFFC0120830895DF92EF92FC
:1046D000FF920F931F93CF93DF93EC01D62E7A01B5
:1046E000890188818C3008F066C061E08D2D0E94C0
:1046F000732B8881A82FB0E0FD01EE0FFF1FEA0F9A
:10470000FB1FE859F94F2D2D2F739081907C922B30
:10471000908360E272E06E197F0977FF02C06D5FDF
:104720007F4F7595679575956795698340E659E064
:10473000401B510B57FF02C04D5F5F4F559547958A
:10474000559547954A836CE00E9457349CE0899FB9
:10475000B001112420E030E0A901460F571FFA01F3
:10476000EE0FFF1FE40FF51FE859F94F908196FDFA
:1047700016C02F5F3F4F2C30310571F781110FC0EC
:104780001092800082E08093810010928500109248
:104790008400B19A80916F00826080936F0088815D
:1047A00090E0FC01EE0FFF1FE80FF91FE859F94FE9
:1047B0008081806480838881DF91CF911F910F91E8
:1047C000FF90EF90DF90089520E639E040E252E05C
:1047D0000C946623FC01808190E0FC01EE0FFF1F2A
:1047E000E80FF91FE859F94F80818F7B8083089586
:1047F000FC0180818C3070F5918128E830E0291B24
:10480000310997FD3395220F331F220F331F621793
:1048100073077CF0928128E532E0291B310997FD6E
:104820003395220F331F220F331F621773070CF4C7
:104830009B0122503109220F331F4FB7F89490E0AB
:10484000FC01EE0FFF1FE80FF91FE859F94F328303
:1048500021834FBF08954F925F926F927F92AF92E4
:10486000BF92CF92DF92EF92FF920F931F93CF935D
:10487000DF93EC01603282E078070CF040C077FDF6
:1048800006C0653B71052CF064EB70E002C060E08F
:1048900070E0898128E830E0281B310987FD3395D5
:1048A000220F331F220F331F5901CC24B7FCC094B1
:1048B000DC2C882777FD8095982F2A8148E552E0E7
:1048C000421B510927FD5395440F551F440F551F97
:1048D0002A01662457FC6094762C7F926F925F9237
:1048E0004F9214EBE12EF12C00E010E020E030E0DC
:1048F000A9010E948D300F900F900F900F90CE0164
:10490000DF91CF911F910F91FF90EF90DF90CF90AB
:10491000BF90AF907F906F905F904F900C94F82372
:10492000CB010C949737CB01642F0C949F37809167
:10493000BD0690E02091BE06821B9109089520914A
:10494000BE068091BD06281750F4E22FF0E0E15436
:10495000F94F808190E02F5F2093BE0608958FEF7E
:104960009FEF0895E091BE068091BD06E81730F4F0
:10497000F0E0E154F94F808190E008958FEF9FEFD0
:1049800008950895CF92DF92EF92FF920F931F93B5
:10499000CF93DF937C01CB018A01209199062223DA
:1049A00089F0EB016B01C40ED51ECC15DD0569F055
:1049B0006991D701ED91FC910190F081E02DC70143
:1049C0000995F3CF642F0E942126C801DF91CF9172
:1049D0001F910F91FF90EF90DF90CF900895CF93AC
:1049E000DF931F92CDB7DEB769832091990622230A
:1049F000D1F020919A06203240F021E030E0FC0115
:104A00003383228380E090E015C080919B06E82FDD
:104A1000F0E0E456F94F998190838F5F80939B0675
:104A200080939A0605C061E0CE0101960E9421267E
:104A300081E090E00F90DF91CF910895FC01138207
:104A4000128248EE53E060E070E044835583668351
:104A5000778389EE91E09183808308951092BE065A
:104A60001092BD0610929B0610929A060C946C252B
:104A7000862F413208F040E26FEB76E00E948A25F3
:104A80001092BE068093BD06089521E00C9438254F
:104A900081E0809399066093BC0610929B06109269
:104AA0009A0608950F93062F21E040919A066CE92B
:104AB00076E08091BC060E94CE2510929B06109253
:104AC0009A06109299060F91089561E00C94522570
:104AD0008DE896E00C941E2510924C0781E080939F
:104AE0004A071092490761E082E10E94AC2B61E025
:104AF00083E10E94AC2BE9EBF0E080818E7F808324
:104B000080818D7F808388E48093B80085E48093E2
:104B1000BC000895413208F03FC090914C079111BC
:104B2000FCCF91E090934C0720934A072FEF2093FE
:104B3000DF0610922407240F2093230790934B073E
:104B400090914B07880F892B80934B0780914907E1
:104B5000813041F41092490780914B078093BB004C
:104B600085EC01C085EE8093BC0080914C078130BC
:104B7000E1F380912407841710F44091240725E283
:104B800037E0FB01D9018A2F821B841718F48D911D
:104B90008193F9CF842F089580E008950F934132D7
:104BA00008F046C090914C079111FCCF92E0909391
:104BB0004C0700934A079FEF9093DF06109224075B
:104BC00040932307FB0165E277E0DB019A2F961BF8
:104BD000941718F491919D93F9CF10924B079091EF
:104BE0004B07880F892B80934B07809149078130B1
:104BF00041F41092490780914B078093BB0085ECEC
:104C000001C085EE8093BC00222321F080914C07E7
:104C10008230E1F38091DF068F3F61F08091DF0603
:104C2000803251F08091DF06803341F483E007C089
:104C300081E005C080E003C082E001C084E00F9104
:104C40000895613298F420914C07243089F46093E0
:104C50000107FC0183E097E0DC012A2F281B2617BF
:104C600018F421912D93F9CF80E0089581E0089503
:104C700082E0089585ED8093BC008091BC0084FDA6
:104C8000FCCF10924C07089585EC8093BC001092E5
:104C90004C0708951F920F920FB60F9211242F9375
:104CA0003F934F935F936F937F938F939F93AF93B4
:104CB000BF93EF93FF938091B900887F803609F40A
:104CC0009CC068F5883209F45BC090F4803109F427
:104CD00054C038F4882309F4F5C0883009F44DC075
:104CE000F5C0883109F44CC0803209F45DC0EEC0D3
:104CF000803409F468C048F4803309F455C088331F
:104D000009F0E4C08093DF06A8C0803509F44FC0E5
:104D1000883509F45DC0883409F0D8C0D5C0883919
:104D200009F4C6C0A8F4883709F467C038F4883697
:104D300009F463C0803709F460C0C8C0883809F43A
:104D4000B7C0803909F45FC0803809F0BFC05BC0CC
:104D5000803B09F485C038F4803A09F466C0883A8B
:104D600009F47EC0B3C0803C09F4A6C0883C09F4B5
:104D7000A3C0883B09F489C0A9C080914B0710C02B
:104D80009091240780912307981770F5E0912407EC
:104D900081E08E0F80932407F0E0EB5DF84F808177
:104DA0008093BB0085EC85C08093DF068DC0E091C9
:104DB000240781E08E0F809324078091BB00F0E0F0
:104DC000EB5DF84F808390912407809123076DC09D
:104DD000E091240781E08E0F809324078091BB002F
:104DE000F0E0EB5DF84F808380914A0781116CC041
:104DF00081E08093490784EA60C083E080934C0798
:104E00001092E006CFCF8091E006803208F050C0CB
:104E1000E091E00681E08E0F8093E0068091BB0078
:104E2000F0E0EF51F94F8083BDCF8091E0068032F2
:104E300030F4E091E006F0E0EF51F94F10820E946B
:104E40003A266091E00670E0E0914507F091460750
:104E500081EE96E009951092E0060E94442636C045
:104E600084E080934C071092020710920107E091B2
:104E70004707F0914807099580910107811105C006
:104E800081E08093010710920307E091020781E01F
:104E90008E0F80930207F0E0ED5FF84F80818093E2
:104EA000BB009091020780910107981708F47ACF10
:104EB00085E88093BC000AC085EC8093BC0010920A
:104EC0004C0704C01092DF060E943A26FF91EF9132
:104ED000BF91AF919F918F917F916F915F914F9112
:104EE0003F912F910F900FBE0F901F90189520E0CB
:104EF00030E040E050E08D5B9F4F0C946129EF92D1
:104F0000FF920F931F93CF93DF938C017B018DE86A
:104F100096E00E942E25E801CD5BDF4FCE010E9476
:104F2000CE29F801F282E182B70180E090E00E9490
:104F30008E32AB01BC01CE010E94FB2910E020E0C3
:104F400030E040E050E0612FCE010E9461291F5FF8
:104F50001031A9F7DF91CF911F910F91FF90EF9042
:104F600008959A018D5B9F4F211540E1340728F089
:104F700020E030E040E050E102C040E050E00C941E
:104F80006129411102C00C94772720E030E040E015
:104F900050E18D5B9F4F0C946129FF920F931F93FB
:104FA000CF93DF939C014330E0F54150A42FB0E054
:104FB000FC0184E1489FE00DF11D112486A58111BB
:104FC00026C046A772A761A735A724A7442351F09E
:104FD000413079F456E0C5E0D3E014E007E082E028
:104FE000F82E07C05CE0CBE0D9E01AE00DE098E0D5
:104FF000F92E84E18A9FF0018B9FF00D1124E20FBE
:10500000F31FF3A206A314A3D5A3C7A350A744E19B
:105010004A9FC0014B9F900D11244B96820F931F06
:1050200002C080E090E0DF91CF911F910F91FF903F
:105030000895FC011482138215821282118210825B
:105040000895BF92CF92DF92EF92FF920F931F933A
:10505000CF93DF931F92CDB7DEB78C01B62E7C01C4
:1050600083E0E80EF11C6801EBE1CE0ED11CC70114
:105070000E941928F6E0EF0EF11CEC14FD04B9F7BC
:10508000F80113A616A612A611A617AEEE5BFF4FE7
:105090001082F80116AE15AE7801F3E4EF0EF11CA4
:1050A00060E4C7010E945E29F801B0826B2DCE0139
:1050B00001960E945E298981F70180830F90DF911C
:1050C000CF911F910F91FF90EF90DF90CF90BF9005
:1050D0000895CF93DF93EC01698589899A890E94AD
:1050E00077276A8589899A890E9477276C858989BB
:1050F0009A890E9477276D8589899A890E947727E6
:1051000040E050E0688589899A890E94B12740E093
:1051100050E06B8589899A89DF91CF910C94B127F2
:105120000F931F93CF93DF93EC01142F88894130A5
:1051300019F483FF05C00DC0423049F483FF09C054
:10514000613011F4805F01C08051888B41C04330D1
:1051500031F4613011F4885FF8CF8850F6CF4430D5
:10516000B9F5613011F48F5F01C08150888B2889B7
:105170002F73288B822F90E0203148F4ECE5F1E08A
:10518000E81BF90B2081FC01E45BFE4F1FC030EFF0
:10519000320F303138F4FC01E45CFE4F2081ECE644
:1051A000F1E012C02052203148F4ECE7F1E0E81BB6
:1051B000F90B2081FC01E45DFE4F08C0FC01E45EB8
:1051C000FE4F2081ECE8F1E0E81BF90B008102C002
:1051D0002FEF0FEF88898F73888B80E1289FA001C4
:1051E0001124688589899A890E94B12780E1089FE6
:1051F000A00111246B8589899A890E94B127E889C9
:105200001430A1F4E03110F010E001C013E080EFA1
:105210008E0F803108F4166080EE8E0F803108F416
:105220001C60E053E03168F419600BC0E695E69528
:10523000E695E83028F4F0E0EB50FE4F108101C015
:1052400010E089899A8910FF05C041E06A850E94B3
:10525000C12703C06A850E94772789899A8911FF2F
:1052600005C041E06C850E94C12703C06C850E9487
:10527000772789899A8912FF05C041E069850E94D4
:10528000C12703C069850E94772789899A8913FFFE
:1052900005C041E06D850E94C12703C06D850E9455
:1052A00077278889DF91CF911F910F910895DC01B5
:1052B000ED91FC910190F081E02D0994FC01608357
:1052C0000895FF920F931F93CF93DF9300D0CDB734
:1052D000DEB7162FF52E032FFC0160818DE896E0D6
:1052E0002A8349830E944825E0918D06F0918E061D
:1052F00084E0189FB00111246A5F7F4F0190F08114
:10530000E02D8DE896E009954981642F7F2D8DE889
:1053100096E00E9457296F2D70E08DE896E00E947C
:1053200057292A81622F702F8DE896E00E94572915
:10533000602F70E08DE896E00E9457298DE896E096
:105340000F900F90DF91CF911F910F91FF900C94D0
:1053500065251F93CF93DF931F92CDB7DEB7162F2E
:10536000FC0160818DE896E049830E944825612F09
:105370008DE896E00E94EF244981642F8DE896E045
:105380000E94EF248DE896E00F90DF91CF911F915E
:105390000C94652540E060E00C94A929CF93DF933D
:1053A000EC018DE896E00E942E25CE01DF91CF9191
:1053B0000C94CA291F93CF93DF93EC01162F6881B9
:1053C0008DE896E00E944825612F8DE896E00E94C6
:1053D000EF248DE896E00E94652541E068818DE824
:1053E00096E00E9445258DE896E00E949F24DF917B
:1053F000CF911F910895CF92DF92EF92FF921F936A
:10540000CF93DF93EC019A01AB0160E27CEB8EEB72
:1054100095E40E94F53120E030E040E85FE30E942F
:105420008C316B017C016DEF71E086E597E00E94A5
:105430004D2E22E030E0B701A60186E597E00E94FC
:105440007B3020E030E040E05FE3C701B6010E941E
:105450008D310E94CB320E946232F62E63E172E0FF
:1054600086E597E00E944D2E4AE050E06F2D86E5DC
:1054700097E00E94772F60E0CE010E94DA29182F72
:10548000482F4F76406160E0CE010E94A9294F2D40
:105490006EEFCE010E94A929412F60E0CE010E944B
:1054A000A92965E070E080E090E00E94DD2A412FAC
:1054B000416A60E0CE01DF91CF911F91FF90EF90A4
:1054C000DF90CF900C94A9291F920F920FB60F92E4
:1054D00011242F933F938F939F93AF93BF9380910A
:1054E0004E0790914F07A0915007B091510730910E
:1054F0004D0723E0230F2D3720F40196A11DB11D88
:1055000005C026E8230F0296A11DB11D20934D076B
:1055100080934E0790934F07A0935007B093510785
:105520008091520790915307A0915407B09155076D
:105530000196A11DB11D8093520790935307A0932C
:105540005407B0935507BF91AF919F918F913F91B1
:105550002F910F900FBE0F901F9018952FB7F894B2
:1055600060914E0770914F078091500790915107BD
:105570002FBF08953FB7F894809152079091530739
:10558000A0915407B091550726B5A89B05C02F3FA1
:1055900019F00196A11DB11D3FBF6627782F892FF5
:1055A0009A2F620F711D811D911D42E0660F771FBA
:1055B000881F991F4A95D1F70895CF92DF92EF92F5
:1055C000FF92CF93DF936B017C010E94BA2AEB011B
:1055D000C114D104E104F10489F00E948B310E94CE
:1055E000BA2A6C1B7D0B683E734090F381E0C81AA9
:1055F000D108E108F108C851DC4FEACFDF91CF9123
:10560000FF90EF90DF90CF900895019739F0880FC9
:10561000991F880F991F02970197F1F708957894C1
:1056200084B5826084BD84B5816084BD85B58260A7
:1056300085BD85B5816085BDEEE6F0E08081816045
:105640008083E1E8F0E01082808182608083808145
:1056500081608083E0E8F0E0808181608083E1EB1D
:10566000F0E0808184608083E0EBF0E08081816005
:105670008083EAE7F0E080818460808380818260BB
:1056800080838081816080838081806880831092A4
:10569000C1000895833081F028F4813099F0823080
:1056A000A1F008958730A9F08830B9F08430D1F4A2
:1056B000809180008F7D03C0809180008F778093E0
:1056C0008000089584B58F7702C084B58F7D84BD36
:1056D00008958091B0008F7703C08091B0008F7DD6
:1056E0008093B0000895CF93DF9390E0FC01E456DF
:1056F000FD4F2491FC01E055FD4F8491882349F131
:1057000090E0880F991FFC01E253FD4FA591B491E1
:105710008C539D4FFC01C591D4919FB7611108C076
:10572000F8948C91209582238C93888182230AC0DF
:10573000623051F4F8948C91322F309583238C93FE
:105740008881822B888304C0F8948C91822B8C935F
:105750009FBFDF91CF9108950F931F93CF93DF9356
:105760001F92CDB7DEB7282F30E0F901E857FD4F83
:105770008491F901E456FD4F1491F901E055FD4F74
:1057800004910023C9F0882321F069830E944A2BE9
:105790006981E02FF0E0EE0FFF1FEC53FD4FA59164
:1057A000B4919FB7F8948C91611103C01095812337
:1057B00001C0812B8C939FBF0F90DF91CF911F91E0
:1057C0000F910895FC01818D228D90E0805C9F4FA8
:1057D000821B91098F7399270895FC01918D828D09
:1057E000981731F0828DE80FF11D858D90E00895B6
:1057F0008FEF9FEF0895FC01918D828D981761F0D6
:10580000828DDF01A80FB11D5D968C91928D9F5FF7
:105810009F73928F90E008958FEF9FEF08958FE729
:105820009DE2892B49F080E090E0892B29F00E94CD
:105830007F2D81110C9400000895FC01848DDF01FF
:10584000A80FB11DA35ABF4F2C91848D90E00196F3
:105850008F739927848FA689B7892C93A089B189E2
:105860008C9180648C93938D848D981306C00288EC
:10587000F389E02D80818F7D80830895CF93DF931E
:10588000EC01888D8823C9F0EA89FB89808185FD38
:1058900005C0A889B9898C9186FD0FC00FB607FC99
:1058A000F5CF808185FFF2CFA889B9898C9185FFDA
:1058B000EDCFCE010E941D2CE7CFDF91CF9108954F
:1058C000CF92DF92FF920F931F93CF93DF931F929C
:1058D000CDB7DEB76C01DC015B969C915B975C9663
:1058E0008C915C97981307C05096ED91FC9151975D
:1058F000808185FD32C0F601038D10E00F5F1F4FE0
:105900000F731127F02EF601848DF81211C00FB617
:1059100007FCF9CFD6015096ED91FC91519780810B
:1059200085FFF1CFC60169830E941D2C6981EBCFF1
:10593000838DE80FF11DE35AFF4F6083D6015B961C
:105940000C935B975296ED91FC9153978081806206
:10595000808381E058968C930DC0D6015696ED91C8
:10596000FC91579760835096ED91FC9151978081FF
:105970008064808381E090E00F90DF91CF911F9150
:105980000F91FF90DF90CF900895BF92CF92DF925A
:10599000EF92FF92CF93DF93EC016A017B01B22E6D
:1059A000E889F98982E08083411581EE5807610515
:1059B0007105A1F060E079E08DE390E0A701960128
:1059C0000E94633421503109410951095695479588
:1059D00037952795211580E1380798F0E889F989EE
:1059E000108260E874E88EE190E0A70196010E94C1
:1059F000633421503109410951095695479537952E
:105A00002795EC85FD853083EE85FF852083188EF4
:105A1000EC89FD89B082EA89FB898081806180837D
:105A2000EA89FB89808188608083EA89FB8980819B
:105A300080688083EA89FB8980818F7D8083DF9104
:105A4000CF91FF90EF90DF90CF90BF9008951F927D
:105A50000F920FB60F9211242F938F939F93EF9372
:105A6000FF93E0916607F09167078081E0916C07F2
:105A7000F0916D0782FD12C0908180916F078F5F5A
:105A80008F7320917007821751F0E0916F07F0E05B
:105A9000EA5AF84F958F80936F0701C08081FF917C
:105AA000EF919F918F912F910F900FBE0F901F90AC
:105AB00018951F920F920FB60F9211242F933F93B8
:105AC0004F935F936F937F938F939F93AF93BF9306
:105AD000EF93FF9386E597E00E941D2CFF91EF91D5
