:100000000C94AC010C94D4010C94D4010C94D40144
:100010000C94D4010C94D4010C94D4010C94D4010C
:100020000C94D4010C94D4010C94D4010C945E2D46
:100030000C94D4010C94D4010C94D4010C94D401EC
:100040000C9404300C94D4010C94B2310C94F9311A
:100050000C94D4010C94D4010C94D4010C94D401CC
:100060000C94D4010C94D401000000006410B71D5E
:10007000C8206E3BAC30D9269041DC76F4516B6BD6
:100080005861B24D3C7105502083B8ED44930FF098
:10009000E8A3D6D68CB361CBB0C2649BD4D2D3864E
:1000A00078E20AA01CF2BDBD6D6D004368616E6709
:1000B00065642050656E20776964746820746F20D1
:1000C000004E657720616363656C65726174696F6A
:1000D0006E3A20004E6577206D61782073706565FB
:1000E000643A200055703A2000446F776E3A200041
:1000F000504753504545442C0050474C4946542CDA
:10010000005047535445504D554C5449504C494567
:10011000522C005047535445505350455252455667
:100120002C0050474D4D5045525245562C005047DB
:1001300053495A452C0050474E414D452C0029004B
:10014000526563616C6320706167654865696768C3
:100150007420696E20737465707320280029005222
:100160006563616C632070616765576964746820BA
:10017000696E2073746570732028002900292C2073
:1001800073746570735065724D4D2028005265631D
:10019000616C63206D6D506572537465702028002A
:1001A0004C6F61646564206D6F746F722073746549
:1001B00070206D756C7469706C6965723A004C6F73
:1001C00061646564206D616368696E65206E616D50
:1001D000653A004C6F6164656420757020706F73C0
:1001E0003A004C6F6164656420646F776E20706FB5
:1001F000733A004C6F61646564206D6F746F722098
:10020000737465707320706572207265763A004C65
:100210006F61646564206D6D207065722072657613
:100220003A004C6F61646564206D616368696E6556
:10023000206865696768743A004C6F616465642082
:100240006D616368696E652077696474683A00203F
:1002500069736E2774206120636F6D6D616E642019
:1002600049207265636F676E6973652E00536F7204
:1002700072792C200029206E6F7420706172736572
:10028000642E00436F6D6D616E64202800436865C5
:10029000636B73756D206E6F74206D617463686538
:1002A00064213A004920676F742000504F4C41523E
:1002B0004752415048204F4E2100000000002400CA
:1002C00027002A0000000000250028002B00000065
:1002D000000023002600290004040404040404048C
:1002E00002020202020203030303030301020408E1
:1002F0001020408001020408102001020408102090
:1003000000000007000201000003040600000000D6
:1003100000000000494E46494E4954594E414ECDC9
:10032000CCCC3D0AD7233C17B7D13877CC2B3295AC
:1003300095E6241FB14F0A000020410000C842008A
:10034000401C4620BCBE4CCA1B0E5AAEC59D740054
:100350005A0A2F2E5F33530A11241FBECFEFD8E065
:10036000DEBFCDBF12E0A0E0B1E0EEE7FAE702C0E9
:1003700005900D92AE3EB107D9F715E0AEEEB2E0B2
:1003800001C01D92A43CB107E1F713E0C6E5D3E03C
:1003900004C02297FE010E94EC3CC035D107C9F78A
:1003A0000E94AF330C94323D0C940000CF93DF9346
:1003B000BC018230910510F462E070E0A091C005AC
:1003C000B091C105ED01E0E0F0E040E050E021C077
:1003D000888199818617970769F48A819B81309774
:1003E00019F09383828304C09093C1058093C00564
:1003F000FE0134C06817790738F44115510519F02A
:100400008417950708F4AC01FE018A819B819C0149
:10041000E9012097E9F641155105A9F1CA01861BAA
:10042000970B049708F4BA01E0E0F0E02AC08D9140
:100430009C91119784179507F9F46417750781F457
:1004400012968D919C911397309719F09383828324
:1004500004C09093C1058093C005FD0132964CC045
:10046000CA01861B970BFD01E80FF91F6193719379
:1004700002978D939C9340C0FD01828193819C01E2
:10048000D9011097A1F68091BE059091BF05892BE7
:1004900041F480917F02909180029093BF058093F8
:1004A000BE0540918102509182024115510541F4EF
:1004B0004DB75EB780917D0290917E02481B590B2B
:1004C0002091BE053091BF05CA01821B930B861790
:1004D000970780F0AB014E5F5F4F8417950750F090
:1004E000420F531F5093BF054093BE05F90161931E
:1004F000719302C0E0E0F0E0CF01DF91CF91089569
:10050000CF93DF93009709F450C0EC0122971B8230
:100510001A82A091C005B091C105109709F140E081
:1005200050E0AC17BD0708F1BB83AA83FE012191FF
:100530003191E20FF31FAE17BF0779F48D919C91B3
:100540001197280F391F2E5F3F4F3983288312964A
:100550008D919C9113979B838A834115510571F46A
:10056000D093C105C093C00520C012968D919C9177
:100570001397AD01009711F0DC01D3CFFA01D383BB
:10058000C28321913191E20FF31FCE17DF0769F487
:1005900088819981280F391F2E5F3F4FFA013183DF
:1005A00020838A819B8193838283DF91CF910895F9
:1005B000A0E0B0E0EEEDF2E00C94033DEC01A88089
:1005C000B980CA80DB80A114B104C104D10441F414
:1005D00084E2A82E89EDB82E8BE5C82E87E0D82EB0
:1005E000C601B5012DE133EF41E050E00E94BB3C74
:1005F00027EA31E440E050E00E945B3C7B018C0143
:10060000C601B5012DE133EF41E050E00E94BB3C53
:10061000CA01B9012CEE34EF4FEF5FEF0E945B3C53
:100620006E0D7F1D801F911F97FF04C061507040A9
:1006300080409048688379838A839B839B01AC01C7
:100640005F77B901CA01CDB7DEB7EAE00C941F3D70
:100650000E94D802089583E892E00E94D80208958B
:100660006093830270938402809385029093860244
:100670000895A0E0B0E0EFE3F3E00C94FD3C6C01E2
:10068000009729F4CB010E94D6016C01C1C08EEF06
:10069000882E8FEF982E8C0C9D1C8601060F171F3D
:1006A0000815190508F4B2C0F401A081B181A6179C
:1006B000B707B8F0A530B10508F4AAC0CD0104977A
:1006C0008617970708F4A4C01297A61BB70BF8016A
:1006D000A193B193D4016D937C93CF010E948002CA
:1006E00097C07B01EA1AFB0AEEEFFFEFEE0EFF1E4A
:1006F00036016A0E7B1EC091C005D091C10544240D
:100700005524AA24BB244AC0C615D705E1F5488163
:1007100059814E155F05B8F1CA0104978E159F05E2
:10072000B0F41296A40FB51FF401B183A0832A81FF
:100730003B814114510431F0D20113963C932E9326
:10074000129766C03093C1052093C00561C08A81AD
:100750009B81F80193838283425050404E195F0978
:10076000518340834114510431F0D20113961C93FC
:100770000E93129704C01093C1050093C005F401B5
:100780007183608345C088819981A816B90608F4F1
:100790005C012E018A819B819C01E901209709F06F
:1007A000B3CF8091BE059091BF0586159705E9F4FA
:1007B000A616B706D0F4209181023091820221154D
:1007C000310541F42DB73EB780917D0290917E02B4
:1007D000281B390B02171307C8F41093BF050093A9
:1007E000BE05D4016D937C9313C0CB010E94D6014A
:1007F000EC01009759F0F40140815181B6010E944B
:100800005704C6010E9480026E0102C0CC24DD2480
:10081000C601CDB7DEB7E0E10C94193D6627772716
:100820000C94C404FC0188279927E8942191203274
:10083000E9F3293010F02E30C8F32B3241F02D327D
:1008400039F4689404C00E94BC04820F911D219168
:1008500020532A30C0F31EF4909581959F4F089540
:100860001F93FC0199278827BC01E894119110324D
:10087000E9F3193010F01E30C8F31B3251F01D326D
:1008800049F4689406C00E94A704610F711D811D80
:10089000911D119110531A30B0F33EF4909580954C
:1008A000709561957F4F8F4F9F4F1F910895FB016A
:1008B000DC0102C001900D9241505040D8F70895DC
:1008C000FB01DC018D91019080190110D9F3990B86
:1008D0000895FB01DC0101900D920020E1F70895DD
:1008E000FB01DC014150504030F08D9101908019A6
:1008F00019F40020B9F7881B990B0895FB01DC015E
:100900004150504048F001900D920020C9F701C0BD
:100910001D9241505040E0F70895FB01519155233D
:10092000A9F0BF01DC014D9145174111E1F759F4E0
:10093000CD010190002049F04D9140154111C9F3BE
:10094000FB014111EFCF81E090E001970895592F0D
:10095000482F372F262F660F771F881F991F660F86
:10096000771F881F991F620F731F841F951F660FC3
:10097000771F881F991F08957AE0979F902D879F72
:10098000802D910D11240895A0E0B0E0EAECF4E090
:100990000C94013DEC015B016115710519F0FB013F
:1009A00091838083F9908F2D90E00E94F03C892BF9
:1009B000C9F7FDE2FF1621F4F990EE24E39405C097
:1009C0002BE2F21609F4F990EE248E01015010404A
:1009D000C80164E173E043E050E00E942406892BE3
:1009E00001F58E010E5F1F4FC80167E173E045E01E
:1009F00050E00E942406892B19F48E01095F1F4FD5
:100A0000A114B10419F0F50111830083E0FC04C0C6
:100A100070E090E080E814C070E090E080E86FEF54
:100A200008C1C8016CE173E043E050E00E94240675
:100A3000892B69F4A114B10429F470E090E080ECF2
:100A40006FE7F7C02296F501D183C083F6CF8824E3
:100A5000992440E050E060E070E0EF2DE053EA3090
:100A6000A0F5F2E0EF2A8E2D90E09C012870307006
:100A7000E2FE06C0232B79F50894811C911C2BC043
:100A8000232B19F0089481089108DB01CA0112E0B8
:100A9000880F991FAA1FBB1F1A95D1F7480F591F1E
:100AA0006A1F7B1F440F551F661F771F4E0F511D76
:100AB000611D711D483929E9520729E9620729E1B9
:100AC000720748F084E0E82A06C0EE3F31F4E3FC08
:100AD00039C098E0E92AF990C0CFE53311F0E5314B
:100AE00089F529912D3219F4E0E1EE2A05C02B3267
:100AF00019F081E090E003C0299182E090E0E22FBC
:100B0000E053EA3018F0C81BD90B1CC020E030E0DD
:100B1000FCE020383F075CF4C901880F991F880F5B
:100B2000991F280F391F220F331F2E0F311DE991F6
:100B3000E053EA3068F3E4FE03C0309521953F4F5F
:100B4000820E931ECE2CDD24E1FE07C0A114B10459
:100B500021F02197F501D183C083CB01BA010E9416
:100B6000DD3A7B018C01F3E0CF22DD2423E0C216C5
:100B7000D10421F417FB109517F91095570168015E
:100B8000C801B70120E030E040E050E00E94403A68
:100B9000882309F44AC097FE0DC023E3E22E23E028
:100BA000F22E9094819491089394C0E2D0E000E0FA
:100BB00010E012C09BE4E92E93E0F92EF6CFF70186
:100BC0002591359145915491C601B5010E94933B01
:100BD0005B016C018C1A9D0A8C169D0684F7D595D5
:100BE000C7950F5F1F4F0630110529F08CEF9FEF5F
:100BF000E80EF91EF1CFC501D6017C018D018C2DC7
:100C0000880F8D2D881F8F3F51F0C601B50120E060
:100C100030E040E050E00E94403A882331F482E224
:100C200090E09093C3058093C2057E2D9F2D802F69
:100C3000612F272F392F482F562FB901CA01CDB761
:100C4000DEB7ECE00C941D3DFB01DC01415050404F
:100C500088F08D9181341CF08B350CF4805E6591A9
:100C600061341CF06B350CF4605E861B611171F30E
:100C7000990B0895881BFCCFAF92BF92CF92DF9261
:100C8000EF92FF920F931F936E157F0580079107D8
:100C900034F42E153F054007510764F42CC0E616C6
:100CA000F7060807190794F4A216B306C406D5067A
:100CB0003CF423C0A216B306C406D506BCF41FC07C
:100CC0002A153B054C055D05C4F41BC06E157F0558
:100CD0008007910791F42A153B054C055D058CF0C2
:100CE000A216B306C406D50644F409C02A153B056E
:100CF0004C055D0511F484E005C082E003C083E08B
:100D000001C081E01F910F91FF90EF90DF90CF9095
:100D1000BF90AF900895EF92FF920F931F937B01C6
:100D20008C01662757FD6095762FCB01BA010E9492
:100D3000DF3A2091FA023091FB024091FC0250917F
:100D4000FD020E94933BA80197010E94443A7B0157
:100D50008C0120E030E040E050E40E948F3B87FFB0
:100D600003C061E070E004C0C801B7010E94AC3A62
:100D7000CB011F910F91FF90EF9008956F927F929A
:100D80008F929F92AF92BF92CF92DF92EF92FF929B
:100D90000F931F93CF93DF937C015B01662757FD71
:100DA0006095762FCB01BA010E94DF3A3B014C01DE
:100DB0000027F7FC0095102FC801B7010E94DF3A09
:100DC0007B018C01CC24B7FCC094DC2CC601B5019E
:100DD0000E94DF3A9B01AC01C801B7010E94443A6E
:100DE000A40193010E94933B9B01AC01C401B30198
:100DF0000E94DB397B018C010E94AC3AEB01BE0101
:100E0000882777FD8095982F0E94DF3A9B01AC01DF
:100E1000C801B7010E94DB3920E030E040E05FE329
:100E20000E948F3B18160CF42196CE01DF91CF91D2
:100E30001F910F91FF90EF90DF90CF90BF90AF90F8
:100E40009F908F907F906F900895EF92FF920F93F5
:100E50001F938C017B01FC016081718182819381F0
:100E600020E030E040E050E00E94DC39F80160838F
:100E7000718382839383F701608171818281938181
:100E800020E030E040E050E00E94DC39F701608370
:100E90007183828393831F910F91FF90EF90089548
:100EA0002F923F924F925F926F927F928F929F927A
:100EB000AF92BF92CF92DF92EF92FF920F931F9368
:100EC0001B012C0139014A01E0900203F090030359
:100ED0000091040310910503C801B701A80197010F
:100EE0000E945B3C0E94DF3A5B016C01C401B301CC
:100EF000A40193010E94933B9B01AC01C601B50183
:100F00000E94DB395B016C01C201B101A2019101B8
:100F10000E94933B9B01AC01C601B5010E94DC39E4
:100F20005B016C01EE0CFF1C001F111FC801B70113
:100F30000E94DF3A9B01AC01C601B5010E94443A10
:100F40001F910F91FF90EF90DF90CF90BF90AF90E7
:100F50009F908F907F906F905F904F903F902F90D9
:100F600008950F931F93CF93DF93242F2627A22F4B
:100F7000B0E0AF70B070AA0FBB1FAA0FBB1FC8E6CE
:100F8000D0E0AC0FBD1FFD01059115912591349165
:100F9000E4E09695879577956795EA95D1F70627CA
:100FA00017272827392742954F70402750E04F7068
:100FB0005070440F551F440F551F4C0F5D1FFA0111
:100FC00085919591A591B49144E036952795179513
:100FD00007954A95D1F7082719272A273B27B801F3
:100FE000C901DF91CF911F910F910895EF92FF9268
:100FF0000F931F938130910509F09DC16F5F7F4F63
:1010000009F04CC283EC93E060E071E00E941C396F
:101010008FEE92E00E94EA2B83EF92E065E071E0B0
:101020000E941C398AEC93E066E071E00E941C3952
:101030002091870230918802442737FD4095542F34
:1010400060918D0270918E02882777FD8095982F90
:101050000E945B3C0E94DF3A7B018C016091890217
:1010600070918A0280918B0290918C02A801970165
:101070000E94443A6093FA027093FB028093FC0250
:101080009093FD02C801B7012091890230918A0234
:1010900040918B0250918C020E94443A7B018C015A
:1010A0006093FE027093FF0280930003909301030C
:1010B00060919D0270919E02882777FD8095982F00
:1010C0000E94DF3AA80197010E94933B0E94AC3A2C
:1010D00060930203709303038093040390930503CA
:1010E00060919F027091A002882777FD8095982FCC
:1010F0000E94DF3AA80197010E94933B0E94AC3AFC
:101100006093060370930703809308039093090389
:1011100081ED93E06FE071E00E941C3988ED93E06F
:1011200061E171E00E941C398FED93E065E171E0AF
:101130000E941C3986EE93E06DE171E00E941C393B
:101140008DEE93E060E571E00E941C3984EF93E03E
:1011500060E571E00E941C398BEF93E060E571E07F
:101160000E941C3982E094E060E571E00E941C3925
:1011700089E094E06FE571E00E941C3980E194E021
:1011800065E671E00E941C3987E194E06CE671E04D
:101190000E941C398EE194E064E771E00E941C39E2
:1011A00085E294E06FE771E00E941C398CE294E0E4
:1011B00069E074E00E94B9398BE193E065E071E089
:1011C0000E941C3983E394E065E871E00E941C39B9
:1011D0008AE394E067E871E00E941C3981E494E0BE
:1011E0006CE871E00E941C3988E494E060E971E0E9
:1011F0000E941C398FE494E064E971E00E941C397C
:1012000086E594E068E971E00E941C398DE594E080
:101210006CE971E00E941C3984E694E060EA71E0B8
:101220000E941C398BE694E064EA71E00E941C394C
:1012300082E794E068EA71E00E941C3989E794E053
:101240006CEA71E00E941C3980E894E060EB71E088
:101250000E941C3987E894E064EB71E00E941C391D
:101260008EE894E068EB71E00E941C3985E994E017
:101270006CEB71E00E941C398CE994E060EC71E049
:101280000E941C3983EA94E064EC71E00E941C39EE
:101290008AEA94E068EC71E00E941C3981EB94E0EA
:1012A0006CEC71E00E941C3988EB94E060ED71E019
:1012B0000E941C398FEB94E064ED71E00E941C39B0
:1012C00086EC94E068ED71E00E941C398DEC94E0AE
:1012D0006CED71E00E941C3984ED94E060EE71E0E9
:1012E0000E941C398BED94E064EE71E00E941C3981
:1012F000609187027091880283E293E041E00E944E
:10130000962F60918702709188028FE293E042E00D
:101310000E94962F8BE393E068E478E141E458E182
:101320000E946F278FE793E06AE378E143E358E197
:101330000E946F27B3C0892B09F0B0C06F5F7F4F49
:1013400009F0ACC08BED94E00E94CF3984ED94E0BD
:101350000E94CF398DEC94E00E94CF3986EC94E066
:101360000E94CF398FEB94E00E94CF3988EB94E054
:101370000E94CF3981EB94E00E94CF398AEA94E051
:101380000E94CF3983EA94E00E94CF398CE994E03F
:101390000E94CF3985E994E00E94CF398EE894E02D
:1013A0000E94CF3987E894E00E94CF3980E894E02A
:1013B0000E94CF3989E794E00E94CF3982E794E018
:1013C0000E94CF398BE694E00E94CF3984E694E006
:1013D0000E94CF398DE594E00E94CF3986E594E0F4
:1013E0000E94CF398FE494E00E94CF3988E494E0E2
:1013F0000E94CF3981E494E00E94CF398AE394E0DF
:101400000E94CF3983E394E00E94CF398BE193E0CF
:101410000E94CF398CE294E00E94CF3985E294E0BB
:101420000E94CF398EE194E00E94CF3987E194E0A9
:101430000E94CF3980E194E00E94CF3989E094E0A6
:101440000E94CF3982E094E00E94CF398BEF93E085
:101450000E94CF3984EF93E00E94CF398DEE93E064
:101460000E94CF3986EE93E00E94CF398FED93E052
:101470000E94CF3988ED93E00E94CF3981ED93E04F
:101480000E94CF398AEC93E00E94CF3983EF92E03B
:101490000E94CF3983EC93E00E94CF391F910F91C6
:1014A000FF90EF90089580E090E06FEF7FEF0E9453
:1014B000F607089581E090E06FEF7FEF0E94F60756
:1014C0000895CF92DF92EF92FF920F931F93CF93E5
:1014D000DF936C01C0E0D0E0EE24EA94FE2C87019B
:1014E0000CC0C601BE010E940137482FC801B701D8
:1014F0000E94B1077B018C012196F60184819581C0
:10150000C817D90770F3A801970120953095409529
:101510005095B901CA01DF91CF911F910F91FF90B2
:10152000EF90DF90CF9008950F931F9384E090E0A9
:101530000E94D6018C010E9480022DB73EB7201B6D
:10154000310BC9011F910F9108950E94940A9C01CB
:1015500080910E0390910F0328173907D1F0309333
:101560000F0320930E038EE995E06FED73E00E9468
:10157000313660910E0370910F038EE995E04AE0D9
:1015800050E00E9438358EE995E06AE374E00E94ED
:10159000643608958EE995E060E174E00E94643657
:1015A00008958EE995E069E074E00E94643608953C
:1015B000AF92BF92CF92DF92EF92FF920F931F9361
:1015C0007B018C01CA01B9010E94933B5B016C0154
:1015D000C801B701A80197010E94933B9B01AC0190
:1015E000C601B5010E94DB390E94FA3B1F910F91A1
:1015F000FF90EF90DF90CF90BF90AF900895AF92A3
:10160000BF92CF92DF92EF92FF920F931F937B01D5
:101610008C0159016A01609102037091030380916A
:101620000403909105030E94DF3AA80197010E94EC
:10163000DB399B01AC010E94933B7B018C01C6010D
:10164000B501A60195010E94933B9B01AC01C80125
:10165000B7010E94DC390E94FA3B1F910F91FF9065
:10166000EF90DF90CF90BF90AF900895AF92BF9270
:10167000CF92DF92EF92FF920F931F937B018C0129
:1016800059016A01A80197010E94933B7B018C01DB
:10169000C601B501A60195010E94933B9B01AC01D7
:1016A000C801B7010E94DC390E94FA3B1F910F91DB
:1016B000FF90EF90DF90CF90BF90AF9008952F9262
:1016C0003F924F925F926F927F928F929F92AF92D2
:1016D000BF92CF92DF92EF92FF920F931F93DF930F
:1016E000CF9300D000D0CDB7DEB769837A838B83E8
:1016F0009C8359016A011701280161157105810553
:10170000910559F40F2EF0E0EF2EF0E0FF2EF0E0FF
:101710000F2FF0E01F2FF02DA4C0CA01B9010E94C5
:10172000933B7B018C01C601B50120E030E040E035
:1017300050E00E94403A882324F417FB109517F9D3
:101740001095C201B101A20191010E94DC393B0157
:101750004C01C801B701A40193010E94443A7B01E6
:101760008C0169817A818B819C810E94DF3A9B0187
:10177000AC01C801B7010E94403A8823B4F5C60104
:10178000B50120E030E040E050E00E94403A88237C
:1017900029F4C401B3010E94FA3B0DC0C201B1019A
:1017A000A60195010E94443A9B01AC015F77C601F6
:1017B000B5010E94DC397B018C01D0908F02C09072
:1017C0009002B0909102A09092022D2D3C2D4B2DB5
:1017D0005A2D0E948F3B18160CF043C08D2D9C2D66
:1017E000AB2DBA2D7C018D013CC0C601B50120E0B6
:1017F00030E040E050E00E94403A882359F4C401B0
:10180000B3010E94FA3B7B018C0117FB109517F97D
:1018100010950FC0C201B101A60195010E94443A82
:101820009B01AC015F77C601B5010E94DB397B01EA
:101830008C0180918F0290919002A0919102B091C1
:1018400092025C016D01D7FAD094D7F8D094C80108
:10185000B701A60195010E94403A882314F486013D
:101860007501B701C8010F900F900F900F90CF91A5
:10187000DF911F910F91FF90EF90DF90CF90BF907D
:10188000AF909F908F907F906F905F904F903F9020
:101890002F90089580919A028823F1F18EE995E0C6
:1018A00065E274E00E9431368BE393E00E94C92523
:1018B00020918D0230918E02442737FD4095542FA0
:1018C0000E94BB3C8EE995E0BA01A9012AE030E014
:1018D0000E94E4348EE995E063E374E00E943136BF
:1018E0008FE793E00E94C92520918D0230918E02EE
:1018F000442737FD4095542F0E94BB3C8EE995E06C
:10190000BA01A9012AE030E00E94E4348EE995E0B2
:101910006AE374E00E9464360895AC01662757FDBF
:101920006095762F8FE793E00E94602708C0809132
:101930001003882321F08FE793E00E94AE2B8FE7FE
:1019400093E00E94B925611571058105910579F72C
:101950000E944C306093130370931403809315031B
:10196000909316030895AC01662757FD6095762F76
:101970008BE393E00E94602708C0809110038823C6
:1019800021F08BE393E00E94AE2B8BE393E00E9467
:10199000B925611571058105910579F70E944C30D3
:1019A00060931303709314038093150390931603AD
:1019B0000895CF93DF93FC01EB0121153105A9F4C4
:1019C0008091A702882339F0CF0162E070E00E9485
:1019D000863CCB012CC0CF0162E070E00E94863CC7
:1019E000CB01909581959F4F22C08091A70224172B
:1019F0003507A9F4882339F0CF0162E070E00E9436
:101A0000863CCB0109C0CF0162E070E00E94863CB9
:101A1000CB01909581959F4F0E94B30C17C08823EE
:101A200011F0CF0104C0882799278E1B9F0B0E94BD
:101A3000B30CCE010E948D0C8091A702882319F06F
:101A40001092A70203C081E08093A702DF91CF919B
:101A50000895EF92FF920F931F9380910A03909144
:101A60000B03A0910C03B0910D030097A105B105E4
:101A700009F040C060910203709103038091040358
:101A8000909105030E94DF3A7B018C01609106036F
:101A90007091070380910803909109030E94DF3A37
:101AA0009B01AC01C801B7010E94360B20E030E079
:101AB00040E05FE30E94DC390E94AC3A60930A0385
:101AC00070930B0380930C0390930D038EE995E0C4
:101AD00068EE71E00E946A3540910A0350910B0351
:101AE00060910C0370910D038EE995E02AE030E0DF
:101AF0000E94243560910A0370910B0380910C03BE
:101B000090910D031F910F91FF90EF900895AF9268
:101B1000BF92CF92DF92EF92FF920F931F93DF93CA
:101B2000CF93CDB7DEB728970FB6F894DEBF0FBEC0
:101B3000CDBF69837A838B839C832D833E834F83C0
:101B400058870E944C306093130370931403809362
:101B5000150390931603CE010196BE016B5F7F4F74
:101B60000E9425078BE393E00E94B1285B016C0182
:101B70008FE793E00E94B1287B018C018BE393E017
:101B800040E050E060E070E00E942C288FE793E096
:101B900040E050E060E070E00E942C2869817A818A
:101BA0008B819C810E94AC3AAB01BC018BE393E03A
:101BB0000E944E276D817E818F8198850E94AC3A6C
:101BC000AB01BC018FE793E00E944E278091970202
:101BD000882309F042C08BE393E00E94B12820E003
:101BE00030E040E050E00E94403A882324F4D7FAE5
:101BF000D094D7F8D0948FE793E00E94B12820E0EA
:101C000030E040E050E00E94403A882324F417FB83
:101C1000109517F910958BE393E0B601A5010E948A
:101C20002C288FE793E0B801A7010E942C2815C04B
:101C300080919702882349F08BE393E00E94AE2BBA
:101C40008FE793E00E94AE2B08C08BE393E00E94E5
:101C50008A2B8FE793E00E948A2B8BE393E00E940C
:101C6000B925611571058105910549F48FE793E068
:101C70000E94B925611571058105910529F08091B2
:101C80001003882351F3D4CF0E944A0C28960FB634
:101C9000F894DEBF0FBECDBFCF91DF911F910F91A2
:101CA000FF90EF90DF90CF90BF90AF900895AF92EC
:101CB000BF92CF92DF92EF92FF920F931F93790121
:101CC0008A010E94DF3A5B016C01C801B7010E94E2
:101CD000DF3A9B01AC01C601B5010E94870D1F913F
:101CE0000F91FF90EF90DF90CF90BF90AF9008954D
:101CF0000F931F93CF93DF93EC018B0121153105D7
:101D0000D9F48EE995E06FEF71E00E941E36809164
:101D1000A702882339F0CE0162E070E00E94863C81
:101D2000CB012CC0CE0162E070E00E94863CCB016A
:101D3000909581959F4F22C08091A7022417350767
:101D4000A9F4882339F0CE0162E070E00E94863C5D
:101D5000CB0109C0CE0162E070E00E94863CCB015D
:101D6000909581959F4F0E948D0C17C0882311F08C
:101D7000CE0104C0882799278C1B9D0B0E948D0CD7
:101D8000C8010E94B30C8091A702882319F0109219
:101D9000A70203C081E08093A702DF91CF911F913A
:101DA0000F9108953F924F925F926F927F928F9220
:101DB0009F92AF92BF92CF92DF92EF92FF920F93DA
:101DC0001F93DF93CF9300D000D0CDB7DEB7FC01D7
:101DD0004B016A01322E141615060CF081C0BA01AF
:101DE0000E94863C5B01CF01B6010E94863CAA2777
:101DF00097FDA095BA2FBC01CD010E94DF3A7B016F
:101E00008C01B601882777FD8095982F0E94DF3AD4
:101E10009B01AC01C801B7010E94443A2B013C016F
:101E20000F2EF0E0EF2EF0E0FF2EF0E00F2FF0E0AD
:101E30001F2FF02D1C821B82C50101969A83898376
:101E4000C801B701A30192010E94DC397B018C011A
:101E500020E030E040E85FE30E948F3B87FF02C054
:101E600095010CC0C801B70120E030E040E85FE315
:101E70000E94DB397B018C0129813A8192E039167D
:101E800019F4C401B9010EC0E3E03E1619F4C4010F
:101E9000B90116C0F4E03F1659F466277727621B94
:101EA000730BC401A6012B813C810E94780E0DC0EA
:101EB00081E0381651F466277727621B730BC40143
:101EC000A6012B813C810E94D90C0E944A0CEB8117
:101ED000FC813196FC83EB83CE16DF060CF0B0CF8D
:101EE0000F900F900F900F90CF91DF911F910F9156
:101EF000FF90EF90DF90CF90BF90AF909F908F902A
:101F00007F906F905F904F903F9008952F923F92F7
:101F10004F925F926F927F928F929F92AF92BF92F9
:101F2000CF92DF92EF92FF920F931F93DF93CF93A5
:101F3000CDB7DEB7E0970FB6F894DEBF0FBECDBFCA
:101F40002B013C019CA28BA20E9450076B8F7C8FBF
:101F50008D8F9E8FA30192010E94D80A6F8B788F7C
:101F6000898F9A8FC801B701A60195010E94500779
:101F70005B016C01A80197010E94D80A7B018C01CA
:101F8000C601B50120E030E040EA51E40E948F3BF9
:101F900018160CF008C2609102037091030380913F
:101FA00004039091050364517040804090400E946A
:101FB000DF3A6F8F78A389A39AA3C601B5012F8D4D
:101FC00038A149A15AA10E94403A88230CF0EBC1E4
:101FD000C801B70120E030E040EA51E40E948F3BA5
:101FE00018160CF0E0C16091060370910703809110
:101FF00008039091090364517040804090400E9412
:10200000DF3A2B013C01C801B701A30192010E94F4
:10201000403A88230CF0C7C16B8D7C8D8D8D9E8DD1
:1020200020E030E040EA51E40E948F3B18160CF0AB
:10203000BAC16B8D7C8D8D8D9E8D2F8D38A149A160
:102040005AA10E94403A88230CF0ADC16F89788D67
:10205000898D9A8D20E030E040EA51E40E948F3B68
:1020600018160CF0A0C16F89788D898D9A8DA30107
:1020700092010E94403A88230CF095C110929A0276
:10208000C601B5012B8D3C8D4D8D5E8D0E94DB39D7
:102090001B012C01C801B7012F89388D498D5A8D3C
:1020A0000E94DB393B014C01C201B10120E030E06C
:1020B00040E050E00E948F3B18161CF48201710131
:1020C00006C08201710117FB109517F91095C40124
:1020D000B30120E030E040E050E00E948F3B181652
:1020E0001CF4A401930103C0A40193015058C8013A
:1020F000B7010E948F3B18169CF021E030E03E8B28
:102100002D8BD401C301B0588DA79EA7AFA7B8AB44
:10211000ABA1BCA15D01CC24B7FCC094DC2C4EC0AB
:1021200021E030E03E8B2D8BD201C101B05889A750
:102130009AA7ABA7BCA7ABA1BCA15D01CC24B7FCFF
:10214000C094DC2C06C02D893E892F5F3F4F3E8B0B
:102150002D8BC201B10120E030E040E050E00E9450
:102160008F3B18161CF48201710104C0E9A4FAA483
:102170000BA51CA5AD89BE89BD01882777FD80957B
:10218000982F0E94DF3A9B01AC01C801B7010E9461
:10219000443A7B018C01C601B5010E94DF3A9B01E4
:1021A000AC01C801B7010E948F3B181664F234C01D
:1021B0002D893E892F5F3F4F3E8B2D8BC401B3018C
:1021C00020E030E040E050E00E948F3B18161CF405
:1021D0008401730104C0EDA4FEA40FA518A9AD8964
:1021E000BE89BD01882777FD8095982F0E94DF3A30
:1021F0009B01AC01C801B7010E94443A7B018C01EC
:10220000C601B5010E94DF3A9B01AC01C801B701CC
:102210000E948F3B181664F22D893E895901CC2407
:10222000B7FCC094DC2CC601B5010E94DF3A7B01EB
:102230008C01C201B101A80197010E94443A6D834B
:102240007E838F839887C401B301A80197010E9400
:10225000443A69837A838B839C8310929702198A0C
:102260001A8A1B8A1C8A19861A861B861C86ADA2AE
:10227000BEA2CFA2D8A66B8D7C8D8D8D9E8D2D811B
:102280003E814F8158850E94DC396B8F7C8F8D8F0A
:102290009E8F6F89788D898D9A8D29813A814B81A6
:1022A0005C810E94DC396F8B788F898F9A8F6B8D60
:1022B0007C8D8D8D9E8D2F89388D498D5A8D0E94F4
:1022C000360B6D877E878F87988B6B8D7C8D8D8D80
:1022D0009E8D2F89388D498D5A8D0E94FF0A1B01D2
:1022E0002C0169847A848B849C848DA19EA1AFA1EA
:1022F000B8A5680E791E8A1E9B1E69897A898B890A
:102300009C890E94DF3A5B016C016091930270919D
:102310009402809195029091960220E030E040E88E
:1023200050E40E94933B7B018C01C401B301A601E0
:1023300095010E945F0B0E94AC3A698B7A8B8B8B64
:102340009C8B0E94DF3A7B018C018BE393E0B80108
:10235000A7010E942C288FE793E0B801A7010E94F3
:102360002C286D857E858F859889A20191010E9418
:10237000870D89859A85AB85BC850197A109B1092F
:1023800089879A87AB87BC878D899E89A985BA85FD
:102390008A0F9B1F892B09F06ECF81E080939A02F0
:1023A0008093970206C08EE995E06FE072E00E948C
:1023B0001E360E94A50AE0960FB6F894DEBF0FBE47
:1023C000CDBFCF91DF911F910F91FF90EF90DF90E4
:1023D000CF90BF90AF909F908F907F906F905F90C5
:1023E0004F903F902F9008952F923F924F925F927F
:1023F0006F927F928F929F92AF92BF92CF92DF9215
:10240000EF92FF920F931F93DF93CF9300D000D0F2
:10241000CDB7DEB73B014C0159016A01FA82E9826E
:10242000C80162E070E00E94863C882777FD8095B5
:10243000982F661A770A880A990AA61AB70AC80A4C
:10244000D90A1C821B821801442437FC4094542C66
:102450002EC060E070E080E090E0A20191010E9457
:10246000E3367B018C0160E070E080E090E0A20147
:1024700091010E94E3369B01AC010027F7FC009517
:10248000102FE60CF71C081D191D442737FD409539
:10249000542F2A0D3B1D4C1D5D1DC801B7010E9424
:1024A000570E2B813C812F5F3F4F3C832B838B81C9
:1024B0009C81E981FA81E817F9075CF60F900F908B
:1024C0000F900F90CF91DF911F910F91FF90EF90A0
:1024D000DF90CF90BF90AF909F908F907F906F9044
:1024E0005F904F903F902F9008958AE892E09093EC
:1024F000B3028093B2029093B5028093B4028FE549
:1025000090E09093AF028093AE0280E991E09093C7
:10251000B1028093B00281E090E09093AD0280938D
:10252000AC0264EF71E080E090E00E94803008959A
:10253000AF92BF92CF92DF92EF92FF920F931F93D1
:10254000CF93DF93EC015B016A018FEE92E069E0CB
:1025500070E00E94572DCA15DB059CF47601002718
:10256000F7FC0095102F8FEE92E0BE010E94702CB8
:10257000C801B7010E9480302196AC16BD069CF7B9
:1025800012C076010027F7FC0095102F8FEE92E025
:10259000BE010E94702CC801B7010E9480302197B3
:1025A000CA15DB059CF78FEE92E00E94042CDF91A8
:1025B000CF911F910F91FF90EF90DF90CF90BF9040
:1025C000AF900895EF92FF920F931F93BBE3EB2E12
:1025D000B3E0FB2EC7010E94C925AB01BC014C5FD3
:1025E0005F4F6F4F7F4FC7010E94DF2B0FE713E054
:1025F000C8010E94C925AB01BC014C5F5F4F6F4F02
:102600007F4FC8010E94DF2BC7010E94C925AB0183
:10261000BC014450504060407040C7010E94DF2B15
:10262000C8010E94C925AB01BC0144505040604024
:102630007040C8010E94DF2B1F910F91FF90EF9017
:1026400008950F931F93AB01BC01409393025093E5
:10265000940260939502709396028BE393E00E943C
:10266000BA2A409193025091940260919502709120
:1026700096028FE793E00E94BA2A0EE915E0C8019E
:1026800061EC70E00E94E833409193025091940213
:102690006091950270919602C80122E030E00E949C
:1026A0000B361F910F910895CF92DF92EF92FF9218
:1026B0000F931F937C018B018AE0C82E85E0D82EF2
:1026C000C601B701F80140810E94232E0894E11C45
:1026D000F11CC601B701F80141810E94232E82E05E
:1026E00090E01F910F91FF90EF90DF90CF900895B1
:1026F0000F931F93AB01BC0140938F025093900244
:1027000060939102709392028BE393E00E94D6272C
:1027100040918F02509190026091910270919202CB
:102720008FE793E00E94D6270EE915E0C80164ED1B
:1027300070E00E94E83340918F02509190026091C6
:10274000910270919202C80122E030E00E940B36A3
:102750001F910F910895CF92DF92EF92FF920F9306
:102760001F937C018B019AE0C92E95E0D92EC601FA
:10277000B7010E941C2EF80180830894E11CF11C13
:10278000C601B7010E941C2EF801818382E090E00F
:102790001F910F91FF90EF90DF90CF90089584E10B
:1027A00090E06DE872E00E94AB1380918D029091F1
:1027B0008E021816190644F08091AC029091AD0279
:1027C00090938E0280938D028EE995E060EA71E02D
:1027D0000E94E83360918D0270918E028EE995E03F
:1027E0004AE050E00E944B3508958AE290E06AEAA0
:1027F00072E00E94AB138091AA029091AB0297FF06
:1028000006C08AE590E09093AB028093AA028EE91D
:1028100095E062EE71E00E94E8336091AA02709147
:10282000AB028EE995E04AE050E00E944B358CE225
:1028300090E062EE74E00E94AB138091E20490910C
:10284000E30497FF04C01092E3041092E2048EE9BF
:1028500095E063ED71E00E94E8336091E2047091CD
:10286000E3048EE995E04AE050E00E944B3508957C
:1028700080E090E06DE972E00E94AB1380919D02D0
:1028800090919E021816190644F08091B202909120
:10289000B30290939E0280939D028EE995E069E3D6
:1028A00072E00E94E83360919D0270919E028EE971
:1028B00095E04AE050E00E944B3582E090E06FE9FD
:1028C00072E00E94AB1380919F029091A0021816B3
:1028D000190644F08091B4029091B5029093A00241
:1028E00080939F028EE995E062E272E00E94E833F5
:1028F00060919F027091A0028EE995E04AE050E05D
:102900000E944B350895EF92FF920F931F93CF9340
:10291000DF93AC01EB0124E0E22EF12CE60EF71E72
:102920008A010F5F1F4F8AE095E0BA010E941C2EBA
:102930008993A801CE15DF0599F784E090E0DF9137
:10294000CF911F910F91FF90EF90089586E190E055
:102950006FE872E00E94831460918F027091900280
:1029600080919102909192020E94AC3A161617063D
:1029700064F080E090E0A8E4B4E480938F02909348
:102980009002A0939102B09392028AE190E063E9F1
:1029900072E00E948314609193027091940280917E
:1029A0009502909196020E94AC3A1616170664F0B2
:1029B00080E090E0A8E4B4E48093930290939402C2
:1029C000A0939502B093960208958EE090E069E896
:1029D00072E00E9483146091890270918A02809152
:1029E0008B0290918C0220E030E040E85FE30E948F
:1029F000403A882394F46091AE027091AF02882728
:102A000077FD8095982F0E94DF3A6093890270933A
:102A10008A0280938B0290938C028EE995E06FE09E
:102A200072E00E94E8334091890250918A026091DD
:102A30008B0270918C028EE995E022E030E00E94DA
:102A40000B3682E190E067E872E00E94AB13809160
:102A50008702909188021816190644F08091B002FE
:102A60009091B10290938802809387028EE995E05D
:102A700063EF71E00E94E8336091870270918802F1
:102A80008EE995E04AE050E00E944B350895BF92F0
:102A9000CF92DF92EF92FF920F931F93DF93CF932A
:102AA000CDB7DEB72E970FB6F894DEBF0FBECDBF01
:102AB0008E010F5F1F4FC80165E071E00E941C3955
:102AC00044E0E42EF12C38E0C32ED12CCC0EDD1ED8
:102AD000B12E8AE095E0B7010E941C2E182FC60186
:102AE000602F7B2D0E94C439C601612F0E94EA38F5
:102AF000BC01802F9B2D0E94A239C6010E94D539AE
:102B00000894E11CF11C8CE0E816F10411F7802F09
:102B10009B2D60E070E00E941237FC0180818823C9
:102B200031F4802F9B2D6AEC73E00E94A239109241
:102B30000A0310920B0310920C0310920D0383EF03
:102B400092E08E010F5F1F4FB8010E94A2398EE9FB
:102B500095E06EEB71E00E94E8338EE995E063EF5B
:102B600072E00E946436C8010E94CF392E960FB6DB
:102B7000F894DEBF0FBECDBFCF91DF911F910F91B3
:102B8000FF90EF90DF90CF90BF900895AF92BF92EB
:102B9000CF92DF92EF92FF920F931F930E9438140F
:102BA0000E94E5140E94CF130E9447150E94F5135E
:102BB0000E94A6148EE190E063EA72E00E94831402
:102BC0006091A3027091A4028091A5029091A60247
:102BD00027E137EB41ED58E30E94403A882364F443
:102BE0008DEC9CECACE4BFE38093A3029093A40231
:102BF000A093A502B093A602A0908902B0908A0289
:102C0000C0908B02D0908C0260918D0270918E02E8
:102C1000882777FD8095982F209187023091880230
:102C2000442737FD4095542F0E945B3C0E94DF3AB9
:102C30007B018C01C601B501A80197010E94443AAD
:102C40006093FA027093FB028093FC029093FD0262
:102C5000C801B701A60195010E94443A6093FE02A3
:102C60007093FF0280930003909301038EE995E037
:102C70006DE871E00E94E8334091FA025091FB0246
:102C80006091FC027091FD028EE995E022E030E057
:102C90000E9408368EE995E06DE771E00E94E83306
:102CA0004091FE025091FF02609100037091010378
:102CB0008EE995E022E030E00E9408368EE995E04A
:102CC0006BE771E00E94E8338EE995E00E940B34D7
:102CD00060919D0270919E02882777FD8095982FC4
:102CE0000E94DF3A2091FE023091FF0240910003E2
:102CF000509101030E94933B0E94AC3A60930203FF
:102D00007093030380930403909305038EE995E089
:102D10006FE571E00E94E833409102035091030394
:102D200060910403709105038EE995E02AE030E09C
:102D30000E94E4348EE995E06DE571E00E94E8338D
:102D40008EE995E00E940B3460919F027091A00281
:102D5000882777FD8095982F0E94DF3A2091FE0208
:102D60003091FF0240910003509101030E94933B78
:102D70000E94AC3A609306037093070380930803A4
:102D8000909309038EE995E060E471E00E94E833D6
:102D90004091060350910703609108037091090365
:102DA0008EE995E02AE030E00E94E4348EE995E077
:102DB0006EE371E00E94E8338EE995E00E940B34E7
:102DC00010920A0310920B0310920C0310920D0341
:102DD0001F910F91FF90EF90DF90CF90BF90AF9039
:102DE0000895EF92FF920F931F93DF93CF93CDB788
:102DF000DEB727970FB6F894DEBF0FBECDBF7E01BA
:102E00000894E11CF11CC7016DEE73E00E94B93912
:102E1000C7016AEC73E00E9416388823A1F400E031
:102E200010E0C701B8010E941237FC010C5F1F4F70
:102E30008AE095E0B80140810E94232E03501040A3
:102E40000830110571F70E94C615CE0101960E9447
:102E5000CF3927960FB6F894DEBF0FBECDBFCF9106
:102E6000DF911F910F91FF90EF900895CF93DF9323
:102E7000C0E0D0E08AE095E0BE0140E00E94232E51
:102E80002196C233D105B1F70E94C615DF91CF91CB
:102E90000895CF93DF93C0E0D0E08EE995E0BE01C6
:102EA0004AE050E00E9438358EE995E065E372E033
:102EB0000E946A358AE095E0BE010E941C2E682FB0
:102EC0008EE995E04AE050E00E94C6342196C8326F
:102ED000D10519F7DF91CF910895CF92DF92EF924C
:102EE000FF920F931F930E9449170EE915E0C80146
:102EF00066E371E00E94E833C80163EF72E00E946C
:102F000031366AE3E62E64E0F62EC801B7010E946E
:102F10006436C8016EE271E00E94E83360919D0260
:102F200070919E02C8014AE050E00E94383553E398
:102F3000C52E54E0D52EC801B6010E9431366091ED
:102F40009F027091A002C8014AE050E00E9438350B
:102F5000C801B7010E946436C80162E271E00E94B4
:102F6000E8334091890250918A0260918B027091FE
:102F70008C02C80122E030E00E940836C801B70187
:102F80000E946436C80163E171E00E94E8336091F9
:102F9000870270918802C8014AE050E00E943835EB
:102FA000C801B7010E946436C80161E071E00E9467
:102FB000E83360918D0270918E02C8014AE050E0C2
:102FC0000E943835C801B7010E946436C80169EF14
:102FD00070E00E94E8336091AA027091AB02C801D0
:102FE0004AE050E00E943835C801B6010E943136EF
:102FF0006091E2047091E304C8014AE050E00E944D
:103000003835C801B7010E946436C80160EF70E02E
:103010000E94E83340918F0250919002609191029A
:1030200070919202C80122E030E00E940836C80187
:10303000B6010E9431364091930250919402609102
:10304000950270919602C80122E030E00E94083695
:10305000C801B7010E9464361F910F91FF90EF9055
:10306000DF90CF9008958FE293E062E043E00E940A
:10307000802E08958FE293E061E043E00E94802E6D
:10308000089583E293E062E043E00E94802E089579
:1030900083E293E061E043E00E94802E0895EF9286
:1030A000FF920F931F937C010EE915E0C8016DE6B6
:1030B00072E00E94E833C801B7010E943136C801AE
:1030C0006FE472E00E942B341F910F91FF90EF90FC
:1030D0000895EF92FF920F931F93DF93CF93CDB795
:1030E000DEB7FC01EDB6FEB6448155814F5F5F4F00
:1030F0008DB79EB7841B950B0FB6F8949EBF0FBE7D
:103100008DBF0DB71EB70F5F1F4FCF01B80120E075
:1031100030E00E949437C8010E940E040FB6F89464
:10312000FEBE0FBEEDBECF91DF911F910F91FF90BC
:10313000EF9008958F929F92AF92BF92CF92DF92BD
:10314000EF92FF920F931F93DF93CF93CDB7DEB72C
:103150002E970FB6F894DEBF0FBECDBF4E01089478
:10316000811C911CC4016DEE73E00E94B939C40149
:103170000E9469187B018C0160918D0270918E0212
:10318000882777FD8095982F0E94DF3A9B01AC013C
:10319000C801B7010E94933B5B016C01C4010E940E
:1031A000CF3978E0872E912C8C0E9D1EC40164EFE0
:1031B00073E00E94B939C4010E9469187B018C0137
:1031C00060918D0270918E02882777FD8095982FEF
:1031D0000E94DF3A9B01AC01C801B7010E94933BFA
:1031E0007B018C01C4010E94CF39B501C601970152
:1031F000A8010E94870D2E960FB6F894DEBF0FBE71
:10320000CDBFCF91DF911F910F91FF90EF90DF9095
:10321000CF90BF90AF909F908F9008950F931F9382
:10322000DF93CF93CDB7DEB727970FB6F894DEBF05
:103230000FBECDBF8E010F5F1F4FC8016DEE73E053
:103240000E94B939C8010E9469186093A302709363
:10325000A4028093A5029093A602C8010E94CF39D0
:103260000EE915E0C8016BEA70E00E94E833409176
:10327000A3025091A4026091A5027091A602C80118
:1032800022E030E00E940836C80168EA70E00E943F
:10329000E833C8010E940B3427960FB6F894DEBFBE
:1032A0000FBECDBFCF91DF911F910F910895EF9287
:1032B000FF920F931F93DF93CF93CDB7DEB72B977A
:1032C0000FB6F894DEBF0FBECDBF8E010B5F1F4F50
:1032D000C8016DEE73E00E94B939C8010E946918F7
:1032E00069837A838B839C83C8010E94CF397E01D6
:1032F0000894E11CF11C6EE070E08B010F5F1F4F22
:10330000F70141917F018AE095E00E94232EB801E8
:103310000231110591F70E94C6152B960FB6F8944D
:10332000DEBF0FBECDBFCF91DF911F910F91FF90F8
:10333000EF900895EF92FF920F931F93DF93CF9337
:10334000CDB7DEB7FC01EDB6FEB6448155814F5FC7
:103350005F4F8DB79EB7841B950B0FB6F8949EBF39
:103360000FBE8DBF0DB71EB70F5F1F4FCF01B80146
:1033700020E030E00E949437C8010E9412040FB68A
:10338000F894FEBE0FBEEDBECF91DF911F910F915D
:10339000FF90EF9008952F923F924F925F926F921D
:1033A0007F928F929F92AF92BF92CF92DF92EF92D5
:1033B000FF920F931F93DF93CF93CDB7DEB7A49700
:1033C0000FB6F894DEBF0FBECDBF8E010F5F1F4F4B
:1033D000C8016DEE73E00E94B939C8010E949A19C4
:1033E000AA2797FDA095BA2F20918D0230918E02C9
:1033F000442737FD4095542FBC01CD010E945B3C12
:103400005B01C8010E94CF398E01085F1F4FC801C0
:1034100064EF73E00E94B939C8010E946918F62E62
:10342000E72ED82EC92EC8010E94CF398E01015F28
:103430001F4FC8016BEF73E00E94B939C8010E94A9
:10344000691869A37AA38BA39CA3C8010E94CF39F2
:103450008E010A5E1F4FC80162E074E00E94B93914
:10346000C8010E9469182B013C01C8010E94CF3994
:103470002090A1023090A20282E090E09093A202FC
:103480008093A1028091A3029091A402A091A50231
:10349000B091A6028D8F9E8FAF8FB8A32F2D3E2D9A
:1034A0004D2D5C2DC901DA016C017D018824992420
:1034B0001EC00894811C911CC092A302D092A40249
:1034C000E092A502F092A602C701B601A5010E94F2
:1034D0008B06AC01C501B50122E00E94D20EC701E6
:1034E000B601A30192010E94DC396B017C01C70186
:1034F000B60129A13AA14BA15CA10E94403A18163D
:10350000C4F68D8D9E8DAF8DB8A18093A30290934C
:10351000A402A093A502B093A602EE24FF24EA1809
:10352000FB08C7010E948D0CC50162E070E00E949B
:10353000863C709561957F4F3B01C50162E070E06C
:103540000E94863C6B0101E010E00BC0C3010E94A9
:103550008D0CC7010E94B30CC6010E948D0C0F5F39
:103560001F4F8016910694F78D8D9E8DAF8DB8A15B
:103570008093A3029093A402A093A502B093A60205
:103580003092A2022092A102A4960FB6F894DEBF58
:103590000FBECDBFCF91DF911F910F91FF90EF90A4
:1035A000DF90CF90BF90AF909F908F907F906F9063
:1035B0005F904F903F902F900895EF92FF920F935E
:1035C0001F93DF93CF93CDB7DEB727970FB6F8944D
:1035D000DEBF0FBECDBF80911103909112032091E9
:1035E000F20202971CF1222329F0E090E204F0900D
:1035F000E30404C0E090AA02F090AB028E010F5FDA
:103600001F4FC8016DEE73E00E94B939C8010E94D6
:103610009A199093AB028093AA02C8010E94CF39F5
:103620006091AA027091AB02C7010AC0213061F417
:103630006091AA027091AB028091E2049091E30440
:1036400043E050E00E9498121092F20227960FB6C3
:10365000F894DEBF0FBECDBFCF91DF911F910F91C8
:10366000FF90EF900895EF92FF920F931F93DF93D7
:10367000CF93CDB7DEB727970FB6F894DEBF0FBE56
:10368000CDBF80911103909112032091F202029715
:103690001CF1222329F0E090E204F090E30404C03E
:1036A000E090AA02F090AB028E010F5F1F4FC8019D
:1036B0006DEE73E00E94B939C8010E949A19909387
:1036C000E3048093E204C8010E94CF396091E204D0
:1036D0007091E304C7010AC0222361F46091E204FF
:1036E0007091E3048091AA029091AB0243E050E014
:1036F0000E94981281E08093F20227960FB6F89408
:10370000DEBF0FBECDBFCF91DF911F910F91FF9014
:10371000EF9008952F923F924F925F926F927F9217
:103720008F929F92AF92BF92CF92DF92EF92FF92D1
:103730000F931F93DF93CF93CDB7DEB76B970FB681
:10374000F894DEBF0FBECDBF6E010894C11CD11C22
:10375000C6016DEE73E00E94B939C6010E94691876
:103760007B018C0160918D0270918E02882777FD1C
:103770008095982F0E94DF3A9B01AC01C801B701E8
:103780000E94933B3B014C01C6010E94CF398E0140
:10379000085F1F4FC80164EF73E00E94B939C80188
:1037A0000E9469186B017C01A0908D02B0908E027E
:1037B000C8010E94CF398E01015F1F4FC8016BEF16
:1037C00073E00E94B939C8010E949A199F8B8E8BB1
:1037D000C8010E94CF398BE393E00E94C925688F0E
:1037E000798F8A8F9B8F8FE793E00E94C9251B01F9
:1037F0002C01C401B30120E030E040EA51E40E9412
:10380000403A87FD2FC0B501882777FD8095982F16
:103810000E94DF3A9B01AC01C701B6010E94933BB5
:103820005B016C0120E030E040EA51E40E94403A44
:1038300087FD18C00E94290D0E94DF3A9B01AC0150
:10384000C401B3010E948F3B181664F00E94290D39
:103850000E94DF3A9B01AC01C601B5010E948F3B7B
:1038600018163CF48EE995E068E372E00E941E367B
:1038700016C0688D798D8A8D9B8D0E94DF3A7B0101
:103880008C01C201B1010E94DF3A9B01AC01C80169
:10389000B701840173018E889F880E94860F6B9602
:1038A0000FB6F894DEBF0FBECDBFCF91DF911F9151
:1038B0000F91FF90EF90DF90CF90BF90AF909F90CF
:1038C0008F907F906F905F904F903F902F900895D2
:1038D000EF92FF920F931F93DF93CF93CDB7DEB795
:1038E0002E970FB6F894DEBF0FBECDBF8E010F5FCF
:1038F0001F4FC8016DEE73E00E94B939C8010E94E4
:1039000069180E942113C8010E94CF3980911103C8
:1039100090911203039741F58E01085F1F4FC80174
:1039200064EF73E00E94B939C8010E949A197C01C2
:10393000C8010E94CF3981E0E816F104A9F4E3E957
:10394000EE2EE2E0FE2E6AE170E08B010F5F1F4F6A
:10395000F70141917F018AE095E00E94232E0E310C
:10396000110511F0B801F1CF2E960FB6F894DEBF15
:103970000FBECDBFCF91DF911F910F91FF90EF90C0
:103980000895EF92FF920F931F93DF93CF93CDB7DC
:10399000DEB72E970FB6F894DEBF0FBECDBF8E01F7
:1039A0000F5F1F4FC8016DEE73E00E94B939C80167
:1039B0000E9469180E947813C8010E94CF39809133
:1039C000110390911203039741F58E01085F1F4F79
:1039D000C80164EF73E00E94B939C8010E949A19C6
:1039E0007C01C8010E94CF3981E0E816F104A9F4F6
:1039F000FFE8EF2EF2E0FF2E66E170E08B010F5F33
:103A00001F4FF70141917F018AE095E00E94232E2C
:103A10000A31110511F0B801F1CF2E960FB6F894C6
:103A2000DEBF0FBECDBFCF91DF911F910F91FF90F1
:103A3000EF9008950F931F93DF93CF93CDB7DEB729
:103A400062970FB6F894DEBF0FBECDBF8E010B5F3D
:103A50001F4FC8016DEE73E00E94B939C8010E9482
:103A60009A199A838983C8010E94CF398E01045F15
:103A70001F4FC80164EF73E00E94B939C8010E946A
:103A80009A199C838B83C8010E94CF398EE995E0F7
:103A900069EE70E00E94E83369817A818EE995E0F1
:103AA0004AE050E00E944B358EE995E064EE70E00C
:103AB0000E94E8336B817C818EE995E04AE050E01A
:103AC0000E944B358091110390911203843091052F
:103AD00089F48AE290E0BE016F5F7F4F0E94541329
:103AE0008CE290E0BE016D5F7F4F0E9454130E94F4
:103AF000F5133AC00397C1F569817A818B819C8166
:103B000043E050E00E94981268EC70E080E090E0A2
:103B10000E9480306B817C8189819A8143E050E0F2
:103B20000E94981268EC70E080E090E00E94803083
:103B300069817A818B819C8143E050E00E949812D8
:103B400068EC70E080E090E00E9480306B817C81C6
:103B500089819A8143E050E00E94981268EC70E0FD
:103B600080E090E00E94803062960FB6F894DEBF4D
:103B70000FBECDBFCF91DF911F910F9108950F938D
:103B80001F93DF93CF93CDB7DEB729970FB6F89485
:103B9000DEBF0FBECDBF8E010D5F1F4FC8016DEEA2
:103BA00073E00E94B939C8010E949A199A838983E7
:103BB00084E190E0BE016F5F7F4F0E945413C80103
:103BC0000E94CF390E94C61529960FB6F894DEBF21
:103BD0000FBECDBFCF91DF911F910F9108950F932D
:103BE0001F93DF93CF93CDB7DEB729970FB6F89425
:103BF000DEBF0FBECDBF8E010D5F1F4FC8016DEE42
:103C000073E00E94B939C8010E949A199A83898386
:103C1000C8010E94CF3982E190E0BE016F5F7F4F03
:103C20000E9454130E94C61529960FB6F894DEBF61
:103C30000FBECDBFCF91DF911F910F9108950F93CC
:103C40001F93DF93CF93CDB7DEB764970FB6F89489
:103C5000DEBF0FBECDBF8E01095F1F4FC8016DEEE5
:103C600073E00E94B939C8010E949A199A83898326
:103C7000C8010E94CF398E01025F1F4FC80164EF57
:103C800073E00E94B939C8010E949A199C838B8302
:103C9000C8010E94CF3989819A819E838D8380E0FB
:103CA00090E0BE016B5F7F4F0E94AB1329813A8188
:103CB0008D819E818217930751F02B3031053CF0A6
:103CC00080E090E0BE016F5F7F4F0E94541382E05E
:103CD00090E0BE016B5F7F4F0E94AB132B813C8154
:103CE0008D819E818217930751F02B3031053CF076
:103CF00082E090E0BE016D5F7F4F0E9454130E94EE
:103D0000381464960FB6F894DEBF0FBECDBFCF91C6
:103D1000DF911F910F9108950F931F93DF93CF931E
:103D2000CDB7DEB72E970FB6F894DEBF0FBECDBF6E
:103D30008E010F5F1F4FC8016DEE73E00E94B9390D
:103D4000C8010E949A199093A2028093A102C8010F
:103D50000E94CF398E01085F1F4FC80164EF73E0E6
:103D60000E94B939C8010E949A199093A9028093C0
:103D7000A802C8010E94CF392E960FB6F894DEBF74
:103D80000FBECDBFCF91DF911F910F910895EF929C
:103D9000FF920F931F93DF93CF93CDB7DEB7FC0154
:103DA000EDB6FEB6448155814F5F5F4F8DB79EB72C
:103DB000841B950B0FB6F8949EBF0FBE8DBF0DB739
:103DC0001EB70F5F1F4FCF01B80120E030E00E9407
:103DD0009437C8010E9430040FB6F894FEBE0FBE9F
:103DE000EDBECF91DF911F910F91FF90EF9008955D
:103DF0002F923F924F925F926F927F928F929F92FB
:103E0000AF92BF92CF92DF92EF92FF920F931F93E8
:103E1000DF93CF93CDB7DEB7A0970FB6F894DEBF90
:103E20000FBECDBF8E010F5F1F4FC8016DEE73E057
:103E30000E94B939C8010E94C71E20918D0230919D
:103E40008E02442737FD4095542F0E945B3C6D8FB6
:103E50007E8F8F8F98A3C8010E94CF398E01085F93
:103E60001F4FC80164EF73E00E94B939C8010E9476
:103E7000C71E20918D0230918E02442737FD409558
:103E8000542F0E945B3C1B012C01C8010E94CF39BA
:103E90008E01015F1F4FC8016BEF73E00E94B939BB
:103EA000C8010E949A19AA2797FDA095BA2F2091C0
:103EB0008D0230918E02442737FD4095542FBC016E
:103EC000CD010E945B3C3B014C015B01C8010E949B
:103ED000CF398E010A5E1F4FC80162E074E00E9474
:103EE000B939C8010E949A197C01C8010E94CF39D2
:103EF0006091A3027091A4028091A5029091A60204
:103F0000A3010E948B06AC01C7016FEF70E00E9415
:103F1000BE067C01CC24B7FCC094DC2CC601B501E4
:103F20000E94DF3A2DEC3CEC4CE85FE30E94933BAF
:103F30000E94AC3A5B016C016D8D7E8D8F8D98A1D6
:103F4000A201910185010E94F4110E94A50AA09688
:103F50000FB6F894DEBF0FBECDBFCF91DF911F919A
:103F60000F91FF90EF90DF90CF90BF90AF909F9018
:103F70008F907F906F905F904F903F902F9008951B
:103F80002F923F924F925F926F927F928F929F9269
:103F9000AF92BF92CF92DF92EF92FF920F931F9357
:103FA000DF93CF93CDB7DEB7A6970FB6F894DEBFF9
:103FB0000FBECDBF8E010F5F1F4FC8016DEE73E0C6
:103FC0000E94B939C8010E94C71E20918D0230910C
:103FD0008E02442737FD4095542F0E945B3C6BA313
:103FE0007CA38DA39EA3C8010E94CF398E01085FD8
:103FF0001F4FC80164EF73E00E94B939C8010E94E5
:10400000C71E20918D0230918E02442737FD4095C6
:10401000542F0E945B3C1B012C01C8010E94CF3928
:104020008E01015F1F4FC8016BEF73E00E94B93929
:10403000C8010E949A19AA2797FDA095BA2F20912E
:104040008D0230918E02442737FD4095542FBC01DC
:10405000CD010E945B3C6B017C017AA369A3C8017E
:104060000E94CF398E010A5E1F4FC80162E074E0E2
:104070000E94B939C8010E949A1998A38F8FC8016C
:104080000E94CF39C60162E070E00E94863C4B017D
:10409000CB01880F991F69A07AA0681A790A8091CC
:1040A000A1029091A2020197C1F48BE393E00E94D8
:1040B000C9257B018C018FE793E00E94C9255B0134
:1040C0006C016BA17CA18DA19EA1A20191010E9416
:1040D0003C068093A8021092A9022091A802309178
:1040E000A90222303105F9F49401442737FD4095A7
:1040F000542FEBA0FCA00DA11EA1E21AF30A040BA1
:10410000150BC301AA2797FDA095BA2FE80EF91E3B
:104110000A1F1B1F6BA07CA08DA09EA0620E731EA9
:10412000841E951E3DC023303105C9F494014427F7
:1041300037FD4095542F62015101A21AB30AC40AF7
:10414000D50AC301AA2797FDA095BA2FA80EB91EBC
:10415000CA1EDB1E220E331E441E551E32C0C40171
:10416000AA2797FDA095BA2FA301662757FD609552
:10417000762F24303105B9F4EBA0FCA00DA11EA1CF
:10418000E80EF91E0A1F1B1FE41AF50A060B170B8F
:104190006BA07CA08DA09EA0681A790A8A0A9B0A4F
:1041A0006201510114C05C016D01A20CB31CC41C5E
:1041B000D51CA41AB50AC60AD70A281A390A4A0A07
:1041C0005B0AEBA0FCA00DA11EA137014801609184
:1041D000A3027091A4028091A5029091A60249A128
:1041E0005AA10E948B06AC018F8D98A16FEF70E0F1
:1041F0000E94BE069E8F8D8FC801B701A601950152
:104200000E94570E8D8D9E8D02974CF089A19AA128
:10421000BC014D8D5E8D2091A8020E94D20EC4017A
:10422000B301A20191010E94570EA6960FB6F89411
:10423000DEBF0FBECDBFCF91DF911F910F91FF90D9
:10424000EF90DF90CF90BF90AF909F908F907F9036
:104250006F905F904F903F902F9008958F929F9214
:10426000AF92BF92CF92DF92EF92FF920F931F9384
:10427000DF93CF93CDB7DEB72E970FB6F894DEBF9E
:104280000FBECDBF8E010F5F1F4FC8016DEE73E0F3
:104290000E94B939C8010E94C71E20918D02309139
:1042A0008E02442737FD4095542F0E945B3C4B0102
:1042B0005C01C8010E94CF398E01085F1F4FC80101
:1042C00064EF73E00E94B939C8010E94C71E2091B3
:1042D0008D0230918E02442737FD4095542F0E9465
:1042E0005B3C6B017C01C8010E94CF398BE393E0FA
:1042F000B501A4010E94CF258FE793E0B701A60185
:104300000E94CF250E94E2120E944A0C2E960FB600
:10431000F894DEBF0FBECDBFCF91DF911F910F91FB
:10432000FF90EF90DF90CF90BF90AF909F908F90D5
:104330000895CF93DF93EC0161E474E00E944F385D
:10434000882319F00E949A18BDC0CE0165E974E077
:104350000E944F38882319F00E948A1BB3C0CE01F7
:1043600068E474E00E944F38882319F00E940E1907
:10437000A9C0CE0166EC74E00E944F38882319F082
:104380000E94C11C9FC0CE016DEC74E00E944F38AA
:10439000882319F00E94681C95C0CE016DE574E079
:1043A0000E944F38882319F00E94C01F8BC0CE0195
:1043B00064E674E00E944F38882319F00E94F81ECA
:1043C00081C0CE016BE674E00E944F38882319F05B
:1043D0000E948C1E77C0CE0162E774E00E944F38C5
:1043E000882319F00E942E216DC0CE0160E874E090
:1043F0000E944F38882319F00E94CB1963C0CE0168
:1044000067E874E00E944F38882319F00E94DD1A93
:1044100059C0CE016EE874E00E944F38882319F02D
:104420000E94331B4FC0CE016CE974E00E944F38EC
:10443000882319F00E941F1E45C0CE0163EA74E074
:104440000E944F38882319F00E94F1163BC0CE011C
:1044500068EB74E00E944F38882319F00E945719C6
:1044600031C0CE016FEB74E00E944F38882319F001
:104470000E94EF1D27C0CE0164ED74E00E944F380A
:10448000882319F00E94BF1D1DC0CE016BED74E0A2
:104490000E944F38882319F00E941A1D13C0CE01C4
:1044A0006AEA74E00E944F38882319F00E946D1761
:1044B00009C0CE0161EB74E00E944F38882319F0E7
:1044C0000E94361781E0DF91CF910895CF93DF935B
:1044D000EC010E949921882329F4CE010E944F18F3
:1044E0000E94D10ADF91CF9108956F927F928F92AF
:1044F0009F92AF92BF92CF92DF92EF92FF920F9373
:104500001F93DF93CF93CDB7DEB727970FB6F894FD
:10451000DEBF0FBECDBF4C01FC0164807580AA24B4
:10452000BB2400E010E0EE24FF246E010894C11CBF
:10453000D11C3DC0C401B7010E9401378C32A1F5E6
:10454000C601B401A50197010E944F39023011053F
:10455000B9F0033011053CF40115110559F0013093
:104560001105C9F40AC00330110569F004301105C2
:1045700091F40CC086EE93E00BC08DEE93E008C082
:1045800084EF93E005C08BEF93E002C082E094E0FB
:10459000B6010E94A23957010894A11CB11C0F5FFB
:1045A0001F4FC6010E94CF390894E11CF11CE6148C
:1045B000F7040CF4BFCF1093120300931103279656
:1045C0000FB6F894DEBF0FBECDBFCF91DF911F9124
:1045D0000F91FF90EF90DF90CF90BF90AF909F90A2
:1045E0008F907F906F9008953F924F925F926F925D
:1045F0007F928F929F92AF92BF92CF92DF92EF9273
:10460000FF920F931F93DF93CF93CDB7DEB7C655BD
:10461000D0400FB6F894DEBF0FBECDBF782E692E06
:10462000AA24BB2484E2882E912C8C0E9D1E19C0D6
:104630008EE995E00E94EB32182F61E070E080E097
:1046400090E00E948030F401EA0DFB1D10831A30C7
:1046500029F48EE995E00E9414330AC00894A11C45
:10466000B11C8EE995E00E94BA321816190604F3BF
:1046700004E2402E512C4C0E5D1EA40CB51CF5011D
:104680001082872D962DB2010E941C398E010F5F7A
:104690001F4FC80168E772E00E941C39872D962DD4
:1046A000B8010E9486375C01C8010E94CF39FFEF34
:1046B000AF16FFEFBF0609F46BC03324339430927A
:1046C000EE0218E0E12EF12CEC0EFD1EA5014F5F6D
:1046D0005F4FC701672D762D0E9496398E01015FCD
:1046E0001F4FC801B7010E94B939C8010E94C71EF7
:1046F0006B017C01C8010E94CF398E010A5E1F4FF9
:10470000C801672D762D40E050E095010E944F3999
:10471000872D962DB8010E94A239C8010E94CF3979
:104720008E01035E1F4FC801672D762D0E94B93997
:10473000C8010E94610A4B015C01C8010E94CF3987
:104740008C149D04AE04BF0419F4309222031BC0E4
:104750008EE995E064EA72E00E94E8338EE995E024
:10476000B2010E941E368EE995E06DE872E00E946B
:10477000E8338EE995E0B501A4012AE030E00E941B
:10478000243510922203CE0108960E94CF3904C02E
:104790001092EE0210922203872D962DCA5ADF4FF7
:1047A0000FB6F894DEBF0FBECDBFCF91DF911F9142
:1047B0000F91FF90EF90DF90CF90BF90AF909F90C0
:1047C0008F907F906F905F904F903F900895AF9241
:1047D000BF92CF92DF92EF92FF920F931F93DF93DE
:1047E000CF93CDB7DEB727970FB6F894DEBF0FBED5
:1047F000CDBFB82EA92E0E944C306B010B2D1A2D67
:10480000C80165E071E00E941C397E010894E11C3A
:10481000F11C29C00E944C306C197D0920919B022B
:1048200030919C02261737072CF40E94D10A0E946F
:104830004C306B01C7010E94F422C801B7010E94ED
:10484000A239C7010E94CF398091EE02882359F026
:1048500080912203882339F40E94CA0AC80165E0C6
:1048600071E00E943639F80184819581892B91F29B
:104870000E944C300E944C306093130370931403D9
:104880008093150390931603609317037093180396
:104890008093190390931A038B2D9A2D27960FB6A8
:1048A000F894DEBF0FBECDBFCF91DF911F910F9166
:1048B000FF90EF90DF90CF90BF90AF900895EF9270
:1048C000FF920F931F93DF93CF93CDB7DEB7279758
:1048D0000FB6F894DEBF0FBECDBF7C016AE374E073
:1048E0000E94C137882371F08E010F5F1F4FC801EE
:1048F000B7010E94B939C8010E947522C8010E94FF
:10490000CF3981E027960FB6F894DEBF0FBECDBF3A
:10491000CF91DF911F910F91FF90EF900895CF926B
:10492000DF92FF920F931F93DF93CF93CDB7DEB744
:104930002E970FB6F894DEBF0FBECDBF6C018E016F
:104940000F5F1F4FC801B6010E94B939C8010E940C
:104950005F24F82EC8010E94CF39FF20C1F08E01DC
:10496000085F1F4FC8016BE173E00E94B939C801AD
:104970000E946622C8010E94CF39C60165E071E03D
:104980000E943639109222030E94D10A11C08EE98A
:1049900095E063E872E00E94E8338EE995E0B601A5
:1049A0000E9431368EE995E065E772E00E942B3473
:1049B00010921203109211032E960FB6F894DEBFD8
:1049C0000FBECDBFCF91DF911F910F91FF90DF9070
:1049D000CF900895EF92FF920F931F93DF93CF93A1
:1049E000CDB7DEB727970FB6F894DEBF0FBECDBFA9
:1049F0008E010F5F1F4FC8010E94E7239BE1E92E44
:104A000093E0F92EC701B8010E94A239C8010E94A3
:104A1000CF39C7010E948F2427960FB6F894DEBFC6
:104A20000FBECDBFCF91DF911F910F91FF90EF90FF
:104A30000895AF92BF92CF92DF92EF92FF920F93C1
:104A40001F930EE915E0C80140E051EE60E070E010
:104A50000E943432C8016BEA72E00E94E833C80158
:104A60000E940B340E94C6150E9475123BE3A32ED0
:104A700033E0B32E40918F025091900260919102E9
:104A800070919202C5010E94D627409193025091E5
:104A900094026091950270919602C5010E94BA2A13
:104AA0002FE7C22E23E0D22E40918F025091900228
:104AB0006091910270919202C6010E94D6274091A6
:104AC0009302509194026091950270919602C601F2
:104AD0000E94BA2A6091980270919902882777FD06
:104AE0008095982F0E94DF3A2091890230918A02A6
:104AF00040918B0250918C020E94443A7B018C01C0
:104B00006091870270918802882777FD8095982FA1
:104B10000E94DF3A9B01AC01C801B7010E94933BA0
:104B20000E94AC3A7B018C01C501B801A7010E942B
:104B3000CF25C601B801A7010E94CF258CE294E0E1
:104B400069E074E00E94A2390E94D10A0E94331BDE
:104B500064EF71E080E090E00E9480300E94A50A3E
:104B60001F910F91FF90EF90DF90CF90BF90AF908B
:104B70000895FC0127853089418952898385948570
:104B8000A585B685281B390B4A0B5B0BB901CA01F9
:104B90000895FC0163857485858596850895FC01DB
:104BA00043875487658776874787508B618B728BE5
:104BB00013AA14AA15AA16AA13A214A215A216A221
:104BC00008956F927F928F929F92AF92BF92CF92F1
:104BD000DF92EF92FF920F931F93CF93DF93EC013D
:104BE000AF84B888C988DA888B859C85AD85BE85F9
:104BF000A81AB90ACA0ADB0A2B893C894D895E8941
:104C0000CA01B9010E94933B7B018C012B8D3C8D25
:104C10004D8D5E8DCA01B9010E94DC399B01AC014A
:104C2000C801B7010E94443A0E94AC3A9B01AC0112
:104C3000A114B104C104D104B9F462307105810535
:104C400091050CF085C01BA21CA21DA21EA280E033
:104C500090E0A0E0B0E08B8B9C8BAD8BBE8B1BAA51
:104C60001CAA1DAA1EAA0BC1EBA8FCA80DA91EA96F
:104C70001A141B041C041D0444F51E141F04100602
:104C8000110674F46A157B058C059D05B4F5CD5BA2
:104C9000DF4F8881C354D040882309F059C02DC00C
:104CA000E114F1040105110509F452C06A157B05F0
:104CB0008C059D050CF04CC0CD5BDF4F8881C35443
:104CC000D040813009F044C038C01E141F041006C3
:104CD0001106DCF488279927DC018A199B09AC09A5
:104CE000BD09281739074A075B073CF4CD5BDF4F46
:104CF0008881C354D040813059F588279927DC0139
:104D0000821B930BA40BB50B1FC0E114F10401052A
:104D10001105F1F088279927DC018A199B09AC0954
:104D2000BD09281739074A075B0794F4CD5BDF4FAD
:104D30008881C354D040882359F488279927DC01FF
:104D40008E199F09A00BB10B8BAB9CABADABBEAB6F
:104D50006BA87CA88DA89EA861147104810491049D
:104D6000A9F48FA998ADA9ADBAAD8BAF9CAFADAF8B
:104D7000BEAFFE01ED5BFF4F10821A141B041C0432
:104D80001D040CF049C081E0808346C0ABACBCACD4
:104D9000CDACDEACC601B50120E030E040E050EC27
:104DA0000E94933B7B018C01C401B3010E94DF3A56
:104DB00020E030E040E850E40E94933B20E030E007
:104DC00040E85FE30E94DC399B01AC01C801B701F8
:104DD0000E94443A9B01AC01C601B5010E94DC3936
:104DE0007B018C016BAF7CAF8DAF9EAFEF96A8803F
:104DF000B980CA80DB80EF979501A6010E948F3BA6
:104E0000181624F4D801C70157016D01C501D60158
:104E10008BAF9CAFADAFBEAF8BA99CA9ADA9BEA90E
:104E20000196A11DB11D8BAB9CABADABBEAB6BAD09
:104E30007CAD8DAD9EAD0E94B13A6BA37CA38DA3DA
:104E40009EA360E074E284E799E42BAD3CAD4DADE8
:104E50005EAD0E94443A9B01AC016B8B7C8B8D8BC9
:104E60009E8BCD5BDF4F8881C354D040882339F4BB
:104E7000DA01C901B0588B8B9C8BAD8BBE8BDF9157
:104E8000CF911F910F91FF90EF90DF90CF90BF9047
:104E9000AF909F908F907F906F900895FC018785D1
:104EA0009089A189B28984179507A607B70739F0B9
:104EB0004787508B618B728BCF010E94E12508954B
:104EC000FC01DB01CA014385548565857685480F61
:104ED000591F6A1F7B1FCF010E944E270895CF9252
:104EE000DF92EF92FF920F931F93FC018BEC92E005
:104EF0009183808312821386148615861686178600
:104F0000108A118A128A0F2EF0E0CF2EF0E0DF2EE9
:104F1000F0E0EF2EF0E0FF2EF02DC38AD48AE58A70
:104F2000F68A00E010E020E83FE3078B108F218F26
:104F3000328F038F148F258F368F078F10A321A3F5
:104F400032A313A214A215A216A281E090E094A7A6
:104F500083A78FEF86A717A210A611A612A6138209
:104F600014821582168270AB67A752AB41AB13AAAD
:104F700014AA15AA16AAC7AAD0AEE1AEF2AEC3AE65
:104F8000D4AEE5AEF6AEFF96019311932193319323
:104F90001082E354F04017821086118612861F910A
:104FA0000F91FF90EF90DF90CF900895EF92FF92D6
:104FB0000F931F93CF93DF93EC017A018B016F89DD
:104FC000788D898D9A8DA80197010E94403A882397
:104FD000E1F1EF8AF88E098F1A8FEF9660E074E2A4
:104FE00084E799E4A80197010E94443A6883798391
:104FF0008A839B83EF978BA99CA9ADA9BEA918169C
:1050000019061A061B060CF52B893C894D895E8909
:10501000CA01B9010E94933B7B018C012B8D3C8D11
:105020004D8D5E8DCA01B9010E94DC399B01AC0136
:10503000C801B7010E94443A0E94AC3A6BAB7CAB0A
:105040008DAB9EABCE010E94E125DF91CF911F91E8
:105050000F91FF90EF9008954F925F926F927F9221
:105060008F929F92AF92BF92CF92DF92EF92FF9278
:105070000F931F93CF93DF932C017A018B01CB0108
:10508000BA01F20123893489458956890E94403A40
:10509000882309F455C0F201A788B08CC18CD28C4A
:1050A0003501460197FA909497F89094C801B7019A
:1050B000A40193010E94403A88231CF484017301E7
:1050C0000AC0C801B701A60195010E948F3B1816BE
:1050D00014F486017501C801B70120E030E040E01A
:1050E00050E00E94403A882331F4F20113A214A246
:1050F00015A216A220C060E074E284E799E4A8013A
:1051000097010E94443A9F770E94B13AF20163A34B
:1051100074A385A396A3E201CD5BDF4F1882C8017B
:10512000B70120E030E040E050E00E948F3B1816CD
:1051300014F481E08883F201E38AF48A058B168BEC
:10514000DF91CF911F910F91FF90EF90DF90CF9063
:10515000BF90AF909F908F907F906F905F904F9097
:105160000895FC012389348945895689B901CA010A
:105170000895DC0112968C911297833001F18430EE
:1051800040F4813089F0ED91FC911197823098F4D0
:1051900007C0863011F1883049F1843079F516C0A6
:1051A0000480F581E02D1FC0ED91FC9111970680E0
:1051B000F781E02D18C00084F185E02D14C0ED9139
:1051C000FC9111970284F385E02D0DC0ED91FC91C7
:1051D00011970484F585E02D06C0ED91FC9111979F
:1051E0000684F785E02DCD0109950895ED91FC9198
:1051F00011970088F189E02DCD0109950895CF938D
:10520000DF93EC016B897C898D899E8920E030E0F9
:1052100040E050E00E948F3B18161CF4EFA5F8A95F
:1052200002C0E9A9FAA90995DF91CF910895DC019F
:1052300070E06370707061307105A9F062307105C3
:105240001CF4672B41F0089562307105A1F06330C2
:10525000710501F518C0ED91FC9111970190F08155
:10526000E02D62E00EC0ED91FC9111970190F0816C
:10527000E02D63E006C0ED91FC910190F081E02DFE
:1052800061E009950895ED91FC910190F081E02D88
:1052900060E009950895DC01862F63E00E947A3C66
:1052A000913071F0913018F09230E9F413C0ED9123
:1052B000FC9111970190F081E02DCD0164E008C0D0
:1052C000ED91FC9111970190F081E02DCD0161E00D
:1052D00009950895ED91FC9111970190F081E02DD1
:1052E000CD0162E009950895DC0170E06370707093
:1052F00061307105A9F0623071051CF4672B41F033
:10530000089562307105A1F06330710501F518C090
:10531000ED91FC9111970190F081E02D65E00EC0B8
:10532000ED91FC9111970190F081E02D66E006C0AF
:10533000ED91FC910190F081E02D6AE009950895CE
:10534000ED91FC910190F081E02D69E009950895BF
:10535000DC01862F66E00E947A3C923009F193309E
:1053600030F4992359F0913009F03FC010C09430C7
:1053700049F19430F0F09530C1F52EC0ED91FC91DB
:1053800011970190F081E02DCD0164E023C0ED91F3
:10539000FC9111970190F081E02DCD0165E01AC0DC
:1053A000ED91FC9111970190F081E02DCD0161E02C
:1053B00011C0ED91FC9111970190F081E02DCD018C
:1053C00063E008C0ED91FC9111970190F081E02D10
:1053D000CD0162E009950895ED91FC91119701903E
:1053E000F081E02DCD0166E009950895DC0170E0C3
:1053F000677070706330710591F1643071054CF421
:1054000061307105E1F0623071050CF5672B79F0C0
:1054100008956530710599F16530710544F1663084
:105420007105A9F16730710509F040C038C0ED91F0
:10543000FC9111970190F081E02D61E02EC0ED917B
:10544000FC9111970190F081E02D65E026C0ED916F
:10545000FC9111970190F081E02D64E01EC0ED9168
:10546000FC9111970190F081E02D66E016C0ED915E
:10547000FC9111970190F081E02D62E00EC0ED915A
:10548000FC9111970190F081E02D6AE006C0ED914A
:10549000FC910190F081E02D68E009950895ED916F
:1054A000FC910190F081E02D69E009950895CF927B
:1054B000DF92EF92FF920F931F93CF93DF93FC0144
:1054C0002281243029F0283019F092E0D92E02C030
:1054D00084E0D82E8F01C0E0D0E0E62EFF24CC245B
:1054E000C394F8012381C7010C2E02C095958795BE
:1054F0000A94E2F7678180FD6C25822F0E945D315E
:1055000021960F5F1F4FCD1560F3DF91CF911F9153
:105510000F91FF90EF90DF90CF900895CF93DF939E
:10552000EC01E881F9810190F081E02DCD5BDF4F46
:105530008881C354D040882311F461E001C063E046
:10554000CE0109958BA59CA50E94D930E881F981EF
:105550000190F081E02DCD5BDF4F8881C354D040B6
:10556000882311F460E001C062E0CE010995DF916B
:10557000CF9108956F927F928F929F92AF92BF9238
:10558000CF92DF92EF92FF920F931F93CF93DF930F
:10559000EC013A014B01CB01BA0120E030E040E0E0
:1055A00050E00E94403A882309F441C0AB8CBC8C87
:1055B000CD8CDE8CC601B501A40193010E94403A56
:1055C0008823A9F16BA97CA98DA99EA90E94DF3A25
:1055D0007B018C01C601B501A40193010E94443AEC
:1055E0009B01AC01C801B7010E94933B0E94AC3AF9
:1055F0006BAB7CAB8DAB9EAB60E070E080E090E489
:10560000A40193010E94443A0E94FA3B20E034E254
:1056100044E759E40E94933B6FAB78AF89AF9AAFF0
:105620006B8E7C8E8D8E9E8ECE010E94E125DF9149
:10563000CF911F910F91FF90EF90DF90CF90BF908F
:10564000AF909F908F907F906F900895EF92FF9210
:105650000F931F93CF93DF93EC018BA19CA1ADA17E
:10566000BEA10097A105B10509F44CC00E945A30B3
:105670007B018C012FA138A549A55AA58BA19CA11E
:10568000ADA1BEA1820F931FA41FB51F8217930760
:10569000A407B50730F0E816F9060A071B0758F407
:1056A00005C0E816F9060A071B0760F1E216F306C3
:1056B0000407150738F5CD5BDF4F8881C354D04010
:1056C0002B853C854D855E85813029F42F5F3F4FCA
:1056D0004F4F5F4F04C021503040404050402B8717
:1056E0003C874D875E87E881F9816B856770028012
:1056F000F381E02DCE010995EFA2F8A609A71AA71C
:1057000081E001C080E0DF91CF911F910F91FF9068
:10571000EF900895CF93DF93FC012785308941896D
:10572000528983859485A585B685281739074A0748
:105730005B0711F480E00FC0EF01CD5BDF4F8217F4
:105740009307A407B5071CF481E0888301C0188281
:10575000CF010E94262BDF91CF910895CF93DF9345
:10576000EC010E94262B882319F0CE010E94E1252E
:1057700081E0DF91CF910895CF93DF93EC016B89A6
:105780007C898D899E8920E030E040E050E00E94D5
:10579000403A882369F42F85388949895A898B854D
:1057A0009C85AD85BE85281739074A075B0721F020
:1057B000CE010E94AE2BE3CFDF91CF9108950F93DE
:1057C0001F938C010E944E27C8010E94BC2B1F9181
:1057D0000F910895FC018091E4048C3090F4808353
:1057E0008F5F8093E404815090E0FC01EE0FFF1F77
:1057F000E80FF91FEB51FB4F88EB9BE0928381830D
:1058000008958FEF80830895DC018C9190E0FC0176
:10581000EE0FFF1FE80FF91FEB51FB4F80818F7BCD
:1058200080838C916CE00E947A3C90E0AC01440F44
:10583000551F480F591F440F551F440F551F20E097
:1058400030E0C901840F951FFC01EE0FFF1FE80F28
:10585000F91FEB51FB4F808186FD05C02F5F3F4F45
:105860002C30310571F70895FC0120812C30B8F5FA
:105870008181992787FD909548E850E0481B590B96
:10588000440F551F440F551F6417750784F082811C
:10589000992787FD909548E552E0481B590B440F26
:1058A000551F440F551F641775070CF4AB01425088
:1058B0005040CA01AA2797FDA095BA2F880F991FBB
:1058C000AA1FBB1F4FB7F89430E0F901EE0FFF1F7E
:1058D000E20FF31FEB51FB4F928381834FBF08957B
:1058E000AF92BF92CF92DF92EF92FF920F931F93EE
:1058F000CF93DF93EC019B0182E0603278070CF0DC
:1059000048C077FF03C020E030E005C0653B71056B
:1059100014F024EB30E000D000D0B901882777FDE7
:105920008095982F2981332727FD3095E8E8AE2E02
:10593000B12CA21AB30AAA0CBB1CAA0CBB1CCC2407
:10594000B7FCC094DC2CEA81FF27E7FDF09528E541
:1059500032E02E1B3F0B220F331F220F331F442731
:1059600037FD4095542FEDB7FEB721833283438333
:10597000548320E030E040E050E004EBE02EF12CD6
:10598000012D112D0E9478369B010F900F900F90E2
:105990000F90CE01B9010E94342CDF91CF911F915D
:1059A0000F91FF90EF90DF90CF90BF90AF90089550
:1059B000CF92DF92EF92FF921F93CF93DF93EC0190
:1059C000162F7A01690188818C3008F064C0862F17
:1059D00061E00E941E31888190E0FC01EE0FFF1F04
:1059E000E80FF91FEB51FB4F1F738081807C812BE7
:1059F000808380E292E08E199F0964E070E00E944B
:105A0000863C698380E699E08C199D0964E070E02A
:105A10000E94863C6A83A8818A2F6CE00E947A3CAF
:105A2000682F70E0AB01440F551F460F571F440FFE
:105A3000551F440F551F20E030E0C901840F951F0A
:105A4000FC01EE0FFF1FE80FF91FEB51FB4F8081A8
:105A500086FD15C02F5F3F4F2C30310571F724C0F4
:105A60001092800082E08093810010928500109255
:105A70008400B19A80916F00826080936F008A2FBA
:105A800090E0FC01EE0FFF1FE80FF91FEB51FB4FF9
:105A90008081806480838881DF91CF911F91FF9006
:105AA000EF90DF90CF900895672BD1F2E8CF40E2DE
:105AB00052E020E639E00E94D82C08951F920F9200
:105AC0000FB60F9211242F933F934F935F936F93D1
:105AD0007F938F939F93AF93BF93EF93FF938091A7
