:100000000C94E1010C9409020C9409020C9409026D
:100010000C9409020C9409020C9409020C94090234
:100020000C9409020C9409020C9409020C94712599
:100030000C9409020C9409020C9409020C94090214
:100040000C9419280C9409020C94C7290C94152AB5
:100050000C9409020C9409020C9409020C940902F4
:100060000C9409020C9409026D61784C656E6774FA
:10007000683A20004669727374207761766520685B
:10008000616C66004D53472C492C596F7520707276
:100090006F6261626C7920776F6E27742067657478
:1000A00020616E792064657461696C20696E2074CA
:1000B0006869732E0020697320002C20726F7753BB
:1000C000697A653A20004D53472C492C4D617820C0
:1000D00064656E7369747920666F722070656E5303
:1000E000697A653A20004D53475F494E464F5F534A
:1000F0005452506F776572696E6720646F776E2E09
:10010000004D53475F4552524F525F5354524C6912
:100110006E65206973206E6F74206F6E2074686541
:1001200020706167652E20536B697070696E67205F
:1001300069742E004D53475F455F535452546869AC
:100140007320706F696E742066616C6C73206F75BC
:100150007473696465207468652061726561206FDD
:10016000662074686973206D616368696E652E200E
:10017000536B697070696E672069742E006D6D0035
:100180004368616E6765642050656E2077696474AA
:100190006820746F20004E657720616363656C3A58
:1001A00020004E6577206D61782073706565643A34
:1001B000200055703A2000446F776E3A2000504777
:1001C00053504545442C0050474C4946542C005050
:1001D00047535445504D554C5449504C4945522C69
:1001E00000504753544550535045525245562C00E9
:1001F00050474D4D5045525245562C00504753499B
:100200005A452C0029007061676548656967687404
:1002100020696E20737465707320280052656361D5
:100220006C6320002900526563616C632070616714
:1002300065576964746820696E20737465707320F3
:1002400028002900292C2073746570735065724D45
:100250004D202800526563616C63206D6D5065729E
:10026000537465702028004C6F616465642073745A
:100270006570206D756C7469706C6965723A004CBC
:100280006F6164656420757020706F733A004C6F05
:100290006164656420646F776E20706F733A004C00
:1002A0006F6164656420737465707320706572207B
:1002B0007265763A004C6F61646564206D6D5065BF
:1002C000725265763A004C6F6164656420686569B6
:1002D0006768743A004C6F61646564207769647480
:1002E000683A00206E6F74207265636F676E697381
:1002F00065642E004D53472C452C00524553454E06
:10030000440044524157494E470052454144590028
:1003100029206E6F74207061727365642E00436FC4
:100320006D6D20280000000000240027002A000036
:10033000000000250028002B0000000000230026FC
:10034000002900040404040404040402020202025A
:100350000203030303030301020408102040800189
:100360000204081020010204081020000000070009
:100370000201000003040600000000000000004924
:100380004E46494E4954594E414ECDCCCC3D0AD7EC
:10039000233C17B7D13877CC2B329595E6241FB183
:1003A0004F0A000020410000C84200401C4620BC0B
:1003B000BE4CCA1B0E5AAEC59D7456074226812BF1
:1003C0004F0711241FBECFEFD8E0DEBFCDBF11E035
:1003D000A0E0B1E0ECE8FBE602C005900D92AA3F78
:1003E000B107D9F714E0AAEFB1E001C01D92A33A1A
:1003F000B107E1F713E0C0ECD3E004C02297FE019F
:100400000E947335CA3BD107C9F70E94D72B0C94C1
:10041000B9350C940000A0E0B0E0E1E1F2E00C940A
:100420008A35EC01A880B980CA80DB80A114B104B0
:10043000C104D10441F484E2A82E89EDB82E8BE5E5
:10044000C82E87E0D82EC601B5012DE133EF41E07B
:1004500050E00E94423527EA31E440E050E00E943B
:10046000E2347B018C01C601B5012DE133EF41E09F
:1004700050E00E944235CA01B9012CEE34EF4FEF33
:100480005FEF0E94E2346E0D7F1D801F911F97FF6A
:1004900004C06150704080409048688379838A83AB
:1004A0009B839B01AC015F77B901CA01CDB7DEB771
:1004B000EAE00C94A6350E940B0208958EE791E0C5
:1004C0000E940B02089560937E0170937F018093D8
:1004D0008001909381010895662777270C944A0341
:1004E000FC0188279927E89421912032E9F32930EB
:1004F00010F02E30C8F32B3241F02D3239F46894CD
:1005000004C00E944203820F911D219120532A3082
:10051000C0F31EF4909581959F4F08951F93FC01A1
:1005200099278827BC01E89411911032E9F319301A
:1005300010F01E30C8F31B3251F01D3249F468949C
:1005400006C00E942D03610F711D811D911D119127
:1005500010531A30B0F33EF49095809570956195E4
:100560007F4F8F4F9F4F1F9108954AEF51E00E9498
:10057000FB020895FB01DC0102C001900D92415085
:100580005040D8F70895FB01DC018D91019080194E
:100590000110D9F3990B0895FB01DC0101900D9234
:1005A0000020E1F70895FB01DC014150504030F09C
:1005B0008D910190801919F40020B9F7881B990BCF
:1005C0000895FB0151915523A9F0BF01DC014D9124
:1005D00045174111E1F759F4CD010190002049F090
:1005E0004D9140154111C9F3FB014111EFCF81E05D
:1005F00090E001970895009731F4DA018D919C9174
:10060000009709F40EC0DC01FB013D9121912223EA
:1006100019F03217C9F3FACF332331F4DA011D92FE
:100620001C928827992708951197AF93BF93FB01D8
:100630003D912191321771F4332321F488279927B2
:10064000119702C01E921196FA01A193B0839F9157
:100650008F910895222369F7EACF592F482F372F1A
:10066000262F660F771F881F991F660F771F881F19
:10067000991F620F731F841F951F660F771F881FB6
:10068000991F08957AE0979F902D879F802D910D57
:1006900011240895A0E0B0E0E0E5F3E00C94883583
:1006A000EC015B016115710519F0FB0191838083F9
:1006B000F9908F2D90E00E947735892BC9F7FDE2E4
:1006C000FF1621F4F990EE24E39405C02BE2F21614
:1006D00009F4F990EE248E0101501040C8016FE733
:1006E00073E043E050E00E94AA04892B01F58E01DB
:1006F0000E5F1F4FC80162E873E045E050E00E94C2
:10070000AA04892B19F48E01095F1F4FA114B104AB
:1007100019F0F50111830083E0FC04C070E090E063
:1007200080E814C070E090E080E86FEF08C1C80175
:1007300067E873E043E050E00E94AA04892B69F463
:10074000A114B10429F470E090E080EC6FE7F7C0E9
:100750002296F501D183C083F6CF8824992440E006
:1007600050E060E070E0EF2DE053EA30A0F5F2E0F9
:10077000EF2A8E2D90E09C0128703070E2FE06C0BA
:10078000232B79F50894811C911C2BC0232B19F085
:10079000089481089108DB01CA0112E0880F991FB3
:1007A000AA1FBB1F1A95D1F7480F591F6A1F7B1F3D
:1007B000440F551F661F771F4E0F511D611D711D80
:1007C000483929E9520729E9620729E1720748F007
:1007D00084E0E82A06C0EE3F31F4E3FC39C098E03B
:1007E000E92AF990C0CFE53311F0E53189F5299177
:1007F0002D3219F4E0E1EE2A05C02B3219F081E028
:1008000090E003C0299182E090E0E22FE053EA30CB
:1008100018F0C81BD90B1CC020E030E0FCE02038E9
:100820003F075CF4C901880F991F880F991F280F93
:10083000391F220F331F2E0F311DE991E053EA308B
:1008400068F3E4FE03C0309521953F4F820E931E5E
:10085000CE2CDD24E1FE07C0A114B10421F02197C4
:10086000F501D183C083CB01BA010E9460337B01C3
:100870008C01F3E0CF22DD2423E0C216D10421F461
:1008800017FB109517F9109557016801C801B701BA
:1008900020E030E040E050E00E94C332882309F4B9
:1008A0004AC097FE0DC02EE9E22E23E0F22E90946E
:1008B000819491089394C0E2D0E000E010E012C06F
:1008C00096EBE92E93E0F92EF6CFF70125913591BD
:1008D00045915491C601B5010E9416345B016C012B
:1008E0008C1A9D0A8C169D0684F7D595C7950F5FC7
:1008F0001F4F0630110529F08CEF9FEFE80EF91E0F
:10090000F1CFC501D6017C018D018C2D880F8D2D75
:10091000881F8F3F51F0C601B50120E030E040E074
:1009200050E00E94C332882331F482E290E0909339
:10093000A2048093A1047E2D9F2D802F612F272F4D
:10094000392F482F562FB901CA01CDB7DEB7ECE0D9
:100950000C94A435FB01DC014150504088F08D918E
:1009600081341CF08B350CF4805E659161341CF091
:100970006B350CF4605E861B611171F3990B089561
:10098000881BFCCFAF92BF92CF92DF92EF92FF9283
:100990000F931F936E157F058007910734F42E1572
:1009A0003F054007510764F42CC0E616F706080718
:1009B000190794F4A216B306C406D5063CF423C066
:1009C000A216B306C406D506BCF41FC02A153B0503
:1009D0004C055D05C4F41BC06E157F0580079107AB
:1009E00091F42A153B054C055D058CF0A216B30663
:1009F000C406D50644F409C02A153B054C055D051F
:100A000011F484E005C082E003C083E001C081E00E
:100A10001F910F91FF90EF90DF90CF90BF90AF901C
:100A200008956F927F928F929F92AF92BF92CF92D2
:100A3000DF92EF92FF920F931F93CF93DF937C018E
:100A40005B01662757FD6095762FCB01BA010E94A6
:100A500062333B014C010027F7FC0095102FC801C1
:100A6000B7010E9462337B018C01CC24B7FCC09497
:100A7000DC2CC601B5010E9462339B01AC01C801A8
:100A8000B7010E94C732A40193010E9416349B0152
:100A9000AC01C401B3010E945E327B018C010E9453
:100AA0002F33EB01BE01882777FD8095982F0E9498
:100AB00062339B01AC01C801B7010E945E3220E0A5
:100AC00030E040E05FE30E94123418160CF42196E7
:100AD000CE01DF91CF911F910F91FF90EF90DF90AA
:100AE000CF90BF90AF909F908F907F906F90089520
:100AF0002F923F924F925F926F927F928F929F922E
:100B0000AF92BF92CF92DF92EF92FF920F931F931B
:100B10001B012C0139014A01609108027091090200
:100B200080910A0290910B020E9462337B018C013A
:100B3000A80197010E9416345B016C01C401B30146
:100B4000A40193010E9416349B01AC01C601B501BA
:100B50000E945E325B016C01C201B101A2019101F0
:100B60000E9416349B01AC01C601B5010E945F32A0
:100B70005B016C01C801B701A80197010E945F32B7
:100B80009B01AC01C601B5010E94C7321F910F91B4
:100B9000FF90EF90DF90CF90BF90AF909F908F909D
:100BA0007F906F905F904F903F902F900895AF92FD
:100BB000BF92CF92DF92EF92FF920F931F938130FB
:100BC000910509F00CC16F5F7F4F09F05FC183EFA2
:100BD00092E060E071E00E9428308CEF91E00E948A
:100BE000FA23A0908401B0908501C0908601D09036
:100BF00087016091880170E080E090E0209182019F
:100C000030918301442737FD4095542F0E94E234F0
:100C10000E9462337B018C01C601B501A8019701D6
:100C20000E94C73260930002709301028093020217
:100C300090930302C801B701A60195010E94C73233
:100C40007B018C016093040270930502809306027D
:100C50009093070260919C0170919D01882777FD18
:100C60008095982F0E946233A80197010E94163444
:100C70000E942F33609308027093090280930A0246
:100C800090930B0260919E0170919F01882777FDE0
:100C90008095982F0E946233A80197010E94163414
:100CA0000E942F3360930C0270930D0280930E020A
:100CB00090930F028AEF92E065E071E00E94283085
:100CC00081E093E069E071E00E94283088E093E0E1
:100CD0006DE071E00E9428308FE093E061E171E007
:100CE0000E94283086E193E065E171E00E9428309F
:100CF0008DE193E069E171E00E94283084E293E0A5
:100D00006DE171E00E9428308BE293E061E271E0D6
:100D10000E94283082E393E065E271E00E9428306F
:100D200089E393E069E271E00E94283080E493E077
:100D30006DE271E00E94283087E493E061E371E0A6
:100D40000E9428308EE493E065E371E00E94283031
:100D500085E593E069E371E00E9428308CE593E03B
:100D60006DE371E00E94283083E693E061E471E076
:100D70000E9428308AE693E065E471E00E94283002
:100D800081E793E069E471E00E94283088E793E00E
:100D90006DE471E00E9428306091820170918301BE
:100DA00083E592E041E00E94AB276091820170915F
:100DB00083018FE592E042E00E94AB278BE692E050
:100DC0006BE37BE144E35BE10E943D1F8FEA92E02D
:100DD0006DE27BE146E25BE10E943D1F57C0892B3B
:100DE00009F054C06F5F7F4F09F050C088E793E06F
:100DF0000E94423081E793E00E9442308AE693E00D
:100E00000E94423083E693E00E9442308CE593E0FA
:100E10000E94423085E593E00E9442308EE493E0E8
:100E20000E94423087E493E00E94423080E493E0E5
:100E30000E94423089E393E00E94423082E393E0D3
:100E40000E9442308BE293E00E94423084E293E0C1
:100E50000E9442308DE193E00E94423086E193E0AF
:100E60000E9442308FE093E00E94423088E093E09D
:100E70000E94423081E093E00E9442308AEF92E08B
:100E80000E94423083EF92E00E9442301F910F9106
:100E9000FF90EF90DF90CF90BF90AF90089580E0EB
:100EA00090E06FEF7FEF0E94D705089581E090E01A
:100EB0006FEF7FEF0E94D7050895AF92BF92CF9258
:100EC000DF92EF92FF920F931F937B018C01CA0177
:100ED000B9010E9416345B016C01C801B701A80179
:100EE00097010E9416349B01AC01C601B5010E9416
:100EF0005E320E947D341F910F91FF90EF90DF9042
:100F0000CF90BF90AF900895AF92BF92CF92DF92F3
:100F1000EF92FF920F931F937B018C0159016A019D
:100F2000609108027091090280910A0290910B026F
:100F30000E946233A80197010E945E329B01AC01BE
:100F40000E9416347B018C01C601B501A6019501F2
:100F50000E9416349B01AC01C801B7010E945F32A8
:100F60000E947D341F910F91FF90EF90DF90CF9002
:100F7000BF90AF900895AF92BF92CF92DF92EF9261
:100F8000FF920F931F937B018C0159016A01A80105
:100F900097010E9416347B018C01C601B501A601A0
:100FA00095010E9416349B01AC01C801B7010E9453
:100FB0005F320E947D341F910F91FF90EF90DF9080
:100FC000CF90BF90AF9008952F923F924F925F9233
:100FD0006F927F928F929F92AF92BF92CF92DF9249
:100FE000EF92FF920F931F93DF93CF9300D000D027
:100FF000CDB7DEB769837A838B839C8359016A01FD
:1010000017012801611571058105910559F40F2E0D
:10101000F0E0EF2EF0E0FF2EF0E00F2FF0E01F2FBA
:10102000F02DA4C0CA01B9010E9416347B018C01C5
:10103000C601B50120E030E040E050E00E94C3323C
:10104000882324F417FB109517F91095C201B101FC
:10105000A20191010E945F323B014C01C801B7011E
:10106000A40193010E94C7327B018C0169817A81BE
:101070008B819C810E9462339B01AC01C801B70146
:101080000E94C3328823B4F5C601B50120E030E0E8
:1010900040E050E00E94C332882329F4C401B30128
:1010A0000E947D340DC0C201B101A60195010E94CC
:1010B000C7329B01AC015F77C601B5010E945F3268
:1010C0007B018C01D0908901C0908A01B0908B0186
:1010D000A0908C012D2D3C2D4B2D5A2D0E941234A9
:1010E00018160CF043C08D2D9C2DAB2DBA2D7C0114
:1010F0008D013CC0C601B50120E030E040E050E089
:101100000E94C332882359F4C401B3010E947D3484
:101110007B018C0117FB109517F910950FC0C201C8
:10112000B101A60195010E94C7329B01AC015F7716
:10113000C601B5010E945E327B018C01809189015C
:1011400090918A01A0918B01B0918C015C016D019D
:10115000D7FAD094D7F8D094C801B701A601950169
:101160000E94C332882314F486017501B701C801B7
:101170000F900F900F900F90CF91DF911F910F91D3
:10118000FF90EF90DF90CF90BF90AF909F908F90A7
:101190007F906F905F904F903F902F900895809137
:1011A00094018823C1F18BE794E061E571E00E942E
:1011B000AC2D8BE692E00E94971D2091880130E0D3
:1011C00040E050E00E9442358BE794E0BA01A9016B
:1011D0002AE030E00E94262D8BE794E06DEC71E070
:1011E0000E94AC2D8FEA92E00E94971D2091880109
:1011F00030E040E050E00E9442358BE794E0BA01D5
:10120000A9012AE030E00E94262D8BE794E06FECE4
:1012100071E00E94A92E0895EF92FF920F931F9301
:101220008091100290911102A0911202B0911302CC
:101230000097A105B10509F040C0609108027091C6
:10124000090280910A0290910B020E9462337B0195
:101250008C0160910C0270910D0280910E029091B0
:101260000F020E9462339B01AC01C801B7010E94CA
:10127000BB0720E030E040E05FE30E945F320E9465
:101280002F33609310027093110280931202909397
:1012900013028BE794E068E670E00E94102C409106
:1012A00010025091110260911202709113028BE7AB
:1012B00094E02AE030E00E94662D60911002709167
:1012C000110280911202909113021F910F91FF90D1
:1012D000EF9008958FE793E00E9470028093A00141
:1012E0008DE893E00E9470029093A7018093A6017D
:1012F00008958BE794E06AE073E00E94532C089510
:101300000F931F938FE793E00E946C026093A101FB
:101310007093A2018093A3019093A4010BE714E0C2
:10132000C80160E871E00E94102C4091A101509129
:10133000A2016091A3017091A401C80122E030E0F4
:101340000E94932EC8016DE771E00E94532C1F91FB
:101350000F910895AF92BF92CF92DF92EF92FF92DA
:101360000F931F93CF93DF935B016C01EA01BA01E6
:10137000882777FD8095982F0E9462332091000284
:101380003091010240910202509103020E941634F2
:10139000A60195010E94C7327B018C0120E030E05C
:1013A00040E050E40E94123487FF03C001E010E0E7
:1013B00008C0C801B7010E942F338B01633071054B
:1013C00074F58BE794E066EC70E00E94102C8BE7DC
:1013D00094E0B601A50122E030E00E94932E8BE755
:1013E00094E06AEB70E00E94102C8BE794E0BE0161
:1013F0004AE050E00E947A2D8BE794E065EB70E0C4
:101400000E94102C8BE794E0B8014AE050E00E9463
:101410008D2D8BE794E064E870E00E94532CC801A6
:10142000DF91CF911F910F91FF90EF90DF90CF90C0
:10143000BF90AF9008958AE892E09093B3018093B3
:10144000B2019093B5018093B4018FE590E0909341
:10145000AF018093AE0180E991E09093B101809358
:10146000B00181E090E09093AD018093AC0164EF16
:1014700071E080E090E00E9495280895AF92BF92BD
:10148000CF92DF92EF92FF920F931F93CF93DF9350
:10149000EC015B016A018CEF91E069E070E00E9471
:1014A0006A25CA15DB059CF476010027F7FC009538
:1014B000102F8CEF91E0BE010E948324C801B70178
:1014C0000E9495282196AC16BD069CF712C07601A5
:1014D0000027F7FC0095102F8CEF91E0BE010E94D1
:1014E0008324C801B7010E9495282197CA15DB05FE
:1014F0009CF78CEF91E00E941424DF91CF911F9113
:101500000F91FF90EF90DF90CF90BF90AF90089534
:10151000CF93DF93809114029091FF018230B0F05D
:10152000992329F0C091A801D091A90104C0C091CC
:10153000AA01D091AB018FE793E00E947002BC0139
:101540009093AB018093AA01CE010AC0913061F45F
:101550006091AA017091AB018091A8019091A901BD
:1015600043E050E00E943E0A1092FF01DF91CF91CC
:101570000895CF93DF93809114029091FF01823000
:10158000B0F0992329F0C091A801D091A90104C01D
:10159000C091AA01D091AB018FE793E00E94700245
:1015A000BC019093A9018093A801CE010AC09923A0
:1015B00061F46091A8017091A9018091AA019091B4
:1015C000AB0143E050E00E943E0A81E08093FF01BE
:1015D000DF91CF9108958BE692E00E9425228FEA59
:1015E00092E00E9425220E94B90A10924E020895AC
:1015F000EF92FF920F931F930E9461289B01AC0111
:10160000E0904902F0904A0200914B0210914C0286
:1016100080914D028823E9F080914E028823C9F021
:101620002E193F09400B510B80919801909199011F
:10163000A0919A01B0919B0182179307A407B50767
:1016400044F48BE794E066EE70E00E94532C0E9415
:10165000EB0A1F910F91FF90EF900895CF93DF93C6
:10166000EC01AB01662757FD6095762F0E942E1F77
:1016700009C00E94F80A80919501882319F0CE01D3
:101680000E94BE23CE010E94871D61157105810550
:10169000910579F70E9461286093490270934A028C
:1016A00080934B0290934C02DF91CF9108958F92DB
:1016B0009F92AF92BF92CF92DF92EF92FF920F93E1
:1016C0001F93CF93DF935C016B01EA014901E114A1
:1016D000F104C9F48BE794E064E770E00E94532CB6
:1016E0008091A501882331F0CE0162E070E00E9474
:1016F0000D352BC0CE0162E070E00E940D35709573
:1017000061957F4F22C08091A501E016F106A1F4FA
:10171000882331F0CA0162E070E00E940D3508C0F4
:10172000CA0162E070E00E940D35709561957F4FAF
:10173000C6010E942E0B1AC0882319F0CB01BA01F2
:1017400005C066277727641B750BC6010E942E0B08
:10175000C501B4010E942E0B8091A501882319F0C8
:101760001092A50103C081E08093A501DF91CF9184
:101770001F910F91FF90EF90DF90CF90BF90AF90AF
:101780009F908F9008953F924F925F926F927F92B9
:101790008F929F92AF92BF92CF92DF92EF92FF9281
:1017A0000F931F93DF93CF93CDB7DEB728970FB674
:1017B000F894DEBF0FBECDBFFC012B014A01322ED3
:1017C000141615060CF08DC0BA010E940D353B01B0
:1017D000CF01B4010E940D35AA2797FDA095BA2F1D
:1017E000BC01CD010E9462337B018C01B4018827CA
:1017F00077FD8095982F0E9462339B01AC01C80150
:10180000B7010E94C73269837A838B839C830F2E32
:10181000F0E0AF2EF0E0BF2EF0E0CF2EF0E0DF2EB4
:10182000F02D18861F82C30101969E838D83C60109
:10183000B50129813A814B815C810E945F325B0155
:101840006C0120E030E040E85FE30E94123487FF43
:1018500002C0F3010CC0C601B50120E030E040E851
:101860005FE30E945E325B016C01ED81FE8192E0DC
:10187000391629F48BE692E06FEA72E007C0A3E024
:101880003A1639F48FEA92E06BE672E0A2019F010A
:1018900018C0B4E03B1649F4222733272E1B3F0B18
:1018A0008BE692E06FEA72E00BC081E0381671F4CB
:1018B000222733272E1B3F0B8FEA92E06BE672E064
:1018C000A2018401EF80F8840E94570B0E94CF0888
:1018D000AF81B8851196B887AF838A169B060CF046
:1018E000A6CF28960FB6F894DEBF0FBECDBFCF911E
:1018F000DF911F910F91FF90EF90DF90CF90BF90FD
:10190000AF909F908F907F906F905F904F903F909F
:1019100008953F924F925F926F927F928F929F9223
:10192000AF92BF92CF92DF92EF92FF920F931F93ED
:10193000DF93CF9300D000D000D0CDB7DEB78FE7D4
:1019400093E00E947002E0908801FF2400E010E024
:101950009C01442737FD4095542FC801B7010E94D0
:10196000E2347E836D838DE893E00E946C02162F33
:10197000072FF82EE92E8BE993E00E946C022B01D1
:101980003C0189EA93E00E946C024B015C013090BB
:10199000A00182E08093A0018091A1019091A20119
:1019A000A091A301B091A40189839A83AB83BC83E6
:1019B000212F302F4F2D5E2DC901DA017C018D01C1
:1019C000CC24DD2420C00894C11CD11CE092A101CC
:1019D000F092A2010093A3011093A401C801B701E2
:1019E0004D815E810E94AA09AC018D819E81BC015E
:1019F00022E00E94C30BC801B701A50194010E9417
:101A00005F327B018C01C801B701A30192010E94E2
:101A1000C3321816C4F689819A81AB81BC81809348
:101A2000A1019093A201A093A301B093A401ED8022
:101A3000FE80F094E194F108F3948FEA92E0B7010C
:101A40000E942E0B8D819E8162E070E00E940D3518
:101A5000709561957F4F4B018D819E8162E070E0B2
:101A60000E940D355B0101E010E011C08FEA92E0A9
:101A7000B4010E942E0B8BE692E0B7010E942E0B60
:101A80008FEA92E0B5010E942E0B0F5F1F4FC01628
:101A9000D10664F789819A81AB81BC818093A101D1
:101AA0009093A201A093A301B093A4013092A0014E
:101AB00026960FB6F894DEBF0FBECDBFCF91DF9153
:101AC0001F910F91FF90EF90DF90CF90BF90AF905C
:101AD0009F908F907F906F905F904F903F90089570
:101AE0002F923F924F925F926F927F928F929F922E
:101AF000AF92BF92CF92DF92EF92FF920F931F931C
:101B00007B018C0159016A010E946128609349029E
:101B100070934A0280934B0290934C028BE692E0C2
:101B20000E947F201B012C018FEA92E00E947F20FF
:101B30003B014C018BE692E040E050E060E070E059
:101B40000E94FA1F8FEA92E040E050E060E070E00F
:101B50000E94FA1FC801B7010E9462330E942F330E
:101B6000AB01BC018BE692E00E941C1FC601B501CF
:101B70000E9462330E942F33AB01BC018FEA92E0D6
:101B80000E941C1F80919101882309F042C08BE6BE
:101B900092E00E947F2020E030E040E050E00E9490
:101BA000C332882324F457FA509457F850948FEA9C
:101BB00092E00E947F2020E030E040E050E00E9470
:101BC000C332882324F497FA909497F890948BE684
:101BD00092E0B201A1010E94FA1F8FEA92E0B401E3
:101BE000A3010E94FA1F15C080919101882349F03A
:101BF0008BE692E00E94BE238FEA92E00E94BE2311
:101C000008C08BE692E00E949A238FEA92E00E943D
:101C10009A238BE692E00E94871D6115710581056C
:101C2000910549F48FEA92E00E94871D61157105C4
:101C30008105910539F00E94F80A80919501882369
:101C400041F3D2CF0E94CF081F910F91FF90EF90E8
:101C5000DF90CF90BF90AF909F908F907F906F90CC
:101C60005F904F903F902F9008952F923F924F9208
:101C70005F926F927F928F929F92AF92BF92CF921C
:101C8000DF92EF92FF920F931F93DF93CF9300D0D9
:101C900000D0CDB7DEB73B014C0159016A01FA8291
:101CA000E982C80162E070E00E940D35882777FD67
:101CB0008095982F661A770A880A990AA61AB70A91
:101CC000C80AD90A1C821B821801442437FC40949C
:101CD000542C2EC060E070E080E090E0A201910101
:101CE0000E945A2F7B018C0160E070E080E090E060
:101CF000A20191010E945A2F9B01AC010027F7FC21
:101D00000095102FE60CF71C081D191D442737FD00
:101D10004095542F2A0D3B1D4C1D5D1DC801B70178
:101D20000E94700D2B813C812F5F3F4F3C832B83A2
:101D30008B819C81E981FA81E817F9075CF60F90A5
:101D40000F900F900F90CF91DF911F910F91FF9007
:101D5000EF90DF90CF90BF90AF909F908F907F904B
:101D60006F905F904F903F902F9008952F923F92E9
:101D70004F925F926F927F928F929F92AF92BF929B
:101D8000CF92DF92EF92FF920F931F93DF93CF9347
:101D9000CDB7DEB72C970FB6F894DEBF0FBECDBF20
:101DA0008FE793E00E948E026D837E838F839887F6
:101DB000A0908801BB24CC24DD248DE893E00E9410
:101DC0008E0269837A838B839C838BE993E00E94E4
:101DD0007002AA2797FDA095BA2FBC01CD01A601DC
:101DE00095010E94E2347B018C013B0189EA93E07A
:101DF0000E9470022C016091A1017091A20180915A
:101E0000A3019091A401A7010E94AA09AC01C201FB
:101E10006FEF70E00E9411057C01C601B5012D81B4
:101E20003E814F8158850E94E23469877A878B878B
:101E30009C87C601B50129813A814B815C810E9452
:101E4000E2341B012C01882477FC8094982CC40177
:101E5000B3010E9462332DEC3CEC4CE85FE30E943E
:101E600016340E942F335B016C0169857A858B855E
:101E70009C85A201910185010E94350E2C960FB61A
:101E8000F894DEBF0FBECDBFCF91DF911F910F91B0
:101E9000FF90EF90DF90CF90BF90AF909F908F908A
:101EA0007F906F905F904F903F902F9008952F926A
:101EB0003F924F925F926F927F928F929F92AF92DA
:101EC000BF92CF92DF92EF92FF920F931F93DF9317
:101ED000CF93CDB7DEB72A970FB6F894DEBF0FBE0B
:101EE000CDBF8FE793E00E948E029B01AC01E09092
:101EF0008801FF2400E010E0C801B7010E94E2342D
:101F00006D837E838F8398878DE893E00E948E0295
:101F10009B01AC01C801B7010E94E2341B012C01F6
:101F20008BE993E00E947002AA2797FDA095BA2F33
:101F3000BC01CD01A80197010E94E2347B018C0114
:101F40007C836B8389EA93E00E9470029A83898381
:101F5000C70162E070E00E940D354B01CB01880F94
:101F6000991F3701681A790A8091A0018130C1F464
:101F70008BE692E00E94971D7B018C018FEA92E034
:101F80000E94971D5B016C016D817E818F81988518
:101F9000A20191010E94C2048093A6011092A701A0
:101FA0002091A6013091A70122303105F9F4940166
:101FB000442737FD4095542FAD80BE80CF80D88414
:101FC000A21AB30AC40AD50AC301AA2797FDA0958D
:101FD000BA2FA80EB91ECA1EDB1E6D807E808F80B0
:101FE0009884620E731E841E951E3DC023303105F9
:101FF000C9F49401442737FD4095542F82017101A3
:10200000E21AF30A040B150BC301AA2797FDA0954A
:10201000BA2FE80EF91E0A1F1B1F220E331E441E84
:10202000551E32C0C401AA2797FDA095BA2FA3015F
:10203000662757FD6095762F24303105B9F4AD80C1
:10204000BE80CF80D884A80EB91ECA1EDB1EA41A7B
:10205000B50AC60AD70A6D807E808F809884681A78
:10206000790A8A0A9B0A8201710114C07C018D01E0
:10207000E20CF31C041D151DE41AF50A060B170BE0
:10208000281A390A4A0A5B0A6D807E808F809884FC
:10209000640153016091A1017091A2018091A3019B
:1020A0009091A4014B815C810E94AA09AC018981B5
:1020B0009A816FEF70E00E9411059A878987C601A7
:1020C000B501A80197010E94700D89859A85029734
:1020D0004CF08B819C81BC0149855A852091A601D9
:1020E0000E94C30BC401B301A20191010E94700DB3
:1020F0002A960FB6F894DEBF0FBECDBFCF91DF9109
:102100001F910F91FF90EF90DF90CF90BF90AF9015
:102110009F908F907F906F905F904F903F902F9007
:1021200008952F923F924F925F926F927F928F927B
:102130009F92AF92BF92CF92DF92EF92FF920F9356
:102140001F93DF93CF93CDB7DEB7E0970FB6F89428
:10215000DEBF0FBECDBF2B013C019CA28BA20E9413
:1021600078056B8F7C8F8D8F9E8FA30192010E94CB
:102170005D076F8B788F898F9A8FC801B701A60191
:1021800095010E9478055B016C01A80197010E94EE
:102190005D077B018C01C601B50120E030E040EA1B
:1021A00051E40E94123418160CF014C26091080217
:1021B0007091090280910A0290910B026451704063
:1021C000804090400E9462336F8F78A389A39AA3C6
:1021D000C601B5012F8D38A149A15AA10E94C33271
:1021E00088230CF0F7C1C801B70120E030E040EAD5
:1021F00051E40E94123418160CF0ECC160910C02EC
:1022000070910D0280910E0290910F026451704006
:10221000804090400E9462332B013C01C801B7010D
:10222000A30192010E94C33288230CF0D3C16B8DAD
:102230007C8D8D8D9E8D20E030E040EA51E40E943F
:10224000123418160CF0C6C16B8D7C8D8D8D9E8D51
:102250002F8D38A149A15AA10E94C33288230CF0C6
:10226000B9C16F89788D898D9A8D20E030E040EA80
:1022700051E40E94123418160CF0ACC16F89788DAD
:10228000898D9A8DA30192010E94C33288230CF09C
:10229000A1C110929401C601B5012B8D3C8D4D8DCD
:1022A0005E8D0E945E321B012C01C801B7012F898F
:1022B000388D498D5A8D0E945E323B014C01C2011E
:1022C000B10120E030E040E050E00E9412341816E6
:1022D0001CF48201710106C08201710117FB109587
:1022E00017F91095C401B30120E030E040E050E060
:1022F0000E94123418161CF4A401930103C0A40117
:1023000093015058C801B7010E94123418169CF06E
:1023100021E030E03E8B2D8BD401C301B0588DA756
:102320009EA7AFA7B8ABABA1BCA15D01CC24B7FC05
:10233000C094DC2C4EC021E030E03E8B2D8BD201CE
:10234000C101B05889A79AA7ABA7BCA7ABA1BCA1F4
:102350005D01CC24B7FCC094DC2C06C02D893E89DD
:102360002F5F3F4F3E8B2D8BC201B10120E030E04B
:1023700040E050E00E94123418161CF482017101F2
:1023800004C0E9A4FAA40BA51CA5AD89BE89BD01B2
:10239000882777FD8095982F0E9462339B01AC01BE
:1023A000C801B7010E94C7327B018C01C601B5018B
:1023B0000E9462339B01AC01C801B7010E94123434
:1023C000181664F234C02D893E892F5F3F4F3E8B33
:1023D0002D8BC401B30120E030E040E050E00E94CA
:1023E000123418161CF48401730104C0EDA4FEA479
:1023F0000FA518A9AD89BE89BD01882777FD8095F5
:10240000982F0E9462339B01AC01C801B7010E9462
:10241000C7327B018C01C601B5010E9462339B016A
:10242000AC01C801B7010E941234181664F22D895C
:102430003E895901CC24B7FCC094DC2CC601B501FF
:102440000E9462337B018C01C201B101A801970196
:102450000E94C7326D837E838F839887C401B30146
:10246000A80197010E94C73269837A838B839C837A
:1024700010929101198A1A8A1B8A1C8A19861A8657
:102480001B861C86ADA2BEA2CFA2D8A66B8D7C8D6A
:102490008D8D9E8D2D813E814F8158850E945F32AA
:1024A0006B8F7C8F8D8F9E8F6F89788D898D9A8DA4
:1024B00029813A814B815C810E945F326F8B788FDA
:1024C000898F9A8F6B8D7C8D8D8D9E8D2F89388D08
:1024D000498D5A8D0E94BB076D877E878F87988BA9
:1024E0006B8D7C8D8D8D9E8D2F89388D498D5A8D6C
:1024F0000E9484071B012C0169847A848B849C844C
:102500008DA19EA1AFA1B8A5680E791E8A1E9B1E43
:1025100069897A898B899C890E9462335B016C018D
:1025200060918D0170918E0180918F019091900149
:1025300020E030E040E850E40E9416347B018C013A
:10254000C401B301A60195010E94E4070E942F3344
:10255000698B7A8B8B8B9C8B0E9462337B018C0105
:102560008BE692E0B801A7010E94FA1F8FEA92E081
:10257000B801A7010E94FA1F6D857E858F85988915
:102580000E942F337B018C01C201B1010E942F33C5
:102590009B01AC01C801B7010E94700D89859A8525
:1025A000AB85BC850197A109B10989879A87AB875B
:1025B000BC878D899E89A985BA858A0F9B1F892B27
:1025C00009F064CF81E080939401809391010E948F
:1025D000CF0806C08BE794E061E071E00E94532CC5
:1025E000E0960FB6F894DEBF0FBECDBFCF91DF915E
:1025F0001F910F91FF90EF90DF90CF90BF90AF9021
:102600009F908F907F906F905F904F903F902F9012
:1026100008952F923F924F925F926F927F928F9286
:102620009F92AF92BF92CF92DF92EF92FF920F9361
:102630001F93DF93CF9300D000D000D0CDB7DEB78B
:102640008FE793E00E946C027B018C01609188010E
:1026500070E0882777FD8095982F0E9462339B0158
:10266000AC01C801B7010E9416343B014C018DE852
:1026700093E00E946C027B018C01D09088018BE971
:1026800093E00E9470029E838D838BE692E00E940D
:10269000971D69837A838B839C838FEA92E00E94E3
:1026A000971D1B012C01C401B30120E030E040EA7A
:1026B00051E40E94C33287FD30C06D2D70E0882741
:1026C00077FD8095982F0E9462339B01AC01C80171
:1026D000B7010E9416345B016C0120E030E040EA53
:1026E00051E40E94C33287FD18C00E940C090E9469
:1026F00062339B01AC01C401B3010E94123418166D
:1027000064F00E940C090E9462339B01AC01C60177
:10271000B5010E94123418163CF48BE794E064E390
:1027200071E00E94532C16C069817A818B819C8153
:102730000E9462337B018C01C201B1010E946233AD
:102740009B01AC01C801B701840173018D809E809B
:102750000E94911026960FB6F894DEBF0FBECDBF33
:10276000CF91DF911F910F91FF90EF90DF90CF906D
:10277000BF90AF909F908F907F906F905F904F90A1
:102780003F902F900895AF92BF92CF92DF92EF9239
:10279000FF920F931F933FE7C32E33E0D32EC60162
:1027A0000E946C027B018C016091880170E0882797
:1027B00077FD8095982F0E9462339B01AC01C80180
:1027C000B7010E9416347B018C01C6010E946C0285
:1027D0005B016C01C801B7010E942F337B018C01A2
:1027E0006091880170E0882777FD8095982F0E947E
:1027F00062339B01AC01C601B5010E9416340E94F0
:102800002F339B01AC01C801B7010E94700D1F91CD
:102810000F91FF90EF90DF90CF90BF90AF90089511
:10282000EF92FF920F931F930BE612E0C8010E94F4
:1028300073224FEAE42E42E0F42EC7010E94732275
:1028400081E080934E02C8010E94971DAB01BC013C
:102850004C5F5F4F6F4F7F4FC8010E94EF23C7014E
:102860000E94971DAB01BC014C5F5F4F6F4F7F4FC4
:10287000C7010E94EF23C8010E94971DAB01BC0154
:102880004450504060407040C8010E94EF23C7018F
:102890000E94971DAB01BC01445050406040704005
:1028A000C7010E94EF231F910F91FF90EF900895B1
:1028B0006F927F928F929F92AF92BF92CF92DF9250
:1028C000EF92FF920F931F938FE793E00E948E0287
:1028D0005B016C01E0908801FF2400E010E08DE8CE
:1028E00093E00E948E023B014C01C801B701A60192
:1028F00095010E94E234AB01BC018BE692E00E949C
:102900009D1DC801B701A40193010E94E234AB01EF
:10291000BC018FEA92E00E949D1D0E9410140E944B
:10292000CF081F910F91FF90EF90DF90CF90BF9055
:10293000AF909F908F907F906F9008950F931F930B
:10294000AB01BC0140938D0150938E0160938F01C8
:10295000709390018BE692E00E94CA2240918D0113
:1029600050918E0160918F01709190018FEA92E0F9
:102970000E94CA220BE714E0C80166E971E00E94D8
:10298000102C40918D0150918E0160918F017091BA
:102990009001C80122E030E00E94962E1F910F9115
:1029A00008950F931F93CF93DF938FE793E00E94D7
:1029B0006C020E949E14809114028330C1F48DE851
:1029C00093E00E947002019791F40DE811E06AE132
:1029D00070E0EB012196F80141918F0187EE93E0C1
:1029E0000E943626CE31D10511F0BE01F2CFDF9123
:1029F000CF911F910F910895CF92DF92EF92FF92A6
:102A00000F931F937C018B0157EEC52E53E0D52EFB
:102A1000C601B701F80140810E9436260894E11CE6
:102A2000F11CC601B701F80141810E94362682E0FF
:102A300090E01F910F91FF90EF90DF90CF9008955D
:102A40000F931F93AB01BC014093890150938A01FE
:102A500060938B0170938C018BE692E00E94A41F1F
:102A60004091890150918A0160918B0170918C0194
:102A70008FEA92E00E94A41F0BE714E0C80162EA0B
:102A800071E00E94102C4091890150918A0160915F
:102A90008B0170918C01C80122E030E00E94962EDB
:102AA0001F910F9108950F931F93CF93DF938FE79B
:102AB00093E00E946C020E942015809114028330E2
:102AC000C1F48DE893E00E947002019791F409E847
:102AD00011E066E170E0EB012196F80141918F0170
:102AE00087EE93E00E943626CA31D10511F0BE016F
:102AF000F2CFDF91CF911F910F910895CF92DF9286
:102B0000EF92FF920F931F937C018B0167EEC62E0D
:102B100063E0D62EC601B7010E942F26F8018083FC
:102B20000894E11CF11CC601B7010E942F26F80190
:102B3000818382E090E01F910F91FF90EF90DF90F2
:102B4000CF9008958AE290E06AEA71E00E947E15D3
:102B50008091AA019091AB0197FF06C08AE590E0B1
:102B60009093AB018093AA018BE794E06EE872E04A
:102B70000E94102C6091AA017091AB018BE794E048
:102B80004AE050E00E948D2D8CE290E068EA71E00E
:102B90000E947E158091A8019091A90197FF06C01F
:102BA00084EB90E09093A9018093A8018BE794E0D7
:102BB0006FE772E00E94102C6091A8017091A9014A
:102BC0008BE794E04AE050E00E948D2D0895DF935A
:102BD000CF9300D000D0CDB7DEB78FE793E00E944F
:102BE00070029A8389838DE893E00E9470029C832F
:102BF0008B838BE794E067EB71E00E94102C698176
:102C00007A818BE794E04AE050E00E948D2D8BE7BB
:102C100094E062EB71E00E94102C6B817C818BE769
:102C200094E04AE050E00E948D2D8091140284309F
:102C300089F48AE290E0BE016F5F7F4F0E94FC142E
:102C40008CE290E0BE016D5F7F4F0E94FC140E94F9
:102C5000A2153AC08330C1F569817A818B819C814C
:102C600043E050E00E943E0A68EC70E080E090E0B3
:102C70000E9495286B817C8189819A8143E050E094
:102C80000E943E0A68EC70E080E090E00E94952887
:102C900069817A818B819C8143E050E00E943E0AE9
:102CA00068EC70E080E090E00E9495286B817C8168
:102CB00089819A8143E050E00E943E0A68EC70E00E
:102CC00080E090E00E9495280F900F900F900F9059
:102CD000CF91DF91089580E090E06CE971E00E946F
:102CE0007E1580919C0190919D011816190644F063
:102CF0008091B2019091B30190939D0180939C01CA
:102D00008BE794E065ED72E00E94102C60919C01CD
:102D100070919D018BE794E04AE050E00E948D2D78
:102D200082E090E06EE971E00E947E1580919E0144
:102D300090919F011816190644F08091B40190916A
:102D4000B50190939F0180939E018BE794E066EC20
:102D500072E00E94102C60919E0170919F018BE7A0
:102D600094E04AE050E00E948D2D08950F931F9348
:102D7000DF93CF9300D000D000D0CDB7DEB78FE780
:102D800093E00E9470028C019A8389838DE893E01E
:102D90000E9470029C838B831E830D8380E090E0F1
:102DA000BE016B5F7F4F0E947E1529813A818D8124
:102DB0009E818217930751F02B3031053CF080E063
:102DC00090E0BE016F5F7F4F0E94FC1482E090E0B4
:102DD000BE016B5F7F4F0E947E152B813C818D81F0
:102DE0009E818217930751F02B3031053CF082E031
:102DF00090E0BE016D5F7F4F0E94FC140E946B1635
:102E000026960FB6F894DEBF0FBECDBFCF91DF91EF
:102E10001F910F910895EF92FF920F931F93CF93FD
:102E2000DF93AC019B01EB0174E0E72EF12CE20E85
:102E3000F31E8A010F5F1F4F87EE93E0BA010E94D5
:102E40002F268993A801CE15DF0599F784E090E03D
:102E5000DF91CF911F910F91FF90EF90089586E140
:102E600090E069E871E00E940B1760918901709110
:102E70008A0180918B0190918C010E942F3316164C
:102E8000170664F080E090E0A8E4B4E48093890140
:102E900090938A01A0938B01B0938C018AE190E01A
:102EA0006DE871E00E940B1760918D0170918E01A9
:102EB00080918F01909190010E942F331616170672
:102EC00064F080E090E0A8E4B4E480938D019093F6
:102ED0008E01A0938F01B093900108958EE090E051
:102EE00064E871E00E940B17609184017091850184
:102EF000809186019091870120E030E040E85FE317
:102F00000E94C332882394F46091AE017091AF01A6
:102F1000882777FD8095982F0E9462336093840103
:102F20007093850180938601909387018BE794E0ED
:102F300065EB72E00E94102C409184015091850154
:102F400060918601709187018BE794E022E030E088
:102F50000E94962E82E190E062E871E00E947E1568
:102F600080918201909183011816190644F0809196
:102F7000B0019091B10190938301809382018BE71E
:102F800094E06FE972E00E94102C609182017091D0
:102F900083018BE794E04AE050E00E948D2D089574
:102FA00087EE93E064E170E00E942F268093880111
:102FB000882321F48091AC01809388018BE794E011
:102FC00067E672E00E94102C8BE794E06091880124
:102FD0004AE050E00E94082D0895AF92BF92CF9230
:102FE000DF92EF92FF920F931F930E946B160E9445
:102FF0006E170E94D0170E94A2150E942F178EE113
:1030000090E061EA71E00E940B176091A10170915C
:10301000A2018091A3019091A40127E137EB41ED3A
:1030200058E30E94C332882364F48DEC9CECACE43A
:10303000BFE38093A1019093A201A093A301B09359
:10304000A401A0908401B0908501C0908601D09029
:1030500087016091880170E080E090E0209182011A
:1030600030918301442737FD4095542F0E94E2346C
:103070000E9462337B018C01C601B501A801970152
:103080000E94C73260930002709301028093020293
:1030900090930302C801B701A60195010E94C732AF
:1030A00060930402709305028093060290930702D6
:1030B0008BE794E064E572E00E94102C40910002DE
:1030C0005091010260910202709103028BE794E03B
:1030D00022E030E00E94932E8BE794E064E472E0FB
:1030E0000E94102C4091040250910502609106024A
:1030F000709107028BE794E022E030E00E94932E6B
:103100008BE794E062E472E00E94532C60919C0192
:1031100070919D01882777FD8095982F0E946233DA
:10312000209104023091050240910602509107025D
:103130000E9416340E942F33609308027093090294
:1031400080930A0290930B028BE794E066E272E0B0
:103150000E94102C409108025091090260910A02CD
:1031600070910B028BE794E02AE030E00E94262D5C
:103170008BE794E064E272E00E94532C60919E0120
:1031800070919F01882777FD8095982F0E94623368
:1031900020910402309105024091060250910702ED
:1031A0000E9416340E942F3360930C0270930D021C
:1031B00080930E0290930F028BE794E06CE172E033
:1031C0000E94102C8BE794E066E072E00E94102CC5
:1031D00040910C0250910D0260910E0270910F020D
:1031E0008BE794E02AE030E00E94262D8BE794E004
:1031F00064E072E00E94102C8BE794E00E94332C74
:1032000010921002109211021092120210921302E8
:103210001F910F91FF90EF90DF90CF90BF90AF90F4
:103220000895DF93CF9300D0CDB7DEB78FE793E05B
:103230000E9470029A83898384E190E0BE016F5FEF
:103240007F4F0E94FC140E94ED170F900F90CF91BA
:10325000DF910895DF93CF9300D0CDB7DEB78FE72E
:1032600093E00E9470029A83898382E190E0BE011C
:103270006F5F7F4F0E94FC140E94ED170F900F901C
:10328000CF91DF910895EF92FF920F931F93DF93F9
:10329000CF9300D000D0CDB7DEB78FE793E00E9488
:1032A0006C0269837A838B839C837E010894E11C82
:1032B000F11C6EE070E08B010F5F1F4FF701419131
:1032C0007F0187EE93E00E943626B8010231110596
:1032D00091F70E94ED170F900F900F900F90CF91E4
:1032E000DF911F910F91FF90EF900895CF93DF939F
:1032F000C0E0D0E087EE93E0BE0140E00E943626B9
:103300002196C233D105B1F70E94ED17DF91CF911D
:103310000895CF93DF93C0E0D0E08BE794E0BE0147
:103320004AE050E00E947A2D8BE794E067E571E077
:103330000E94AC2D87EE93E0BE010E942F26682FDD
:103340008BE794E04AE050E00E94082D2196C832B5
:10335000D10519F7DF91CF910895CF92DF92EF92C7
:10336000FF920F931F930E9489190BE714E0C80185
:103370006CEF71E00E94102C60919C0170919D0196
:10338000C8014AE050E00E947A2DFDECCF2EF1E01A
:10339000DF2EC801B6010E94AC2D60919E01709194
:1033A0009F01C8014AE050E00E947A2DEFECEE2E1A
:1033B000E1E0FE2EC801B7010E94A92EC80160EF0E
:1033C00071E00E94102C4091840150918501609120
:1033D000860170918701C80122E030E00E94932E9F
:1033E000C801B7010E94A92EC80161EE71E00E94D8
:1033F000102C6091820170918301C8014AE050E075
:103400000E947A2DC801B7010E94A92EC8016FEC55
:1034100071E00E94102CC801609188014AE050E0E0
:103420000E94F62CC801B7010E94A92EC80167ECC2
:1034300071E00E94102C6091AA017091AB01C8014B
:103440004AE050E00E947A2DC801B6010E94AC2DDE
:103450006091A8017091A901C8014AE050E00E9462
:103460007A2DC801B7010E94A92EC8016EEB71E048
:103470000E94102C4091890150918A0160918B012A
:1034800070918C01C80122E030E00E94932EC801A7
:10349000B6010E94AC2D40918D0150918E0160913A
:1034A0008F0170919001C80122E030E00E94932EBC
:1034B000C801B7010E94A92E1F910F91FF90EF90B4
:1034C000DF90CF900895CF93DF93EC016AEF72E025
:1034D0000E94AC2F882319F00E94C313B3C0CE0101
:1034E00060E473E00E94AC2F882319F00E94091356
:1034F000A9C0CE0161E073E00E94AC2F882319F0CF
:103500000E9480099FC0CE016AE673E00E94AC2F42
:10351000882319F00E94531595C0CE0161E773E02E
:103520000E94AC2F882319F00E94D1148BC0CE01C9
:1035300068E073E00E94AC2F882319F00E94570FB7
:1035400081C0CE016FE073E00E94AC2F882319F098
:103550000E94B60E77C0CE0166E173E00E94AC2FE8
:10356000882319F00E946A096DC0CE016DE173E0F5
:103570000E94AC2F882319F00E94890C63C0CE01F1
:1035800064E273E00E94AC2F882319F00E94581463
:1035900059C0CE016BE273E00E94AC2F882319F072
:1035A0000E94880A4FC0CE0162E373E00E94AC2FF4
:1035B000882319F00E94B90A45C0CE0169E373E07F
:1035C0000E94AC2F882319F00E94E7153BC0CE0162
:1035D00067E473E00E94AC2F882319F00E94B616AE
:1035E00031C0CE016CE573E00E94AC2F882319F046
:1035F0000E94431927C0CE0163E673E00E94AC2FFE
:10360000882319F00E942A191DC0CE0168E773E0D3
:103610000E94AC2F882319F00E94111913C0CE010B
:103620006EE473E00E94AC2F882319F00E94AD195C
:1036300009C0CE0165E573E00E94AC2F882319F024
:103640000E94761981E0DF91CF9108958FE592E095
:1036500062E043E00E94952608958FE592E061E0E4
:1036600043E00E949526089583E592E062E043E0FE
:103670000E949526089583E592E061E043E00E9470
:1036800095260895EF92FF920F931F937C010BE70D
:1036900014E0C80164EF72E00E94102CC801B70169
:1036A0000E94BC2EC80163EE72E00E94532C1F9151
:1036B0000F91FF90EF900895CF93DF93EC010E945C
:1036C000631A882329F4CE010E94421B0E947909C3
:1036D000DF91CF910895EF92FF920F931F93DF93A5
:1036E000CF93CDB7DEB7BC01EDB6FEB6FC010190BD
:1036F0000020E9F73197E81BF90B8DB79EB78E1BB9
:103700009F0B0FB6F8949EBF0FBE8DBF0DB71EB7AF
:103710000F5F1F4FC8010E94CC02C8016DEC71E021
:103720000E94B502BC0100E010E02DC0023011057E
:10373000B9F0033011053CF40115110559F00130C1
:103740001105C1F40AC00330110569F004301105F8
:1037500089F40CC087EB93E00BC08FE793E008C0BF
:103760008DE893E005C08BE993E002C089EA93E01D
:103770000E94CC0280E090E06DEC71E00E94B50206
:10378000BC010F5F1F4F6115710581F60093140294
:103790000FB6F894FEBE0FBEEDBECF91DF911F9124
:1037A0000F91FF90EF900895CF93DF93EC016FECB2
:1037B00071E00E94E102FC0114826FEC71E00E9452
:1037C000C302009711F080E004C0CE010E946B1B81
:1037D00081E0DF91CF910895EF92FF920F931F93B5
:1037E000DF93CF93CDB7DEB727970FB6F894DEBF40
:1037F0000FBECDBF7C010E94D41B8823E9F08E014F
:103800000F5F1F4FC80165E172E00E942830C801B8
:103810000E945C1BC8010E94423080E090E0F701EA
:10382000E80FF91F1082019682339105C1F71092BB
:1038300048020E94790917C08BE794E06AE571E0BD
:103840000E94AC2D8BE794E06EE173E00E94102C97
:103850008BE794E0B7010E94AC2D8BE794E060E128
:1038600073E00E94532C1092140227960FB6F8941E
:10387000DEBF0FBECDBFCF91DF911F910F91FF90A3
:10388000EF9008958F929F92AF92BF92CF92DF9266
:10389000EF92FF920F931F93CF93DF934C010E94FF
:1038A000612820E030E0F401E20FF31F10822F5F67
:1038B0003F4F22333105B9F7AC01CB01DA015C018E
:1038C0006D01EE24FF248701C0E0D0E00E94612852
:1038D0002097A9F06E197F09800B910B6536710551
:1038E0008105910564F080E090E0F401E80FF91F94
:1038F0001082019682339105C1F7C0E0D0E00E94AA
:10390000F80A0E9461286A197B098C099D09209197
:10391000960130919701442737FD4095542F261783
:103920003707480759074CF40E9479090E9461281B
:10393000AC01CB01DA015C016D018BE794E00E94E0
:10394000D72A1816190614F68BE794E00E94082B64
:10395000F401EC0FFD1F8A3051F41082CE0102C039
:103960001192019681339105DCF311E003C080834D
:10397000219610E00E946128112331F4AC01CB01A3
:10398000DA017C018D01A2CF0E9461280E9461288A
:103990006093490270934A0280934B0290934C02C9
:1039A00060934F02709350028093510290935202A1
:1039B00081E0DF91CF911F910F91FF90EF90DF9009
:1039C000CF90BF90AF909F908F90089585E192E047
:1039D0000E94421C882321F085E192E00E94EC1BAA
:1039E0000895EF92FF920F931F938BE794E040E0CE
:1039F00051EE60E070E00E94502A8BE794E061E6AF
:103A000071E00E94AC2D8BE794E00E94332C0E9461
:103A1000ED170E941B0A4091890150918A01609123
:103A20008B0170918C018BE692E00E94A41F409163
:103A30008D0150918E0160918F01709190018BE604
:103A400092E00E94CA224091890150918A016091BE
:103A50008B0170918C018FEA92E00E94A41F40912B
:103A60008D0150918E0160918F01709190018FEACC
:103A700092E00E94CA22609192017091930188277E
:103A800077FD8095982F0E946233209184013091B8
:103A9000850140918601509187010E94C7327B01C8
:103AA0008C016091820170918301882777FD809558
:103AB000982F0E9462339B01AC01C801B7010E949C
:103AC00016340E942F337B018C018BE692E0B80103
:103AD000A7010E949D1D8FEA92E0B801A7010E94F4
:103AE0009D1DE5E1F2E0119282E0E734F807D9F795
:103AF0000E9479090E94B90A64EF71E080E090E0C9
:103B00000E9495281F910F91FF90EF900895FC015E
:103B1000278530894189528983859485A585B68515
:103B2000281B390B4A0B5B0BB901CA010895FC0134
:103B300063857485858596850895FC014387548740
:103B4000658776874787508B618B728B13AA14AA7F
:103B500015AA16AA13A214A215A216A208956F926E
:103B60007F928F929F92AF92BF92CF92DF92EF920D
:103B7000FF920F931F93CF93DF93EC01AF84B8882C
:103B8000C988DA888B859C85AD85BE85A81AB90A57
:103B9000CA0ADB0A2B893C894D895E89CA01B901B1
:103BA0000E9416347B018C012B8D3C8D4D8D5E8DDA
:103BB000CA01B9010E945F329B01AC01C801B70183
:103BC0000E94C7320E942F339B01AC01A114B104A3
:103BD000C104D104B9F462307105810591050CF07E
:103BE00085C01BA21CA21DA21EA280E090E0A0E046
:103BF000B0E08B8B9C8BAD8BBE8B1BAA1CAA1DAA25
:103C00001EAA0BC1EBA8FCA80DA91EA91A141B041F
:103C10001C041D0444F51E141F041006110674F440
:103C20006A157B058C059D05B4F5CD5BDF4F88815A
:103C3000C354D040882309F059C02DC0E114F104C9
:103C40000105110509F452C06A157B058C059D0517
:103C50000CF04CC0CD5BDF4F8881C354D040813025
:103C600009F044C038C01E141F0410061106DCF40D
:103C700088279927DC018A199B09AC09BD092817F7
:103C800039074A075B073CF4CD5BDF4F8881C3549B
:103C9000D040813059F588279927DC01821B930B8E
:103CA000A40BB50B1FC0E114F10401051105F1F0DF
:103CB00088279927DC018A199B09AC09BD092817B7
:103CC00039074A075B0794F4CD5BDF4F8881C35403
:103CD000D040882359F488279927DC018E199F0941
:103CE000A00BB10B8BAB9CABADABBEAB6BA87CA8F8
:103CF0008DA89EA86114710481049104A9F48FA970
:103D000098ADA9ADBAAD8BAF9CAFADAFBEAFFE0164
:103D1000ED5BFF4F10821A141B041C041D040CF0F1
:103D200049C081E0808346C0ABACBCACCDACDEAC5E
:103D3000C601B50120E030E040E050EC0E941634AE
:103D40007B018C01C401B3010E94623320E030E0AA
:103D500040E850E40E94163420E030E040E85FE3A1
:103D60000E945F329B01AC01C801B7010E94C732BB
:103D70009B01AC01C601B5010E945F327B018C0141
:103D80006BAF7CAF8DAF9EAFEF96A880B980CA8035
:103D9000DB80EF979501A6010E941234181624F4D7
:103DA000D801C70157016D01C501D6018BAF9CAF8A
:103DB000ADAFBEAF8BA99CA9ADA9BEA90196A11DAF
:103DC000B11D8BAB9CABADABBEAB6BAD7CAD8DAD6C
:103DD0009EAD0E9434336BA37CA38DA39EA360E0B1
:103DE00074E284E799E42BAD3CAD4DAD5EAD0E942D
:103DF000C7329B01AC016B8B7C8B8D8B9E8BCD5B1B
:103E0000DF4F8881C354D040882339F4DA01C901D7
:103E1000B0588B8B9C8BAD8BBE8BDF91CF911F915C
:103E20000F91FF90EF90DF90CF90BF90AF909F9059
:103E30008F907F906F900895FC0187859089A1896C
:103E4000B28984179507A607B70739F04787508BC3
:103E5000618B728BCF010E94AF1D0895FC01DB01C5
:103E6000CA014385548565857685480F591F6A1FA9
:103E70007B1FCF010E941C1F0895CF92DF92EF920B
:103E8000FF920F931F93FC0188ED91E09183808353
:103E9000128213861486158616861786108A118A52
:103EA000128A0F2EF0E0CF2EF0E0DF2EF0E0EF2EA2
:103EB000F0E0FF2EF02DC38AD48AE58AF68A00E06E
:103EC00010E020E83FE3078B108F218F328F038FA4
:103ED000148F258F368F078F10A321A332A313A22F
:103EE00014A215A216A281E090E094A783A78FEFF9
:103EF00086A717A210A611A612A6138214821582F5
:103F0000168270AB67A752AB41AB13AA14AA15AACD
:103F100016AAC7AAD0AEE1AEF2AEC3AED4AEE5AE3D
:103F2000F6AEFF9601931193219331931082E354DF
:103F3000F04017821086118612861F910F91FF9014
:103F4000EF90DF90CF900895EF92FF920F931F9321
:103F5000CF93DF93EC017A018B016F89788D898D86
:103F60009A8DA80197010E94C3328823E1F1EF8A5C
:103F7000F88E098F1A8FEF9660E074E284E799E477
:103F8000A80197010E94C732688379838A839B8343
:103F9000EF978BA99CA9ADA9BEA9181619061A06F8
:103FA0001B060CF52B893C894D895E89CA01B90134
:103FB0000E9416347B018C012B8D3C8D4D8D5E8DC6
:103FC000CA01B9010E945F329B01AC01C801B7016F
:103FD0000E94C7320E942F336BAB7CAB8DAB9EAB84
:103FE000CE010E94AF1DDF91CF911F910F91FF90E5
:103FF000EF9008954F925F926F927F928F929F926F
:10400000AF92BF92CF92DF92EF92FF920F931F93E6
:10401000CF93DF932C017A018B01CB01BA01F2011E
:1040200023893489458956890E94C332882309F43B
:1040300055C0F201A788B08CC18CD28C35014601E5
:1040400097FA909497F89094C801B701A40193014E
:104050000E94C33288231CF4840173010AC0C80182
:10406000B701A60195010E941234181614F48601B6
:104070007501C801B70120E030E040E050E00E9447
:10408000C332882331F4F20113A214A215A216A29E
:1040900020C060E074E284E799E4A80197010E94DF
:1040A000C7329F770E943433F20163A374A385A3C0
:1040B00096A3E201CD5BDF4F1882C801B70120E073
:1040C00030E040E050E00E941234181614F481E011
:1040D0008883F201E38AF48A058B168BDF91CF91F6
:1040E0001F910F91FF90EF90DF90CF90BF90AF9016
:1040F0009F908F907F906F905F904F900895FC01FC
:104100002389348945895689B901CA010895DC019A
:1041100012968C911297833001F1843040F48130F3
:1041200089F0ED91FC911197823098F407C08630A8
:1041300011F1883049F1843079F516C00480F58199
:10414000E02D1FC0ED91FC9111970680F781E02DC5
:1041500018C00084F185E02D14C0ED91FC911197F9
:104160000284F385E02D0DC0ED91FC91119704843C
:10417000F585E02D06C0ED91FC9111970684F78539
:10418000E02DCD0109950895ED91FC9111970088DE
:10419000F189E02DCD0109950895CF93DF93EC01CE
:1041A0006B897C898D899E8920E030E040E050E079
:1041B0000E94123418161CF4EFA5F8A902C0E9A950
:1041C000FAA90995DF91CF910895DC0170E0637041
:1041D000707061307105A9F0623071051CF4672BB5
:1041E00041F0089562307105A1F06330710501F569
:1041F00018C0ED91FC9111970190F081E02D62E0E3
:104200000EC0ED91FC9111970190F081E02D63E0DB
:1042100006C0ED91FC910190F081E02D61E00995DF
:104220000895ED91FC910190F081E02D60E00995F9
:104230000895DC01862F63E00E940135913071F012
:10424000913018F09230E9F413C0ED91FC91119780
:104250000190F081E02DCD0164E008C0ED91FC916A
:1042600011970190F081E02DCD0161E0099508954D
:10427000ED91FC9111970190F081E02DCD0162E06C
:1042800009950895DC0170E063707070613071050C
:10429000A9F0623071051CF4672B41F0089562307B
:1042A0007105A1F06330710501F518C0ED91FC9125
:1042B00011970190F081E02D65E00EC0ED91FC9129
:1042C00011970190F081E02D66E006C0ED91FC9120
:1042D0000190F081E02D6AE009950895ED91FC913F
:1042E0000190F081E02D69E009950895DC01862FA9
:1042F00066E00E940135923009F1933030F4992341
:1043000059F0913009F03FC010C0943049F1943019
:10431000F0F09530C1F52EC0ED91FC911197019010
:10432000F081E02DCD0164E023C0ED91FC91119767
:104330000190F081E02DCD0165E01AC0ED91FC9176
:1043400011970190F081E02DCD0161E011C0ED9158
:10435000FC9111970190F081E02DCD0163E008C040
:10436000ED91FC9111970190F081E02DCD0162E07B
:1043700009950895ED91FC9111970190F081E02D40
:10438000CD0166E009950895DC0170E067707070FA
:104390006330710591F1643071054CF46130710541
:1043A000E1F0623071050CF5672B79F00895653006
:1043B000710599F16530710544F166307105A9F117
:1043C0006730710509F040C038C0ED91FC9111973C
:1043D0000190F081E02D61E02EC0ED91FC911197EC
:1043E0000190F081E02D65E026C0ED91FC911197E0
:1043F0000190F081E02D64E01EC0ED91FC911197D9
:104400000190F081E02D66E016C0ED91FC911197CE
:104410000190F081E02D62E00EC0ED91FC911197CA
:104420000190F081E02D6AE006C0ED91FC910190D1
:10443000F081E02D68E009950895ED91FC910190DF
:10444000F081E02D69E009950895CF93DF93EC01A9
:104450008A81882371F0E881F9810190F081E02D53
:10446000CE0160E009958EA58F3F19F06DA50E94E1
:104470007229DF91CF910895CF92DF92EF92FF9250
:104480000F931F93CF93DF93FC012281243029F0F7
:10449000283019F092E0D92E02C084E0D82E8F0186
:1044A000C0E0D0E0E62EFF24CC24C394F8012381A1
:1044B000C7010C2E02C0959587950A94E2F7678193
:1044C00080FD6C25822F0E94722921960F5F1F4F5D
:1044D000CD1560F3DF91CF911F910F91FF90EF9079
:1044E000DF90CF900895CF93DF93EC018A818823EA
:1044F00011F18B8161E00E9433298C8161E00E947F
:1045000033298A81843011F0883041F48D8161E053
:104510000E9433298E8161E00E9433299EA59F3F2E
:1045200051F06DA581E06827892F0E9472298EA520
:1045300061E00E943329DF91CF910895CF93DF93FB
:10454000EC01E881F9810190F081E02DCD5BDF4F36
:104550008881C354D040882311F461E001C063E036
:10456000CE0109958BA59CA50E94EE28E881F981D2
:104570000190F081E02DCD5BDF4F8881C354D040A6
:10458000882311F460E001C062E0CE010995DF915B
:10459000CF9108956F927F928F929F92AF92BF9228
:1045A000CF92DF92EF92FF920F931F93CF93DF93FF
:1045B000EC013A014B01CB01BA0120E030E040E0D0
:1045C00050E00E94C332882309F441C0AB8CBC8CFC
:1045D000CD8CDE8CC601B501A40193010E94C332CB
:1045E0008823A9F16BA97CA98DA99EA90E94623399
:1045F0007B018C01C601B501A40193010E94C73261
:104600009B01AC01C801B7010E9416340E942F33F0
:104610006BAB7CAB8DAB9EAB60E070E080E090E478
:10462000A40193010E94C7320E947D3420E034E24D
:1046300044E759E40E9416346FAB78AF89AF9AAF64
:104640006B8E7C8E8D8E9E8ECE010E94AF1DDF9173
:10465000CF911F910F91FF90EF90DF90CF90BF907F
:10466000AF909F908F907F906F900895EF92FF9200
:104670000F931F93CF93DF93EC018BA19CA1ADA16E
:10468000BEA10097A105B10509F44CC00E946F2896
:104690007B018C012FA138A549A55AA58BA19CA10E
:1046A000ADA1BEA1820F931FA41FB51F8217930750
:1046B000A407B50730F0E816F9060A071B0758F4F7
:1046C00005C0E816F9060A071B0760F1E216F306B3
:1046D0000407150738F5CD5BDF4F8881C354D04000
:1046E0002B853C854D855E85813029F42F5F3F4FBA
:1046F0004F4F5F4F04C021503040404050402B8707
:104700003C874D875E87E881F9816B856770028001
:10471000F381E02DCE010995EFA2F8A609A71AA70B
:1047200081E001C080E0DF91CF911F910F91FF9058
:10473000EF900895CF93DF93FC012785308941895D
:10474000528983859485A585B685281739074A0738
:104750005B0711F480E00FC0EF01CD5BDF4F8217E4
:104760009307A407B5071CF481E0888301C0188271
:10477000CF010E943623DF91CF910895CF93DF932D
:10478000EC010E943623882319F0CE010E94AF1D50
:1047900081E0DF91CF910895CF93DF93EC016B8996
:1047A0007C898D899E8920E030E040E050E00E94C5
:1047B000C332882369F42F85388949895A898B85C2
:1047C0009C85AD85BE85281739074A075B0721F010
:1047D000CE010E94BE23E3CFDF91CF9108950F93C6
:1047E0001F938C010E941C1FC8010E94CC231F91A3
:1047F0000F910895FC018091C1038C3090F4828365
:104800008F5F8093C103815090E0FC01EE0FFF1F8A
:10481000E80FF91FEE53FC4F88EB9BE092838183F6
:1048200008958FEF82830895DC0112968C91129780
:1048300090E0FC01EE0FFF1FE80FF91FEE53FC4F55
:1048400080818F7B808312968C916CE00E94013571
:1048500090E0AC01440F551F480F591F440F551FDE
:10486000440F551F20E030E0C901840F951FFC0163
:10487000EE0FFF1FE80FF91FEE53FC4F808186FDFE
:1048800005C02F5F3F4F2C30310571F70895FC01B3
:1048900022812C30B8F58081992787FD909548E8D2
:1048A00050E0481B590B440F551F440F551F641708
:1048B000750784F08181992787FD909548E552E03E
:1048C000481B590B440F551F440F551F641775079C
:1048D0000CF4AB0142505040CA01AA2797FDA095A5
:1048E000BA2F880F991FAA1FBB1F4FB7F89430E04B
:1048F000F901EE0FFF1FE20FF31FEE53FC4F9283FF
:1049000081834FBF0895AF92BF92CF92DF92EF9213
:10491000FF920F931F93CF93DF93EC019B0182E0F3
:10492000603278070CF048C077FF03C020E030E029
:1049300005C0653B710514F024EB30E000D000D0D9
:10494000B901882777FD8095982F2881332727FD87
:104950003095E8E8AE2EB12CA21AB30AAA0CBB1C03
:10496000AA0CBB1CCC24B7FCC094DC2CE981FF272B
:10497000E7FDF09528E532E02E1B3F0B220F331F99
:10498000220F331F442737FD4095542FEDB7FEB754
:10499000218332834383548320E030E040E050E0C1
:1049A00004EBE02EF12C012D112D0E94EF2E9B0126
:1049B0000F900F900F900F90CE01B9010E944724E5
:1049C000DF91CF911F910F91FF90EF90DF90CF90EB
:1049D000BF90AF900895CF92DF92EF92FF921F9316
:1049E000CF93DF93EC01162F7A0169018A818C3015
:1049F00008F064C0862F61E00E9433298A8190E02C
:104A0000FC01EE0FFF1FE80FF91FEE53FC4F1F7361
:104A10008081807C812B808380E292E08E199F09C7
:104A200064E070E00E940D35688380E699E08C199F
:104A30009D0964E070E00E940D356983AA818A2F88
:104A40006CE00E940135682F70E0AB01440F551FE8
:104A5000460F571F440F551F440F551F20E030E0ED
:104A6000C901840F951FFC01EE0FFF1FE80FF91F0E
:104A7000EE53FC4F808186FD15C02F5F3F4F2C30D9
:104A8000310571F724C01092800082E0809381008C
:104A90001092850010928400B19A80916F0082601C
:104AA00080936F008A2F90E0FC01EE0FFF1FE80F4C
:104AB000F91FEE53FC4F8081806480838A81DF91EF
:104AC000CF911F91FF90EF90DF90CF900895672BCB
:104AD000D1F2E8CF40E252E020E639E00E94EB2438
:104AE00008951F920F920FB60F9211242F933F93A8
:104AF0004F935F936F937F938F939F93AF93BF93E6
:104B0000EF93FF938091E60387FF05C01092850025
:104B1000109284002BC02091E603332727FD3095A7
:104B20008091C10390E02817390704F58091E603CE
:104B3000992787FD9095FC01EE0FFF1FE80FF91FE5
:104B4000EE53FC4F808186FF11C08091E6039927C8
:104B500087FD9095FC01EE0FFF1FE80FF91FEE5344
:104B6000FC4F80818F7360E00E9472298091E60380
:104B70008F5F8093E6032091E603332727FD30956E
:104B80008091C10390E0281739070CF04EC0809146
:104B9000E6038C300CF049C02091840030918500F0
:104BA0008091E603992787FD9095FC01EE0FFF1F8A
:104BB000E80FF91FEE53FC4F81819281280F391FB6
:104BC00030938900209388008091E603992787FD20
:104BD0009095FC01EE0FFF1FE80FF91FEE53FC4FFD
:104BE000808186FF2BC08091E603992787FD9095F1
:104BF000FC01EE0FFF1FE80FF91FEE53FC4F808101
:104C00008F7361E00E94722919C080E49CE905C09D
:104C10008091840090918500049690938900809300
:104C200088008FEF8093E60309C080918400909103
:104C30008500049680549C4940F3EACFFF91EF91A0
:104C4000BF91AF919F918F917F916F915F914F91A4
:104C50003F912F910F900FBE0F901F901895F999CB
:104C6000FECF72BD61BDF89A80B50895F999FECF67
:104C70001FBA72BD61BD40BD0FB6F894FA9AF99A99
:104C80000FBE08951092E8030895E0EBF0E09081E4
:104C90009368908387708093B1001092B3008BE08B
:104CA00061E00E9433290895E0EBF0E09081936287
:104CB000908387708093B1001092B40083E061E02C
:104CC0000E9433290895CF93DF938CE060E00E9427
:104CD000722988E060E00E947229C7E0D0E084E099
:104CE00060E00E9472298091E90390E00C2E02C0DE
:104CF000959587950A94E2F780FF03C088E061E00C
:104D000002C088E060E00E94722984E061E00E94B5
:104D1000722921978FEFCF3FD80709F78CE061E028
:104D20000E947229DF91CF9108950F931F93CF9323
:104D3000DF93EC01142F8A81813029F404E042E0F2
:104D400058E070E108C0823011F080E0E0C000E27D
:104D500041E050E870E4113041F49B85892F86953D
:104D60008695869580FF10C009C01230A1F49B85FE
:104D7000892F86958695869580FD06C0613011F451
:104D8000985F05C0985003C0613019F4905F9B870D
:104D900052C09051FCCF133041F48B85613011F437
:104DA000885F01C088508B8746C0143009F043C02B
:104DB0008B85613011F48F5F01C081508B87AB858B
:104DC000AF73AB87A03148F4B0E0E6ECF1E0EA1B4A
:104DD000FB0B2081AA54BE4F19C08A2F805180310D
:104DE00048F48A2F90E0FC01EA55FE4F2081E6ED61
:104DF000F1E01DC08A2F8052803150F4B0E0E6EE21
:104E0000F1E0EA1BFB0B2081AA56BE4F8C9115C026
:104E10008A2F8053803118F080E020E00EC08A2F66
:104E200090E0FC01EA57FE4F2081E6EFF1E0E81B3D
:104E3000F90B808102C08FEF2FEF3B853F733B87DB
:104E40009A81913029F42093B3008093B40004C078
:104E5000923011F427BD88BD242F202B672F652B9E
:104E6000962F922B90958091E90398239093E903D4
:104E7000143019F5303118F4922B9093E903832FF5
:104E80008051803130F4452B8091E903842B80934D
:104E9000E903832F8052803130F4572B8091E9034E
:104EA000852B8093E9033053303160F5702B80916E
:104EB000E903872B8093E90325C0832F8695869588
:104EC00086958330B1F0843028F4813071F08230DF
:104ED00070F409C0853081F0853060F0863079F05B
:104EE000873081F40BC0902B0BC0922B09C0942B00
:104EF00007C0542B952B04C0962B02C0702B972B08
:104F00009093E90388EE93E00E9463268B85DF91FE
:104F1000CF911F910F9108950F931F938C018CE0F7
:104F200061E00E94332987E061E00E94332988E034
:104F300061E00E94332984E061E00E9433291092ED
:104F4000E903C8010E94632687E060E00E9472299D
:104F50001F910F910895DF92EF92FF920F931F938D
:104F60008C017B01D42E88EE93E00E948C27F801FF
:104F7000F182E082D2821386F1E0DF1629F580917A
:104F8000E903817E8093E90388EE93E00E94632623
:104F90008BE061E00E94332983E061E00E943329C5
:104FA0008BE061E00E94722983E061E00E94722937
:104FB00081E00E94452681E00E9454268FEF809375
:104FC000B3008093B4002FC082E0D81661F58091C1
:104FD000E9038E718093E90388EE93E00E946326D3
:104FE00085E061E00E94332986E061E00E94332978
:104FF00085E061E00E94722986E061E00E947229EA
:1050000084B5836884BD17BC86E061E00E943329C3
:1050100084B5836284BD18BC85E061E00E943329B9
:105020008FEF87BD88BD1F910F91FF90EF90DF90AC
:1050300008951F920F920FB60F9211242F933F9352
:105040008F939F93AF93BF938091EE039091EF0363
:10505000A091F003B091F1033091F2030196A11DEC
:10506000B11D232F2D5F2D3720F02D570196A11D47
:10507000B11D2093F2038093EE039093EF03A0936E
:10508000F003B093F1038091EA039091EB03A091B8
:10509000EC03B091ED030196A11DB11D8093EA03CD
:1050A0009093EB03A093EC03B093ED03BF91AF910A
:1050B0009F918F913F912F910F900FBE0F901F9056
:1050C00018958FB7F8942091EE033091EF0340913B
:1050D000F0035091F1038FBFB901CA0108959FB742
:1050E000F8942091EA033091EB034091EC03509146
:1050F000ED0386B5A89B06C08F3F21F02F5F3F4F81
:105100004F4F5F4F9FBF542F432F322F2227280F1F
:10511000311D411D511D82E0220F331F441F551FB9
:105120008A95D1F7B901CA0108959B01AC017FB7F7
:10513000F8948091EA039091EB03A091EC03B09175
:10514000ED0366B5A89B05C06F3F19F00196A11D40
:10515000B11D7FBFBA2FA92F982F8827860F911DC9
:10516000A11DB11D62E0880F991FAA1FBB1F6A9580
:10517000D1F7BC012DC0FFB7F8948091EA0390915C
:10518000EB03A091EC03B091ED03E6B5A89B05C03D
:10519000EF3F19F00196A11DB11DFFBFBA2FA92F36
:1051A000982F88278E0F911DA11DB11DE2E0880F59
:1051B000991FAA1FBB1FEA95D1F7861B970B885E24
:1051C0009340C8F2215030404040504068517C4FDD
:1051D000211531054105510571F60895019739F002
:1051E000880F991F880F991F02970197F1F708956B
:1051F000789484B5826084BD84B5816084BD85B5B2
:10520000826085BD85B5816085BDEEE6F0E0808178
:1052100081608083E1E8F0E0108280818260808399
:10522000808181608083E0E8F0E08081816080831C
:10523000E1EBF0E0808184608083E0EBF0E080814E
:1052400081608083EAE7F0E08081846080838081F0
:105250008260808380818160808380818068808398
:105260001092C1000895CF93DF93482F50E0CA01F8
:10527000895A9C4FFC0134914D5B5C4FFA0184913B
:10528000882369F190E0880F991FFC01EB5DFC4FCA
:10529000A591B491FC01E15DFC4FC591D4916623C9
:1052A00051F42FB7F8948C91932F909589238C9378
:1052B000888189230BC0623061F42FB7F8948C91F8
:1052C000932F909589238C938881832B88832FBF7C
:1052D00006C09FB7F8948C91832B8C939FBFDF916E
:1052E000CF910895482F50E0CA0185599C4FFC0189
:1052F0002491CA01895A9C4FFC0194914D5B5C4FEB
:10530000FA013491332309F440C0222351F12330B0
:1053100071F0243028F42130A1F0223011F514C0AE
:105320002630B1F02730C1F02430D9F404C0809188
:1053300080008F7703C0809180008F7D80938000F4
:1053400010C084B58F7702C084B58F7D84BD09C03D
:105350008091B0008F7703C08091B0008F7D8093E3
:10536000B000E32FF0E0EE0FFF1FE15DFC4FA591D1
:10537000B4912FB7F894662321F48C9190958923EA
:1053800002C08C91892B8C932FBF089508951F9292
:105390000F920FB60F9211242F933F934F938F9339
:1053A0009F93EF93FF938091C00082FD1DC04091B9
:1053B000C60020913304309134042F5F3F4F2F7388
:1053C000307080913504909136042817390771F0B8
:1053D000E0913304F0913404ED50FC4F408330935E
:1053E00034042093330402C08091C600FF91EF91F2
:1053F0009F918F914F913F912F910F900FBE0F90E2
:105400001F901895E0918704F0918804E05CFF4FAD
:105410008191919120813181821B930B8F739070C8
:10542000892B11F00E94C62908951F920F920FB682
:105430000F9211242F933F938F939F93EF93FF939A
:1054400020917704309178048091790490917A04C6
:105450002817390731F48091C1008F7D8093C100F6
:1054600014C0E0917904F0917A04E95CFB4F20814B
:105470008091790490917A0401968F739070909343
:105480007A04809379042093C600FF91EF919F9155
:105490008F913F912F910F900FBE0F901F901895F5
:1054A000AF92BF92DF92EF92FF920F931F93CF9331
:1054B000DF93EC017A018B01DD24403081EE580747
:1054C00080E0680780E0780711F0DD24D39491E054
:1054D000A92EB12CEC89FD89DD2069F0C50108A059
:1054E00002C0880F991F0A94E2F7808360E079E098
:1054F0008DE390E005C0108260E874E88EE190E0F2
:10550000A80197010E942035215030404040504072
:10551000569547953795279580E12030380720F03C
:10552000DD2011F0DD24D6CFE889F9893083EA89BE
:10553000FB89208319A2EE89FF89408121E030E0B8
:10554000C9010C8C02C0880F991F0A94E2F7482BFE
:105550004083EE89FF894081C9010D8C02C0880F0C
:10556000991F0A94E2F7482B4083EE89FF89408116
:10557000C9010E8C02C0880F991F0A94E2F7482BCC
:105580004083EE89FF8980810F8C02C0220F331F78
:105590000A94E2F7209528232083DF91CF911F9171
:1055A0000F91FF90EF90DF90BF90AF900895DC01D6
:1055B0001C96ED91FC911D97E05CFF4F219131917C
:1055C00080819181281B390B2F733070C901089598
:1055D000DC011C96ED91FC911D97E05CFF4F208152
:1055E0003181E054F040DF01AE5BBF4F8D919C9163
:1055F00011972817390719F42FEF3FEF07C08D9146
:105600009C91E80FF91F8081282F30E0C90108958F
:10561000DC011C96ED91FC911D97E05CFF4F208111
:105620003181E054F040DF01AE5BBF4F8D919C9122
:1056300011972817390719F42FEF3FEF10C08D91FC
:105640009C911197E80FF91F20818D919C911197E2
:1056500001968F73907011969C938E9330E0C901E0
:105660000895DC0191968C919197882339F0549696
:10567000ED91FC915597808186FFF9CF91961C9210
:105680000895CF93DF93EC01EE85FF85E05CFF4F3B
:1056900020813181E054F0402F5F3F4F2F733070F5
:1056A000DF01AE5BBF4F8D919C9111972817390791
:1056B000D1F3E05CFF4F80819181E054F040E80F2E
:1056C000F91F6083EE85FF85E05CFF4F3183208307
:1056D000EE89FF89208181E090E00F8C02C0880F65
:1056E000991F0A94E2F7282B208381E089A3EC8993
:1056F000FD8980818064808381E090E0DF91CF919B
:10570000089510927E0410927D0488EE93E0A0E04C
:10571000B0E080937F0490938004A0938104B093C1
:1057200082048EEE91E090937C0480937B0483EF5F
:1057300093E0909388048093870487E394E09093A8
:105740008A048093890485EC90E090938C04809384
:105750008B0484EC90E090938E0480938D0480EC15
:1057600090E09093900480938F0481EC90E090936C
:1057700092048093910482EC90E09093940480933F
:10578000930486EC90E0909396048093950484E0D3
:105790008093970483E08093980487E08093990432
:1057A00085E080939A0481E080939B040895CF93D1
:1057B000DF930E94F8280E94F11CC2E0DAE20E9406
:1057C000E61C2097E1F30E94022AF9CFCF92DF92E4
:1057D000EF92FF920F931F93CF93DF937C016B01A6
:1057E0008A01C0E0D0E00FC0D6016D916D01D701F4
:1057F000ED91FC910190F081E02DC7010995C80F52
:10580000D91F015010400115110571F7CE01DF912C
:10581000CF911F910F91FF90EF90DF90CF9008955F
:10582000EF92FF920F931F93CF93DF937C018B0135
:10583000C0E0D0E0F8010F5F1F4F6491662359F07C
:10584000D701ED91FC910190F081E02DC701099500
:10585000C80FD91FEFCFCE01DF91CF911F910F91CC
:10586000FF90EF900895EF92FF920F931F938C019A
:10587000DC01ED91FC910190F081E02D6DE0099546
:105880007C01D801ED91FC910190F081E02DC801DF
:105890006AE009959C012E0D3F1DC9011F910F91D2
:1058A000FF90EF900895EF92FF920F931F937C016A
:1058B0000E94102C8C01C7010E94332C9C01200FE8
:1058C000311FC9011F910F91FF90EF900895CF9361
:1058D000DF93EC016115710519F420E030E00FC091
:1058E000DB010D900020E9F71197A61BB70BE881AB
:1058F000F9810280F381E02DAD0109959C01C90178
:10590000DF91CF9108954F925F927F928F929F92F5
:10591000AF92BF92CF92DF92EF92FF920F931F93BD
:10592000DF93CF93CDB7DEB7A1970FB6F894DEBF64
:105930000FBECDBF2C01742ECB01223008F42AE01B
:1059400019A231E2C32ED12CCC0EDD1E822E992459
:10595000AA24BB24672D752FA50194010E94203530
:1059600079018A01C801B701A50194010E94E234BE
:10597000472D461B0894C108D1084A3014F4405DF5
:1059800001C0495CF6014083E114F10401051105F1
:1059900021F07E2C5F2DC801DDCFC201B6010E942F
:1059A000672CA1960FB6F894DEBF0FBECDBFCF9186
:1059B000DF911F910F91FF90EF90DF90CF90BF90FC
:1059C000AF909F908F907F905F904F900895DC01F3
:1059D0002115310541F4ED91FC910190F081E02D0C
:1059E000642F099508950E94832C0895EF92FF92E9
:1059F0000F931F939A01E62EFF2400E010E0B801F8
:105A0000A7010E94E72C1F910F91FF90EF9008953E
:105A1000CF92DF92EF92FF920F931F936C01E62ECD
:105A20009A01FF2400E010E0B801A7010E94E72CD2
:105A30008C01C6010E94332C080F191FC8011F9149
:105A40000F91FF90EF90DF90CF900895CF92DF926B
:105A5000EF92FF920F931F93CF93DF93EC016A01B4
:105A60007B012115310541F4E881F9810190F08134
:105A7000E02D642F09951FC02A303105D1F477FF3E
:105A800017C0E881F9810190F081E02D6DE2099560
:105A90008C0144275527BA014C195D096E097F090D
:105AA000CE012AE00E94832C9801280F391F04C0E0
:105AB0002AE00E94832C9C01C901DF91CF911F91A4
:105AC0000F91FF90EF90DF90CF900895EF92FF92AB
:105AD0000F931F937C010E94262D8C01C7010E9409
