:100000000C94B9010C94E1010C94E1010C94E10110
:100010000C94E1010C94E1010C94E1010C94E101D8
:100020000C94E1010C94E1010C94E1010C949721F2
:100030000C94E1010C94E1010C94E1010C94E101B8
:100040000C94A4280C94E1010C94132A0C94612ABA
:100050000C94E1010C94E1010C94E1010C94E10198
:100060000C9406240C94E101000000006410B71DFC
:10007000C8206E3BAC30D9269041DC76F4516B6BD6
:100080005861B24D3C7105502083B8ED44930FF098
:10009000E8A3D6D68CB361CBB0C2649BD4D2D3864E
:1000A00078E20AA01CF2BDBD6D61784C656E677484
:1000B000683A20004669727374207761766520681B
:1000C000616C6600596F752070726F6261626C7945
:1000D00020776F6E27742067657420616E792064C5
:1000E000657461696C20696E20746869732E0020E4
:1000F000697320002C20726F7753697A653A20006B
:100100004D61782064656E7369747920666F722022
:1001100070656E53697A653A20006D6D00436861C1
:100120006E6765642050656E20776964746820741A
:100130006F20004E657720616363656C6572617442
:10014000696F6E3A20004E6577206D61782073707C
:100150006565643A200055703A2000446F776E3A26
:100160002000504753504545442C0050474C4946C9
:10017000542C005047535445504D554C5449504C05
:100180004945522C00504753544550535045525204
:1001900045562C0050474D4D5045525245562C0067
:1001A000504753495A452C002900706167654865DE
:1001B0006967687420696E20737465707320280005
:1001C000526563616C63200029007061676557693F
:1001D00064746820696E20737465707320280052FF
:1001E0006563616C6320002900292C20737465709D
:1001F000735065724D4D2028006D6D5065725374BB
:100200006570202800526563616C6320007374651B
:1002100070206D756C7469706C6965723A004C6F12
:10022000616465642000757020706F733A004C6FD4
:10023000616465642000646F776E20706F733A00AC
:100240004C6F616465642000737465707320706521
:1002500072207265763A004C6F6164656420006DAF
:100260006D5065725265763A004C6F61646564202A
:10027000006865696768743A004C6F616465642062
:100280000077696474683A004C6F616465642000AB
:10029000206E6F74207265636F676E697365642E7C
:1002A0000029206E6F74207061727365642E0043A4
:1002B0006F6D6D2028004261642053756D3A0052C5
:1002C00063643A2000504F4C4152475241504820FD
:1002D0004F4E210000000000240027002A000000EB
:1002E0000000250028002B0000000000230026004D
:1002F00029000404040404040404020202020202A9
:1003000003030303030301020408102040800102D9
:100310000408102001020408102000000007000259
:100320000100000304060000000000000000494E28
:1003300046494E4954594E414ECDCCCC3D0AD72367
:100340003C17B7D13877CC2B329595E6241FB14FA7
:100350000A000020410000C84200401C4620BCBEEC
:100360004CCA1B0E5AAEC59D74009F07A222CD2B0E
:10037000980711241FBECFEFD8E0DEBFCDBF12E03B
:10038000A0E0B1E0E8EDFEE602C005900D92A038D5
:10039000B107D9F716E0A0E8B2E001C01D92A5317F
:1003A000B107E1F713E0C0E7D3E004C02297FE01F4
:1003B0000E941937CA36D107C9F70E94232C0C9422
:1003C0005F370C940000A0E0B0E0E9EEF1E00C949F
:1003D0003037EC01A880B980CA80DB80A114B10459
:1003E000C104D10441F484E2A82E89EDB82E8BE536
:1003F000C82E87E0D82EC601B5012DE133EF41E0CC
:1004000050E00E94E83627EA31E440E050E00E94E4
:1004100088367B018C01C601B5012DE133EF41E047
:1004200050E00E94E836CA01B9012CEE34EF4FEFDC
:100430005FEF0E9488366E0D7F1D801F911F97FF12
:1004400004C06150704080409048688379838A83FB
:100450009B839B01AC015F77B901CA01CDB7DEB7C1
:10046000EAE00C944C370E94E30108958FEF91E08D
:100470000E94E30108956093FF017093000280934E
:100480000102909302020895662777270C94FA02DE
:10049000FC0188279927E89421912032E9F329303B
:1004A00010F02E30C8F32B3241F02D3239F468941D
:1004B00004C00E94F202820F911D219120532A3024
:1004C000C0F31EF4909581959F4F08951F93FC01F2
:1004D00099278827BC01E89411911032E9F319306B
:1004E00010F01E30C8F31B3251F01D3249F46894ED
:1004F00006C00E94DD02610F711D811D911D1191C9
:1005000010531A30B0F33EF4909580957095619534
:100510007F4F8F4F9F4F1F910895FB01DC0102C059
:1005200001900D9241505040D8F70895FB01DC0135
:100530008D91019080190110D9F3990B0895FB0159
:10054000DC0101900D920020E1F70895FB01DC0130
:100550004150504030F08D910190801919F40020E5
:10056000B9F7881B990B0895FB01DC0141505040FD
:1005700048F001900D920020C9F701C01D92415032
:100580005040E0F70895FB0151915523A9F0BF01B8
:10059000DC014D9145174111E1F759F4CD0101906E
:1005A000002049F04D9140154111C9F3FB01411163
:1005B000EFCF81E090E001970895592F482F372F12
:1005C000262F660F771F881F991F660F771F881FBA
:1005D000991F620F731F841F951F660F771F881F57
:1005E000991F08957AE0979F902D879F802D910DF8
:1005F00011240895A0E0B0E0E0E0F3E00C942E3781
:10060000EC015B016115710519F0FB019183808399
:10061000F9908F2D90E00E941D37892BC9F7FDE2DC
:10062000FF1621F4F990EE24E39405C02BE2F216B4
:1006300009F4F990EE248E0101501040C8016EE2D9
:1006400073E043E050E00E945A04892B01F58E01CB
:100650000E5F1F4FC80161E373E045E050E00E9468
:100660005A04892B19F48E01095F1F4FA114B1049C
:1006700019F0F50111830083E0FC04C070E090E004
:1006800080E814C070E090E080E86FEF08C1C80116
:1006900066E373E043E050E00E945A04892B69F45A
:1006A000A114B10429F470E090E080EC6FE7F7C08A
:1006B0002296F501D183C083F6CF8824992440E0A7
:1006C00050E060E070E0EF2DE053EA30A0F5F2E09A
:1006D000EF2A8E2D90E09C0128703070E2FE06C05B
:1006E000232B79F50894811C911C2BC0232B19F026
:1006F000089481089108DB01CA0112E0880F991F54
:10070000AA1FBB1F1A95D1F7480F591F6A1F7B1FDD
:10071000440F551F661F771F4E0F511D611D711D20
:10072000483929E9520729E9620729E1720748F0A7
:1007300084E0E82A06C0EE3F31F4E3FC39C098E0DB
:10074000E92AF990C0CFE53311F0E53189F5299117
:100750002D3219F4E0E1EE2A05C02B3219F081E0C8
:1007600090E003C0299182E090E0E22FE053EA306C
:1007700018F0C81BD90B1CC020E030E0FCE020388A
:100780003F075CF4C901880F991F880F991F280F34
:10079000391F220F331F2E0F311DE991E053EA302C
:1007A00068F3E4FE03C0309521953F4F820E931EFF
:1007B000CE2CDD24E1FE07C0A114B10421F0219765
:1007C000F501D183C083CB01BA010E94C1347B0102
:1007D0008C01F3E0CF22DD2423E0C216D10421F402
:1007E00017FB109517F9109557016801C801B7015B
:1007F00020E030E040E050E00E942434882309F4F7
:100800004AC097FE0DC02DE4E22E23E0F22E909414
:10081000819491089394C0E2D0E000E010E012C00F
:1008200095E6E92E93E0F92EF6CFF7012591359163
:1008300045915491C601B5010E94CC355B016C0114
:100840008C1A9D0A8C169D0684F7D595C7950F5F67
:100850001F4F0630110529F08CEF9FEFE80EF91EAF
:10086000F1CFC501D6017C018D018C2D880F8D2D16
:10087000881F8F3F51F0C601B50120E030E040E015
:1008800050E00E942434882331F482E290E0909377
:100890001406809313067E2D9F2D802F612F272F06
:1008A000392F482F562FB901CA01CDB7DEB7ECE07A
:1008B0000C944A37FB01DC014150504088F08D9187
:1008C00081341CF08B350CF4805E659161341CF032
:1008D0006B350CF4605E861B611171F3990B089502
:1008E000881BFCCFAF92BF92CF92DF92EF92FF9224
:1008F0000F931F936E157F058007910734F42E1513
:100900003F054007510764F42CC0E616F7060807B8
:10091000190794F4A216B306C406D5063CF423C006
:10092000A216B306C406D506BCF41FC02A153B05A3
:100930004C055D05C4F41BC06E157F05800791074B
:1009400091F42A153B054C055D058CF0A216B30603
:10095000C406D50644F409C02A153B054C055D05BF
:1009600011F484E005C082E003C083E001C081E0AF
:100970001F910F91FF90EF90DF90CF90BF90AF90BD
:1009800008956F927F928F929F92AF92BF92CF9273
:10099000DF92EF92FF920F931F93CF93DF937C012F
:1009A0005B01662757FD6095762FCB01BA010E9447
:1009B000C3343B014C010027F7FC0095102FC80100
:1009C000B7010E94C3347B018C01CC24B7FCC094D6
:1009D000DC2CC601B5010E94C3349B01AC01C801E7
:1009E000B7010E942834A40193010E94CC359B01D9
:1009F000AC01C401B3010E94BF337B018C010E9492
:100A00009034EB01BE01882777FD8095982F0E94D6
:100A1000C3349B01AC01C801B7010E94BF3320E081
:100A200030E040E05FE30E94C83518160CF42196D0
:100A3000CE01DF91CF911F910F91FF90EF90DF904A
:100A4000CF90BF90AF909F908F907F906F900895C0
:100A50000F931F93CF93DF93242F2627A22FB0E06D
:100A6000AF70B070AA0FBB1FAA0FBB1FC8E6D0E0C3
:100A7000AC0FBD1FFD010591159125913491E4E066
:100A80009695879577956795EA95D1F70627172765
:100A90002827392742954F70402750E04F705070FB
:100AA000440F551F440F551F4C0F5D1FFA018591D0
:100AB0009591A591B49144E03695279517950795A2
:100AC0004A95D1F7082719272A273B27B801C901DA
:100AD000DF91CF911F910F910895EF92FF920F93A5
:100AE0001F938130910509F083C16F5F7F4F09F03B
:100AF0001AC284E993E060E071E00E94FB3080E874
:100B000092E00E947D21209103023091040244274B
:100B100037FD4095542F6091090270E080E090E02D
:100B20000E9488360E94C3347B018C0160910502CB
:100B3000709106028091070290910802A801970126
:100B40000E9428346093830270938402809385020C
:100B500090938602C801B7012091050230910602E8
:100B600040910702509108020E9428347B018C01B9
:100B700060938702709388028093890290938A021F
:100B80006091190270911A02882777FD8095982F3D
:100B90000E94C334A80197010E94CC350E94903472
:100BA00060938B0270938C0280938D0290938E02DF
:100BB00060911B0270911C02882777FD8095982F09
:100BC0000E94C334A80197010E94CC350E94903442
:100BD00060938F027093900280939102909392029F
:100BE0008BE993E064E071E00E94FB3082EA93E0DD
:100BF00067E371E00E94FB3089EA93E067E371E00C
:100C00000E94FB3080EB93E067E371E00E94FB30D1
:100C100087EB93E067E371E00E94FB308EEB93E09B
:100C200066E471E00E94FB3085EC93E06CE471E0D7
:100C30000E94FB308CEC93E063E571E00E94FB3096
:100C400083ED93E06BE571E00E94FB3080EA92E077
:100C500061E671E00E94FB3087EA92E066E671E0AF
:100C60000E94FB308EEA92E069E671E00E94FB3060
:100C700085EB92E06CE671E00E94FB308AED93E038
:100C80006EEB73E00E9498318CEB92E06FE671E0BE
:100C90000E94FB3081EE93E060E771E00E94FB3040
:100CA00088EE93E062E771E00E94FB308FEE93E004
:100CB00067E771E00E94FB3086EF93E06BE771E03D
:100CC0000E94FB308DEF93E06FE771E00E94FB30F4
:100CD00084E094E063E871E00E94FB308BE094E0F4
:100CE00067E871E00E94FB3082E194E06BE871E01C
:100CF0000E94FB3089E194E06FE871E00E94FB30D4
:100D000080E294E063E971E00E94FB3087E294E0C6
:100D100067E971E00E94FB308EE294E06BE971E0DC
:100D20000E94FB3085E394E06FE971E00E94FB30A4
:100D30008CE394E063EA71E00E94FB3083E494E08A
:100D400067EA71E00E94FB308AE494E06BEA71E0AC
:100D50000E94FB3081E594E06FEA71E00E94FB3075
:100D600088E594E063EB71E00E94FB308FE594E04E
:100D700067EB71E00E94FB3086E694E06BEB71E07C
:100D80000E94FB308DE694E06FEB71E00E94FB3037
:100D900084EC92E060E60E94592760910302709112
:100DA000040284EC92E041E00E94B525909309038F
:100DB00080930803609103027091040284EC92E036
:100DC00042E00E94B52590930B0380930A038CE0C8
:100DD00093E06BE570E142E550E10E94021D80E581
:100DE00093E069E470E140E450E10E94021D9BC081
:100DF000892B09F098C06F5F7F4F09F094C08DE692
:100E000094E00E94A33186E694E00E94A3318FE52E
:100E100094E00E94A33188E594E00E94A33181E52B
:100E200094E00E94A3318AE494E00E94A33183E419
:100E300094E00E94A3318CE394E00E94A33185E307
:100E400094E00E94A3318EE294E00E94A33187E2F5
:100E500094E00E94A33180E294E00E94A33189E1F2
:100E600094E00E94A33182E194E00E94A3318BE0E0
:100E700094E00E94A33184E094E00E94A3318DEFBE
:100E800093E00E94A33186EF93E00E94A3318FEE9E
:100E900093E00E94A33188EE93E00E94A33181EE9B
:100EA00093E00E94A3318CEB92E00E94A3318AED83
:100EB00093E00E94A33185EB92E00E94A3318EEA79
:100EC00092E00E94A33187EA92E00E94A33180EA77
:100ED00092E00E94A33183ED93E00E94A3318CEC59
:100EE00093E00E94A33185EC93E00E94A3318EEB46
:100EF00093E00E94A33187EB93E00E94A33180EB43
:100F000093E00E94A33189EA93E00E94A33182EA30
:100F100093E00E94A3318BE993E00E94A33184E91E
:100F200093E00E94A3311F910F91FF90EF900895DD
:100F300080E090E06FEF7FEF0E946D05089581E003
:100F400090E06FEF7FEF0E946D050895CF92DF92E2
:100F5000EF92FF920F931F93CF93DF936C01EE24D8
:100F6000EA94FE2C8701C0E0D0E00CC0C601BE01AF
:100F70000E948F2F482FC801B7010E9428057B01CE
:100F80008C012196F60184819581C817D90770F3E9
:100F9000A80197012095309540955095B901CA0157
:100FA000DF91CF911F910F91FF90EF90DF90CF9045
:100FB0000895809115028823C1F18DEE95E063EDCF
:100FC00073E00E94082F8CE093E00E945C1B20914C
:100FD000090230E040E050E00E94E8368DEE95E0F6
:100FE000BA01A9012AE030E00E94722D8DEE95E051
:100FF00061EE73E00E94082F80E593E00E945C1B85
:101000002091090230E040E050E00E94E8368DEE89
:1010100095E0BA01A9012AE030E00E94722D8DEE20
:1010200095E068EE73E00E943B2F08958DEE95E009
:1010300065EC73E00E943B2F08958DEE95E06EEB1A
:1010400073E00E943B2F0895CF93DF93EC01AB0137
:10105000662757FD6095762F0E94F31C07C080918C
:101060001602882319F0CE010E944121CE010E9470
:101070004C1B611571058105910589F70E94EC28CB
:10108000609398027093990280939A0290939B02C6
:10109000DF91CF9108952F923F924F925F926F927E
:1010A0007F928F929F92AF92BF92CF92DF92EF92F8
:1010B000FF920F931F937B018C0159016A010E94DB
:1010C000EC28609398027093990280939A0290930F
:1010D0009B028CE093E00E94441E1B012C0180E5E2
:1010E00093E00E94441E3B014C018CE093E040E001
:1010F00050E060E070E00E94BF1D80E593E040E0BA
:1011000050E060E070E00E94BF1DC801B7010E947E
:10111000C3340E949034AB01BC018CE093E00E9488
:10112000E11CC601B5010E94C3340E949034AB019A
:10113000BC0180E593E00E94E11C809112028823AB
:1011400009F042C08CE093E00E94441E20E030E0B1
:1011500040E050E00E942434882324F457FA50944D
:1011600057F8509480E593E00E94441E20E030E060
:1011700040E050E00E942434882324F497FA9094AD
:1011800097F890948CE093E0B201A1010E94BF1DFA
:1011900080E593E0B401A3010E94BF1D15C08091BA
:1011A0001202882349F08CE093E00E94412180E5FF
:1011B00093E00E94412108C08CE093E00E941D2131
:1011C00080E593E00E941D218CE093E00E944C1B7F
:1011D000611571058105910549F480E593E00E9450
:1011E0004C1B611571058105910529F0809116024E
:1011F000882351F3D4CF0E94D9071F910F91FF90FC
:10120000EF90DF90CF90BF90AF909F908F907F90A6
:101210006F905F904F903F902F9008958F929F9284
:10122000AF92BF92CF92DF92EF92FF920F931F93F4
:10123000CF93DF935C016B01EA014901E114F104F2
:10124000C9F48DEE95E064EB70E00E949F2C8091D4
:101250002202882331F0CE0162E070E00E94B336B2
:101260002BC0CE0162E070E00E94B33670956195AC
:101270007F4F22C080912202E016F106A1F488235C
:1012800031F0CA0162E070E00E94B33608C0CA01C2
:1012900062E070E00E94B336709561957F4FC601A1
:1012A0000E9424081AC0882319F0CB01BA0105C096
:1012B00066277727641B750BC6010E942408C501A9
:1012C000B4010E94240880912202882319F0109210
:1012D000220203C081E080932202DF91CF911F910F
:1012E0000F91FF90EF90DF90CF90BF90AF909F90C5
:1012F0008F9008953F924F925F926F927F928F925C
:101300009F92AF92BF92CF92DF92EF92FF920F9394
:101310001F93DF93CF93CDB7DEB728970FB6F8941E
:10132000DEBF0FBECDBFFC012B014A01322E1416C9
:1013300015060CF08DC0BA010E94B3363B01CF01F7
:10134000B4010E94B336AA2797FDA095BA2FBC011D
:10135000CD010E94C3347B018C01B401882777FD45
:101360008095982F0E94C3349B01AC01C801B7013E
:101370000E94283469837A838B839C830F2EF0E04C
:10138000AF2EF0E0BF2EF0E0CF2EF0E0DF2EF02DFC
:1013900018861F82C30101969E838D83C601B50105
:1013A00029813A814B815C810E94C0335B016C01D1
:1013B00020E030E040E85FE30E94C83587FF02C0CC
:1013C000F3010CC0C601B50120E030E040E85FE366
:1013D0000E94BF335B016C01ED81FE8192E0391602
:1013E00029F48CE093E060E573E007C0A3E03A16CF
:1013F00039F480E593E06CE073E0A2019F0118C02E
:10140000B4E03B1649F4222733272E1B3F0B8CE018
:1014100093E060E573E00BC081E0381671F4222799
:1014200033272E1B3F0B80E593E06CE073E0A201B5
:101430008401EF80F8840E940E090E94D907AF81D1
:10144000B8851196B887AF838A169B060CF0A6CF95
:1014500028960FB6F894DEBF0FBECDBFCF91DF91B7
:101460001F910F91FF90EF90DF90CF90BF90AF90C2
:101470009F908F907F906F905F904F903F900895D6
:10148000EF92FF920F931F937C010DEE15E0C801C0
:1014900060EA72E00E94082FC80167EA72E00E94C9
:1014A000082FC801B7010E94082FC80160E972E047
:1014B0000E949F2C1F910F91FF90EF900895AF9283
:1014C000BF92CF92DF92EF92FF920F931F93CF9331
:1014D000DF935B016C01EA01BA01882777FD8095F3
:1014E000982F0E94C334209183023091840240914E
:1014F0008502509186020E94CC35A60195010E947A
:1015000028347B018C0120E030E040E050E40E9470
:10151000C83587FF03C001E010E009C0C801B7016A
:101520000E9490348B01633071050CF046C08DEE43
:1015300095E060EA72E00E94082F8DEE95E06EEA79
:1015400072E00E94082F8DEE95E060E071E00E944D
:101550005C2C8DEE95E0B601A50122E030E00E9402
:10156000DF2E8DEE95E064EF70E00E945C2C8DEE36
:1015700095E0BE014AE050E00E94C62D8DEE95E058
:101580006FEE70E00E945C2C8DEE95E0B8014AE0B1
:1015900050E00E94D92D8DEE95E060EA72E00E9445
:1015A000082F8DEE95E06EEA72E00E94082F8DEE16
:1015B00095E064EC70E00E949F2CC801DF91CF9110
:1015C0001F910F91FF90EF90DF90CF90BF90AF9061
:1015D00008952F923F924F925F926F927F928F92D7
:1015E0009F92AF92BF92CF92DF92EF92FF920F93B2
:1015F0001F93DF93CF9300D000D0CDB7DEB73B0170
:101600004C0159016A01FA82E982C80162E070E086
:101610000E94B336882777FD8095982F661A770A3F
:10162000880A990AA61AB70AC80AD90A1C821B8214
:101630001801442437FC4094542C2EC060E070E024
:1016400080E090E0A20191010E94712F7B018C014A
:1016500060E070E080E090E0A20191010E94712FB3
:101660009B01AC010027F7FC0095102FE60CF71C3E
:10167000081D191D442737FD4095542F2A0D3B1D89
:101680004C1D5D1DC801B7010E944B082B813C8198
:101690002F5F3F4F3C832B838B819C81E981FA81B3
:1016A000E817F9075CF60F900F900F900F90CF910D
:1016B000DF911F910F91FF90EF90DF90CF90BF903F
:1016C000AF909F908F907F906F905F904F903F90E2
:1016D0002F900895EF92FF920F931F93BCE0EB2E93
:1016E000B3E0FB2EC7010E945C1BAB01BC014C5F49
:1016F0005F4F6F4F7F4FC7010E94722100E513E0DB
:10170000C8010E945C1BAB01BC014C5F5F4F6F4F77
:101710007F4FC8010E947221C7010E945C1BAB0170
:10172000BC014450504060407040C7010E9472218B
:10173000C8010E945C1BAB01BC014450504060409A
:101740007040C8010E9472211F910F91FF90EF908D
:1017500008950F931F93AB01BC0140930E02509369
:101760000F0260931002709311028CE093E00E94CC
:101770004D2040910E0250910F0260911002709125
:10178000110280E593E00E944D200DEE15E0C801A6
:1017900063E371E00E945C2C40910E0250910F02B5
:1017A0006091100270911102C80122E030E00E94A5
:1017B000E22E1F910F910895CF92DF92EF92FF9248
:1017C0000F931F937C018B018BE9C82E84E0D82EE8
:1017D000C601B701F80140810E945C220894E11C17
:1017E000F11CC601B701F80141810E945C2282E030
:1017F00090E01F910F91FF90EF90DF90CF900895B0
:101800000F931F93AB01BC0140930A0250930B024C
:1018100060930C0270930D028CE093E00E94691DAE
:1018200040910A0250910B0260910C0270910D02DE
:1018300080E593E00E94691D0DEE15E0C80166E4A5
:1018400071E00E945C2C40910A0250910B02609161
:101850000C0270910D02C80122E030E00E94E22EDD
:101860001F910F910895CF92DF92EF92FF920F9305
:101870001F937C018B019BE9C92E94E0D92EC601F0
:10188000B7010E945522F80180830894E11CF11CE5
:10189000C601B7010E945522F801818382E090E0E1
:1018A0001F910F91FF90EF90DF90CF9008958AE203
:1018B00090E065E272E00E94330C809125029091E5
:1018C000260297FF06C08AE590E090932602809357
:1018D00025028DEE95E060E472E00E945C2C8DEEB6
:1018E00095E066E372E00E945C2C609125027091A5
:1018F00026028DEE95E04AE050E00E94D92D8CE260
:1019000090E067E272E00E94330C80912702909190
:10191000280297FF06C084EB90E090932802809302
:1019200027028DEE95E06EE272E00E945C2C8DEE57
:1019300095E066E272E00E945C2C60912702709153
:1019400028028DEE95E04AE050E00E94D92D0895DE
:1019500080E090E069E172E00E94330C809119020E
:1019600090911A021816190644F080912F02909156
:10197000300290931A02809319028DEE95E068E888
:1019800072E00E945C2C8DEE95E061E872E00E94AE
:101990005C2C6091190270911A028DEE95E04AE07C
:1019A00050E00E94D92D82E090E06BE172E00E944D
:1019B000330C80911B0290911C021816190644F0FA
:1019C000809131029091320290931C0280931B020D
:1019D0008DEE95E069E772E00E945C2C8DEE95E05B
:1019E00061E772E00E945C2C60911B0270911C0206
:1019F0008DEE95E04AE050E00E94D92D0895EF92D7
:101A0000FF920F931F93CF93DF93AC01EB0124E080
:101A1000E22EF12CE60EF71E8A010F5F1F4F8BE9B5
:101A200094E0BA010E9455228993A801CE15DF05E2
:101A300099F784E090E0DF91CF911F910F91FF9093
:101A4000EF90089586E190E06AE072E00E94FF0C5A
:101A500060910A0270910B0280910C0290910D022C
:101A60000E9490341616170664F080E090E0A8E417
:101A7000B4E480930A0290930B02A0930C02B093FB
:101A80000D028AE190E06EE072E00E94FF0C60912E
:101A90000E0270910F0280911002909111020E942B
:101AA00090341616170664F080E090E0A8E4B4E4E1
:101AB00080930E0290930F02A0931002B093110234
:101AC00008958EE090E065E072E00E94FF0C609166
:101AD000050270910602809107029091080220E0B1
:101AE00030E040E85FE30E942434882394F460915E
:101AF0002B0270912C02882777FD8095982F0E94E9
:101B0000C33460930502709306028093070290939A
:101B100008028DEE95E069E672E00E945C2C8DEE85
:101B200095E06FE572E00E945C2C409105025091B7
:101B3000060260910702709108028DEE95E022E0A6
:101B400030E00E94E22E82E190E063E072E00E94C9
:101B5000330C80910302909104021816190644F088
:101B600080912D0290912E029093040280930302A3
:101B70008DEE95E067E572E00E945C2C8DEE95E0BD
:101B800068E472E00E945C2C609103027091040290
:101B90008DEE95E04AE050E00E94D92D08958BE942
:101BA00094E064E170E00E9455228093090288234A
:101BB00021F480912902809309028DEE95E06EE177
:101BC00072E00E945C2C8DEE95E06DE072E00E9468
:101BD0005C2C8DEE95E0609109024AE050E00E9495
:101BE000542D0895AF92BF92CF92DF92EF92FF9261
:101BF0000F931F930E94A80C0E94610D0E94CF0DAD
:101C00000E94570C0E94220D8EE190E06EE172E07E
:101C10000E94FF0C60911E0270911F0280912002B1
:101C20009091210227E137EB41ED58E30E942434E3
:101C3000882364F48DEC9CECACE4BFE380931E023B
:101C400090931F02A0932002B0932102A09005025E
:101C5000B0900602C0900702D0900802609109027D
:101C600070E080E090E0209103023091040244276C
:101C700037FD4095542F0E9488360E94C3347B0163
:101C80008C01C601B501A80197010E942834609318
:101C90008302709384028093850290938602C80128
:101CA000B701A60195010E942834609387027093C2
:101CB00088028093890290938A028DEE95E065E018
:101CC00072E00E945C2C8DEE95E069EF71E00E945D
:101CD0005C2C409183025091840260918502709146
:101CE00086028DEE95E022E030E00E94DF2E8DEE40
:101CF00095E069EE71E00E945C2C40918702509162
:101D000088026091890270918A028DEE95E022E04E
:101D100030E00E94DF2E8DEE95E067EE71E00E94CC
:101D20005C2C8DEE95E00E947F2C609119027091E1
:101D30001A02882777FD8095982F0E94C33420913E
:101D40008702309188024091890250918A020E9454
:101D5000CC350E94903460938B0270938C028093F8
:101D60008D0290938E028DEE95E06FED71E00E94F2
:101D70005C2C8DEE95E06AEC71E00E945C2C409149
:101D80008B0250918C0260918D0270918E028DEECB
:101D900095E02AE030E00E94722D8DEE95E068EC2F
:101DA00071E00E945C2C8DEE95E00E947F2C60918A
:101DB0001B0270911C02882777FD8095982F0E9446
:101DC000C33420918702309188024091890250915A
:101DD0008A020E94CC350E94903460938F027093E7
:101DE000900280939102909392028DEE95E060ECC8
:101DF00071E00E945C2C8DEE95E06AEA71E00E9431
:101E00005C2C40918F0250919002609191027091F0
:101E100092028DEE95E02AE030E00E94722D8DEE68
:101E200095E068EA71E00E945C2C8DEE95E00E94DE
:101E30007F2C1092930210929402109295021092AD
:101E400096021F910F91FF90EF90DF90CF90BF907F
:101E5000AF900895CF93DF93C0E0D0E08BE994E09A
:101E6000BE0140E00E945C222196C233D105B1F749
:101E70000E94F20DDF91CF910895CF93DF93C0E0E0
:101E8000D0E08DEE95E0BE014AE050E00E94C62D04
:101E90008DEE95E063EC71E00E94F82D8BE994E003
:101EA000BE010E945522682F8DEE95E04AE050E079
:101EB0000E94542D2196C832D10519F7DF91CF9198
:101EC0000895CF92DF92EF92FF920F931F930E949B
:101ED0003D0F0DEE15E0C80160EA71E00E945C2C38
:101EE0006091190270911A02C8014AE050E00E9404
:101EF000C62D41EEC42E43E0D42EC801B6010E9487
:101F0000082F60911B0270911C02C8014AE050E04A
:101F10000E94C62D38EEE32E33E0F32EC801B70140
:101F20000E943B2FC80164E971E00E945C2C409143
:101F30000502509106026091070270910802C801E3
:101F400022E030E00E94DF2EC801B7010E943B2F43
:101F5000C80165E871E00E945C2C609103027091F9
:101F60000402C8014AE050E00E94C62DC801B70132
:101F70000E943B2FC80163E771E00E945C2CC801FE
:101F8000609109024AE050E00E94422DC801B70169
:101F90000E943B2FC8016BE671E00E945C2C6091AF
:101FA000250270912602C8014AE050E00E94C62D29
:101FB000C801B6010E94082F609127027091280283
:101FC000C8014AE050E00E94C62DC801B7010E9436
:101FD0003B2FC80162E671E00E945C2C40910A022E
:101FE00050910B0260910C0270910D02C80122E029
:101FF00030E00E94DF2EC801B6010E94082F4091F8
:102000000E0250910F026091100270911102C801EE
:1020100022E030E00E94DF2EC801B7010E943B2F72
:102020001F910F91FF90EF90DF90CF9008958AE875
:1020300092E09093300280932F029093320280932B
:1020400031028FE590E090932C0280932B0280E97F
:1020500091E090932E0280932D0281E090E0909386
:102060002A028093290284EC92E060E476E00E94E8
:10207000222764EF71E080E090E00E94202908951B
:1020800080910A0390910B0362E044E00E942626AF
:10209000089580910A0390910B0361E044E00E944F
:1020A00026260895809108039091090362E044E098
:1020B0000E9426260895809108039091090361E00B
:1020C00044E00E9426260895EF92FF920F931F93FB
:1020D000DF93CF93CDB7DEB7FC01EDB6FEB64481FA
:1020E00055814F5F5F4F8DB79EB7841B950B0FB621
:1020F000F8949EBF0FBE8DBF0DB71EB70F5F1F4F69
:10210000CF01B80120E030E00E940D30C8010E94EC
:1021100044020FB6F894FEBE0FBEEDBECF91DF9124
:102120001F910F91FF90EF9008954F925F926F92E1
:102130007F928F929F92AF92BF92CF92DF92EF9257
:10214000FF920F931F93DF93CF93CDB7DEB72E97F8
:102150000FB6F894DEBF0FBECDBF6E010894C11C50
:10216000D11CC60162EA73E00E949831C6010E9448
:1021700064107B018C016091090270E0882777FD73
:102180008095982F0E94C3349B01AC01C801B70110
:102190000E94CC352B013C01C6010E94A33158E0BE
:1021A000852E912C8C0E9D1EC40169EA73E00E945D
:1021B0009831C4010E9464107B018C016091090276
:1021C00070E0882777FD8095982F0E94C3349B018B
:1021D000AC01C801B7010E94CC355B016C01C401A0
:1021E0000E94A331C301B2010E9490347B018C0193
:1021F000C601B5010E9490349B01AC01C801B70132
:102200000E944B082E960FB6F894DEBF0FBECDBFCE
:10221000CF91DF911F910F91FF90EF90DF90CF90C2
:10222000BF90AF909F908F907F906F905F904F90F6
:1022300008950F931F93DF93CF93CDB7DEB7279702
:102240000FB6F894DEBF0FBECDBF8E010F5F1F4FDC
:10225000C80162EA73E00E949831C8010E946410CC
:1022600060931E0270931F028093200290932102BC
:10227000C8010E94A3310DEE15E0C8016DE171E0C7
:102280000E945C2C40911E0250911F02609120021E
:1022900070912102C80122E030E00E94DF2EC801C7
:1022A0006AE171E00E945C2CC8010E947F2C279695
:1022B0000FB6F894DEBF0FBECDBFCF91DF911F9157
:1022C0000F910895EF92FF920F931F93DF93CF9397
:1022D000CDB7DEB72B970FB6F894DEBF0FBECDBFDC
:1022E0008E010B5F1F4FC80162EA73E00E949831B4
:1022F000C8010E94641069837A838B839C83C80120
:102300000E94A3317E010894E11CF11C6EE070E094
:102310008B010F5F1F4FF70141917F018BE994E023
:102320000E945C22B8010231110591F70E94F20D62
:102330002B960FB6F894DEBF0FBECDBFCF91DF91C5
:102340001F910F91FF90EF900895EF92FF920F93DE
:102350001F93DF93CF93CDB7DEB7FC01EDB6FEB68A
:10236000448155814F5F5F4F8DB79EB7841B950B9E
:102370000FB6F8949EBF0FBE8DBF0DB71EB70F5F8F
:102380001F4FCF01B80120E030E00E940D30C8019E
:102390000E9448020FB6F894FEBE0FBEEDBECF916C
:1023A000DF911F910F91FF90EF9008953F924F9210
:1023B0005F926F927F928F929F92AF92BF92CF92D5
:1023C000DF92EF92FF920F931F93DF93CF93CDB7DE
:1023D000DEB7A4970FB6F894DEBF0FBECDBF8E0157
:1023E0000F5F1F4FC80162EA73E00E949831C80175
:1023F0000E94A511AA2797FDA095BA2F2091090246
:1024000030E040E050E0BC01CD010E9488365B0125
:10241000C8010E94A3318E01085F1F4FC80169EAFD
:1024200073E00E949831C8010E946410F62EE72ED6
:10243000D82EC92EC8010E94A3318E01015F1F4F03
:10244000C80160EB73E00E949831C8010E946410DB
:1024500069A37AA38BA39CA3C8010E94A3318E0118
:102460000A5E1F4FC80167EB73E00E949831C801F4
:102470000E9464102B013C01C8010E94A3313090DE
:102480001D0282E080931D0280911E0290911F0226
:10249000A0912002B09121028D8F9E8FAF8FB8A3A3
:1024A0002F2D3E2D4D2D5C2DC901DA016C017D01D2
:1024B000882499241EC00894811C911CC0921E027D
:1024C000D0921F02E0922002F0922102C701B601D1
:1024D000A5010E945F0AAC01C501B50122E00E947E
:1024E0007A09C701B601A30192010E94C0336B01B2
:1024F0007C01C701B60129A13AA14BA15CA10E94B0
:1025000024341816C4F68D8D9E8DAF8DB8A180939E
:102510001E0290931F02A0932002B0932102EE248A
:10252000FF24EA18FB0880E593E0B7010E94240825
:10253000C50162E070E00E94B336709561957F4FEF
:102540003B01C50162E070E00E94B3366B0101E01F
:1025500010E011C080E593E0B3010E9424088CE0F4
:1025600093E0B7010E94240880E593E0B6010E9441
:1025700024080F5F1F4F8016910664F78D8D9E8D86
:10258000AF8DB8A180931E0290931F02A0932002EA
:10259000B093210230921D02A4960FB6F894DEBFCC
:1025A0000FBECDBFCF91DF911F910F91FF90EF90A4
:1025B000DF90CF90BF90AF909F908F907F906F9063
:1025C0005F904F903F9008950F931F93DF93CF93A9
:1025D000CDB7DEB72E970FB6F894DEBF0FBECDBFD6
:1025E0008E010F5F1F4FC80162EA73E00E949831AD
:1025F000C8010E94A51180931D02C8010E94A33149
:102600008E01085F1F4FC80169EA73E00E9498318C
:10261000C8010E94A5119093240280932302C8014F
:102620000E94A3312E960FB6F894DEBF0FBECDBF29
:10263000CF91DF911F910F910895EF92FF920F9329
:102640001F93DF93CF93CDB7DEB72E970FB6F894D5
:10265000DEBF0FBECDBF8E010F5F1F4FC80162EA04
:1026600073E00E949831C8010E9464100E94A90B77
:10267000C8010E94A33180919702833041F58E01F9
:10268000085F1F4FC80169EA73E00E949831C801D2
:102690000E94A5117C01C8010E94A33181E0E816C7
:1026A000F104A9F46EE0E62E62E0F62E6AE170E035
:1026B0008B010F5F1F4FF70141917F018BE994E080
:1026C0000E945C220E31110511F0B801F1CF2E9657
:1026D0000FB6F894DEBF0FBECDBFCF91DF911F9133
:1026E0000F91FF90EF900895EF92FF920F931F9339
:1026F000DF93CF93CDB7DEB72E970FB6F894DEBF3A
:102700000FBECDBF8E010F5F1F4FC80162EA73E09D
:102710000E949831C8010E9464100E94000CC801F8
:102720000E94A33180919702833041F58E01085FAA
:102730001F4FC80169EA73E00E949831C8010E94E6
:10274000A5117C01C8010E94A33181E0E816F104C3
:10275000A9F47AE0E72E72E0F72E66E170E08B01D3
:102760000F5F1F4FF70141917F018BE994E00E94B9
:102770005C220A31110511F0B801F1CF2E960FB687
:10278000F894DEBF0FBECDBFCF91DF911F910F91A7
:10279000FF90EF9008950F931F93DF93CF93CDB7E2
:1027A000DEB729970FB6F894DEBF0FBECDBF8E01FE
:1027B0000D5F1F4FC80162EA73E00E949831C801A3
:1027C0000E94A5119A83898384E190E0BE016F5F26
:1027D0007F4F0E94DC0BC8010E94A3310E94F20DC2
:1027E00029960FB6F894DEBF0FBECDBFCF91DF9113
:1027F0001F910F9108950F931F93DF93CF93CDB740
:10280000DEB729970FB6F894DEBF0FBECDBF8E019D
:102810000D5F1F4FC80162EA73E00E949831C80142
:102820000E94A5119A838983C8010E94A33182E185
:1028300090E0BE016F5F7F4F0E94DC0B0E94F20DA3
:1028400029960FB6F894DEBF0FBECDBFCF91DF91B2
:102850001F910F9108950F931F93DF93CF93CDB7DF
:10286000DEB764970FB6F894DEBF0FBECDBF8E0102
:10287000095F1F4FC80162EA73E00E949831C801E6
:102880000E94A5119A838983C8010E94A3318E01F9
:10289000025F1F4FC80169EA73E00E949831C801C6
:1028A0000E94A5119C838B83C8010E94A33189815A
:1028B0009A819E838D8380E090E0BE016B5F7F4FA5
:1028C0000E94330C29813A818D819E818217930762
:1028D00051F02B3031053CF080E090E0BE016F5F9D
:1028E0007F4F0E94DC0B82E090E0BE016B5F7F4F68
:1028F0000E94330C2B813C818D819E81821793072E
:1029000051F02B3031053CF082E090E0BE016D5F6C
:102910007F4F0E94DC0B0E94A80C64960FB6F894BF
:10292000DEBF0FBECDBFCF91DF911F910F910895F4
:10293000EF92FF920F931F93DF93CF93CDB7DEB744
:10294000FC01EDB6FEB6448155814F5F5F4F8DB7F8
:102950009EB7841B950B0FB6F8949EBF0FBE8DBF1C
:102960000DB71EB70F5F1F4FCF01B80120E030E059
:102970000E940D30C8010E9466020FB6F894FEBE98
:102980000FBEEDBECF91DF911F910F91FF90EF90A1
:1029900008952F923F924F925F926F927F928F9203
:1029A0009F92AF92BF92CF92DF92EF92FF920F93DE
:1029B0001F93DF93CF93CDB7DEB7A0970FB6F894F0
:1029C000DEBF0FBECDBF8E010F5F1F4FC80162EA91
:1029D00073E00E949831C8010E9498142091090266
:1029E00030E040E050E00E9488366D8F7E8F8F8F00
:1029F00098A3C8010E94A3318E01085F1F4FC80130
:102A000069EA73E00E949831C8010E9498142091ED
:102A1000090230E040E050E00E9488361B012C01A2
:102A2000C8010E94A3318E01015F1F4FC80160EBF6
:102A300073E00E949831C8010E94A511AA2797FD52
:102A4000A095BA2F2091090230E040E050E0BC018F
:102A5000CD010E9488363B014C015B01C8010E94F8
:102A6000A3318E010A5E1F4FC80167EB73E00E941D
:102A70009831C8010E94A5117C01C8010E94A331B0
:102A800060911E0270911F0280912002909121029C
:102A9000A3010E945F0AAC01C7016FEF70E00E94C2
:102AA000C1047C01CC24B7FCC094DC2CC601B50168
:102AB0000E94C3342DEC3CEC4CE85FE30E94CC3523
:102AC0000E9490345B016C016D8D7E8D8F8D98A17D
:102AD000A201910185010E94E90AA0960FB6F8941F
:102AE000DEBF0FBECDBFCF91DF911F910F91FF9041
:102AF000EF90DF90CF90BF90AF909F908F907F909E
:102B00006F905F904F903F902F9008952F923F923B
:102B10004F925F926F927F928F929F92AF92BF92ED
:102B2000CF92DF92EF92FF920F931F93DF93CF9399
:102B3000CDB7DEB7A6970FB6F894DEBF0FBECDBFF8
:102B40008E010F5F1F4FC80162EA73E00E94983147
:102B5000C8010E9498142091090230E040E050E042
:102B60000E9488366BA37CA38DA39EA3C8010E94FC
:102B7000A3318E01085F1F4FC80169EA73E00E940C
:102B80009831C8010E9498142091090230E040E079
:102B900050E00E9488361B012C01C8010E94A3311D
:102BA0008E01015F1F4FC80160EB73E00E949831F6
:102BB000C8010E94A511AA2797FDA095BA2F2091C0
:102BC000090230E040E050E0BC01CD010E948836AF
:102BD0006B017C017AA369A3C8010E94A3318E0115
:102BE0000A5E1F4FC80167EB73E00E949831C8016D
:102BF0000E94A51198A38F8FC8010E94A331C6011E
:102C000062E070E00E94B3364B01CB01880F991F40
:102C100069A07AA0681A790A80911D028130C1F4F6
:102C20008CE093E00E945C1B7B018C0180E593E0CB
:102C30000E945C1B5B016C016BA17CA18DA19EA11C
:102C4000A20191010E947204809323021092240237
:102C5000209123023091240222303105F9F49401AD
:102C6000442737FD4095542FEBA0FCA00DA11EA1D9
:102C7000E21AF30A040B150BC301AA2797FDA095CE
:102C8000BA2FE80EF91E0A1F1B1F6BA07CA08DA097
:102C90009EA0620E731E841E951E3DC0233031051A
:102CA000C9F49401442737FD4095542F6201510126
:102CB000A21AB30AC40AD50AC301AA2797FDA09590
:102CC000BA2FA80EB91ECA1EDB1E220E331E441ECA
:102CD000551E32C0C401AA2797FDA095BA2FA301A3
:102CE000662757FD6095762F24303105B9F4EBA0A7
:102CF000FCA00DA11EA1E80EF91E0A1F1B1FE41A5D
:102D0000F50A060B170B6BA07CA08DA09EA0681A7D
:102D1000790A8A0A9B0A6201510114C05C016D01A3
:102D2000A20CB31CC41CD51CA41AB50AC60AD70A27
:102D3000281A390A4A0A5B0AEBA0FCA00DA11EA1C1
:102D40003701480160911E0270911F02809120029C
:102D50009091210249A15AA10E945F0AAC018F8D76
:102D600098A16FEF70E00E94C1049E8F8D8FC80103
:102D7000B701A60195010E944B088D8D9E8D02978B
:102D80004CF089A19AA1BC014D8D5E8D209123024A
:102D90000E947A09C401B301A20191010E944B086B
:102DA000A6960FB6F894DEBF0FBECDBFCF91DF91D0
:102DB0001F910F91FF90EF90DF90CF90BF90AF9059
:102DC0009F908F907F906F905F904F903F902F904B
:102DD00008958F929F92AF92BF92CF92DF92EF921F
:102DE000FF920F931F93DF93CF93CDB7DEB72E974C
:102DF0000FB6F894DEBF0FBECDBF8E010F5F1F4F21
:102E0000C80162EA73E00E949831C8010E949814D8
:102E10002091090230E040E050E00E9488364B01EA
:102E20005C01C8010E94A3318E01085F1F4FC801D9
:102E300069EA73E00E949831C8010E9498142091B9
:102E4000090230E040E050E00E9488366B017C01CE
:102E5000C8010E94A3318CE093E0B501A4010E9457
:102E6000621B80E593E0B701A6010E94621B0E94ED
:102E70006A0B0E94D9072E960FB6F894DEBF0FBEDC
:102E8000CDBFCF91DF911F910F91FF90EF90DF9019
:102E9000CF90BF90AF909F908F900895CF93DF9386
:102EA000EC016FEE73E00E947F30882319F00E94DE
:102EB00095108BC0CE0166EF73E00E947F308823AF
:102EC00019F00E94191181C0CE016FE574E00E94D3
:102ED0007F30882319F00E94741377C0CE0166E614
:102EE00074E00E947F30882319F00E941D136DC08A
:102EF000CE016BE074E00E947F30882319F00E94BD
:102F0000861563C0CE0162E174E00E947F308823A1
:102F100019F00E94C91459C0CE0169E174E00E9401
:102F20007F30882319F00E94E4124FC0CE0167E27F
:102F300074E00E947F30882319F00E94D61145C0AA
:102F4000CE016EE274E00E947F30882319F00E9467
:102F5000E9163BC0CE0165E374E00E947F30882310
:102F600019F00E942B1431C0CE0161E574E00E947B
:102F70007F30882319F00E94621127C0CE0168E5D6
:102F800074E00E947F30882319F00E94FB131DC05B
:102F9000CE016DE674E00E947F30882319F00E9414
:102FA000CB1313C0CE0163E474E00E947F3088230A
:102FB00019F00E94610F09C0CE016AE474E00E941A
:102FC0007F30882319F00E942A0F81E0DF91CF9192
:102FD0000895CF93DF93EC010E944E17882329F4C4
:102FE000CE010E94400A0E941D08DF91CF910895F2
:102FF0006F927F928F929F92AF92BF92CF92DF9209
:10300000EF92FF920F931F93DF93CF93CDB7DEB76D
:1030100027970FB6F894DEBF0FBECDBF4C01FC0161
:1030200064807580AA24BB2400E010E0EE24FF2415
:103030006E010894C11CD11C3DC0C401B7010E949F
:103040008F2F8C32A1F5C601B401A50197010E9412
:103050002E3102301105B9F0033011053CF4011591
:10306000110559F001301105C9F40AC003301105EA
:1030700069F00430110591F40CC08BE993E00BC0AA
:1030800082EA93E008C089EA93E005C080EB93E010
:1030900002C087EB93E0B6010E948131570108948A
:1030A000A11CB11C0F5F1F4FC6010E94A3310894E1
:1030B000E11CF11CE614F7040CF4BFCF0093970257
:1030C00027960FB6F894DEBF0FBECDBFCF91DF912C
:1030D0001F910F91FF90EF90DF90CF90BF90AF9036
:1030E0009F908F907F906F9008953F924F925F9244
:1030F0006F927F928F929F92AF92BF92CF92DF9208
:10310000EF92FF920F931F93DF93CF93CDB7DEB76C
:10311000C655D0400FB6F894DEBF0FBECDBF782E97
:10312000692EAA24BB2414E2812E912C8C0E9D1EA4
:1031300019C08DEE95E00E94542B182F61E070E0CD
:1031400080E090E00E942029F401EA0DFB1D10832D
:103150001A3029F48DEE95E00E947D2B0AC0089468
:10316000A11CB11C8DEE95E00E94232B18161906A8
:1031700004F3B4E24B2E512C4C0E5D1EA40CB51C76
:10318000F5011082872D962DB2010E94FB308E0131
:103190000F5F1F4FC80166EC71E00E94FB30872D66
:1031A000962DB8010E94FF2F5C01C8010E94A33137
:1031B000FFEFAF16FFEFBF0609F477C03324339457
:1031C00030927404A8E0EA2EF12CEC0EFD1EA5014D
:1031D0004F5F5F4FC701672D762D0E9475318E01BD
:1031E000015F1F4FC801B7010E949831C8010E94BA
:1031F00098146B017C01C8010E94A3318E010A5E04
:103200001F4FC801672D762D40E050E095010E94C8
:103210002E31872D962DB8010E948131C8010E9460
:10322000A3318E01035E1F4FC801672D762D0E94CA
:103230009831C8010E94A6074B015C01C8010E9499
:10324000A3318C149D04AE04BF0419F43092C30260
:1032500027C08DEE95E060EA72E00E94082F8DEEA7
:1032600095E067EA72E00E94082F8DEE95E06FEB23
:1032700072E00E945C2C8DEE95E0B2010E94F52E6A
:103280008DEE95E066EB72E00E945C2C8DEE95E091
:10329000B501A4012AE030E00E94B22D1092C302D1
:1032A000CE0108960E94A33104C0109274041092BB
:1032B000C302872D962DCA5ADF4F0FB6F894DEBF92
:1032C0000FBECDBFCF91DF911F910F91FF90EF9077
:1032D000DF90CF90BF90AF909F908F907F906F9036
:1032E0005F904F903F900895AF92BF92CF92DF9240
:1032F000EF92FF920F931F93DF93CF93CDB7DEB77B
:1033000027970FB6F894DEBF0FBECDBFB82EA92EFB
:103310000E94EC286B010B2D1A2DC8016FE671E09D
:103320000E94FB307E010894E11CF11C29C00E9420
:10333000EC286C197D09209117023091180226178C
:1033400037072CF40E941D080E94EC286B01C7016E
:103350000E947518C801B7010E948131C7010E94FF
:10336000A33180917404882359F08091C30288238B
:1033700039F40E941608C8016FE671E00E94153109
:10338000F80184819581892B91F20E94EC280E949A
:10339000EC28609398027093990280939A0290931C
:1033A0009B0260939C0270939D0280939E02909377
:1033B0009F028B2D9A2D27960FB6F894DEBF0FBE75
:1033C000CDBFCF91DF911F910F91FF90EF90DF90D4
:1033D000CF90BF90AF900895EF92FF920F931F93FD
:1033E000DF93CF93CDB7DEB727970FB6F894DEBF44
:1033F0000FBECDBF7C0168EE73E00E943A30882397
:1034000071F08E010F5F1F4FC801B7010E94983104
:10341000C8010E94F817C8010E94A33181E02796D5
:103420000FB6F894DEBF0FBECDBFCF91DF911F91D5
:103430000F91FF90EF900895CF92DF92FF920F933C
:103440001F93DF93CF93CDB7DEB72E970FB6F894C7
:10345000DEBF0FBECDBF6C018E010F5F1F4FC801D5
:10346000B6010E949831C8010E94EC19F82EC801DB
:103470000E94A331FF20C1F08E01085F1F4FC801D9
:103480006CEB72E00E949831C8010E94E917C801F4
:103490000E94A331C6016FE671E00E9415311092BF
:1034A000C3020E941D081DC08DEE95E060EA72E027
:1034B0000E94082F8DEE95E067EA72E00E94082FC7
:1034C0008DEE95E06FEA72E00E945C2C8DEE95E047
:1034D000B6010E94082F8DEE95E061EA72E00E942D
:1034E0009F2C109297022E960FB6F894DEBF0FBE57
:1034F000CDBFCF91DF911F910F91FF90DF90CF90C3
:103500000895EF92FF920F931F93DF93CF93CDB760
:10351000DEB727970FB6F894DEBF0FBECDBF8E0182
:103520000F5F1F4FC8010E9474198CEBE82E82E0D8
:10353000F82EC701B8010E948131C8010E94A33151
:10354000C7010E941C1A27960FB6F894DEBF0FBE63
:10355000CDBFCF91DF911F910F91FF90EF90089514
:10356000AF92BF92CF92DF92EF92FF920F931F9391
:103570000DEE15E0C80140E051EE60E070E00E9401
:103580009C2AC80165EC72E00E945C2CC8010E9474
:103590007F2C0E94F20D0E9417102CE0A22E23E037
:1035A000B22E40910A0250910B0260910C02709170
:1035B0000D02C5010E94691D40910E0250910F023B
:1035C0006091100270911102C5010E944D2090E59A
:1035D000C92E93E0D92E40910A0250910B026091BE
:1035E0000C0270910D02C6010E94691D40910E02ED
:1035F00050910F026091100270911102C6010E9459
:103600004D206091130270911402882777FD8095F8
:10361000982F0E94C33420910502309106024091F8
:103620000702509108020E9428347B018C016091AE
:10363000030270910402882777FD8095982F0E94DD
:10364000C3349B01AC01C801B7010E94CC350E9474
:1036500090347B018C01C501B801A7010E94621B57
:10366000C601B801A7010E94621B8AED93E06EEBD0
:1036700073E00E9481310E941D0864EF71E080E0D8
:1036800090E00E9420291F910F91FF90EF90DF9012
:10369000CF90BF90AF900895FC0127853089418974
:1036A000528983859485A585B685281B390B4A0BDD
:1036B0005B0BB901CA010895FC016385748585859A
:1036C00096850895FC0143875487658776874787E9
:1036D000508B618B728B13AA14AA15AA16AA13A277
:1036E00014A215A216A208956F927F928F929F92B4
:1036F000AF92BF92CF92DF92EF92FF920F931F9300
:10370000CF93DF93EC01AF84B888C988DA888B85C2
:103710009C85AD85BE85A81AB90ACA0ADB0A2B8921
:103720003C894D895E89CA01B9010E94CC357B0173
:103730008C012B8D3C8D4D8D5E8DCA01B9010E948F
:10374000C0339B01AC01C801B7010E9428340E941C
:1037500090349B01AC01A114B104C104D104B9F4AB
:1037600062307105810591050CF085C01BA21CA279
:103770001DA21EA280E090E0A0E0B0E08B8B9C8BAD
:10378000AD8BBE8B1BAA1CAA1DAA1EAA0BC1EBA83F
:10379000FCA80DA91EA91A141B041C041D0444F541
:1037A0001E141F041006110674F46A157B058C059F
:1037B0009D05B4F5CD5BDF4F8881C354D04088238D
:1037C00009F059C02DC0E114F1040105110509F4F7
:1037D00052C06A157B058C059D050CF04CC0CD5B75
:1037E000DF4F8881C354D040813009F044C038C0D5
:1037F0001E141F0410061106DCF488279927DC012B
:103800008A199B09AC09BD09281739074A075B07C4
:103810003CF4CD5BDF4F8881C354D040813059F5F3
:1038200088279927DC01821B930BA40BB50B1FC0C3
:10383000E114F10401051105F1F088279927DC0155
:103840008A199B09AC09BD09281739074A075B0784
:1038500094F4CD5BDF4F8881C354D040882359F462
:1038600088279927DC018E199F09A00BB10B8BAB20
:103870009CABADABBEAB6BA87CA88DA89EA8611419
:10388000710481049104A9F48FA998ADA9ADBAADD2
:103890008BAF9CAFADAFBEAFFE01ED5BFF4F1082B3
:1038A0001A141B041C041D040CF049C081E0808321
:1038B00046C0ABACBCACCDACDEACC601B50120E0C3
:1038C00030E040E050EC0E94CC357B018C01C4011B
:1038D000B3010E94C33420E030E040E850E40E948D
:1038E000CC3520E030E040E85FE30E94C0339B012C
:1038F000AC01C801B7010E9428349B01AC01C6018C
:10390000B5010E94C0337B018C016BAF7CAF8DAFE2
:103910009EAFEF96A880B980CA80DB80EF979501B3
:10392000A6010E94C835181624F4D801C701570112
:103930006D01C501D6018BAF9CAFADAFBEAF8BA9FA
:103940009CA9ADA9BEA90196A11DB11D8BAB9CABD5
:10395000ADABBEAB6BAD7CAD8DAD9EAD0E94953475
:103960006BA37CA38DA39EA360E074E284E799E43B
:103970002BAD3CAD4DAD5EAD0E9428349B01AC013A
:103980006B8B7C8B8D8B9E8BCD5BDF4F8881C35483
:10399000D040882339F4DA01C901B0588B8B9C8B55
:1039A000AD8BBE8BDF91CF911F910F91FF90EF9068
:1039B000DF90CF90BF90AF909F908F907F906F904F
:1039C0000895FC0187859089A189B289841795079C
:1039D000A607B70739F04787508B618B728BCF01F1
:1039E0000E94741B0895FC01DB01CA0143855485C4
:1039F00065857685480F591F6A1F7B1FCF010E947E
:103A0000E11C0895CF92DF92EF92FF920F931F93E4
:103A1000FC018EE492E091838083128213861486E7
:103A2000158616861786108A118A128A0F2EF0E0E4
:103A3000CF2EF0E0DF2EF0E0EF2EF0E0FF2EF02DA5
:103A4000C38AD48AE58AF68A00E010E020E83FE3E2
:103A5000078B108F218F328F038F148F258F368F16
:103A6000078F10A321A332A313A214A215A216A29A
:103A700081E090E094A783A78FEF86A717A210A6F6
:103A800011A612A6138214821582168270AB67A744
:103A900052AB41AB13AA14AA15AA16AAC7AAD0AE54
:103AA000E1AEF2AEC3AED4AEE5AEF6AEFF96019394
:103AB0001193219331931082E354F04017821086C2
:103AC000118612861F910F91FF90EF90DF90CF909B
:103AD0000895EF92FF920F931F93CF93DF93EC0122
:103AE0007A018B016F89788D898D9A8DA801970154
:103AF0000E9424348823E1F1EF8AF88E098F1A8F0F
:103B0000EF9660E074E284E799E4A80197010E94CF
:103B10002834688379838A839B83EF978BA99CA938
:103B2000ADA9BEA9181619061A061B060CF52B8995
:103B30003C894D895E89CA01B9010E94CC357B015F
:103B40008C012B8D3C8D4D8D5E8DCA01B9010E947B
:103B5000C0339B01AC01C801B7010E9428340E9408
:103B600090346BAB7CAB8DAB9EABCE010E94741BD3
:103B7000DF91CF911F910F91FF90EF9008954F9299
:103B80005F926F927F928F929F92AF92BF92CF92ED
:103B9000DF92EF92FF920F931F93CF93DF932C014D
:103BA0007A018B01CB01BA01F2012389348945895D
:103BB00056890E942434882309F455C0F201A7884D
:103BC000B08CC18CD28C3501460197FA909497F84D
:103BD0009094C801B701A40193010E942434882362
:103BE0001CF4840173010AC0C801B701A601950144
:103BF0000E94C835181614F486017501C801B70172
:103C000020E030E040E050E00E942434882331F48A
:103C1000F20113A214A215A216A220C060E074E261
:103C200084E799E4A80197010E9428349F770E94B5
:103C30009534F20163A374A385A396A3E201CD5B3F
:103C4000DF4F1882C801B70120E030E040E050E0CB
:103C50000E94C835181614F481E08883F201E38AC3
:103C6000F48A058B168BDF91CF911F910F91FF90F6
:103C7000EF90DF90CF90BF90AF909F908F907F900C
:103C80006F905F904F900895FC0123893489458996
:103C90005689B901CA010895DC0112968C911297D8
:103CA000833001F1843040F4813089F0ED91FC9152
:103CB0001197823098F407C0863011F1883049F1AD
:103CC000843079F516C00480F581E02D1FC0ED9198
:103CD000FC9111970680F781E02D18C00084F185D2
:103CE000E02D14C0ED91FC9111970284F385E02D35
:103CF0000DC0ED91FC9111970484F585E02D06C06F
:103D0000ED91FC9111970684F785E02DCD01099581
:103D10000895ED91FC9111970088F189E02DCD0176
:103D200009950895CF93DF93EC016B897C898D8988
:103D30009E8920E030E040E050E00E94C83518162F
:103D40001CF4EFA5F8A902C0E9A9FAA90995DF9129
:103D5000CF910895DC0170E063707070613071057F
:103D6000A9F0623071051CF4672B41F008956230B0
:103D70007105A1F06330710501F518C0ED91FC915A
:103D800011970190F081E02D62E00EC0ED91FC9161
:103D900011970190F081E02D63E006C0ED91FC9158
:103DA0000190F081E02D61E009950895ED91FC917D
:103DB0000190F081E02D60E009950895DC01862FE7
:103DC00063E00E94A736913071F0913018F0923084
:103DD000E9F413C0ED91FC9111970190F081E02D71
:103DE000CD0164E008C0ED91FC9111970190F08144
:103DF000E02DCD0161E009950895ED91FC911197B9
:103E00000190F081E02DCD0162E009950895DC017B
:103E100070E06370707061307105A9F062307105F7
:103E20001CF4672B41F0089562307105A1F06330F6
:103E3000710501F518C0ED91FC9111970190F08189
:103E4000E02D65E00EC0ED91FC9111970190F0819D
:103E5000E02D66E006C0ED91FC910190F081E02D2F
:103E60006AE009950895ED91FC910190F081E02DB3
:103E700069E009950895DC01862F66E00E94A73667
:103E8000923009F1933030F4992359F0913009F0D0
:103E90003FC010C0943049F19430F0F09530C1F536
:103EA0002EC0ED91FC9111970190F081E02DCD0194
:103EB00064E023C0ED91FC9111970190F081E02D19
:103EC000CD0165E01AC0ED91FC9111970190F08150
:103ED000E02DCD0161E011C0ED91FC9111970190B1
:103EE000F081E02DCD0163E008C0ED91FC911197C8
:103EF0000190F081E02DCD0162E009950895ED91EA
:103F0000FC9111970190F081E02DCD0166E00995BB
:103F10000895DC0170E0677070706330710591F195
:103F2000643071054CF461307105E1F06230710567
:103F30000CF5672B79F008956530710599F16530BE
:103F4000710544F166307105A9F16730710509F01A
:103F500040C038C0ED91FC9111970190F081E02DA7
:103F600061E02EC0ED91FC9111970190F081E02D60
:103F700065E026C0ED91FC9111970190F081E02D54
:103F800064E01EC0ED91FC9111970190F081E02D4D
:103F900066E016C0ED91FC9111970190F081E02D43
:103FA00062E00EC0ED91FC9111970190F081E02D3F
:103FB0006AE006C0ED91FC910190F081E02D68E08F
:103FC00009950895ED91FC910190F081E02D69E053
:103FD00009950895CF92DF92EF92FF920F931F936E
:103FE000CF93DF93FC012281243029F0283019F08F
:103FF00092E0D92E02C084E0D82E8F01C0E0D0E03C
:10400000E62EFF24CC24C394F8012381C7010C2E93
:1040100002C0959587950A94E2F7678180FD6C252B
:10402000822F0E94BE2921960F5F1F4FCD1560F38E
:10403000DF91CF911F910F91FF90EF90DF90CF9084
:104040000895CF93DF93EC01E881F9810190F0812D
:10405000E02DCD5BDF4F8881C354D040882311F41D
:1040600061E001C063E0CE0109958BA59CA50E948B
:104070007929E881F9810190F081E02DCD5BDF4F56
:104080008881C354D040882311F460E001C062E00D
:10409000CE010995DF91CF9108956F927F928F9213
:1040A0009F92AF92BF92CF92DF92EF92FF920F93C7
:1040B0001F93CF93DF93EC013A014B01CB01BA017F
:1040C00020E030E040E050E00E942434882309F4EE
:1040D00041C0AB8CBC8CCD8CDE8CC601B501A4017B
:1040E00093010E9424348823A9F16BA97CA98DA98E
:1040F0009EA90E94C3347B018C01C601B501A401B5
:1041000093010E9428349B01AC01C801B7010E94B1
:10411000CC350E9490346BAB7CAB8DAB9EAB60E03A
:1041200070E080E090E4A40193010E9428340E9492
:10413000333620E034E244E759E40E94CC356FABDB
:1041400078AF89AF9AAF6B8E7C8E8D8E9E8ECE01AE
:104150000E94741BDF91CF911F910F91FF90EF9000
:10416000DF90CF90BF90AF909F908F907F906F9097
:104170000895EF92FF920F931F93CF93DF93EC017B
:104180008BA19CA1ADA1BEA10097A105B10509F429
:104190004CC00E94FA287B018C012FA138A549A5AB
:1041A0005AA58BA19CA1ADA1BEA1820F931FA41FF4
:1041B000B51F82179307A407B50730F0E816F90674
:1041C0000A071B0758F405C0E816F9060A071B077B
:1041D00060F1E216F3060407150738F5CD5BDF4FF3
:1041E0008881C354D0402B853C854D855E858130C8
:1041F00029F42F5F3F4F4F4F5F4F04C02150304095
:10420000404050402B873C874D875E87E881F9818D
:104210006B8567700280F381E02DCE010995EFA2D6
:10422000F8A609A71AA781E001C080E0DF91CF912D
:104230001F910F91FF90EF900895CF93DF93FC01B2
:10424000278530894189528983859485A585B685DE
:10425000281739074A075B0711F480E00FC0EF0108
:10426000CD5BDF4F82179307A407B5071CF481E0ED
:10427000888301C01882CF010E94B920DF91CF91BD
:104280000895CF93DF93EC010E94B920882319F0A1
:10429000CE010E94741B81E0DF91CF910895CF93EE
:1042A000DF93EC016B897C898D899E8920E030E069
:1042B00040E050E00E942434882369F42F85388937
:1042C00049895A898B859C85AD85BE852817390714
:1042D0004A075B0721F0CE010E944121E3CFDF9125
:1042E000CF9108950F931F938C010E94E11CC80188
:1042F0000E944F211F910F910895FC018091750438
:104300008C3090F482838F5F80937504815090E0AD
:10431000FC01EE0FFF1FE80FF91FEA58FB4F88EB77
:104320009BE09283818308958FEF828308951F928B
:104330000F920FB60F9211242F933F934F935F93D9
:104340006F937F938F939F93AF93BF93EF93FF935D
:1043500080919A0487FF05C0109285001092840016
:104360002BC020919A04332727FD30958091750446
:1043700090E02817390704F580919A04992787FD62
:104380009095FC01EE0FFF1FE80FF91FEA58FB4F55
:10439000808186FF11C080919A04992787FD9095AE
:1043A000FC01EE0FFF1FE80FF91FEA58FB4F808159
:1043B0008F7360E00E94BE2980919A048F5F809382
:1043C0009A0420919A04332727FD30958091750433
:1043D00090E0281739070CF04EC080919A048C3079
:1043E0000CF049C0209184003091850080919A049E
:1043F000992787FD9095FC01EE0FFF1FE80FF91F2D
:10440000EA58FB4F81819281280F391F3093890030
:104410002093880080919A04992787FD9095FC014C
:10442000EE0FFF1FE80FF91FEA58FB4F808186FF50
:104430002BC080919A04992787FD9095FC01EE0F7F
:10444000FF1FE80FF91FEA58FB4F80818F7361E06F
:104450000E94BE2919C080E49CE905C080918400B7
:1044600090918500049690938900809388008FEF47
:1044700080939A0409C080918400909185000496ED
:1044800080549C4940F3EACFFF91EF91BF91AF91E7
:104490009F918F917F916F915F914F913F912F915C
:1044A0000F900FBE0F901F901895F999FECF72BD17
:1044B00061BDF89A80B50895F999FECF1FBA72BD13
:1044C00061BD40BD0FB6F894FA9AF99A0FBE0895EF
:1044D00081E08093E1046093BE041092DF041092A7
:1044E000E00408952091BD0430E08091BC04281BB5
:1044F0003109C90108954091BC048091BD04481759
:1045000018F02FEF3FEF0AC0E42FF0E0E456FB4F26
:104510008081282F30E04F5F4093BC04C90108958B
:10452000E091BC048091BD04E81718F0EFEFFFEFB5
:1045300006C0F0E0E456FB4F8081E82FF0E0CF01A9
:10454000089508951092E5041092E40488EE93E033
:10455000A0E0B0E08093E6049093E704A093E80421
:10456000B093E90484E692E09093E3048093E2043C
:104570000895CF92DF92EF92FF920F931F93CF9304
:10458000DF937C016B018A018091E1048823A1F013
:10459000C0E0D0E00DC0D701ED91FC91D601AC0F89
:1045A000BD1F0190F081E02DC7016C910995219606
:1045B000C017D10780F304C0CB01642F0E94EB2306
:1045C000C801DF91CF911F910F91FF90EF90DF9085
:1045D000CF900895DF93CF930F92CDB7DEB7FC0154
:1045E00069838091E1048823C9F08091E0048032DE
:1045F00038F081E090E09383828320E030E015C0C2
:104600008091DF04E82FF0E0E154FB4F9981908323
:104610008F5F8093DF048093E00405C0CE01019694
:1046200061E00E94EB2321E030E0C9010F90CF91BF
:10463000DF9108950F93062F8091BE046FEB74E015
:104640004091E00421E00E9496231092DF04109232
:10465000E0041092E1040F91089561E00E941A2392
:104660000895413208F040E2862F6CE974E00E9420
:104670004D231092BC048093BD04089521E00E9454
:10468000312308951092BC041092BD041092DF04EF
:104690001092E0040E9497250895382F413210F0BF
:1046A00040E042C08091EE048823E1F791E09093CE
:1046B000EE042093F0048FEF80935B0510921605B3
:1046C0004150409317054F5F9093EF048091EF04A2
:1046D000330F832B8093EF048091F104813041F4F8
:1046E0001092F1048091EF048093BB0085EC01C02F
:1046F00085EE8093BC008091EE048130E1F38091DF
:104700001605841710F44091160520E030E00AC029
:10471000FB01E20FF31FD901AA50BB4F8C9180839C
:104720002F5F3F4F2417A0F3842F08950F931F93FB
:10473000582F122F413210F081E04AC08091EE04D0
:104740008823E1F782E08093EE040093F0048FEF7A
:1047500080935B051092160540931705A6EFB4E011
:10476000FB0102C081918D938E2F861B8417D0F39D
:104770001092EF048091EF04550F852B8093EF0486
:104780008091F104813041F41092F1048091EF04A2
:104790008093BB0085EC01C085EE8093BC001123A3
:1047A00021F08091EE048230E1F380915B058F3F30
:1047B00011F480E00DC080915B05803211F482E03D
:1047C00007C080915B05803311F084E001C083E075
:1047D0001F910F910895482F613210F081E00895E4
:1047E0008091EE04843011F082E0089560933905E1
:1047F000A8E1B5E0842F9C01F90102C081918D935D
:104800008E2F841B8617D0F380E008951F920F929D
:104810000FB60F9211242F933F934F935F936F9393
:104820007F938F939F93AF93BF93EF93FF93809169
:10483000B90090E0887F90708036910509F4F2C04D
:1048400081369105CCF58832910509F47BC0893217
:104850009105B4F48031910509F46FC0813191055F
:104860003CF4009709F447C1089709F04FC165C0AF
:104870008831910509F466C0809709F047C182C06C
:104880008034910509F4A4C08134910544F4803347
:10489000910509F482C0C89709F038C189C08035F4
:1048A000910509F489C08835910509F496C08834CA
:1048B000910509F02BC1AEC08839910509F413C1E7
:1048C00089399105ECF48837910509F4ABC0893733
:1048D00091054CF48836910509F4A4C08037910500
:1048E00009F014C19FC08838910509F4FCC08039D3
:1048F000910509F49DC08038910509F007C198C061
:10490000803B910509F4C6C0813B91054CF4803A87
:10491000910509F49FC0883A910509F0F7C0BAC023
:10492000803C910509F4E3C0883C910509F4DFC09F
:10493000883B910509F0EAC0C2C08091EF048093E2
:10494000BB00CFC09091160580911705981768F4A9
:1049500090911605E92FF0E0EA50FB4F808180939B
:10496000BB009F5F90931605BCC08091F004882324
:1049700009F44BC085ED8093BC008091BC0084FDA0
:10498000FCCFC2C080E280935B0585ED8093BC00C4
:104990008091BC0084FDFCCFB7C080E380935B05B1
:1049A00085ED8093BC008091BC0084FDFCCFACC041
:1049B00088E380935B059BC0809116059091BB00B6
:1049C000E82FF0E0EA50FB4F90838F5F809316054D
:1049D000909116058091170582C0809116059091DF
:1049E000BB00E82FF0E0EA50FB4F90838F5F80938D
:1049F00016058091F004882341F085ED8093BC007A
:104A00008091BC0084FDFCCF7FC081E08093F104E5
:104A100084EA6EC085ED8093BC008091BC0084FD6B
:104A2000FCCF72C083E08093EE0410925A0559C007
:104A300080915A05803208F056C080915A059091B5
:104A4000BB00E82FF0E0E65CFA4F90838F5F809325
:104A50005A0547C080915A05803230F4E0915A05DA
:104A6000F0E0E65CFA4F108285ED8093BC00809107
:104A7000BC0084FDFCCF1092EE0460915A05E091D9
:104A8000F404F091F5048AE395E070E00995109242
:104A90005A052DC084E08093EE04109238051092E0
:104AA0003905E091F204F091F304099580913905FC
:104AB000882329F481E0809339051092180590919C
:104AC0003805E92FF0E0E85EFA4F80818093BB0063
:104AD0009F5F90933805909138058091390598171C
:104AE00010F485EC01C085E88093BC000FC085EC14
:104AF0008093BC0009C010925B0585ED8093BC00DB
:104B00008091BC0084FDFCCF1092EE04FF91EF91E8
:104B1000BF91AF919F918F917F916F915F914F91D5
:104B20003F912F910F900FBE0F901F9018951092EC
:104B3000EE0481E08093F0041092F10482E161E0E0
:104B40000E94BE2983E161E00E94BE29E9EBF0E00A
:104B500080818E7F808380818D7F80838CE08093B5
:104B6000B80085E48093BC0008950F931F93DC0187
:104B70009B01433018F020E030E045C04150642FE5
:104B800070E084E190E0689FF001699FF00D789FEC
:104B9000F00D1124EA0FFB1F86A5882339F546A7DF
:104BA00032A721A7B5A7A4A7442339F408E01DE044
:104BB0005AE049E03BE02CE008C0413031F402E02B
:104BC00017E054E043E035E026E084E190E0689FA0
:104BD000F001699FF00D789FF00D1124EA0FFB1F83
:104BE00003A316A354A345A337A320A784E190E011
:104BF000689F9001699F300D789F300D1124255ECC
:104C00003F4F2A0F3B1FC9011F910F9108958D5BE4
:104C10009F4F442319F440E050E002C040E050E1CF
:104C200020E030E00E94C62708959A018D5B9F4FD7
:104C300040E12030340728F040E050E120E030E04F
:104C400002C040E050E00E94C62708950F931F93D2
:104C5000CF93DF93EC01042F413041F49889892FE1
:104C600086958695869580FF0AC012C0423069F409
:104C70009889892F86958695869580FF09C0613031
:104C800011F4905F08C0905106C0433041F49889F8
:104C9000613019F4985F988B48C09850FCCF44302D
:104CA00009F043C09889613011F49F5F01C09150B1
:104CB000988BA889AF73A88BA03148F4B0E0E3E4E7
:104CC000F2E0EA1BFB0B4081AD5CBD4F19C08A2F9F
:104CD0008051803148F48A2F90E0FC01ED5DFD4F5A
:104CE0004081E3E5F2E01DC08A2F8052803150F40C
:104CF000B0E0E3E6F2E0EA1BFB0B4081AD5EBD4FA6
:104D00001C9115C08A2F8053803118F010E040E0CC
:104D10000EC08A2F90E0FC01ED5FFD4F4081E3E77C
:104D2000F2E0E81BF90B108102C01FEF4FEF8889FA
:104D30008F73888B50E024E0440F551F2A95E1F7CC
:104D400089899A8968850E941526412F50E094E050
:104D5000440F551F9A95E1F789899A896B850E94BE
:104D6000152698890430A1F4903110F423E001C095
:104D700020E0892F8051803108F42660892F8052ED
:104D8000803108F42C609053903148F5296027C099
:104D9000892F8695869586958330C1F0843028F4D6
:104DA000813081F0823080F409C0853099F08530FF
:104DB00078F0863089F0873019F410C021E00FC0F8
:104DC00020E00DC023E00BC022E009C026E007C0B0
:104DD00024E005C02CE003C028E001C029E0122F28
:104DE00089899A8920FF03C06A8541E002C06A85EB
:104DF00040E00E94072689899A8911FF03C06C85CB
:104E000041E002C06C8540E00E94072689899A89AA
:104E100012FF03C0698541E002C0698540E00E943D
:104E2000072689899A8913FF03C06D8541E002C076
:104E30006D8540E00E9407268889DF91CF911F9100
:104E40000F910895CF92DF92EF92FF920F931F93ED
:104E5000CF93DF938C016B0182EE94E00E9442239A
:104E6000E801CD5BDF4FCE010E949728F801D28286
:104E7000C182EE24FF24C701B6010E94C134AB01F8
:104E8000BC01CE010E94292800E0CE01602F40E045
:104E900050E020E030E00E94C6270F5F0031A9F704
:104EA000DF91CF911F910F91FF90EF90DF90CF9006
:104EB0000895DF92EF92FF920F931F93DF93CF93AA
:104EC0000F92CDB7DEB77C01D62EFC01339680E081
:104ED00090E014821382158212821182108206964B
:104EE000369688319105A9F7F70113A616A612A6E2
:104EF00011A617AE82E490E0E80EF91EF7011082C9
:104F00008EEB9FEFE80EF91EF70116AE15AE870186
:104F10000D5B1F4FC80160E40E94A127F701D082FA
:104F2000CE0101966D2D0E94A1278981F801808311
:104F30000F90CF91DF911F910F91FF90EF90DF9035
:104F40000895FC0160830895EF92FF920F931F93E1
:104F5000FC01F62EE42E02EE14E0C80160810E94EE
:104F60006822C8016F2D0E94EA22C8016E2D0E949E
:104F7000EA22C8010E942D231F910F91FF90EF900C
:104F8000089560E040E00E94A4270895AF92BF9288
:104F9000CF92DF92EF92FF920F931F93FC01062FA7
:104FA000D42EC52EB22EA32E92EEE92E94E0F92E29
:104FB000C70160810E94682210E0000F111F000FDE
:104FC000111F0A5F1F4FC701602F0E94EA22C7010D
:104FD0006D2D0E94EA22C7016C2D0E94EA22C701B2
:104FE0006B2D0E94EA22C7016A2D0E94EA22C701A6
:104FF0000E942D231F910F91FF90EF90DF90CF9093
:10500000BF90AF900895DF92EF92FF920F931F939E
:105010008C01D62E22EEE22E24E0F22EC701F801FA
:1050200060810E946822C7016D2D0E94EA22C7019B
:105030000E942D23C701F801608141E00E943E23B8
:10504000C7010E947B221F910F91FF90EF90DF908C
:105050000895AF92BF92CF92DF92EF92FF920F939B
:105060001F935C019A01AB0160E27CEB8EEB95E44F
:105070000E94283420E030E040E85FE30E94BF3324
:105080007B018C013DEEC32E35E0D32EC60168ECCA
:1050900071E00E94F82DC601B801A70122E030E0BE
:1050A0000E94E22EC801B70120E030E040E05FE35B
:1050B0000E94C0330E94FE340E9495347B018C0113
:1050C000C6016EED71E00E94F82DC6016E2D4AE01A
:1050D00050E00E94542DC50160E00E940328D82EA4
:1050E000482F4F764061C50160E00E94A427C501AA
:1050F0006EEF4E2D0E94A427C50160E04D2D0E9449
:10510000A42765E070E080E090E00E94202981EA19
:10511000D82AC50160E04D2D0E94A4271F910F9150
:10512000FF90EF90DF90CF90BF90AF9008950F93D6
:105130001F938C0182EE94E00E944223C8010E94DA
:10514000C1271F910F9108951F920F920FB60F92D2
:1051500011242F933F938F939F93AF93BF9380918D
:10516000600590916105A0916205B0916305309151
:1051700064050196A11DB11D232F2D5F2D3720F051
:105180002D570196A11DB11D2093640580936005E4
:1051900090936105A0936205B093630580915C05CF
:1051A00090915D05A0915E05B0915F050196A11DEE
:1051B000B11D80935C0590935D05A0935E05B0934F
:1051C0005F05BF91AF919F918F913F912F910F906C
:1051D0000FBE0F901F9018958FB7F894209160051F
:1051E0003091610540916205509163058FBFB9010F
:1051F000CA0108959FB7F89420915C0530915D0530
:1052000040915E0550915F0586B5A89B06C08F3F13
:1052100021F02F5F3F4F4F4F5F4F9FBF542F432FC2
:10522000322F2227280F311D411D511D82E0220FF0
:10523000331F441F551F8A95D1F7B901CA0108953C
:105240009B01AC017FB7F89480915C0590915D055E
:10525000A0915E05B0915F0566B5A89B05C06F3F44
:1052600019F00196A11DB11D7FBFBA2FA92F982F4C
:105270008827860F911DA11DB11D62E0880F991F1F
:10528000AA1FBB1F6A95D1F7BC012DC0FFB7F894C8
:1052900080915C0590915D05A0915E05B0915F05E0
:1052A000E6B5A89B05C0EF3F19F00196A11DB11D01
:1052B000FFBFBA2FA92F982F88278E0F911DA11DF0
:1052C000B11DE2E0880F991FAA1FBB1FEA95D1F715
:1052D000861B970B885E9340C8F2215030404040B7
:1052E000504068517C4F211531054105510571F63B
:1052F0000895019739F0880F991F880F991F029719
:105300000197F1F70895789484B5826084BD84B5DF
:10531000816084BD85B5826085BD85B5816085BDB0
:10532000EEE6F0E0808181608083E1E8F0E01082C9
:10533000808182608083808181608083E0E8F0E00A
:10534000808181608083E1EBF0E0808184608083F4
:10535000E0EBF0E0808181608083EAE7F0E080812B
:10536000846080838081826080838081816080838B
:105370008081806880831092C1000895482F50E09A
:10538000CA01865E9C4FFC012491CA018A5F9C4F32
:10539000FC0194914E505D4FFA013491332309F48E
:1053A00040C0222351F1233071F0243028F4213001
:1053B000A1F0223011F514C02630B1F02730C1F031
:1053C0002430D9F404C0809180008F7703C080918D
:1053D00080008F7D8093800010C084B58F7702C0DD
:1053E00084B58F7D84BD09C08091B0008F7703C0E4
:1053F0008091B0008F7D8093B000E32FF0E0EE0F3E
:10540000FF1FE252FD4FA591B4912FB7F894662388
:1054100021F48C919095892302C08C91892B8C93D7
:105420002FBF089508951F920F920FB60F92112467
:105430002F933F934F938F939F93EF93FF9380917D
:10544000C00082FD1DC04091C6002091A50530918D
:10545000A6052F5F3F4F2F7330708091A705909165
:10546000A8052817390771F0E091A505F091A60568
:10547000EB59FA4F40833093A6052093A50502C04F
:105480008091C600FF91EF919F918F914F913F9135
:105490002F910F900FBE0F901F901895E091F90576
:1054A000F091FA05E05CFF4F81919191208131816B
:1054B000821B930B8F739070892B11F00E94122A1C
:1054C00008951F920F920FB60F9211242F933F93BE
:1054D0008F939F93EF93FF932091E9053091EA0515
:1054E0008091EB059091EC052817390731F48091F4
:1054F000C1008F7D8093C10014C0E091EB05F09155
:10550000EC05E755FA4F20818091EB059091EC0571
:1055100001968F7390709093EC058093EB05209328
:10552000C600FF91EF919F918F913F912F910F9026
:105530000FBE0F901F901895AF92BF92DF92EF921F
:10554000FF920F931F93CF93DF93EC017A018B01AE
:10555000DD24403081EE580780E0680780E078075E
:1055600011F0DD24D39491E0A92EB12CEC89FD89B2
:10557000DD2069F0C50108A002C0880F991F0A94B8
:10558000E2F7808360E079E08DE390E005C010826F
:1055900060E874E88EE190E0A80197010E94C636A9
:1055A00021503040404050405695479537952795BB
:1055B00080E12030380720F0DD2011F0DD24D6CF47
:1055C000E889F9893083EA89FB89208319A2EE8969
:1055D000FF89408121E030E0C9010C8C02C0880FB6
:1055E000991F0A94E2F7482B4083EE89FF89408196
:1055F000C9010D8C02C0880F991F0A94E2F7482B4D
:105600004083EE89FF894081C9010E8C02C0880F5A
:10561000991F0A94E2F7482B4083EE89FF89808125
:105620000F8C02C0220F331F0A94E2F72095282323
:105630002083DF91CF911F910F91FF90EF90DF902A
:10564000BF90AF900895DC011C96ED91FC911D97E1
:10565000E05CFF4F2191319180819181281B390BB2
:105660002F733070C9010895DC011C96ED91FC91F7
:105670001D97E05CFF4F20813181E054F040DF0155
:10568000AE5BBF4F8D919C9111972817390719F484
:105690002FEF3FEF07C08D919C91E80FF91F80819C
:1056A000282F30E0C9010895DC011C96ED91FC9192
:1056B0001D97E05CFF4F20813181E054F040DF0115
:1056C000AE5BBF4F8D919C9111972817390719F444
:1056D0002FEF3FEF10C08D919C911197E80FF91FAC
:1056E00020818D919C91119701968F7390701196E6
:1056F0009C938E9330E0C9010895DC0191968C91C2
:105700009197882339F05496ED91FC9155978081BB
:1057100086FFF9CF91961C920895CF93DF93EC0109
:10572000EE85FF85E05CFF4F20813181E054F04041
:105730002F5F3F4F2F733070DF01AE5BBF4F8D91F6
:105740009C91119728173907D1F3E05CFF4F8081B6
:105750009181E054F040E80FF91F6083EE85FF85EA
:10576000E05CFF4F31832083EE89FF89208181E057
:1057700090E00F8C02C0880F991F0A94E2F7282B43
:10578000208381E089A3EC89FD8980818064808306
:1057900081E090E0DF91CF9108951092F005109292
:1057A000EF0588EE93E0A0E0B0E08093F1059093E0
:1057B000F205A093F305B093F40584E792E090938B
:1057C000EE058093ED0585E695E09093FA058093CC
:1057D000F90589EA95E09093FC058093FB0585EC3B
:1057E00090E09093FE058093FD0584EC90E090930B
:1057F00000068093FF0580EC90E090930206809372
:10580000010681EC90E0909304068093030682ECFD
:1058100090E0909306068093050686EC90E09093C6
:1058200008068093070684E08093090683E080934E
:105830000A0687E080930B0685E080930C0681E0E2
:1058400080930D060895CF93DF930E9483290E94D1
:10585000B01ACEE4DAE20E94811A2097E1F30E94A6
:105860004E2AF9CFCF92DF92EF92FF920F931F93C0
:10587000CF93DF937C016B018A01C0E0D0E00FC0C1
:10588000D6016D916D01D701ED91FC910190F081F0
:10589000E02DC7010995C80FD91F0150104001150F
:1058A000110571F7CE01DF91CF911F910F91FF90FC
:1058B000EF90DF90CF900895EF92FF920F931F9398
:1058C000CF93DF937C018B01C0E0D0E0F8010F5F44
:1058D0001F4F6491662359F0D701ED91FC9101901F
:1058E000F081E02DC7010995C80FD91FEFCFCE0178
:1058F000DF91CF911F910F91FF90EF900895EF925C
:10590000FF920F931F938C01DC01ED91FC910190AC
:10591000F081E02D6DE009957C01D801ED91FC91BD
:105920000190F081E02DC8016AE009959C012E0DDF
:105930003F1DC9011F910F91FF90EF900895EF92C5
:10594000FF920F931F937C010E945C2C8C01C70176
:105950000E947F2C9C01200F311FC9011F910F91C4
:10596000FF90EF900895CF93DF93EC0161157105DF
:1059700019F420E030E00FC0DB010D900020E9F7C2
:105980001197A61BB70BE881F9810280F381E02D06
:10599000AD0109959C01C901DF91CF9108954F9206
:1059A0005F927F928F929F92AF92BF92CF92DF923F
:1059B000EF92FF920F931F93DF93CF93CDB7DEB794
:1059C000A1970FB6F894DEBF0FBECDBF2C01742E89
:1059D000CB01223008F42AE019A231E2C32ED12CE7
:1059E000CC0EDD1E822E9924AA24BB24672D752F90
:1059F000A50194010E94C63679018A01C801B70148
:105A0000A50194010E948836472D461B0894C108C1
:105A1000D1084A3014F4405D01C0495CF60140836E
:105A2000E114F1040105110521F07E2C5F2DC80160
:105A3000DDCFC201B6010E94B32CA1960FB6F89437
:105A4000DEBF0FBECDBFCF91DF911F910F91FF90B1
:105A5000EF90DF90CF90BF90AF909F908F907F900E
:105A60005F904F900895DC012115310541F4ED91CF
:105A7000FC910190F081E02D642F099508950E941A
:105A8000CF2C0895EF92FF920F931F939A01E62E69
:105A9000FF2400E010E0B801A7010E94332D1F9100
:105AA0000F91FF90EF900895CF92DF92EF92FF92C7
:105AB0000F931F936C01E62E9A01FF2400E010E083
:105AC000B801A7010E94332D8C01C6010E947F2CD2
:105AD000080F191FC8011F910F91FF90EF90DF90E1
