:100000000C94D2010C94FA010C94FA010C94FA01AC
:100010000C94FA010C94FA010C94FA010C94FA0174
:100020000C94FA010C94FA010C94FA010C946522D8
:100030000C94FA010C94FA010C94FA010C94FA0154
:100040000C9467240C94FA010C942B270C945D27D4
:100050000C94FA010C94FA010C94FA010C94FA0134
:100060000C94FA010C94FA01C61BB21BB71BB61B09
:10007000BB1BBF1BC11BC51BE61BED1BF41BFB1BE6
:10008000021C191C091C191C101C891C8D1C911C9C
:10009000951C991C9D1CA11C6D61784C656E677444
:1000A000683A20004669727374207761766520682B
:1000B000616C66004D53472C492C596F7520707246
:1000C0006F6261626C7920776F6E27742067657448
:1000D00020616E792064657461696C20696E20749A
:1000E0006869732E0020697320002C20726F77538B
:1000F000697A653A20004D53472C492C4D61782090
:1001000064656E7369747920666F722070656E53D2
:10011000697A653A2000506F776572696E6720646E
:100120006F776E2E004C696E65206973206E6F7458
:10013000206F6E2074686520706167652E20536B98
:10014000697070696E672069742E00546869732045
:10015000706F696E742066616C6C73206F75747358
:10016000696465207468652061726561206F66202E
:1001700074686973206D616368696E652E20536BC6
:10018000697070696E672069742E006D6D00436838
:10019000616E6765642050656E20776964746820BD
:1001A000746F20004E657720616363656C3A2000B0
:1001B0004E6577206D61782073706565643A200024
:1001C000504753504545442C0050474C4946542C09
:1001D000005047535445504D554C5449504C494597
:1001E000522C005047535445505350455252455697
:1001F0002C0050474D4D5045525245562C0050470B
:1002000053495A452C002900706167654865696744
:10021000687420696E2073746570732028005265BD
:1002200063616C6320002900526563616C63207018
:10023000616765576964746820696E2073746570BE
:10024000732028002900292C207374657073506571
:10025000724D4D202800526563616C63206D6D50B6
:100260006572537465702028004C6F61646564206A
:1002700073746570206D756C7469706C6965723A21
:10028000004C6F6164656420757020706F733A0074
:100290004C6F6164656420646F776E20706F733A91
:1002A000004C6F61646564207374657073207065C1
:1002B00072207265763A004C6F61646564206D6DE2
:1002C0005065725265763A004C6F616465642068CF
:1002D00065696768743A004C6F616465642077698A
:1002E0006474683A00206E6F74207265636F676E85
:1002F000697365642E0052454144590029206E6F90
:1003000074207061727365642E00436F6D6D2028D8
:1003100000000000080002010000030407000000C4
:1003200000000000000102040810204080010204C7
:10033000081020010204081020040404040404042A
:10034000040202020202020303030303030000008B
:1003500000250028002B0000000000240027002AB0
:10036000004E414E494E495459494E46CDCCCC3DA4
:100370000AD7233C17B7D13877CC2B329595E62492
:100380001FB14F0A000020410000C84200401C4637
:1003900020BCBE4CCA1B0E5AAEC59D74880DD51B21
:1003A0008D27660E11241FBECFEFD8E0DEBFCDBF74
:1003B00012E0A0E0B1E0E2EDF7E602C005900D9298
:1003C000AA32B107D9F724E0AAE2B2E001C01D9237
:1003D000A03BB207E1F713E0C2EAD3E004C02297E2
:1003E000FE010E94A72ECC39D107C9F70E94AE2B7F
:1003F0000C94DC330C94000043E061E080EC92E06C
:100400000C94001B43E062E080EC92E00C94001B33
:1004100043E061E084EB92E00C94001B43E062E077
:1004200084EB92E00C94001BCF92DF92EF92FF924C
:100430000F931F93CF93DF93CDB7DEB7BC01EDB61B
:10044000FEB6FC0101900020E9F73197E81BF90B9B
:100450008DB79EB78E1B9F0B0FB6F8949EBF0FBE35
:100460008DBF0DB71EB70F5F1F4FC8010E94963199
:100470006CEE71E0C8010E947F318C011092A603DE
:100480001092980310928A0310927C03D12CC12CF5
:10049000D11004C0B80184EB93E03CC06CEE71E075
:1004A00080E090E00E947F318C01009741F0BC0118
:1004B00087EE91E00E94AB31892B09F4C39492E05E
:1004C000D916A1F09D1520F081E0D81641F024C086
:1004D00093E0D91691F084E0D816B1F01DC0011553
:1004E0001105D1F0B80186EA93E014C00115110599
:1004F00099F0B80188E993E00DC00115110561F08C
:10050000B8018AE893E006C00115110529F0B80189
:100510008CE793E00E949631D39496E0D912B8CF3D
:10052000C0927B030FB6F894FEBE0FBEEDBEDF9106
:10053000CF911F910F91FF90EF90DF90CF90089592
:10054000CF93DF93EC0167EE71E00E94AB31FC01C9
:10055000148267EE71E00E948D31892B29F4CE015F
:100560000E94140281E001C080E0DF91CF910895E4
:1005700066EF72E08DE094E00C944C28CF93DF930B
:10058000EC0161E171E08DE094E00E943F28BE0142
:100590008DE094E00E94312865EE72E08DE094E0F9
:1005A000DF91CF910C944C288F929F92AF92BF9283
:1005B000CF92DF92EF92FF928090390190903A01B2
:1005C000A0903B01B0903C01A0913D01B0913E0153
:1005D0002091380130E00E94BA2E0E94C22C6B019B
:1005E0007C019B01AC01C501B4010E94272C6093E2
:1005F000CE037093CF038093D0039093D103A501D2
:100600009401C701B6010E94272C6093CA0370931E
:10061000CB038093CC039093CD0364EF71E080E033
:1006200090E0FF90EF90DF90CF90BF90AF909F90C1
:100630008F900C94E024CF93DF93C0E0D0E04AE0A9
:1006400050E0BE018DE094E00E94132964E571E062
:100650008DE094E00E943F28CE010E9409324AE0DA
:1006600050E0682F8DE094E00E9459292196C8320D
:10067000D10529F7DF91CF91089584E190E00E94A0
:100680000932811101C081E08093380169E672E08E
:100690008DE094E00E940E284AE050E0609138011D
:1006A0008DE094E00C9459290E941B036EEF71E0D9
:1006B0008DE094E00E940E28609136017091370120
:1006C0004AE050E08DE094E00E9413296CEE71E066
:1006D0008DE094E00E943F286091340170913501D3
:1006E0004AE050E08DE094E00E94132967EE71E04B
:1006F0008DE094E00E945E2862EF71E08DE094E06E
:100700000E940E284091390150913A0160913B01BD
:1007100070913C0122E030E08DE094E00E945B2A81
:1007200067EE71E08DE094E00E945E2863EE71E078
:100730008DE094E00E940E2860913D0170913E0191
:100740004AE050E08DE094E00E94132967EE71E0EA
:100750008DE094E00E945E2861ED71E08DE094E010
:100760000E940E284AE050E0609138018DE094E04C
:100770000E94522967EE71E08DE094E00E945E28AD
:1007800069EC71E08DE094E00E940E2860913F01D9
:10079000709140014AE050E08DE094E00E941329FE
:1007A0006CEE71E08DE094E00E943F286091410181
:1007B000709142014AE050E08DE094E00E941329DC
:1007C00067EE71E08DE094E00E945E2860EC71E0DD
:1007D0008DE094E00E940E2840913001509131014B
:1007E000609132017091330122E030E08DE094E0BD
:1007F0000E945B2A6CEE71E08DE094E00E943F283D
:1008000040912C0150912D0160912E0170912F018A
:1008100022E030E08DE094E00E945B2A67EE71E018
:100820008DE094E00C945E28AB01BC014093300154
:1008300050933101609332017093330180E792E06D
:100840000E941F214091300150913101609132018D
:10085000709133018CE292E00E941F2160EB71E005
:100860008DE094E00E940E284091300150913101BA
:10087000609132017091330122E030E08DE094E02C
:100880000C945D2AAB01BC0140932C0150932D01C7
:1008900060932E0170932F0180E792E00E948421E3
:1008A00040912C0150912D0160912E0170912F01EA
:1008B0008CE292E00E94842164EA71E08DE094E091
:1008C0000E940E2840912C0150912D0160912E0123
:1008D00070912F0122E030E08DE094E00C945D2ACD
:1008E00086EA93E00E942E316093250170932601E1
:1008F00080932701909328016EE871E08DE094E0E9
:100900000E940E28409125015091260160912701F7
:100910007091280122E030E08DE094E00E945B2A93
:100920006BE871E08DE094E00C944C284F925F925C
:100930006F927F928F929F92AF92BF92CF92DF92EF
:10094000EF92FF920F931F93CF93DF93CDB7DEB754
:1009500028970FB6F894DEBF0FBECDBF6D837E83A0
:100960008F83988749015A0167017801672B682BAB
:10097000692B09F494C0C501B4010E94762D2B01A6
:100980003C0120E030E0A901C501B4010E94232C04
:1009900087FF04C077FA709477F87094A7019601E6
:1009A000C701B6010E94BF2B69837A838B839C8326
:1009B0009B01AC01C301B2010E94272C2B013C0119
:1009C0006D817E818F8198850E94C22C9B01AC0134
:1009D000C301B2010E94232C40903001509031019C
:1009E000609032017090330120E030E0A90187FF70
:1009F00023C0C501B4010E94232C811107C0698165
:100A00007A818B819C810E94DD2D0DC0A50194010E
:100A1000C701B6010E94272C9B01AC015F77C5017D
:100A2000B4010E94BF2B6B017C01A30192010E94C3
:100A3000722D1816CCF12EC0C501B4010E94232CD2
:100A400081110DC069817A818B819C810E94DD2D8D
:100A50006B017C01F7FAF094F7F8F0940FC0A50150
:100A60009401C701B6010E94272C9B01AC015F775E
:100A7000C501B4010E94BE2B6B017C0177FA709412
:100A800077F87094A3019201C701B6010E94232C4C
:100A900087FD0AC05C2D4D2D3E2D2F2D09C050E045
:100AA00040E030E020E004C0542D452D362D272DA8
:100AB000652F742F832F922F28960FB6F894DEBFE0
:100AC0000FBECDBFDF91CF911F910F91FF90EF909F
:100AD000DF90CF90BF90AF909F908F907F906F905E
:100AE0005F904F900895CF92DF92EF92FF920F9315
:100AF0001F93CF93DF93EC018B016A0169E070E0F3
:100B000083ED93E00E94BB23EE24D7FCE094FE2CFF
:100B1000C017D107CCF4BE0183ED93E00E940224FC
:100B2000C701B6010E94E02421960C171D079CF70F
:100B300083ED93E0DF91CF911F910F91FF90EF90A4
:100B4000DF90CF900C94C123BE0183ED93E00E940F
:100B50000224C701B6010E94E0242197C017D107E3
:100B60009CF7E6CFCF93DF9390917B038091D203E4
:100B70009230C0F0882329F0C0914101D091420108
:100B800004C0C0913F01D091400186EA93E00E94E9
:100B90003231909342018093410143E050E0BC0127
:100BA000CE010CC081110CC06091410170914201D5
:100BB00043E050E080913F01909140010E94730515
:100BC00081E08093D203DF91CF910895CF93DF939B
:100BD00090917B038091D2039230C0F0882329F05A
:100BE000C0914101D091420104C0C0913F01D09118
:100BF000400186EA93E00E94323190934001809355
:100C00003F0143E050E0BC01CE010CC0882361F0FD
:100C100060913F017091400143E050E080914101BB
:100C2000909142010E9473051092D203DF91CF91FF
:100C3000089586EA93E00E9432318093180188E992
:100C400093E00E94323190931A0180931901089524
:100C5000AF92BF92CF92DF92EF92FF920F931F93CA
:100C60006E157F058007910734F42E153F05400768
:100C700051076CF10BC0E616F7060807190794F444
:100C8000A216B306C406D50624F106C0A216B30602
:100C9000C406D50614F116C02A153B054C055D05A2
:100CA000C4F419C06E157F058007910791F42A15C9
:100CB0003B054C055D057CF0A216B306C406D506BF
:100CC00064F007C02A153B054C055D0511F484E06E
:100CD00005C082E003C081E001C083E01F910F9155
:100CE000FF90EF90DF90CF90BF90AF9008958F92DC
:100CF0009F92AF92BF92CF92DF92EF92FF920F93AB
:100D00001F93CF93DF934B015C018A01BA018827BF
:100D100077FD8095982F0E94C22C2091CE033091B0
:100D2000CF034091D0035091D1030E94762DA501AD
:100D300094010E94272C6B017C0120E030E040E010
:100D400050E40E94722D87FD0AC0C701B6010E94BF
:100D50008F2CEB01633071050CF03FC002C0C1E085
:100D6000D0E067E571E08DE094E00E943F2822E04A
:100D700030E0B701A6018DE094E00E945D2A66EFA5
:100D800070E08DE094E00E940E2822E030E0B50192
:100D9000A4018DE094E00E945B2A6AEE70E08DE091
:100DA00094E00E940E284AE050E0B8018DE094E003
:100DB0000E94132965EE70E08DE094E00E940E28F9
:100DC0004AE050E0BE018DE094E00E941B2964EBF4
:100DD00070E08DE094E00E944C28CE01DF91CF912D
:100DE0001F910F91FF90EF90DF90CF90BF90AF9049
:100DF0009F908F9008958F929F92AF92BF92CF92C3
:100E0000DF92EF92FF92CF93DF935C01EB01BA0187
:100E1000882777FD8095982F0E94C22C6B017C015A
:100E2000B501882777FD8095982F0E94C22C4B0131
:100E30005C01BE01882777FD8095982F0E94C22C07
:100E40009B01AC01C501B4010E94272CA7019601AA
:100E50000E94762D9B01AC01C701B6010E94BE2BFA
:100E60004B015C010E948F2CEB01882777FD809558
:100E7000982F0E94C22C9B01AC01C501B4010E94B5
:100E8000BE2B20E030E040E05FE30E94722D181698
:100E90000CF42196CE01DF91CF91FF90EF90DF907F
:100EA000CF90BF90AF909F908F90089580911B013D
:100EB000882319F010921B01089581E080931B0193
:100EC00008958F929F92AF92BF92CF92DF92EF924E
:100ED000FF9269017A019B01AC010E94762D4B01C2
:100EE0005C01A7019601C701B6010E94762D9B0106
:100EF000AC01C501B4010E94BF2BFF90EF90DF90C1
:100F0000CF90BF90AF909F908F900C94DD2DCF939A
:100F1000DF9300D000D0CDB7DEB78091BE039091B3
:100F2000BF03A091C003B091C103892B8A2B8B2BE7
:100F300009F044C06091C2037091C3038091C4035F
:100F40009091C5030E94C22C9B01AC016091C60325
:100F50007091C7038091C8039091C90329833A8394
:100F60004B835C830E94C22C29813A814B815C8136
:100F70000E94610720E030E040E05FE30E94BF2B69
:100F80000E948F2C6093BE037093BF038093C003B5
:100F90009093C10368E970E08DE094E00E940E2810
:100FA0004091BE035091BF036091C0037091C10393
:100FB0002AE030E08DE094E00E9433296091BE0386
:100FC0007091BF038091C0039091C1030F900F9067
:100FD0000F900F90DF91CF9108958F929F92AF92D3
:100FE000BF92CF92DF92EF92FF924B015C016901B9
:100FF0007A016091C6037091C7038091C8039091F4
:10100000C9030E94C22CA50194010E94BE2B9B0122
:10101000AC010E94762D4B015C01A7019601C7012E
:10102000B6010E94762D9B01AC01C501B4010E945E
:10103000BF2BFF90EF90DF90CF90BF90AF909F902D
:101040008F900C94DD2D809124018823C1F16EE6F0
:1010500071E08DE094E00E943F2880E792E00E94DA
:10106000781E2091380130E040E050E00E94862E4A
:10107000BA01A9012AE030E08DE094E00E94C9287D
:101080006CEE71E08DE094E00E943F288CE292E0EB
:101090000E94781E2091380130E040E050E00E942C
:1010A000862EBA01A9012AE030E08DE094E00E948A
:1010B000C92867EE71E08DE094E00C945E280895F5
:1010C0004F925F926F927F928F929F92AF92BF9258
:1010D000CF92DF92EF92FF92CF93DF9300D000D0B8
:1010E000CDB7DEB74B015C0129013A016091C6031F
:1010F0007091C7038091C8039091C9030E94C22CCC
:101100006B017C019B01AC010E94762D69837A837F
:101110008B839C83A3019201C301B2010E94762DAF
:101120009B01AC0169817A818B819C810E94BE2BDD
:101130002B013C01A5019401C501B4010E94762D4B
:101140009B01AC01C301B2010E94BF2B4B015C01AA
:10115000A7019601C701B6010E94BF2B9B01AC01FC
:10116000C501B4010E94272C0F900F900F900F9093
:10117000DF91CF91FF90EF90DF90CF90BF90AF9035
:101180009F908F907F906F905F904F9008958F9277
:101190009F92AF92BF92CF92DF92EF92FF926B013C
:1011A0007C01CA01B9010E94762D4B015C01A701A7
:1011B0009601C701B6010E94762D9B01AC01C501C5
:1011C000B4010E94BE2BFF90EF90DF90CF90BF90B4
:1011D000AF909F908F900C94DD2D0F931F93CF9322
:1011E000DF938C01EB010E9409328883C8010196CC
:1011F0000E940932898382E090E0DF91CF911F91B4
:101200000F91089566E371E080E090E00E94ED08A0
:1012100080913601909137011816190634F08AE84A
:1012200092E0909337018093360167ED72E08DE094
:1012300094E00E940E2860913601709137014AE0D7
:1012400050E08DE094E00E941B2964E371E082E0AD
:1012500090E00E94ED0880913401909135011816BC
:10126000190634F08AE892E09093350180933401B6
:1012700068EC72E08DE094E00E940E2860913401E9
:10128000709135014AE050E08DE094E00C941B2908
:101290006FE371E08AE290E00E94ED0880913F01E7
:1012A000909140018936914030F08AE590E090932A
:1012B000400180933F0160E972E08DE094E00E947C
:1012C0000E2860913F01709140014AE050E08DE0AE
:1012D00094E00E941B2961E471E08CE290E00E949E
:1012E000ED0880914101909142018936914030F0A2
:1012F00084EB90E0909342018093410161E872E0B9
:101300008DE094E00E940E286091410170914201AD
:101310004AE050E08DE094E00C941B29EF92FF929C
:101320000F931F93CF93DF937C018B01C0E0D0E03C
:10133000CE018E0D9F1D0E940932F80181938F010D
:101340002196C430D105A1F784E090E0DF91CF91E0
:101350001F910F91FF90EF90089569E371E08EE087
:1013600090E00E948E0920E030E040E85FE3609169
:10137000390170913A0180913B0190913C010E94AA
:10138000232C87FF0CC080E090E0AEEBB2E48093AA
:10139000390190933A01A0933B01B0933C0167EB74
:1013A00072E08DE094E00E940E2840913901509146
:1013B0003A0160913B0170913C0122E030E08DE008
:1013C00094E00E945D2A6DE371E082E190E00E946A
:1013D000ED0880913D0190913E011816190634F0F8
:1013E00080E991E090933E0180933D0161EA72E0D3
:1013F0008DE094E00E940E2860913D0170913E01C5
:101400004AE050E08DE094E00C941B2960E371E029
:1014100086E190E00E948E09609130017091310167
:1014200080913201909133010E948F2C161617067D
:1014300064F080E090E0A8E4B4E4809330019093FD
:101440003101A0933201B09333016CE271E08AE183
:1014500090E00E948E0960912C0170912D01809185
:101460002E0190912F010E948F2C1616170664F002
:1014700080E090E0A8E4B4E480932C0190932D01E7
:10148000A0932E01B0932F0108958F929F92AF9257
:10149000BF92CF92DF92EF92FF920E9402090E94C8
:1014A000AD090E943D030E9448090E94060A65E2B8
:1014B00071E08EE190E00E948E0927E137EB41ED6B
:1014C00058E3609125017091260180912701909148
:1014D00028010E94232C87FF0CC08DEC9CECACE40F
:1014E000BFE38093250190932601A0932701B09339
:1014F00028018090390190903A01A0903B01B09072
:101500003C01A0913D01B0913E012091380130E0B5
:101510000E94BA2E0E94C22C6B017C019B01AC017F
:10152000C501B4010E94272C6093CE037093CF03B2
:101530008093D0039093D103A5019401C701B60114
:101540000E94272C6093CA037093CB038093CC0333
:101550009093CD0366E572E08DE094E00E940E2842
:101560004091CE035091CF036091D0037091D1038D
:1015700022E030E08DE094E00E945B2A66E472E0B5
:101580008DE094E00E940E284091CA035091CB0355
:101590006091CC037091CD0322E030E08DE094E0C7
:1015A0000E945B2A64E472E08DE094E00E944C2883
:1015B0006091360170913701882777FD8095982FCB
:1015C0000E94C22C2091CA033091CB034091CC03DE
:1015D0005091CD030E94762D0E948F2C6093C603FC
:1015E0007093C7038093C8039093C90368E272E0C5
:1015F0008DE094E00E940E284091C6035091C703ED
:101600006091C8037091C9032AE030E08DE094E056
:101610000E94C92866E272E08DE094E00E944C28A6
:101620006091340170913501882777FD8095982F5E
:101630000E94C22C2091CA033091CB034091CC036D
:101640005091CD030E94762D0E948F2C6093C2038F
:101650007093C3038093C4039093C5036EE172E05B
:101660008DE094E00E940E2868E072E08DE094E046
:101670000E940E284091C2035091C3036091C4039D
:101680007091C5032AE030E08DE094E00E94C92803
:1016900066E072E08DE094E00E940E288DE094E018
:1016A0000E9448281092BE031092BF031092C003FC
:1016B0001092C103FF90EF90DF90CF90BF90AF905A
:1016C0009F908F900895CF92DF92EF92FF9226E045
:1016D00040E051EE60E070E08DE094E00E94C926A9
:1016E00064E771E08DE094E00E945E2863E871E0B9
:1016F0008DE094E00E943F284AE050E061E070E015
:101700008DE094E00E941B296EE871E08DE094E08A
:101710000E945E280E94450A0E94D4024091300136
:1017200050913101609132017091330180E792E074
:101730000E941F2140912C0150912D0160912E019A
:1017400070912F0180E792E00E9484214091300146
:101750005091310160913201709133018CE292E03D
:101760000E941F2140912C0150912D0160912E016A
:1017700070912F018CE292E00E94842160912901F6
:1017800070912A01882777FD8095982F0E94C22C9E
:101790002091390130913A0140913B0150913C0137
:1017A0000E94272C6B017C0160913D0170913E01EC
:1017B000882777FD8095982F0E94C22C9B01AC0151
:1017C000C701B6010E94762D0E948F2C6B017C010F
:1017D000AB01BC0180E792E00E947E1EB701A6012A
:1017E0008CE292E00E947E1EE8E4F3E0119283E036
:1017F000EA37F807D9F70E94B8020E94B20564EFF1
:1018000071E080E090E0FF90EF90DF90CF900C943B
:10181000E024CF93DF93C0E0D0E060E0CE010E94EF
:1018200011322196C233D105C1F7DF91CF910C94CB
:10183000450A0F931F93CF93DF938C01EB016881CF
:101840000E9411326981C80101960E94113282E022
:1018500090E0DF91CF911F910F9108950F931F9307
:10186000CF93DF9300D000D000D0CDB7DEB786EAAB
:1018700093E00E9432318C019E838D8388E993E04E
:101880000E9432319C838B831A830983BE016F5F70
:101890007F4F80E090E00E94ED088D819E8129813C
:1018A0003A812817390749F00B973CF0BE016B5F6E
:1018B0007F4F80E090E00E94190CBE016F5F7F4F68
:1018C00082E090E00E94ED088B819C8129813A8121
:1018D0002817390749F00B973CF0BE016D5F7F4F29
:1018E00082E090E00E94190C0E94020926960FB631
:1018F000F894DEBF0FBECDBFDF91CF911F910F9146
:101900000895CF93DF9300D0CDB7DEB786EA93E09A
:101910000E9432319A838983BE016F5F7F4F82E1DB
:1019200090E00E94190C0E94450A0F900F90DF91E1
:10193000CF910895CF93DF9300D0CDB7DEB786EA7D
:1019400093E00E9432319A838983BE016F5F7F4F9B
:1019500084E190E00E94190C0E94450A0F900F90BC
:10196000DF91CF9108950F931F93CF93DF9300D012
:1019700000D0CDB7DEB786EA93E00E9432318C0109
:101980009C838B8388E993E00E9432319A83898318
:1019900020917B03233089F4BE016D5F7F4F8AE283
:1019A00090E00E94190CBE016F5F7F4F8CE290E0C7
:1019B0000E94190C0E94480937C02230A9F543E063
:1019C00050E0B8010E94730568EC70E080E090E0A0
:1019D0000E94E02469817A8143E050E08B819C8100
:1019E0000E94730568EC70E080E090E00E94E024C3
:1019F0006B817C8143E050E089819A810E9473056C
:101A000068EC70E080E090E00E94E02469817A81D7
:101A100043E050E08B819C810E94730568EC70E08C
:101A200080E090E00E94E0240F900F900F900F90C4
:101A3000DF91CF911F910F910895EF92FF920F9335
:101A40001F93CF93DF937C018B01C0E0D0E0F801BE
:101A500061918F01CE018E0D9F1D0E941132219642
:101A6000C430D105A1F784E090E0DF91CF911F91C0
:101A70000F91FF90EF900895CF93DF9300D000D0A7
:101A8000CDB7DEB786EA93E00E942E3169837A8370
:101A90008B839C83BE016F5F7F4F8EE090E00E943E
:101AA0001D0D0E94450A0F900F900F900F90DF912F
:101AB000CF91089586EA93E00E942E310E9414048B
:101AC00080917B03823061F488E993E00E94323197
:101AD000019731F460E371E086E190E00C941D0D14
:101AE000089586EA93E00E942E310E94420480917C
:101AF0007B03823061F488E993E00E9432310197E0
:101B000031F46CE271E08AE190E00C941D0D0895CF
:101B1000CF92DF92EF92FF9265E971E086ED93E05C
:101B20000E94642B83ED93E00E942123C090CA039E
:101B3000D090CB03E090CC03F090CD0360913601C0
:101B400070913701882777FD8095982F0E94C22CCD
:101B5000A70196010E94762D0E948F2C6093C603E8
:101B60007093C7038093C8039093C90360913401B5
:101B700070913501882777FD8095982F0E94C22C9F
:101B8000A70196010E94762D0E948F2C6093C203BC
:101B90007093C3038093C4039093C5036BE971E012
:101BA00088E393E00E94642B6FE971E082E393E0A5
:101BB0000E94642B63EA71E08CE293E00E94642B44
:101BC00067EA71E086E293E00E94642B6BEA71E0C1
:101BD00080E293E00E94642B6FEA71E08AE193E077
:101BE0000E94642B63EB71E084E193E00E94642B1C
:101BF00067EB71E08EE093E00E94642B6BEB71E089
:101C000088E093E00E94642B6FEB71E082E093E048
:101C10000E94642B63EC71E08CEF92E00E94642BD5
:101C200067EC71E086EF92E00E94642B6BEC71E050
:101C300080EF92E00E94642B6FEC71E08AEE92E0FC
:101C40000E94642B63ED71E084EE92E00E94642BAD
:101C500067ED71E08EED92E00E94642B6BED71E018
:101C600088ED92E00E94642B6FED71E082ED92E0CE
:101C70000E94642B63EE71E08CEC92E00E94642B76
:101C800060913D0170913E0141E080EC92E00E9444
:101C9000991A60913D0170913E0142E084EB92E01F
:101CA0000E94991A42E052E06CEF71E080E792E006
:101CB0000E94C5204EE052E068E072E08CE292E0C3
:101CC000FF90EF90DF90CF900C94C5208CEC92E0C9
:101CD0000E94F62A82ED92E00E94F62A88ED92E0B8
:101CE0000E94F62A8EED92E00E94F62A84EE92E09F
:101CF0000E94F62A8AEE92E00E94F62A80EF92E095
:101D00000E94F62A86EF92E00E94F62A8CEF92E07B
:101D10000E94F62A82E093E00E94F62A88E093E08F
:101D20000E94F62A8EE093E00E94F62A84E193E076
:101D30000E94F62A8AE193E00E94F62A80E293E06C
:101D40000E94F62A86E293E00E94F62A8CE293E053
:101D50000E94F62A82E393E00E94F62A88E393E049
:101D60000E94F62A86ED93E00C94F62A80E792E032
:101D70000E94CA1D8CE292E00E94CA1D81E08093FD
:101D8000420380E792E00E94781EAB01BC014C5FE9
:101D90005F4F6F4F7F4F80E792E00E945B228CE2A3
:101DA00092E00E94781EAB01BC014C5F5F4F6F4F09
:101DB0007F4F8CE292E00E945B2280E792E00E94DB
:101DC000781EAB01BC01445051096109710980E7DB
:101DD00092E00E945B228CE292E00E94781EAB01AE
:101DE000BC0144505109610971098CE292E00C94E4
:101DF0005B228F929F92AF92BF92CF92DF92EF922F
:101E0000FF9286EA93E00E9450319B01AC01C090A2
:101E10003801D12CE12CF12CC701B6010E94342EDF
:101E20004B015C0188E993E00E9450319B01AC01B9
:101E3000C701B6010E94342E6B017C01B501A401DB
:101E400080E792E00E947E1EB701A6018CE292E03C
:101E50000E947E1E0E94B60EFF90EF90DF90CF9002
:101E6000BF90AF909F908F900C94230880E792E0F2
:101E70000E94B11D8CE292E00E94B11D0E94B20549
:101E8000109242030895CF92DF92EF92FF920F9348
:101E90001F930E94B12400914303109144032091A9
:101EA00045033091460340911C01442359F1409170
:101EB0004203442339F16B017C01C01AD10AE20AC2
:101EC000F30A80911D0190911E01A0911F01B09114
:101ED00020018C159D05AE05BF05A4F46AE071E0F4
:101EE0008DE094E00E943F2866E171E08DE094E08F
:101EF0000E944C281F910F91FF90EF90DF90CF90A0
:101F00000C94360F1F910F91FF90EF90DF90CF90C0
:101F100008954F925F926F927F928F929F92AF92AD
:101F2000BF92CF92DF92EF92FF920F931F93CF93C6
:101F3000DF938C010E94B1244B015C01F80180E029
:101F400090E01192019682339105D9F7C12CD12CE2
:101F50007601C0E0D0E00E94B124209719F4C0E0DF
:101F6000D0E014C0DC01CB018C199D09AE09BF097A
:101F700085369105A105B1054CF0F80180E090E0AF
:101F80001192019682339105D9F7E9CF0E94430F50
:101F90000E94B124681979098A099B0920912101BD
:101FA000309122012901662457FC6094762C461654
:101FB00057066806790634F40E94B8020E94B124DC
:101FC0004B015C018DE094E00E94E625181619068D
:101FD00014F68DE094E00E94FF25F801EC0FFD1F40
:101FE0008A3011F08B3359F41082CF01801B910B92
:101FF000C19714F41192F9CF7724739403C08083AE
:102000002196712C0E94B1246B017C01772009F488
:10201000A2CF0E94B1240E94B12460934303709325
:102020004403809345039093460360933E0370936B
:102030003F03809340039093410381E0DF91CF9170
:102040001F910F91FF90EF90DF90CF90BF90AF90D6
:102050009F908F907F906F905F904F9008954F92D8
:102060005F926F927F928F929F92AF92BF92CF9228
:10207000DF92EF92FF92CF93DF9300D000D0CDB7E5
:10208000DEB72B013C0129833A834B835C830E949A
:10209000B12460934303709344038093450390936A
:1020A000460380E792E00E9427224B015C018CE20C
:1020B00092E00E9427226B017C0140E050E0BA01CF
:1020C00080E792E00E94A82140E050E0BA018CE253
:1020D00092E00E94A821C301B2010E94C22C0E947A
:1020E0008F2CAB01BC0180E792E00E940220698145
:1020F0007A818B819C810E94C22C0E948F2CAB0123
:10210000BC018CE292E00E94022080912B0181119F
:102110003DC080E792E00E94272220E030E0A90144
:102120000E94232C87FF04C0B7FAB094B7F8B0948C
:102130008CE292E00E94272220E030E0A9010E9478
:10214000232C87FF04C0F7FAF094F7F8F094B50158
:10215000A40180E792E00E94A821B701A6018CE2C9
:1021600092E00E94A82112C00E94430F8091230197
:10217000882361F080912B01882389F080E792E029
:102180000E9498208CE292E00E94982080E792E0E2
:102190000E94661E672B682B692B31F709C080E708
:1021A00092E00E9438228CE292E00E943822EECF28
:1021B0008CE292E00E94661E672B682B692BA1F6C9
:1021C0000F900F900F900F90DF91CF91FF90EF90B5
:1021D000DF90CF90BF90AF909F908F907F906F9047
:1021E0005F904F900C9423088F929F92AF92BF9272
:1021F000CF92DF92EF92FF92CF93DF9300D000D087
:10220000CDB7DEB786EA93E00E942E316B017C01E8
:102210006091380170E080E090E00E94C22C9B0148
:10222000AC01C701B6010E94762D6B017C0188E9E3
:1022300093E00E942E314B015C016091380170E007
:1022400080E090E00E94C22C9B01AC01C501B4016A
:102250000E94762D0E948F2C9B01AC01C701B60114
:1022600029833A834B835C830E948F2C29813A8196
:102270004B815C810F900F900F900F90DF91CF9169
:10228000FF90EF90DF90CF90BF90AF909F908F9096
:102290000C942F102F923F924F925F926F927F92E9
:1022A0008F929F92AF92BF92CF92DF92EF92FF9266
:1022B0000F931F93CF93DF93CDB7DEB7A0970FB6E1
:1022C000F894DEBF0FBECDBF2B013C01E982FA823C
:1022D0000B831C8384010E9460086D837E838F833F
:1022E0009887A30192010E94C70869877A878B8724
:1022F0009C87A601950169817A818B819C810E94CE
:1023000060082B013C0129813A814B815C810E944C
:10231000C7086B017C0120E030E040EA51E4C301D2
:10232000B2010E94722D18160CF003C26091C60310
:102330007091C7038091C8039091C90364517109DA
:10234000810991090E94C22C4B015C019B01AC01E7
:10235000C301B2010E94232C87FFEBC120E030E0D3
:1023600040EA51E4C701B6010E94722D18160CF024
:10237000E0C16091C2037091C3038091C403909146
:10238000C50364517109810991090E94C22C6983B6
:102390007A838B839C839B01AC01C701B6010E94A9
:1023A000232C87FFC6C120E030E040EA51E46D8174
:1023B0007E818F8198850E94722D18160CF0B9C10C
:1023C000A50194016D817E818F8198850E94232CC7
:1023D00087FFAFC120E030E040EA51E469857A85AB
:1023E0008B859C850E94722D18160CF0A2C1298144
:1023F0003A814B815C8169857A858B859C850E94B9
:10240000232C87FF96C1109224012D813E814F819C
:102410005885C301B2010E94BE2B4B015C01298586
:102420003A854B855C85C701B6010E94BE2B6B01C6
:102430007C0120E030E0A901C501B4010E94722DA9
:1024400024013501181624F077FA709477F8709407
:1024500020E030E0A901C701B6010E94722DA7015A
:10246000960118160CF05058C301B2010E94722D4B
:102470009801442737FD4095542F29833A834B8395
:102480005C831816E4F02601370177FA709477F828
:10249000709420E030E0A901C701B6010E94722DBE
:1024A00018162CF41C2D0D2DED86F98A04C0142D60
:1024B000052D6D86798A22242394312C3EC0240177
:1024C000350177FA709477F8709420E030E0A90134
:1024D000C501B4010E94722D18162CF4182D092D77
:1024E000AD86B98A04C0142D052D6D86798A222403
:1024F0002394312CB101882777FD8095982F0E9475
:10250000C22C9B01AC01612F702F8D8599890E948F
:10251000272C2B013C0169817A818B819C810E944F
:10252000C22C9B01AC01C301B2010E94722D18168E
:102530003CF53FEF231A330ADDCFB101882777FD41
:102540008095982F0E94C22C9B01AC01612F702FA7
:102550008D8599890E94272C2B013C0169817A8104
:102560008B819C810E94C22C9B01AC01C301B201F2
:102570000E94722D181624F44FEF241A340ADDCF6E
:10258000C101AA2797FDA095BA2F89839A83AB83AF
:10259000BC83BC01CD010E94C22C2B013C019B01DC
:1025A000AC01C501B4010E94272C6D877E878F87FF
:1025B000988BA3019201C701B6010E94272C698B59
:1025C0007A8B8B8B9C8B10922B01812C912C54013C
:1025D000C12CD12C76012D853E854F8558896D8182
:1025E0007E818F8198850E94BF2B6D837E838F8330
:1025F000988729893A894B895C8969857A858B8591
:102600009C850E94BF2B69877A878B879C879B015B
:10261000AC016D817E818F8198850E9461076D8BF1
:102620007E8B8F8B988F29853A854B855C856D8154
:102630007E818F8198850E94ED07698F7A8F8B8FBD
:102640009C8F20E030E040E850E460912C017091D4
:102650002D0180912E0190912F010E94762D2B014A
:102660003C01C701B6010E94C22C9B01AC016981EB
:102670007A818B819C81680D791D8A1D9B1D830148
:1026800072010E9496040E948F2C6B017C010E94B3
:10269000C22C2B013C01AB01BC0180E792E00E94FF
:1026A000A821B301A2018CE292E00E94A821698DC9
:1026B0007A8D8B8D9C8D0E948F2C9B01AC016D8936
:1026C0007E898F89988D2D8F3E8F4F8F58A30E94C2
:1026D0008F2C2D8D3E8D4F8D58A10E942F1091E093
:1026E000891A9108A108B108C101880D991D892B8B
:1026F00009F071CF81E08093240180932B01A09693
:102700000FB6F894DEBF0FBECDBFDF91CF911F9102
:102710000F91FF90EF90DF90CF90BF90AF909F9080
:102720008F907F906F905F904F903F902F900C9480
:10273000230861E171E08DE094E00E943F2865E2AA
:1027400071E08DE094E0A0960FB6F894DEBF0FBE66
:10275000CDBFDF91CF911F910F91FF90EF90DF9050
:10276000CF90BF90AF909F908F907F906F905F9031
:102770004F903F902F900C944C284F925F926F9205
:102780007F928F929F92AF92BF92CF92DF92EF9201
:10279000FF920F931F93CF93DF93CDB7DEB72C97A4
:1027A0000FB6F894DEBF0FBECDBF86EA93E00E945D
:1027B0002E316B017C016091380170E080E090E087
:1027C0000E94C22C9B01AC01C701B6010E94762D6C
:1027D0002B013C0188E993E00E942E316B017C01C2
:1027E000B09038018AE893E00E9432314C0180E7D2
:1027F00092E00E94781E69837A838B839C838CE2AB
:1028000092E00E94781E6D837E838F83988720E0FC
:1028100030E040EA51E4C301B2010E94232C87FD5D
:102820002EC06B2D70E080E090E00E94C22C9B01D6
:10283000AC01C701B6010E94762D5B016C0120E05E
:1028400030E040EA51E40E94232C87FD18C00E942A
:1028500087070E94C22C9B01AC01C301B2010E94F8
:10286000722D181664F00E9487070E94C22C9B01EB
:10287000AC01C601B5010E94722D181614F561E174
:1028800071E08DE094E00E943F286BE471E08DE000
:1028900094E02C960FB6F894DEBF0FBECDBFDF914B
:1028A000CF911F910F91FF90EF90DF90CF90BF904D
:1028B000AF909F908F907F906F905F904F900C940F
:1028C0004C286D817E818F8198850E94C22C9B014E
:1028D000AC0169817A818B819C8129873A874B87FA
:1028E0005C870E94C22C8301720129853A854B8541
:1028F0005C850E944A112C960FB6F894DEBF0FBE7D
:10290000CDBFDF91CF911F910F91FF90EF90DF909E
:10291000CF90BF90AF909F908F907F906F905F907F
:102920004F9008952F923F924F925F926F927F92B5
:102930008F929F92AF92BF92CF92DF92EF92FF92CF
:102940000F931F93CF93DF9300D000D0CDB7DEB7A6
:102950001701F80117FD3196F595E7954F01AA2467
:1029600097FCA094BA2C2B013C01481859086A081E
:102970007B086801EE24D7FCE094FE2CDA01C90143
:1029800088199909AA09BB094C015D0100E010E012
:10299000201631065CF1A701960160E070E0CB01E2
:1029A0000E94932A69837A838B839C83A701960173
:1029B00060E070E0CB010E94932A9B01442737FD21
:1029C0004095542F280D391D4A1D5B1DA981BA81E0
:1029D000BD01882777FD8095982F640D751D861D94
:1029E000971D0E942F100F5F1F4FD2CF0F900F9097
:1029F0000F900F90DF91CF911F910F91FF90EF906B
:102A0000DF90CF90BF90AF909F908F907F906F900E
:102A10005F904F903F902F9008954F925F926F92EA
:102A20007F928F929F92AF92BF92CF92DF92EF925E
:102A3000FF920F931F93CF93DF9300D000D0CDB7B9
:102A4000DEB786EA93E00E94503110913801C12E22
:102A5000D12CE12CF12C9B01AC01C701B6010E94E5
:102A6000342E4B015C0188E993E00E9450319B01B8
:102A7000AC01C701B6010E94342E2B013C018AE84B
:102A800093E00E943231212F30E0DC010E94BA2E07
:102A900069837A838B839C838CE793E00E94323135
:102AA0007C01609125017091260180912701909110
:102AB000280149815A810E947706AC016FEF70E0CE
:102AC000C7010E94FB067C0129813A81B901882750
:102AD00077FD8095982F0E94C22C2DEC3CEC4CE8A1
:102AE0005FE30E94762D0E948F2C8B01A30192013F
:102AF000C501B4010E9492140F900F900F900F9097
:102B0000DF91CF911F910F91FF90EF90DF90CF90C9
:102B1000BF90AF909F908F907F906F905F904F90FD
:102B20000895CF93DF93EC01AB01662757FD6095C5
:102B3000762F0E941920CE010E94661E672B682BFB
:102B4000692B51F00E94430F80912301882399F350
:102B5000CE010E949820EFCF0E94B12460934303DE
:102B6000709344038093450390934603DF91CF9184
:102B700008958F929F92AF92BF92CF92DF92EF9281
:102B8000FF920F931F93CF93DF935C01EB016A01D8
:102B90004901E114F10499F564EA70E08DE094E0F4
:102BA0000E944C2880911B01882349F0D7FE03C066
:102BB0008FEFC81AD80AB601759567950BC0D7FE76
:102BC00003C08FEFC81AD80AB6017595679571953D
:102BD00061957109CE010E949115B401C5010E9451
:102BE0009115DF91CF911F910F91FF90EF90DF90A2
:102BF000CF90BF90AF909F908F900C94560780918C
:102C00001B01E016F10629F5882349F057FF03C0A0
:102C10008FEFC81AD80AB601759567950BC057FF94
:102C200003C08FEFC81AD80AB601759567957195DC
:102C300061957109CE01DF91CF911F910F91FF90A6
:102C4000EF90DF90CF90BF90AF909F908F900C94BB
:102C50009115882311F0BA01BDCF66277727641B31
:102C6000750BB8CF2F923F924F925F926F927F92E7
:102C70008F929F92AF92BF92CF92DF92EF92FF928C
:102C80000F931F93CF93DF93CDB7DEB727970FB680
:102C9000F894DEBF0FBECDBF1B015F834E83298337
:102CA000141615060CF078C0BA010E94502E7B83D2
:102CB0006A83BC01882777FD8095982F0E94C22CDB
:102CC0004B015C012E813F81B901882777FD8095FA
:102CD000982F0E94C22C9B01AC01C501B4010E9437
:102CE000272C2B013C01C12CD12C812C912C54017F
:102CF0008A819B8101969D838C83A3019201C501EA
:102D0000B4010E94BF2B4B015C0120E030E040E8A1
:102D10005FE30E94722D87FD0DC020E030E040E8A7
:102D20005FE3C501B4010E94BE2B4B015C012C8105
:102D30003D8102C02A813B819981923049F0E9812D
:102D4000E330A9F0F981F43061F43195219531092E
:102D500076010E811F81A1016CE272E080E792E0B2
:102D60000EC08981813069F4319521953109760150
:102D70000E811F81A10160E772E08CE292E00E9467
:102D8000B9150E9423089FEFC91AD90AEE81FF8165
:102D9000EC15FD050CF0B1CF27960FB6F894DEBF09
:102DA0000FBECDBFDF91CF911F910F91FF90EF909C
:102DB000DF90CF90BF90AF909F908F907F906F905B
:102DC0005F904F903F902F9008952F923F924F9297
:102DD0005F926F927F928F929F92AF92BF92CF92AB
:102DE000DF92EF92FF920F931F93CF93DF93CDB7B4
:102DF000DEB72A970FB6F894DEBF0FBECDBF86EAC6
:102E000093E00E945031B0903801CB2CD12CE12CB2
:102E1000F12C9B01AC01C701B6010E94342E2B019D
:102E20003C0188E993E00E9450319B01AC01C7014D
:102E3000B6010E94342E69837A838B839C838AE84F
:102E400093E00E9432312B2D30E0DC010E94BA2E3B
:102E50006D837E838F8398878CE793E00E94323165
:102E60009A8789878D809E8097FE03C00FEF801A16
:102E7000900A95948794C401880F991F2D803E80F5
:102E8000281A390A809118018130C9F48CE292E045
:102E90000E94781E5B016C0180E792E00E94781E20
:102EA0007B018C0129813A814B815C81C301B20194
:102EB0000E94280690E090931A01809319012091B6
:102EC000190130911A016401EE24D7FCE094FE2C24
:102ED000C101AA2797FDA095BA2F22303105A9F488
:102EE000B301A2014C195D096E097F09C40CD51C00
:102EF000E61CF71C89809A80AB80BC802A013B01CC
:102F0000480E591E6A1E7B1E54C023303105C9F479
:102F100049815A816B817C814C195D096E097F0959
:102F200089809A80AB80BC808C0C9D1CAE1CBF1C21
:102F3000730162018A019B01080F191F2A1F3B1FA1
:102F400034C024303105C9F4B301A2014C0D5D1D1C
:102F50006E1D7F1D930182010C191D092E093F0969
:102F60006801790189809A80AB80BC802A013B018D
:102F7000481A590A6A0A7B0A1CC049815A816B8126
:102F80007C814C0D5D1D6E1D7F1D89809A80AB80FC
:102F9000BC808C189D08AE08BF08730162018A01CD
:102FA0009B01081B190B2A0B3B0B09831A832B83EC
:102FB0003C836091250170912601809127019091B9
:102FC00028014D815E810E947706AC016FEF70E0B1
:102FD00089859A850E94FB061C0129813A814B81D3
:102FE0005C81C301B2010E942F1012E0211631044E
:102FF00044F020911901A1016D817E81CB010E94D5
:103000003216A5019401C701B6012A960FB6F894AD
:10301000DEBF0FBECDBFDF91CF911F910F91FF900B
:10302000EF90DF90CF90BF90AF909F908F907F9068
:103030006F905F904F903F902F900C942F103F9285
:103040004F925F926F927F928F929F92AF92BF92B8
:10305000CF92DF92EF92FF920F931F93CF93DF9364
:10306000CDB7DEB72A970FB6F894DEBF0FBECDBF3F
:1030700086EA93E00E9432312091380130E0DC0191
:103080000E94BA2E6B017C017A87698788E993E0F8
:103090000E942E314B015C018AE893E00E942E31A0
:1030A00069837A838B839C838CE793E00E942E3123
:1030B0006D837E838F8398873090180182E08093A0
:1030C00018014090250150902601609027017090D2
:1030D000280100E010E029813A814B815C81C50123
:1030E000B4010E94232C181614F10F5F1F4F809219
:1030F000250190922601A0922701B09228014985CE
:103100005A85C501B4010E94770622E0AC016985A9
:103110007A85CB010E9432162D813E814F815885E0
:10312000C501B4010E94BF2B4B015C01D4CF40927A
:103130002501509226016092270170922801AA244D
:10314000BB24AC18BD08B5018CE292E00E94911539
:10315000C60129853A8537FD01969595879588247E
:103160009924881A990AC601D7FC01967C01F59426
:10317000E794CC24C394D12C0C151D059CF0B4010C
:103180008CE292E00E949115B50180E792E00E94E6
:103190009115B7018CE292E00E9491153FEFC31A9E
:1031A000D30AEACF4092250150922601609227016E
:1031B00070922801309218012A960FB6F894DEBF5B
:1031C0000FBECDBFDF91CF911F910F91FF90EF9078
:1031D000DF90CF90BF90AF909F908F907F906F9037
:1031E0005F904F903F900895CF93DF93EC0168E399
:1031F00073E00E949E2B882319F00E94F410B3C044
:103200006CEF72E0CE010E949E2B882319F00E9481
:10321000BD13A9C062E373E0CE010E949E2B8823F8
:1032200019F00E9470049FC068ED72E0CE010E9408
:103230009E2B882319F00E945A0D95C062ED72E012
:10324000CE010E949E2B882319F00E94710D8BC025
:103250006CE273E0CE010E949E2B882319F00E943D
:10326000E51681C066E273E0CE010E949E2B8823A2
:1032700019F00E940D1577C060E273E0CE010E9444
:103280009E2B882319F00E9419066DC06AE173E035
:10329000CE010E949E2B882319F00E941F1863C044
:1032A00064E173E0CE010E949E2B882319F00E94F6
:1032B000F90E59C06EE073E0CE010E949E2B882368
:1032C00019F00E94E6054FC068E073E0CE010E944D
:1032D0009E2B882319F00E94B20545C062E073E07E
:1032E000CE010E949E2B882319F00E94B30C3BC094
:1032F00066EF72E0CE010E949E2B882319F00E9497
:103300002E0C31C064EE72E0CE010E949E2B882309
:1033100019F00E943C0D27C06EED72E0CE010E94B4
:103320009E2B882319F00E94810C1DC06CEC72E06A
:10333000CE010E949E2B882319F00E949A0C13C084
:1033400060EF72E0CE010E949E2B882319F00E944C
:10335000540309C06AEE72E0CE010E949E2B8823BE
:1033600021F00E94090C81E001C080E0DF91CF9143
:103370000895CF93DF93EC010E94F418811107C0E8
:10338000CE010E94BE02DF91CF910C94B802DF9172
:10339000CF9108950F931F93CF93DF9300D000D068
:1033A00000D0CDB7DEB78C010E94A0028823D9F0EF
:1033B00068E473E0CE0101960E94642BCE01019671
:1033C0000E94B919CE0101960E94F62AF80180E008
:1033D00090E01192019682339105D9F7109247033C
:1033E0000E94B80217C061E171E08DE094E00E9494
:1033F0003F286AE073E08DE094E00E940E28B80157
:103400008DE094E00E943F286CEF72E08DE094E044
:103410000E944C2810927B0326960FB6F894DEBFCC
:103420000FBECDBFDF91CF911F910F91089588E41A
:1034300093E00E94890F882321F088E493E00C94A4
:10344000CA19089584B5836884BD17BC61E086E01D
:103450000C94772584B5836284BD18BC61E085E057
:103460000C947725CF93DF9360E08CE00E94B02529
:1034700060E088E00E94B025C7E0D0E060E084E032
:103480000E94B0258091DD0390E00C2E02C095953E
:1034900087950A94E2F780FF02C061E001C060E016
:1034A00088E00E94B02561E084E00E94B025219769
:1034B00028F761E08CE0DF91CF910C94B025CF9399
:1034C000DF93EC0161E08CE00E94772561E087E00A
:1034D0000E94772561E088E00E94772561E084E022
:1034E0000E9477251092DD03CE010E94321A60E01F
:1034F00087E0DF91CF910C94B025E0EBF0E0908174
:103500009368908387708093B1001092B30061E05C
:103510008BE00C947725E0EBF0E090819362908350
:1035200087708093B1001092B40061E083E00C9446
:103530007725EF92FF920F931F93CF93DF931F9204
:10354000CDB7DEB77C018B018CED93E049830E94FF
:103550005F1AF7011183008349814283138641304A
:1035600029F58091DD03817E8093DD038CED93E06E
:103570000E94321A61E08BE00E94772561E083E0CF
:103580000E94772561E08BE00E94B02561E083E036
:103590000E94B02581E00E947D1A81E00E948B1A72
:1035A0008FEF8093B3008093B40022C0423001F5C6
:1035B0008091DD038E718093DD038CED93E00E949A
:1035C000321A61E085E00E94772561E086E00E9482
:1035D000772561E085E00E94B02561E086E00E94E9
:1035E000B0250E94221A0E942A1A8FEF87BD88BD3B
:1035F0000F90DF91CF911F910F91FF90EF90089561
:103600000F931F93CF93DF93EC017A81713041F0D8
:10361000723009F0C4C0B0E4A0E831E020E204C098
:10362000B0E1A8E032E024E08B85413019F483FF5B
:1036300005C00DC0423049F483FF09C0613011F468
:10364000805F01C080518B8741C0433031F46130CD
:1036500011F4885FF8CF8850F6CF4430B9F5613067
:1036600011F48F5F01C081508B875B855F735B872F
:10367000852F90E0503148F4E3E5F1E0E81BF90BC9
:103680005081FC01ED5BFE4F1FC060EF650F6031A4
:1036900038F4FC01ED5CFE4F5081E3E6F1E012C02E
:1036A0005052503148F4E3E7F1E0E81BF90B508148
:1036B000FC01ED5DFE4F08C0FC01ED5EFE4F508148
:1036C000E3E8F1E0E81BF90B808102C05FEF8FEFC8
:1036D0009B859F739B87713029F45093B30080932F
:1036E000B40004C0723011F457BD88BD132F122BE3
:1036F0000B2F0A2B802F812B80959091DD0389233E
:103700008093DD039B85443001F5903118F4812BC3
:103710008093DD0380EF890F803130F43A2B809164
:10372000DD03832B8093DD0380EE890F803128F445
:103730008091DD03802B8093DD039053903148F519
:103740002B2B8091DD03822B0EC0492F4695469589
:10375000469550E048305105E0F44C5C5F4FFA016B
:103760000C94A52E812B8093DD0313C03A2B382BAC
:103770003093DD030EC0A82BA093DD030AC0802B7D
:10378000F2CFB82BB093DD0304C02B2B282B209352
:10379000DD038CED93E00E94321A8B8501C080E03E
:1037A000DF91CF911F910F9108951092DC0308953E
:1037B0000F931F93DC0112960C9110E00930110554
:1037C000C0F5F801E45CFF4F0C94A52EDC01ED91EF
:1037D000FC910084F185E02D29C0DC01ED91FC9184
:1037E0000284F385E02D22C0DC01ED91FC9104847C
:1037F000F585E02D1BC0DC01ED91FC910684F78579
:10380000E02D14C0DC01ED91FC910088F189E02DE0
:103810000DC0DC01ED91FC910288F389E02D06C01A
:10382000DC01ED91FC910488F589E02D1F910F9149
:1038300009941F910F910895CF93DF93EC01CB0171
:10384000BA0126E030E040E050E00E94862E62306F
:1038500071058105910559F18CF46115710581059A
:103860009105F1F06130710581059105C1F5E8819F
:10387000F9810480F581E02D65E02DC0643071058B
:103880008105910511F1D4F065307105810591052F
:1038900031F5E881F9810480F581E02D66E01BC0F7
:1038A000E881F9810480F581E02D64E014C0E881AD
:1038B000F9810480F581E02D61E00DC0E881F98196
:1038C0000480F581E02D63E006C0E881F981048081
:1038D000F581E02D62E0CE01DF91CF910994DF9177
:1038E000CF910895CF93DF934770552766277727A9
:1038F00041505109DC01CD91DC914730510528F44C
:103900004B5B5F4FFA010C94A52EEC81FD8161E0C9
:103910001BC0EC81FD8165E017C0EC81FD8164E096
:1039200013C0EC81FD8166E00FC0EC81FD8162E097
:103930000BC0EC81FD816AE007C0EC81FD8168E08D
:1039400003C0EC81FD8169E0DF91CF910994AF92D2
:10395000BF92DF92EF92FF920F931F93CF93DF936B
:103960001F92CDB7DEB78C01FC018281843041F01B
:10397000883031F0833031F0863021F022E003C00E
:1039800024E001C023E0A12CB12CE62EF12CDD2493
:10399000D394F801EA0DFB1DC7010A2C02C09595CE
:1039A00087950A94E2F7678180FD6D2583812983DD
:1039B0000E94B025FFEFAF1ABF0A2981A21648F373
:1039C0000F90DF91CF911F910F91FF90EF90DF90BB
:1039D000BF90AF9008950F931F93CF93DF93EC01A7
:1039E000E881F9810480F581E02D8C010D5B1F4F8A
:1039F000D8018C91882311F062E001C060E0CE0113
:103A00000995E881F9810480F581E02DD8018C9138
:103A1000882311F063E001C061E0CE0109958BA518
:103A20009CA50E940825E881F9810480F581E02D9C
:103A3000D8018C91882311F062E001C060E0CE01D2
:103A4000DF91CF911F910F910994CF93DF93EC01F8
:103A500020E030E0A9016B897C898D899E890E94D4
:103A6000722D18161CF4EFA5F8A902C0E9A9FAA94D
:103A7000DF91CF9109944370552766277727DC01A2
:103A8000ED91FC910480F581E02D423051056105F6
:103A9000710571F0433051056105710559F04130F0
:103AA00051056105710511F062E005C063E003C0D6
:103AB00061E001C060E00994CF93DF93EC01CB019A
:103AC000BA0123E030E040E050E00E94862E6130F1
:103AD00071058105910581F06230710581059105BF
:103AE00091F0672B682B692BC1F4E881F981048080
:103AF000F581E02D64E00DC0E881F9810480F58155
:103B0000E02D61E006C0E881F9810480F581E02DB7
:103B100062E0CE01DF91CF910994DF91CF910895BA
:103B20004370552766277727DC01ED91FC910480CF
:103B3000F581E02D423051056105710571F043308A
:103B400051056105710559F0413051056105710557
:103B500011F065E005C066E003C06AE001C069E0FD
:103B60000994CF93DF93EC018A81882381F0E88167
:103B7000F9810480F581E02D60E0CE0109958EA5E4
:103B80008F3F29F06DA5DF91CF910C94B025DF9187
:103B9000CF910895CF93DF93EC018A81882351F16F
:103BA00061E08B810E94772561E08C810E947725FE
:103BB0008A81843011F0883039F461E08D810E946F
:103BC000772561E08E8106C0833011F0863021F4C4
:103BD00061E08D810E9477258EA58F3F59F061E0CD
:103BE0000E9477256DA581E068278EA5DF91CF9192
:103BF0000C94B025DF91CF910895CF92DF92EF9290
:103C0000FF920F931F93CF93DF93EC014BA15CA125
:103C10006DA17EA1452B462B472B09F44DC00E9478
:103C2000BD246B017C010FA118A529A53AA54BA1C4
:103C30005CA16DA17EA1400F511F621F731F401731
:103C400051076207730730F0C416D506E606F7067B
:103C500058F405C0C416D506E606F70668F1C01686
:103C6000D106E206F30640F5FE01ED5BFF4F8081D1
:103C70004B855C856D857E85882329F04F5F5F4F7E
:103C80006F4F7F4F04C041505109610971094B8743
:103C90005C876D877E87E881F9814B855C856D85C2
:103CA0007E850680F781E02DCE010995CFA2D8A6AA
:103CB000E9A6FAA681E001C080E0DF91CF911F91D3
:103CC0000F91FF90EF90DF90CF9008950F931F9387
:103CD000FC01678570898189928903851485258512
:103CE0003685601B710B820B930B1F910F9108950A
:103CF000FC0163857485858596850895FC0143875D
:103D00005487658776874787508B618B728B13AAA0
:103D100014AA15AA16AA13A214A215A216A20895EF
:103D20002F923F924F925F926F927F928F929F92CB
:103D3000AF92BF92CF92DF92EF92FF920F931F93B9
:103D4000CF93DF9300D000D0CDB7DEB71C01FC01CC
:103D500087849088A188B28883859485A585B68557
:103D6000881A990AAA0ABB0A63897489858996897F
:103D70009B01AC010E94762D6B017C01F101638DEA
:103D8000748D858D968D9B01AC010E94BF2B9B018C
:103D9000AC01C701B6010E94272C0E948F2C811410
:103DA0009104A104B104A1F462307105810591056B
:103DB0000CF07CC0F10113A214A215A216A2138A62
:103DC000148A158A168A13AA14AA15AA16AA03C158
:103DD000F10103A914A925A936A9ED5BFF4F181419
:103DE00019041A041B04FCF410161106120613061B
:103DF0004CF4681579058A059B054CF52081211145
:103E000055C025C0011511052105310509F44EC025
:103E1000681579058A059B050CF048C080818823C8
:103E200009F444C037C01016110612061306F4F444
:103E3000002711279801081919092A093B09601759
:103E40007107820793071CF42081222379F19B01DB
:103E5000AC0188279927DC01821B930BA40BB50BBF
:103E6000F10183AB94ABA5ABB6AB20C00115110536
:103E700021053105D9F0CC24DD247601C818D908F4
:103E8000EA08FB086C157D058E059F057CF4808192
:103E900081110CC030952095109501951F4F2F4F23
:103EA0003F4FF10103AB14AB25AB36ABF101C3A817
:103EB000D4A8E5A8F6A881010D5B1F4FC114D10459
:103EC000E104F10491F487A990ADA1ADB2AD83AF47
:103ED00094AFA5AFB6AF81E0181419041A041B04FF
:103EE0000CF080E0F801808340C0F10183AC94AC19
:103EF000A5ACB6ACA5019401C501B4010E94BF2BCD
:103F00002B013C01C701B6010E94C22C20E030E029
:103F100040E850E40E94762D20E030E040E85FE386
:103F20000E94BF2B9B01AC01C301B2010E94272C50
:103F30009B01AC01C501B4010E94BE2B2B013C01C9
:103F4000F101FF9680809180A280B3809401A50149
:103F50000E94722D181614F442015301C401D501B8
:103F6000F10183AF94AFA5AFB6AFFFEFCF1ADF0A71
:103F7000EF0AFF0AF101C3AAD4AAE5AAF6AA23AD63
:103F800034AD45AD56ADCA01B90129833A834B839F
:103F90005C830E94942CF10163A374A385A396A370
:103FA00029813A814B815C8160E074E284E799E485
:103FB0000E94272CF101638B748B858B968BF80103
:103FC0002081211108C0DC01CB01B058F101838BA5
:103FD000948BA58BB68B0F900F900F900F90DF9165
:103FE000CF911F910F91FF90EF90DF90CF90BF90F6
:103FF000AF909F908F907F906F905F904F903F9089
:104000002F9008950F931F93FC0107851089218934
:104010003289041715072607370741F04787508B69
:10402000618B728B1F910F910C94901E1F910F91B9
:1040300008950F931F93FC0103851485258536850C
:10404000400F511F621F731F1F910F910C9402208C
:104050004F925F926F927F928F929F92AF92BF9298
:10406000CF92DF92EF92FF92CF93DF93EC016A0140
:104070007B018B8C9C8CAD8CBE8C9A01AB01C501F5
:10408000B4010E94232C882309F443C06BA97CA9A6
:104090008DA99EA90E94C22C2B013C01A70196016B
:1040A000C501B4010E94272C9B01AC01C301B201E0
:1040B0000E94762D0E948F2C6BAB7CAB8DAB9EABA0
:1040C000A701960160E070E080E89FE30E94272C42
:1040D0000E94DD2D20E034E244E759E40E94762D71
:1040E0006FAB78AF89AF9AAFCB8EDC8EED8EFE8E44
:1040F000CE01DF91CF91FF90EF90DF90CF90BF90F6
:10410000AF909F908F907F906F905F904F900C94A6
:10411000901EDF91CF91FF90EF90DF90CF90BF90F6
:10412000AF909F908F907F906F905F904F90089589
:104130000F931F93CF93DF93EC010E94FD1D882303
:1041400019F0CE010E94901E20E030E0A9016B8999
:104150007C898D899E890E94232C811110C081E069
:104160000F85188929893A894B855C856D857E85FF
:10417000041715072607370719F480E001C081E00E
:10418000DF91CF911F910F9108950F931F93FC0121
:1041900082EF91E0918380831282138614861586C4
:1041A00016861786108A118A128A138A148A158A2B
:1041B000168A00E010E020E83FE3078B108F218F84
:1041C000328F138E148E158E168E078F10A321A397
:1041D00032A313A214A215A216A281E090E094A724
:1041E00083A78FEF86A717A210A611A612A6138287
:1041F00014821582168270AB67A752AB41AB13AA2B
:1042000014AA15AA16AA17AA10AE11AE12AE13AEB2
:1042100014AE15AE16AEDF01DF960D931D932D93F0
:104220003C93139714961C9217821086118612865F
:10423000B901A801CF011F910F910C942820CF92B2
:10424000DF92EF92FF920F931F93CF93DF93EC01D6
:104250006A017B019A01AB016F89788D898D9A8DF6
:104260000E94232C882309F446C0CF8AD88EE98E79
:10427000FA8E8E01015C1F4FA701960160E074E287
:1042800084E799E40E94272CF8016083718382837C
:1042900093838BA99CA9ADA9BEA9181619061A0665
:1042A0001B064CF56B897C898D899E899B01AC012D
:1042B0000E94762D6B017C016B8D7C8D8D8D9E8D8A
:1042C0009B01AC010E94BF2B9B01AC01C701B60151
:1042D0000E94272C0E948F2C6BAB7CAB8DAB9EABCE
:1042E000CE01DF91CF911F910F91FF90EF90DF9062
:1042F000CF900C94901EDF91CF911F910F91FF9062
:10430000EF90DF90CF900895CF92DF92EF92FF92DF
:10431000CF93DF93EC016A017B0120E030E0A9013B
:10432000C701B6010E94232C882359F0B701A601CA
:10433000CE01DF91CF91FF90EF90DF90CF900C9462
:104340002820DF91CF91FF90EF90DF90CF900895DC
:104350006F927F928F929F92AF92BF92CF92DF9295
:10436000EF92FF920F931F93CF93DF93EC013A01EB
:104370008B012B893C894D895E89B301C8010E945C
:10438000232C882309F454C0CF88D88CE98CFA8C6C
:1043900046015701B7FAB094B7F8B094A50194015B
:1043A000B301C8010E94232C87FD0BC0A701960111
:1043B000B301C8010E94722D18162CF43601870132
:1043C00002C03401850120E030E0A901B301C80139
:1043D0000E94232C811105C01BA21CA21DA21EA29B
:1043E00021C09301A80160E074E284E799E40E948F
:1043F000272C9F770E94942C6BA37CA38DA39EA354
:104400007E0183E4E80EF11CDD24D39420E030E04B
:10441000A901B301C8010E94722D18160CF0D12C0D
:10442000F701D082C301D8018B8B9C8BAD8BBE8BE7
:10443000DF91CF911F910F91FF90EF90DF90CF9080
:10444000BF90AF909F908F907F906F900895FC01E8
:1044500063897489858996890895CF93DF93EC01E8
:10446000CE010E9498208111FBCFDF91CF9108955A
:104470000F931F93FC010785108921893289438599
:10448000548565857685041715072607370779F063
:10449000ED5BFF4F40175107620773071CF421E0E3
:1044A000208301C010821F910F910C94FD1D80E0AC
:1044B0001F910F910895CF93DF93EC010E9402208A
:1044C000CE01DF91CF910C942D221F920F920FB647
:1044D0000F9211242F933F934F935F936F937F938A
:1044E0008F939F93AF93BF93EF93FF938091DF03DD
:1044F00087FF05C010928500109284001AC0209199
:10450000DF03332727FD30958091DE0390E02817E5
:1045100039077CF48091DF03992787FD9095FC0192
:10452000EE0FFF1FE80FF91FE052FC4F808186FD60
:1045300015C08091DF038F5F8093DF032091DF033D
:10454000332727FD30958091DE0390E02817390747
:10455000BCF48091DF038C305CF112C08091DF03EA
:10456000992787FD9095FC01EE0FFF1FE80FF91FBB
:10457000E052FC4F808160E08F730E94B025D9CF5C
:104580008091840090918500049680349C4918F4B1
:1045900080E49CE905C08091840090918500049698
:1045A00090938900809388008FEF8093DF0338C059
:1045B00020918400309185008091DF03992787FD49
:1045C0009095FC01EE0FFF1FE80FF91FE052FC4F22
:1045D00081819281820F931F90938900809388003C
:1045E0008091DF03992787FD9095FC01EE0FFF1F57
:1045F000E80FF91FE052FC4F808186FF11C08091C7
:10460000DF03992787FD9095FC01EE0FFF1FE80F50
:10461000F91FE052FC4F808161E08F730E94B0254A
:10462000FF91EF91BF91AF919F918F917F916F918A
:104630005F914F913F912F910F900FBE0F901F9060
:1046400018952091DE032C30A0F431E0320F309326
:10465000DE03FC012083822F90E0FC01EE0FFF1FA0
:10466000E80FF91FE052FC4F88EB9BE092838183B7
:1046700008952FEFFC0120830895DF92EF92FF92BF
:104680000F931F93CF93DF93EC01D62E7A0189010C
:1046900088818C3008F066C061E08D2D0E947725FE
:1046A0008881A82FB0E0FD01EE0FFF1FEA0FFB1F6E
:1046B000E052FC4F2D2D2F739081907C922B908394
:1046C00060E272E06E197F0977FF02C06D5F7F4F75
:1046D0007595679575956795698340E659E0401B28
:1046E000510B57FF02C04D5F5F4F5595479555954C
:1046F00047954A836CE00E94442E9CE0899FB0015C
:10470000112420E030E0A901460F571FFA01EE0FF7
:10471000FF1FE40FF51FE052FC4F908196FD16C07D
:104720002F5F3F4F2C30310571F781110FC0109270
:10473000800082E0809381001092850010928400B6
:10474000B19A80916F00826080936F00888190E0C1
:10475000FC01EE0FFF1FE80FF91FE052FC4F8081B4
:10476000806480838881DF91CF911F910F91FF90AA
:10477000EF90DF90089520E639E040E252E00C949B
:104780003D23FC01808190E0FC01EE0FFF1FE80F4C
:10479000F91FE052FC4F80818F7B80830895FC01DC
:1047A00080818C3070F5918128E830E0291B310937
:1047B00097FD3395220F331F220F331F62177307A4
:1047C0007CF0928128E532E0291B310997FD339571
:1047D000220F331F220F331F621773070CF49B0144
:1047E00022503109220F331F4FB7F89490E0FC019B
:1047F000EE0FFF1FE80FF91FE052FC4F32832183B9
:104800004FBF08954F925F926F927F92AF92BF9287
:10481000CF92DF92EF92FF920F931F93CF93DF938C
:10482000EC01603282E078070CF040C077FD06C0F2
:10483000653B71052CF064EB70E002C060E070E055
:10484000898128E830E0281B310987FD3395220F44
:10485000331F220F331F5901CC24B7FCC094DC2C2A
:10486000882777FD8095982F2A8148E552E0421BE2
:10487000510927FD5395440F551F440F551F2A0119
:10488000662457FC6094762C7F926F925F924F92D1
:1048900014EBE12EF12C00E010E020E030E0A90163
:1048A0000E94AF2A0F900F900F900F90CE01DF91D2
:1048B000CF911F910F91FF90EF90DF90CF90BF901D
:1048C000AF907F906F905F904F900C94CF231F928A
:1048D0000F920FB60F9211242F933F938F939F93B4
:1048E000AF93BF938091050490910604A0910704B3
:1048F000B09108043091040423E0230F2D3720F4F5
:104900000196A11DB11D05C026E8230F0296A11D29
:10491000B11D209304048093050490930604A09392
:104920000704B09308048091090490910A04A091AF
:104930000B04B0910C040196A11DB11D80930904D4
:1049400090930A04A0930B04B0930C04BF91AF9111
:104950009F918F913F912F910F900FBE0F901F90BD
:1049600018952FB7F8946091050470910604809112
:104970000704909108042FBF08953FB7F8948091E1
:10498000090490910A04A0910B04B0910C0426B57F
:10499000A89B05C02F3F19F00196A11DB11D3FBF77
:1049A0006627782F892F9A2F620F711D811D911D07
:1049B00042E0660F771F881F991F4A95D1F7089527
:1049C000CF92DF92EF92FF92CF93DF936B017C0146
:1049D0000E94BD24EB01C114D104E104F10489F06B
:1049E0000E94BD2B0E94BD246C1B7D0B683E734052
:1049F00090F381E0C81AD108E108F108C851DC4FF2
:104A0000EACFDF91CF91FF90EF90DF90CF900895A4
:104A10008230910538F0880F991F880F991F0597EC
:104A20000197F1F70895789484B5826084BD84B5C8
:104A3000816084BD85B5826085BD85B5816085BD99
:104A4000EEE6F0E0808181608083E1E8F0E01082B2
:104A5000808182608083808181608083E0E8F0E0F3
:104A6000808181608083E1EBF0E0808184608083DD
:104A7000E0EBF0E0808181608083EAE7F0E0808114
:104A80008460808380818260808380818160808374
:104A90008081806880831092C1000895833081F006
:104AA00028F4813099F08230A1F008958730A9F080
:104AB0008830B9F08430D1F4809180008F7D03C0BC
:104AC000809180008F7780938000089584B58F77E0
:104AD00002C084B58F7D84BD08958091B0008F772A
:104AE00003C08091B0008F7D8093B0000895CF9374
:104AF000DF9390E0FC01EB5DFC4F2491FC01E75C4F
:104B0000FC4F8491882349F190E0880F991FFC01A4
:104B1000E95AFC4FA591B491835B9C4FFC01C59170
:104B2000D4919FB7611108C0F8948C91209582238D
:104B30008C93888182230AC0623051F4F8948C915E
:104B4000322F309583238C938881822B888304C0F5
:104B5000F8948C91822B8C939FBFDF91CF91089515
:104B60000F931F93CF93DF931F92CDB7DEB7282FFC
:104B700030E0F901EF5EFC4F8491F901EB5DFC4FF1
:104B80001491F901E75CFC4F04910023C9F08823DC
:104B900021F069830E944E256981E02FF0E0EE0F3D
:104BA000FF1FE35BFC4FA591B4919FB7F8948C91E4
:104BB000611103C01095812301C0812B8C939FBF8D
:104BC0000F90DF91CF911F910F910895FC01818D7E
:104BD000228D90E0805C9F4F821B91098F739927F3
:104BE0000895FC01918D828D981731F0828DE80F28
:104BF000F11D858D90E008958FEF9FEF0895FC01E2
:104C0000918D828D981761F0828DDF01A80FB11D03
:104C10005D968C91928D9F5F9F73928F90E0089527
:104C20008FEF9FEF089583E897E2892B49F080E0AA
:104C300090E0892B29F00E94832781110C940000B9
:104C40000895FC01848DDF01A80FB11DA35ABF4F49
:104C50002C91848D90E001968F739927848FA6897B
:104C6000B7892C93A089B1898C9180648C93938DA2
:104C7000848D981306C00288F389E02D80818F7D92
:104C800080830895CF93DF93EC01888D8823C9F04A
:104C9000EA89FB89808185FD05C0A889B9898C9145
:104CA00086FD0FC00FB607FCF5CF808185FFF2CFE0
:104CB000A889B9898C9185FFEDCFCE010E9421266C
:104CC000E7CFDF91CF910895CF92DF92FF920F93BC
:104CD0001F93CF93DF931F92CDB7DEB76C0181E0B6
:104CE000D60158968C9358975B969C915B975C96EF
:104CF0008C915C97981307C05096ED91FC91519759
:104D0000808185FD2EC0F601038D10E00F5F1F4FDF
:104D10000F731127F02EF601848DF81211C00FB613
:104D200007FCF9CFD6015096ED91FC915197808107
:104D300085FFF1CFC60169830E9421266981EBCFEF
:104D4000838DE80FF11DE35AFF4F6083D6015B9618
:104D50000C935B975296ED91FC9153978081806202
:104D60000CC0D6015696ED91FC91579760835096F2
:104D7000ED91FC91519780818064808381E090E087
:104D80000F90DF91CF911F910F91FF90DF90CF9007
:104D90000895BF92CF92DF92EF92FF92CF93DF936D
:104DA000EC016A017B01B22EE889F98982E08083F7
:104DB000411581EE580761057105A1F060E079E0C9
:104DC0008DE390E0A70196010E94642E21503109E5
:104DD000410951095695479537952795211580E149
:104DE000380798F0E889F989108260E874E88EE164
:104DF00090E0A70196010E94642E215031094109DB
:104E000051095695479537952795EC85FD85308353
:104E1000EE85FF852083188EEC89FD89B082EA89B2
:104E2000FB89808180618083EA89FB898081886039
:104E30008083EA89FB89808180688083EA89FB8995
:104E400080818F7D8083DF91CF91FF90EF90DF9005
:104E5000CF90BF9008951F920F920FB60F9211241A
:104E60002F938F939F93EF93FF93E0911D04F09105
:104E70001E048081E0912304F091240482FD12C07D
:104E80009081809126048F5F8F7320912704821771
:104E900051F0E0912604F0E0E35FFB4F958F8093A3
:104EA000260401C08081FF91EF919F918F912F91F6
:104EB0000F900FBE0F901F9018951F920F920FB674
:104EC0000F9211242F933F934F935F936F937F9390
:104ED0008F939F93AF93BF93EF93FF938DE094E0F5
:104EE0000E942126FF91EF91BF91AF919F918F91E9
:104EF0007F916F915F914F913F912F910F900FBED6
:104F00000F901F9018958DE094E00E94E62521E017
:104F1000892B09F420E0822F08951092100410923A
:104F20000F0488EE93E0A0E0B0E08093110490932A
:104F30001204A0931304B09314048CE092E09093B5
:104F40000E0480930D0485EC90E090931A048093F6
:104F5000190484EC90E090931C0480931B0480EC73
:104F600090E090931E0480931D0481EC90E0909358
:104F7000200480931F0482EC90E09093220480939D
:104F8000210486EC90E090932404809323041092F3
:104F900026041092270410922804109229040895E0
:104FA000CF92DF92EF92FF920F931F93CF93DF93F5
:104FB0007C016A01EB0100E010E00C151D0571F0A9
:104FC0006991D701ED91FC910190F081E02DC7012D
:104FD0000995892B19F00F5F1F4FEFCFC801DF91A3
:104FE000CF911F910F91FF90EF90DF90CF90089598
:104FF0006115710581F0DB010D900020E9F7AD012D
:1050000041505109461B570BDC01ED91FC91028088
:10501000F381E02D099480E090E00895EF92FF92F3
:105020000F931F93CF93DF938C017B01C0E0D0E0FF
:10503000F701EC0FFD1F6491662359F0F801A08180
:10504000B181ED91FC91C8010995892B11F0219650
:10505000EFCFCE01DF91CF911F910F91FF90EF9095
:105060000895DC01ED91FC91DB0114964D915C916A
:1050700015976D917C910280F381E02D09940C9439
:10508000F827DC01ED91FC910190F081E02D09946D
:1050900068E172E00C94F8270F931F93CF93DF938E
:1050A000EC010E940E288C01CE010E944828800F3E
:1050B000911FDF91CF911F910F9108950F931F932F
:1050C000CF93DF93EC010E94F8278C01CE010E9460
:1050D0004828800F911FDF91CF911F910F91089564
:1050E0008F929F92AF92BF92CF92DF92EF92FF92F8
:1050F0000F931F93CF93DF93CDB7DEB7A1970FB672
:10510000F894DEBF0FBECDBF7C01C42EE52FCB01CE
:10511000D22E19A221E02D1510F02AE0D22E8E01F8
:105120000F5D1F4F8D2C912CA12CB12C6C2D7E2F3F
:10513000A50194010E94642E8C2DD29E8019112409
:10514000015011098A3014F4805D01C0895CF801B6
:105150008083211531054105510521F0C22EE32F31
:10516000CA01E4CFB801C7010E94F827A1960FB683
:10517000F894DEBF0FBECDBFDF91CF911F910F918D
:10518000FF90EF90DF90CF90BF90AF909F908F9067
:105190000895CF92DF92EF92FF920F931F93CF93D8
:1051A000DF93EC016A017B012115310579F4E88177
:1051B000F9810190F081E02D642FDF91CF911F9153
:1051C0000F91FF90EF90DF90CF9009942A30310536
:1051D000E9F477FF1AC06DE20E9441288C01442750
:1051E0005527BA014C195D096E097F092AE0CE01E5
:1051F0000E947028800F911FDF91CF911F910F9116
:10520000FF90EF90DF90CF9008952AE0B701A601BC
:10521000CE01DF91CF911F910F91FF90EF90DF9022
:10522000CF900C9470289A01AB01662757FD6095CA
:10523000762F0C94C9280F931F93CF93DF93EC0123
:105240009A01AB01662757FD6095762F0E94C92809
:105250008C01CE010E944828800F911FDF91CF91D1
:105260001F910F9108950F931F93CF93DF93EC013C
:105270000E94C9288C01CE010E944828800F911FEE
:10528000DF91CF911F910F9108952115310541F4C0
:10529000DC01ED91FC910190F081E02D642F0994E7
:1052A0000C9470289A01462F50E060E070E00C9456
:1052B00045290F931F93CF93DF93EC019A01462F5B
:1052C00050E060E070E00E9445298C01CE010E9410
:1052D0004828800F911FDF91CF911F910F91089562
:1052E0004F925F926F927F928F929F92AF92BF92F6
:1052F000CF92DF92EF92FF920F931F93CF93DF93A2
:10530000EC016A017B01B22E9A01AB01C701B60123
:105310000E941B2E882319F06BE172E027C0260142
:105320003701E89477F82FEF3FEF4FE75FE7C301CE
:10533000B2010E941B2E81110DC02FEF3FEF4FE7EE
:105340005FE7C301B2010E94232C18161CF46FE121
:1053500072E00CC02FEF3FEF4FE75FE4C701B601EB
:105360000E94722D1816ACF463E272E0CE01DF9158
:10537000CF911F910F91FF90EF90DF90CF90BF9052
:10538000AF909F908F907F906F905F904F900C9414
:10539000F8272FEF3FEF4FE75FECC701B6010E9400
:1053A000232C87FDE1CF20E030E0A901C701B60141
:1053B0000E94232C87FF0AC06DE2CE010E94412883
:1053C0008C01F7FAF094F7F8F09402C000E010E0D6
:1053D000A12C60E070E080E09FE3AB1441F020E09E
:1053E00030E040E251E40E94272CA394F6CF9B01C9
:1053F000AC01C701B6010E94BF2B6B017C010E946A
:10540000942C2B013C010E94C02C9B01AC01C701D4
:10541000B6010E94BE2B6B017C012AE0B301A20100
:10542000CE010E947028080F191FBB2039F067E2D7
:1054300072E0CE010E94F827080F191F7B2C7720FD
:1054400041F120E030E040E251E4C701B6010E94A2
:10545000762D6B017C010E948F2C4B01AA2497FCB6
:10546000A094BA2C2AE030E0B501A401CE010E943C
:10547000C928080F191FC501B4010E94C22C9B0145
:10548000AC01C701B6010E94BE2B6B017C017A946E
:10549000D6CFC801DF91CF911F910F91FF90EF9070
:1054A000DF90CF90BF90AF909F908F907F906F9044
:1054B0005F904F9008950C9470290F931F93CF9392
:1054C000DF93EC010E9470298C01CE010E944828D4
:1054D000800F911FDF91CF911F910F910895CF936E
:1054E000DF9300D000D0CDB7DEB79B01AC016115D2
:1054F00071058105910569F069833A834B835C836B
:105500000E94563029813A814B815C810E94862E0F
:1055100003C060E070E0CB010F900F900F900F90F0
:10552000DF91CF910895CF92DF92EF92FF926B01BE
:105530007C01621773078407950764F4CA01B901F7
:105540006C197D098E099F090E946F2A6C0D7D1DC3
:105550008E1D9F1DFF90EF90DF90CF9008954F928A
:105560005F926F927F92AF92BF92CF92DF92EF9253
:10557000FF920F931F93CF93DF93CDB7DEB729012F
:105580003A01621B730B840B950B29893A894B896D
:105590005C892A193B094C095D09298B3A8B4B8B95
:1055A0005C8B9B01AC0169897A898B899C890E94FB
:1055B000342EE418F50806091709A80197010E947E
:1055C000862E2A0D3B1D4C1D5D1DCA01B901DF91C0
:1055D000CF911F910F91FF90EF90DF90CF90BF90F0
:1055E000AF907F906F905F904F900895FC01808105
:1055F00091810C94782FCF93DF93EC01888199816E
:10560000009711F00E94782F198218821D821C8247
:105610001B821A82DF91CF9108950F931F93CF932E
:10562000DF93EC018B016F5F7F4F888199810E942E
:105630006430009731F0998388831B830A8381E06B
:1056400001C080E0DF91CF911F910F910895CF931A
:10565000DF93EC0188819981892B29F08A819B81D4
:105660008617970760F4CE010E940D2B882341F026
:105670008C819D81892B19F4E881F981108281E068
:10568000DF91CF910895EF92FF920F931F93CF93E5
:10569000DF93EC017B018A01BA010E94272B811163
:1056A00004C0CE010E94FB2A07C01D830C83B701F2
:1056B000888199810E949631CE01DF91CF911F910F
:1056C0000F91FF90EF900895FC01118210821382D8
:1056D0001282158214826115710559F0FB01019047
:1056E0000020E9F7AF0141505109461B570B0C94BC
:1056F000432B0895FA01DB0114964D915C911597A7
:10570000DC0114962D913C911597241B350B2E1717
:105710003F0788F08D919C91009769F0DB016D91B6
:105720007C916115710539F08E0F9F1F0E949D318C
:1057300021E0892B09F020E0822F0895FC014481AB
:105740005581FB01248135814217530720F040E049
:1057500050E00C947A2B80E0089508950E94132560
:105760000E94AD2B0E94630BC3E1D6E20E94171A80
:105770002097E1F30E941326F9CF08955058BB27D4
:10578000AA270ED075C166D130F06BD120F031F46C
:105790009F3F11F41EF45BC10EF4E095E7FB51C18D
:1057A000E92F77D180F3BA1762077307840795074B
:1057B00018F071F49EF58FC10EF4E0950B2EBA2F00
:1057C000A02D0B01B90190010C01CA01A001112407
:1057D000FF27591B99F0593F50F4503E68F11A16B3
:1057E000F040A22F232F342F4427585FF3CF469544
:1057F00037952795A795F0405395C9F77EF41F1666
:10580000BA0B620B730B840BBAF09150A1F0FF0F2F
:10581000BB1F661F771F881FC2F70EC0BA0F621F1B
:10582000731F841F48F4879577956795B795F7950B
:105830009E3F08F0B3CF9395880F08F09927EE0F9D
:10584000979587950895D9D008F481E008950CD0F4
:105850000FC107D140F0FED030F021F45F3F19F0C6
:10586000F0C0511139C1F3C014D198F39923C9F391
:105870005523B1F3951B550BBB27AA276217730756
:10588000840738F09F5F5F4F220F331F441FAA1F0A
:10589000A9F333D00E2E3AF0E0E830D091505040CA
:1058A000E695001CCAF729D0FE2F27D0660F771F78
:1058B000881FBB1F261737074807AB07B0E809F05A
:1058C000BB0B802DBF01FF2793585F4F2AF09E3FEF
:1058D000510568F0B6C000C15F3FECF3983EDCF3C1
:1058E000869577956795B795F7959F5FC9F7880F68
:1058F000911D9695879597F90895E1E0660F771FBA
:10590000881FBB1F621773078407BA0720F0621B4A
:10591000730B840BBA0BEE1F88F7E095089504D043
:105920006894B111D9C00895BCD088F09F5790F009
:10593000B92F9927B751A0F0D1F0660F771F881FB4
:10594000991F1AF0BA95C9F712C0B13081F0C3D0CF
:10595000B1E00895C0C0672F782F8827B85F39F06D
:10596000B93FCCF3869577956795B395D9F73EF413
:1059700090958095709561957F4F8F4F9F4F0895BB
:10598000E89409C097FB3EF49095809570956195D9
:105990007F4F8F4F9F4F9923A9F0F92F96E9BB278F
:1059A0009395F695879577956795B795F111F8CF0B
:1059B000FAF4BB0F11F460FF1BC06F5F7F4F8F4F76
:1059C0009F4F16C0882311F096E911C0772321F06C
:1059D0009EE8872F762F05C0662371F096E8862F04
:1059E00070E060E02AF09A95660F771F881FDAF75B
:1059F000880F9695879597F90895990F0008550F88
:105A0000AA0BE0E8FEEF16161706E807F907C0F044
:105A100012161306E407F50798F0621B730B840B4C
:105A2000950B39F40A2661F0232B242B252B21F426
:105A300008950A2609F4A140A6958FEF811D811DC6
:105A4000089597F99F6780E870E060E008959FEF00
:105A500080EC089500240A94161617061806090605
:105A6000089500240A9412161306140605060895D4
:105A7000092E0394000C11F4882352F0BB0F40F45C
:105A8000BF2B11F460FF04C06F5F7F4F8F4F9F4F9C
:105A9000089557FD9058440F551F59F05F3F71F01E
:105AA0004795880F97FB991F61F09F3F79F0879585
:105AB0000895121613061406551FF2CF4695F1DF0E
:105AC00008C0161617061806991FF1CF869571059E
:105AD000610508940895E894BB2766277727CB01D2
