:100000000C94CB010C94F3010C94F3010C94F301C8
:100010000C94F3010C94F3010C94F3010C94F30190
:100020000C94F3010C94F3010C94F3010C94182933
:100030000C94F3010C94F3010C94F3010C94F30170
:100040000C94BE2B0C94F3010C946C2D0C94B32DDA
:100050000C94F3010C94F3010C94F3010C94F30150
:100060000C94F3010C94F301000000006410B71D20
:10007000C8206E3BAC30D9269041DC76F4516B6BD6
:100080005861B24D3C7105502083B8ED44930FF098
:10009000E8A3D6D68CB361CBB0C2649BD4D2D3864E
:1000A00078E20AA01CF2BDBD6D6D004368616E6709
:1000B00065642050656E20776964746820746F20D1
:1000C000004E657720616363656C65726174696F6A
:1000D0006E3A20004E6577206D61782073706565FB
:1000E000643A20005047535445504D554C544950A4
:1000F0004C4945522C00504753544550535045529B
:100100005245562C0050474D4D5045525245562CA5
:1001100000504753495A452C0050474E414D452CFD
:100120000020616E6420646972656374696F6E207B
:10013000697320004368616E67656420647261774B
:1001400020646972656374696F6E206D6F646520E9
:10015000746F206265200020746F20616464726592
:100160007373200057726974696E6720496E74203A
:10017000002900526563616C63756C61746564206D
:100180007061676548656967687420696E2073747B
:100190006570732028002900526563616C63756C7B
:1001A000617465642070616765576964746820696B
:1001B0006E20737465707320280029002920616EF9
:1001C000642073746570735065724D4D2028005221
:1001D0006563616C63756C61746564206D6D5065F9
:1001E00072537465702028004C6F61646564206DE3
:1001F0006F746F722073746570206D756C746970A4
:100200006C6965723A004C6F61646564206D61636E
:1002100068696E65206E616D653A004C6F6164655A
:1002200064206D6F746F72207374657073207065D5
:1002300072207265763A004C6F61646564206D6D62
:1002400020706572207265763A004C6F6164656457
:10025000206D616368696E65206865696768743AD6
:10026000004C6F61646564206D616368696E652030
:1002700077696474683A002069736E27742061207E
:10028000636F6D6D616E642049207265636F676E88
:100290006973652E00536F7272792C20002C2070C8
:1002A000343A002C2070333A002C2070323A002C63
:1002B0002070313A00436F6D6D616E643A00436F98
:1002C0006D6D616E64206E6F742070617273656411
:1002D0002E00436865636B73756D206E6F74206DBF
:1002E000617463686564213A00504F4C4152475233
:1002F000415048204F4E21000000000024002700FC
:100300002A0000000000250028002B00000000004B
:100310002300260029000404040404040404020247
:100320000202020203030303030301020408102074
:10033000408001020408102001020408102000007F
:100340000007000201000003040600000000000096
:100350000000494E46494E4954594E414ECDCCCCF1
:100360003D0AD7233C17B7D13877CC2B329595E689
:10037000241FB14F0A000020410000C84200401C69
:100380004620BCBE4CCA1B0E5AAEC59D74006F0AF7
:10039000E929192F680A11241FBECFEFD8E0DEBF6C
:1003A000CDBF12E0A0E0B1E0E2EFF1E702C00590BE
:1003B0000D92A83EB107D9F715E0A8EEB2E001C052
:1003C0001D92A638B107E1F713E0C4E9D3E004C0F9
:1003D0002297FE010E94A638CE38D107C9F70E94A5
:1003E000692F0C94EC380C940000CF93DF93BC0180
:1003F0008230910510F462E070E0A0918205B09126
:100400008305ED01E0E0F0E040E050E021C08881AC
:1004100099818617970769F48A819B81309719F033
:100420009383828304C09093830580938205FE01A9
:1004300034C06817790738F44115510519F084174D
:10044000950708F4AC01FE018A819B819C01E901BA
:100450002097E9F641155105A9F1CA01861B970BB2
:10046000049708F4BA01E0E0F0E02AC08D919C9175
:10047000119784179507F9F46417750781F412969C
:100480008D919C911397309719F09383828304C0C8
:100490009093830580938205FD0132964CC0CA017A
:1004A000861B970BFD01E80FF91F6193719302976B
:1004B0008D939C9340C0FD01828193819C01D90161
:1004C0001097A1F68091800590918105892B41F4C8
:1004D00080917F02909180029093810580938005A6
:1004E00040918102509182024115510541F44DB76E
:1004F0005EB780917D0290917E02481B590B20913E
:10050000800530918105CA01821B930B86179707DE
:1005100080F0AB014E5F5F4F8417950750F0420F9C
:10052000531F5093810540938005F90161937193A6
:1005300002C0E0E0F0E0CF01DF91CF910895CF93CA
:10054000DF93009709F450C0EC0122971B821A82B6
:10055000A0918205B0918305109709F140E050E029
:10056000AC17BD0708F1BB83AA83FE01219131912D
:10057000E20FF31FAE17BF0779F48D919C9111978D
:10058000280F391F2E5F3F4F3983288312968D9194
:100590009C9113979B838A834115510571F4D093E5
:1005A0008305C093820520C012968D919C9113976C
:1005B000AD01009711F0DC01D3CFFA01D383C283E0
:1005C00021913191E20FF31FCE17DF0769F4888183
:1005D0009981280F391F2E5F3F4FFA013183208305
:1005E0008A819B8193838283DF91CF910895A0E0DC
:1005F000B0E0EDEFF2E00C94BD38EC01A880B980DA
:10060000CA80DB80A114B104C104D10441F484E2A6
:10061000A82E89EDB82E8BE5C82E87E0D82EC6010E
:10062000B5012DE133EF41E050E00E94753827EA33
:1006300031E440E050E00E9415387B018C01C60196
:10064000B5012DE133EF41E050E00E947538CA0159
:10065000B9012CEE34EF4FEF5FEF0E9415386E0DAD
:100660007F1D801F911F97FF04C061507040804024
:100670009048688379838A839B839B01AC015F7771
:10068000B901CA01CDB7DEB7EAE00C94D9380E94AF
:10069000F702089583E892E00E94F70208956093BC
:1006A000830270938402809385029093860208955A
:1006B000A0E0B0E0EEE5F3E00C94B7386C010097F1
:1006C00029F4CB010E94F5016C01C1C08EEF882E88
:1006D0008FEF982E8C0C9D1C8601060F171F081596
:1006E000190508F4B2C0F401A081B181A617B707BB
:1006F000B8F0A530B10508F4AAC0CD01049786175B
:10070000970708F4A4C01297A61BB70BF801A19392
:10071000B193D4016D937C93CF010E949F0297C047
:100720007B01EA1AFB0AEEEFFFEFEE0EFF1E360129
:100730006A0E7B1EC0918205D09183054424552406
:10074000AA24BB244AC0C615D705E1F548815981C2
:100750004E155F05B8F1CA0104978E159F05B0F4D8
:100760001296A40FB51FF401B183A0832A813B81A7
:100770004114510431F0D20113963C932E931297F9
:1007800066C0309383052093820561C08A819B8176
:10079000F80193838283425050404E195F09518380
:1007A00040834114510431F0D20113961C930E93EF
:1007B000129704C01093830500938205F40171839E
:1007C000608345C088819981A816B90608F45C0148
:1007D0002E018A819B819C01E901209709F0B3CF0A
:1007E000809180059091810586159705E9F4A616FC
:1007F000B706D0F420918102309182022115310593
:1008000041F42DB73EB780917D0290917E02281B66
:10081000390B02171307C8F4109381050093800564
:10082000D4016D937C9313C0CB010E94F501EC01C0
:10083000009759F0F40140815181B6010E9476047D
:10084000C6010E949F026E0102C0CC24DD24C601B5
:10085000CDB7DEB7E0E10C94D338662777270C9448
:10086000E304FC0188279927E89421912032E9F3D9
:10087000293010F02E30C8F32B3241F02D3239F4EC
:10088000689404C00E94DB04820F911D21912053C3
:100890002A30C0F31EF4909581959F4F08951F93C1
:1008A000FC0199278827BC01E89411911032E9F3E3
:1008B000193010F01E30C8F31B3251F01D3249F4CC
:1008C000689406C00E94C604610F711D811D911DB0
:1008D000119110531A30B0F33EF4909580957095B5
:1008E00061957F4F8F4F9F4F1F910895FB01DC0152
:1008F00002C001900D9241505040D8F70895FB017D
:10090000DC018D91019080190110D9F3990B0895A4
:10091000FB01DC0101900D920020E1F70895FB013D
:10092000DC014150504030F08D910190801919F454
:100930000020B9F7881B990B0895FB01DC01415099
:10094000504048F001900D920020C9F701C01D925F
:1009500041505040E0F70895FB0151915523A9F013
:10096000BF01DC014D9145174111E1F759F4CD016B
:100970000190002049F04D9140154111C9F3FB0150
:100980004111EFCF81E090E001970895592F482F52
:10099000372F262F660F771F881F991F660F771F27
:1009A000881F991F620F731F841F951F660F771F83
:1009B000881F991F08957AE0979F902D879F802D1B
:1009C000910D11240895A0E0B0E0E9EEF4E00C945C
:1009D000BB38EC015B016115710519F0FB019183D6
:1009E0008083F9908F2D90E00E94AA38892BC9F757
:1009F000FDE2FF1621F4F990EE24E39405C02BE20A
:100A0000F21609F4F990EE248E0101501040C8014D
:100A100062E573E043E050E00E944306892B01F554
:100A20008E010E5F1F4FC80165E573E045E050E0A1
:100A30000E944306892B19F48E01095F1F4FA114F0
:100A4000B10419F0F50111830083E0FC04C070E0EB
:100A500090E080E814C070E090E080E86FEF08C19B
:100A6000C8016AE573E043E050E00E944306892B29
:100A700069F4A114B10429F470E090E080EC6FE710
:100A8000F7C02296F501D183C083F6CF882499243C
:100A900040E050E060E070E0EF2DE053EA30A0F578
:100AA000F2E0EF2A8E2D90E09C0128703070E2FE7B
:100AB00006C0232B79F50894811C911C2BC0232B95
:100AC00019F0089481089108DB01CA0112E0880F2F
:100AD000991FAA1FBB1F1A95D1F7480F591F6A1FEC
:100AE0007B1F440F551F661F771F4E0F511D611D41
:100AF000711D483929E9520729E9620729E172077E
:100B000048F084E0E82A06C0EE3F31F4E3FC39C047
:100B100098E0E92AF990C0CFE53311F0E53189F585
:100B200029912D3219F4E0E1EE2A05C02B3219F09B
:100B300081E090E003C0299182E090E0E22FE05351
:100B4000EA3018F0C81BD90B1CC020E030E0FCE0F4
:100B500020383F075CF4C901880F991F880F991F3F
:100B6000280F391F220F331F2E0F311DE991E0533B
:100B7000EA3068F3E4FE03C0309521953F4F820EC2
:100B8000931ECE2CDD24E1FE07C0A114B10421F098
:100B90002197F501D183C083CB01BA010E9497361A
:100BA0007B018C01F3E0CF22DD2423E0C216D104C7
:100BB00021F417FB109517F9109557016801C8012A
:100BC000B70120E030E040E050E00E94FA35882391
:100BD00009F44AC097FE0DC021E7E22E23E0F22E71
:100BE0009094819491089394C0E2D0E000E010E0EA
:100BF00012C099E8E92E93E0F92EF6CFF70125917E
:100C0000359145915491C601B5010E944D375B0164
:100C10006C018C1A9D0A8C169D0684F7D595C79594
:100C20000F5F1F4F0630110529F08CEF9FEFE80E84
:100C3000F91EF1CFC501D6017C018D018C2D880FE5
:100C40008D2D881F8F3F51F0C601B50120E030E0A7
:100C500040E050E00E94FA35882331F482E290E0CF
:100C600090938505809384057E2D9F2D802F612F85
:100C7000272F392F482F562FB901CA01CDB7DEB71C
:100C8000ECE00C94D738FB01DC014150504088F077
:100C90008D9181341CF08B350CF4805E659161344C
:100CA0001CF06B350CF4605E861B611171F3990BBF
:100CB0000895881BFCCFAF92BF92CF92DF92EF9244
:100CC000FF920F931F936E157F058007910734F4F1
:100CD0002E153F054007510764F42CC0E616F706B1
:100CE0000807190794F4A216B306C406D5063CF407
:100CF00023C0A216B306C406D506BCF41FC02A152D
:100D00003B054C055D05C4F41BC06E157F058007CF
:100D1000910791F42A153B054C055D058CF0A21650
:100D2000B306C406D50644F409C02A153B054C0594
:100D30005D0511F484E005C082E003C083E001C0DA
:100D400081E01F910F91FF90EF90DF90CF90BF90C7
:100D5000AF900895EF92FF920F931F937B018C0148
:100D6000662757FD6095762FCB01BA010E94993610
:100D70002091F3023091F4024091F5025091F60275
:100D80000E944D37A80197010E94FE357B018C011E
:100D900020E030E040E050E40E94493787FF03C084
:100DA00061E070E004C0C801B7010E946636CB0163
:100DB0001F910F91FF90EF9008956F927F928F9205
:100DC0009F92AF92BF92CF92DF92EF92FF920F93DA
:100DD0001F93CF93DF937C015B01662757FD6095DE
:100DE000762FCB01BA010E9499363B014C010027B6
:100DF000F7FC0095102FC801B7010E9499367B01BE
:100E00008C01CC24B7FCC094DC2CC601B5010E9437
:100E100099369B01AC01C801B7010E94FE35A401BF
:100E200093010E944D379B01AC01C401B3010E94A4
:100E300095357B018C010E946636EB01BE01882747
:100E400077FD8095982F0E9499369B01AC01C801CF
:100E5000B7010E94953520E030E040E05FE30E945A
:100E6000493718160CF42196CE01DF91CF911F91CE
:100E70000F91FF90EF90DF90CF90BF90AF909F9039
:100E80008F907F906F900895EF92FF920F931F9332
:100E90008C017B01FC01608171818281938120E062
:100EA00030E040E050E00E949635F80160837183A5
:100EB00082839383F701608171818281938120E035
:100EC00030E040E050E00E949635F7016083718386
:100ED000828393831F910F91FF90EF9008952F923B
:100EE0003F924F925F926F927F928F929F92AF92BA
:100EF000BF92CF92DF92EF92FF920F931F931B014D
:100F00002C0139014A01E090FB02F090FC020091B3
:100F1000FD021091FE02C801B701A80197010E94CD
:100F200015380E9499365B016C01C401B301A4011C
:100F300093010E944D379B01AC01C601B5010E948F
:100F400095355B016C01C201B101A20191010E94C2
:100F50004D379B01AC01C601B5010E9496355B017E
:100F60006C01EE0CFF1C001F111FC801B7010E948D
:100F700099369B01AC01C601B5010E94FE351F9157
:100F80000F91FF90EF90DF90CF90BF90AF909F9028
:100F90008F907F906F905F904F903F902F9008952B
:100FA0000F931F93CF93DF93242F2627A22FB0E018
:100FB000AF70B070AA0FBB1FAA0FBB1FC8E6D0E06E
:100FC000AC0FBD1FFD010591159125913491E4E011
:100FD0009695879577956795EA95D1F70627172710
:100FE0002827392742954F70402750E04F705070A6
:100FF000440F551F440F551F4C0F5D1FFA0185917B
:101000009591A591B49144E036952795179507954C
:101010004A95D1F7082719272A273B27B801C90184
:10102000DF91CF911F910F910895EF92FF920F934F
:101030001F938130910509F097C16F5F7F4F09F0D1
:1010400042C28EE893E060E071E00E94D63489EEFF
:1010500092E00E94A4278CEE92E064E071E00E948E
:10106000D63485E993E065E071E00E94D6342091A2
:10107000880230918902442737FD4095542F6091B2
:101080008E0270918F02882777FD8095982F0E949D
:1010900015380E9499367B018C0160918A0270910B
:1010A0008B0280918C0290918D02A80197010E9481
:1010B000FE356093F3027093F4028093F5029093EF
:1010C000F602C801B70120918A0230918B0240914B
:1010D0008C0250918D020E94FE357B018C01609341
:1010E000F7027093F8028093F9029093FA026091EC
:1010F0009E0270919F02882777FD8095982F0E940D
:101100009936A80197010E944D370E946636609378
:10111000FB027093FC028093FD029093FE026091AB
:10112000A0027091A102882777FD8095982F0E94D8
:101130009936A80197010E944D370E946636609348
:10114000FF027093000380930103909302038CE9E4
:1011500093E06EE071E00E94D63483EA93E060E1B0
:1011600071E00E94D6348AEA93E064E171E00E9463
:10117000D63481EB93E06CE171E00E94D63488EBC9
:1011800093E06FE471E00E94D6348FEB93E06FE45C
:1011900071E00E94D63486EC93E06FE471E00E9427
:1011A000D6348DEC93E06FE471E00E94D63484ED88
:1011B00093E06EE571E00E94D6348BED93E064E637
:1011C00071E00E94D63482EE93E06BE671E00E94FB
:1011D000D63489EE93E063E771E00E94D63480EF65
:1011E00093E06EE771E00E94D63487EF93E064ED00
:1011F00073E00E94733584E193E064E071E00E9443
:10120000D6348EEF93E064E871E00E94D63485E036
:1012100094E066E871E00E94D6348CE094E06BE8DC
:1012200071E00E94D63483E194E06FE871E00E949F
:10123000D6348AE194E063E971E00E94D63481E219
:1012400094E067E971E00E94D63488E294E06BE9AB
:1012500071E00E94D6348FE294E06FE971E00E9461
:10126000D63486E394E063EA71E00E94D6348DE3DD
:1012700094E067EA71E00E94D63484E494E06BEA7B
:1012800071E00E94D6348BE494E06FEA71E00E9432
:10129000D63482E594E063EB71E00E94D63489E5B0
:1012A00094E067EB71E00E94D63480E694E06BEB4B
:1012B00071E00E94D63487E694E06FEB71E00E9403
:1012C000D6348EE694E063EC71E00E94D63485E774
:1012D00094E067EC71E00E94D6348CE794E06BEC0C
:1012E00071E00E94D63483E894E06FEC71E00E94D4
:1012F000D6348AE894E063ED71E00E94D63481E947
:1013000094E067ED71E00E94D63488E994E06BEDDB
:1013100071E00E94D6348FE994E06FED71E00E9495
:10132000D63460918802709189028CE193E041E0AB
:101330000E94502B609188027091890288E293E0AC
:1013400042E00E94502B84E393E067ED76E140EDAC
:1013500056E10E946D2381E693E069EC76E142EC70
:1013600056E10E946D23AFC0892B09F0ACC06F5FBE
:101370007F4F09F0A8C08FE994E00E94893588E981
:1013800094E00E94893581E994E00E9489358AE8D9
:1013900094E00E94893583E894E00E9489358CE7C7
:1013A00094E00E94893585E794E00E9489358EE6B5
:1013B00094E00E94893587E694E00E94893580E6B2
:1013C00094E00E94893589E594E00E94893582E5A0
:1013D00094E00E9489358BE494E00E94893584E48E
:1013E00094E00E9489358DE394E00E94893586E37C
:1013F00094E00E9489358FE294E00E94893588E26A
:1014000094E00E94893581E294E00E9489358AE166
:1014100094E00E94893583E194E00E9489358CE054
:1014200094E00E94893585E094E00E9489358EEF32
:1014300093E00E94893584E193E00E94893587EF2B
:1014400093E00E94893580EF93E00E94893589EE10
:1014500093E00E94893582EE93E00E9489358BEDFE
:1014600093E00E94893584ED93E00E9489358DECEC
:1014700093E00E94893586EC93E00E9489358FEBDA
:1014800093E00E94893588EB93E00E94893581EBD7
:1014900093E00E9489358AEA93E00E94893583EAC5
:1014A00093E00E9489358CE993E00E94893585E9B3
:1014B00093E00E9489358CEE92E00E9489358EE897
:1014C00093E00E9489351F910F91FF90EF9008954E
:1014D00080E090E06FEF7FEF0E941508089581E0B3
:1014E00090E06FEF7FEF0E9415080895CF92DF9292
:1014F000EF92FF920F931F93CF93DF936C01EE2433
:10150000EA94FE2C8701C0E0D0E00CC0C601BE0109
:101510000E94BB32482FC801B7010E94D0077B014F
:101520008C012196F60184819581C817D90770F343
:10153000A80197012095309540955095B901CA01B1
:10154000DF91CF911F910F91FF90EF90DF90CF909F
:1015500008950F931F9384E090E00E94F5018C01A1
:101560000E949F022DB73EB7201B310BC9011F916E
:101570000F9108950E94A90A9C0180910703909100
:10158000080328173907D1F0309308032093070385
:1015900080E695E06AEA73E00E94EB316091070310
:1015A0007091080380E695E04AE050E00E94F23036
:1015B00080E695E065E074E00E941E32089580E6C2
:1015C00095E06BED73E00E941E32089580E695E091
:1015D00064ED73E00E941E320895AF92BF92CF92E5
:1015E000DF92EF92FF920F931F937B018C01CA0150
:1015F000B9010E944D375B016C01C801B701A80118
:1016000097010E944D379B01AC01C601B5010E94B4
:1016100095350E94B4371F910F91FF90EF90DF90A6
:10162000CF90BF90AF900895AF92BF92CF92DF92CC
:10163000EF92FF920F931F937B018C0159016A0176
:101640006091FB027091FC028091FD029091FE027C
:101650000E949936A80197010E9495359B01AC0123
:101660000E944D377B018C01C601B501A601950191
:101670000E944D379B01AC01C801B7010E9496350D
:101680000E94B4371F910F91FF90EF90DF90CF90A1
:10169000BF90AF900895AF92BF92CF92DF92EF923A
:1016A000FF920F931F937B018C0159016A01A801DE
:1016B00097010E944D377B018C01C601B501A6013F
:1016C00095010E944D379B01AC01C801B7010E94F2
:1016D00096350E94B4371F910F91FF90EF90DF90E5
:1016E000CF90BF90AF9008952F923F924F925F920C
:1016F0006F927F928F929F92AF92BF92CF92DF9222
:10170000EF92FF920F931F93DF93CF9300D000D0FF
:10171000CDB7DEB769837A838B839C8359016A01D5
:1017200017012801611571058105910559F40F2EE6
:10173000F0E0EF2EF0E0FF2EF0E00F2FF0E01F2F93
:10174000F02DA4C0CA01B9010E944D377B018C0164
:10175000C601B50120E030E040E050E00E94FA35DB
:10176000882324F417FB109517F91095C201B101D5
:10177000A20191010E9496353B014C01C801B701BD
:10178000A40193010E94FE357B018C0169817A815D
:101790008B819C810E9499369B01AC01C801B701E5
:1017A0000E94FA358823B4F5C601B50120E030E087
:1017B00040E050E00E94FA35882329F4C401B301C7
:1017C0000E94B4370DC0C201B101A60195010E946B
:1017D000FE359B01AC015F77C601B5010E949635CD
:1017E0007B018C01D0909002C0909102B090920247
:1017F000A09093022D2D3C2D4B2D5A2D0E94493740
:1018000018160CF043C08D2D9C2DAB2DBA2D7C01EC
:101810008D013CC0C601B50120E030E040E050E061
:101820000E94FA35882359F4C401B3010E94B437E9
:101830007B018C0117FB109517F910950FC0C201A1
:10184000B101A60195010E94FE359B01AC015F77B5
:10185000C601B5010E9495357B018C0180919002F3
:1018600090919102A0919202B09193025C016D015E
:10187000D7FAD094D7F8D094C801B701A601950142
:101880000E94FA35882314F486017501B701C80156
:101890000F900F900F900F90CF91DF911F910F91AC
:1018A000FF90EF90DF90CF90BF90AF909F908F9080
:1018B0007F906F905F904F903F902F900895809110
:1018C0009B02882309F440C080E695E060EF73E056
:1018D0000E94EB3184E393E00E94672320918E0203
:1018E00030918F02442737FD4095542F0E94753860
:1018F00080E695E0BA01A9012AE030E00E949E301E
:1019000080E695E06EEF73E00E94EB3181E693E0B4
:101910000E94672320918E0230918F02442737FD69
:101920004095542F0E94753880E695E0BA01A901D0
:101930002AE030E00E949E3080E695E065E074E0A9
:101940000E941E320E94BA0A0895AC01662757FD14
:101950006095762F81E693E00E944D2408C0809127
:101960000903882321F081E693E00E946B2781E63A
:1019700093E00E945723611571058105910579F760
:101980000E94062C60930C0370930D0380930E034A
:1019900090930F030895AC01662757FD6095762F4D
:1019A00084E393E00E944D2408C0809109038823BA
:1019B00021F084E393E00E946B2784E393E00E948C
:1019C0005723611571058105910579F70E94062C51
:1019D00060930C0370930D0380930E0390930F0399
:1019E0000895CF93DF93FC01EB0121153105A9F494
:1019F0008091A802882339F0CF0162E070E00E9454
:101A00004038CB012CC0CF0162E070E00E9440382A
:101A1000CB01909581959F4F22C08091A8022417F9
:101A20003507A9F4882339F0CF0162E070E00E9405
:101A30004038CB0109C0CF0162E070E00E9440381D
:101A4000CB01909581959F4F0E94CB0C17C08823A6
:101A500011F0CF0104C0882799278E1B9F0B0E948D
:101A6000CB0CCE010E94A50C8091A802882319F00E
:101A70001092A80203C081E08093A802DF91CF9169
:101A80000895EF92FF920F931F938091030390911B
:101A90000403A0910503B09106030097A105B105C9
:101AA00009F040C06091FB027091FC028091FD0240
:101AB0009091FE020E9499367B018C016091FF0299
:101AC0007091000380910103909102030E94993666
:101AD0009B01AC01C801B7010E944B0B20E030E034
:101AE00040E05FE30E9496350E94663660930303F0
:101AF00070930403809305039093060380E695E0BA
:101B000063EE71E00E94243140910303509104037D
:101B1000609105037091060380E695E02AE030E0CD
:101B20000E94DE30609103037091040380910503ED
:101B3000909106031F910F91FF90EF900895DF930E
:101B4000CF93CDB7DEB728970FB6F894DEBF0FBEA0
:101B5000CDBF69837A838B839C832D833E834F83A0
:101B600058870E94062C60930C0370930D0380939A
:101B70000E0390930F03CE010196BE016B5F7F4F62
:101B80000E94440769817A818B819C810E9466361C
:101B9000AB01BC0184E393E00E9445246D817E810A
:101BA0008F8198850E946636AB01BC0181E693E087
:101BB0000E94452415C080919802882349F084E34F
:101BC00093E00E946B2781E693E00E946B2708C098
:101BD00084E393E00E94322781E693E00E9432275B
:101BE00084E393E00E9457236115710581059105F7
:101BF00049F481E693E00E94572361157105810540
:101C0000910529F080910903882351F3D4CF0E94D4
:101C10005F0C28960FB6F894DEBF0FBECDBFCF91F4
:101C2000DF910895AF92BF92CF92DF92EF92FF9231
:101C30000F931F9379018A010E9499365B016C0111
:101C4000C801B7010E9499369B01AC01C601B501DC
:101C50000E949F0D1F910F91FF90EF90DF90CF900A
:101C6000BF90AF9008950F931F93CF93DF93EC0134
:101C70008B0121153105D9F480E695E06AEF71E01A
:101C80000E94D8318091A802882339F0CE0162E009
:101C900070E00E944038CB012CC0CE0162E070E0C1
:101CA0000E944038CB01909581959F4F22C0809132
:101CB000A80224173507A9F4882339F0CE0162E081
:101CC00070E00E944038CB0109C0CE0162E070E0B4
:101CD0000E944038CB01909581959F4F0E94A50CA2
:101CE00017C0882311F0CE0104C0882799278C1BC8
:101CF0009D0B0E94A50CC8010E94CB0C8091A802EC
:101D0000882319F01092A80203C081E08093A802F2
:101D1000DF91CF911F910F9108953F924F925F9263
:101D20006F927F928F929F92AF92BF92CF92DF92EB
:101D3000EF92FF920F931F93DF93CF9300D000D0C9
:101D4000CDB7DEB7FC014B016A01322E1416150621
:101D50000CF081C0BA010E9440385B01CF01B6018E
:101D60000E944038AA2797FDA095BA2FBC01CD014B
:101D70000E9499367B018C01B601882777FD8095FA
:101D8000982F0E9499369B01AC01C801B7010E94AF
:101D9000FE352B013C010F2EF0E0EF2EF0E0FF2E80
:101DA000F0E00F2FF0E01F2FF02D1C821B82C501E9
:101DB00001969A838983C801B701A30192010E9409
:101DC00096357B018C0120E030E040E85FE30E9423
:101DD000493787FF02C095010CC0C801B70120E058
:101DE00030E040E85FE30E9495357B018C0129815A
:101DF0003A8192E0391619F4C401B9010EC0E3E04A
:101E00003E1619F4C401B90116C0F4E03F1659F4A6
:101E100066277727621B730BC401A6012B813C81C7
:101E20000E94330E0DC081E0381651F466277727E3
:101E3000621B730BC401A6012B813C810E94F10C33
:101E40000E945F0CEB81FC813196FC83EB83CE1604
:101E5000DF060CF0B0CF0F900F900F900F90CF9146
:101E6000DF911F910F91FF90EF90DF90CF90BF9087
:101E7000AF909F908F907F906F905F904F903F902A
:101E800008952F923F924F925F926F927F928F921E
:101E90009F92AF92BF92CF92DF92EF92FF920F93F9
:101EA0001F93DF93CF9300D000D0CDB7DEB73B01B7
:101EB0004C0159016A01FA82E982C80162E070E0CE
:101EC0000E944038882777FD8095982F661A770AF8
:101ED000880A990AA61AB70AC80AD90A1C821B825C
:101EE0001801442437FC4094542C2EC060E070E06C
:101EF00080E090E0A20191010E949D327B018C0163
:101F000060E070E080E090E0A20191010E949D32CB
:101F10009B01AC010027F7FC0095102FE60CF71C85
:101F2000081D191D442737FD4095542F2A0D3B1DD0
:101F30004C1D5D1DC801B7010E94120E2B813C8112
:101F40002F5F3F4F3C832B838B819C81E981FA81FA
:101F5000E817F9075CF60F900F900F900F90CF9154
:101F6000DF911F910F91FF90EF90DF90CF90BF9086
:101F7000AF909F908F907F906F905F904F903F9029
:101F80002F9008958AE892E09093AC028093AB0280
:101F90009093AE028093AD028FE590E09093B002F3
:101FA0008093AF0280E991E09093B2028093B102F6
:101FB00081E090E09093B4028093B30281E080933B
:101FC000090364EF71E080E090E00E943A2C0895EC
:101FD000CF93DF9389EE92E06AE070E00E941129CE
:101FE000C4EBD0E089EE92E0BE010E942A2865E0B1
:101FF00070E080E090E00E943A2C2197CA35D1052C
:1020000089F789EE92E00E94BE2710928702DF9145
:10201000CF91089580918702813011F40E94E80FDA
:102020000895CF93DF9389EE92E06AE070E00E941A
:102030001129CAE5D0E089EE92E0BE010E942A286B
:102040006AE070E080E090E00E943A2C2196C43B68
:10205000D10589F789EE92E00E94BE2781E0809346
:102060008702DF91CF91089580918702882311F430
:102070000E9411100895EF92FF920F931F93B4E303
:10208000EB2EB3E0FB2EC7010E946723AB01BC011E
:102090004C5F5F4F6F4F7F4FC7010E94942701E64F
:1020A00013E0C8010E946723AB01BC014C5F5F4F86
:1020B0006F4F7F4FC8010E949427C7010E9467237A
:1020C000AB01BC014450504060407040C7010E94C9
:1020D0009427C8010E946723AB01BC0144505040C3
:1020E00060407040C8010E9494271F910F91FF909B
:1020F000EF9008952F923F924F925F926F927F924E
:102100008F929F92AF92BF92CF92DF92EF92FF9207
:102110000F931F93DF93CF93CDB7DEB7E4970FB63E
:10212000F894DEBF0FBECDBF2B013C01EF8EF8A2AD
:1021300009A31AA3ABA2BCA2CDA2DEA298A68FA22D
:102140000E946F076B8F7C8F8D8F9E8FA3019201F2
:102150000E94ED0A6F8B788F898F9A8F6F8D78A18F
:1021600089A19AA12BA13CA14DA15EA10E946F075C
:102170007B018C012F8D38A149A15AA10E94ED0A43
:102180005B016C01C801B70120E030E040EA51E496
:102190000E94493718160CF0E8C16091FB0270915B
:1021A000FC028091FD029091FE02645170408040DB
:1021B00090400E9499369B01AC01C801B7010E9472
:1021C000FA3588230CF0D1C1C601B50120E030E01A
:1021D00040EA51E40E94493718160CF0C6C16091DC
:1021E000FF027091000380910103909102036451FA
:1021F0007040804090400E9499369B01AC01C6011E
:10220000B5010E94FA3588230CF0AFC110929B02F1
:10221000C801B7012B8D3C8D4D8D5E8D0E9495358B
:102220001B012C01C601B5012F89388D498D5A8DAE
:102230000E9495353B014C01C201B10120E030E024
:1022400040E050E00E94493718161CF482017101E9
:1022500006C08201710117FB109517F91095C40192
:10226000B30120E030E040E050E00E94493718160A
:102270001CF4A401930103C0A40193015058C801A8
:10228000B7010E94493718169CF021E030E03E8BE0
:102290002D8BD401C301B05889AB9AABABABBCABAF
:1022A000AFA1B8A55D01CC24B7FCC094DC2C4EC016
:1022B00021E030E03E8B2D8BD201C101B0588DA7BB
:1022C0009EA7AFA7B8ABAFA1B8A55D01CC24B7FC62
:1022D000C094DC2C06C02D893E892F5F3F4F3E8B7A
:1022E0002D8BC201B10120E030E040E050E00E94BF
:1022F000493718161CF48201710104C0EDA4FEA434
:102300000FA518A9AD89BE89BD01882777FD8095E5
:10231000982F0E9499369B01AC01C801B7010E9419
:10232000FE357B018C01C601B5010E9499369B01E7
:10233000AC01C801B7010E944937181664F234C0D5
:102340002D893E892F5F3F4F3E8B2D8BC401B301FA
:1023500020E030E040E050E00E94493718161CF4BD
:102360008401730104C0E9A8FAA80BA91CA9AD89CE
:10237000BE89BD01882777FD8095982F0E949936E8
:102380009B01AC01C801B7010E94FE357B018C01A5
:10239000C601B5010E9499369B01AC01C801B70185
:1023A0000E944937181664F22D893E895901CC24C0
:1023B000B7FCC094DC2CC601B5010E9499367B01A4
:1023C0008C01C201B101A80197010E94FE356D8305
:1023D0007E838F839887C401B301A80197010E946F
:1023E000FE3569837A838B839C8310929802198AC5
:1023F0001A8A1B8A1C8A19861A861B861C86A9A61D
:10240000BAA6CBA6DCA66B8D7C8D8D8D9E8D2D8185
:102410003E814F8158850E9496356B8F7C8F8D8FC2
:102420009E8F6F89788D898D9A8D29813A814B8114
:102430005C810E9496356F8B788F898F9A8F6B8D18
:102440007C8D8D8D9E8D2F89388D498D5A8D0E9462
:102450004B0B6D877E878F87988B6B8D7C8D8D8DD9
:102460009E8D2F89388D498D5A8D0E94140B1B012A
:102470002C0169847A848B849C8489A59AA5ABA558
:10248000BCA5680E791E8A1E9B1E69897A898B8974
:102490009C890E9499365B016C0160919402709155
:1024A0009502809196029091970220E030E040E8FA
:1024B00050E40E944D377B018C01C401B301A60199
:1024C00095010E94740B0E946636698B7A8B8B8B08
:1024D0009C8B0E9499367B018C0184E393E0B801C8
:1024E000A7010E94A82381E693E0B801A7010E94FA
:1024F000A8236D857E858F859889A20191010E9410
:102500009F0D89859A85AB85BC850197A109B10985
:1025100089879A87AB87BC878D899E89A985BA856B
:102520008A0F9B1F892B09F06ECF84E393E040E074
:1025300050E060E070E00E94A82381E693E040E074
:1025400050E060E070E00E94A82311E010939B022D
:102550006F8D78A189A19AA12BA13CA14DA15EA16B
:102560000E949F0D1093980206C080E695E06AE0F5
:1025700072E00E94D8310E94BA0AE4960FB6F8942D
:10258000DEBF0FBECDBFCF91DF911F910F91FF90A6
:10259000EF90DF90CF90BF90AF909F908F907F9003
:1025A0006F905F904F903F902F9008950F931F93DF
:1025B000AB01BC0140939402509395026093960244
:1025C0007093970284E393E00E942924409194023F
:1025D00050919502609196027091970281E693E086
:1025E0000E94292400E615E0C80161EC70E00E9419
:1025F000A22F4091940250919502609196027091A1
:102600009702C80122E030E00E94C5311F910F916E
:1026100008950F931F93AB01BC0140939002509318
:102620009102609392027093930284E393E00E947C
:1026300031244091900250919102609192027091E8
:10264000930281E693E00E94312400E615E0C80180
:1026500064ED70E00E94A22F40919002509191028F
:102660006091920270919302C80122E030E00E94D2
:10267000C5311F910F910895CF92DF92EF92FF9293
:102680000F931F937C01D62EC72E00E615E0C801DC
:1026900064E671E00E94A22FC8016D2D7C2D4AE0F6
:1026A00050E00E94F230C80167E571E00E94A22F5D
:1026B000C801B7014AE050E00E9405310CEC14E07B
:1026C000C801B7014D2D0E94DD290894E11CF11CC1
:1026D000C801B7014C2D0E94DD291F910F91FF9079
:1026E000EF90DF90CF900895DF92EF92FF920F93DB
:1026F0001F938C018CECE82E84E0F82EC701B80102
:102700000E94D629D82E0F5F1F4FC701B8010E9423
:10271000D629382F20E02D0D311DC9011F910F91B1
:10272000FF90EF90DF900895AF92BF92CF92DF922B
:10273000EF92FF920F931F93DF93CF93CDB7DEB746
:102740002E970FB6F894DEBF0FBECDBF80E090E0AD
:102750000E94741390939F0280939E02181619068C
:1027600044F08091AB029091AC0290939F028093D1
:102770009E0280E695E061E672E00E94A22F6091E1
:102780009E0270919F0280E695E04AE050E00E9430
:10279000053182E090E00E9474139093A10280932F
:1027A000A0021816190644F08091AD029091AE0275
:1027B0009093A1028093A00280E695E06AE472E023
:1027C0000E94A22F6091A0027091A10280E695E084
:1027D0004AE050E00E9405318EE090E00E947413C0
:1027E000A0E0B0E0BC01CD010E94973660938A0260
:1027F00070938B0280938C0290938D0220E030E0E6
:1028000040E85FE30E94FA35882394F46091AF02B8
:102810007091B002882777FD8095982F0E94993695
:1028200060938A0270938B0280938C0290938D0246
:1028300080E695E067E372E00E94A22F40918A0251
:1028400050918B0260918C0270918D0280E695E030
:1028500022E030E00E94C53180E190E00E947413D4
:1028600090938902809388021816190644F080918B
:10287000B1029091B202909389028093880280E61F
:1028800095E06BE172E00E94A22F60918802709146
:10289000890280E695E04AE050E00E9405318E0111
:1028A0000F5F1F4FC80164E071E00E94D63424E03E
:1028B000E22EF12C98E0C92ED12CCC0EDD1EA12EDB
:1028C0008CEC94E0B7010E94D629182FC601602F26
:1028D0007A2D0E947E35C601612F0E94A434BC016E
:1028E000802F9A2D0E945C35C6010E948F35089476
:1028F000E11CF11C8CE0E816F10411F7802F9A2DF1
:1029000060E070E00E94CC32FC018081882331F4C9
:10291000802F9A2D65E973E00E945C3510920303C5
:102920001092040310920503109206038CEE92E0BD
:10293000BE016F5F7F4F0E945C3580E695E066E0E8
:1029400072E00E94A22F80E695E06CEE72E00E9499
:102950001E3282E190E00E94741390938F02809364
:102960008E021816190644F08091B3029091B402B9
:1029700090938F0280938E0280E695E068EE71E07E
:102980000E94A22F60918E0270918F0280E695E0E6
:102990004AE050E00E940531A0908A02B0908B027C
:1029A000C0908C02D0908D0260918E0270918F0247
:1029B000882777FD8095982F209188023091890291
:1029C000442737FD4095542F0E9415380E949936B0
:1029D0007B018C01C601B501A80197010E94FE355B
:1029E0006093F3027093F4028093F5029093F602E1
:1029F000C801B701A60195010E94FE356093F70258
:102A00007093F8028093F9029093FA0280E695E0C1
:102A10006FEC71E00E94A22F4091F3025091F402FA
:102A20006091F5027091F60280E695E022E030E0D8
:102A30000E94C23180E695E06CEB71E00E94A22F0B
:102A40004091F7025091F8026091F9027091FA02F8
:102A500080E695E022E030E00E94C23180E695E019
:102A60006AEB71E00E94A22F80E695E00E94C52FDC
:102A700060919E0270919F02882777FD8095982F24
:102A80000E9499362091F7023091F8024091F902A4
:102A90005091FA020E944D370E9466366093FB0205
:102AA0007093FC028093FD029093FE0280E695E015
:102AB00068E971E00E94A22F4091FB025091FC0254
:102AC0006091FD027091FE0280E695E02AE030E020
:102AD0000E949E3080E695E066E971E00E94A22F98
:102AE00080E695E00E94C52F6091A0027091A1023E
:102AF000882777FD8095982F0E9499362091F702BC
:102B00003091F8024091F9025091FA020E944D373B
:102B10000E9466366093FF02709300038093010366
:102B20009093020380E695E063E771E00E94A22F94
:102B30004091FF02509100036091010370910203E4
:102B400080E695E02AE030E00E949E3080E695E045
:102B500061E771E00E94A22F80E695E00E94C52FF8
:102B600010920303109204031092050310920603BF
:102B7000CE0101960E9489352E960FB6F894DEBFDD
:102B80000FBECDBFCF91DF911F910F91FF90EF90BE
:102B9000DF90CF90BF90AF900895EF92FF920F9388
:102BA0001F93DF93CF93CDB7DEB727970FB6F89477
:102BB000DEBF0FBECDBF7E010894E11CF11CC70132
:102BC00068EB73E00E947335C70165E973E00E940A
:102BD000D0338823A1F400E010E0C701B8010E94BF
:102BE000CC32FC010C5F1F4F8CEC94E0B8014081AB
:102BF0000E94DD29035010400830110571F70E9432
:102C00009413CE0101960E94893527960FB6F89449
:102C1000DEBF0FBECDBFCF91DF911F910F91FF900F
:102C2000EF900895CF93DF93C0E0D0E08CEC94E078
:102C3000BE0140E00E94DD292196C431D105B1F7E3
:102C40000E949413DF91CF910895CF93DF93C0E05A
:102C5000D0E080E695E0BE014AE050E00E94F2300C
:102C600080E695E060E372E00E9424318CEC94E011
:102C7000BE010E94D629682F80E695E04AE050E028
:102C80000E9480302196C431D10519F7DF91CF9190
:102C90000895EF92FF920F931F930E94251600E66E
:102CA00015E0C80169E171E00E94A22FC8016CEE35
:102CB00072E00E94EB3135E0E32E34E0F32EC801E0
:102CC000B7010E941E32C80161E171E00E94A22F8B
:102CD00060919E0270919F02C8014AE050E00E94FC
:102CE000F230C8016EEF73E00E94EB316091A002F8
:102CF0007091A102C8014AE050E00E94F230C80180
:102D0000B7010E941E32C80165E071E00E94A22F47
:102D100040918A0250918B0260918C0270918D02D9
:102D2000C80122E030E00E94C231C801B7010E9410
:102D30001E32C80166EF70E00E94A22F60918802E7
:102D400070918902C8014AE050E00E94F230C80147
:102D5000B7010E941E32C80164EE70E00E94A22FEB
:102D600060918E0270918F02C8014AE050E00E948B
:102D7000F230C801B7010E941E321F910F91FF90DF
:102D8000EF90089588E293E062E043E00E943A2ADF
:102D9000089588E293E061E043E00E943A2A0895B2
:102DA0008CE193E062E043E00E943A2A08958CE1CE
:102DB00093E061E043E00E943A2A0895EF92FF9287
:102DC0000F931F937C0100E615E0C80165E972E0EE
:102DD0000E94A22FC801B7010E94EB31C80167E72A
:102DE00072E00E94E52F1F910F91FF90EF900895E0
:102DF000EF92FF920F931F93DF93CF93CDB7DEB780
:102E0000FC01EDB6FEB6448155814F5F5F4F8DB733
:102E10009EB7841B950B0FB6F8949EBF0FBE8DBF57
:102E20000DB71EB70F5F1F4FCF01B80120E030E094
:102E30000E944E33C8010E942D040FB6F894FEBEC6
:102E40000FBEEDBECF91DF911F910F91FF90EF90DC
:102E500008958F929F92AF92BF92CF92DF92EF929E
:102E6000FF920F931F93DF93CF93CDB7DEB72E97CB
:102E70000FB6F894DEBF0FBECDBF4E010894811C83
:102E8000911CC40168EB73E00E947335C4010E9479
:102E9000F8167B018C0160918E0270918F02882759
:102EA00077FD8095982F0E9499369B01AC01C8014F
:102EB000B7010E944D375B016C01C4010E94893546
:102EC00048E0842E912C8C0E9D1EC4016FEB73E0A4
:102ED0000E947335C4010E94F8167B018C01609139
:102EE0008E0270918F02882777FD8095982F0E941F
:102EF00099369B01AC01C801B7010E944D377B0197
:102F00008C01C4010E948935B501C6019701A80151
:102F10000E949F0D2E960FB6F894DEBF0FBECDBF58
:102F2000CF91DF911F910F91FF90EF90DF90CF90A5
:102F3000BF90AF909F908F9008950F931F93DF9352
:102F4000CF93CDB7DEB727970FB6F894DEBF0FBE8D
:102F5000CDBF8E010F5F1F4FC80168EB73E00E9469
:102F60007335C8010E94F8166093A4027093A502FD
:102F70008093A6029093A702C8010E94893500E6BB
:102F800015E0C8016BEA70E00E94A22F4091A402F4
:102F90005091A5026091A6027091A702C80122E09B
:102FA00030E00E94C231C80168EA70E00E94A22F9E
:102FB000C8010E94C52F27960FB6F894DEBF0FBE3A
:102FC000CDBFCF91DF911F910F910895CF92DF92E6
:102FD000EF92FF920F931F93DF93CF93CDB7DEB79E
:102FE00027970FB6F894DEBF0FBECDBF6E010894D1
:102FF000C11CD11CC60168EB73E00E947335C60189
:103000000E94F8167B018C01C6010E948935C80117
:10301000B70120919402309195024091960250910F
:1030200097020E9496350E94D61227960FB6F89402
:10303000DEBF0FBECDBFCF91DF911F910F91FF90EB
:10304000EF90DF90CF9008950F931F93DF93CF936E
:10305000CDB7DEB727970FB6F894DEBF0FBECDBF52
:103060008E010F5F1F4FC80168EB73E00E9473353C
:10307000C8010E94F8160E94D612C8010E94893524
:1030800027960FB6F894DEBF0FBECDBFCF91DF916C
:103090001F910F910895CF92DF92EF92FF920F93BD
:1030A0001F93DF93CF93CDB7DEB727970FB6F89472
:1030B000DEBF0FBECDBF6E010894C11CD11CC6017E
:1030C00068EB73E00E947335C6010E94F8167B011D
:1030D0008C01C6010E948935C801B7012091900278
:1030E0003091910240919202509193020E94963544
:1030F0000E94091327960FB6F894DEBF0FBECDBF0E
:10310000CF91DF911F910F91FF90EF90DF90CF90C3
:1031100008950F931F93DF93CF93CDB7DEB7279713
:103120000FB6F894DEBF0FBECDBF8E010F5F1F4FED
:10313000C80168EB73E00E947335C8010E94F8165D
:103140000E940913C8010E94893527960FB6F8948A
:10315000DEBF0FBECDBFCF91DF911F910F910895BC
:10316000CF92DF92EF92FF920F931F93DF93CF9353
:10317000CDB7DEB727970FB6F894DEBF0FBECDBF31
:103180006E010894C11CD11CC60168EB73E00E945B
:103190007335C6010E94F8167B018C01C6010E949E
:1031A0008935C801B7010E9466369B01AC018EE0EB
:1031B00090E0B9010E943C130E94941327960FB629
:1031C000F894DEBF0FBECDBFCF91DF911F910F915D
:1031D000FF90EF90DF90CF900895EF92FF920F93C2
:1031E0001F93DF93CF93CDB7DEB7FC01EDB6FEB6EC
:1031F000448155814F5F5F4F8DB79EB7841B950B00
:103200000FB6F8949EBF0FBE8DBF0DB71EB70F5FF0
:103210001F4FCF01B80120E030E00E944E33C801BB
:103220000E9431040FB6F894FEBE0FBEEDBECF91E2
:10323000DF911F910F91FF90EF9008952F923F9291
:103240004F925F926F927F928F929F92AF92BF92B6
:10325000CF92DF92EF92FF920F931F93DF93CF9362
:10326000CDB7DEB7A4970FB6F894DEBF0FBECDBFC3
:103270008E010F5F1F4FC80168EB73E00E9473352A
:10328000C8010E94ED18AA2797FDA095BA2F20919A
:103290008E0230918F02442737FD4095542FBC0198
:1032A000CD010E9415385B01C8010E9489358E014D
:1032B000085F1F4FC8016FEB73E00E947335C801B0
:1032C0000E94F816F62EE72ED82EC92EC8010E94AD
:1032D00089358E01015F1F4FC80166EC73E00E94C3
:1032E0007335C8010E94F81669A37AA38BA39CA327
:1032F000C8010E9489358E010A5E1F4FC8016DEC1E
:1033000073E00E947335C8010E94F8162B013C013E
:10331000C8010E9489352090A2023090A30282E069
:1033200090E09093A3028093A2028091A4029091D6
:10333000A502A091A602B091A7028D8F9E8FAF8F9C
:10334000B8A32F2D3E2D4D2D5C2DC901DA016C0146
:103350007D01882499241EC00894811C911CC09270
:10336000A402D092A502E092A602F092A702C701A1
:10337000B601A5010E94AA06AC01C501B50122E073
:103380000E948D0EC701B601A30192010E949635DD
:103390006B017C01C701B60129A13AA14BA15CA137
:1033A0000E94FA351816C4F68D8D9E8DAF8DB8A18A
:1033B0008093A4029093A502A093A602B093A702C3
:1033C000EE24FF24EA18FB08C7010E94A50CC501E2
:1033D00062E070E00E944038709561957F4F3B013C
:1033E000C50162E070E00E9440386B0101E010E02E
:1033F0000BC0C3010E94A50CC7010E94CB0CC601E3
:103400000E94A50C0F5F1F4F8016910694F78D8DBB
:103410009E8DAF8DB8A18093A4029093A502A09336
:10342000A602B093A7023092A3022092A202A49611
:103430000FB6F894DEBF0FBECDBFCF91DF911F91C5
:103440000F91FF90EF90DF90CF90BF90AF909F9043
:103450008F907F906F905F904F903F902F90089546
:103460002F923F924F925F926F927F928F929F9294
:10347000AF92BF92CF92DF92EF92FF920F931F9382
:10348000DF93CF93CDB7DEB76B970FB6F894DEBF5F
:103490000FBECDBF6E010894C11CD11CC60168EBE4
:1034A00073E00E947335C6010E94F8167B018C01FF
:1034B00060918E0270918F02882777FD8095982FFA
:1034C0000E9499369B01AC01C801B7010E944D379B
:1034D0003B014C01C6010E9489358E01085F1F4FD8
:1034E000C8016FEB73E00E947335C8010E94F816A3
:1034F0006B017C01A0908E02B0908F02C8010E94E7
:1035000089358E01015F1F4FC80166EC73E00E9490
:103510007335C8010E94ED189F8B8E8BC8010E94E5
:10352000893584E393E00E946723688F798F8A8FBF
:103530009B8F81E693E00E9467231B012C01C4014D
:10354000B30120E030E040EA51E40E94FA3587FD03
:103550002FC0B501882777FD8095982F0E94993656
:103560009B01AC01C701B6010E944D375B016C01A4
:1035700020E030E040EA51E40E94FA3587FD18C0AF
:103580000E94410D0E9499369B01AC01C401B30118
:103590000E944937181664F00E94410D0E94993626
:1035A0009B01AC01C601B5010E94493718163CF4D5
:1035B00080E695E063E372E00E94D8311CC080E6AB
:1035C00095E063E772E00E94D831688D798D8A8D2D
:1035D0009B8D0E9499367B018C01C201B1010E9432
:1035E00099369B01AC01C801B701840173018E8833
:1035F0009F880E947A106B960FB6F894DEBF0FBEBC
:10360000CDBFCF91DF911F910F91FF90EF90DF9091
:10361000CF90BF90AF909F908F907F906F905F9072
:103620004F903F902F9008958F929F92AF92BF92AC
:10363000CF92DF92EF92FF920F931F93DF93CF937E
:10364000CDB7DEB72E970FB6F894DEBF0FBECDBF55
:103650008E010F5F1F4FC80168EB73E00E94733546
:10366000C8010E94ED18AA2797FDA095BA2F2091B6
:103670008E0230918F02442737FD4095542FBC01B4
:10368000CD010E9415385B016C01C8010E9489358B
:1036900058E0852E912C8C0E9D1EC4016FEB73E0BB
:1036A0000E947335C4010E94ED18AA2797FDA095CA
:1036B000BA2F20918E0230918F02442737FD40951A
:1036C000542FBC01CD010E9415387B018C01C4012F
:1036D0000E948935A501662757FD6095762F84E302
:1036E00093E00E943924A701662757FD6095762F45
:1036F00081E693E00E9439240E943B100E945F0CF7
:103700002E960FB6F894DEBF0FBECDBFCF91DF91DE
:103710001F910F91FF90EF90DF90CF90BF90AF90EF
:103720009F908F9008950F931F93DF93CF93CDB702
:10373000DEB727970FB6F894DEBF0FBECDBF8E0160
:103740000F5F1F4FC80168EB73E00E947335C8011B
:103750000E94ED18BC0182E190E00E943C13C80178
:103760000E9489350E94941327960FB6F894DEBF05
:103770000FBECDBFCF91DF911F910F910895EF92B2
:10378000FF920F931F93DF93CF93CDB7DEB72797A9
:103790000FB6F894DEBF0FBECDBF8E010F5F1F4F77
:1037A000C80168EB73E00E947335C8010E94ED18F0
:1037B0007C01C8010E94893580E190E0B7010E9438
:1037C0003C130E94941327960FB6F894DEBF0FBEE9
:1037D000CDBFCF91DF911F910F91FF90EF90089592
:1037E000CF92DF92EF92FF920F931F93DF93CF93CD
:1037F000CDB7DEB72E970FB6F894DEBF0FBECDBFA4
:103800008E010F5F1F4FC80168EB73E00E94733594
:10381000C8010E94ED186C01C8010E9489358E0113
:10382000085F1F4FC8016FEB73E00E947335C8013A
:103830000E94ED187C01C8010E9489358BE0C816F2
:10384000D1042CF080E090E0B6010E943C138BE0A4
:10385000E816F1042CF082E090E0B7010E943C13DE
:103860000E9494132E960FB6F894DEBF0FBECDBF04
:10387000CF91DF911F910F91FF90EF90DF90CF904C
:1038800008950F931F93DF93CF93CDB7DEB72E9795
:103890000FB6F894DEBF0FBECDBF8E010F5F1F4F76
:1038A000C80168EB73E00E947335C8010E94ED18EF
:1038B0009093A3028093A202C8010E9489358E01D1
:1038C000085F1F4FC8016FEB73E00E947335C8019A
:1038D0000E94ED189093AA028093A902C8010E9449
:1038E000893500E615E0C80164E371E00E94A22F6B
:1038F0006091A2027091A302C8014AE050E00E94C8
:10390000F230C80161E271E00E94A22F6091A90229
:103910007091AA02C8014AE050E00E9405312E963B
:103920000FB6F894DEBF0FBECDBFCF91DF911F91D0
:103930000F910895EF92FF920F931F93DF93CF9310
:10394000CDB7DEB7FC01EDB6FEB6448155814F5FC1
:103950005F4F8DB79EB7841B950B0FB6F8949EBF33
:103960000FBE8DBF0DB71EB70F5F1F4FCF01B80140
:1039700020E030E00E944E33C8010E944F040FB691
:10398000F894FEBE0FBEEDBECF91DF911F910F9157
:10399000FF90EF9008952F923F924F925F926F9217
:1039A0007F928F929F92AF92BF92CF92DF92EF92CF
:1039B000FF920F931F93DF93CF93CDB7DEB7A097FE
:1039C0000FB6F894DEBF0FBECDBF8E010F5F1F4F45
:1039D000C80168EB73E00E947335C8010E949A1C0D
:1039E00020918E0230918F02442737FD4095542F4D
:1039F0000E9415386D8F7E8F8F8F98A3C8010E940B
:103A000089358E01085F1F4FC8016FEB73E00E947C
:103A10007335C8010E949A1C20918E0230918F024A
:103A2000442737FD4095542F0E9415381B012C0167
:103A3000C8010E9489358E01015F1F4FC80166ECE5
:103A400073E00E947335C8010E94ED18AA2797FD04
:103A5000A095BA2F20918E0230918F02442737FD16
:103A60004095542FBC01CD010E9415383B014C01FB
:103A70005B01C8010E9489358E010A5E1F4FC80193
:103A80006DEC73E00E947335C8010E94ED187C0153
:103A9000C8010E9489356091A4027091A5028091AD
:103AA000A6029091A702A3010E94AA06AC01C70139
:103AB0006FEF70E00E94DD067C01CC24B7FCC0945F
:103AC000DC2CC601B5010E9499362DEC3CEC4CE88B
:103AD0005FE30E944D370E9466365B016C016D8D7D
:103AE0007E8D8F8D98A1A201910185010E94410FC9
:103AF0000E94BA0AA0960FB6F894DEBF0FBECDBFE3
:103B0000CF91DF911F910F91FF90EF90DF90CF90B9
:103B1000BF90AF909F908F907F906F905F904F90ED
:103B20003F902F9008952F923F924F925F926F9205
:103B30007F928F929F92AF92BF92CF92DF92EF923D
:103B4000FF920F931F93DF93CF93CDB7DEB7A69766
:103B50000FB6F894DEBF0FBECDBF8E010F5F1F4FB3
:103B6000C80168EB73E00E947335C8010E949A1C7B
:103B700020918E0230918F02442737FD4095542FBB
:103B80000E9415386BA37CA38DA39EA3C8010E943D
:103B900089358E01085F1F4FC8016FEB73E00E94EB
:103BA0007335C8010E949A1C20918E0230918F02B9
:103BB000442737FD4095542F0E9415381B012C01D6
:103BC000C8010E9489358E01015F1F4FC80166EC54
:103BD00073E00E947335C8010E94ED18AA2797FD73
:103BE000A095BA2F20918E0230918F02442737FD85
:103BF0004095542FBC01CD010E9415386B017C010A
:103C00007AA369A3C8010E9489358E010A5E1F4FFD
:103C1000C8016DEC73E00E947335C8010E94ED1875
:103C200098A38F8FC8010E948935C60162E070E0B9
:103C30000E9440384B01CB01880F991F69A07AA0E0
:103C4000681A790A8091A2029091A3020197C1F4A7
:103C500084E393E00E9467237B018C0181E693E07B
:103C60000E9467235B016C016BA17CA18DA19EA1C9
:103C7000A20191010E945B068093A9021092AA0200
:103C80002091A9023091AA0222303105F9F4940161
:103C9000442737FD4095542FEBA0FCA00DA11EA199
:103CA000E21AF30A040B150BC301AA2797FDA0958E
:103CB000BA2FE80EF91E0A1F1B1F6BA07CA08DA057
:103CC0009EA0620E731E841E951E3DC023303105DA
:103CD000C9F49401442737FD4095542F62015101E6
:103CE000A21AB30AC40AD50AC301AA2797FDA09550
:103CF000BA2FA80EB91ECA1EDB1E220E331E441E8A
:103D0000551E32C0C401AA2797FDA095BA2FA30162
:103D1000662757FD6095762F24303105B9F4EBA066
:103D2000FCA00DA11EA1E80EF91E0A1F1B1FE41A1C
:103D3000F50A060B170B6BA07CA08DA09EA0681A3D
:103D4000790A8A0A9B0A6201510114C05C016D0163
:103D5000A20CB31CC41CD51CA41AB50AC60AD70AE7
:103D6000281A390A4A0A5B0AEBA0FCA00DA11EA181
:103D7000370148016091A4027091A5028091A602CA
:103D80009091A70249A15AA10E94AA06AC018F8D69
:103D900098A16FEF70E00E94DD069E8F8D8FC801A5
:103DA000B701A60195010E94120E8D8D9E8D02977E
:103DB0004CF089A19AA1BC014D8D5E8D2091A90284
:103DC0000E948D0EC401B301A20191010E94120E46
:103DD0000E94BA0AA6960FB6F894DEBF0FBECDBFFA
:103DE000CF91DF911F910F91FF90EF90DF90CF90D7
:103DF000BF90AF909F908F907F906F905F904F900B
:103E00003F902F900895CF93DF93EC016CE074E026
:103E10000E940934882319F00E942917C7C0CE01D7
:103E200060E674E00E940934882319F00E94301A79
:103E3000BDC0CE0163E174E00E940934882319F00B
:103E40000E949D17B3C0CE016AE174E00E9409345C
:103E5000882319F00E944B18A9C0CE0161E274E0DA
:103E60000E940934882319F00E94E6179FC0CE01F2
:103E700061E974E00E940934882319F00E948918CE
:103E800095C0CE0168E974E00E940934882319F0D6
:103E90000E9424188BC0CE0168E274E00E940934AD
:103EA000882319F00E94931D81C0CE016FE274E057
:103EB0000E940934882319F00E94CB1C77C0CE01E0
:103EC00066E374E00E940934882319F00E94411CC3
:103ED0006DC0CE016DE374E00E940934882319F0AF
:103EE0000E94141B63C0CE016BE474E00E9409348D
:103EF000882319F00E941E1959C0CE0162E574E0B2
:103F00000E940934882319F00E940A104FC0CE0184
:103F100069E574E00E940934882319F00E94341086
:103F200045C0CE0167E674E00E940934882319F089
:103F30000E94F01B3BC0CE016EE674E00E94093483
:103F4000882319F00E94CD1531C0CE0163E874E0DA
:103F50000E940934882319F00E94B01827C0CE01AE
:103F60006AE874E00E940934882319F00E94BF1B9C
:103F70001DC0CE016FE974E00E940934882319F056
:103F80000E94931B13C0CE0165E774E00E940934C0
:103F9000882319F00E94491609C0CE016CE774E02D
:103FA0000E940934882319F00E94121681E0DF91E3
:103FB000CF910895CF93DF93EC010E94031F8823D4
:103FC00029F4CE010E94DE160E94E60ADF91CF910D
:103FD00008956F927F928F929F92AF92BF92CF92ED
:103FE000DF92EF92FF920F931F93DF93CF93CDB7A2
:103FF000DEB727970FB6F894DEBF0FBECDBF4C01DA
:10400000FC0164807580AA24BB2400E010E0EE244B
:10401000FF246E010894C11CD11C3DC0C401B7012E
:104020000E94BB328C32A1F5C601B401A5019701F3
:104030000E94093502301105B9F0033011053CF436
:104040000115110559F001301105C9F40AC00330FA
:10405000110569F00430110591F40CC081EB93E077
:104060000BC088EB93E008C08FEB93E005C086ECB3
:1040700093E002C08DEC93E0B6010E945C355701DD
:104080000894A11CB11C0F5F1F4FC6010E94893507
:104090000894E11CF11CE614F7040CF4BFCF109354
:1040A0000B0300930A0380E695E065EB72E00E9443
:1040B000A22F80E695E061EB73E00E94EB3180E691
:1040C00095E06FEA72E00E94A22F80E695E068EB2F
:1040D00073E00E94EB3180E695E069EA72E00E94AD
:1040E000A22F80E695E06FEB73E00E94EB3180E653
:1040F00095E063EA72E00E94A22F80E695E066EC0C
:1041000073E00E94EB3180E695E06DE972E00E9479
:10411000A22F80E695E06DEC73E00E941E32279698
:104120000FB6F894DEBF0FBECDBFCF91DF911F91C8
:104130000F91FF90EF90DF90CF90BF90AF909F9046
:104140008F907F906F9008955F926F927F928F9281
:104150009F92AF92BF92CF92DF92EF92FF920F9316
:104160001F93DF93CF93CDB7DEB7C655D0400FB6C0
:10417000F894DEBF0FBECDBF782E692EAA24BB24D3
:10418000F4E28F2E912C8C0E9D1E19C080E695E0D6
:104190000E94A52E182F6FE070E080E090E00E9452
:1041A0003A2CF401EA0DFB1D10831A3029F480E645
:1041B00095E00E94CE2E0AC00894A11CB11C80E696
:1041C00095E00E94742E1816190604F3BE016C5D6A
:1041D0007F4FA60EB71EF5011082872D962D0E94E7
:1041E000D6348E010F5F1F4FC80168E772E00E944E
:1041F000D634872D962DB8010E9440335C01C8014A
:104200000E948935FFEFAF16FFEFBF0609F460C0CB
:10421000552453945092E802E8E0EE2EF12CEC0E77
:10422000FD1EA5014F5F5F4FC701672D762D0E94D0
:1042300050358E01015F1F4FC801B7010E947335D1
:10424000C8010E949A1C6B017C01C8010E9489353B
:104250008E010A5E1F4FC801672D762D40E050E0A9
:1042600095010E940935872D962DB8010E945C3575
:10427000C8010E9489358E01035E1F4FC801672D5A
:10428000762D0E947335C8010E94760A4B015C01AD
:10429000C8010E9489358C149D04AE04BF0419F432
:1042A00050921B0310C080E695E062ED72E00E9420
:1042B000A22F80E695E0B501A4012AE030E00E943B
:1042C000DE3010921B03CE0108960E94893504C08F
:1042D0001092E80210921B03872D962DCA5ADF4FC9
:1042E0000FB6F894DEBF0FBECDBFCF91DF911F9107
:1042F0000F91FF90EF90DF90CF90BF90AF909F9085
:104300008F907F906F905F9008959F92AF92BF9231
:10431000CF92DF92EF92FF920F931F93DF93CF9391
:10432000CDB7DEB72E970FB6F894DEBF0FBECDBF68
:104330006C010E94062C5B018E010F5F1F4FC801AC
:1043400064E071E00E94D634A8E0EA2EF12CEC0E75
:10435000FD1E902E012F1BC00E94062C6A197B099E
:1043600020919C0230919D02261737072CF40E9461
:10437000E60A0E94062C5B01C7010E94A420892D39
:10438000902FB7010E945C35C7010E9489358D814D
:104390009E81892B09F38091E802882361F0809146
:1043A0001B03882341F40E94DF0AC60164E071E028
:1043B0000E94D6341AC00E94062C0E94062C6093DC
:1043C0000C0370930D0380930E0390930F0360937F
:1043D0001003709311038093120390931303C6018B
:1043E000BE016F5F7F4F0E947335CE0101960E9420
:1043F0008935C6012E960FB6F894DEBF0FBECDBF2D
:10440000CF91DF911F910F91FF90EF90DF90CF90B0
:10441000BF90AF909F900895EF92FF920F931F93DC
:10442000DF93CF93CDB7DEB727970FB6F894DEBFF3
:104430000FBECDBF7C0165E074E00E947B33882312
:1044400071F08E010F5F1F4FC801B7010E947335D5
:10445000C8010E94E91FC8010E94893581E02796A2
:104460000FB6F894DEBF0FBECDBFCF91DF911F9185
:104470000F91FF90EF900895CF92DF92FF920F93EC
:104480001F93DF93CF93CDB7DEB72E970FB6F89477
:10449000DEBF0FBECDBF6C018E010F5F1F4FC80185
:1044A000B6010E947335C8010E940C22F82EC80183
:1044B0000E948935FF2079F08E01085F1F4FC801E7
:1044C00064E173E00E947335C8010E94DA1FC801DD
:1044D0000E94893506C080E695E06EEB72E00E948E
:1044E000E52FC60164E071E00E94F03410921B03D6
:1044F0000E94E60A2E960FB6F894DEBF0FBECDBF1F
:10450000CF91DF911F910F91FF90DF90CF90089591
:10451000EF92FF920F931F93DF93CF93CDB7DEB748
:1045200027970FB6F894DEBF0FBECDBF8E010F5F89
:104530001F4FC8010E948521B4E1EB2EB3E0FB2E92
:10454000C701B8010E945C35C8010E948935C701C6
:104550000E943C2227960FB6F894DEBF0FBECDBF57
:10456000CF91DF911F910F91FF90EF900895AF923F
:10457000BF92CF92DF92EF92FF920F931F9300E6CC
:1045800015E0C80140E051EE60E070E00E94EE2DC1
:10459000C80169EE72E00E94A22FC8010E94C52FD7
:1045A0000E9494130E94C20F04E3A02E03E0B02ED9
:1045B0004091900250919102609192027091930209
:1045C000C5010E943124409194025091950260915E
:1045D000960270919702C5010E94292411E6C12E0E
:1045E00013E0D12E4091900250919102609192027D
:1045F00070919302C6010E9431244091940250911F
:1046000095026091960270919702C6010E9429243A
:104610006091990270919A02882777FD8095982F72
:104620000E94993620918A0230918B0240918C022F
:1046300050918D020E94FE357B018C0160918802B1
:1046400070918902882777FD8095982F0E9499366E
:104650009B01AC01C801B7010E944D370E9466362C
:104660007B018C01C501B801A7010E943924C60154
:10467000B801A7010E94392487EF93E064ED73E04D
:104680000E945C350E94E60A0E94111064EF71E0FE
:1046900080E090E00E943A2C0E94BA0A1F910F918C
:1046A000FF90EF90DF90CF90BF90AF900895FC0106
:1046B000238534854585568587819085A185B2857A
:1046C000281B390B4A0B5B0BB901CA010895FC0189
:1046D00067817085818592850895FC018AEC92E05E
:1046E0009183808312821782108611861286138628
:1046F00014861586168680E090E0A0E0B0E08787FB
:10470000908BA18BB28B80E090E0A0E8BFE3838B1D
:10471000948BA58BB68B878B908FA18FB28F138EC6
:10472000148E158E168E81E090E094A383A315A2BB
:1047300016A28FEF80A7178E10A211A212A21382C9
:1047400014821582168272A761A754A743A7089501
:10475000AF92BF92CF92DF92EF92FF920F931F938F
:10476000CF93DF93EC017A018B01CB01BA012F8546
:10477000388949895A890E94FA35882309F44CC03E
:10478000C801B70120E030E040E050E00E94493726
:10479000181664F4AB88BC88CD88DE88C801B701E0
:1047A000A60195010E9449371816E4F0C801B70127
:1047B00020E030E040E050E00E94FA358823BCF46D
:1047C0008B899C89AD89BE895C016D01D7FAD09433
:1047D000D7F8D094C801B701A60195010E94FA3517
:1047E00088232CF4AF86B88AC98ADA8A04C0EF8697
:1047F000F88A098B1A8B60E074E284E799E42F85CC
:10480000388949895A890E94FE359F770E946B3604
:104810006B8F7C8F8D8F9E8FDF91CF911F910F912A
:10482000FF90EF90DF90CF90BF90AF9008950F93DF
:104830001F938C01DC01ED91FC910484F585E02D42
:104840000995AB01BC01C8010E94A8231F910F91DB
:104850000895FC01478B508F618F728F0E9417243F
:104860000895FC01438B548B658B768B0E94172433
:104870000895FC0147835087618772874387548777
:10488000658776870E9417240895FC014387548723
:10489000658776870E9417240895FC01878190859B
:1048A000A185B285840F951FA61FB71F83879487A4
:1048B000A587B687CF010E9417240895DC011296C0
:1048C0008C9112978230E1F0833028F4882341F0F4
:1048D000813071F50EC08430D1F0883049F520C0A8
:1048E000ED91FC9111970280F381E02DCD010995A6
:1048F0000895ED91FC9111970480F581E02D0DC094
:10490000ED91FC9111970680F781E02D06C0ED91A5
:10491000FC9111970084F185E02DCD010995089552
:10492000ED91FC9111970284F385E02DCD0109955D
:104930000895CF93DF93EC016F85788989899A89EF
:1049400020E030E040E050E00E94493718161CF4A7
:10495000E9A5FAA502C0EBA5FCA50995DF91CF91C9
:104960000895CF93DF93EC0170E06770707063304F
:10497000710559F1643071054CF461307105D9F05D
:1049800062307105DCF4672B79F053C06530710536
:10499000B1F16530710524F166307105B9F1673008
:1049A000710509F046C035C08B8161E00E94172D6A
:1049B0008C8160E01BC08B8161E002C08B8160E074
:1049C0000E94172D8C8160E006C08B8160E00E9400
:1049D000172D8C8161E00E94172D8D8161E00AC046
:1049E0008B8160E00E94172D8C8161E00E94172D61
:1049F0008D8160E00E94172D8E8160E018C08B8150
:104A000060E00E94172D8C8161E009C08B8160E01D
:104A100002C08B8161E00E94172D8C8160E00E94B2
:104A2000172D8D8160E00E94172D8E8161E00E941C
:104A3000172DDF91CF910895CF93DF93EC0170E0B4
:104A40006370707061307105A1F0623071051CF403
:104A5000672B41F034C062307105D1F063307105CD
:104A600071F51DC08B8161E00E94172D8C8160E083
:104A700006C08B8160E00E94172D8C8161E00E944E
:104A8000172D8D8161E00E94172D8E8160E015C089
:104A90008B8160E00E94172D8C8161E006C08B81C4
:104AA00061E00E94172D8C8160E00E94172D8D819E
:104AB00060E00E94172D8E8161E00E94172DDF912A
:104AC000CF910895CF93DF93EC0170E06370707025
:104AD0006130710581F0623071051CF4672B41F083
:104AE0001CC06230710571F063307105B1F40DC006
:104AF0008B8160E002C08B8161E00E94172D8C8168
:104B000061E009C08B8161E002C08B8160E00E949E
:104B1000172D8C8160E00E94172DDF91CF910895B1
:104B20001F93CF93DF93EC0110E06F85788989891B
:104B30009A8920E030E040E050E00E9449371816A2
:104B40000CF411E08DA118278C81612F0E94172D84
:104B50006EA181E068278B810E94172D8BA19CA1FB
:104B60000E94932C8B816EA10E94172DDF91CF9113
:104B70001F9108952F923F924F925F926F927F9272
:104B80008F929F92AF92BF92CF92DF92EF92FF925D
:104B90000F931F93DF93CF9300D000D000D0CDB7F9
:104BA000DEB79E838D83FC01638474848584968440
:104BB00087819085A185B285681A790A8A0A9B0A3D
:104BC00059F40F2EF0E0EF2EF0E0FF2EF0E00F2F63
:104BD000F0E01F2FF02DB4C0ED81FE81A784B088D6
:104BE000C188D288C601B501A60195010E944D3742
:104BF0007B018C01C601B50120E030E040E050E0CF
:104C00000E94FA35882324F417FB109517F91095A4
:104C1000ED81FE812788308C418C528CC201B1011C
:104C2000A20191010E94963569837A838B839C83CC
:104C3000C801B70129813A814B815C810E94FE3510
:104C40007B018C01C401B3010E9499369B01AC0128
:104C5000C801B7010E94FA358823B4F5C601B50131
:104C600020E030E040E050E00E94FA35882339F43B
:104C700069817A818B819C810E94B4370DC0C20109
:104C8000B101A60195010E94FE359B01AC015F7741
:104C9000C601B5010E9496357B018C01ED81FE8134
:104CA000D388C488B588A6882D2D3C2D4B2D5A2D30
:104CB0000E94493718160CF043C08D2D9C2DAB2D4A
:104CC000BA2D7C018D013CC0C601B50120E030E069
:104CD00040E050E00E94FA35882369F469817A81C6
:104CE0008B819C810E94B4377B018C0117FB10954E
:104CF00017F910950FC0C201B101A60195010E94DC
:104D0000FE359B01AC015F77C601B5010E94953568
:104D10007B018C01ED81FE8183899489A589B68907
:104D20005C016D01D7FAD094D7F8D094C801B701CF
:104D3000A60195010E94FA35882314F486017501B5
:104D4000B701C80126960FB6F894DEBF0FBECDBFDF
:104D5000CF91DF911F910F91FF90EF90DF90CF9057
:104D6000BF90AF909F908F907F906F905F904F908B
:104D70003F902F900895AF92BF92CF92DF92EF9223
:104D8000FF920F931F93CF93DF93EC010E94142C9B
:104D90005B016C012F8D38A149A15AA18B8D9C8D8F
:104DA000AD8DBE8D820F931FA41FB51F8217930771
:104DB000A407B50730F0A816B906CA06DB0660F4EA
:104DC00006C0A816B906CA06DB0608F43FC0A2163C
:104DD000B306C406D506D0F5EF84F88809891A8988
:104DE000C801B70120E030E040E050E00E944937C0
:104DF000181644F48F819885A985BA850196A11D5E
:104E0000B11D11C0C801B70120E030E040E050E022
:104E10000E94FA3588235CF48F819885A985BA852C
:104E20000197A109B1098F839887A987BA87E8817B
:104E3000F9816F8167700190F081E02DCE010995B5
:104E4000AF8EB8A2C9A2DAA281E001C080E0DF91F2
:104E5000CF911F910F91FF90EF90DF90CF90BF9077
:104E6000AF900895EF92FF920F931F93FC0123855B
:104E700034854585568587819085A185B285E784EF
:104E8000F0880189128982179307A407B50724F4D3
:104E9000D801C701BF7704C0D801C701BF77B05898
:104EA0008787908BA18BB28B23853485458556856A
:104EB00087819085A185B285281739074A075B0746
:104EC00011F480E003C0CF010E94BB261F910F9117
:104ED000FF90EF900895CF93DF93EC012B853C85F5
:104EE0004D855E858F819885A985BA8528173907F4
:104EF0004A075B0711F480E009C0CE010E94BB267F
:104F0000882319F0CE010E94172481E0DF91CF9110
:104F10000895CF93DF93EC01CE010E946B27882385
:104F2000D9F7DF91CF9108950F931F938C01FC0166
:104F300043875487658776870E941724C8010E949B
:104F400089271F910F910895FC018091A6048C3050
:104F500090F480838F5F8093A604815090E0FC01E1
:104F6000EE0FFF1FE80FF91FE955FB4F88EB9BE0A1
:104F70009283818308958FEF80830895DC018C9163
:104F800090E0FC01EE0FFF1FE80FF91FE955FB4F02
:104F900080818F7B80838C916CE00E94343890E01C
:104FA000AC01440F551F480F591F440F551F440FA4
:104FB000551F20E030E0C901840F951FFC01EE0F62
:104FC000FF1FE80FF91FE955FB4F808186FD05C0E3
:104FD0002F5F3F4F2C30310571F70895FC01208180
:104FE0002C30B8F58181992787FD909548E850E0ED
:104FF000481B590B440F551F440F551F6417750765
:1050000084F08281992787FD909548E552E0481BFE
:10501000590B440F551F440F551F641775070CF4A7
:10502000AB0142505040CA01AA2797FDA095BA2F64
:10503000880F991FAA1FBB1F4FB7F89430E0F901E2
:10504000EE0FFF1FE20FF31FE955FB4F92838183A1
:105050004FBF0895AF92BF92CF92DF92EF92FF922F
:105060000F931F93CF93DF93EC019B0182E060329B
:1050700078070CF048C077FF03C020E030E005C09F
:10508000653B710514F024EB30E000D000D0B9018D
:10509000882777FD8095982F2981332727FD309524
:1050A000E8E8AE2EB12CA21AB30AAA0CBB1CAA0CBB
:1050B000BB1CCC24B7FCC094DC2CEA81FF27E7FDA5
:1050C000F09528E532E02E1B3F0B220F331F220FF5
:1050D000331F442737FD4095542FEDB7FEB721838A
:1050E00032834383548320E030E040E050E004EB1F
:1050F000E02EF12C012D112D0E9432329B010F90D8
:105100000F900F900F90CE01B9010E94EE27DF9112
:10511000CF911F910F91FF90EF90DF90CF90BF90B4
:10512000AF900895CF92DF92EF92FF921F93CF93AB
:10513000DF93EC01162F7A01690188818C3008F029
:1051400064C0862F61E00E94D82C888190E0FC0129
:10515000EE0FFF1FE80FF91FE955FB4F1F7380810A
:10516000807C812B808380E292E08E199F0964E02D
:1051700070E00E944038698380E699E08C199D09AF
:1051800064E070E00E9440386A83A8818A2F6CE056
:105190000E943438682F70E0AB01440F551F460F52
:1051A000571F440F551F440F551F20E030E0C90121
:1051B000840F951FFC01EE0FFF1FE80FF91FE95543
:1051C000FB4F808186FD15C02F5F3F4F2C3031058E
:1051D00071F724C01092800082E0809381001092C9
:1051E000850010928400B19A80916F008260809354
:1051F0006F008A2F90E0FC01EE0FFF1FE80FF91FF0
:10520000E955FB4F8081806480838881DF91CF9155
:105210001F91FF90EF90DF90CF900895672BD1F210
:10522000E8CF40E252E020E639E00E94922808955B
:105230001F920F920FB60F9211242F933F934F930B
:105240005F936F937F938F939F93AF93BF93EF93EE
:10525000FF938091CB0487FF05C0109285001092C8
:1052600084002BC02091CB04332727FD30958091FB
:10527000A60490E02817390704F58091CB049927FC
:1052800087FD9095FC01EE0FFF1FE80FF91FE95510
:10529000FB4F808186FF11C08091CB04992787FD49
:1052A0009095FC01EE0FFF1FE80FF91FE955FB4F2A
:1052B00080818F7360E00E94172D8091CB048F5FF7
:1052C0008093CB042091CB04332727FD3095809128
:1052D000A60490E0281739070CF04EC08091CB044B
:1052E0008C300CF049C02091840030918500809171
:1052F000CB04992787FD9095FC01EE0FFF1FE80F67
:10530000F91FE955FB4F81819281280F391F309396
:105310008900209388008091CB04992787FD909580
:10532000FC01EE0FFF1FE80FF91FE955FB4F8081CD
:1053300086FF2BC08091CB04992787FD9095FC01B7
:10534000EE0FFF1FE80FF91FE955FB4F80818F73A8
:1053500061E00E94172D19C080E49CE905C080918E
:105360008400909185000496909389008093880032
:105370008FEF8093CB0409C08091840090918500C9
:10538000049680549C4940F3EACFFF91EF91BF917E
:10539000AF919F918F917F916F915F914F913F91CD
:1053A0002F910F900FBE0F901F901895F999FECF77
:1053B00072BD61BDF89A80B50895F999FECF1FBA04
:1053C00072BD61BD40BD0FB6F894FA9AF99A0FBE4E
:1053D00008950895E0EBF0E09081936890838770E2
:1053E0008093B1001092B3008BE061E00E94D82C52
:1053F0000895E0EBF0E09081936290838770809352
:10540000B1001092B40083E061E00E94D82C0895AE
:10541000CF93DF938CE060E00E94172D88E060E07E
:105420000E94172DC7E0D0E084E060E00E94172DB5
:105430008091CE0490E00C2E02C0959587950A9439
:10544000E2F780FF03C088E061E002C088E060E02E
:105450000E94172D84E061E00E94172D21978FEFA5
:10546000CF3FD80709F78CE061E00E94172DDF914C
:10547000CF9108950F931F93CF93DF93EC01142FD7
:105480008A81813029F404E042E058E070E108C0EC
:10549000823011F080E0E0C000E241E050E870E4CA
:1054A000113041F49B85892F86958695869580FFDE
:1054B00010C009C01230A1F49B85892F869586956E
:1054C000869580FD06C0613011F4985F05C0985044
:1054D00003C0613019F4905F9B8752C09051FCCF9C
:1054E000133041F48B85613011F4885F01C088501E
:1054F0008B8746C0143009F043C08B85613011F4AE
:105500008F5F01C081508B87AB85AF73AB87A031B4
:1055100048F4B0E0E5ECF2E0EA1BFB0B2081AB5471
:10552000BD4F19C08A2F8051803148F48A2F90E0F6
:10553000FC01EB55FD4F2081E5EDF2E01DC08A2F07
:105540008052803150F4B0E0E5EEF2E0EA1BFB0B54
:105550002081AB56BD4F8C9115C08A2F805380316E
:1055600018F080E020E00EC08A2F90E0FC01EB579D
:10557000FD4F2081E5EFF2E0E81BF90B808102C0CE
:105580008FEF2FEF3B853F733B879A81913029F452
:105590002093B3008093B40004C0923011F427BD6F
:1055A00088BD242F202B672F652B962F922B90954B
:1055B0008091CE0498239093CE04143019F53031A5
:1055C00018F4922B9093CE04832F8051803130F4C5
:1055D000452B8091CE04842B8093CE04832F805260
:1055E000803130F4572B8091CE04852B8093CE04EC
:1055F0003053303160F5702B8091CE04872B80932F
:10560000CE0425C0832F8695869586958330B1F08C
:10561000843028F4813071F0823070F409C0853014
:1056200081F0853060F0863079F0873081F40BC0EE
:10563000902B0BC0922B09C0942B07C0542B952B99
:1056400004C0962B02C0702B972B9093CE048DEC48
:1056500094E00E94082A8B85DF91CF911F910F91D2
:1056600008950F931F938C018CE061E00E94D82C69
:1056700087E061E00E94D82C88E061E00E94D82C8D
:1056800084E061E00E94D82C1092CE04C8010E94F0
:10569000082A87E060E00E94172D1F910F9108955E
:1056A000DF92EF92FF920F931F938C017B01D42E18
:1056B0008DEC94E00E94312BF801F182E082D282DD
:1056C0001386F1E0DF1629F58091CE04817E809368
:1056D000CE048DEC94E00E94082A8BE061E00E94E9
:1056E000D82C83E061E00E94D82C8BE061E00E941E
:1056F000172D83E061E00E94172D81E00E94EA29C6
:1057000081E00E94F9298FEF8093B3008093B40069
:105710002FC082E0D81661F58091CE048E718093FF
:10572000CE048DEC94E00E94082A85E061E00E949E
:10573000D82C86E061E00E94D82C85E061E00E94D0
:10574000172D86E061E00E94172D84B5836884BD23
:1057500017BC86E061E00E94D82C84B5836284BDCA
:1057600018BC85E061E00E94D82C8FEF87BD88BD12
:105770001F910F91FF90EF90DF9008951F920F926D
:105780000FB60F9211242F933F938F939F93AF9354
:10579000BF938091D3049091D404A091D504B0918B
:1057A000D6043091D7040196A11DB11D232F2D5F82
:1057B0002D3720F02D570196A11DB11D2093D70440
:1057C0008093D3049093D404A093D504B093D604CB
:1057D0008091CF049091D004A091D104B091D204D3
:1057E0000196A11DB11D8093CF049093D004A09386
:1057F000D104B093D204BF91AF919F918F913F910B
:105800002F910F900FBE0F901F9018958FB7F8949F
:105810002091D3043091D4044091D5045091D60402
:105820008FBFB901CA0108959FB7F8942091CF04A2
:105830003091D0044091D1045091D20486B5A89BF8
:1058400006C08F3F21F02F5F3F4F4F4F5F4F9FBFED
:10585000542F432F322F2227280F311D411D511D58
:1058600082E0220F331F441F551F8A95D1F7B901DB
:10587000CA0108959B01AC017FB7F8948091CF04D1
:105880009091D004A091D104B091D20466B5A89BA8
:1058900005C06F3F19F00196A11DB11D7FBFBA2F42
:1058A000A92F982F8827860F911DA11DB11D62E099
:1058B000880F991FAA1FBB1F6A95D1F7BC012DC085
:1058C000FFB7F8948091CF049091D004A091D104B7
:1058D000B091D204E6B5A89B05C0EF3F19F0019640
:1058E000A11DB11DFFBFBA2FA92F982F88278E0F9A
:1058F000911DA11DB11DE2E0880F991FAA1FBB1FBA
:10590000EA95D1F7861B970B885E9340C8F2215029
:1059100030404040504068517C4F211531054105D1
:10592000510571F60895019739F0880F991F880F76
:10593000991F02970197F1F70895789484B58260D2
:1059400084BD84B5816084BD85B5826085BD85B523
:10595000816085BDEEE6F0E0808181608083E1E8D2
:10596000F0E010828081826080838081816080830A
:10597000E0E8F0E0808181608083E1EBF0E080810D
:1059800084608083E0EBF0E0808181608083EAE7DF
:10599000F0E0808184608083808182608083808168
:1059A000816080838081806880831092C100089527
:1059B000CF93DF93482F50E0CA01865D9C4FFC01D6
:1059C00034914A5E5C4FFA018491882369F190E03A
:1059D000880F991FFC01E850FD4FA591B491FC017F
:1059E000EE5FFC4FC591D491662351F42FB7F89424
:1059F0008C91932F909589238C93888189230BC058
:105A0000623061F42FB7F8948C91932F909589238D
:105A10008C938881832B88832FBF06C09FB7F8940F
:105A20008C91832B8C939FBFDF91CF910895482F4A
:105A300050E0CA01825C9C4FFC012491CA01865D42
:105A40009C4FFC0194914A5E5C4FFA0134913323E0
:105A500009F440C0222351F1233071F0243028F49E
:105A60002130A1F0223011F514C02630B1F02730DA
:105A7000C1F02430D9F404C0809180008F7703C036
:105A8000809180008F7D8093800010C084B58F77D7
:105A900002C084B58F7D84BD09C08091B0008F772E
:105AA00003C08091B0008F7D8093B000E32FF0E0C1
:105AB000EE0FFF1FEE5FFC4FA591B4912FB7F89446
:105AC000662321F48C919095892302C08C91892BB7
:105AD0008C932FBF089508951F920F920FB60F92C7
