:100000000C94DC010C9404020C9404020C94040281
:100010000C9404020C9404020C9404020C94040248
:100020000C9404020C9404020C9404020C94662AAE
:100030000C9404020C9404020C9404020C94040228
:100040000C940E2D0C9404020C94BC2E0C940A2FCC
:100050000C9404020C9404020C9404020C94040208
:100060000C9404020C940402000000006410B71DFC
:10007000C8206E3BAC30D9269041DC76F4516B6BD6
:100080005861B24D3C7105502083B8ED44930FF098
:10009000E8A3D6D68CB361CBB0C2649BD4D2D3864E
:1000A00078E20AA01CF2BDBD6D61784C656E677484
:1000B000683A20004669727374207761766520681B
:1000C000616C6600596F752070726F6261626C7945
:1000D00020776F6E27742067657420616E792064C5
:1000E000657461696C20696E20746869732E0020E4
:1000F000697320002C20726F7753697A653A20006B
:100100004D61782064656E7369747920666F722022
:1001100070656E53697A653A20004D53472C452C23
:100120005468697320706F696E742066616C6C73BB
:10013000206F7574736964652074686520617265E9
:1001400061206F662074686973206D616368696EF1
:10015000652E20536B697070696E672069742E007C
:100160006D6D004368616E6765642050656E207731
:100170006964746820746F20004E65772061636342
:10018000656C65726174696F6E3A20004E65772008
:100190006D61782073706565643A200055703A206F
:1001A00000446F776E3A2000504753504545442C29
:1001B0000050474C4946542C005047535445504D2D
:1001C000554C5449504C4945522C005047535445C6
:1001D00050535045525245562C0050474D4D5045B6
:1001E000525245562C00504753495A452C0029007D
:1001F0007061676548656967687420696E2073740B
:10020000657073202800526563616C6320002900CB
:1002100070616765576964746820696E20737465DE
:100220007073202800526563616C632000290029E7
:100230002C2073746570735065724D4D2028006DCD
:100240006D50657253746570202800526563616C4F
:1002500063200073746570206D756C7469706C69CF
:1002600065723A004C6F616465642000757020709F
:100270006F733A004C6F616465642000646F776E41
:1002800020706F733A004C6F616465642000737472
:1002900065707320706572207265763A004C6F61EC
:1002A00064656420006D6D5065725265763A004C4D
:1002B0006F6164656420006865696768743A004C22
:1002C0006F61646564200077696474683A004C6FFC
:1002D000616465642000206E6F74207265636F67CF
:1002E0006E697365642E0029206E6F7420706172D0
:1002F0007365642E00436F6D6D2028004261642099
:1003000053756D3A005263643A2000504F4C41528D
:100310004752415048204F4E210000000000240069
:1003200027002A0000000000250028002B00000004
:10033000000023002600290004040404040404042B
:100340000202020202020303030303030102040880
:10035000102040800102040810200102040810202F
:100360000000000700020100000304060000000076
:1003700000000000494E46494E4954594E414ECD69
:10038000CCCC3D0AD7233C17B7D13877CC2B32954C
:1003900095E6241FB14F0A000020410000C842002A
:1003A000401C4620BCBE4CCA1B0E5AAEC59D7400F4
:1003B0003C08372B7630350811241FBECFEFD8E02C
:1003C000DEBFCDBF12E0A0E0B1E0E2E3F8E702C09B
:1003D00005900D92A438B107D9F715E0A4E8B2E072
:1003E00001C01D92A834B107E1F713E0C6EBD3E0DA
:1003F00004C02297FE010E94C63BC03BD107C9F74B
:100400000E94CC300C940C3C0C940000A0E0B0E0B6
:10041000ECE0F2E00C94DD3BEC01A880B980CA80EE
:10042000DB80A114B104C104D10441F484E2A82EFC
:1004300089EDB82E8BE5C82E87E0D82EC601B50110
:100440002DE133EF41E050E00E94953B27EA31E493
:1004500040E050E00E94353B7B018C01C601B501B4
:100460002DE133EF41E050E00E94953BCA01B90114
:100470002CEE34EF4FEF5FEF0E94353B6E0D7F1D8A
:10048000801F911F97FF04C06150704080409048CA
:10049000688379838A839B839B01AC015F77B90171
:1004A000CA01CDB7DEB7EAE00C94F93B0E94060220
:1004B000089583E192E00E9406020895609313027A
:1004C0007093140280931502909316020895662784
:1004D00077270C941D03FC0188279927E894219124
:1004E0002032E9F3293010F02E30C8F32B3241F0DE
:1004F0002D3239F4689404C00E941503820F911DB7
:10050000219120532A30C0F31EF4909581959F4F7E
:1005100008951F93FC0199278827BC01E894119145
:100520001032E9F3193010F01E30C8F31B3251F0CD
:100530001D3249F4689406C00E940003610F711DCA
:10054000811D911D119110531A30B0F33EF4909516
:100550008095709561957F4F8F4F9F4F1F910895A4
:10056000FB01DC0102C001900D9241505040D8F7D0
:100570000895FB01DC018D91019080190110D9F3E0
:10058000990B0895FB01DC0101900D920020E1F729
:100590000895FB01DC014150504030F08D910190F5
:1005A000801919F40020B9F7881B990B0895FB01F5
:1005B000DC014150504048F001900D920020C9F7F5
:1005C00001C01D9241505040E0F70895FB01519148
:1005D0005523A9F0BF01DC014D9145174111E1F709
:1005E00059F4CD010190002049F04D914015411181
:1005F000C9F3FB014111EFCF81E090E0019708952D
:10060000592F482F372F262F660F771F881F991FC6
:10061000660F771F881F991F620F731F841F951F16
:10062000660F771F881F991F08957AE0979F902D76
:10063000879F802D910D11240895A0E0B0E0E3E2A2
:10064000F3E00C94DB3BEC015B016115710519F0E3
:10065000FB0191838083F9908F2D90E00E94CA3B2B
:10066000892BC9F7FDE2FF1621F4F990EE24E394FB
:1006700005C02BE2F21609F4F990EE248E01015028
:100680001040C80164E773E043E050E00E947D043D
:10069000892B01F58E010E5F1F4FC80167E773E0DC
:1006A00045E050E00E947D04892B19F48E01095F1A
:1006B0001F4FA114B10419F0F50111830083E0FC70
:1006C00004C070E090E080E814C070E090E080E842
:1006D0006FEF08C1C8016CE773E043E050E00E948F
:1006E0007D04892B69F4A114B10429F470E090E031
:1006F00080EC6FE7F7C02296F501D183C083F6CF77
:100700008824992440E050E060E070E0EF2DE05351
:10071000EA30A0F5F2E0EF2A8E2D90E09C012870DF
:100720003070E2FE06C0232B79F50894811C911CE1
:100730002BC0232B19F0089481089108DB01CA0112
:1007400012E0880F991FAA1FBB1F1A95D1F7480FF7
:10075000591F6A1F7B1F440F551F661F771F4E0FBF
:10076000511D611D711D483929E9520729E96207A8
:1007700029E1720748F084E0E82A06C0EE3F31F430
:10078000E3FC39C098E0E92AF990C0CFE53311F0D5
:10079000E53189F529912D3219F4E0E1EE2A05C001
:1007A0002B3219F081E090E003C0299182E090E0C3
:1007B000E22FE053EA3018F0C81BD90B1CC020E030
:1007C00030E0FCE020383F075CF4C901880F991F36
:1007D000880F991F280F391F220F331F2E0F311D2D
:1007E000E991E053EA3068F3E4FE03C030952195C7
:1007F0003F4F820E931ECE2CDD24E1FE07C0A114D4
:10080000B10421F02197F501D183C083CB01BA0156
:100810000E94B3397B018C01F3E0CF22DD2423E079
:10082000C216D10421F417FB109517F91095570142
:100830006801C801B70120E030E040E050E00E94CC
:100840001639882309F44AC097FE0DC023E9E22E29
:1008500023E0F22E9094819491089394C0E2D0E02A
:1008600000E010E012C09BEAE92E93E0F92EF6CFEB
:10087000F7012591359145915491C601B5010E942A
:10088000693A5B016C018C1A9D0A8C169D0684F7EF
:10089000D595C7950F5F1F4F0630110529F08CEFD6
:1008A0009FEFE80EF91EF1CFC501D6017C018D0145
:1008B0008C2D880F8D2D881F8F3F51F0C601B501FB
:1008C00020E030E040E050E00E941639882331F407
:1008D00082E290E090934705809346057E2D9F2D00
:1008E000802F612F272F392F482F562FB901CA018A
:1008F000CDB7DEB7ECE00C94F73BFB01DC014150D7
:10090000504088F08D9181341CF08B350CF4805E62
:10091000659161341CF06B350CF4605E861B6111CF
:1009200071F3990B0895881BFCCFAF92BF92CF92C1
:10093000DF92EF92FF920F931F936E157F05800752
:10094000910734F42E153F054007510764F42CC07D
:10095000E616F7060807190794F4A216B306C406AC
:10096000D5063CF423C0A216B306C406D506BCF4D3
:100970001FC02A153B054C055D05C4F41BC06E1550
:100980007F058007910791F42A153B054C055D050D
:100990008CF0A216B306C406D50644F409C02A1585
:1009A0003B054C055D0511F484E005C082E003C001
:1009B00083E001C081E01F910F91FF90EF90DF90E5
:1009C000CF90BF90AF9008956F927F928F929F9239
:1009D000AF92BF92CF92DF92EF92FF920F931F934D
:1009E000CF93DF937C015B01662757FD6095762FDF
:1009F000CB01BA010E94B5393B014C010027F7FC3D
:100A00000095102FC801B7010E94B5397B018C01F8
:100A1000CC24B7FCC094DC2CC601B5010E94B539CA
:100A20009B01AC01C801B7010E941A39A4019301CE
:100A30000E94693A9B01AC01C401B3010E94B13824
:100A40007B018C010E948239EB01BE01882777FD72
:100A50008095982F0E94B5399B01AC01C801B70160
:100A60000E94B13820E030E040E05FE30E94653A48
:100A700018160CF42196CE01DF91CF911F910F91A2
:100A8000FF90EF90DF90CF90BF90AF909F908F90AE
:100A90007F906F9008952F923F924F925F926F9246
:100AA0007F928F929F92AF92BF92CF92DF92EF92FE
:100AB000FF920F931F931B012C0139014A01609192
:100AC00090027091910280919202909193020E9403
:100AD000B5397B018C01A80197010E94693A5B013D
:100AE0006C01C401B301A40193010E94693A9B0106
:100AF000AC01C601B5010E94B1385B016C01C201B5
:100B0000B101A20191010E94693A9B01AC01C601A9
:100B1000B5010E94B2385B016C01C801B701A801A0
:100B200097010E94B2389B01AC01C601B5010E9439
:100B30001A391F910F91FF90EF90DF90CF90BF90E7
:100B4000AF909F908F907F906F905F904F903F906D
:100B50002F9008950F931F93CF93DF93242F262771
:100B6000A22FB0E0AF70B070AA0FBB1FAA0FBB1FBF
:100B7000C8E6D0E0AC0FBD1FFD0105911591259190
:100B80003491E4E09695879577956795EA95D1F746
:100B9000062717272827392742954F70402750E00E
:100BA0004F705070440F551F440F551F4C0F5D1F61
:100BB000FA0185919591A591B49144E036952795D8
:100BC000179507954A95D1F7082719272A273B2714
:100BD000B801C901DF91CF911F910F910895EF9254
:100BE000FF920F931F938130910509F08EC16F5FC3
:100BF0007F4F09F035C289E693E060E071E00E9422
:100C0000ED3584E892E00E94EF28209117023091A0
:100C10001802442737FD4095542F60911D0270E063
:100C200080E090E00E94353B0E94B5397B018C0149
:100C30006091190270911A0280911B0290911C021E
:100C4000A80197010E941A39609388027093890263
:100C500080938A0290938B02C801B70120911902F8
:100C600030911A0240911B0250911C020E941A39C5
:100C70007B018C0160938C0270938D0280938E02B5
:100C800090938F0260912D0270912E02882777FD3C
:100C90008095982F0E94B539A80197010E94693A62
:100CA0000E94823960939002709391028093920225
:100CB0009093930260912F0270913002882777FD04
:100CC0008095982F0E94B539A80197010E94693A32
:100CD0000E948239609394027093950280939602E9
:100CE0009093970280E793E064E071E00E94ED3515
:100CF00087E793E067E371E00E94ED358EE793E0CC
:100D000067E371E00E94ED3585E893E067E371E009
:100D10000E94ED358CE893E067E371E00E94ED35C9
:100D200083E993E066E471E00E94ED358AE993E09F
:100D30006CE471E00E94ED3581EA93E063E571E0D7
:100D40000E94ED3588EA93E06BE571E00E94ED3595
:100D500085EA92E061E671E00E94ED358CEA92E06E
:100D600066E671E00E94ED3583EB92E069E671E0A2
:100D70000E94ED358AEB92E06CE671E00E94ED3561
:100D80008FEA93E063E973E00E948A3681EC92E097
:100D90006FE671E00E94ED3586EB93E060E771E06D
:100DA0000E94ED358DEB93E062E771E00E94ED3536
:100DB00084EC93E067E771E00E94ED358BEC93E003
:100DC0006BE771E00E94ED3582ED93E06FE771E033
:100DD0000E94ED3589ED93E063E871E00E94ED3506
:100DE00080EE93E067E871E00E94ED3587EE93E0D6
:100DF0006BE871E00E94ED358EEE93E06FE871E0F4
:100E00000E94ED3585EF93E063E971E00E94ED35D6
:100E10008CEF93E067E971E00E94ED3583E094E0A8
:100E20006BE971E00E94ED358AE094E06FE971E0D2
:100E30000E94ED3581E194E063EA71E00E94ED35B6
:100E400088E194E067EA71E00E94ED358FE194E07B
:100E50006BEA71E00E94ED3586E294E06FEA71E0A2
:100E60000E94ED358DE294E063EB71E00E94ED3578
:100E700084E394E067EB71E00E94ED358BE394E04E
:100E80006BEB71E00E94ED3582E494E06FEB71E072
:100E90000E94ED3589E494E063EC71E00E94ED3549
:100EA00080E594E067EC71E00E94ED3587E594E021
:100EB0006BEC71E00E94ED358EE594E06FEC71E033
:100EC0000E94ED35609117027091180289EC92E052
:100ED00041E00E94A02C609117027091180285EDEC
:100EE00092E042E00E94A02C81EE92E06EE775E174
:100EF00047E755E10E94742485E293E060E775E1DD
:100F000049E655E10E947424ABC0892B09F0A8C0C2
:100F10006F5F7F4F09F0A4C08EE594E00E94953684
:100F200087E594E00E94953680E594E00E9495362E
:100F300089E494E00E94953682E494E00E9495361C
:100F40008BE394E00E94953684E394E00E9495360A
:100F50008DE294E00E94953686E294E00E949536F8
:100F60008FE194E00E94953688E194E00E949536E6
:100F700081E194E00E9495368AE094E00E949536E3
:100F800083E094E00E9495368CEF93E00E949536C2
:100F900085EF93E00E9495368EEE93E00E949536A1
:100FA00087EE93E00E94953680EE93E00E9495369E
:100FB00089ED93E00E94953682ED93E00E9495368C
:100FC0008BEC93E00E94953684EC93E00E9495367A
:100FD0008DEB93E00E94953686EB93E00E94953668
:100FE00081EC92E00E9495368FEA93E00E9495365C
:100FF0008AEB92E00E94953683EB92E00E94953650
:101000008CEA92E00E94953685EA92E00E9495363D
:1010100088EA93E00E94953681EA93E00E94953633
:101020008AE993E00E94953683E993E00E94953621
:101030008CE893E00E94953685E893E00E9495360F
:101040008EE793E00E94953687E793E00E949536FD
:1010500080E793E00E94953689E693E00E949536FA
:101060001F910F91FF90EF90089580E090E06FEF57
:101070007FEF0E94EF05089581E090E06FEF7FEF32
:101080000E94EF050895CF92DF92EF92FF920F93A7
:101090001F93CF93DF936C01EE24EA94FE2C87011B
:1010A000C0E0D0E00CC0C601BE010E948134482FD0
:1010B000C801B7010E94AA057B018C012196F601A7
:1010C00084819581C817D90770F3A80197012095ED
:1010D000309540955095B901CA01DF91CF911F918C
:1010E0000F91FF90EF90DF90CF900895AF92BF9255
:1010F000CF92DF92EF92FF920F931F937B018C01AF
:10110000CA01B9010E94693A5B016C01C801B701CB
:10111000A80197010E94693A9B01AC01C601B50183
:101120000E94B1380E94D03A1F910F91FF90EF902A
:10113000DF90CF90BF90AF900895AF92BF92CF92C3
:10114000DF92EF92FF920F931F937B018C01590165
:101150006A01609190027091910280919202909147
:1011600093020E94B539A80197010E94B1389B01F2
:10117000AC010E94693A7B018C01C601B501A60150
:1011800095010E94693A9B01AC01C801B7010E9418
:10119000B2380E94D03A1F910F91FF90EF90DF90EC
:1011A000CF90BF90AF900895AF92BF92CF92DF9251
:1011B000EF92FF920F931F937B018C0159016A01FB
:1011C000A80197010E94693A7B018C01C601B50113
:1011D000A60195010E94693A9B01AC01C801B701C3
:1011E0000E94B2380E94D03A1F910F91FF90EF9069
:1011F000DF90CF90BF90AF9008952F923F924F9283
:101200005F926F927F928F929F92AF92BF92CF9296
:10121000DF92EF92FF920F931F93DF93CF9300D053
:1012200000D0CDB7DEB769837A838B839C83590165
:101230006A0117012801611571058105910559F4AD
:101240000F2EF0E0EF2EF0E0FF2EF0E00F2FF0E099
:101250001F2FF02DA4C0CA01B9010E94693A7B0179
:101260008C01C601B50120E030E040E050E00E9472
:101270001639882324F417FB109517F91095C2012D
:10128000B101A20191010E94B2383B014C01C80199
:10129000B701A40193010E941A397B018C01698175
:1012A0007A818B819C810E94B5399B01AC01C80178
:1012B000B7010E9416398823B4F5C601B50120E0B4
:1012C00030E040E050E00E941639882329F4C40140
:1012D000B3010E94D03A0DC0C201B101A60195012F
:1012E0000E941A399B01AC015F77C601B5010E94CB
:1012F000B2387B018C01D0901E02C0901F02B090CA
:101300002002A09021022D2D3C2D4B2D5A2D0E9404
:10131000653A18160CF043C08D2D9C2DAB2DBA2DBF
:101320007C018D013CC0C601B50120E030E040E009
:1013300050E00E941639882359F4C401B3010E9479
:10134000D03A7B018C0117FB109517F910950FC04F
:10135000C201B101A60195010E941A399B01AC019D
:101360005F77C601B5010E94B1387B018C01809185
:101370001E0290911F02A0912002B09121025C01F7
:101380006D01D7FAD094D7F8D094C801B701A6015F
:1013900095010E941639882314F486017501B7015E
:1013A000C8010F900F900F900F90CF91DF911F9178
:1013B0000F91FF90EF90DF90CF90BF90AF909F90F4
:1013C0008F907F906F905F904F903F902F900895F7
:1013D000809129028823C1F180E295E068EA73E0F8
:1013E0000E94B13381EE92E00E94CE2220911D0234
:1013F00030E040E050E00E94953B80E295E0BA0189
:10140000A9012AE030E00E941B3280E295E066EB01
:1014100073E00E94B13385E293E00E94CE222091D6
:101420001D0230E040E050E00E94953B80E295E0F4
:10143000BA01A9012AE030E00E941B3280E295E067
:101440006DEB73E00E94E433089580E295E06AE971
:1014500073E00E94E433089580E295E063E973E06D
:101460000E94E4330895CF93DF93EC01AB0166272C
:1014700057FD6095762F0E94652407C080912A024F
:10148000882319F0CE010E94B328CE010E94BE220B
:10149000611571058105910589F70E94562D6093AC
:1014A0009D0270939E0280939F029093A002DF9111
:1014B000CF910895EF92FF920F931F93809198021E
:1014C00090919902A0919A02B0919B020097A10578
:1014D000B10509F040C06091900270919102809135
:1014E0009202909193020E94B5397B018C01609128
:1014F00094027091950280919602909197020E94B9
:10150000B5399B01AC01C801B7010E94D40820E0A5
:1015100030E040E05FE30E94B2380E94823960937D
:1015200098027093990280939A0290939B0280E2B2
:1015300095E068EA70E00E94053140919802509170
:10154000990260919A0270919B0280E295E02AE0F4
:1015500030E00E945B326091980270919902809114
:101560009A0290919B021F910F91FF90EF90089526
:101570002F923F924F925F926F927F928F929F92A3
:10158000AF92BF92CF92DF92EF92FF920F931F9391
:101590007B018C0159016A010E94562D60939D02C6
:1015A00070939E0280939F029093A00281EE92E03E
:1015B0000E94B6251B012C0185E293E00E94B6250E
:1015C0003B014C0181EE92E040E050E060E070E0D1
:1015D0000E94312585E293E040E050E060E070E059
:1015E0000E943125C801B7010E94B5390E94823995
:1015F000AB01BC0181EE92E00E945324C601B5010B
:101600000E94B5390E948239AB01BC0185E293E0AA
:101610000E94532480912602882309F042C081EE63
:1016200092E00E94B62520E030E040E050E00E94C9
:101630001639882324F457FA509457F8509485E2C9
:1016400093E00E94B62520E030E040E050E00E94A8
:101650001639882324F497FA909497F8909481EEA1
:1016600092E0B201A1010E94312585E293E0B4012C
:10167000A3010E94312515C080912602882349F0DC
:1016800081EE92E00E94B32885E293E00E94B328A5
:1016900008C081EE92E00E948F2885E293E00E94CC
:1016A0008F2881EE92E00E94BE22611571058105AE
:1016B000910549F485E293E00E94BE22611571050F
:1016C0008105910529F080912A02882351F3D4CF16
:1016D0000E94E8091F910F91FF90EF90DF90CF904B
:1016E000BF90AF909F908F907F906F905F904F9042
:1016F0003F902F9008958F929F92AF92BF92CF927A
:10170000DF92EF92FF920F931F93CF93DF935C01D1
:101710006B01EA014901E114F104C9F480E295E0AA
:1017200064EB70E00E94483180913602882331F0EA
:10173000CE0162E070E00E94603B2BC0CE0162E00F
:1017400070E00E94603B709561957F4F22C0809150
:101750003602E016F106A1F4882331F0CA0162E0F6
:1017600070E00E94603B08C0CA0162E070E00E9425
:10177000603B709561957F4FC6010E94330A1AC085
:10178000882319F0CB01BA0105C066277727641BAF
:10179000750BC6010E94330AC501B4010E94330AC9
:1017A00080913602882319F01092360203C081E03E
:1017B00080933602DF91CF911F910F91FF90EF90B0
:1017C000DF90CF90BF90AF909F908F9008953F9201
:1017D0004F925F926F927F928F929F92AF92BF9241
:1017E000CF92DF92EF92FF920F931F93DF93CF93ED
:1017F000CDB7DEB728970FB6F894DEBF0FBECDBFCA
:10180000FC012B014A01322E141615060CF08DC076
:10181000BA010E94603B3B01CF01B4010E94603BD2
:10182000AA2797FDA095BA2FBC01CD010E94B5391A
:101830007B018C01B401882777FD8095982F0E9449
:10184000B5399B01AC01C801B7010E941A396983FF
:101850007A838B839C830F2EF0E0AF2EF0E0BF2EB7
:10186000F0E0CF2EF0E0DF2EF02D18861F82C301AE
:1018700001969E838D83C601B50129813A814B81F2
:101880005C810E94B2385B016C0120E030E040E8EE
:101890005FE30E94653A87FF02C0F3010CC0C601F6
:1018A000B50120E030E040E85FE30E94B1385B0121
:1018B0006C01ED81FE8192E0391629F481EE92E00F
:1018C00065E273E007C0A3E03A1639F485E293E0DD
:1018D00061EE72E0A2019F0118C0B4E03B1649F42A
:1018E000222733272E1B3F0B81EE92E065E273E047
:1018F0000BC081E0381671F4222733272E1B3F0BD3
:1019000085E293E061EE72E0A2018401EF80F88449
:101910000E947B0B0E94E809AF81B8851196B887B9
:10192000AF838A169B060CF0A6CF28960FB6F894C4
:10193000DEBF0FBECDBFCF91DF911F910F91FF9002
:10194000EF90DF90CF90BF90AF909F908F907F905F
:101950006F905F904F903F900895EF92FF920F939A
:101960001F937C0100E215E0C80165EA72E00E9465
:10197000B133C8016CEA72E00E94B133C801B7010B
:101980000E94B133C80166ED72E00E9448311F9198
:101990000F91FF90EF900895AF92BF92CF92DF9298
:1019A000EF92FF920F931F93CF93DF935B016C0134
:1019B000EA01BA01882777FD8095982F0E94B539F2
:1019C000209188023091890240918A0250918B02C5
:1019D0000E94693AA60195010E941A397B018C0187
:1019E00020E030E040E050E40E94653A87FF03C009
:1019F00001E010E009C0C801B7010E9482398B01E3
:101A0000633071050CF046C080E295E065EA72E053
:101A10000E94B13380E295E063EB72E00E94B13343
:101A200080E295E060E071E00E94053180E295E09F
:101A3000B601A50122E030E00E94883380E295E003
:101A400064EF70E00E94053180E295E0BE014AE05B
:101A500050E00E946F3280E295E06FEE70E00E94ED
:101A6000053180E295E0B8014AE050E00E94823200
:101A700080E295E065EA72E00E94B13380E295E091
:101A800063EB72E00E94B13380E295E064EC70E0B9
:101A90000E944831C801DF91CF911F910F91FF90B3
:101AA000EF90DF90CF90BF90AF9008952F923F922C
:101AB0004F925F926F927F928F929F92AF92BF925E
:101AC000CF92DF92EF92FF920F931F93DF93CF930A
:101AD00000D000D0CDB7DEB73B014C0159016A01FF
:101AE000FA82E982C80162E070E00E94603B8827C8
:101AF00077FD8095982F661A770A880A990AA61AA0
:101B0000B70AC80AD90A1C821B821801442437FC70
:101B10004094542C2EC060E070E080E090E0A20180
:101B200091010E9463347B018C0160E070E080E0F1
:101B300090E0A20191010E9463349B01AC01002757
:101B4000F7FC0095102FE60CF71C081D191D442703
:101B500037FD4095542F2A0D3B1D4C1D5D1DC801BE
:101B6000B7010E94B80A2B813C812F5F3F4F3C8315
:101B70002B838B819C81E981FA81E817F9075CF658
:101B80000F900F900F900F90CF91DF911F910F91B9
:101B9000FF90EF90DF90CF90BF90AF909F908F908D
:101BA0007F906F905F904F903F902F9008958AE8BC
:101BB00092E0909344028093430290934602809374
:101BC00045028FE590E09093400280933F0280E9C8
:101BD00091E0909342028093410281E090E09093E3
:101BE0003E0280933D0264EF71E080E090E00E944D
:101BF0008A2D0895AF92BF92CF92DF92EF92FF921B
:101C00000F931F93CF93DF93EC015B016A0184E88C
:101C100092E069E070E00E945F2ACA15DB059CF43F
:101C200076010027F7FC0095102F84E892E0BE01B2
:101C30000E947829C801B7010E948A2D2196AC160E
:101C4000BD069CF712C076010027F7FC0095102F07
:101C500084E892E0BE010E947829C801B7010E9481
:101C60008A2D2197CA15DB059CF784E892E00E9433
:101C70000929DF91CF911F910F91FF90EF90DF9095
:101C8000CF90BF90AF900895EF92FF920F931F9364
:101C9000B1EEEB2EB2E0FB2EC7010E94CE22AB01CB
:101CA000BC014C5F5F4F6F4F7F4FC7010E94E4281C
:101CB00005E213E0C8010E94CE22AB01BC014C5FDB
:101CC0005F4F6F4F7F4FC8010E94E428C7010E94F9
:101CD000CE22AB01BC014450504060407040C7016F
:101CE0000E94E428C8010E94CE22AB01BC014450EE
:101CF000504060407040C8010E94E4281F910F913D
:101D0000FF90EF9008952F923F924F925F926F92C3
:101D10007F928F929F92AF92BF92CF92DF92EF927B
:101D2000FF920F931F93DF93CF93CDB7DEB7E0976A
:101D30000FB6F894DEBF0FBECDBF2B013C019CA2B5
:101D40008BA20E944B056B8F7C8F8D8F9E8FA30182
:101D500092010E9476086F8B788F898F9A8FC801C5
:101D6000B701A60195010E944B055B016C01A8011A
:101D700097010E9476087B018C01C601B50120E025
:101D800030E040EA51E40E94653A18160CF014C2A3
:101D900060919002709191028091920290919302D1
:101DA00064517040804090400E94B5396F8F78A395
:101DB00089A39AA3C601B5012F8D38A149A15AA1C3
:101DC0000E94163988230CF0F7C1C801B70120E042
:101DD00030E040EA51E40E94653A18160CF0ECC17C
:101DE0006091940270919502809196029091970271
:101DF00064517040804090400E94B5392B013C01F5
:101E0000C801B701A30192010E94163988230CF082
:101E1000D3C16B8D7C8D8D8D9E8D20E030E040EAAE
:101E200051E40E94653A18160CF0C6C16B8D7C8D8A
:101E30008D8D9E8D2F8D38A149A15AA10E941639F2
:101E400088230CF0B9C16F89788D898D9A8D20E037
:101E500030E040EA51E40E94653A18160CF0ACC13B
:101E60006F89788D898D9A8DA30192010E94163910
:101E700088230CF0A1C110922902C601B5012B8D57
:101E80003C8D4D8D5E8D0E94B1381B012C01C80127
:101E9000B7012F89388D498D5A8D0E94B1383B0189
:101EA0004C01C201B10120E030E040E050E00E946E
:101EB000653A18161CF48201710106C08201710195
:101EC00017FB109517F91095C401B30120E030E01D
:101ED00040E050E00E94653A18161CF4A4019301FA
:101EE00003C0A40193015058C801B7010E94653A8C
:101EF00018169CF021E030E03E8B2D8BD401C301FD
:101F0000B0588DA79EA7AFA7B8ABABA1BCA15D0190
:101F1000CC24B7FCC094DC2C4EC021E030E03E8BDA
:101F20002D8BD201C101B05889A79AA7ABA7BCA736
:101F3000ABA1BCA15D01CC24B7FCC094DC2C06C0D5
:101F40002D893E892F5F3F4F3E8B2D8BC201B10102
:101F500020E030E040E050E00E94653A18161CF4A2
:101F60008201710104C0E9A4FAA40BA51CA5AD89E6
:101F7000BE89BD01882777FD8095982F0E94B539CD
:101F80009B01AC01C801B7010E941A397B018C0189
:101F9000C601B5010E94B5399B01AC01C801B7016A
:101FA0000E94653A181664F234C02D893E892F5F6D
:101FB0003F4F3E8B2D8BC401B30120E030E040E069
:101FC00050E00E94653A18161CF48401730104C0A5
:101FD000EDA4FEA40FA518A9AD89BE89BD0188276F
:101FE00077FD8095982F0E94B5399B01AC01C801FF
:101FF000B7010E941A397B018C01C601B5010E940C
:10200000B5399B01AC01C801B7010E94653A1816A9
:1020100064F22D893E895901CC24B7FCC094DC2C94
:10202000C601B5010E94B5397B018C01C201B10125
:10203000A80197010E941A396D837E838F83988748
:10204000C401B301A80197010E941A3969837A83F8
:102050008B839C8310922602198A1A8A1B8A1C8AF7
:1020600019861A861B861C86ADA2BEA2CFA2D8A650
:102070006B8D7C8D8D8D9E8D2D813E814F81588500
:102080000E94B2386B8F7C8F8D8F9E8F6F89788D79
:10209000898D9A8D29813A814B815C810E94B23869
:1020A0006F8B788F898F9A8F6B8D7C8D8D8D9E8DA8
:1020B0002F89388D498D5A8D0E94D4086D877E876F
:1020C0008F87988B6B8D7C8D8D8D9E8D2F89388D14
:1020D000498D5A8D0E949D081B012C0169847A84C8
:1020E0008B849C848DA19EA1AFA1B8A5680E791E9A
:1020F0008A1E9B1E69897A898B899C890E94B539C1
:102100005B016C0160912202709123028091240294
:102110009091250220E030E040E850E40E94693AC6
:102120007B018C01C401B301A60195010E94FD0849
:102130000E948239698B7A8B8B8B9C8B0E94B5397C
:102140007B018C0181EE92E0B801A7010E9431254C
:1021500085E293E0B801A7010E9431256D857E8557
:102160008F8598890E9482397B018C01C201B1015F
:102170000E9482399B01AC01C801B7010E94B80AD4
:1021800089859A85AB85BC850197A109B1098987A5
:102190009A87AB87BC878D899E89A985BA858A0F66
:1021A0009B1F892B09F064CF81E0809329028093E3
:1021B00026020E94E80906C080E295E063ED71E026
:1021C0000E949E33E0960FB6F894DEBF0FBECDBFDF
:1021D000CF91DF911F910F91FF90EF90DF90CF9003
:1021E000BF90AF909F908F907F906F905F904F9037
:1021F0003F902F9008950F931F93AB01BC01409324
:10220000220250932302609324027093250281EEF0
:1022100092E00E94BF2740912202509123026091D8
:1022200024027091250285E293E00E94BF2700E21C
:1022300015E0C80169E771E00E9405314091220272
:10224000509123026091240270912502C80122E07E
:1022500030E00E948B331F910F910895CF92DF924F
:10226000EF92FF920F931F937C018B018CE8C82E95
:1022700084E0D82EC601B701F80140810E942B2BC3
:102280000894E11CF11CC601B701F80141810E94CC
:102290002B2B82E090E01F910F91FF90EF90DF9049
:1022A000CF9008950F931F93AB01BC0140931E0282
:1022B00050931F02609320027093210281EE92E0FE
:1022C0000E94DB2440911E0250911F026091200267
:1022D0007091210285E293E00E94DB2400E215E088
:1022E000C8016CE871E00E94053140911E025091D6
:1022F0001F026091200270912102C80122E030E0AB
:102300000E948B331F910F910895CF92DF92EF922D
:10231000FF920F931F937C018B019CE8C92E94E0E0
:10232000D92EC601B7010E94242BF801808308949E
:10233000E11CF11CC601B7010E94242BF801818326
:1023400082E090E01F910F91FF90EF90DF90CF908F
:1023500008958AE290E06BE372E00E94851180911B
:102360003B0290913C0297FF06C08AE590E0909373
:102370003C0280933B0280E295E066E872E00E94B6
:10238000053180E295E06CE772E00E9405316091D2
:102390003B0270913C0280E295E04AE050E00E94EE
:1023A00082328CE290E069E372E00E9485118091B4
:1023B000390290913A0297FF06C084EB90E0909327
:1023C0003A028093390280E295E064E772E00E946D
:1023D000053180E295E06CE672E00E940531609183
:1023E000390270913A0280E295E04AE050E00E94A2
:1023F0008232089580E090E06DE272E00E948511E3
:1024000080912D0290912E021816190644F08091A9
:1024100043029091440290932E0280932D0280E219
:1024200095E06EEC72E00E94053180E295E067EC89
:1024300072E00E94053160912D0270912E0280E2BF
:1024400095E04AE050E00E94823282E090E06FE244
:1024500072E00E94851180912F029091300218162F
:10246000190644F080914502909146029093300203
:1024700080932F0280E295E06FEB72E00E940531BD
:1024800080E295E067EB72E00E94053160912F02D7
:102490007091300280E295E04AE050E00E94823282
:1024A0000895EF92FF920F931F93CF93DF93AC01A8
:1024B000EB0124E0E22EF12CE60EF71E8A010F5FFD
:1024C0001F4F8CE894E0BA010E94242B8993A80145
:1024D000CE15DF0599F784E090E0DF91CF911F9151
:1024E0000F91FF90EF90089586E190E06EE172E029
:1024F0000E94511260911E0270911F028091200271
:10250000909121020E9482391616170664F080E02D
:1025100090E0A8E4B4E480931E0290931F02A0937D
:102520002002B09321028AE190E062E272E00E9410
:1025300051126091220270912302809124029091A5
:1025400025020E9482391616170664F080E090E09A
:10255000A8E4B4E48093220290932302A09324027F
:10256000B093250208958EE090E069E172E00E9448
:1025700051126091190270911A0280911B02909180
:102580001C0220E030E040E85FE30E941639882317
:1025900094F460913F0270914002882777FD809506
:1025A000982F0E94B5396093190270931A02809394
:1025B0001B0290931C0280E295E06FEA72E00E9499
:1025C000053180E295E065EA72E00E9405314091B4
:1025D000190250911A0260911B0270911C0280E254
:1025E00095E022E030E00E948B3382E190E067E1E9
:1025F00072E00E94851180911702909118021816BE
:10260000190644F080914102909142029093180281
:102610008093170280E295E06DE972E00E94053137
:1026200080E295E06EE872E00E9405316091170249
:102630007091180280E295E04AE050E00E948232F8
:1026400008958CE894E064E170E00E94242B80936C
:102650001D02882321F480913D0280931D0280E2B7
:1026600095E064E672E00E94053180E295E063E562
:1026700072E00E94053180E295E060911D024AE01F
:1026800050E00E94FD310895AF92BF92CF92DF9249
:10269000EF92FF920F931F930E94FA110E94B312C0
:1026A0000E9421130E94A9110E9474128EE190E0F1
:1026B00062E372E00E945112609132027091330223
:1026C000809134029091350227E137EB41ED58E3D8
:1026D0000E941639882364F48DEC9CECACE4BFE3D3
:1026E0008093320290933302A0933402B093350268
:1026F000A0901902B0901A02C0901B02D0901C0248
:1027000060911D0270E080E090E02091170230910E
:102710001802442737FD4095542F0E94353B0E94F4
:10272000B5397B018C01C601B501A80197010E9452
:102730001A39609388027093890280938A02909379
:102740008B02C801B701A60195010E941A39609356
:102750008C0270938D0280938E0290938F0280E2A0
:1027600095E06BE472E00E94053180E295E06FE352
:1027700072E00E9405314091880250918902609177
:102780008A0270918B0280E295E022E030E00E94A4
:10279000883380E295E06FE272E00E94053140915B
:1027A0008C0250918D0260918E0270918F0280E2B6
:1027B00095E022E030E00E94883380E295E06DE20F
:1027C00072E00E94053180E295E00E94283160911C
:1027D0002D0270912E02882777FD8095982F0E94F8
:1027E000B53920918C0230918D0240918E0250912A
:1027F0008F020E94693A0E9482396093900270931E
:102800009102809392029093930280E295E065E2B8
:1028100072E00E94053180E295E060E172E00E9482
:102820000531409190025091910260919202709115
:10283000930280E295E02AE030E00E941B3280E2C1
:1028400095E06EE072E00E94053180E295E00E9422
:10285000283160912F0270913002882777FD809592
:10286000982F0E94B53920918C0230918D024091B1
:102870008E0250918F020E94693A0E9482396093C1
:10288000940270939502809396029093970280E24F
:1028900095E066E072E00E94053180E295E060EF2D
:1028A00071E00E940531409194025091950260912F
:1028B00096027091970280E295E02AE030E00E9453
:1028C0001B3280E295E06EEE71E00E94053180E2FD
:1028D00095E00E942831109298021092990210926D
:1028E0009A0210929B021F910F91FF90EF90DF9040
:1028F000CF90BF90AF900895CF93DF93C0E0D0E02A
:102900008CE894E0BE0140E00E942B2B2196C2335C
:10291000D105B1F70E944413DF91CF910895CF9371
:10292000DF93C0E0D0E080E295E0BE014AE050E0F5
:102930000E946F3280E295E06FEF71E00E94A13259
:102940008CE894E0BE010E94242B682F80E295E081
:102950004AE050E00E94FD312196C832D10519F7B6
:10296000DF91CF910895CF92DF92EF92FF920F9374
:102970001F930E948F1400E215E0C80166EE71E01B
:102980000E94053160912D0270912E02C8014AE02B
:1029900050E00E946F3246EBC42E43E0D42EC801B3
:1029A000B6010E94B13360912F0270913002C801CC
:1029B0004AE050E00E946F323DEBE32E33E0F32E0D
:1029C000C801B7010E94E433C8016AED71E00E94BA
:1029D00005314091190250911A0260911B027091C9
:1029E0001C02C80122E030E00E948833C801B70110
:1029F0000E94E433C8016BEC71E00E9405316091E4
:102A0000170270911802C8014AE050E00E946F322C
:102A1000C801B7010E94E433C80169EB71E00E946C
:102A20000531C80160911D024AE050E00E94EB317F
:102A3000C801B7010E94E433C80161EB71E00E9454
:102A4000053160913B0270913C02C8014AE050E0C0
:102A50000E946F32C801B6010E94B1336091390201
:102A600070913A02C8014AE050E00E946F32C801FA
:102A7000B7010E94E433C80168EA71E00E940531A1
:102A800040911E0250911F0260912002709121021C
:102A9000C80122E030E00E948833C801B6010E94DC
:102AA000B13340912202509123026091240270912F
:102AB0002502C80122E030E00E948833C801B70136
:102AC0000E94E4331F910F91FF90EF90DF90CF9021
:102AD000089585ED92E062E043E00E948A2B08951C
:102AE00085ED92E061E043E00E948A2B089589EC35
:102AF00092E062E043E00E948A2B089589EC92E024
:102B000061E043E00E948A2B0895EF92FF920F93B9
:102B10001F93DF93CF93CDB7DEB7FC01EDB6FEB6C2
:102B2000448155814F5F5F4F8DB79EB7841B950BD6
:102B30000FB6F8949EBF0FBE8DBF0DB71EB70F5FC7
:102B40001F4FCF01B80120E030E00E94FF34C801E0
:102B50000E9467020FB6F894FEBE0FBEEDBECF9185
:102B6000DF911F910F91FF90EF9008954F925F9228
:102B70006F927F928F929F92AF92BF92CF92DF928D
:102B8000EF92FF920F931F93DF93CF93CDB7DEB7F2
:102B90002E970FB6F894DEBF0FBECDBF6E0108941E
:102BA000C11CD11CC60167E773E00E948A36C601CA
:102BB0000E9485157B018C0160911D0270E08827C1
:102BC00077FD8095982F0E94B5399B01AC01C80113
:102BD000B7010E94693A2B013C01C6010E9495365B
:102BE00058E0852E912C8C0E9D1EC4016EE773E07B
:102BF0000E948A36C4010E9485157B018C01609178
:102C00001D0270E0882777FD8095982F0E94B539C6
:102C10009B01AC01C801B7010E94693A5B016C01DC
:102C2000C4010E949536C301B2010E9482397B0122
:102C30008C01C601B5010E9482399B01AC01C8011B
:102C4000B7010E94B80A2E960FB6F894DEBF0FBEE9
:102C5000CDBFCF91DF911F910F91FF90EF90DF904B
:102C6000CF90BF90AF909F908F907F906F905F902C
:102C70004F9008950F931F93DF93CF93CDB7DEB797
:102C800027970FB6F894DEBF0FBECDBF8E010F5F42
:102C90001F4FC80167E773E00E948A36C8010E948F
:102CA00085156093320270933302809334029093BF
:102CB0003502C8010E94953600E215E0C80163E6BE
:102CC00071E00E94053140913202509133026091CF
:102CD000340270913502C80122E030E00E9488334E
:102CE000C80160E671E00E940531C8010E942831E8
:102CF00027960FB6F894DEBF0FBECDBFCF91DF9100
:102D00001F910F910895EF92FF920F931F93DF93FE
:102D1000CF93CDB7DEB72B970FB6F894DEBF0FBEBB
:102D2000CDBF8E010B5F1F4FC80167E773E00E94A4
:102D30008A36C8010E94851569837A838B839C83B8
:102D4000C8010E9495367E010894E11CF11C6EE0DA
:102D500070E08B010F5F1F4FF70141917F018CE8FD
:102D600094E00E942B2BB8010231110591F70E94CB
:102D700044132B960FB6F894DEBF0FBECDBFCF9194
:102D8000DF911F910F91FF90EF900895EF92FF92C6
:102D90000F931F93DF93CF93CDB7DEB7FC01EDB652
:102DA000FEB6448155814F5F5F4F8DB79EB7841B40
:102DB000950B0FB6F8949EBF0FBE8DBF0DB71EB713
:102DC0000F5F1F4FCF01B80120E030E00E94FF34B9
:102DD000C8010E946B020FB6F894FEBE0FBEEDBE96
:102DE000CF91DF911F910F91FF90EF9008953F9247
:102DF0004F925F926F927F928F929F92AF92BF920B
:102E0000CF92DF92EF92FF920F931F93DF93CF93B6
:102E1000CDB7DEB7A4970FB6F894DEBF0FBECDBF17
:102E20008E010F5F1F4FC80167E773E00E948A366B
:102E3000C8010E94C616AA2797FDA095BA2F209117
:102E40001D0230E040E050E0BC01CD010E94353B66
:102E50005B01C8010E9495368E01085F1F4FC801B3
:102E60006EE773E00E948A36C8010E948515F62E2F
:102E7000E72ED82EC92EC8010E9495368E01015F1B
:102E80001F4FC80165E873E00E948A36C8010E949E
:102E9000851569A37AA38BA39CA3C8010E949536CC
:102EA0008E010A5E1F4FC8016CE873E00E948A36EB
:102EB000C8010E9485152B013C01C8010E9495366E
:102EC0003090310282E08093310280913202909101
:102ED0003302A0913402B09135028D8F9E8FAF8F57
:102EE000B8A32F2D3E2D4D2D5C2DC901DA016C01AB
:102EF0007D01882499241EC00894811C911CC092D5
:102F00003202D0923302E0923402F0923502C701CD
:102F1000B601A5010E94CC0CAC01C501B50122E0AF
:102F20000E94E70BC701B601A30192010E94B238CB
:102F30006B017C01C701B60129A13AA14BA15CA19B
:102F40000E9416391816C4F68D8D9E8DAF8DB8A1CE
:102F50008093320290933302A0933402B0933502EF
:102F6000EE24FF24EA18FB0885E293E0B7010E94F3
:102F7000330AC50162E070E00E94603B7095619584
:102F80007F4F3B01C50162E070E00E94603B6B0136
:102F900001E010E011C085E293E0B3010E94330A22
:102FA00081EE92E0B7010E94330A85E293E0B60118
:102FB0000E94330A0F5F1F4F8016910664F78D8DB4
:102FC0009E8DAF8DB8A18093320290933302A0936F
:102FD0003402B093350230923102A4960FB6F894C1
:102FE000DEBF0FBECDBFCF91DF911F910F91FF903C
:102FF000EF90DF90CF90BF90AF909F908F907F9099
:103000006F905F904F903F9008950F931F93DF93C1
:10301000CF93CDB7DEB72E970FB6F894DEBF0FBEB5
:10302000CDBF8E010F5F1F4FC80167E773E00E949D
:103030008A36C8010E94C61680933102C8010E94D8
:1030400095368E01085F1F4FC8016EE773E00E943E
:103050008A36C8010E94C6169093380280933702C0
:10306000C8010E9495362E960FB6F894DEBF0FBEAB
:10307000CDBFCF91DF911F910F910895EF92FF92F5
:103080000F931F93DF93CF93CDB7DEB727970FB67C
:10309000F894DEBF0FBECDBF80919C029091870255
:1030A000823018F1992329F0E0903902F0903A0229
:1030B00004C0E0903B02F0903C028E010F5F1F4F76
:1030C000C80167E773E00E948A36C8010E94C616ED
:1030D00090933C0280933B02C8010E949536609118
:1030E0003B0270913C02C7010AC0913061F46091CB
:1030F0003B0270913C028091390290913A0243E088
:1031000050E00E94FA0D1092870227960FB6F894AD
:10311000DEBF0FBECDBFCF91DF911F910F91FF900A
:10312000EF900895EF92FF920F931F93DF93CF9349
:10313000CDB7DEB727970FB6F894DEBF0FBECDBF71
:1031400080919C0290918702823018F1992329F096
:10315000E0903902F0903A0204C0E0903B02F09017
:103160003C028E010F5F1F4FC80167E773E00E94AA
:103170008A36C8010E94C61690933A02809339029B
:10318000C8010E9495366091390270913A02C701D8
:103190000AC0992361F46091390270913A028091DA
:1031A0003B0290913C0243E050E00E94FA0D81E026
:1031B0008093870227960FB6F894DEBF0FBECDBF6F
:1031C000CF91DF911F910F91FF90EF9008952F9273
:1031D0003F924F925F926F927F928F929F92AF92A7
:1031E000BF92CF92DF92EF92FF920F931F93DF93E4
:1031F000CF93CDB7DEB76B970FB6F894DEBF0FBE97
:10320000CDBF6E010894C11CD11CC60167E773E0F5
:103210000E948A36C6010E9485157B018C0160914F
:103220001D0270E0882777FD8095982F0E94B539A0
:103230009B01AC01C801B7010E94693A3B014C01F6
:10324000C6010E9495368E01085F1F4FC8016EE7C8
:1032500073E00E948A36C8010E9485156B017C01CB
:10326000B0901D02C8010E9495368E01015F1F4F6C
:10327000C80165E873E00E948A36C8010E94C6163C
:103280009F8B8E8BC8010E94953681EE92E00E9442
:10329000CE22688F798F8A8F9B8F85E293E00E9480
:1032A000CE221B012C01C401B30120E030E040EA32
:1032B00051E40E94163987FD30C06B2D70E08827DD
:1032C00077FD8095982F0E94B5399B01AC01C7010D
:1032D000B6010E94693A5B016C0120E030E040EAEF
:1032E00051E40E94163987FD18C00E945A0A0E94B4
:1032F000B5399B01AC01C401B3010E94653A1816AF
:1033000064F00E945A0A0E94B5399B01AC01C601C3
:10331000B5010E94653A18163CF480E295E06AE136
:1033200071E00E94483116C0688D798D8A8D9B8D21
:103330000E94B5397B018C01C201B1010E94B539EF
:103340009B01AC01C801B701840173018E889F887D
:103350000E94830E6B960FB6F894DEBF0FBECDBFF2
:10336000CF91DF911F910F91FF90EF90DF90CF9061
:10337000BF90AF909F908F907F906F905F904F9095
:103380003F902F900895EF92FF920F931F93DF933A
:10339000CF93CDB7DEB72E970FB6F894DEBF0FBE32
:1033A000CDBF8E010F5F1F4FC80167E773E00E941A
:1033B0008A36C8010E9485150E94FB10C8010E9430
:1033C000953680919C02833041F58E01085F1F4F36
:1033D000C8016EE773E00E948A36C8010E94C616D3
:1033E0007C01C8010E94953681E0E816F104A9F439
:1033F00062E2E62E62E0F62E6AE170E08B010F5F7A
:103400001F4FF70141917F018CE894E00E942B2B24
:103410000E31110511F0B801F1CF2E960FB6F894C8
:10342000DEBF0FBECDBFCF91DF911F910F91FF90F7
:10343000EF900895EF92FF920F931F93DF93CF9336
:10344000CDB7DEB72E970FB6F894DEBF0FBECDBF57
:103450008E010F5F1F4FC80167E773E00E948A3635
:10346000C8010E9485150E945211C8010E9495361C
:1034700080919C02833041F58E01085F1F4FC80187
:103480006EE773E00E948A36C8010E94C6167C016E
:10349000C8010E94953681E0E816F104A9F47EE1A6
:1034A000E72E72E0F72E66E170E08B010F5F1F4F91
:1034B000F70141917F018CE894E00E942B2B0A31A7
:1034C000110511F0B801F1CF2E960FB6F894DEBFBA
:1034D0000FBECDBFCF91DF911F910F91FF90EF9065
:1034E00008950F931F93DF93CF93CDB7DEB7629705
:1034F0000FB6F894DEBF0FBECDBF8E010B5F1F4F1E
:10350000C80167E773E00E948A36C8010E94C616A8
:103510009A838983C8010E9495368E01045F1F4FEC
:10352000C8016EE773E00E948A36C8010E94C61681
:103530009C838B83C8010E94953680E295E061EA06
:1035400071E00E94053169817A8180E295E04AE06C
:1035500050E00E94823280E295E06CE971E00E94C6
:1035600005316B817C8180E295E04AE050E00E9469
:10357000823280919C02843089F48AE290E0BE011C
:103580006F5F7F4F0E942E118CE290E0BE016D5F55
:103590007F4F0E942E110E94A9113AC08330C1F5BD
:1035A00069817A818B819C8143E050E00E94FA0D11
:1035B00068EC70E080E090E00E948A2D6B817C8155
:1035C00089819A8143E050E00E94FA0D68EC70E036
:1035D00080E090E00E948A2D69817A818B819C81B4
:1035E00043E050E00E94FA0D68EC70E080E090E06B
:1035F0000E948A2D6B817C8189819A8143E050E011
:103600000E94FA0D68EC70E080E090E00E948A2D44
:1036100062960FB6F894DEBF0FBECDBFCF91DF919B
:103620001F910F9108950F931F93DF93CF93CDB701
:10363000DEB729970FB6F894DEBF0FBECDBF8E015F
:103640000D5F1F4FC80167E773E00E948A36C8010B
:103650000E94C6169A83898384E190E0BE016F5F61
:103660007F4F0E942E11C8010E9495360E9444137C
:1036700029960FB6F894DEBF0FBECDBFCF91DF9174
:103680001F910F9108950F931F93DF93CF93CDB7A1
:10369000DEB729970FB6F894DEBF0FBECDBF8E01FF
:1036A0000D5F1F4FC80167E773E00E948A36C801AB
:1036B0000E94C6169A838983C8010E94953682E1CA
:1036C00090E0BE016F5F7F4F0E942E110E94441355
:1036D00029960FB6F894DEBF0FBECDBFCF91DF9114
:1036E0001F910F9108950F931F93DF93CF93CDB741
:1036F000DEB764970FB6F894DEBF0FBECDBF8E0164
:10370000095F1F4FC80167E773E00E948A36C8014E
:103710000E94C6169A838983C8010E9495368E013D
:10372000025F1F4FC8016EE773E00E948A36C8012E
:103730000E94C6169C838B83C8010E94953689819E
:103740009A819E838D8380E090E0BE016B5F7F4F06
:103750000E94851129813A818D819E81821793076C
:1037600051F02B3031053CF080E090E0BE016F5FFE
:103770007F4F0E942E1182E090E0BE016B5F7F4F71
:103780000E9485112B813C818D819E818217930738
:1037900051F02B3031053CF082E090E0BE016D5FCE
:1037A0007F4F0E942E110E94FA1164960FB6F89472
:1037B000DEBF0FBECDBFCF91DF911F910F91089556
:1037C000EF92FF920F931F93DF93CF93CDB7DEB7A6
:1037D000FC01EDB6FEB6448155814F5F5F4F8DB75A
:1037E0009EB7841B950B0FB6F8949EBF0FBE8DBF7E
:1037F0000DB71EB70F5F1F4FCF01B80120E030E0BB
:103800000E94FF34C8010E9489020FB6F894FEBEE0
:103810000FBEEDBECF91DF911F910F91FF90EF9002
:1038200008952F923F924F925F926F927F928F9264
:103830009F92AF92BF92CF92DF92EF92FF920F933F
:103840001F93DF93CF93CDB7DEB7A0970FB6F89451
:10385000DEBF0FBECDBF8E010F5F1F4FC80167E7F0
:1038600073E00E948A36C8010E94E01B20911D026D
:1038700030E040E050E00E94353B6D8F7E8F8F8FAF
:1038800098A3C8010E9495368E01085F1F4FC8019A
:103890006EE773E00E948A36C8010E94E01B209107
:1038A0001D0230E040E050E00E94353B1B012C013E
:1038B000C8010E9495368E01015F1F4FC80165E85F
:1038C00073E00E948A36C8010E94C616AA2797FD97
:1038D000A095BA2F20911D0230E040E050E0BC01DD
:1038E000CD010E94353B3B014C015B01C8010E94A8
:1038F00095368E010A5E1F4FC8016CE873E00E9486
:103900008A36C8010E94C6167C01C8010E949536FD
:1039100060913202709133028091340290913502AD
:10392000A3010E94CC0CAC01C7016FEF70E00E94B4
:10393000E4047C01CC24B7FCC094DC2CC601B501A6
:103940000E94B5392DEC3CEC4CE85FE30E94693AEB
:103950000E9482395B016C016D8D7E8D8F8D98A1E7
:10396000A201910185010E94560DA0960FB6F89410
:10397000DEBF0FBECDBFCF91DF911F910F91FF90A2
:10398000EF90DF90CF90BF90AF909F908F907F90FF
:103990006F905F904F903F902F9008952F923F929D
:1039A0004F925F926F927F928F929F92AF92BF924F
:1039B000CF92DF92EF92FF920F931F93DF93CF93FB
:1039C000CDB7DEB7A6970FB6F894DEBF0FBECDBF5A
:1039D0008E010F5F1F4FC80167E773E00E948A36B0
:1039E000C8010E94E01B20911D0230E040E050E041
:1039F0000E94353B6BA37CA38DA39EA3C8010E94AC
:103A000095368E01085F1F4FC8016EE773E00E9474
:103A10008A36C8010E94E01B20911D0230E040E080
:103A200050E00E94353B1B012C01C8010E949536D5
:103A30008E01015F1F4FC80165E873E00E948A365E
:103A4000C8010E94C616AA2797FDA095BA2F2091FB
:103A50001D0230E040E050E0BC01CD010E94353B4A
:103A60006B017C017AA369A3C8010E9495368E017F
:103A70000A5E1F4FC8016CE873E00E948A36C801D5
:103A80000E94C61698A38F8FC8010E949536C60162
:103A900062E070E00E94603B4B01CB01880F991FF0
:103AA00069A07AA0681A790A809131028130C1F444
:103AB00081EE92E00E94CE227B018C0185E293E0B0
:103AC0000E94CE225B016C016BA17CA18DA19EA105
:103AD000A20191010E94950480933702109238024E
:103AE000209137023091380222303105F9F49401E7
:103AF000442737FD4095542FABA0BCA0CDA0DEA03D
:103B0000A21AB30AC40AD50AC301AA2797FDA09531
:103B1000BA2FA80EB91ECA1EDB1E6BA07CA08DA0FA
:103B20009EA0620E731E841E951E3DC0233031057B
:103B3000C9F49401442737FD4095542F8201710147
:103B4000E21AF30A040B150BC301AA2797FDA095EF
:103B5000BA2FE80EF91E0A1F1B1F220E331E441E29
:103B6000551E32C0C401AA2797FDA095BA2FA30104
:103B7000662757FD6095762F24303105B9F4ABA048
:103B8000BCA0CDA0DEA0A80EB91ECA1EDB1EA41AC2
:103B9000B50AC60AD70A6BA07CA08DA09EA0681AA1
:103BA000790A8A0A9B0A8201710114C07C018D0185
:103BB000E20CF31C041D151DE41AF50A060B170B85
:103BC000281A390A4A0A5B0A6BA07CA08DA09EA025
:103BD000640153016091320270913302809134028A
:103BE0009091350249A15AA10E94CC0CAC018F8D55
:103BF00098A16FEF70E00E94E4049E8F8D8FC60144
:103C0000B501A80197010E94B80A8D8D9E8D02977B
:103C10004CF089A19AA1BC014D8D5E8D2091370297
:103C20000E94E70BC401B301A20191010E94B80AEE
:103C3000A6960FB6F894DEBF0FBECDBFCF91DF9131
:103C40001F910F91FF90EF90DF90CF90BF90AF90BA
:103C50009F908F907F906F905F904F903F902F90AC
:103C600008958F929F92AF92BF92CF92DF92EF9280
:103C7000FF920F931F93DF93CF93CDB7DEB72E97AD
:103C80000FB6F894DEBF0FBECDBF8E010F5F1F4F82
:103C9000C80167E773E00E948A36C8010E94E01BF2
:103CA00020911D0230E040E050E00E94353B4B0186
:103CB0005C01C8010E9495368E01085F1F4FC80144
:103CC0006EE773E00E948A36C8010E94E01B2091D3
:103CD0001D0230E040E050E00E94353B6B017C016A
:103CE000C8010E94953681EE92E0B501A4010E94C0
:103CF000D42285E293E0B701A6010E94D4220E945B
:103D0000440E0E94E8092E960FB6F894DEBF0FBE4F
:103D1000CDBFCF91DF911F910F91FF90EF90DF907A
:103D2000CF90BF90AF909F908F900895CF93DF93E7
:103D3000EC0164EC73E00E947135882319F00E9455
:103D4000B615B3C0CE016FE174E00E9471358823CF
:103D500019F00E94E718A9C0CE016BEC73E00E9435
:103D60007135882319F00E943A169FC0CE0160E594
:103D700074E00E947135882319F00E941A1A95C0C8
:103D8000CE0167E574E00E947135882319F00E9426
:103D9000C3198BC0CE0160EE73E00E947135882399
:103DA00019F00E94CE1C81C0CE0167EE73E00E9424
:103DB0007135882319F00E94111C77C0CE016EEE78
:103DC00073E00E947135882319F00E9405186DC0B8
:103DD000CE016CEF73E00E947135882319F00E94C8
:103DE000F71663C0CE0163E074E00E94713588234A
:103DF00019F00E94311E59C0CE016AE074E00E94A1
:103E00007135882319F00E943E184FC0CE0161E140
:103E100074E00E947135882319F00E94921845C001
:103E2000CE0168E174E00E947135882319F00E9488
:103E3000711A3BC0CE0166E274E00E94713588239E
:103E400019F00E94731B31C0CE0162E474E00E943D
:103E50007135882319F00E94831627C0CE0169E4CA
:103E600074E00E947135882319F00E94431B1DC025
:103E7000CE016EE574E00E947135882319F00E942E
:103E8000131B13C0CE0164E374E00E9471358823D4
:103E900019F00E94B31409C0CE016BE374E00E94D4
:103EA0007135882319F00E947C1481E0DF91CF9155
:103EB0000895CF93DF93EC010E94961E882329F486
:103EC000CE010E94AD0C0E942C0ADF91CF91089583
:103ED0006F927F928F929F92AF92BF92CF92DF921A
:103EE000EF92FF920F931F93DF93CF93CDB7DEB77F
:103EF00027970FB6F894DEBF0FBECDBF4C01FC0173
:103F000064807580AA24BB2400E010E0EE24FF2426
:103F10006E010894C11CD11C3DC0C401B7010E94B0
:103F200081348C32A1F5C601B401A50197010E942C
:103F3000203602301105B9F0033011053CF40115AB
:103F4000110559F001301105C9F40AC003301105FB
:103F500069F00430110591F40CC080E793E00BC0C8
:103F600087E793E008C08EE793E005C085E893E01B
:103F700002C08CE893E0B6010E94733657010894A2
:103F8000A11CB11C0F5F1F4FC6010E9495360894FB
:103F9000E11CF11CE614F7040CF4BFCF00939C0263
:103FA00027960FB6F894DEBF0FBECDBFCF91DF913D
:103FB0001F910F91FF90EF90DF90CF90BF90AF9047
:103FC0009F908F907F906F9008953F924F925F9255
:103FD0006F927F928F929F92AF92BF92CF92DF9219
:103FE000EF92FF920F931F93DF93CF93CDB7DEB77E
:103FF000C655D0400FB6F894DEBF0FBECDBF782EA9
:10400000692EAA24BB2414E2812E912C8C0E9D1EB5
:1040100019C080E295E00E94FD2F182F61E070E04A
:1040200080E090E00E948A2DF401EA0DFB1D1083D0
:104030001A3029F480E295E00E9426300AC00894E4
:10404000A11CB11C80E295E00E94CC2F1816190625
:1040500004F3B4E24B2E512C4C0E5D1EA40CB51C87
:10406000F5011082872D962DB2010E94ED358E014B
:104070000F5F1F4FC80162E072E00E94ED35872D8F
:10408000962DB8010E94F1345C01C8010E9495365A
:10409000FFEFAF16FFEFBF0609F477C03324339468
:1040A00030926504A8E0EA2EF12CEC0EFD1EA5016D
:1040B0004F5F5F4FC701672D762D0E9467368E01D7
:1040C000015F1F4FC801B7010E948A36C8010E94D4
:1040D000E01B6B017C01C8010E9495368E010A5ECF
:1040E0001F4FC801672D762D40E050E095010E94DA
:1040F0002036872D962DB8010E947336C8010E9484
:1041000095368E01035E1F4FC801672D762D0E94E4
:104110008A36C8010E9443084B015C01C8010E9415
:1041200095368C149D04AE04BF0419F43092C80275
:1041300027C080E295E065EA72E00E94B13380E238
:1041400095E06CEA72E00E94B13380E295E065E0B0
:1041500073E00E94053180E295E0B2010E949E3337
:1041600080E295E06CEF72E00E94053180E295E01C
:10417000B501A4012AE030E00E945B321092C8022F
:10418000CE0108960E94953604C0109265041092E4
:10419000C802872D962DCA5ADF4F0FB6F894DEBF9E
:1041A0000FBECDBFCF91DF911F910F91FF90EF9088
:1041B000DF90CF90BF90AF909F908F907F906F9047
:1041C0005F904F903F900895AF92BF92CF92DF9251
:1041D000EF92FF920F931F93DF93CF93CDB7DEB78C
:1041E00027970FB6F894DEBF0FBECDBFB82EA92E0D
:1041F0000E94562D6B010B2D1A2DC8016FE671E040
:104200000E94ED357E010894E11CF11C29C00E943A
:10421000562D6C197D0920912B0230912C02261706
:1042200037072CF40E942C0A0E94562D6B01C701FF
:104230000E94E51FC801B7010E947336C7010E94A2
:10424000953680916504882359F08091C8028823AF
:1042500039F40E94250AC8016FE671E00E94073612
:10426000F80184819581892B91F20E94562D0E943C
:10427000562D60939D0270939E0280939F029093AF
:10428000A0026093A1027093A2028093A302909374
:10429000A4028B2D9A2D27960FB6F894DEBF0FBE81
:1042A000CDBFCF91DF911F910F91FF90EF90DF90E5
:1042B000CF90BF90AF900895EF92FF920F931F930E
:1042C000DF93CF93CDB7DEB727970FB6F894DEBF55
:1042D0000FBECDBF7C016DEB73E00E942C358823AF
:1042E00071F08E010F5F1F4FC801B7010E948A361F
:1042F000C8010E94681FC8010E94953681E0279678
:104300000FB6F894DEBF0FBECDBFCF91DF911F91E6
:104310000F91FF90EF900895CF92DF92FF920F934D
:104320001F93DF93CF93CDB7DEB72E970FB6F894D8
:10433000DEBF0FBECDBF6C018E010F5F1F4FC801E6
:10434000B6010E948A36C8010E945C21F82EC8017D
:104350000E949536FF20C1F08E01085F1F4FC801F3
:1043600061EC72E00E948A36C8010E94591FC801A0
:104370000E949536C6016FE671E00E9407361092E2
:10438000C8020E942C0A1DC080E295E065EA72E036
:104390000E94B13380E295E06CEA72E00E94B13392
:1043A00080E295E065EF72E00E94053180E295E0E1
:1043B000B6010E94B13380E295E067EE72E00E94A0
:1043C000483110929C022E960FB6F894DEBF0FBEB5
:1043D000CDBFCF91DF911F910F91FF90DF90CF90D4
:1043E0000895EF92FF920F931F93DF93CF93CDB772
:1043F000DEB727970FB6F894DEBF0FBECDBF8E0194
:104400000F5F1F4FC8010E94E42081ECE82E82E07C
:10441000F82EC701B8010E947336C8010E94953674
:10442000C7010E948C2127960FB6F894DEBF0FBEFD
:10443000CDBFCF91DF911F910F91FF90EF90089525
:10444000AF92BF92CF92DF92EF92FF920F931F93A2
:1044500000E215E0C80140E051EE60E070E00E942B
:10446000452FC8016BE073E00E940531C8010E942E
:1044700028310E9444130E94D70D21EEA22E22E083
:10448000B22E40911E0250911F0260912002709145
:104490002102C5010E94DB24409122025091230297
:1044A0006091240270912502C5010E94BF2795E208
:1044B000C92E93E0D92E40911E0250911F026091A7
:1044C000200270912102C6010E94DB244091220249
:1044D000509123026091240270912502C6010E942E
:1044E000BF276091270270912802882777FD809569
:1044F000982F0E94B5392091190230911A024091EB
:104500001B0250911C020E941A397B018C016091A0
:10451000170270911802882777FD8095982F0E94C6
:10452000B5399B01AC01C801B7010E94693A0E94EC
:1045300082397B018C01C501B801A7010E94D422F8
:10454000C601B801A7010E94D4228FEA93E063E973
:1045500073E00E9473360E942C0A0E94921864EF46
:1045600071E080E090E00E948A2D1F910F91FF90F2
:10457000EF90DF90CF90BF90AF900895FC0127851A
:1045800030894189528983859485A585B685281B04
:10459000390B4A0B5B0BB901CA010895FC01638515
:1045A0007485858596850895FC01438754876587C2
:1045B00076874787508B618B728B13AA14AA15AA32
:1045C00016AA13A214A215A216A208956F927F92A2
:1045D0008F929F92AF92BF92CF92DF92EF92FF9213
:1045E0000F931F93CF93DF93EC01AF84B888C988F2
:1045F000DA888B859C85AD85BE85A81AB90ACA0A5A
:10460000DB0A2B893C894D895E89CA01B9010E9468
:10461000693A7B018C012B8D3C8D4D8D5E8DCA01DD
:10462000B9010E94B2389B01AC01C801B7010E94D8
:104630001A390E9482399B01AC01A114B104C10452
:10464000D104B9F462307105810591050CF085C083
:104650001BA21CA21DA21EA280E090E0A0E0B0E080
:104660008B8B9C8BAD8BBE8B1BAA1CAA1DAA1EAA72
:104670000BC1EBA8FCA80DA91EA91A141B041C044D
:104680001D0444F51E141F041006110674F46A1567
:104690007B058C059D05B4F5CD5BDF4F8881C35448
:1046A000D040882309F059C02DC0E114F104010560
:1046B000110509F452C06A157B058C059D050CF0A7
:1046C0004CC0CD5BDF4F8881C354D040813009F0AE
:1046D00044C038C01E141F0410061106DCF48827DD
:1046E0009927DC018A199B09AC09BD0928173907EC
:1046F0004A075B073CF4CD5BDF4F8881C354D04051
:10470000813059F588279927DC01821B930BA40B74
:10471000B50B1FC0E114F10401051105F1F0882764
:104720009927DC018A199B09AC09BD0928173907AB
:104730004A075B0794F4CD5BDF4F8881C354D040B8
:10474000882359F488279927DC018E199F09A00B2B
:10475000B10B8BAB9CABADABBEAB6BA87CA88DA8F3
:104760009EA86114710481049104A9F48FA998ADE5
:10477000A9ADBAAD8BAF9CAFADAFBEAFFE01ED5BE7
:10478000FF4F10821A141B041C041D040CF049C0B6
:1047900081E0808346C0ABACBCACCDACDEACC60126
:1047A000B50120E030E040E050EC0E94693A7B0126
:1047B0008C01C401B3010E94B53920E030E040E82B
:1047C00050E40E94693A20E030E040E85FE30E9454
:1047D000B2389B01AC01C801B7010E941A399B0194
:1047E000AC01C601B5010E94B2387B018C016BAFF0
:1047F0007CAF8DAF9EAFEF96A880B980CA80DB807A
:10480000EF979501A6010E94653A181624F4D80185
:10481000C70157016D01C501D6018BAF9CAFADAF8C
:10482000BEAF8BA99CA9ADA9BEA90196A11DB11DC2
:104830008BAB9CABADABBEAB6BAD7CAD8DAD9EAD74
:104840000E9487396BA37CA38DA39EA360E074E2D2
:1048500084E799E42BAD3CAD4DAD5EAD0E941A39B5
:104860009B01AC016B8B7C8B8D8B9E8BCD5BDF4F6B
:104870008881C354D040882339F4DA01C901B05883
:104880008B8B9C8BAD8BBE8BDF91CF911F910F914A
:10489000FF90EF90DF90CF90BF90AF909F908F9060
:1048A0007F906F900895FC0187859089A189B289D6
:1048B00084179507A607B70739F04787508B618B98
:1048C000728BCF010E94E6220895FC01DB01CA0130
:1048D0004385548565857685480F591F6A1F7B1F60
:1048E000CF010E9453240895CF92DF92EF92FF925E
:1048F0000F931F93FC0182E692E0918380831282E2
:1049000013861486158616861786108A118A128ACF
:104910000F2EF0E0CF2EF0E0DF2EF0E0EF2EF0E0F3
:10492000FF2EF02DC38AD48AE58AF68A00E010E0D3
:1049300020E83FE3078B108F218F328F038F148F76
:10494000258F368F078F10A321A332A313A214A2A1
:1049500015A216A281E090E094A783A78FEF86A707
:1049600017A210A611A612A613821482158216820F
:1049700070AB67A752AB41AB13AA14AA15AA16AA2B
:10498000C7AAD0AEE1AEF2AEC3AED4AEE5AEF6AEDF
:10499000FF9601931193219331931082E354F040D9
:1049A00017821086118612861F910F91FF90EF904B
:1049B000DF90CF900895EF92FF920F931F93CF93C4
:1049C000DF93EC017A018B016F89788D898D9A8D47
:1049D000A80197010E9416398823E1F1EF8AF88E29
:1049E000098F1A8FEF9660E074E284E799E4A801DA
:1049F00097010E941A39688379838A839B83EF9792
:104A00008BA99CA9ADA9BEA9181619061A061B06E2
:104A10000CF52B893C894D895E89CA01B9010E9438
:104A2000693A7B018C012B8D3C8D4D8D5E8DCA01C9
:104A3000B9010E94B2389B01AC01C801B7010E94C4
:104A40001A390E9482396BAB7CAB8DAB9EABCE0129
:104A50000E94E622DF91CF911F910F91FF90EF907E
:104A600008954F925F926F927F928F929F92AF9232
:104A7000BF92CF92DF92EF92FF920F931F93CF934B
:104A8000DF932C017A018B01CB01BA01F20123895A
:104A90003489458956890E941639882309F455C0FE
:104AA000F201A788B08CC18CD28C3501460197FAEF
:104AB000909497F89094C801B701A40193010E94C3
:104AC000163988231CF4840173010AC0C801B70198
:104AD000A60195010E94653A181614F48601750125
:104AE000C801B70120E030E040E050E00E941639F4
:104AF000882331F4F20113A214A215A216A220C039
:104B000060E074E284E799E4A80197010E941A39F1
:104B10009F770E948739F20163A374A385A396A3AC
:104B2000E201CD5BDF4F1882C801B70120E030E021
:104B300040E050E00E94653A181614F481E0888342
:104B4000F201E38AF48A058B168BDF91CF911F91D6
:104B50000F91FF90EF90DF90CF90BF90AF909F901C
:104B60008F907F906F905F904F900895FC01238904
:104B7000348945895689B901CA010895DC01129624
:104B80008C911297833001F1843040F4813089F0A8
:104B9000ED91FC911197823098F407C0863011F1A5
:104BA000883049F1843079F516C00480F581E02D14
:104BB0001FC0ED91FC9111970680F781E02D18C080
:104BC0000084F185E02D14C0ED91FC9111970284D1
:104BD000F385E02D0DC0ED91FC9111970484F585CE
:104BE000E02D06C0ED91FC9111970684F785E02D2C
:104BF000CD0109950895ED91FC9111970088F189F7
:104C0000E02DCD0109950895CF93DF93EC016B89D9
:104C10007C898D899E8920E030E040E050E00E9450
:104C2000653A18161CF4EFA5F8A902C0E9A9FAA97B
:104C30000995DF91CF910895DC0170E06370707089
:104C400061307105A9F0623071051CF4672B41F0E9
:104C5000089562307105A1F06330710501F518C047
:104C6000ED91FC9111970190F081E02D62E00EC072
:104C7000ED91FC9111970190F081E02D63E006C069
:104C8000ED91FC910190F081E02D61E0099508958E
:104C9000ED91FC910190F081E02D60E0099508957F
:104CA000DC01862F63E00E94543B913071F091301B
:104CB00018F09230E9F413C0ED91FC911197019036
:104CC000F081E02DCD0164E008C0ED91FC911197D9
:104CD0000190F081E02DCD0161E009950895ED91FD
:104CE000FC9111970190F081E02DCD0162E00995D2
:104CF0000895DC0170E06370707061307105A9F097
:104D0000623071051CF4672B41F008956230710523
:104D1000A1F06330710501F518C0ED91FC91119778
:104D20000190F081E02D65E00EC0ED91FC911197AE
:104D30000190F081E02D66E006C0ED91FC910190BC
:104D4000F081E02D6AE009950895ED91FC910190C4
:104D5000F081E02D69E009950895DC01862F66E079
:104D60000E94543B923009F1933030F4992359F06A
:104D7000913009F03FC010C0943049F19430F0F008
:104D80009530C1F52EC0ED91FC9111970190F08105
:104D9000E02DCD0164E023C0ED91FC9111970190CD
:104DA000F081E02DCD0165E01AC0ED91FC911197E5
:104DB0000190F081E02DCD0161E011C0ED91FC91F9
:104DC00011970190F081E02DCD0163E008C0ED91D5
:104DD000FC9111970190F081E02DCD0162E00995E1
:104DE0000895ED91FC9111970190F081E02DCD0196
:104DF00066E009950895DC0170E0677070706330BB
:104E0000710591F1643071054CF461307105E1F088
:104E1000623071050CF5672B79F0089565307105E6
:104E200099F16530710544F166307105A9F167307B
:104E3000710509F040C038C0ED91FC9111970190C7
:104E4000F081E02D61E02EC0ED91FC911197019071
:104E5000F081E02D65E026C0ED91FC911197019065
:104E6000F081E02D64E01EC0ED91FC91119701905E
:104E7000F081E02D66E016C0ED91FC911197019054
:104E8000F081E02D62E00EC0ED91FC911197019050
:104E9000F081E02D6AE006C0ED91FC910190F08177
:104EA000E02D68E009950895ED91FC910190F08165
:104EB000E02D69E009950895CF92DF92EF92FF927D
:104EC0000F931F93CF93DF93FC012281243029F0AD
:104ED000283019F092E0D92E02C084E0D82E8F013C
:104EE000C0E0D0E0E62EFF24CC24C394F801238157
:104EF000C7010C2E02C0959587950A94E2F7678149
:104F000080FD6C25822F0E94672E21960F5F1F4F18
:104F1000CD1560F3DF91CF911F910F91FF90EF902E
:104F2000DF90CF900895CF93DF93EC01E881F98172
:104F30000190F081E02DCD5BDF4F8881C354D040DC
:104F4000882311F461E001C063E0CE0109958BA5CF
:104F50009CA50E94E32DE881F9810190F081E02D6C
:104F6000CD5BDF4F8881C354D040882311F460E0CB
:104F700001C062E0CE010995DF91CF9108956F9253
:104F80007F928F929F92AF92BF92CF92DF92EF92D9
:104F9000FF920F931F93CF93DF93EC013A014B01E4
:104FA000CB01BA0120E030E040E050E00E94163929
:104FB000882309F441C0AB8CBC8CCD8CDE8CC6013F
:104FC000B501A40193010E9416398823A9F16BA9A8
:104FD0007CA98DA99EA90E94B5397B018C01C601CF
:104FE000B501A40193010E941A399B01AC01C801CB
:104FF000B7010E94693A0E9482396BAB7CAB8DABE2
:105000009EAB60E070E080E090E4A40193010E9418
:105010001A390E94D03A20E034E244E759E40E9471
:10502000693A6FAB78AF89AF9AAF6B8E7C8E8D8EFD
:105030009E8ECE010E94E622DF91CF911F910F91AB
:10504000FF90EF90DF90CF90BF90AF909F908F90A8
:105050007F906F900895EF92FF920F931F93CF93DD
:10506000DF93EC018BA19CA1ADA1BEA10097A1058E
:10507000B10509F44CC00E94642D7B018C012FA165
:1050800038A549A55AA58BA19CA1ADA1BEA1820FAF
:10509000931FA41FB51F82179307A407B50730F00D
:1050A000E816F9060A071B0758F405C0E816F906C2
:1050B0000A071B0760F1E216F3060407150738F527
:1050C000CD5BDF4F8881C354D0402B853C854D8517
:1050D0005E85813029F42F5F3F4F4F4F5F4F04C0F3
:1050E00021503040404050402B873C874D875E87A1
:1050F000E881F9816B8567700280F381E02DCE0134
:105100000995EFA2F8A609A71AA781E001C080E0DF
:10511000DF91CF911F910F91FF90EF900895CF9362
:10512000DF93FC01278530894189528983859485E5
:10513000A585B685281739074A075B0711F480E073
:105140000FC0EF01CD5BDF4F82179307A407B507B0
:105150001CF481E0888301C01882CF010E942B28B3
:10516000DF91CF910895CF93DF93EC010E942B281C
:10517000882319F0CE010E94E62281E0DF91CF91D1
:105180000895CF93DF93EC016B897C898D899E898B
:1051900020E030E040E050E00E941639882369F4B6
:1051A0002F85388949895A898B859C85AD85BE852F
:1051B000281739074A075B0721F0CE010E94B32860
:1051C000E3CFDF91CF9108950F931F938C010E943D
:1051D0005324C8010E94C1281F910F910895FC011A
:1051E000809166048C3090F482838F5F8093660494
:1051F000815090E0FC01EE0FFF1FE80FF91FE95905
:10520000FB4F88EB9BE09283818308958FEF82832D
:105210000895DC0112968C91129790E0FC01EE0F3C
:10522000FF1FE80FF91FE959FB4F80818F7B8083B7
:1052300012968C916CE00E94543B90E0AC01440FBC
:10524000551F480F591F440F551F440F551F20E08D
:1052500030E0C901840F951FFC01EE0FFF1FE80F1E
:10526000F91FE959FB4F808186FD05C02F5F3F4F35
:105270002C30310571F70895FC0122812C30B8F5EE
:105280008081992787FD909548E850E0481B590B8D
:10529000440F551F440F551F6417750784F0818113
:1052A000992787FD909548E552E0481B590B440F1C
:1052B000551F440F551F641775070CF4AB0142507E
:1052C0005040CA01AA2797FDA095BA2F880F991FB1
:1052D000AA1FBB1F4FB7F89430E0F901EE0FFF1F74
:1052E000E20FF31FE959FB4F928381834FBF08956B
:1052F000AF92BF92CF92DF92EF92FF920F931F93E4
:10530000CF93DF93EC019B0182E0603278070CF0D1
:1053100048C077FF03C020E030E005C0653B710561
:1053200014F024EB30E000D000D0B901882777FDDD
:105330008095982F2881332727FD3095E8E8AE2EF9
:10534000B12CA21AB30AAA0CBB1CAA0CBB1CCC24FD
:10535000B7FCC094DC2CE981FF27E7FDF09528E538
:1053600032E02E1B3F0B220F331F220F331F442727
:1053700037FD4095542FEDB7FEB721833283438329
:10538000548320E030E040E050E004EBE02EF12CCC
:10539000012D112D0E94F8339B010F900F900F905B
:1053A0000F90CE01B9010E943C29DF91CF911F914E
:1053B0000F91FF90EF90DF90CF90BF90AF90089546
:1053C000CF92DF92EF92FF921F93CF93DF93EC0186
:1053D000162F7A0169018A818C3008F064C0862F0B
:1053E00061E00E94282E8A8190E0FC01EE0FFF1FF1
:1053F000E80FF91FE959FB4F1F738081807C812BD7
:10540000808380E292E08E199F0964E070E00E9440
:10541000603B688380E699E08C199D0964E070E048
:105420000E94603B6983AA818A2F6CE00E94543BF2
:10543000682F70E0AB01440F551F460F571F440FF4
:10544000551F440F551F20E030E0C901840F951F00
:10545000FC01EE0FFF1FE80FF91FE959FB4F808198
:1054600086FD15C02F5F3F4F2C30310571F724C0EA
:105470001092800082E0809381001092850010924B
:105480008400B19A80916F00826080936F008A2FB0
:1054900090E0FC01EE0FFF1FE80FF91FE959FB4FE9
:1054A0008081806480838A81DF91CF911F91FF90FA
:1054B000EF90DF90CF900895672BD1F2E8CF40E2D4
:1054C00052E020E639E00E94E02908951F920F92F1
:1054D0000FB60F9211242F933F934F935F936F93C7
:1054E0007F938F939F93AF93BF93EF93FF9380919D
:1054F0008B0487FF05C010928500109284002BC09A
:1055000020918B04332727FD30958091660490E02D
:105510002817390704F580918B04992787FD90950A
:10552000FC01EE0FFF1FE80FF91FE959FB4F8081C7
:1055300086FF11C080918B04992787FD9095FC010F
:10554000EE0FFF1FE80FF91FE959FB4F80818F73A2
:1055500060E00E94672E80918B048F5F80938B04A4
:1055600020918B04332727FD30958091660490E0CD
:10557000281739070CF04EC080918B048C300CF04A
:1055800049C0209184003091850080918B04992737
:1055900087FD9095FC01EE0FFF1FE80FF91FE959F9
:1055A000FB4F81819281280F391F3093890020930E
:1055B000880080918B04992787FD9095FC01EE0F60
:1055C000FF1FE80FF91FE959FB4F808186FF2BC0B1
:1055D00080918B04992787FD9095FC01EE0FFF1FAA
:1055E000E80FF91FE959FB4F80818F7361E00E943A
:1055F000672E19C080E49CE905C0809184009091D9
:105600008500049690938900809388008FEF8093A3
:105610008B0409C080918400909185000496805489
:105620009C4940F3EACFFF91EF91BF91AF919F91D9
:105630008F917F916F915F914F913F912F910F903B
:105640000FBE0F901F901895F999FECF72BD61BDE6
:10565000F89A80B50895F999FECF1FBA72BD61BD61
:1056600040BD0FB6F894FA9AF99A0FBE08951092B9
:105670008D040895E0EBF0E090819368908387704B
:105680008093B1001092B3008BE061E00E94282E5D
:105690000895E0EBF0E090819362908387708093AF
:1056A000B1001092B40083E061E00E94282E0895BA
:1056B000CF93DF938CE060E00E94672E88E060E08B
:1056C0000E94672EC7E0D0E084E060E00E94672E71
:1056D00080918E0490E00C2E02C0959587950A94D7
:1056E000E2F780FF03C088E061E002C088E060E08C
:1056F0000E94672E84E061E00E94672E21978FEF61
:10570000CF3FD80709F78CE061E00E94672EDF9158
:10571000CF9108950F931F93CF93DF93EC01142F34
:105720008A81813029F404E042E058E070E108C049
:10573000823011F080E0E0C000E241E050E870E427
:10574000113041F49B85892F86958695869580FF3B
:1057500010C009C01230A1F49B85892F86958695CB
:10576000869580FD06C0613011F4985F05C09850A1
:1057700003C0613019F4905F9B8752C09051FCCFF9
:10578000133041F48B85613011F4885F01C088507B
:105790008B8746C0143009F043C08B85613011F40B
:1057A0008F5F01C081508B87AB85AF73AB87A03112
:1057B00048F4B0E0E7E5F2E0EA1BFB0B2081A95BCF
:1057C000BD4F19C08A2F8051803148F48A2F90E054
:1057D000FC01E95CFD4F2081E7E6F2E01DC08A2F65
:1057E0008052803150F4B0E0E7E7F2E0EA1BFB0BB7
:1057F0002081A95DBD4F8C9115C08A2F80538031C7
:1058000018F080E020E00EC08A2F90E0FC01E95EF5
:10581000FD4F2081E7E8F2E0E81BF90B808102C030
:105820008FEF2FEF3B853F733B879A81913029F4AF
:105830002093B3008093B40004C0923011F427BDCC
:1058400088BD242F202B672F652B962F922B9095A8
:1058500080918E04982390938E04143019F5303182
:1058600018F4922B90938E04832F8051803130F462
:10587000452B80918E04842B80938E04832F80523D
:10588000803130F4572B80918E04852B80938E04C9
:105890003053303160F5702B80918E04872B8093CC
:1058A0008E0425C0832F8695869586958330B1F02A
:1058B000843028F4813071F0823070F409C0853072
:1058C00081F0853060F0863079F0873081F40BC04C
:1058D000902B0BC0922B09C0942B07C0542B952BF7
:1058E00004C0962B02C0702B972B90938E048DE8EA
:1058F00094E00E94582B8B85DF91CF911F910F91DF
:1059000008950F931F938C018CE061E00E94282E74
:1059100087E061E00E94282E88E061E00E94282E46
:1059200084E061E00E94282E10928E04C8010E943B
:10593000582B87E060E00E94672E1F910F91089519
:10594000DF92EF92FF920F931F938C017B01D42E75
:105950008DE894E00E94812CF801F182E082D282ED
:105960001386F1E0DF1629F580918E04817E809305
:105970008E048DE894E00E94582B8BE061E00E9439
:10598000282E83E061E00E94282E8BE061E00E94D7
:10599000672E83E061E00E94672E81E00E943A2B2F
:1059A00081E00E94492B8FEF8093B3008093B40075
:1059B0002FC082E0D81661F580918E048E7180939D
:1059C0008E048DE894E00E94582B85E061E00E94EF
:1059D000282E86E061E00E94282E85E061E00E948A
:1059E000672E86E061E00E94672E84B5836884BDDF
:1059F00017BC86E061E00E94282E84B5836284BDD6
:105A000018BC85E061E00E94282E8FEF87BD88BD1D
:105A10001F910F91FF90EF90DF9008951F920F92CA
:105A20000FB60F9211242F933F938F939F93AF93B1
:105A3000BF938091930490919404A0919504B091A8
:105A40009604309197040196A11DB11D232F2D5F5F
:105A50002D3720F02D570196A11DB11D20939704DD
:105A60008093930490939404A0939504B093960428
:105A700080918F0490919004A0919104B091920430
:105A80000196A11DB11D80938F0490939004A09363
:105A90009104B0939204BF91AF919F918F913F91E8
:105AA0002F910F900FBE0F901F9018958FB7F894FD
:105AB0002091930430919404409195045091960460
:105AC0008FBFB901CA0108959FB7F89420918F0440
:105AD00030919004409191045091920486B5A89B16
