:100000000C94DF010C9407020C9407020C94070275
:100010000C9407020C9407020C9407020C9407023C
:100020000C9407020C9407020C9407020C94D02A3B
:100030000C9407020C9407020C9407020C9407021C
:100040000C94712F0C9407020C941F310C946D3199
:100050000C9407020C9407020C9407020C940702FC
:100060000C9407020C940702000000006410B71DF6
:10007000C8206E3BAC30D9269041DC76F4516B6BD6
:100080005861B24D3C7105502083B8ED44930FF098
:10009000E8A3D6D68CB361CBB0C2649BD4D2D3864E
:1000A00078E20AA01CF2BDBD43616C63756C61749B
:1000B0006564206D61784C656E6774683A2000460F
:1000C0006972737420776176652068616C6600548C
:1000D00068697320706F696E742066616C6C732040
:1000E0006F757473696465207468652061726561F9
:1000F000206F662074686973206D616368696E653E
:100100002E20536B697070696E672069742E006DC4
:100110006D004368616E6765642050656E20776985
:1001200064746820746F20004E6577206163636596
:100130006C65726174696F6E3A20004E6577206D50
:1001400061782073706565643A200055703A20002C
:10015000446F776E3A2000504753504545442C0079
:1001600050474C4946542C005047535445504D5528
:100170004C5449504C4945522C005047535445501B
:10018000535045525245562C0050474D4D50455204
:100190005245562C00504753495A452C0050474E63
:1001A000414D452C002900526563616C63207061EC
:1001B000676548656967687420696E207374657047
:1001C000732028002900526563616C6320706167A9
:1001D00065576964746820696E2073746570732054
:1001E00028002900292C2073746570735065724DA6
:1001F0004D202800526563616C63206D6D506572FF
:10020000537465702028004C6F61646564206D6FC5
:10021000746F722073746570206D756C7469706C86
:100220006965723A004C6F61646564206D61636852
:10023000696E65206E616D653A004C6F616465643E
:1002400020757020706F733A004C6F616465642094
:10025000646F776E20706F733A004C6F61646564F1
:10026000206D6F746F722073746570732070657287
:10027000207265763A004C6F61646564206D6D2074
:10028000706572207265763A004C6F616465642017
:100290006D616368696E65206865696768743A00B6
:1002A0004C6F61646564206D616368696E65207779
:1002B000696474683A002069736E27742061206352
:1002C0006F6D6D616E642049207265636F676E6942
:1002D00073652E00536F7272792C200029206E6F87
:1002E00074207061727365642E00436F6D6D616E72
:1002F00064202800436865636B73756D206E6F74AE
:10030000206D617463686564213A004920676F74E9
:100310002000504F4C41524752415048204F4E21EF
:100320000000000000240027002A00000000002533
:100330000028002B000000000023002600290004F4
:10034000040404040404040202020202020303037C
:100350000303030102040810204080010204081076
:100360002001020408102000000007000201000024
:100370000304060000000000000000494E46494EFC
:100380004954594E414ECDCCCC3D0AD7233C17B7EA
:10039000D13877CC2B329595E6241FB14F0A000057
:1003A00020410000C84200401C4620BCBE4CCA1B75
:1003B0000E5AAEC59D747208A12BD9326B08112458
:1003C0001FBECFEFD8E0DEBFCDBF12E0A0E0B1E0AE
:1003D000ECE4FAE702C005900D92AC38B107D9F70A
:1003E00015E0ACE8B2E001C01D92A135B107E1F71C
:1003F00013E0CCEBD3E004C02297FE010E94D33C73
:10040000C63BD107C9F70E942F330C94193D0C94B9
:100410000000A0E0B0E0EFE0F2E00C94EA3CEC0178
:10042000A880B980CA80DB80A114B104C104D104C2
:1004300041F484E2A82E89EDB82E8BE5C82E87E022
:10044000D82EC601B5012DE133EF41E050E00E9406
:10045000A23C27EA31E440E050E00E94423C7B01AC
:100460008C01C601B5012DE133EF41E050E00E945F
:10047000A23CCA01B9012CEE34EF4FEF5FEF0E94AE
:10048000423C6E0D7F1D801F911F97FF04C061507D
:10049000704080409048688379838A839B839B0166
:1004A000AC015F77B901CA01CDB7DEB7EAE00C94C1
:1004B000063D0E94090208958CE192E00E94090223
:1004C000089560931C0270931D0280931E02909306
:1004D0001F020895662777270C942003FC018827C4
:1004E0009927E89421912032E9F3293010F02E3039
:1004F000C8F32B3241F02D3239F4689404C00E94C5
:100500001803820F911D219120532A30C0F31EF44D
:10051000909581959F4F08951F93FC0199278827F7
:10052000BC01E89411911032E9F3193010F01E303B
:10053000C8F31B3251F01D3249F4689406C00E9482
:100540000303610F711D811D911D119110531A300C
:10055000B0F33EF490958095709561957F4F8F4FE5
:100560009F4F1F910895FB01DC0102C001900D9285
:1005700041505040D8F70895FB01DC018D91019066
:1005800080190110D9F3990B0895FB01DC0101904A
:100590000D920020E1F70895FB01DC01415050402D
:1005A00030F08D910190801919F40020B9F7881B63
:1005B000990B0895FB01DC014150504048F0019037
:1005C0000D920020C9F701C01D9241505040E0F744
:1005D0000895FB0151915523A9F0BF01DC014D9114
:1005E00045174111E1F759F4CD010190002049F080
:1005F0004D9140154111C9F3FB014111EFCF81E04D
:1006000090E001970895592F482F372F262F660F16
:10061000771F881F991F660F771F881F991F620F0A
:10062000731F841F951F660F771F881F991F0895DA
:100630007AE0979F902D879F802D910D112408952A
:10064000A0E0B0E0E6E2F3E00C94E83CEC015B01F2
:100650006115710519F0FB0191838083F9908F2D4D
:1006600090E00E94D73C892BC9F7FDE2FF1621F4E8
:10067000F990EE24E39405C02BE2F21609F4F99008
:10068000EE248E0101501040C8016BE773E043E097
:1006900050E00E948004892B01F58E010E5F1F4FF0
:1006A000C8016EE773E045E050E00E948004892BAA
:1006B00019F48E01095F1F4FA114B10419F0F5015F
:1006C00011830083E0FC04C070E090E080E814C077
:1006D00070E090E080E86FEF08C1C80163E873E064
:1006E00043E050E00E948004892B69F4A114B10416
:1006F00029F470E090E080EC6FE7F7C02296F501F6
:10070000D183C083F6CF8824992440E050E060E094
:1007100070E0EF2DE053EA30A0F5F2E0EF2A8E2DE5
:1007200090E09C0128703070E2FE06C0232B79F522
:100730000894811C911C2BC0232B19F0089481086C
:100740009108DB01CA0112E0880F991FAA1FBB1F85
:100750001A95D1F7480F591F6A1F7B1F440F551F69
:10076000661F771F4E0F511D611D711D483929E904
:10077000520729E9620729E1720748F084E0E82A74
:1007800006C0EE3F31F4E3FC39C098E0E92AF99065
:10079000C0CFE53311F0E53189F529912D3219F4F7
:1007A000E0E1EE2A05C02B3219F081E090E003C0B1
:1007B000299182E090E0E22FE053EA3018F0C81B64
:1007C000D90B1CC020E030E0FCE020383F075CF48F
:1007D000C901880F991F880F991F280F391F220FF1
:1007E000331F2E0F311DE991E053EA3068F3E4FE28
:1007F00003C0309521953F4F820E931ECE2CDD24F1
:10080000E1FE07C0A114B10421F02197F501D183C5
:10081000C083CB01BA010E94C03A7B018C01F3E096
:10082000CF22DD2423E0C216D10421F417FB10955A
:1008300017F9109557016801C801B70120E030E0B1
:1008400040E050E00E94233A882309F44AC097FE12
:100850000DC02AE9E22E23E0F22E909481949108B3
:100860009394C0E2D0E000E010E012C092EBE92ED9
:1008700093E0F92EF6CFF7012591359145915491EA
:10088000C601B5010E94763B5B016C018C1A9D0A82
:100890008C169D0684F7D595C7950F5F1F4F0630C0
:1008A000110529F08CEF9FEFE80EF91EF1CFC5017D
:1008B000D6017C018D018C2D880F8D2D881F8F3FD7
:1008C00051F0C601B50120E030E040E050E00E9468
:1008D000233A882331F482E290E09093500580938C
:1008E0004F057E2D9F2D802F612F272F392F482FC9
:1008F000562FB901CA01CDB7DEB7ECE00C94043D28
:10090000FB01DC014150504088F08D9181341CF096
:100910008B350CF4805E659161341CF06B350CF402
:10092000605E861B611171F3990B0895881BFCCFE3
:10093000AF92BF92CF92DF92EF92FF920F931F93ED
:100940006E157F058007910734F42E153F0540078B
:10095000510764F42CC0E616F7060807190794F44B
:10096000A216B306C406D5063CF423C0A216B306ED
:10097000C406D506BCF41FC02A153B054C055D0511
:10098000C4F41BC06E157F058007910791F42A15EA
:100990003B054C055D058CF0A216B306C406D506D2
:1009A00044F409C02A153B054C055D0511F484E0AB
:1009B00005C082E003C083E001C081E01F910F9178
:1009C000FF90EF90DF90CF90BF90AF900895EF929F
:1009D000FF920F931F937B018C01662757FD609553
:1009E000762FCB01BA010E94C23A20919702309132
:1009F00098024091990250919A020E94763BA80178
:100A000097010E94273A7B018C0120E030E040E012
:100A100050E40E94723B87FF03C061E070E004C0B5
:100A2000C801B7010E948F3ACB011F910F91FF902F
:100A3000EF9008956F927F928F929F92AF92BF92A4
:100A4000CF92DF92EF92FF920F931F93CF93DF939A
:100A50007C015B01662757FD6095762FCB01BA01BB
:100A60000E94C23A3B014C010027F7FC0095102F71
:100A7000C801B7010E94C23A7B018C01CC24B7FCAB
:100A8000C094DC2CC601B5010E94C23A9B01AC01A6
:100A9000C801B7010E94273AA40193010E94763B46
:100AA0009B01AC01C401B3010E94BE397B018C01E2
:100AB0000E948F3AEB01BE01882777FD8095982F21
:100AC0000E94C23A9B01AC01C801B7010E94BE3925
:100AD00020E030E040E05FE30E94723B18160CF427
:100AE0002196CE01DF91CF911F910F91FF90EF9052
:100AF000DF90CF90BF90AF909F908F907F906F903E
:100B000008952F923F924F925F926F927F928F92B1
:100B10009F92AF92BF92CF92DF92EF92FF920F938C
:100B20001F931B012C0139014A0160919F027091B2
:100B3000A0028091A1029091A2020E94C23A7B0180
:100B40008C01A80197010E94763B5B016C01C401F6
:100B5000B301A40193010E94763B9B01AC01C60145
:100B6000B5010E94BE395B016C01C201B101A20155
:100B700091010E94763B9B01AC01C601B5010E9428
:100B8000BF395B016C01C801B701A80197010E9440
:100B9000BF399B01AC01C601B5010E94273A1F91E4
:100BA0000F91FF90EF90DF90CF90BF90AF909F900C
:100BB0008F907F906F905F904F903F902F9008950F
:100BC0000F931F93CF93DF93242F2627A22FB0E0FC
:100BD000AF70B070AA0FBB1FAA0FBB1FC8E6D0E052
:100BE000AC0FBD1FFD010591159125913491E4E0F5
:100BF0009695879577956795EA95D1F706271727F4
:100C00002827392742954F70402750E04F70507089
:100C1000440F551F440F551F4C0F5D1FFA0185915E
:100C20009591A591B49144E0369527951795079530
:100C30004A95D1F7082719272A273B27B801C90168
:100C4000DF91CF911F910F910895EF92FF920F9333
:100C50001F938130910509F08EC16F5F7F4F09F0BE
:100C600035C28EE593E060E071E00E94FF388CE8C9
:100C700092E00E945C2980E992E065E071E00E94C8
:100C8000FF3885E693E066E071E00E94FF3820912E
:100C9000200230912102442737FD4095542F609166
:100CA000260270E080E090E00E94423C0E94C23A3E
:100CB0007B018C01609122027091230280912402B9
:100CC00090912502A80197010E94273A609397020C
:100CD000709398028093990290939A02C801B70189
:100CE000209122023091230240912402509125024A
:100CF0000E94273A7B018C0160939B0270939C02B7
:100D000080939D0290939E0260913602709137020B
:100D1000882777FD8095982F0E94C23AA8019701F5
:100D20000E94763B0E948F3A60939F027093A002CC
:100D30008093A1029093A2026091380270913902CF
:100D4000882777FD8095982F0E94C23AA8019701C5
:100D50000E94763B0E948F3A6093A3027093A40294
:100D60008093A5029093A6028CE693E06FE071E079
:100D70000E94FF3883E793E067E171E00E94FF384B
:100D80008AE793E06AE471E00E94FF3881E893E02B
:100D90006AE471E00E94FF3888E893E06AE471E059
:100DA0000E94FF388FE893E06AE471E00E94FF3808
:100DB00086E993E069E571E00E94FF388DE993E0F0
:100DC0006FE571E00E94FF3884EA93E066E671E027
:100DD0000E94FF388BEA93E06EE671E00E94FF38D4
:100DE00082EB93E069E771E00E94FF3889EB93E0C2
:100DF00066E973E00E949C3986EB92E065E071E061
:100E00000E94FF3880EC93E06FE771E00E94FF38AA
:100E100087EC93E061E871E00E94FF388EEC93E08C
:100E200066E871E00E94FF3885ED93E06AE871E0C2
:100E30000E94FF388CED93E06EE871E00E94FF386D
:100E400083EE93E062E971E00E94FF388AEE93E05E
:100E500066E971E00E94FF3881EF93E06AE971E092
:100E60000E94FF3888EF93E06EE971E00E94FF383E
:100E70008FEF93E062EA71E00E94FF3886E094E031
:100E800066EA71E00E94FF388DE094E06AEA71E062
:100E90000E94FF3884E194E06EEA71E00E94FF381E
:100EA0008BE194E062EB71E00E94FF3882E294E013
:100EB00066EB71E00E94FF3889E294E06AEB71E032
:100EC0000E94FF3880E394E06EEB71E00E94FF38EF
:100ED00087E394E062EC71E00E94FF388EE394E0D7
:100EE00066EC71E00E94FF3885E494E06AEC71E002
:100EF0000E94FF388CE494E06EEC71E00E94FF38B1
:100F000083E594E062ED71E00E94FF388AE594E0A9
:100F100066ED71E00E94FF3881E694E06AED71E0D1
:100F20000E94FF3888E694E06EED71E00E94FF3881
:100F300060912002709121028EEB92E041E00E94CC
:100F40000A2D60912002709121028AEC92E042E029
:100F50000E940A2D86ED92E065EF75E14EEE55E1B7
:100F60000E94E1248AE193E067EE75E140EE55E1ED
:100F70000E94E124ABC0892B09F0A8C06F5F7F4FAE
:100F800009F0A4C088E694E00E94B23981E694E0BA
:100F90000E94B2398AE594E00E94B23983E594E078
:100FA0000E94B2398CE494E00E94B23985E494E066
:100FB0000E94B2398EE394E00E94B23987E394E054
:100FC0000E94B23980E394E00E94B23989E294E051
:100FD0000E94B23982E294E00E94B2398BE194E03F
:100FE0000E94B23984E194E00E94B2398DE094E02D
:100FF0000E94B23986E094E00E94B2398FEF93E00C
:101000000E94B23988EF93E00E94B23981EF93E0F9
:101010000E94B2398AEE93E00E94B23983EE93E0E7
:101020000E94B2398CED93E00E94B23985ED93E0D5
:101030000E94B2398EEC93E00E94B23987EC93E0C3
:101040000E94B23980EC93E00E94B23986EB92E0C4
:101050000E94B23989EB93E00E94B23982EB93E0AF
:101060000E94B2398BEA93E00E94B23984EA93E09D
:101070000E94B2398DE993E00E94B23986E993E08B
:101080000E94B2398FE893E00E94B23988E893E079
:101090000E94B23981E893E00E94B2398AE793E076
:1010A0000E94B23983E793E00E94B2398CE693E064
:1010B0000E94B23985E693E00E94B23980E992E05D
:1010C0000E94B2398EE593E00E94B2391F910F91D0
:1010D000FF90EF90089580E090E06FEF7FEF0E9427
:1010E0002506089581E090E06FEF7FEF0E942506CE
:1010F0000895CF92DF92EF92FF920F931F93CF93B9
:10110000DF936C01EE24EA94FE2C8701C0E0D0E06E
:101110000CC0C601BE010E94E436482FC801B701C9
:101120000E94E0057B018C012196F6018481958166
:10113000C817D90770F3A8019701209530954095FD
:101140005095B901CA01DF91CF911F910F91FF9086
:10115000EF90DF90CF9008950F931F9384E090E07D
:101160000E94782D8C010E94FF2D2DB73EB7201BC9
:10117000310BC9011F910F9108950E94AC089C0189
:101180008091AB029091AC0228173907D1F03093CF
:10119000AC022093AB028AE295E06CE673E00E9419
:1011A00014366091AB027091AC028AE295E04AE09D
:1011B00050E00E94D2348AE295E067EC73E00E942E
:1011C000473608958AE295E06DE973E00E9447365C
:1011D00008958AE295E066E973E00E944736089533
:1011E000AF92BF92CF92DF92EF92FF920F931F9335
:1011F0007B018C01CA01B9010E94763B5B016C0145
:10120000C801B701A80197010E94763B9B01AC0180
:10121000C601B5010E94BE390E94DD3B1F910F91AE
:10122000FF90EF90DF90CF90BF90AF900895AF9276
:10123000BF92CF92DF92EF92FF920F931F937B01A9
:101240008C0159016A0160919F027091A002809106
:10125000A1029091A2020E94C23AA80197010E94A5
:10126000BE399B01AC010E94763B7B018C01C6011B
:10127000B501A60195010E94763B9B01AC01C80116
:10128000B7010E94BF390E94DD3B1F910F91FF9073
:10129000EF90DF90CF90BF90AF900895AF92BF9244
:1012A000CF92DF92EF92FF920F931F937B018C01FD
:1012B00059016A01A80197010E94763B7B018C01CC
:1012C000C601B501A60195010E94763B9B01AC01C8
:1012D000C801B7010E94BF390E94DD3B1F910F91E9
:1012E000FF90EF90DF90CF90BF90AF9008952F9236
:1012F0003F924F925F926F927F928F929F92AF92A6
:10130000BF92CF92DF92EF92FF920F931F93DF93E2
:10131000CF9300D000D0CDB7DEB769837A838B83BB
:101320009C8359016A011701280161157105810526
:10133000910559F40F2EF0E0EF2EF0E0FF2EF0E0D3
:101340000F2FF0E01F2FF02DA4C0CA01B9010E9499
:10135000763B7B018C01C601B50120E030E040E026
:1013600050E00E94233A882324F417FB109517F9C4
:101370001095C201B101A20191010E94BF393B0148
:101380004C01C801B701A40193010E94273A7B01D7
:101390008C0169817A818B819C810E94C23A9B0178
:1013A000AC01C801B7010E94233A8823B4F5C601F5
:1013B000B50120E030E040E050E00E94233A88236D
:1013C00029F4C401B3010E94DD3B0DC0C201B1018B
:1013D000A60195010E94273A9B01AC015F77C601E7
:1013E000B5010E94BF397B018C01D0902702C090CB
:1013F0002802B0902902A0902A022D2D3C2D4B2DC1
:101400005A2D0E94723B18160CF043C08D2D9C2D56
:10141000AB2DBA2D7C018D013CC0C601B50120E089
:1014200030E040E050E00E94233A882359F4C401A0
:10143000B3010E94DD3B7B018C0117FB109517F96E
:1014400010950FC0C201B101A60195010E94273A73
:101450009B01AC015F77C601B5010E94BE397B01DB
:101460008C018091270290912802A0912902B091CD
:101470002A025C016D01D7FAD094D7F8D094C80144
:10148000B701A60195010E94233A882314F486012E
:101490007501B701C8010F900F900F900F90CF9179
:1014A000DF911F910F91FF90EF90DF90CF90BF9051
:1014B000AF909F908F907F906F905F904F903F90F4
:1014C0002F900895809132028823C1F18AE295E03D
:1014D00062EB73E00E94143686ED92E00E943B239B
:1014E0002091260230E040E050E00E94A23C8AE2D7
:1014F00095E0BA01A9012AE030E00E947E348AE238
:1015000095E060EC73E00E9414368AE193E00E945B
:101510003B232091260230E040E050E00E94A23CB4
:101520008AE295E0BA01A9012AE030E00E947E3407
:101530008AE295E067EC73E00E9447360895CF9306
:10154000DF93EC01AB01662757FD6095762F0E9473
:10155000D22407C080913302882319F0CE010E9463
:101560002029CE010E942B2361157105810591056B
:1015700089F70E94B92F6093AE027093AF028093F7
:10158000B0029093B102DF91CF910895EF92FF9254
:101590000F931F938091A7029091A802A091A90296
:1015A000B091AA020097A105B10509F040C0609171
:1015B0009F027091A0028091A1029091A2020E94CC
:1015C000C23A7B018C016091A3027091A4028091C8
:1015D000A5029091A6020E94C23A9B01AC01C801EB
:1015E000B7010E944E0920E030E040E05FE30E9436
:1015F000BF390E948F3A6093A7027093A80280932C
:10160000A9029093AA028AE295E068EA70E00E943B
:1016100068334091A7025091A8026091A90270918D
:10162000AA028AE295E02AE030E00E94BE3460918E
:10163000A7027091A8028091A9029091AA021F911D
:101640000F91FF90EF9008952F923F924F925F92EB
:101650006F927F928F929F92AF92BF92CF92DF92C2
:10166000EF92FF920F931F937B018C0159016A0146
:101670000E94B92F6093AE027093AF028093B002C4
:101680009093B10286ED92E00E9423261B012C016B
:101690008AE193E00E9423263B014C0186ED92E013
:1016A00040E050E060E070E00E949E258AE193E017
:1016B00040E050E060E070E00E949E25C801B70164
:1016C0000E94C23A0E948F3AAB01BC0186ED92E0C3
:1016D0000E94C024C601B5010E94C23A0E948F3AFE
:1016E000AB01BC018AE193E00E94C02480912F02EB
:1016F000882309F042C086ED92E00E94232620E074
:1017000030E040E050E00E94233A882324F457FA66
:10171000509457F850948AE193E00E94232620E0E9
:1017200030E040E050E00E94233A882324F497FA06
:10173000909497F8909486ED92E0B201A1010E94F6
:101740009E258AE193E0B401A3010E949E2515C065
:1017500080912F02882349F086ED92E00E94202993
:101760008AE193E00E94202908C086ED92E00E9461
:10177000FC288AE193E00E94FC2886ED92E00E941A
:101780002B23611571058105910549F48AE193E0E8
:101790000E942B23611571058105910529F0809127
:1017A0003302882351F3D4CF0E94620A1F910F9114
:1017B000FF90EF90DF90CF90BF90AF909F908F9071
:1017C0007F906F905F904F903F902F9008958F92F1
:1017D0009F92AF92BF92CF92DF92EF92FF920F93C0
:1017E0001F93CF93DF935C016B01EA014901E11480
:1017F000F104C9F48AE295E06FEB70E00E94AB332C
:1018000080913F02882331F0CE0162E070E00E94B7
:101810006D3C2BC0CE0162E070E00E946D3C709583
:1018200061957F4F22C080913F02E016F106A1F43E
:10183000882331F0CA0162E070E00E946D3C08C06C
:10184000CA0162E070E00E946D3C709561957F4F27
:10185000C6010E949F0A1AC0882319F0CB01BA0161
:1018600005C066277727641B750BC6010E949F0A77
:10187000C501B4010E949F0A80913F02882319F09C
:1018800010923F0203C081E080933F02DF91CF912D
:101890001F910F91FF90EF90DF90CF90BF90AF908E
:1018A0009F908F9008953F924F925F926F927F9298
:1018B0008F929F92AF92BF92CF92DF92EF92FF9260
:1018C0000F931F93DF93CF93CDB7DEB728970FB653
:1018D000F894DEBF0FBECDBFFC012B014A01322EB2
:1018E000141615060CF08DC0BA010E946D3C3B0128
:1018F000CF01B4010E946D3CAA2797FDA095BA2F95
:10190000BC01CD010E94C23A7B018C01B401882741
:1019100077FD8095982F0E94C23A9B01AC01C801C7
:10192000B7010E94273A69837A838B839C830F2EA9
:10193000F0E0AF2EF0E0BF2EF0E0CF2EF0E0DF2E93
:10194000F02D18861F82C30101969E838D83C601E8
:10195000B50129813A814B815C810E94BF395B01CD
:101960006C0120E030E040E85FE30E94723B87FFBB
:1019700002C0F3010CC0C601B50120E030E040E830
:101980005FE30E94BE395B016C01ED81FE8192E054
:10199000391629F486ED92E06AE173E007C0A3E00E
:1019A0003A1639F48AE193E066ED72E0A2019F01F4
:1019B00018C0B4E03B1649F4222733272E1B3F0BF7
:1019C00086ED92E06AE173E00BC081E0381671F4B5
:1019D000222733272E1B3F0B8AE193E066ED72E04E
:1019E000A2018401EF80F8840E94E70B0E94620A42
:1019F000AF81B8851196B887AF838A169B060CF025
:101A0000A6CF28960FB6F894DEBF0FBECDBFCF91FC
:101A1000DF911F910F91FF90EF90DF90CF90BF90DB
:101A2000AF909F908F907F906F905F904F903F907E
:101A30000895EF92FF920F931F937C010AE215E045
:101A4000C80164ED72E00E946833C801B7010E94CA
:101A50001436C80166EB72E00E94AB331F910F9100
:101A6000FF90EF9008952F923F924F925F926F9266
:101A70007F928F929F92AF92BF92CF92DF92EF921E
:101A8000FF920F931F93DF93CF9300D000D0CDB779
:101A9000DEB73B014C0159016A01FA82E982C801B3
:101AA00062E070E00E946D3C882777FD8095982F5A
:101AB000661A770A880A990AA61AB70AC80AD90ABA
:101AC0001C821B821801442437FC4094542C2EC0E5
:101AD00060E070E080E090E0A20191010E94C636D3
:101AE0007B018C0160E070E080E090E0A201910158
:101AF0000E94C6369B01AC010027F7FC0095102F11
:101B0000E60CF71C081D191D442737FD4095542F7E
:101B10002A0D3B1D4C1D5D1DC801B7010E94240B01
:101B20002B813C812F5F3F4F3C832B838B819C819A
:101B3000E981FA81E817F9075CF60F900F900F9092
:101B40000F90CF91DF911F910F91FF90EF90DF9059
:101B5000CF90BF90AF909F908F907F906F905F904D
:101B60004F903F902F9008958AE892E090934D0215
:101B700080934C0290934F0280934E028FE590E049
:101B8000909349028093480280E991E090934B0240
:101B900080934A0281E090E090934702809346024E
:101BA00064EF71E080E090E00E94ED2F0895AF9225
:101BB000BF92CF92DF92EF92FF920F931F93CF933A
:101BC000DF93EC015B016A018CE892E069E070E070
:101BD0000E94C92ACA15DB059CF476010027F7FC90
:101BE0000095102F8CE892E0BE010E94E229C80106
:101BF000B7010E94ED2F2196AC16BD069CF712C0CE
:101C000076010027F7FC0095102F8CE892E0BE01CA
:101C10000E94E229C801B7010E94ED2F2197CA1541
:101C2000DB059CF78CE892E00E947629DF91CF914A
:101C30001F910F91FF90EF90DF90CF90BF90AF90EA
:101C40000895EF92FF920F931F93B6EDEB2EB2E043
:101C5000FB2EC7010E943B23AB01BC014C5F5F4FD1
:101C60006F4F7F4FC7010E9451290AE113E0C8015D
:101C70000E943B23AB01BC014C5F5F4F6F4F7F4F16
:101C8000C8010E945129C7010E943B23AB01BC013E
:101C90004450504060407040C7010E945129C80123
:101CA0000E943B23AB01BC01445050406040704057
:101CB000C8010E9451291F910F91FF90EF90089544
:101CC0002F923F924F925F926F927F928F929F924C
:101CD000AF92BF92CF92DF92EF92FF920F931F933A
:101CE000DF93CF93CDB7DEB7E0970FB6F894DEBFA2
:101CF0000FBECDBF2B013C019CA28BA20E9481058F
:101D00006B8F7C8F8D8F9E8FA30192010E94F008B4
:101D10006F8B788F898F9A8FC801B701A6019501C3
:101D20000E9481055B016C01A80197010E94F008E7
:101D30007B018C01C601B50120E030E040EA51E4AE
:101D40000E94723B18160CF014C260919F027091B1
:101D5000A0028091A1029091A20264517040804043
:101D600090400E94C23A6F8F78A389A39AA3C601BC
:101D7000B5012F8D38A149A15AA10E94233A882389
:101D80000CF0F7C1C801B70120E030E040EA51E4AF
:101D90000E94723B18160CF0ECC16091A302709186
:101DA000A4028091A5029091A602645170408040E7
:101DB00090400E94C23A2B013C01C801B701A30127
:101DC00092010E94233A88230CF0D3C16B8D7C8D45
:101DD0008D8D9E8D20E030E040EA51E40E94723B00
:101DE00018160CF0C6C16B8D7C8D8D8D9E8D2F8D40
:101DF00038A149A15AA10E94233A88230CF0B9C105
:101E00006F89788D898D9A8D20E030E040EA51E429
:101E10000E94723B18160CF0ACC16F89788D898DC9
:101E20009A8DA30192010E94233A88230CF0A1C14C
:101E300010923202C601B5012B8D3C8D4D8D5E8D09
:101E40000E94BE391B012C01C801B7012F89388DB2
:101E5000498D5A8D0E94BE393B014C01C201B1012E
:101E600020E030E040E050E00E94723B18161CF485
:101E70008201710106C08201710117FB109517F9EB
:101E80001095C401B30120E030E040E050E00E9432
:101E9000723B18161CF4A401930103C0A401930122
:101EA0005058C801B7010E94723B18169CF021E0FF
:101EB00030E03E8B2D8BD401C301B0588DA79EA777
:101EC000AFA7B8ABABA1BCA15D01CC24B7FCC0945B
:101ED000DC2C4EC021E030E03E8B2D8BD201C101C5
:101EE000B05889A79AA7ABA7BCA7ABA1BCA15D01BD
:101EF000CC24B7FCC094DC2C06C02D893E892F5F12
:101F00003F4F3E8B2D8BC201B10120E030E040E01D
:101F100050E00E94723B18161CF48201710104C04B
:101F2000E9A4FAA40BA51CA5AD89BE89BD0188272B
:101F300077FD8095982F0E94C23A9B01AC01C801A1
:101F4000B7010E94273A7B018C01C601B5010E94AE
:101F5000C23A9B01AC01C801B7010E94723B18163E
:101F600064F234C02D893E892F5F3F4F3E8B2D8B0D
:101F7000C401B30120E030E040E050E00E94723B39
:101F800018161CF48401730104C0EDA4FEA40FA56F
:101F900018A9AD89BE89BD01882777FD8095982F46
:101FA0000E94C23A9B01AC01C801B7010E94273AC6
:101FB0007B018C01C601B5010E94C23A9B01AC01B4
:101FC000C801B7010E94723B181664F22D893E8940
:101FD0005901CC24B7FCC094DC2CC601B5010E9489
:101FE000C23A7B018C01C201B101A80197010E9494
:101FF000273A6D837E838F839887C401B301A8013C
:1020000097010E94273A69837A838B839C8310927D
:102010002F02198A1A8A1B8A1C8A19861A861B861D
:102020001C86ADA2BEA2CFA2D8A66B8D7C8D8D8D55
:102030009E8D2D813E814F8158850E94BF396B8FC7
:102040007C8F8D8F9E8F6F89788D898D9A8D298158
:102050003A814B815C810E94BF396F8B788F898F69
:102060009A8F6B8D7C8D8D8D9E8D2F89388D498DAE
:102070005A8D0E944E096D877E878F87988B6B8D56
:102080007C8D8D8D9E8D2F89388D498D5A8D0E9426
:1020900017091B012C0169847A848B849C848DA18F
:1020A0009EA1AFA1B8A5680E791E8A1E9B1E6989E4
:1020B0007A898B899C890E94C23A5B016C0160918C
:1020C0002B0270912C0280912D0290912E0220E023
:1020D00030E040E850E40E94763B7B018C01C40173
:1020E000B301A60195010E9477090E948F3A698B7E
:1020F0007A8B8B8B9C8B0E94C23A7B018C0186ED84
:1021000092E0B801A7010E949E258AE193E0B80100
:10211000A7010E949E256D857E858F8598890E94E6
:102120008F3A7B018C01C201B1010E948F3A9B0161
:10213000AC01C801B7010E94240B89859A85AB8543
:10214000BC850197A109B10989879A87AB87BC87AC
:102150008D899E89A985BA858A0F9B1F892B09F0D5
:1021600064CF81E08093320280932F020E94620A42
:1021700006C08AE295E062EE71E00E9401360E949C
:10218000BD08E0960FB6F894DEBF0FBECDBFCF916D
:10219000DF911F910F91FF90EF90DF90CF90BF9054
:1021A000AF909F908F907F906F905F904F903F90F7
:1021B0002F9008950F931F93AB01BC0140932B0206
:1021C00050932C0260932D0270932E0286ED92E0C4
:1021D0000E942C2840912B0250912C0260912D02DC
:1021E00070912E028AE193E00E942C280AE215E009
:1021F000C80168E271E00E94683340912B0250915F
:102200002C0260912D0270912E02C80122E030E074
:102210000E94EE351F910F910895CF92DF92EF92B9
:10222000FF920F931F937C018B0186E9C82E84E0F7
:10223000D82EC601B701F80140810E94952B089461
:10224000E11CF11CC601B701F80141810E94952BE8
:1022500082E090E01F910F91FF90EF90DF90CF9080
:1022600008950F931F93AB01BC0140932702509335
:1022700028026093290270932A0286ED92E00E9460
:1022800048254091270250912802609129027091BF
:102290002A028AE193E00E9448250AE215E0C8017B
:1022A0006BE371E00E94683340912702509128024D
:1022B0006091290270912A02C80122E030E00E9458
:1022C000EE351F910F910895CF92DF92EF92FF921A
:1022D0000F931F937C018B0196E9C92E94E0D92EB0
:1022E000C601B7010E948E2BF80180830894E11C7F
:1022F000F11CC601B7010E948E2BF801818382E098
:1023000090E01F910F91FF90EF90DF90CF90089594
:102310008AE290E064E472E00E94641180914402D9
:102320009091450297FF06C08AE590E090934502A0
:10233000809344028AE295E069E472E00E94683387
:1023400060914402709145028AE295E04AE050E0D3
:102350000E94E5348CE290E062E472E00E94641135
:10236000809142029091430297FF06C084EB90E077
:1023700090934302809342028AE295E06AE372E01E
:102380000E94683360914202709143028AE295E0B4
:102390004AE050E00E94E534089580E090E066E372
:1023A00072E00E94641180913602909137021816F3
:1023B000190644F080914C0290914D02909337029F
:1023C000809336028AE295E060EA72E00E94683308
:1023D00060913602709137028AE295E04AE050E05F
:1023E0000E94E53482E090E068E372E00E946411AC
:1023F00080913802909139021816190644F08091A4
:102400004E0290914F0290933902809338028AE2F3
:1024100095E069E872E00E9468336091380270913B
:1024200039028AE295E04AE050E00E94E5340895DE
:10243000EF92FF920F931F93CF93DF93AC01EB01C9
:1024400024E0E22EF12CE60EF71E8A010F5F1F4FEB
:1024500086E994E0BA010E948E2B8993A801CE15DB
:10246000DF0599F784E090E0DF91CF911F910F9104
:10247000FF90EF90089586E190E067E272E00E949D
:102480001812609127027091280280912902909180
:102490002A020E948F3A1616170664F080E090E038
:1024A000A8E4B4E48093270290932802A093290221
:1024B000B0932A028AE190E06BE272E00E94181267
:1024C00060912B0270912C0280912D0290912E022E
:1024D0000E948F3A1616170664F080E090E0A8E498
:1024E000B4E480932B0290932C02A0932D02B0931E
:1024F0002E0208958EE090E062E272E00E941812CF
:102500006091220270912302809124029091250211
:1025100020E030E040E85FE30E94233A882394F40F
:102520006091480270914902882777FD8095982F25
:102530000E94C23A60932202709323028093240285
:10254000909325028AE295E066E772E00E94683384
:102550004091220250912302609124027091250241
:102560008AE295E022E030E00E94EE3582E190E0E0
:1025700060E272E00E946411809120029091210239
:102580001816190644F080914A0290914B029093DC
:102590002102809320028AE295E06AE572E00E94BF
:1025A000683360912002709121028AE295E04AE04E
:1025B00050E00E94E534089586E994E064E170E01B
:1025C0000E948E2B80932602882321F4809146025C
:1025D000809326028AE295E067E072E00E94683309
:1025E0008AE295E0609126024AE050E00E94603461
:1025F0000895BF92CF92DF92EF92FF920F931F93B5
:10260000DF93CF93CDB7DEB72E970FB6F894DEBF2A
:102610000FBECDBF8E010F5F1F4FC80165E071E097
:102620000E94FF3844E0E42EF12C38E0C32ED12C78
:10263000CC0EDD1EB12E86E994E0B7010E948E2BF0
:10264000182FC601602F7B2D0E94A739C601612F6C
:102650000E94CD38BC01802F9B2D0E948539C60178
:102660000E94B8390894E11CF11C8CE0E816F104D2
:1026700011F7802F9B2D60E070E00E94F536FC0181
:102680008081882331F4802F9B2D65E673E00E94C2
:1026900085391092A7021092A8021092A9021092F6
:1026A000AA0280E992E08E010F5F1F4FB8010E94DD
:1026B00085398AE295E065E272E00E9468338AE239
:1026C00095E060E972E00E944736C8010E94B23985
:1026D0002E960FB6F894DEBF0FBECDBFCF91DF911F
:1026E0001F910F91FF90EF90DF90CF90BF900895D2
:1026F000AF92BF92CF92DF92EF92FF920F931F9310
:102700000E94CD110E947A120E94DC120E94F912DE
:102710000E9488110E943B128EE190E06BE372E010
:102720000E94181260913B0270913C0280913D0220
:1027300090913E0227E137EB41ED58E30E94233AA6
:10274000882364F48DEC9CECACE4BFE380933B0203
:1027500090933C02A0933D02B0933E02A0902202CF
:10276000B0902302C0902402D090250260912602EE
:1027700070E080E090E02091200230912102442717
:1027800037FD4095542F0E94423C0E94C23A7B0183
:102790008C01C601B501A80197010E94273A6093F8
:1027A0009702709398028093990290939A02C801BD
:1027B000B701A60195010E94273A60939B0270938E
:1027C0009C0280939D0290939E028AE295E064EFC2
:1027D00071E00E9468334091970250919802609195
:1027E000990270919A028AE295E022E030E00E941C
:1027F000EB358AE295E064EE71E00E946833409127
:102800009B0250919C0260919D0270919E028AE20F
:1028100095E022E030E00E94EB358AE295E062EE3E
:1028200071E00E9468338AE295E00E948B336091E8
:10283000360270913702882777FD8095982F0E9485
:10284000C23A20919B0230919C0240919D0250918E
:102850009E020E94763B0E948F3A60939F02709383
:10286000A0028093A1029093A2028AE295E066EC16
:1028700071E00E94683340919F025091A0026091E4
:10288000A1027091A2028AE295E02AE030E00E9463
:102890007E348AE295E064EC71E00E9468338AE25B
:1028A00095E00E948B33609138027091390288273D
:1028B00077FD8095982F0E94C23A20919B0230911B
:1028C0009C0240919D0250919E020E94763B0E9484
:1028D0008F3A6093A3027093A4028093A502909311
:1028E000A6028AE295E067EA71E00E9468334091AF
:1028F000A3025091A4026091A5027091A6028AE2FF
:1029000095E02AE030E00E947E348AE295E065EAB4
:1029100071E00E9468338AE295E00E948B33109246
:10292000A7021092A8021092A9021092AA021F9167
:102930000F91FF90EF90DF90CF90BF90AF900895F0
:10294000EF92FF920F931F93DF93CF93CDB7DEB734
:1029500027970FB6F894DEBF0FBECDBF7E01089457
:10296000E11CF11CC7016AE773E00E949C39C701B2
:1029700065E673E00E94F9378823A1F400E010E0D7
:10298000C701B8010E94F536FC010C5F1F4F86E9B4
:1029900094E0B80140810E94952B0350104008300C
:1029A000110571F70E947813CE0101960E94B23989
:1029B00027960FB6F894DEBF0FBECDBFCF91DF9143
:1029C0001F910F91FF90EF900895CF93DF93C0E098
:1029D000D0E086E994E0BE0140E00E94952B21966C
:1029E000C233D105B1F70E947813DF91CF910895DA
:1029F000CF93DF93C0E0D0E08AE295E0BE014AE0E9
:102A000050E00E94D2348AE295E068E072E00E94D1
:102A1000043586E994E0BE010E948E2B682F8AE27D
:102A200095E04AE050E00E9460342196C832D1051A
:102A300019F7DF91CF910895CF92DF92EF92FF9235
:102A40000F931F930E94F8140AE215E0C8016DE984
:102A500071E00E946833C80160E972E00E94143698
:102A600067ECE62E63E0F62EC801B7010E944736F8
:102A7000C80165E971E00E94683360913602709187
:102A80003702C8014AE050E00E94D23450ECC52E13
:102A900053E0D52EC801B6010E9414366091380269
:102AA00070913902C8014AE050E00E94D234C80156
:102AB000B7010E944736C80169E871E00E94683397
:102AC00040912202509123026091240270912502CC
:102AD000C80122E030E00E94EB35C801B7010E9436
:102AE0004736C8016AE771E00E94683360912002AE
:102AF00070912102C8014AE050E00E94D234C8011E
:102B0000B7010E944736C80168E671E00E94683349
:102B1000C801609126024AE050E00E944E34C8018C
:102B2000B7010E944736C80160E671E00E94683331
:102B30006091440270914502C8014AE050E00E9451
:102B4000D234C801B6010E941436609142027091DD
:102B50004302C8014AE050E00E94D234C801B701E4
:102B60000E944736C80167E571E00E9468334091D2
:102B70002702509128026091290270912A02C8010F
:102B800022E030E00E94EB35C801B6010E94143605
:102B900040912B0250912C0260912D0270912E02D7
:102BA000C80122E030E00E94EB35C801B7010E9465
:102BB00047361F910F91FF90EF90DF90CF900895CF
:102BC0008AEC92E062E043E00E94F42B08958AECE4
:102BD00092E061E043E00E94F42B08958EEB92E0D6
:102BE00062E043E00E94F42B08958EEB92E061E0F6
:102BF00043E00E94F42B0895EF92FF920F931F93EE
:102C0000DF93CF93CDB7DEB7FC01EDB6FEB64481BE
:102C100055814F5F5F4F8DB79EB7841B950B0FB6E5
:102C2000F8949EBF0FBE8DBF0DB71EB70F5F1F4F2D
:102C3000CF01B80120E030E00E947737C8010E9440
:102C40006A020FB6F894FEBE0FBEEDBECF91DF91C3
:102C50001F910F91FF90EF9008954F925F926F92A6
:102C60007F928F929F92AF92BF92CF92DF92EF921C
:102C7000FF920F931F93DF93CF93CDB7DEB72E97BD
:102C80000FB6F894DEBF0FBECDBF6E010894C11C15
:102C9000D11CC6016AE773E00E949C39C6010E94FC
:102CA000FC157B018C016091260270E0882777FD7E
:102CB0008095982F0E94C23A9B01AC01C801B701D0
:102CC0000E94763B2B013C01C6010E94B23978E09C
:102CD000872E912C8C0E9D1EC40161E873E00E942A
:102CE0009C39C4010E94FC157B018C016091260275
:102CF00070E0882777FD8095982F0E94C23A9B014B
:102D0000AC01C801B7010E94763B5B016C01C401B4
:102D10000E94B239C301B2010E948F3A7B018C013B
:102D2000C601B5010E948F3A9B01AC01C801B701F1
:102D30000E94240B2E960FB6F894DEBF0FBECDBFB7
:102D4000CF91DF911F910F91FF90EF90DF90CF9087
:102D5000BF90AF909F908F907F906F905F904F90BB
:102D600008950F931F93DF93CF93CDB7DEB72797C7
:102D70000FB6F894DEBF0FBECDBF8E010F5F1F4FA1
:102D8000C8016AE773E00E949C39C8010E94FC15E3
:102D900060933B0270933C0280933D0290933E020D
:102DA000C8010E94B2390AE215E0C80162E171E08F
:102DB0000E94683340913B0250913C0260913D0279
:102DC00070913E02C80122E030E00E94EB35C8015C
:102DD0006FE071E00E946833C8010E948B33279630
:102DE0000FB6F894DEBF0FBECDBFCF91DF911F911C
:102DF0000F910895EF92FF920F931F93DF93CF935C
:102E0000CDB7DEB72B970FB6F894DEBF0FBECDBFA0
:102E10008E010B5F1F4FC8016AE773E00E949C3967
:102E2000C8010E94FC1569837A838B839C83C80147
:102E30000E94B2397E010894E11CF11C6EE070E042
:102E40008B010F5F1F4FF70141917F0186E994E0ED
:102E50000E94952BB8010231110591F70E94781359
:102E60002B960FB6F894DEBF0FBECDBFCF91DF918A
:102E70001F910F91FF90EF900895EF92FF920F93A3
:102E80001F93DF93CF93CDB7DEB7FC01EDB6FEB64F
:102E9000448155814F5F5F4F8DB79EB7841B950B63
:102EA0000FB6F8949EBF0FBE8DBF0DB71EB70F5F54
:102EB0001F4FCF01B80120E030E00E947737C801F2
:102EC0000E946E020FB6F894FEBE0FBEEDBECF910B
:102ED000DF911F910F91FF90EF9008953F924F92D5
:102EE0005F926F927F928F929F92AF92BF92CF929A
:102EF000DF92EF92FF920F931F93DF93CF93CDB7A3
:102F0000DEB7A4970FB6F894DEBF0FBECDBF8E011B
:102F10000F5F1F4FC8016AE773E00E949C39C80128
:102F20000E943D17AA2797FDA095BA2F209126024F
:102F300030E040E050E0BC01CD010E94423C5B012A
:102F4000C8010E94B2398E01085F1F4FC80161E8B5
:102F500073E00E949C39C8010E94FC15F62EE72EF2
:102F6000D82EC92EC8010E94B2398E01015F1F4FB1
:102F7000C80168E873E00E949C39C8010E94FC15F2
:102F800069A37AA38BA39CA3C8010E94B2398E01C6
:102F90000A5E1F4FC8016FE873E00E949C39C801A8
:102FA0000E94FC152B013C01C8010E94B2393090EF
:102FB0003A0282E080933A0280913B0290913C0277
:102FC000A0913D02B0913E028D8F9E8FAF8FB8A32E
:102FD0002F2D3E2D4D2D5C2DC901DA016C017D0197
:102FE000882499241EC00894811C911CC0923B0225
:102FF000D0923C02E0923D02F0923E02C701B6013F
:10300000A5010E94E704AC01C501B50122E00E94C0
:10301000530CC701B601A30192010E94BF396B0195
:103020007C01C701B60129A13AA14BA15CA10E9474
:10303000233A1816C4F68D8D9E8DAF8DB8A180935E
:103040003B0290933C02A0933D02B0933E02EE24DB
:10305000FF24EA18FB088AE193E0B7010E949F0A67
:10306000C50162E070E00E946D3C709561957F4FF4
:103070003B01C50162E070E00E946D3C6B0101E024
:1030800010E011C08AE193E0B3010E949F0A86ED2F
:1030900092E0B7010E949F0A8AE193E0B6010E9484
:1030A0009F0A0F5F1F4F8016910664F78D8D9E8DCE
:1030B000AF8DB8A180933B0290933C02A0933D0258
:1030C000B0933E0230923A02A4960FB6F894DEBF57
:1030D0000FBECDBFCF91DF911F910F91FF90EF9069
:1030E000DF90CF90BF90AF909F908F907F906F9028
:1030F0005F904F903F900895EF92FF920F931F9330
:10310000DF93CF93CDB7DEB727970FB6F894DEBF26
:103110000FBECDBF8091AD0290918F02823018F129
:10312000992329F0E0904202F090430204C0E0901D
:103130004402F09045028E010F5F1F4FC8016AE7FD
:1031400073E00E949C39C8010E943D17909345028C
:1031500080934402C8010E94B23960914402709188
:103160004502C7010AC0913061F460914402709138
:103170004502809142029091430243E050E00E9458
:10318000D70D10928F0227960FB6F894DEBF0FBEB0
:10319000CDBFCF91DF911F910F91FF90EF900895D8
:1031A000EF92FF920F931F93DF93CF93CDB7DEB7CC
:1031B00027970FB6F894DEBF0FBECDBF8091AD024A
:1031C00090918F02823018F1992329F0E090420209
:1031D000F090430204C0E0904402F09045028E015A
:1031E0000F5F1F4FC8016AE773E00E949C39C80156
:1031F0000E943D179093430280934202C8010E94AF
:10320000B2396091420270914302C7010AC099230A
:1032100061F4609142027091430280914402909166
:10322000450243E050E00E94D70D81E080938F0279
:1032300027960FB6F894DEBF0FBECDBFCF91DF91BA
:103240001F910F91FF90EF9008952F923F924F9210
:103250005F926F927F928F929F92AF92BF92CF9226
:10326000DF92EF92FF920F931F93DF93CF93CDB72F
:10327000DEB76B970FB6F894DEBF0FBECDBF6E0101
:103280000894C11CD11CC6016AE773E00E949C39F6
:10329000C6010E94FC157B018C016091260270E042
:1032A000882777FD8095982F0E94C23A9B01AC0138
:1032B000C801B7010E94763B3B014C01C6010E9448
:1032C000B2398E01085F1F4FC80161E873E00E94A8
:1032D0009C39C8010E94FC156B017C01B09026024C
:1032E000C8010E94B2398E01015F1F4FC80168E812
:1032F00073E00E949C39C8010E943D179F8B8E8B02
:10330000C8010E94B23986ED92E00E943B23688F8B
:10331000798F8A8F9B8F8AE193E00E943B231B0168
:103320002C01C401B30120E030E040EA51E40E94E6
:10333000233A87FD30C06B2D70E0882777FD80959C
:10334000982F0E94C23A9B01AC01C701B6010E94AE
:10335000763B5B016C0120E030E040EA51E40E94E2
:10336000233A87FD18C00E94C60A0E94C23A9B01F8
:10337000AC01C401B3010E94723B181664F00E94B4
:10338000C60A0E94C23A9B01AC01C601B5010E9467
:10339000723B18163CF48AE295E06FEC70E00E94F4
:1033A000AB3316C0688D798D8A8D9B8D0E94C23A91
:1033B0007B018C01C201B1010E94C23A9B01AC01A8
:1033C000C801B701840173018E889F880E94600E36
:1033D0006B960FB6F894DEBF0FBECDBFCF91DF91D5
:1033E0001F910F91FF90EF90DF90CF90BF90AF9023
:1033F0009F908F907F906F905F904F903F902F9015
:103400000895EF92FF920F931F93DF93CF93CDB761
:10341000DEB72E970FB6F894DEBF0FBECDBF8E017C
:103420000F5F1F4FC8016AE773E00E949C39C80113
:103430000E94FC150E94DA10C8010E94B2398091E6
:10344000AD02833041F58E01085F1F4FC80161E86E
:1034500073E00E949C39C8010E943D177C01C8019D
:103460000E94B23981E0E816F104A9F4EBE2EE2EF5
:10347000E2E0FE2E6AE170E08B010F5F1F4FF70163
:1034800041917F0186E994E00E94952B0E31110550
:1034900011F0B801F1CF2E960FB6F894DEBF0FBE33
:1034A000CDBFCF91DF911F910F91FF90EF900895C5
:1034B000EF92FF920F931F93DF93CF93CDB7DEB7B9
:1034C0002E970FB6F894DEBF0FBECDBF8E010F5FF3
:1034D0001F4FC8016AE773E00E949C39C8010E942F
:1034E000FC150E943111C8010E94B2398091AD02D1
:1034F000833041F58E01085F1F4FC80161E873E01A
:103500000E949C39C8010E943D177C01C8010E949D
:10351000B23981E0E816F104A9F4F7E2EF2EF2E007
:10352000FF2E66E170E08B010F5F1F4FF7014191A5
:103530007F0186E994E00E94952B0A31110511F074
:10354000B801F1CF2E960FB6F894DEBF0FBECDBFF7
:10355000CF91DF911F910F91FF90EF9008950F93FE
:103560001F93DF93CF93CDB7DEB762970FB6F89472
:10357000DEBF0FBECDBF8E010B5F1F4FC8016AE7D4
:1035800073E00E949C39C8010E943D179A83898389
:10359000C8010E94B2398E01045F1F4FC80161E863
:1035A00073E00E949C39C8010E943D179C838B8365
:1035B000C8010E94B2398AE295E060E571E00E949C
:1035C000683369817A818AE295E04AE050E00E949E
:1035D000E5348AE295E06BE471E00E9468336B8128
:1035E0007C818AE295E04AE050E00E94E5348091D7
:1035F000AD02843089F48AE290E0BE016F5F7F4FB4
:103600000E940D118CE290E0BE016D5F7F4F0E9421
:103610000D110E9488113AC08330C1F569817A8109
:103620008B819C8143E050E00E94D70D68EC70E0F4
:1036300080E090E00E94ED2F6B817C8189819A81EE
:1036400043E050E00E94D70D68EC70E080E090E02D
:103650000E94ED2F69817A818B819C8143E050E04B
:103660000E94D70D68EC70E080E090E00E94ED2FA2
:103670006B817C8189819A8143E050E00E94D70D63
:1036800068EC70E080E090E00E94ED2F62960FB64B
:10369000F894DEBF0FBECDBFCF91DF911F910F9188
:1036A00008950F931F93DF93CF93CDB7DEB729977C
:1036B0000FB6F894DEBF0FBECDBF8E010D5F1F4F5A
:1036C000C8016AE773E00E949C39C8010E943D1757
:1036D0009A83898384E190E0BE016F5F7F4F0E94EF
:1036E0000D11C8010E94B2390E94781329960FB6B5
:1036F000F894DEBF0FBECDBFCF91DF911F910F9128
:1037000008950F931F93DF93CF93CDB7DEB729971B
:103710000FB6F894DEBF0FBECDBF8E010D5F1F4FF9
:10372000C8016AE773E00E949C39C8010E943D17F6
:103730009A838983C8010E94B23982E190E0BE0178
:103740006F5F7F4F0E940D110E94781329960FB66C
:10375000F894DEBF0FBECDBFCF91DF911F910F91C7
:1037600008950F931F93DF93CF93CDB7DEB7649780
:103770000FB6F894DEBF0FBECDBF8E01095F1F4F9D
:10378000C8016AE773E00E949C39C8010E943D1796
:103790009A838983C8010E94B2398E01025F1F4F4C
:1037A000C80161E873E00E949C39C8010E943D177E
:1037B0009C838B83C8010E94B23989819A819E8340
:1037C0008D8380E090E0BE016B5F7F4F0E946411AB
:1037D00029813A818D819E818217930751F02B3088
:1037E00031053CF080E090E0BE016F5F7F4F0E94AA
:1037F0000D1182E090E0BE016B5F7F4F0E9464116B
:103800002B813C818D819E818217930751F02B3053
:1038100031053CF082E090E0BE016D5F7F4F0E9479
:103820000D110E94CD1164960FB6F894DEBF0FBE45
:10383000CDBFCF91DF911F910F9108950F931F93EB
:10384000DF93CF93CDB7DEB72E970FB6F894DEBFD8
:103850000FBECDBF8E010F5F1F4FC8016AE773E037
:103860000E949C39C8010E943D1780933A02C8010A
:103870000E94B2398E01085F1F4FC80161E873E0F2
:103880000E949C39C8010E943D1790934102809389
:103890004002C8010E94B2392E960FB6F894DEBFDE
:1038A0000FBECDBFCF91DF911F910F910895EF9281
:1038B000FF920F931F93DF93CF93CDB7DEB7FC0139
:1038C000EDB6FEB6448155814F5F5F4F8DB79EB711
:1038D000841B950B0FB6F8949EBF0FBE8DBF0DB71E
:1038E0001EB70F5F1F4FCF01B80120E030E00E94EC
:1038F0007737C8010E948C020FB6F894FEBE0FBE47
:10390000EDBECF91DF911F910F91FF90EF90089541
:103910002F923F924F925F926F927F928F929F92DF
:10392000AF92BF92CF92DF92EF92FF920F931F93CD
:10393000DF93CF93CDB7DEB7A0970FB6F894DEBF75
:103940000FBECDBF8E010F5F1F4FC8016AE773E046
:103950000E949C39C8010E94571C2091260230E029
:1039600040E050E00E94423C6D8F7E8F8F8F98A385
:10397000C8010E94B2398E01085F1F4FC80161E87B
:1039800073E00E949C39C8010E94571C20912602B6
:1039900030E040E050E00E94423C1B012C01C80195
:1039A0000E94B2398E01015F1F4FC80168E873E0C1
:1039B0000E949C39C8010E943D17AA2797FDA09537
:1039C000BA2F2091260230E040E050E0BC01CD014A
:1039D0000E94423C3B014C015B01C8010E94B2398C
:1039E0008E010A5E1F4FC8016FE873E00E949C3988
:1039F000C8010E943D177C01C8010E94B239609144
:103A00003B0270913C0280913D0290913E02A301E5
:103A10000E94E704AC01C7016FEF70E00E941A0535
:103A20007C01CC24B7FCC094DC2CC601B5010E94FB
:103A3000C23A2DEC3CEC4CE85FE30E94763B0E94DE
:103A40008F3A5B016C016D8D7E8D8F8D98A1A201E7
:103A5000910185010E94330D0E94BD08A0960FB60A
:103A6000F894DEBF0FBECDBFCF91DF911F910F91B4
:103A7000FF90EF90DF90CF90BF90AF909F908F908E
:103A80007F906F905F904F903F902F9008952F926E
:103A90003F924F925F926F927F928F929F92AF92DE
:103AA000BF92CF92DF92EF92FF920F931F93DF931B
:103AB000CF93CDB7DEB7A6970FB6F894DEBF0FBE93
:103AC000CDBF8E010F5F1F4FC8016AE773E00E94F0
:103AD0009C39C8010E94571C2091260230E040E02A
:103AE00050E00E94423C6BA37CA38DA39EA3C8011F
:103AF0000E94B2398E01085F1F4FC80161E873E070
:103B00000E949C39C8010E94571C2091260230E077
:103B100040E050E00E94423C1B012C01C8010E9481
:103B2000B2398E01015F1F4FC80168E873E00E943F
:103B30009C39C8010E943D17AA2797FDA095BA2F6E
:103B40002091260230E040E050E0BC01CD010E940F
:103B5000423C6B017C017AA369A3C8010E94B2397F
:103B60008E010A5E1F4FC8016FE873E00E949C3906
:103B7000C8010E943D1798A38F8FC8010E94B239D7
:103B8000C60162E070E00E946D3C4B01CB01880FE2
:103B9000991F69A07AA0681A790A80913A02813047
:103BA000C1F486ED92E00E943B237B018C018AE107
:103BB00093E00E943B235B016C016BA17CA18DA172
:103BC0009EA1A20191010E9498048093400210924C
:103BD0004102209140023091410222303105F9F436
:103BE0009401442737FD4095542FEBA0FCA00DA174
:103BF0001EA1E21AF30A040B150BC301AA2797FDB5
:103C0000A095BA2FE80EF91E0A1F1B1F6BA07CA0FF
:103C10008DA09EA0620E731E841E951E3DC0233093
:103C20003105C9F49401442737FD4095542F6201B2
:103C30005101A21AB30AC40AD50AC301AA2797FDE3
:103C4000A095BA2FA80EB91ECA1EDB1E220E331E67
:103C5000441E551E32C0C401AA2797FDA095BA2F55
:103C6000A301662757FD6095762F24303105B9F4FE
:103C7000EBA0FCA00DA11EA1E80EF91E0A1F1B1F40
:103C8000E41AF50A060B170B6BA07CA08DA09EA072
:103C9000681A790A8A0A9B0A6201510114C05C0100
:103CA0006D01A20CB31CC41CD51CA41AB50AC60A0B
:103CB000D70A281A390A4A0A5B0AEBA0FCA00DA110
:103CC0001EA13701480160913B0270913C02809136
:103CD0003D0290913E0249A15AA10E94E704AC0125
:103CE0008F8D98A16FEF70E00E941A059E8F8D8FC7
:103CF000C801B701A60195010E94240B8D8D9E8DF0
:103D000002974CF089A19AA1BC014D8D5E8D209146
:103D100040020E94530CC401B301A20191010E9410
:103D2000240BA6960FB6F894DEBF0FBECDBFCF9181
:103D3000DF911F910F91FF90EF90DF90CF90BF9098
:103D4000AF909F908F907F906F905F904F903F903B
:103D50002F9008958F929F92AF92BF92CF92DF9251
:103D6000EF92FF920F931F93DF93CF93CDB7DEB700
:103D70002E970FB6F894DEBF0FBECDBF8E010F5F3A
:103D80001F4FC8016AE773E00E949C39C8010E9476
:103D9000571C2091260230E040E050E00E94423C57
:103DA0004B015C01C8010E94B2398E01085F1F4FB0
:103DB000C80161E873E00E949C39C8010E94571C49
:103DC0002091260230E040E050E00E94423C6B012E
:103DD0007C01C8010E94B23986ED92E0B501A401D0
:103DE0000E9441238AE193E0B701A6010E9441238A
:103DF0000E94210E0E94620A2E960FB6F894DEBF32
:103E00000FBECDBFCF91DF911F910F91FF90EF902B
:103E1000DF90CF90BF90AF909F908F900895CF93F9
:103E2000DF93EC016EEC73E00E943238882319F0C6
:103E30000E942D16BDC0CE0162E274E00E943238AD
:103E4000882319F00E942519B3C0CE0165ED73E0F7
:103E50000E943238882319F00E94B116A9C0CE0101
:103E600063E574E00E943238882319F00E94581AE2
:103E70009FC0CE016AE574E00E943238882319F0B1
:103E80000E94011A95C0CE016AEE73E00E9432389A
:103E9000882319F00E94471D8BC0CE0161EF73E0AB
:103EA0000E943238882319F00E94881C81C0CE01FC
:103EB00068EF73E00E943238882319F00E941E1CBC
:103EC00077C0CE016FEF73E00E943238882319F07B
:103ED0000E94AA1E6DC0CE016DE074E00E943238CF
:103EE000882319F00E946E1763C0CE0164E174E06C
:103EF0000E943238882319F00E947C1859C0CE01E4
:103F00006BE174E00E943238882319F00E94D018C7
:103F10004FC0CE0169E274E00E943238882319F064
:103F20000E94B11B45C0CE0160E374E00E943238AC
:103F3000882319F00E94A0143BC0CE0165E474E010
:103F40000E943238882319F00E94FA1631C0CE013F
:103F50006CE474E00E943238882319F00E94811BBF
:103F600027C0CE0161E674E00E943238882319F040
:103F70000E94511B1DC0CE0168E674E00E943238D9
:103F8000882319F00E94AF1A13C0CE0167E374E0D2
:103F90000E943238882319F00E941C1509C0CE01F6
:103FA0006EE374E00E943238882319F00E94E51411
:103FB00081E0DF91CF910895CF93DF93EC010E94D0
:103FC0000F1F882329F4CE010E94190D0E94E908D1
:103FD000DF91CF9108956F927F928F929F92AF92CF
:103FE000BF92CF92DF92EF92FF920F931F93DF93D6
:103FF000CF93CDB7DEB727970FB6F894DEBF0FBECD
:10400000CDBF4C01FC0164807580AA24BB2400E074
:1040100010E0EE24FF246E010894C11CD11C3DC0A9
:10402000C401B7010E94E4368C32A1F5C601B40187
:10403000A50197010E94323902301105B9F0033011
:1040400011053CF40115110559F001301105C9F4B1
:104050000AC00330110569F00430110591F40CC059
:1040600083E793E00BC08AE793E008C081E893E020
:1040700005C088E893E002C08FE893E0B6010E9493
:10408000853957010894A11CB11C0F5F1F4FC60151
:104090000E94B2390894E11CF11CE614F7040CF4F8
:1040A000BFCF0093AD0227960FB6F894DEBF0FBEC8
:1040B000CDBFCF91DF911F910F91FF90EF90DF90D7
:1040C000CF90BF90AF909F908F907F906F9008950A
:1040D0003F924F925F926F927F928F929F92AF9298
:1040E000BF92CF92DF92EF92FF920F931F93DF93D5
:1040F000CF93CDB7DEB7C655D0400FB6F894DEBF2C
:104100000FBECDBF782E692EAA24BB2484E2882E50
:10411000912C8C0E9D1E19C08AE295E00E9460329F
:10412000182F61E070E080E090E00E94ED2FF40134
:10413000EA0DFB1D10831A3029F48AE295E00E94F3
:1041400089320AC00894A11CB11C8AE295E00E9441
:104150002F321816190604F304E2402E512C4C0E8F
:104160005D1EA40CB51CF5011082872D962DB201A1
:104170000E94FF388E010F5F1F4FC8016BE072E095
:104180000E94FF38872D962DB8010E9469375C0187
:10419000C8010E94B239FFEFAF16FFEFBF0609F466
:1041A0006BC03324339430926F0418E0E12EF12C6D
:1041B000EC0EFD1EA5014F5F5F4FC701672D762DE9
:1041C0000E9479398E01015F1F4FC801B7010E941B
:1041D0009C39C8010E94571C6B017C01C8010E94D8
:1041E000B2398E010A5E1F4FC801672D762D40E05F
:1041F00050E095010E943239872D962DB8010E941A
:104200008539C8010E94B2398E01035E1F4FC80173
:10421000672D762D0E949C39C8010E9479084B01B8
:104220005C01C8010E94B2398C149D04AE04BF0425
:1042300019F43092BD021BC08AE295E06BE073E096
:104240000E9468338AE295E0B2010E9401368AE258
:1042500095E064EF72E00E9468338AE295E0B50170
:10426000A4012AE030E00E94BE341092BD02CE01CB
:1042700008960E94B23904C010926F041092BD02D9
:10428000872D962DCA5ADF4F0FB6F894DEBF0FBEAA
:10429000CDBFCF91DF911F910F91FF90EF90DF90F5
:1042A000CF90BF90AF909F908F907F906F905F90D6
:1042B0004F903F900895AF92BF92CF92DF92EF92CE
:1042C000FF920F931F93DF93CF93CDB7DEB727975E
:1042D0000FB6F894DEBF0FBECDBFB82EA92E0E9438
:1042E000B92F6B010B2D1A2DC80165E071E00E94FA
:1042F000FF387E010894E11CF11C29C00E94B92FEF
:104300006C197D0920913402309135022617370748
:104310002CF40E94E9080E94B92F6B01C7010E948A
:104320006820C801B7010E948539C7010E94B239CF
:1043300080916F04882359F08091BD02882339F45D
:104340000E94E208C80165E071E00E941939F80195
:1043500084819581892B91F20E94B92F0E94B92FF7
:104360006093AE027093AF028093B0029093B1025B
:104370006093B2027093B3028093B4029093B5023B
:104380008B2D9A2D27960FB6F894DEBF0FBECDBFAA
:10439000CF91DF911F910F91FF90EF90DF90CF9021
:1043A000BF90AF900895EF92FF920F931F93DF930A
:1043B000CF93CDB7DEB727970FB6F894DEBF0FBE09
:1043C000CDBF7C0167EC73E00E94A437882371F0B5
:1043D0008E010F5F1F4FC801B7010E949C39C801B1
:1043E0000E94EB1FC8010E94B23981E027960FB6E8
:1043F000F894DEBF0FBECDBFCF91DF911F910F911B
:10440000FF90EF900895CF92DF92FF920F931F934A
:10441000DF93CF93CDB7DEB72E970FB6F894DEBFFC
:104420000FBECDBF6C018E010F5F1F4FC801B601DB
:104430000E949C39C8010E94D321F82EC8010E9415
:10444000B239FF20C1F08E01085F1F4FC80166EB33
:1044500072E00E949C39C8010E94DC1FC8010E94C2
:10446000B239C60165E071E00E9419391092BD02AF
:104470000E94E90811C08AE295E06AEE72E00E94AB
:1044800068338AE295E0B6010E9414368AE295E02C
:104490006CED72E00E94AB331092AD022E960FB617
:1044A000F894DEBF0FBECDBFCF91DF911F910F916A
:1044B000FF90DF90CF900895EF92FF920F931F939C
:1044C000DF93CF93CDB7DEB727970FB6F894DEBF53
:1044D0000FBECDBF8E010F5F1F4FC8010E945B2131
:1044E00096EBE92E92E0F92EC701B8010E948539BA
:1044F000C8010E94B239C7010E94032227960FB655
:10450000F894DEBF0FBECDBFCF91DF911F910F9109
:10451000FF90EF900895AF92BF92CF92DF92EF920B
:10452000FF920F931F930AE215E0C80140E051EE9D
:1045300060E070E00E94A831C80162E173E00E946F
:104540006833C8010E948B330E9478130E94B40D17
:1045500036EDA32E32E0B32E40912702509128026F
:104560006091290270912A02C5010E94482540915C
:104570002B0250912C0260912D0270912E02C501E8
:104580000E942C282AE1C22E23E0D22E409127023D
:10459000509128026091290270912A02C6010E945E
:1045A000482540912B0250912C0260912D02709170
:1045B0002E02C6010E942C286091300270913102B7
:1045C000882777FD8095982F0E94C23A2091220279
:1045D0003091230240912402509125020E94273AF3
:1045E0007B018C016091200270912102882777FD68
:1045F0008095982F0E94C23A9B01AC01C801B70177
:104600000E94763B0E948F3A7B018C01C501B80164
:10461000A7010E944123C601B801A7010E944123BE
:1046200089EB93E066E973E00E9485390E94E9080E
:104630000E94D01864EF71E080E090E00E94ED2FBE
:104640000E94BD081F910F91FF90EF90DF90CF90D7
:10465000BF90AF900895FC01278530894189528928
:1046600083859485A585B685281B390B4A0B5B0B82
:10467000B901CA010895FC01638574858585968515
:104680000895FC0143875487658776874787508B59
:10469000618B728B13AA14AA15AA16AA13A214A2CC
:1046A00015A216A208956F927F928F929F92AF9259
:1046B000BF92CF92DF92EF92FF920F931F93CF930F
:1046C000DF93EC01AF84B888C988DA888B859C8534
:1046D000AD85BE85A81AB90ACA0ADB0A2B893C89AE
:1046E0004D895E89CA01B9010E94763B7B018C012C
:1046F0002B8D3C8D4D8D5E8DCA01B9010E94BF3955
:104700009B01AC01C801B7010E94273A0E948F3A71
:104710009B01AC01A114B104C104D104B9F462300D
:104720007105810591050CF085C01BA21CA21DA27C
:104730001EA280E090E0A0E0B0E08B8B9C8BAD8B64
:10474000BE8B1BAA1CAA1DAA1EAA0BC1EBA8FCA803
:104750000DA91EA91A141B041C041D0444F51E14E3
:104760001F041006110674F46A157B058C059D055F
:10477000B4F5CD5BDF4F8881C354D040882309F066
:1047800059C02DC0E114F1040105110509F452C00E
:104790006A157B058C059D050CF04CC0CD5BDF4F89
:1047A0008881C354D040813009F044C038C01E1401
:1047B0001F0410061106DCF488279927DC018A19EA
:1047C0009B09AC09BD09281739074A075B073CF468
:1047D000CD5BDF4F8881C354D040813059F58827A5
:1047E0009927DC01821B930BA40BB50B1FC0E114AE
:1047F000F10401051105F1F088279927DC018A19D8
:104800009B09AC09BD09281739074A075B0794F4CF
:10481000CD5BDF4F8881C354D040882359F488276B
:104820009927DC018E199F09A00BB10B8BAB9CABB8
:10483000ADABBEAB6BA87CA88DA89EA8611471041B
:1048400081049104A9F48FA998ADA9ADBAAD8BAF3D
:104850009CAFADAFBEAFFE01ED5BFF4F10821A14EF
:104860001B041C041D040CF049C081E0808346C079
:10487000ABACBCACCDACDEACC601B50120E030E0E9
:1048800040E050EC0E94763B7B018C01C401B301F7
:104890000E94C23A20E030E040E850E40E94763BBB
:1048A00020E030E040E85FE30E94BF399B01AC01AB
:1048B000C801B7010E94273A9B01AC01C601B501AE
:1048C0000E94BF397B018C016BAF7CAF8DAF9EAF77
:1048D000EF96A880B980CA80DB80EF979501A6018A
:1048E0000E94723B181624F4D801C70157016D01CC
:1048F000C501D6018BAF9CAFADAFBEAF8BA99CA954
:10490000ADA9BEA90196A11DB11D8BAB9CABADABF2
:10491000BEAB6BAD7CAD8DAD9EAD0E94943A6BA3EA
:104920007CA38DA39EA360E074E284E799E42BADA1
:104930003CAD4DAD5EAD0E94273A9B01AC016B8B47
:104940007C8B8D8B9E8BCD5BDF4F8881C354D04099
:10495000882339F4DA01C901B0588B8B9C8BAD8B5D
:10496000BE8BDF91CF911F910F91FF90EF90DF9061
:10497000CF90BF90AF909F908F907F906F90089551
:10498000FC0187859089A189B28984179507A607BC
:10499000B70739F04787508B618B728BCF010E942C
:1049A00053230895FC01DB01CA01438554856585C5
:1049B0007685480F591F6A1F7B1FCF010E94C024B4
:1049C0000895CF92DF92EF92FF920F931F93FC0115
:1049D00089E692E09183808312821386148615867D
:1049E00016861786108A118A128A0F2EF0E0CF2EB3
:1049F000F0E0DF2EF0E0EF2EF0E0FF2EF02DC38A86
:104A0000D48AE58AF68A00E010E020E83FE3078BCD
:104A1000108F218F328F038F148F258F368F078F42
:104A200010A321A332A313A214A215A216A281E0FF
:104A300090E094A783A78FEF86A717A210A611A6D0
:104A400012A6138214821582168270AB67A752AB2E
:104A500041AB13AA14AA15AA16AAC7AAD0AEE1AEF2
:104A6000F2AEC3AED4AEE5AEF6AEFF9601931193AF
:104A7000219331931082E354F040178210861186FF
:104A800012861F910F91FF90EF90DF90CF900895C5
:104A9000EF92FF920F931F93CF93DF93EC017A0174
:104AA0008B016F89788D898D9A8DA80197010E945D
:104AB000233A8823E1F1EF8AF88E098F1A8FEF9657
:104AC00060E074E284E799E4A80197010E94273A24
:104AD000688379838A839B83EF978BA99CA9ADA96F
:104AE000BEA9181619061A061B060CF52B893C8957
:104AF0004D895E89CA01B9010E94763B7B018C0118
:104B00002B8D3C8D4D8D5E8DCA01B9010E94BF3940
:104B10009B01AC01C801B7010E94273A0E948F3A5D
:104B20006BAB7CAB8DAB9EABCE010E945323DF9170
:104B3000CF911F910F91FF90EF9008954F925F9248
:104B40006F927F928F929F92AF92BF92CF92DF929D
:104B5000EF92FF920F931F93CF93DF932C017A0173
:104B60008B01CB01BA01F201238934894589568929
:104B70000E94233A882309F455C0F201A788B08C1B
:104B8000C18CD28C3501460197FA909497F8909495
:104B9000C801B701A40193010E94233A88231CF4A1
:104BA000840173010AC0C801B701A60195010E94E2
:104BB000723B181614F486017501C801B70120E094
:104BC00030E040E050E00E94233A882331F4F201C3
:104BD00013A214A215A216A220C060E074E284E71A
:104BE00099E4A80197010E94273A9F770E94943A7E
:104BF000F20163A374A385A396A3E201CD5BDF4F0B
:104C00001882C801B70120E030E040E050E00E9487
:104C1000723B181614F481E08883F201E38AF48A67
:104C2000058B168BDF91CF911F910F91FF90EF9025
:104C3000DF90CF90BF90AF909F908F907F906F90BC
:104C40005F904F900895FC012389348945895689E6
:104C5000B901CA010895DC0112968C911297833034
:104C600001F1843040F4813089F0ED91FC9111978D
:104C7000823098F407C0863011F1883049F18430D1
:104C800079F516C00480F581E02D1FC0ED91FC91EF
:104C900011970680F781E02D18C00084F185E02D82
:104CA00014C0ED91FC9111970284F385E02D0DC0A5
:104CB000ED91FC9111970484F585E02D06C0ED91EE
:104CC000FC9111970684F785E02DCD010995089593
:104CD000ED91FC9111970088F189E02DCD010995A6
:104CE0000895CF93DF93EC016B897C898D899E8930
:104CF00020E030E040E050E00E94723B18161CF4C7
:104D0000EFA5F8A902C0E9A9FAA90995DF91CF9109
:104D10000895DC0170E06370707061307105A9F076
:104D2000623071051CF4672B41F008956230710503
:104D3000A1F06330710501F518C0ED91FC91119758
:104D40000190F081E02D62E00EC0ED91FC91119791
:104D50000190F081E02D63E006C0ED91FC9101909F
:104D6000F081E02D61E009950895ED91FC910190AD
:104D7000F081E02D60E009950895DC01862F63E065
:104D80000E94613C913071F0913018F09230E9F45A
:104D900013C0ED91FC9111970190F081E02DCD01B0
:104DA00064E008C0ED91FC9111970190F081E02D35
:104DB000CD0161E009950895ED91FC911197019065
:104DC000F081E02DCD0162E009950895DC0170E0ED
:104DD0006370707061307105A9F0623071051CF468
:104DE000672B41F0089562307105A1F063307105C1
:104DF00001F518C0ED91FC9111970190F081E02D23
:104E000065E00EC0ED91FC9111970190F081E02DCD
:104E100066E006C0ED91FC910190F081E02D6AE022
:104E200009950895ED91FC910190F081E02D69E0E4
:104E300009950895DC01862F66E00E94613C92305E
:104E400009F1933030F4992359F0913009F03FC0C3
:104E500010C0943049F19430F0F09530C1F52EC077
:104E6000ED91FC9111970190F081E02DCD0164E06E
:104E700023C0ED91FC9111970190F081E02DCD01BF
:104E800065E01AC0ED91FC9111970190F081E02D41
:104E9000CD0161E011C0ED91FC9111970190F0817D
:104EA000E02DCD0163E008C0ED91FC9111970190D8
:104EB000F081E02DCD0162E009950895ED91FC911E
:104EC00011970190F081E02DCD0166E009950895DC
:104ED000DC0170E0677070706330710591F16430CF
:104EE00071054CF461307105E1F0623071050CF52B
:104EF000672B79F008956530710599F1653071057A
:104F000044F166307105A9F16730710509F040C0C0
:104F100038C0ED91FC9111970190F081E02D61E096
:104F20002EC0ED91FC9111970190F081E02D65E08C
:104F300026C0ED91FC9111970190F081E02D64E085
:104F40001EC0ED91FC9111970190F081E02D66E07B
:104F500016C0ED91FC9111970190F081E02D62E077
:104F60000EC0ED91FC9111970190F081E02D6AE067
:104F700006C0ED91FC910190F081E02D68E009956B
:104F80000895ED91FC910190F081E02D69E0099583
:104F90000895CF92DF92EF92FF920F931F93CF93DA
:104FA000DF93FC012281243029F0283019F092E0AF
:104FB000D92E02C084E0D82E8F01C0E0D0E0E62ECA
:104FC000FF24CC24C394F8012381C7010C2E02C016
:104FD000959587950A94E2F7678180FD6C25822F6D
:104FE0000E94CA3021960F5F1F4FCD1560F3DF91ED
:104FF000CF911F910F91FF90EF90DF90CF90089588
:10500000CF93DF93EC01E881F9810190F081E02DED
:10501000CD5BDF4F8881C354D040882311F461E019
:1050200001C063E0CE0109958BA59CA50E94463086
:10503000E881F9810190F081E02DCD5BDF4F88811F
:10504000C354D040882311F460E001C062E0CE0177
:105050000995DF91CF9108956F927F928F929F92E1
:10506000AF92BF92CF92DF92EF92FF920F931F9376
:10507000CF93DF93EC013A014B01CB01BA0120E061
:1050800030E040E050E00E94233A882309F441C018
:10509000AB8CBC8CCD8CDE8CC601B501A401930118
:1050A0000E94233A8823A9F16BA97CA98DA99EA906
:1050B0000E94C23A7B018C01C601B501A401930193
:1050C0000E94273A9B01AC01C801B7010E94763BC0
:1050D0000E948F3A6BAB7CAB8DAB9EAB60E070E017
:1050E00080E090E4A40193010E94273A0E94DD3BF6
:1050F00020E034E244E759E40E94763B6FAB78AF9E
:1051000089AF9AAF6B8E7C8E8D8E9E8ECE010E9463
:105110005323DF91CF911F910F91FF90EF90DF907C
:10512000CF90BF90AF909F908F907F906F90089599
:10513000EF92FF920F931F93CF93DF93EC018BA11C
:105140009CA1ADA1BEA10097A105B10509F44CC079
:105150000E94C72F7B018C012FA138A549A55AA514
:105160008BA19CA1ADA1BEA1820F931FA41FB51F4F
:1051700082179307A407B50730F0E816F9060A0767
:105180001B0758F405C0E816F9060A071B0760F16B
:10519000E216F3060407150738F5CD5BDF4F88816B
:1051A000C354D0402B853C854D855E85813029F4E4
:1051B0002F5F3F4F4F4F5F4F04C021503040404062
:1051C00050402B873C874D875E87E881F9816B854E
:1051D00067700280F381E02DCE010995EFA2F8A659
:1051E00009A71AA781E001C080E0DF91CF911F914C
:1051F0000F91FF90EF900895CF93DF93FC012785E7
:1052000030894189528983859485A585B68528177B
:1052100039074A075B0711F480E00FC0EF01CD5B4F
:10522000DF4F82179307A407B5071CF481E088833A
:1052300001C01882CF010E949828DF91CF91089574
:10524000CF93DF93EC010E949828882319F0CE01B8
:105250000E94532381E0DF91CF910895CF93DF9394
:10526000EC016B897C898D899E8920E030E040E0EB
:1052700050E00E94233A882369F42F8538894989B0
:105280005A898B859C85AD85BE85281739074A07C5
:105290005B0721F0CE010E942029E3CFDF91CF915F
:1052A00008950F931F938C010E94C024C8010E948F
:1052B0002E291F910F910895FC01809170048C306C
:1052C00090F480838F5F80937004815090E0FC01A4
:1052D000EE0FFF1FE80FF91FEF58FB4F88EB9BE025
:1052E0009283818308958FEF80830895DC018C91F0
:1052F00090E0FC01EE0FFF1FE80FF91FEF58FB4F86
:1053000080818F7B80838C916CE00E94613C90E077
:10531000AC01440F551F480F591F440F551F440F30
:10532000551F20E030E0C901840F951FFC01EE0FEE
:10533000FF1FE80FF91FEF58FB4F808186FD05C066
:105340002F5F3F4F2C30310571F70895FC0120810C
:105350002C30B8F58181992787FD909548E850E079
:10536000481B590B440F551F440F551F64177507F1
:1053700084F08281992787FD909548E552E0481B8B
:10538000590B440F551F440F551F641775070CF434
:10539000AB0142505040CA01AA2797FDA095BA2FF1
:1053A000880F991FAA1FBB1F4FB7F89430E0F9016F
:1053B000EE0FFF1FE20FF31FEF58FB4F9283818325
:1053C0004FBF0895AF92BF92CF92DF92EF92FF92BC
:1053D0000F931F93CF93DF93EC019B0182E0603228
:1053E00078070CF048C077FF03C020E030E005C02C
:1053F000653B710514F024EB30E000D000D0B9011A
:10540000882777FD8095982F2981332727FD3095B0
:10541000E8E8AE2EB12CA21AB30AAA0CBB1CAA0C47
:10542000BB1CCC24B7FCC094DC2CEA81FF27E7FD31
:10543000F09528E532E02E1B3F0B220F331F220F81
:10544000331F442737FD4095542FEDB7FEB7218316
:1054500032834383548320E030E040E050E004EBAB
:10546000E02EF12C012D112D0E945B369B010F9037
:105470000F900F900F90CE01B9010E94A629DF91E5
:10548000CF911F910F91FF90EF90DF90CF90BF9041
:10549000AF900895CF92DF92EF92FF921F93CF9338
:1054A000DF93EC01162F7A01690188818C3008F0B6
:1054B00064C0862F61E00E948B30888190E0FC01FF
:1054C000EE0FFF1FE80FF91FEF58FB4F1F7380818E
:1054D000807C812B808380E292E08E199F0964E0BA
:1054E00070E00E946D3C698380E699E08C199D090B
:1054F00064E070E00E946D3C6A83A8818A2F6CE0B2
:105500000E94613C682F70E0AB01440F551F460FAD
:10551000571F440F551F440F551F20E030E0C901AD
:10552000840F951FFC01EE0FFF1FE80FF91FEF58C6
:10553000FB4F808186FD15C02F5F3F4F2C3031051A
:1055400071F724C01092800082E080938100109255
:10555000850010928400B19A80916F0082608093E0
:105560006F008A2F90E0FC01EE0FFF1FE80FF91F7C
:10557000EF58FB4F8081806480838881DF91CF91D9
:105580001F91FF90EF90DF90CF900895672BD1F29D
:10559000E8CF40E252E020E639E00E944A2A08952E
:1055A0001F920F920FB60F9211242F933F934F9398
:1055B0005F936F937F938F939F93AF93BF93EF937B
:1055C000FF938091950487FF05C01092850010928B
:1055D00084002BC020919504332727FD30958091BE
:1055E000700490E02817390704F5809195049927F5
:1055F00087FD9095FC01EE0FFF1FE80FF91FEF5894
:10560000FB4F808186FF11C080919504992787FD0B
:105610009095FC01EE0FFF1FE80FF91FEF58FB4FAD
:1056200080818F7360E00E94CA30809195048F5F03
:105630008093950420919504332727FD3095809120
:10564000700490E0281739070CF04EC08091950443
:105650008C300CF049C020918400309185008091FD
:105660009504992787FD9095FC01EE0FFF1FE80F29
:10567000F91FEF58FB4F81819281280F391F30931A
:1056800089002093880080919504992787FD909543
:10569000FC01EE0FFF1FE80FF91FEF58FB4F808151
:1056A00086FF2BC080919504992787FD9095FC017A
:1056B000EE0FFF1FE80FF91FEF58FB4F80818F732C
:1056C00061E00E94CA3019C080E49CE905C0809165
:1056D00084009091850004969093890080938800BF
:1056E0008FEF8093950409C080918400909185008C
:1056F000049680549C4940F3EACFFF91EF91BF910B
:10570000AF919F918F917F916F915F914F913F9159
:105710002F910F900FBE0F901F901895F999FECF03
:1057200072BD61BDF89A80B50895F999FECF1FBA90
:1057300072BD61BD40BD0FB6F894FA9AF99A0FBEDA
:105740000895109297040895E0EBF0E0908193683B
:10575000908387708093B1001092B3008BE061E07A
:105760000E948B300895E0EBF0E09081936290838B
:1057700087708093B1001092B40083E061E00E94D2
:105780008B300895CF93DF938CE060E00E94CA30A5
:1057900088E060E00E94CA30C7E0D0E084E060E0CA
:1057A0000E94CA308091980490E00C2E02C095951A
:1057B00087950A94E2F780FF03C088E061E002C0A9
:1057C00088E060E00E94CA3084E061E00E94CA3054
:1057D00021978FEFCF3FD80709F78CE061E00E9457
:1057E000CA30DF91CF9108950F931F93CF93DF932A
:1057F000EC01142F8A81813029F404E042E058E062
:1058000070E108C0823011F080E0E0C000E241E0C9
:1058100050E870E4113041F49B85892F8695869578
:10582000869580FF10C009C01230A1F49B85892F96
:1058300086958695869580FD06C0613011F4985F47
:1058400005C0985003C0613019F4905F9B8752C027
:105850009051FCCF133041F48B85613011F4885F97
:1058600001C088508B8746C0143009F043C08B8537
:10587000613011F48F5F01C081508B87AB85AF73AE
:10588000AB87A03148F4B0E0E0E6F2E0EA1BFB0BA6
:105890002081A05BBD4F19C08A2F8051803148F410
:1058A0008A2F90E0FC01E05CFD4F2081E0E7F2E010
:1058B0001DC08A2F8052803150F4B0E0E0E8F2E061
:1058C000EA1BFB0B2081A05DBD4F8C9115C08A2F78
:1058D0008053803118F080E020E00EC08A2F90E0E5
:1058E000FC01E05EFD4F2081E0E9F2E0E81BF90BEE
:1058F000808102C08FEF2FEF3B853F733B879A81FA
:10590000913029F42093B3008093B40004C0923006
:1059100011F427BD88BD242F202B672F652B962FD0
:10592000922B90958091980498239093980414302A
:1059300019F5303118F4922B90939804832F8051ED
:10594000803130F4452B80919804842B8093980407
:10595000832F8052803130F4572B80919804852B0F
:10596000809398043053303160F5702B8091980407
:10597000872B8093980425C0832F869586958695DE
:105980008330B1F0843028F4813071F0823070F4CB
:1059900009C0853081F0853060F0863079F087303D
:1059A00081F40BC0902B0BC0922B09C0942B07C025
:1059B000542B952B04C0962B02C0702B972B9093E1
:1059C000980487E994E00E94C22B8B85DF91CF91E8
:1059D0001F910F9108950F931F938C018CE061E04C
:1059E0000E948B3087E061E00E948B3088E061E0AC
:1059F0000E948B3084E061E00E948B30109298040A
:105A0000C8010E94C22B87E060E00E94CA301F914B
:105A10000F910895DF92EF92FF920F931F938C01E5
:105A20007B01D42E87E994E00E94EB2CF801F182EF
:105A3000E082D2821386F1E0DF1629F58091980486
:105A4000817E8093980487E994E00E94C22B8BE0CA
:105A500061E00E948B3083E061E00E948B308BE03C
:105A600061E00E94CA3083E061E00E94CA3081E0B8
:105A70000E94A42B81E00E94B32B8FEF8093B30090
:105A80008093B4002FC082E0D81661F5809198040D
:105A90008E718093980487E994E00E94C22B85E080
:105AA00061E00E948B3086E061E00E948B3085E0EF
:105AB00061E00E94CA3086E061E00E94CA3084B58D
:105AC000836884BD17BC86E061E00E948B3084B59A
:105AD000836284BD18BC85E061E00E948B308FEF4B
