:100000000C94D3010C94FB010C94FB010C94FB01A8
:100010000C94FB010C94FB010C94FB010C94FB0170
:100020000C94FB010C94FB010C94FB010C948F25A8
:100030000C94FB010C94FB010C94FB010C94FB0150
:100040000C9437280C94FB010C94E5290C94332A6A
:100050000C94FB010C94FB010C94FB010C94FB0130
:100060000C94FB010C94FB016D61784C656E677418
:10007000683A20004669727374207761766520685B
:10008000616C66004D53472C492C596F7520707276
:100090006F6261626C7920776F6E27742067657478
:1000A00020616E792064657461696C20696E2074CA
:1000B0006869732E0020697320002C20726F7753BB
:1000C000697A653A20004D53472C492C4D617820C0
:1000D00064656E7369747920666F722070656E5303
:1000E000697A653A20004D53475F494E464F5F534A
:1000F0005452506F776572696E6720646F776E2E09
:10010000004C696E65206973206E6F74206F6E20DD
:1001100074686520706167652E20536B6970706923
:100120006E672069742E005468697320706F696E61
:10013000742066616C6C73206F75747369646520DC
:100140007468652061726561206F662074686973E8
:10015000206D616368696E652E20536B69707069EC
:100160006E672069742E006D6D004368616E67656F
:10017000642050656E20776964746820746F200075
:100180004E657720616363656C3A20004E65772089
:100190006D61782073706565643A200055703A206F
:1001A00000446F776E3A2000504753504545442C29
:1001B0000050474C4946542C005047535445504D2D
:1001C000554C5449504C4945522C005047535445C6
:1001D00050535045525245562C0050474D4D5045B6
:1001E000525245562C00504753495A452C0029007D
:1001F0007061676548656967687420696E2073740B
:10020000657073202800526563616C6320002900CB
:10021000526563616C6320706167655769647468D7
:1002200020696E2073746570732028002900292CC2
:100230002073746570735065724D4D2028005265AF
:1002400063616C63206D6D50657253746570202816
:10025000004C6F616465642073746570206D756C0B
:100260007469706C6965723A004C6F6164656420F2
:10027000757020706F733A004C6F61646564206420
:100280006F776E20706F733A004C6F616465642005
:10029000737465707320706572207265763A004CD5
:1002A0006F61646564206D6D5065725265763A00C9
:1002B0004C6F61646564206865696768743A004CD6
:1002C0006F616465642077696474683A00206E6FBA
:1002D00074207265636F676E697365642E005245A2
:1002E00053454E440044524157494E470052454100
:1002F00044590029206E6F74207061727365642EFA
:1003000000436F6D6D2028000000000024002700CE
:100310002A0000000000250028002B00000000003B
:100320002300260029000404040404040404020237
:100330000202020203030303030301020408102064
:10034000408001020408102001020408102000006F
:100350000007000201000003040600000000000086
:100360000000494E46494E4954594E414ECDCCCCE1
:100370003D0AD7233C17B7D13877CC2B329595E679
:10038000241FB14F0A000020410000C84200401C59
:100390004620BCBE4CCA1B0E5AAEC59D7400480711
:1003A00060269F2B410711241FBECFEFD8E0DEBF90
:1003B000CDBF11E0A0E0B1E0E8ECFBE602C00590A3
:1003C0000D92AC3FB107D9F714E0ACEFB1E001C03A
:1003D0001D92A53AB107E1F713E0C4EAD3E004C0E7
:1003E0002297FE010E949135CE39D107C9F70E94AC
:1003F000F52B0C94D7350C940000A0E0B0E0E3E0BE
:10040000F2E00C94A835EC01A880B980CA80DB80AA
:10041000A114B104C104D10441F484E2A82E89EDF1
:10042000B82E8BE5C82E87E0D82EC601B5012DE188
:1004300033EF41E050E00E94603527EA31E440E0CC
:1004400050E00E9400357B018C01C601B5012DE111
:1004500033EF41E050E00E946035CA01B9012CEE53
:1004600034EF4FEF5FEF0E9400356E0D7F1D801F50
:10047000911F97FF04C0615070408040904868838E
:1004800079838A839B839B01AC015F77B901CA01A1
:10049000CDB7DEB7EAE00C94C4350E94FD010895A3
:1004A00089E791E00E94FD010895609379017093BE
:1004B0007A0180937B0190937C01089566277727CA
:1004C0000C943C03FC0188279927E8942191203261
:1004D000E9F3293010F02E30C8F32B3241F02D32E1
:1004E00039F4689404C00E943403820F911D219155
:1004F00020532A30C0F31EF4909581959F4F0895A4
:100500001F93FC0199278827BC01E89411911032B0
:10051000E9F3193010F01E30C8F31B3251F01D32D0
:1005200049F4689406C00E941F03610F711D811D6C
:10053000911D119110531A30B0F33EF490958095AF
:10054000709561957F4F8F4F9F4F1F9108954CEF8E
:1005500051E00E94ED020895FB01DC0102C0019010
:100560000D9241505040D8F70895FB01DC018D9168
:10057000019080190110D9F3990B0895FB01DC015A
:1005800001900D920020E1F70895FB01DC0141503C
:10059000504030F08D910190801919F40020B9F786
:1005A000881B990B0895FB0151915523A9F0BF01B8
:1005B000DC014D9145174111E1F759F4CD0101904E
:1005C000002049F04D9140154111C9F3FB01411143
:1005D000EFCF81E090E001970895009731F4DA01C0
:1005E0008D919C91009709F40EC0DC01FB013D91B7
:1005F0002191222319F03217C9F3FACF332331F4B2
:10060000DA011D921C928827992708951197AF93BC
:10061000BF93FB013D912191321771F4332321F4F3
:1006200088279927119702C01E921196FA01A1936B
:10063000B0839F918F910895222369F7EACF592FB4
:10064000482F372F262F660F771F881F991F660F99
:10065000771F881F991F620F731F841F951F660FD6
:10066000771F881F991F08957AE0979F902D879F85
:10067000802D910D11240895A0E0B0E0E2E4F3E0B4
:100680000C94A635EC015B016115710519F0FB01B5
:1006900091838083F9908F2D90E00E949535892B6E
:1006A000C9F7FDE2FF1621F4F990EE24E39405C0AA
:1006B0002BE2F21609F4F990EE248E01015010405D
:1006C000C80162E673E043E050E00E949C04892B7D
:1006D00001F58E010E5F1F4FC80165E673E045E02E
:1006E00050E00E949C04892B19F48E01095F1F4F72
:1006F000A114B10419F0F50111830083E0FC04C0DA
:1007000070E090E080E814C070E090E080E86FEF67
:1007100008C1C8016AE673E043E050E00E949C040F
:10072000892B69F4A114B10429F470E090E080EC05
:100730006FE7F7C02296F501D183C083F6CF8824F6
:10074000992440E050E060E070E0EF2DE053EA30A3
:10075000A0F5F2E0EF2A8E2D90E09C012870307019
:10076000E2FE06C0232B79F50894811C911C2BC056
:10077000232B19F0089481089108DB01CA0112E0CB
:10078000880F991FAA1FBB1F1A95D1F7480F591F31
:100790006A1F7B1F440F551F661F771F4E0F511D89
:1007A000611D711D483929E9520729E9620729E1CC
:1007B000720748F084E0E82A06C0EE3F31F4E3FC1B
:1007C00039C098E0E92AF990C0CFE53311F0E5315E
:1007D00089F529912D3219F4E0E1EE2A05C02B327A
:1007E00019F081E090E003C0299182E090E0E22FCF
:1007F000E053EA3018F0C81BD90B1CC020E030E0F1
:10080000FCE020383F075CF4C901880F991F880F6E
:10081000991F280F391F220F331F2E0F311DE99109
:10082000E053EA3068F3E4FE03C0309521953F4F72
:10083000820E931ECE2CDD24E1FE07C0A114B1046C
:1008400021F02197F501D183C083CB01BA010E9429
:100850007E337B018C01F3E0CF22DD2423E0C2163E
:10086000D10421F417FB109517F910955701680171
:10087000C801B70120E030E040E050E00E94E132E2
:10088000882309F44AC097FE0DC021E8E22E23E038
:10089000F22E9094819491089394C0E2D0E000E00D
:1008A00010E012C099E9E92E93E0F92EF6CFF70196
:1008B0002591359145915491C601B5010E9434347A
:1008C0005B016C018C1A9D0A8C169D0684F7D595E8
:1008D000C7950F5F1F4F0630110529F08CEF9FEF72
:1008E000E80EF91EF1CFC501D6017C018D018C2DDA
:1008F000880F8D2D881F8F3F51F0C601B50120E074
:1009000030E040E050E00E94E132882331F482E29E
:1009100090E09093A4048093A3047E2D9F2D802FBC
:10092000612F272F392F482F562FB901CA01CDB774
:10093000DEB7ECE00C94C235FB01DC0141505040C5
:1009400088F08D9181341CF08B350CF4805E6591BC
:1009500061341CF06B350CF4605E861B611171F321
:10096000990B0895881BFCCFAF92BF92CF92DF9274
:10097000EF92FF920F931F936E157F0580079107EB
:1009800034F42E153F054007510764F42CC0E616D9
:10099000F7060807190794F4A216B306C406D5068D
:1009A0003CF423C0A216B306C406D506BCF41FC08F
:1009B0002A153B054C055D05C4F41BC06E157F056B
:1009C0008007910791F42A153B054C055D058CF0D5
:1009D000A216B306C406D50644F409C02A153B0581
:1009E0004C055D0511F484E005C082E003C083E09E
:1009F00001C081E01F910F91FF90EF90DF90CF90A9
:100A0000BF90AF9008956F927F928F929F92AF9216
:100A1000BF92CF92DF92EF92FF920F931F93CF93EB
:100A2000DF937C015B01662757FD6095762FCB0134
:100A3000BA010E9480333B014C010027F7FC00956E
:100A4000102FC801B7010E9480337B018C01CC2498
:100A5000B7FCC094DC2CC601B5010E9480339B0119
:100A6000AC01C801B7010E94E532A40193010E94C4
:100A700034349B01AC01C401B3010E947C327B0180
:100A80008C010E944D33EB01BE01882777FD8095D4
:100A9000982F0E9480339B01AC01C801B7010E94CE
:100AA0007C3220E030E040E05FE30E9430341816F2
:100AB0000CF42196CE01DF91CF911F910F91FF9001
:100AC000EF90DF90CF90BF90AF909F908F907F90EE
:100AD0006F9008952F923F924F925F926F927F9204
:100AE0008F929F92AF92BF92CF92DF92EF92FF923E
:100AF0000F931F931B012C0139014A0160910A02D7
:100B000070910B0280910C0290910D020E94803333
:100B10007B018C01A80197010E9434345B016C01B8
:100B2000C401B301A40193010E9434349B01AC01C0
:100B3000C601B5010E947C325B016C01C201B101AA
:100B4000A20191010E9434349B01AC01C601B501A0
:100B50000E947D325B016C01C801B701A8019701B9
:100B60000E947D329B01AC01C601B5010E94E532B5
:100B70001F910F91FF90EF90DF90CF90BF90AF90BB
:100B80009F908F907F906F905F904F903F902F90AD
:100B90000895AF92BF92CF92DF92EF92FF920F93A0
:100BA0001F938130910509F00CC16F5F7F4F09F0F1
:100BB0005FC185EF92E060E071E00E9446308EEF09
:100BC00091E00E941824A0907F01B0908001C09015
:100BD0008101D09082016091830170E080E090E01B
:100BE00020917D0130917E01442737FD4095542F9F
:100BF0000E9400350E9480337B018C01C601B50143
:100C0000A80197010E94E5326093020270930302EB
:100C10008093040290930502C801B701A6019501D3
:100C20000E94E5327B018C016093060270930702FB
:100C3000809308029093090260919E0170919F0138
:100C4000882777FD8095982F0E948033A80197010F
:100C50000E9434340E944D3360930A0270930B0259
:100C600080930C0290930D026091A0017091A101FC
:100C7000882777FD8095982F0E948033A8019701DF
:100C80000E9434340E944D3360930E0270930F0221
:100C900080931002909311028CEF92E067E071E074
:100CA0000E94463083E093E06BE071E00E944630A2
:100CB0008AE093E06FE071E00E94463081E193E0CA
:100CC00063E171E00E94463088E193E067E171E002
:100CD0000E9446308FE193E06BE171E00E94463064
:100CE00086E293E06FE171E00E9446308DE293E08E
:100CF00063E271E00E94463084E393E067E271E0D2
:100D00000E9446308BE393E06BE271E00E94463034
:100D100082E493E06FE271E00E94463089E493E060
:100D200063E371E00E94463080E593E067E371E0A1
:100D30000E94463087E593E06BE371E00E94463005
:100D40008EE593E06FE371E00E94463085E693E024
:100D500063E471E00E9446308CE693E067E471E062
:100D60000E94463083E793E06BE471E00E944630D6
:100D70008AE793E06FE471E00E94463060917D0164
:100D800070917E0185E592E041E00E94C927609163
:100D90007D0170917E0181E692E042E00E94C927C8
:100DA0008DE692E069E37BE142E35BE10E945B1F39
:100DB00081EB92E06BE27BE144E25BE10E945B1F2E
:100DC00057C0892B09F054C06F5F7F4F09F050C0A6
:100DD0008AE793E00E94603083E793E00E946030EE
:100DE0008CE693E00E94603085E693E00E946030DC
:100DF0008EE593E00E94603087E593E00E946030CA
:100E000080E593E00E94603089E493E00E946030C6
:100E100082E493E00E9460308BE393E00E946030B4
:100E200084E393E00E9460308DE293E00E946030A2
:100E300086E293E00E9460308FE193E00E94603090
:100E400088E193E00E94603081E193E00E9460308D
:100E50008AE093E00E94603083E093E00E9460307B
:100E60008CEF92E00E94603085EF92E00E9460304B
:100E70001F910F91FF90EF90DF90CF90BF90AF90B8
:100E8000089580E090E06FEF7FEF0E94C90508951C
:100E900081E090E06FEF7FEF0E94C9050895AF9267
:100EA000BF92CF92DF92EF92FF920F931F937B013D
:100EB0008C01CA01B9010E9434345B016C01C80184
:100EC000B701A80197010E9434349B01AC01C6010F
:100ED000B5010E947C320E949B341F910F91FF90BC
:100EE000EF90DF90CF90BF90AF900895AF92BF92F8
:100EF000CF92DF92EF92FF920F931F937B018C01B1
:100F000059016A0160910A0270910B0280910C02F2
:100F100090910D020E948033A80197010E947C32BB
:100F20009B01AC010E9434347B018C01C601B501E8
:100F3000A60195010E9434349B01AC01C801B701A0
:100F40000E947D320E949B341F910F91FF90EF9081
:100F5000DF90CF90BF90AF900895AF92BF92CF92A5
:100F6000DF92EF92FF920F931F937B018C01590147
:100F70006A01A80197010E9434347B018C01C601EB
:100F8000B501A60195010E9434349B01AC01C80152
:100F9000B7010E947D320E949B341F910F91FF90F8
:100FA000EF90DF90CF90BF90AF9008952F923F9237
:100FB0004F925F926F927F928F929F92AF92BF9269
:100FC000CF92DF92EF92FF920F931F93DF93CF9315
:100FD00000D000D0CDB7DEB769837A838B839C8342
:100FE00059016A01170128016115710581059105F3
:100FF00059F40F2EF0E0EF2EF0E0FF2EF0E00F2F6F
:10100000F0E01F2FF02DA4C0CA01B9010E943434B2
:101010007B018C01C601B50120E030E040E050E0EA
:101020000E94E132882324F417FB109517F91095DC
:10103000C201B101A20191010E947D323B014C012C
:10104000C801B701A40193010E94E5327B018C0124
:1010500069817A818B819C810E9480339B01AC01E4
:10106000C801B7010E94E1328823B4F5C601B50179
:1010700020E030E040E050E00E94E132882329F493
:10108000C401B3010E949B340DC0C201B101A6018D
:1010900095010E94E5329B01AC015F77C601B50165
:1010A0000E947D327B018C01D0908401C09085012B
:1010B000B0908601A09087012D2D3C2D4B2D5A2DEF
:1010C0000E94303418160CF043C08D2D9C2DAB2D92
:1010D000BA2D7C018D013CC0C601B50120E030E095
:1010E00040E050E00E94E132882359F4C401B3018A
:1010F0000E949B347B018C0117FB109517F910950A
:101100000FC0C201B101A60195010E94E5329B0109
:10111000AC015F77C601B5010E947C327B018C0176
:101120008091840190918501A0918601B091870101
:101130005C016D01D7FAD094D7F8D094C801B701FB
:10114000A60195010E94E132882314F486017501FD
:10115000B701C8010F900F900F900F90CF91DF91C2
:101160001F910F91FF90EF90DF90CF90BF90AF90C5
:101170009F908F907F906F905F904F903F902F90B7
:10118000089580918F018823C1F18DE794E063E594
:1011900071E00E94CA2D8DE692E00E94B51D20915B
:1011A000830130E040E050E00E9460358DE794E03C
:1011B000BA01A9012AE030E00E94442D8DE794E0B5
:1011C0006FEC71E00E94CA2D81EB92E00E94B51D88
:1011D0002091830130E040E050E00E9460358DE7CF
:1011E00094E0BA01A9012AE030E00E94442D8DE785
:1011F00094E061ED71E00E94C72E0895EF92FF9296
:101200000F931F938091120290911302A0911402E8
:10121000B09115020097A105B10509F040C0609199
:101220000A0270910B0280910C0290910D020E94B3
:1012300080337B018C0160910E0270910F028091CE
:101240001002909111020E9480339B01AC01C801F1
:10125000B7010E94AD0720E030E040E05FE30E946C
:101260007D320E944D33609312027093130280937B
:101270001402909315028DE794E068E670E00E94F6
:101280002E2C409112025091130260911402709121
:1012900015028DE794E02AE030E00E94842D6091F1
:1012A00012027091130280911402909115021F9105
:1012B0000F91FF90EF90089581E893E00E94620201
:1012C0008093A2018FE893E00E9462029093A901AB
:1012D0008093A80108958DE794E06DEE72E00E947E
:1012E000712C08950F931F9381E893E00E945E0292
:1012F0006093A3017093A4018093A5019093A6012C
:101300000DE714E0C8016AE671E00E942E2C4091BE
:10131000A3015091A4016091A5017091A601C8019B
:1013200022E030E00E94B12EC80167E671E00E9421
:10133000712C1F910F910895AF92BF92CF92DF92BF
:10134000EF92FF920F931F93CF93DF935B016C019A
:10135000EA01BA01882777FD8095982F0E94803393
:101360002091020230910302409104025091050243
:101370000E943434A60195010E94E5327B018C0164
:1013800020E030E040E050E40E94303487FF03C0AA
:1013900001E010E008C0C801B7010E944D338B0185
:1013A0006330710574F58DE794E066EC70E00E949F
:1013B0002E2C8DE794E0B601A50122E030E00E94DA
:1013C000B12E8DE794E06AEB70E00E942E2C8DE741
:1013D00094E0BE014AE050E00E94982D8DE794E031
:1013E00065EB70E00E942E2C8DE794E0B8014AE096
:1013F00050E00E94AB2D8DE794E064E870E00E941D
:10140000712CC801DF91CF911F910F91FF90EF9048
:10141000DF90CF90BF90AF9008958AE892E09093CC
:10142000B5018093B4019093B7018093B6018FE525
:1014300090E09093B1018093B00180E991E09093A6
:10144000B3018093B20181E090E09093AF0180936B
:10145000AE0164EF71E080E090E00E94B32808954F
:10146000AF92BF92CF92DF92EF92FF920F931F93B2
:10147000CF93DF93EC015B016A018EEF91E069E0AD
:1014800070E00E948825CA15DB059CF476010027D0
:10149000F7FC0095102F8EEF91E0BE010E94A12471
:1014A000C801B7010E94B3282196AC16BD069CF76F
:1014B00012C076010027F7FC0095102F8EEF91E007
:1014C000BE010E94A124C801B7010E94B328219740
:1014D000CA15DB059CF78EEF91E00E943224DF9164
:1014E000CF911F910F91FF90EF90DF90CF90BF9021
:1014F000AF900895CF93DF938091160290910102EF
:101500008230B0F0992329F0C091AA01D091AB01AB
:1015100004C0C091AC01D091AD0181E893E00E947C
:101520006202BC019093AD018093AC01CE010AC070
:10153000913061F46091AC017091AD018091AA018C
:101540009091AB0143E050E00E94300A10920102FA
:10155000DF91CF910895CF93DF9380911602909100
:1015600001028230B0F0992329F0C091AA01D091F4
:10157000AB0104C0C091AC01D091AD0181E893E012
:101580000E946202BC019093AB018093AA01CE013C
:101590000AC0992361F46091AA017091AB01809116
:1015A000AC019091AD0143E050E00E94300A81E02F
:1015B00080930102DF91CF9108958DE692E00E9421
:1015C000432281EB92E00E9443220E94AB0A1092D8
:1015D00050020895EF92FF920F931F930E947F286D
:1015E0009B01AC01E0904B02F0904C0200914D0247
:1015F00010914E0280914F028823E9F080915002B1
:101600008823C9F02E193F09400B510B809193019B
:1016100090919401A0919501B09196018217930742
:10162000A407B50744F48DE794E066EE70E00E94ED
:10163000712C0E94DD0A1F910F91FF90EF90089589
:10164000CF93DF93EC01AB01662757FD6095762FB2
:101650000E944C1F09C00E94EA0A809190018823D1
:1016600019F0CE010E94DC23CE010E94A51D611558
:1016700071058105910579F70E947F2860934B02DF
:1016800070934C0280934D0290934E02DF91CF9164
:1016900008958F929F92AF92BF92CF92DF92EF9276
:1016A000FF920F931F93CF93DF935C016B01EA01CD
:1016B0004901E114F104C9F48DE794E064E770E0B6
:1016C0000E94712C8091A701882331F0CE0162E045
:1016D00070E00E942B352BC0CE0162E070E00E94CA
:1016E0002B35709561957F4F22C08091A701E01640
:1016F000F106A1F4882331F0CA0162E070E00E9493
:101700002B3508C0CA0162E070E00E942B3570954D
:1017100061957F4FC6010E94200B1AC0882319F0E3
:10172000CB01BA0105C066277727641B750BC6017C
:101730000E94200BC501B4010E94200B8091A701DB
:10174000882319F01092A70103C081E08093A701BC
:10175000DF91CF911F910F91FF90EF90DF90CF908D
:10176000BF90AF909F908F9008953F924F925F925D
:101770006F927F928F929F92AF92BF92CF92DF92A1
:10178000EF92FF920F931F93DF93CF93CDB7DEB706
:1017900028970FB6F894DEBF0FBECDBFFC012B011A
:1017A0004A01322E141615060CF08DC0BA010E94A3
:1017B0002B353B01CF01B4010E942B35AA2797FDA1
:1017C000A095BA2FBC01CD010E9480337B018C0112
:1017D000B401882777FD8095982F0E9480339B0164
:1017E000AC01C801B7010E94E53269837A838B831B
:1017F0009C830F2EF0E0AF2EF0E0BF2EF0E0CF2E56
:10180000F0E0DF2EF02D18861F82C30101969E8323
:101810008D83C601B50129813A814B815C810E948B
:101820007D325B016C0120E030E040E85FE30E9424
:10183000303487FF02C0F3010CC0C601B50120E0BF
:1018400030E040E85FE30E947C325B016C01ED8197
:10185000FE8192E0391629F48DE692E061EB72E0A8
:1018600007C0A3E03A1639F481EB92E06DE672E02E
:10187000A2019F0118C0B4E03B1649F42227332788
:101880002E1B3F0B8DE692E061EB72E00BC081E016
:10189000381671F4222733272E1B3F0B81EB92E081
:1018A0006DE672E0A2018401EF80F8840E94490B8A
:1018B0000E94C108AF81B8851196B887AF838A1698
:1018C0009B060CF0A6CF28960FB6F894DEBF0FBE8D
:1018D000CDBFCF91DF911F910F91FF90EF90DF90DF
:1018E000CF90BF90AF909F908F907F906F905F90C0
:1018F0004F903F9008953F924F925F926F927F92E8
:101900008F929F92AF92BF92CF92DF92EF92FF920F
:101910000F931F93DF93CF9300D000D000D0CDB7AB
:10192000DEB781E893E00E946202E0908301FF2429
:1019300000E010E09C01442737FD4095542FC8017A
:10194000B7010E9400357E836D838FE893E00E948B
:101950005E02162F072FF82EE92E8DE993E00E94E4
:101960005E022B013C018BEA93E00E945E024B0178
:101970005C013090A20182E08093A2018091A301DA
:101980009091A401A091A501B091A60189839A83A9
:10199000AB83BC83212F302F4F2D5E2DC901DA017F
:1019A0007C018D01CC24DD2420C00894C11CD11CF5
:1019B000E092A301F092A4010093A5011093A60167
:1019C000C801B7014D815E810E949C09AC018D81E7
:1019D0009E81BC0122E00E94B50BC801B701A501A0
:1019E00094010E947D327B018C01C801B701A301E3
:1019F00092010E94E1321816C4F689819A81AB8166
:101A0000BC818093A3019093A401A093A501B093FE
:101A1000A601ED80FE80F094E194F108F39481EB4F
:101A200092E0B7010E94200B8D819E8162E070E000
:101A30000E942B35709561957F4F4B018D819E8162
:101A400062E070E00E942B355B0101E010E011C004
:101A500081EB92E0B4010E94200B8DE692E0B70189
:101A60000E94200B81EB92E0B5010E94200B0F5FDA
:101A70001F4FC016D10664F789819A81AB81BC8162
:101A80008093A3019093A401A093A501B093A60114
:101A90003092A20126960FB6F894DEBF0FBECDBFDE
:101AA000CF91DF911F910F91FF90EF90DF90CF903A
:101AB000BF90AF909F908F907F906F905F904F906E
:101AC0003F9008952F923F924F925F926F927F9234
:101AD0008F929F92AF92BF92CF92DF92EF92FF923E
:101AE0000F931F937B018C0159016A010E947F288B
:101AF00060934B0270934C0280934D0290934E0280
:101B00008DE692E00E949D201B012C0181EB92E06A
:101B10000E949D203B014C018DE692E040E050E0A8
:101B200060E070E00E94182081EB92E040E050E01D
:101B300060E070E00E941820C801B7010E94803365
:101B40000E944D33AB01BC018DE692E00E943A1F2A
:101B5000C601B5010E9480330E944D33AB01BC0128
:101B600081EB92E00E943A1F80918C01882309F05A
:101B700042C08DE692E00E949D2020E030E040E0EF
:101B800050E00E94E132882324F457FA509457F829
:101B9000509481EB92E00E949D2020E030E040E0F4
:101BA00050E00E94E132882324F497FA909497F849
:101BB00090948DE692E0B201A1010E94182081EB81
:101BC00092E0B401A3010E94182015C080918C01FD
:101BD000882349F08DE692E00E94DC2381EB92E0BD
:101BE0000E94DC2308C08DE692E00E94B82381EBBE
:101BF00092E00E94B8238DE692E00E94A51D611537
:101C000071058105910549F481EB92E00E94A51DC3
:101C1000611571058105910539F00E94EA0A8091EC
:101C20009001882341F3D2CF0E94C1081F910F91E8
:101C3000FF90EF90DF90CF90BF90AF909F908F90EC
:101C40007F906F905F904F903F902F9008952F92CC
:101C50003F924F925F926F927F928F929F92AF923C
:101C6000BF92CF92DF92EF92FF920F931F93DF9379
:101C7000CF9300D000D0CDB7DEB73B014C01590166
:101C80006A01FA82E982C80162E070E00E942B35A5
:101C9000882777FD8095982F661A770A880A990A0F
:101CA000A61AB70AC80AD90A1C821B821801442442
:101CB00037FC4094542C2EC060E070E080E090E04F
:101CC000A20191010E94782F7B018C0160E070E0FD
:101CD00080E090E0A20191010E94782F9B01AC016D
:101CE0000027F7FC0095102FE60CF71C081D191DA6
:101CF000442737FD4095542F2A0D3B1D4C1D5D1D7B
:101D0000C801B7010E94620D2B813C812F5F3F4FBC
:101D10003C832B838B819C81E981FA81E817F90749
:101D20005CF60F900F900F900F90CF91DF911F9165
:101D30000F91FF90EF90DF90CF90BF90AF909F906A
:101D40008F907F906F905F904F903F902F9008956D
:101D50002F923F924F925F926F927F928F929F92BB
:101D6000AF92BF92CF92DF92EF92FF920F931F93A9
:101D7000DF93CF93CDB7DEB72C970FB6F894DEBFC5
:101D80000FBECDBF81E893E00E9480026D837E8309
:101D90008F839887A0908301BB24CC24DD248FE817
:101DA00093E00E94800269837A838B839C838DE910
:101DB00093E00E946202AA2797FDA095BA2FBC016A
:101DC000CD01A60195010E9400357B018C013B01EC
:101DD0008BEA93E00E9462022C016091A301709152
:101DE000A4018091A5019091A601A7010E949C09E0
:101DF000AC01C2016FEF70E00E9403057C01C601D7
:101E0000B5012D813E814F8158850E94003569873B
:101E10007A878B879C87C601B50129813A814B81DE
:101E20005C810E9400351B012C01882477FC809482
:101E3000982CC401B3010E9480332DEC3CEC4CE89B
:101E40005FE30E9434340E944D335B016C0169856D
:101E50007A858B859C85A201910185010E94270EC0
:101E60002C960FB6F894DEBF0FBECDBFCF91DF9199
:101E70001F910F91FF90EF90DF90CF90BF90AF90A8
:101E80009F908F907F906F905F904F903F902F909A
:101E900008952F923F924F925F926F927F928F920E
:101EA0009F92AF92BF92CF92DF92EF92FF920F93E9
:101EB0001F93DF93CF93CDB7DEB72A970FB6F89471
:101EC000DEBF0FBECDBF81E893E00E9480029B0180
:101ED000AC01E0908301FF2400E010E0C801B701ED
:101EE0000E9400356D837E838F8398878FE893E00F
:101EF0000E9480029B01AC01C801B7010E9400351D
:101F00001B012C018DE993E00E946202AA2797FD34
:101F1000A095BA2FBC01CD01A80197010E94003500
:101F20007B018C017C836B838BEA93E00E946202CD
:101F30009A838983C70162E070E00E942B354B01D0
:101F4000CB01880F991F3701681A790A8091A20185
:101F50008130C1F48DE692E00E94B51D7B018C01B9
:101F600081EB92E00E94B51D5B016C016D817E8169
:101F70008F819885A20191010E94B4048093A801E9
:101F80001092A9012091A8013091A90122303105B8
:101F9000F9F49401442737FD4095542FED80FE80DD
:101FA0000F811885E21AF30A040B150BC301AA2747
:101FB00097FDA095BA2FE80EF91E0A1F1B1F6D8012
:101FC0007E808F809884620E731E841E951E3DC095
:101FD00023303105C9F49401442737FD4095542F2F
:101FE00062015101A21AB30AC40AD50AC301AA2781
:101FF00097FDA095BA2FA80EB91ECA1EDB1E220E91
:10200000331E441E551E32C0C401AA2797FDA09559
:10201000BA2FA301662757FD6095762F243031052E
:10202000B9F4ED80FE800F811885E80EF91E0A1FB5
:102030001B1FE41AF50A060B170B6D807E808F803C
:102040009884681A790A8A0A9B0A6201510114C0AD
:102050005C016D01A20CB31CC41CD51CA41AB50AEA
:10206000C60AD70A281A390A4A0A5B0AED80FE8096
:102070000F811885370148016091A3017091A40177
:102080008091A5019091A6014B815C810E949C09E1
:10209000AC0189819A816FEF70E00E9403059A87F5
:1020A0008987C801B701A60195010E94620D898543
:1020B0009A8502974CF08B819C81BC0149855A8599
:1020C0002091A8010E94B50BC401B301A2019101A6
:1020D0000E94620D2A960FB6F894DEBF0FBECDBFE8
:1020E000CF91DF911F910F91FF90EF90DF90CF90F4
:1020F000BF90AF909F908F907F906F905F904F9028
:102100003F902F9008952F923F924F925F926F923F
:102110007F928F929F92AF92BF92CF92DF92EF9277
:10212000FF920F931F93DF93CF93CDB7DEB7E09766
:102130000FB6F894DEBF0FBECDBF2B013C019CA2B1
:102140008BA20E946A056B8F7C8F8D8F9E8FA3015F
:1021500092010E944F076F8B788F898F9A8FC801E9
:10216000B701A60195010E946A055B016C01A801F7
:1021700097010E944F077B018C01C601B50120E049
:1021800030E040EA51E40E94303418160CF014C2DA
:1021900060910A0270910B0280910C0290910D02E5
:1021A00064517040804090400E9480336F8F78A3CC
:1021B00089A39AA3C601B5012F8D38A149A15AA1BF
:1021C0000E94E13288230CF0F7C1C801B70120E07A
:1021D00030E040EA51E40E94303418160CF0ECC1B3
:1021E00060910E0270910F02809110029091110285
:1021F00064517040804090400E9480332B013C012C
:10220000C801B701A30192010E94E13288230CF0BA
:10221000D3C16B8D7C8D8D8D9E8D20E030E040EAAA
:1022200051E40E94303418160CF0C6C16B8D7C8DC1
:102230008D8D9E8D2F8D38A149A15AA10E94E1322A
:1022400088230CF0B9C16F89788D898D9A8D20E033
:1022500030E040EA51E40E94303418160CF0ACC172
:102260006F89788D898D9A8DA30192010E94E13248
:1022700088230CF0A1C110928F01C601B5012B8DEE
:102280003C8D4D8D5E8D0E947C321B012C01C8015E
:10229000B7012F89388D498D5A8D0E947C323B01C0
:1022A0004C01C201B10120E030E040E050E00E946A
:1022B000303418161CF48201710106C082017101CC
:1022C00017FB109517F91095C401B30120E030E019
:1022D00040E050E00E94303418161CF4A401930131
:1022E00003C0A40193015058C801B7010E943034C3
:1022F00018169CF021E030E03E8B2D8BD401C301F9
:10230000B0588DA79EA7AFA7B8ABABA1BCA15D018C
:10231000CC24B7FCC094DC2C4EC021E030E03E8BD6
:102320002D8BD201C101B05889A79AA7ABA7BCA732
:10233000ABA1BCA15D01CC24B7FCC094DC2C06C0D1
:102340002D893E892F5F3F4F3E8B2D8BC201B101FE
:1023500020E030E040E050E00E94303418161CF4D9
:102360008201710104C0E9A4FAA40BA51CA5AD89E2
:10237000BE89BD01882777FD8095982F0E94803304
:102380009B01AC01C801B7010E94E5327B018C01C1
:10239000C601B5010E9480339B01AC01C801B701A1
:1023A0000E943034181664F234C02D893E892F5FA4
:1023B0003F4F3E8B2D8BC401B30120E030E040E065
:1023C00050E00E94303418161CF48401730104C0DC
:1023D000EDA4FEA40FA518A9AD89BE89BD0188276B
:1023E00077FD8095982F0E9480339B01AC01C80136
:1023F000B7010E94E5327B018C01C601B5010E9444
:1024000080339B01AC01C801B7010E94303418161B
:1024100064F22D893E895901CC24B7FCC094DC2C90
:10242000C601B5010E9480337B018C01C201B1015C
:10243000A80197010E94E5326D837E838F83988780
:10244000C401B301A80197010E94E53269837A8330
:102450008B839C8310928C01198A1A8A1B8A1C8A8E
:1024600019861A861B861C86ADA2BEA2CFA2D8A64C
:102470006B8D7C8D8D8D9E8D2D813E814F815885FC
:102480000E947D326B8F7C8F8D8F9E8F6F89788DB0
:10249000898D9A8D29813A814B815C810E947D32A0
:1024A0006F8B788F898F9A8F6B8D7C8D8D8D9E8DA4
:1024B0002F89388D498D5A8D0E94AD076D877E8793
:1024C0008F87988B6B8D7C8D8D8D9E8D2F89388D10
:1024D000498D5A8D0E9476071B012C0169847A84EC
:1024E0008B849C848DA19EA1AFA1B8A5680E791E96
:1024F0008A1E9B1E69897A898B899C890E948033F8
:102500005B016C01609188017091890180918A0161
:1025100090918B0120E030E040E850E40E94343498
:102520007B018C01C401B301A60195010E94D6076D
:102530000E944D33698B7A8B8B8B9C8B0E948033EE
:102540007B018C018DE692E0B801A7010E94182062
:1025500081EB92E0B801A7010E9418206D857E856D
:102560008F8598890E944D337B018C01C201B10196
:102570000E944D339B01AC01C801B7010E94620D5E
:1025800089859A85AB85BC850197A109B1098987A1
:102590009A87AB87BC878D899E89A985BA858A0F62
:1025A0009B1F892B09F064CF81E080938F0180937A
:1025B0008C010E94C1080CC08DE794E067E971E0CE
:1025C0000E94CA2D8DE794E061E071E00E94712CB9
:1025D000E0960FB6F894DEBF0FBECDBFCF91DF916E
:1025E0001F910F91FF90EF90DF90CF90BF90AF9031
:1025F0009F908F907F906F905F904F903F902F9023
:1026000008952F923F924F925F926F927F928F9296
:102610009F92AF92BF92CF92DF92EF92FF920F9371
:102620001F93DF93CF9300D000D000D0CDB7DEB79B
:1026300081E893E00E945E027B018C01609183013E
:1026400070E0882777FD8095982F0E9480339B014A
:10265000AC01C801B7010E9434343B014C018FE842
:1026600093E00E945E027B018C01D09083018DE992
:1026700093E00E9462029E838D838DE692E00E9429
:10268000B51D69837A838B839C8381EB92E00E94E2
:10269000B51D1B012C01C401B30120E030E040EA6C
:1026A00051E40E94E13287FD30C06D2D70E0882733
:1026B00077FD8095982F0E9480339B01AC01C80163
:1026C000B7010E9434345B016C0120E030E040EA45
:1026D00051E40E94E13287FD18C00E94FE080E946A
:1026E00080339B01AC01C401B3010E943034181641
:1026F00064F00E94FE080E9480339B01AC01C60179
:10270000B5010E94303418166CF48DE794E067E947
:1027100071E00E94CA2D8DE794E067E271E00E94AB
:10272000712C16C069817A818B819C810E948033D3
:102730007B018C01C201B1010E9480339B01AC017D
:10274000C801B701840173018D809E800E948310AF
:1027500026960FB6F894DEBF0FBECDBFCF91DF91A6
:102760001F910F91FF90EF90DF90CF90BF90AF90AF
:102770009F908F907F906F905F904F903F902F90A1
:102780000895AF92BF92CF92DF92EF92FF920F9394
:102790001F9331E8C32E33E0D32EC6010E945E02A0
:1027A0007B018C016091830170E0882777FD809523
:1027B000982F0E9480339B01AC01C801B7010E9491
:1027C00034347B018C01C6010E945E025B016C0106
:1027D000C801B7010E944D337B018C0160918301D8
:1027E00070E0882777FD8095982F0E9480339B01A9
:1027F000AC01C601B5010E9434340E944D339B01E7
:10280000AC01C801B7010E94620D1F910F91FF90AA
:10281000EF90DF90CF90BF90AF900895EF92FF922E
:102820000F931F930DE612E0C8010E94912241EB25
:10283000E42E42E0F42EC7010E94912281E08093B1
:102840005002C8010E94B51DAB01BC014C5F5F4F37
:102850006F4F7F4FC8010E940D24C7010E94B51D14
:10286000AB01BC014C5F5F4F6F4F7F4FC7010E94B0
:102870000D24C8010E94B51DAB01BC01445050405D
:1028800060407040C8010E940D24C7010E94B51D20
:10289000AB01BC014450504060407040C7010E94F1
:1028A0000D241F910F91FF90EF9008956F927F92EA
:1028B0008F929F92AF92BF92CF92DF92EF92FF9250
:1028C0000F931F9381E893E00E9480025B016C01EB
:1028D000E0908301FF2400E010E08FE893E00E9485
:1028E00080023B014C01C801B701A60195010E947D
:1028F0000035AB01BC018DE692E00E94BB1DC80112
:10290000B701A40193010E940035AB01BC0181EB2A
:1029100092E00E94BB1D0E940E140E94C1081F91EC
:102920000F91FF90EF90DF90CF90BF90AF909F906E
:102930008F907F906F9008950F931F93AB01BC0110
:10294000409388015093890160938A0170938B01B1
:102950008DE692E00E94E822409188015091890121
:1029600060918A0170918B0181EB92E00E94E822D4
:102970000DE714E0C80160E871E00E942E2C409140
:1029800088015091890160918A0170918B01C80181
:1029900022E030E00E94B42E1F910F9108950F9312
:1029A0001F93CF93DF9381E893E00E945E020E9421
:1029B0009C14809116028330C1F48FE893E00E944A
:1029C0006202019791F408E811E06AE170E0EB011E
:1029D0002196F80141918F0189EE93E00E945426DF
:1029E000CE31D10511F0BE01F2CFDF91CF911F9111
:1029F0000F910895CF92DF92EF92FF920F931F9362
:102A00007C018B0159EEC52E53E0D52EC601B701CE
:102A1000F80140810E9454260894E11CF11CC60173
:102A2000B701F80141810E94542682E090E01F9195
:102A30000F91FF90EF90DF90CF9008950F931F9329
:102A4000AB01BC01409384015093850160938601E2
:102A5000709387018DE692E00E94C21F409184012D
:102A600050918501609186017091870181EB92E020
:102A70000E94C21F0DE714E0C8016CE871E00E94DB
:102A80002E2C4091840150918501609186017091B6
:102A90008701C80122E030E00E94B42E1F910F91FF
:102AA00008950F931F93CF93DF9381E893E00E94E3
:102AB0005E020E941E15809116028330C1F48FE8D9
:102AC00093E00E946202019791F404E811E066E14C
:102AD00070E0EB012196F80141918F0189EE93E0BE
:102AE0000E945426CA31D10511F0BE01F2CFDF9108
:102AF000CF911F910F910895CF92DF92EF92FF92A5
:102B00000F931F937C018B0169EEC62E63E0D62ED6
:102B1000C601B7010E944D26F80180830894E11C8C
:102B2000F11CC601B7010E944D26F801818382E0A5
:102B300090E01F910F91FF90EF90DF90CF9008955C
:102B40008AE290E06CEA71E00E947C158091AC0111
:102B50009091AD0197FF06C08AE590E09093AD019A
:102B60008093AC018DE794E068E772E00E942E2C20
:102B70006091AC017091AD018DE794E04AE050E0C6
:102B80000E94AB2D8CE290E06AEA71E00E947C1515
:102B90008091AA019091AB0197FF06C084EB90E071
:102BA0009093AB018093AA018DE794E069E672E00F
:102BB0000E942E2C6091AA017091AB018DE794E0E8
:102BC0004AE050E00E94AB2D0895DF93CF9300D0F0
:102BD00000D0CDB7DEB781E893E00E9462029A830D
:102BE00089838FE893E00E9462029C838B838DE748
:102BF00094E061EA71E00E942E2C69817A818DE770
:102C000094E04AE050E00E94AB2D8DE794E06CE93F
:102C100071E00E942E2C6B817C818DE794E04AE06C
:102C200050E00E94AB2D80911602843089F48AE234
:102C300090E0BE016F5F7F4F0E94FA148CE290E03B
:102C4000BE016D5F7F4F0E94FA140E94A0153AC02A
:102C50008330C1F569817A818B819C8143E050E0AA
:102C60000E94300A68EC70E080E090E00E94B32897
:102C70006B817C8189819A8143E050E00E94300A17
:102C800068EC70E080E090E00E94B32869817A816E
:102C90008B819C8143E050E00E94300A68EC70E038
:102CA00080E090E00E94B3286B817C8189819A81C9
:102CB00043E050E00E94300A68EC70E080E090E071
:102CC0000E94B3280F900F900F900F90CF91DF913B
:102CD000089580E090E06EE971E00E947C1580919B
:102CE0009E0190919F011816190644F08091B4013D
:102CF0009091B50190939F0180939E018DE794E0A0
:102D00006FEB72E00E942E2C60919E0170919F01EA
:102D10008DE794E04AE050E00E94AB2D82E090E025
:102D200060EA71E00E947C158091A0019091A10160
:102D30001816190644F08091B6019091B70190934E
:102D4000A1018093A0018DE794E060EB72E00E9406
:102D50002E2C6091A0017091A1018DE794E04AE0D2
:102D600050E00E94AB2D08950F931F93DF93CF93F4
:102D700000D000D000D0CDB7DEB781E893E00E944C
:102D800062028C019A8389838FE893E00E94620239
:102D90009C838B831E830D8380E090E0BE016B5F7C
:102DA0007F4F0E947C1529813A818D819E818217F7
:102DB000930751F02B3031053CF080E090E0BE01EC
:102DC0006F5F7F4F0E94FA1482E090E0BE016B5F5C
:102DD0007F4F0E947C152B813C818D819E818217C3
:102DE000930751F02B3031053CF082E090E0BE01BA
:102DF0006D5F7F4F0E94FA140E94691626960FB6E7
:102E0000F894DEBF0FBECDBFCF91DF911F910F9120
:102E10000895EF92FF920F931F93CF93DF93AC012E
:102E20009B01EB0174E0E72EF12CE20EF31E8A0108
:102E30000F5F1F4F89EE93E0BA010E944D268993E0
:102E4000A801CE15DF0599F784E090E0DF91CF91DE
:102E50001F910F91FF90EF90089586E190E064E854
:102E600071E00E9409176091840170918501809141
:102E70008601909187010E944D331616170664F063
:102E800080E090E0A8E4B4E480938401909385010D
:102E9000A0938601B09387018AE190E068E871E031
:102EA0000E940917609188017091890180918A01BF
:102EB00090918B010E944D331616170664F080E046
:102EC00090E0A8E4B4E48093880190938901A093F2
:102ED0008A01B0938B0108958EE090E06FE771E076
:102EE0000E94091760917F0170918001809181019A
:102EF0009091820120E030E040E85FE30E94E132FF
:102F0000882394F46091B0017091B101882777FD16
:102F10008095982F0E94803360937F017093800189
:102F200080938101909382018DE794E06FE972E0D4
:102F30000E942E2C40917F0150918001609181016F
:102F4000709182018DE794E022E030E00E94B42E7F
:102F500082E190E06DE771E00E947C1580917D0137
:102F600090917E011816190644F08091B20190915B
:102F7000B30190937E0180937D018DE794E069E831
:102F800072E00E942E2C60917D0170917E018DE790
:102F900094E04AE050E00E94AB2D089589EE93E062
:102FA00064E170E00E944D2680938301882321F420
:102FB0008091AE01809383018DE794E061E572E03A
:102FC0000E942E2C8DE794E0609183014AE050E04E
:102FD0000E94262D0895AF92BF92CF92DF92EF927A
:102FE000FF920F931F930E9469160E946C170E9414
:102FF000CE170E94A0150E942D178EE190E063EA83
:1030000071E00E9409176091A3017091A401809161
:10301000A5019091A60127E137EB41ED58E30E940D
:10302000E132882364F48DEC9CECACE4BFE3809344
:10303000A3019093A401A093A501B093A601A09031
:103040007F01B0908001C0908101D0908201609199
:10305000830170E080E090E020917D0130917E015D
:10306000442737FD4095542F0E9400350E9480333D
:103070007B018C01C601B501A80197010E94E532D0
:1030800060930202709303028093040290930502FE
:10309000C801B701A60195010E94E53260930602BE
:1030A0007093070280930802909309028DE794E0E1
:1030B0006EE372E00E942E2C4091020250910302B6
:1030C00060910402709105028DE794E022E030E007
:1030D0000E94B12E8DE794E06EE272E00E942E2CE9
:1030E0004091060250910702609108027091090216
:1030F0008DE794E022E030E00E94B12E8DE794E06D
:103100006CE272E00E94712C60919E0170919F01AF
:10311000882777FD8095982F0E94803320910602A2
:103120003091070240910802509109020E94343404
:103130000E944D3360930A0270930B0280930C023D
:1031400090930D028DE794E060E172E00E942E2CD6
:1031500040910A0250910B0260910C0270910D0295
:103160008DE794E02AE030E00E94442D8DE794E062
:103170006EE072E00E94712C6091A0017091A1013B
:10318000882777FD8095982F0E9480332091060232
:103190003091070240910802509109020E94343494
:1031A0000E944D3360930E0270930F0280931002C1
:1031B000909311028DE794E066E072E00E942E2C5D
:1031C0008DE794E060EF71E00E942E2C40910E029A
:1031D00050910F0260911002709111028DE794E0FE
:1031E0002AE030E00E94442D8DE794E06EEE71E01D
:1031F0000E942E2C8DE794E00E94512C1092120216
:103200001092130210921402109215021F910F9146
:10321000FF90EF90DF90CF90BF90AF900895DF9335
:10322000CF9300D0CDB7DEB781E893E00E94620271
:103230009A83898384E190E0BE016F5F7F4F0E9493
:10324000FA140E94EB170F900F90CF91DF91089521
:10325000DF93CF9300D0CDB7DEB781E893E00E9433
:1032600062029A83898382E190E0BE016F5F7F4FA3
:103270000E94FA140E94EB170F900F90CF91DF91EC
:103280000895EF92FF920F931F93DF93CF9300D097
:1032900000D0CDB7DEB781E893E00E945E0269837B
:1032A0007A838B839C837E010894E11CF11C6EE081
:1032B00070E08B010F5F1F4FF70141917F0189EE95
:1032C00093E00E945426B8010231110591F70E9443
:1032D000EB170F900F900F900F90CF91DF911F91F0
:1032E0000F91FF90EF900895CF93DF93C0E0D0E06F
:1032F00089EE93E0BE0140E00E9454262196C2333D
:10330000D105B1F70E94EB17DF91CF910895CF93CC
:10331000DF93C0E0D0E08DE794E0BE014AE050E0EA
:103320000E94982D8DE794E069E571E00E94CA2D16
:1033300089EE93E0BE010E944D26682F8DE794E050
:103340004AE050E00E94262D2196C832D10519F797
:10335000DF91CF910895CF92DF92EF92FF920F937A
:103360001F930E9487190DE714E0C80166EE71E013
:103370000E942E2C60919E0170919F01C8014AE02D
:1033800050E00E94982DFFECCF2EF1E0DF2EC80117
:10339000B6010E94CA2D6091A0017091A101C801DF
:1033A0004AE050E00E94982DE1EDEE2EE1E0FE2E85
:1033B000C801B7010E94C72EC8016AED71E00E94E2
:1033C0002E2C40917F01509180016091810170917C
:1033D0008201C80122E030E00E94B12EC801B7018D
:1033E0000E94C72EC8016BEC71E00E942E2C6091E8
:1033F0007D0170917E01C8014AE050E00E94982D45
:10340000C801B7010E94C72EC80169EB71E00E9494
:103410002E2CC801609183014AE050E00E94142DD7
:10342000C801B7010E94C72EC80161EB71E00E947C
:103430002E2C6091AC017091AD01C8014AE050E0C2
:103440000E94982DC801B6010E94CA2D6091AA0160
:103450007091AB01C8014AE050E00E94982DC8016C
:10346000B7010E94C72EC80168EA71E00E942E2CA5
:10347000409184015091850160918601709187018E
:10348000C80122E030E00E94B12EC801B6010E94BE
:10349000CA2D409188015091890160918A017091F3
:1034A0008B01C80122E030E00E94B12EC801B701B3
:1034B0000E94C72E1F910F91FF90EF90DF90CF9049
:1034C0000895CF93DF93EC016CEF72E00E94CA2F56
:1034D000882319F00E94C113B3C0CE0162E473E0E7
:1034E0000E94CA2F882319F00E940113A9C0CE019F
:1034F00063E073E00E94CA2F882319F00E947209CA
:103500009FC0CE016CE673E00E94CA2F882319F099
:103510000E94511595C0CE0163E773E00E94CA2F47
:10352000882319F00E94CF148BC0CE016AE073E0AB
:103530000E94CA2F882319F00E94490F81C0CE0132
:1035400061E173E00E94CA2F882319F00E94A80E3F
:1035500077C0CE0168E173E00E94CA2F882319F07A
:103560000E945C096DC0CE016FE173E00E94CA2F1A
:10357000882319F00E947B0C63C0CE0166E273E0E1
:103580000E94CA2F882319F00E94561459C0CE01F8
:103590006DE273E00E94CA2F882319F00E947A0A14
:1035A0004FC0CE0164E373E00E94CA2F882319F054
:1035B0000E94AB0A45C0CE016BE373E00E94CA2FA4
:1035C000882319F00E94E5153BC0CE0169E473E041
:1035D0000E94CA2F882319F00E94B41631C0CE0170
:1035E0006EE573E00E94CA2F882319F00E944119EA
:1035F00027C0CE0165E673E00E94CA2F882319F028
:103600000E9428191DC0CE016AE773E00E94CA2FEC
:10361000882319F00E940F1913C0CE0160E573E0F2
:103620000E94CA2F882319F00E94AB1909C0CE014D
:1036300067E573E00E94CA2F882319F00E9474196D
:1036400081E0DF91CF91089581E692E062E043E06E
:103650000E94B326089581E692E061E043E00E9473
:10366000B326089585E592E062E043E00E94B32628
:10367000089585E592E061E043E00E94B326089555
:10368000EF92FF920F931F937C010DE714E0C801A6
:1036900067E971E00E94CA2DC801B7010E94DA2EC5
:1036A000C8016DEC72E00E94712C1F910F91FF9088
:1036B000EF900895CF93DF93EC010E94611A882365
:1036C00029F4CE010E94401B0E946B09DF91CF912B
:1036D0000895CF92DF92EF92FF920F931F93DF93A3
:1036E000CF93CDB7DEB7BC01CDB6DEB6FC010190FD
:1036F0000020E9F73197E81BF90B8DB79EB78E1BB9
:103700009F0B0FB6F8949EBF0FBE8DBF0DB71EB7AF
:103710000F5F1F4FC8010E94BE02C8016FEC71E02D
:103720000E94A7028C011092810310928F031092C5
:103730009D031092AB03EE24FF24FF2019F489EBC4
:1037400093E038C080E090E06FEC71E00E94A70247
:103750008C01009741F081ED91E0B8010E94D30205
:10376000009709F4E39492E0F91699F09F1520F080
:1037700081E0F81611F507C093E0F91681F084E0B6
:10378000F816D9F412C001151105B9F081E893E0DB
:1037900011C00115110589F08FE893E00BC00115E8
:1037A000110559F08DE993E005C00115110529F0C7
:1037B0008BEA93E0B8010E94BE02F39496E0F916FA
:1037C00009F0BBCFE09216020FB6F894DEBE0FBE32
:1037D000CDBECF91DF911F910F91FF90EF90DF90C1
:1037E000CF900895CF93DF93EC0161ED71E00E94DB
:1037F000D302FC01148261ED71E00E94B5020097D2
:1038000011F080E004C0CE010E94691B81E0DF91CD
:10381000CF910895EF92FF920F931F93DF93CF9371
:10382000CDB7DEB727970FB6F894DEBF0FBECDBF7A
:103830007C010E94F21B8823E9F08E010F5F1F4F6D
:10384000C80167E172E00E944630C8010E945A1B1D
:10385000C8010E94603080E090E0F701E80FF91F96
:103860001082019682339105C1F710924A020E949C
:103870006B0917C08DE794E067E971E00E94CA2DDB
:103880008DE794E061E073E00E942E2C8DE794E0D8
:10389000B7010E94CA2D8DE794E063EF72E00E94A9
:1038A000712C1092160227960FB6F894DEBF0FBE49
:1038B000CDBFCF91DF911F910F91FF90EF900895B1
:1038C0008F929F92AF92BF92CF92DF92EF92FF9230
:1038D0000F931F93CF93DF934C010E947F2820E02A
:1038E00030E0F401E20FF31F10822F5F3F4F2233CD
:1038F0003105B9F7AC01CB01DA015C016D01C0E023
:10390000D0E0EE24FF2487010E947F282097A9F0B1
:103910006E197F09800B910B653671058105910544
:1039200064F080E090E0F401E80FF91F1082019646
:1039300082339105C1F7C0E0D0E00E94EA0A0E94FC
:103940007F286A197B098C099D092091910130918A
:103950009201442737FD4095542F26173707480713
:1039600059074CF40E946B090E947F28AC01CB01DF
:10397000DA015C016D018DE794E00E94F52A1816CA
:10398000190614F68DE794E00E94262BF401EC0F43
:10399000FD1F8A3051F41082CE0102C011920196AF
:1039A00081339105DCF311E003C08083219610E0A0
:1039B0000E947F28112331F4AC01CB01DA017C0194
:1039C0008D01A2CF0E947F280E947F2860934B0226
:1039D00070934C0280934D0290934E02609351027B
:1039E00070935202809353029093540281E0DF91CE
:1039F000CF911F910F91FF90EF90DF90CF90BF90EC
:103A0000AF909F908F90089587E192E00E94601C94
:103A1000882321F087E192E00E940A1C0895EF922A
:103A2000FF920F931F938DE794E040E051EE60E02A
:103A300070E00E946E2A8DE794E06CE571E00E94D0
:103A4000CA2D8DE794E00E94512C0E94EB170E9432
:103A50000D0A409184015091850160918601709119
:103A600087018DE692E00E94C21F4091880150912B
:103A7000890160918A0170918B018DE692E00E942C
:103A8000E8224091840150918501609186017091F6
:103A9000870181EB92E00E94C21F40918801509102
:103AA000890160918A0170918B0181EB92E00E9403
:103AB000E82260918D0170918E01882777FD8095B5
:103AC000982F0E94803320917F0130918001409196
:103AD0008101509182010E94E5327B018C0160914D
:103AE0007D0170917E01882777FD8095982F0E9437
:103AF00080339B01AC01C801B7010E9434340E949D
:103B00004D337B018C018DE692E0B801A7010E9444
:103B1000BB1D81EB92E0B801A7010E94BB1DE7E14C
:103B2000F2E0119282E0E934F807D9F70E946B09BC
:103B30000E94AB0A64EF71E080E090E00E94B3283D
:103B40001F910F91FF90EF900895FC012785308918
:103B50004189528983859485A585B685281B390BB3
:103B60004A0B5B0BB901CA010895FC01638574859A
:103B7000858596850895FC014387548765877687F8
:103B80004787508B618B728B13AA14AA15AA16AAA9
:103B900013A214A215A216A208956F927F928F927B
:103BA0009F92AF92BF92CF92DF92EF92FF920F93CC
:103BB0001F93CF93DF93EC01AF84B888C988DA886C
:103BC0008B859C85AD85BE85A81AB90ACA0ADB0A11
:103BD0002B893C894D895E89CA01B9010E94343420
:103BE0007B018C012B8D3C8D4D8D5E8DCA01B90101
:103BF0000E947D329B01AC01C801B7010E94E532F1
:103C00000E944D339B01AC01A114B104C104D10445
:103C1000B9F462307105810591050CF085C01BA2D5
:103C20001CA21DA21EA280E090E0A0E0B0E08B8B61
:103C30009C8BAD8BBE8B1BAA1CAA1DAA1EAA0BC1F6
:103C4000EBA8FCA80DA91EA91A141B041C041D0432
:103C500044F51E141F041006110674F46A157B0542
:103C60008C059D05B4F5CD5BDF4F8881C354D040F2
:103C7000882309F059C02DC0E114F1040105110594
:103C800009F452C06A157B058C059D050CF04CC0EB
:103C9000CD5BDF4F8881C354D040813009F044C0F0
:103CA00038C01E141F0410061106DCF4882799275B
:103CB000DC018A199B09AC09BD09281739074A0795
:103CC0005B073CF4CD5BDF4F8881C354D04081302B
:103CD00059F588279927DC01821B930BA40BB50BA0
:103CE0001FC0E114F10401051105F1F0882799279F
:103CF000DC018A199B09AC09BD09281739074A0755
:103D00005B0794F4CD5BDF4F8881C354D040882398
:103D100059F488279927DC018E199F09A00BB10B54
:103D20008BAB9CABADABBEAB6BA87CA88DA89EA8A3
:103D30006114710481049104A9F48FA998ADA9AD0F
:103D4000BAAD8BAF9CAFADAFBEAFFE01ED5BFF4F29
:103D500010821A141B041C041D040CF049C081E0DD
:103D6000808346C0ABACBCACCDACDEACC601B5010B
:103D700020E030E040E050EC0E9434347B018C01C4
:103D8000C401B3010E94803320E030E040E850E4F9
:103D90000E94343420E030E040E85FE30E947D324E
:103DA0009B01AC01C801B7010E94E5329B01AC0147
:103DB000C601B5010E947D327B018C016BAF7CAFE7
:103DC0008DAF9EAFEF96A880B980CA80DB80EF9759
:103DD0009501A6010E943034181624F4D801C701B9
:103DE00057016D01C501D6018BAF9CAFADAFBEAF22
:103DF0008BA99CA9ADA9BEA90196A11DB11D8BAB34
:103E00009CABADABBEAB6BAD7CAD8DAD9EAD0E9442
:103E100052336BA37CA38DA39EA360E074E284E77E
:103E200099E42BAD3CAD4DAD5EAD0E94E5329B01FA
:103E3000AC016B8B7C8B8D8B9E8BCD5BDF4F888138
:103E4000C354D040882339F4DA01C901B0588B8BB0
:103E50009C8BAD8BBE8BDF91CF911F910F91FF900B
:103E6000EF90DF90CF90BF90AF909F908F907F901A
:103E70006F900895FC0187859089A189B289841784
:103E80009507A607B70739F04787508B618B728B70
:103E9000CF010E94CD1D0895FC01DB01CA014385BD
:103EA000548565857685480F591F6A1F7B1FCF0192
:103EB0000E943A1F0895CF92DF92EF92FF920F93E4
:103EC0001F93FC018AED91E0918380831282138617
:103ED0001486158616861786108A118A128A0F2E66
:103EE000F0E0CF2EF0E0DF2EF0E0EF2EF0E0FF2E3E
:103EF000F02DC38AD48AE58AF68A00E010E020E833
:103F00003FE3078B108F218F328F038F148F258F04
:103F1000368F078F10A321A332A313A214A215A2D8
:103F200016A281E090E094A783A78FEF86A717A23F
:103F300010A611A612A6138214821582168270ABE7
:103F400067A752AB41AB13AA14AA15AA16AAC7AA0F
:103F5000D0AEE1AEF2AEC3AED4AEE5AEF6AEFF96F5
:103F600001931193219331931082E354F04017820F
:103F70001086118612861F910F91FF90EF90DF90AF
:103F8000CF900895EF92FF920F931F93CF93DF93FB
:103F9000EC017A018B016F89788D898D9A8DA8014A
:103FA00097010E94E1328823E1F1EF8AF88E098FB0
:103FB0001A8FEF9660E074E284E799E4A801970114
:103FC0000E94E532688379838A839B83EF978BA96C
:103FD0009CA9ADA9BEA9181619061A061B060CF550
:103FE0002B893C894D895E89CA01B9010E9434340C
:103FF0007B018C012B8D3C8D4D8D5E8DCA01B901ED
:104000000E947D329B01AC01C801B7010E94E532DC
:104010000E944D336BAB7CAB8DAB9EABCE010E944F
:10402000CD1DDF91CF911F910F91FF90EF900895DB
:104030004F925F926F927F928F929F92AF92BF92B8
:10404000CF92DF92EF92FF920F931F93CF93DF9364
:104050002C017A018B01CB01BA01F2012389348949
:10406000458956890E94E132882309F455C0F2013E
:10407000A788B08CC18CD28C3501460197FA9094F8
:1040800097F89094C801B701A40193010E94E1320E
:1040900088231CF4840173010AC0C801B701A6017A
:1040A00095010E943034181614F486017501C80178
:1040B000B70120E030E040E050E00E94E132882388
:1040C00031F4F20113A214A215A216A220C060E0DE
:1040D00074E284E799E4A80197010E94E5329F7792
:1040E0000E945233F20163A374A385A396A3E20155
:1040F000CD5BDF4F1882C801B70120E030E040E01F
:1041000050E00E943034181614F481E08883F201E4
:10411000E38AF48A058B168BDF91CF911F910F9163
:10412000FF90EF90DF90CF90BF90AF909F908F90D7
:104130007F906F905F904F900895FC0123893489A0
:1041400045895689B901CA010895DC0112968C91FE
:104150001297833001F1843040F4813089F0ED9181
:10416000FC911197823098F407C0863011F18830A5
:1041700049F1843079F516C00480F581E02D1FC027
:10418000ED91FC9111970680F781E02D18C0008415
:10419000F185E02D14C0ED91FC9111970284F38517
:1041A000E02D0DC0ED91FC9111970484F585E02D73
:1041B00006C0ED91FC9111970684F785E02DCD01A5
:1041C00009950895ED91FC9111970088F189E02DF2
:1041D000CD0109950895CF93DF93EC016B897C891C
:1041E0008D899E8920E030E040E050E00E9430342C
:1041F00018161CF4EFA5F8A902C0E9A9FAA90995B7
:10420000DF91CF910895DC0170E0637070706130D0
:104210007105A9F0623071051CF4672B41F0089517
:1042200062307105A1F06330710501F518C0ED91A0
:10423000FC9111970190F081E02D62E00EC0ED91AC
:10424000FC9111970190F081E02D63E006C0ED91A3
:10425000FC910190F081E02D61E009950895ED91C8
:10426000FC910190F081E02D60E009950895DC015A
:10427000862F63E00E941F35913071F0913018F065
:104280009230E9F413C0ED91FC9111970190F08107
:10429000E02DCD0164E008C0ED91FC9111970190F3
:1042A000F081E02DCD0161E009950895ED91FC913B
:1042B00011970190F081E02DCD0162E009950895FC
:1042C000DC0170E06370707061307105A9F06230DC
:1042D00071051CF4672B41F0089562307105A1F05F
:1042E0006330710501F518C0ED91FC9111970190B3
:1042F000F081E02D65E00EC0ED91FC9111970190E9
:10430000F081E02D66E006C0ED91FC910190F08116
:10431000E02D6AE009950895ED91FC910190F081FE
:10432000E02D69E009950895DC01862F66E00E9482
:104330001F35923009F1933030F4992359F09130C0
:1043400009F03FC010C0943049F19430F0F095303E
:10435000C1F52EC0ED91FC9111970190F081E02DF7
:10436000CD0164E023C0ED91FC9111970190F081A3
:10437000E02DCD0165E01AC0ED91FC9111970190FF
:10438000F081E02DCD0161E011C0ED91FC9111971C
:104390000190F081E02DCD0163E008C0ED91FC912A
:1043A00011970190F081E02DCD0162E0099508950B
:1043B000ED91FC9111970190F081E02DCD0166E027
:1043C00009950895DC0170E06770707063307105C5
:1043D00091F1643071054CF461307105E1F06230A7
:1043E00071050CF5672B79F008956530710599F129
:1043F0006530710544F166307105A9F167307105CA
:1044000009F040C038C0ED91FC9111970190F08106
:10441000E02D61E02EC0ED91FC9111970190F081AB
:10442000E02D65E026C0ED91FC9111970190F0819F
:10443000E02D64E01EC0ED91FC9111970190F08198
:10444000E02D66E016C0ED91FC9111970190F0818E
:10445000E02D62E00EC0ED91FC9111970190F0818A
:10446000E02D6AE006C0ED91FC910190F081E02D15
:1044700068E009950895ED91FC910190F081E02D9F
:1044800069E009950895CF93DF93EC018A81882331
:1044900071F0E881F9810190F081E02DCE0160E0BA
:1044A00009958EA58F3F19F06DA50E949029DF9187
:1044B000CF910895CF92DF92EF92FF920F931F93C7
:1044C000CF93DF93FC012281243029F0283019F0AA
:1044D00092E0D92E02C084E0D82E8F01C0E0D0E057
:1044E000E62EFF24CC24C394F8012381C7010C2EAF
:1044F00002C0959587950A94E2F7678180FD6C2547
:10450000822F0E94902921960F5F1F4FCD1560F3D7
:10451000DF91CF911F910F91FF90EF90DF90CF909F
:104520000895CF93DF93EC018A81882311F18B8169
:1045300061E00E9451298C8161E00E9451298A81A9
:10454000843011F0883041F48D8161E00E9451295E
:104550008E8161E00E9451299EA59F3F51F06DA57B
:1045600081E06827892F0E9490298EA561E00E9432
:104570005129DF91CF910895CF93DF93EC01E8812A
:10458000F9810190F081E02DCD5BDF4F8881C3542C
:10459000D040882311F461E001C063E0CE010995A9
:1045A0008BA59CA50E940C29E881F9810190F081DE
:1045B000E02DCD5BDF4F8881C354D040882311F4B8
:1045C00060E001C062E0CE010995DF91CF910895CE
:1045D0006F927F928F929F92AF92BF92CF92DF9213
:1045E000EF92FF920F931F93CF93DF93EC013A0169
:1045F0004B01CB01BA0120E030E040E050E00E94E6
:10460000E132882309F441C0AB8CBC8CCD8CDE8CAC
:10461000C601B501A40193010E94E1328823A9F1EA
:104620006BA97CA98DA99EA90E9480337B018C0176
:10463000C601B501A40193010E94E5329B01AC01C2
:10464000C801B7010E9434340E944D336BAB7CAB80
:104650008DAB9EAB60E070E080E090E4A40193013C
:104660000E94E5320E949B3420E034E244E759E4A2
:104670000E9434346FAB78AF89AF9AAF6B8E7C8E6B
:104680008D8E9E8ECE010E94CD1DDF91CF911F9108
:104690000F91FF90EF90DF90CF90BF90AF909F90E1
:1046A0008F907F906F900895EF92FF920F931F93DA
:1046B000CF93DF93EC018BA19CA1ADA1BEA100978C
:1046C000A105B10509F44CC00E948D287B018C0125
:1046D0002FA138A549A55AA58BA19CA1ADA1BEA12A
:1046E000820F931FA41FB51F82179307A407B50756
:1046F00030F0E816F9060A071B0758F405C0E8165B
:10470000F9060A071B0760F1E216F306040715070E
:1047100038F5CD5BDF4F8881C354D0402B853C8575
:104720004D855E85813029F42F5F3F4F4F4F5F4F9E
:1047300004C021503040404050402B873C874D877B
:104740005E87E881F9816B8567700280F381E02DD7
:10475000CE010995EFA2F8A609A71AA781E001C02A
:1047600080E0DF91CF911F910F91FF90EF9008951E
:10477000CF93DF93FC012785308941895289838556
:104780009485A585B685281739074A075B0711F474
:1047900080E00FC0EF01CD5BDF4F82179307A407C6
:1047A000B5071CF481E0888301C01882CF010E9404
:1047B0005423DF91CF910895CF93DF93EC010E94B2
:1047C0005423882319F0CE010E94CD1D81E0DF9192
:1047D000CF910895CF93DF93EC016B897C898D890C
:1047E0009E8920E030E040E050E00E94E1328823E2
:1047F00069F42F85388949895A898B859C85AD85CF
:10480000BE85281739074A075B0721F0CE010E94B1
:10481000DC23E3CFDF91CF9108950F931F938C0199
:104820000E943A1FC8010E94EA231F910F91089528
:10483000FC018091C3038C3090F482838F5F80935E
:10484000C303815090E0FC01EE0FFF1FE80FF91F3A
:10485000EC53FC4F88EB9BE09283818308958FEFAC
:1048600082830895DC0112968C91129790E0FC01EE
:10487000EE0FFF1FE80FF91FEC53FC4F80818F7B79
:10488000808312968C916CE00E941F3590E0AC0101
:10489000440F551F480F591F440F551F440F551FF4
:1048A00020E030E0C901840F951FFC01EE0FFF1FCF
:1048B000E80FF91FEC53FC4F808186FD05C02F5F88
:1048C0003F4F2C30310571F70895FC0122812C30C7
:1048D000B8F58081992787FD909548E850E0481BFE
:1048E000590B440F551F440F551F6417750784F06B
:1048F0008181992787FD909548E552E0481B590B27
:10490000440F551F440F551F641775070CF4AB0176
:1049100042505040CA01AA2797FDA095BA2F880F90
:10492000991FAA1FBB1F4FB7F89430E0F901EE0F93
:10493000FF1FE20FF31FEC53FC4F928381834FBFA5
:104940000895AF92BF92CF92DF92EF92FF920F93B2
:104950001F93CF93DF93EC019B0182E060327807D5
:104960000CF048C077FF03C020E030E005C0653B95
:10497000710514F024EB30E000D000D0B901882795
:1049800077FD8095982F2881332727FD3095E8E81B
:10499000AE2EB12CA21AB30AAA0CBB1CAA0CBB1CCB
:1049A000CC24B7FCC094DC2CE981FF27E7FDF0950F
:1049B00028E532E02E1B3F0B220F331F220F331F3F
:1049C000442737FD4095542FEDB7FEB7218332833E
:1049D0004383548320E030E040E050E004EBE02EDD
:1049E000F12C012D112D0E940D2F9B010F900F9086
:1049F0000F900F90CE01B9010E946524DF91CF91F5
:104A00001F910F91FF90EF90DF90CF90BF90AF90EC
:104A10000895CF92DF92EF92FF921F93CF93DF938F
:104A2000EC01162F7A0169018A818C3008F064C08C
:104A3000862F61E00E9451298A8190E0FC01EE0FEF
:104A4000FF1FE80FF91FEC53FC4F1F738081807C20
:104A5000812B808380E292E08E199F0964E070E0F0
:104A60000E942B35688380E699E08C199D0964E0EB
:104A700070E00E942B356983AA818A2F6CE00E9426
:104A80001F35682F70E0AB01440F551F460F571FAD
:104A9000440F551F440F551F20E030E0C901840F1B
:104AA000951FFC01EE0FFF1FE80FF91FEC53FC4FA1
:104AB000808186FD15C02F5F3F4F2C30310571F787
:104AC00024C01092800082E08093810010928500C3
:104AD00010928400B19A80916F00826080936F0081
:104AE0008A2F90E0FC01EE0FFF1FE80FF91FEC5337
:104AF000FC4F8081806480838A81DF91CF911F91F8
:104B0000FF90EF90DF90CF900895672BD1F2E8CF20
:104B100040E252E020E639E00E94092508951F9204
:104B20000F920FB60F9211242F933F934F935F93E1
:104B30006F937F938F939F93AF93BF93EF93FF9365
:104B40008091E80387FF05C01092850010928400D1
:104B50002BC02091E803332727FD30958091C303B4
:104B600090E02817390704F58091E803992787FD1D
:104B70009095FC01EE0FFF1FE80FF91FEC53FC4F5F
:104B8000808186FF11C08091E803992787FD909569
:104B9000FC01EE0FFF1FE80FF91FEC53FC4F808163
:104BA0008F7360E00E9490298091E8038F5F80936B
:104BB000E8032091E803332727FD30958091C30354
:104BC00090E0281739070CF04EC08091E8038C3034
:104BD0000CF049C020918400309185008091E80359
:104BE000992787FD9095FC01EE0FFF1FE80FF91F35
:104BF000EC53FC4F81819281280F391F309389003B
:104C0000209388008091E803992787FD9095FC0107
:104C1000EE0FFF1FE80FF91FEC53FC4F808186FF5A
:104C20002BC08091E803992787FD9095FC01EE0F3A
:104C3000FF1FE80FF91FEC53FC4F80818F7361E079
:104C40000E94902919C080E49CE905C080918400ED
:104C500090918500049690938900809388008FEF4F
:104C60008093E80309C080918400909185000496A8
:104C700080549C4940F3EACFFF91EF91BF91AF91EF
:104C80009F918F917F916F915F914F913F912F9164
:104C90000F900FBE0F901F901895F999FECF72BD1F
:104CA00061BDF89A80B50895F999FECF1FBA72BD1B
:104CB00061BD40BD0FB6F894FA9AF99A0FBE0895F7
:104CC0001092EA030895E0EBF0E0908193689083FE
:104CD00087708093B1001092B3008BE061E00E9476
:104CE00051290895E0EBF0E0908193629083877002
:104CF0008093B1001092B40083E061E00E945129DA
:104D00000895CF93DF938CE060E00E94902988E0C3
:104D100060E00E949029C7E0D0E084E060E00E945B
:104D200090298091EB0390E00C2E02C09595879519
:104D30000A94E2F780FF03C088E061E002C088E0E7
:104D400060E00E94902984E061E00E949029219710
:104D50008FEFCF3FD80709F78CE061E00E949029E0
:104D6000DF91CF9108950F931F93CF93DF93EC01C1
:104D7000142F8A81813029F404E042E058E070E188
:104D800008C0823011F080E0E0C000E241E050E86D
:104D900070E4113041F49B85892F86958695869520
:104DA00080FF10C009C01230A1F49B85892F869521
:104DB0008695869580FD06C0613011F4985F05C028
:104DC000985003C0613019F4905F9B8752C0905196
:104DD000FCCF133041F48B85613011F4885F01C042
:104DE00088508B8746C0143009F043C08B856130F2
:104DF00011F48F5F01C081508B87AB85AF73AB8798
:104E0000A03148F4B0E0E8ECF1E0EA1BFB0B2081B4
:104E1000A854BE4F19C08A2F8051803148F48A2F80
:104E200090E0FC01E855FE4F2081E8EDF1E01DC067
:104E30008A2F8052803150F4B0E0E8EEF1E0EA1BB6
:104E4000FB0B2081A856BE4F8C9115C08A2F805332
:104E5000803118F080E020E00EC08A2F90E0FC0145
:104E6000E857FE4F2081E8EFF1E0E81BF90B808165
:104E700002C08FEF2FEF3B853F733B879A819130C4
:104E800029F42093B3008093B40004C0923011F44D
:104E900027BD88BD242F202B672F652B962F922BA3
:104EA00090958091EB0398239093EB03143019F5C0
:104EB000303118F4922B9093EB03832F8051803183
:104EC00030F4452B8091EB03842B8093EB03832FED
:104ED0008052803130F4572B8091EB03852B8093E7
:104EE000EB033053303160F5702B8091EB03872B4F
:104EF0008093EB0325C0832F869586958695833016
:104F0000B1F0843028F4813071F0823070F409C03F
:104F1000853081F0853060F0863079F0873081F41B
:104F20000BC0902B0BC0922B09C0942B07C0542BA5
:104F3000952B04C0962B02C0702B972B9093EB03FC
:104F40008AEE93E00E9481268B85DF91CF911F919D
:104F50000F9108950F931F938C018CE061E00E94E4
:104F6000512987E061E00E94512988E061E00E94B8
:104F7000512984E061E00E9451291092EB03C8019D
:104F80000E94812687E060E00E9490291F910F9186
:104F90000895DF92EF92FF920F931F938C017B0194
:104FA000D42E8AEE93E00E94AA27F801F182E082D3
:104FB000D2821386F1E0DF1629F58091EB03817E22
:104FC0008093EB038AEE93E00E9481268BE061E000
:104FD0000E94512983E061E00E9451298BE061E049
:104FE0000E94902983E061E00E94902981E00E9464
:104FF000632681E00E9472268FEF8093B300809336
:10500000B4002FC082E0D81661F58091EB038E7159
:105010008093EB038AEE93E00E94812685E061E0B5
:105020000E94512986E061E00E94512985E061E0FB
:105030000E94902986E061E00E94902984B58368EF
:1050400084BD17BC86E061E00E94512984B583626B
:1050500084BD18BC85E061E00E9451298FEF87BDB7
:1050600088BD1F910F91FF90EF90DF9008951F92E0
:105070000F920FB60F9211242F933F938F939F930C
:10508000AF93BF938091F0039091F103A091F2034D
:10509000B091F3033091F4030196A11DB11D232FAC
:1050A0002D5F2D3720F02D570196A11DB11D2093A6
:1050B000F4038093F0039093F103A093F203B09371
:1050C000F3038091EC039091ED03A091EE03B09176
:1050D000EF030196A11DB11D8093EC039093ED03A6
:1050E000A093EE03B093EF03BF91AF919F918F9187
:1050F0003F912F910F900FBE0F901F9018958FB773
:10510000F8942091F0033091F1034091F203509113
:10511000F3038FBFB901CA0108959FB7F894209196
:10512000EC033091ED034091EE035091EF0386B50F
:10513000A89B06C08F3F21F02F5F3F4F4F4F5F4F1F
:105140009FBF542F432F322F2227280F311D411D7F
:10515000511D82E0220F331F441F551F8A95D1F73E
:10516000B901CA0108959B01AC017FB7F894809101
:10517000EC039091ED03A091EE03B091EF0366B5BF
:10518000A89B05C06F3F19F00196A11DB11D7FBFFF
:10519000BA2FA92F982F8827860F911DA11DB11D09
:1051A00062E0880F991FAA1FBB1F6A95D1F7BC0147
:1051B0002DC0FFB7F8948091EC039091ED03A0917E
:1051C000EE03B091EF03E6B5A89B05C0EF3F19F0E1
:1051D0000196A11DB11DFFBFBA2FA92F982F8827B7
:1051E0008E0F911DA11DB11DE2E0880F991FAA1F0E
:1051F000BB1FEA95D1F7861B970B885E9340C8F2D8
:10520000215030404040504068517C4F21153105BD
:105210004105510571F60895019739F0880F991FDE
:10522000880F991F02970197F1F70895789484B534
:10523000826084BD84B5816084BD85B5826085BD92
:1052400085B5816085BDEEE6F0E080818160808378
:10525000E1E8F0E01082808182608083808181605B
:105260008083E0E8F0E0808181608083E1EBF0E022
:10527000808184608083E0EBF0E0808181608083C6
:10528000EAE7F0E0808184608083808182608083AF
:105290008081816080838081806880831092C100DA
:1052A0000895CF93DF93482F50E0CA01865C9C4F4E
:1052B000FC0134914A5D5C4FFA018491882369F1C5
:1052C00090E0880F991FFC01E85FFC4FA591B49115
:1052D000FC01EE5EFC4FC591D491662351F42FB7CB
:1052E000F8948C91932F909589238C9388818923AE
:1052F0000BC0623061F42FB7F8948C91932F909586
:1053000089238C938881832B88832FBF06C09FB706
:10531000F8948C91832B8C939FBFDF91CF9108954C
:10532000482F50E0CA01825B9C4FFC012491CA01C6
:10533000865C9C4FFC0194914A5D5C4FFA0134916C
:10534000332309F440C0222351F1233071F024307B
:1053500028F42130A1F0223011F514C02630B1F02C
:105360002730C1F02430D9F404C0809180008F77B9
:1053700003C0809180008F7D8093800010C084B531
:105380008F7702C084B58F7D84BD09C08091B00045
:105390008F7703C08091B0008F7D8093B000E32FA2
:1053A000F0E0EE0FFF1FEE5EFC4FA591B4912FB71A
:1053B000F894662321F48C919095892302C08C91F6
:1053C000892B8C932FBF089508951F920F920FB6CB
:1053D0000F9211242F933F934F938F939F93EF93AB
:1053E000FF938091C00082FD1DC04091C6002091B6
:1053F0003504309136042F5F3F4F2F73307080910A
:105400003704909138042817390771F0E09135047A
:10541000F0913604EB50FC4F4083309336042093D8
:10542000350402C08091C600FF91EF919F918F914A
:105430004F913F912F910F900FBE0F901F90189595
:10544000E0918904F0918A04E05CFF4F8191919191
:1054500020813181821B930B8F739070892B11F007
:105460000E94E42908951F920F920FB60F92112403
:105470002F933F938F939F93EF93FF932091790402
:1054800030917A0480917B0490917C04281739072D
:1054900031F48091C1008F7D8093C10014C0E091F0
:1054A0007B04F0917C04E75CFB4F208180917B04BE
:1054B00090917C0401968F73907090937C048093FC
:1054C0007B042093C600FF91EF919F918F913F91B4
:1054D0002F910F900FBE0F901F901895AF92BF9213
:1054E000DF92EF92FF920F931F93CF93DF93EC0124
:1054F0007A018B01DD24403081EE580780E0680797
:1055000080E0780711F0DD24D39491E0A92EB12C2E
:10551000EC89FD89DD2069F0C50108A002C0880F73
:10552000991F0A94E2F7808360E079E08DE390E0D0
:1055300005C0108260E874E88EE190E0A801970150
:105540000E943E352150304040405040569547958E
:105550003795279580E12030380720F0DD2011F0C5
:10556000DD24D6CFE889F9893083EA89FB89208355
:1055700019A2EE89FF89408121E030E0C9010C8C3D
:1055800002C0880F991F0A94E2F7482B4083EE89E6
:10559000FF894081C9010D8C02C0880F991F0A94B0
:1055A000E2F7482B4083EE89FF894081C9010E8CC8
:1055B00002C0880F991F0A94E2F7482B4083EE89B6
:1055C000FF8980810F8C02C0220F331F0A94E2F7FB
:1055D000209528232083DF91CF911F910F91FF9079
:1055E000EF90DF90BF90AF900895DC011C96ED9195
:1055F000FC911D97E05CFF4F219131918081918159
:10560000281B390B2F733070C9010895DC011C96DB
:10561000ED91FC911D97E05CFF4F20813181E054BA
:10562000F040DF01AE5BBF4F8D919C911197281721
:10563000390719F42FEF3FEF07C08D919C91E80FC8
:10564000F91F8081282F30E0C9010895DC011C96E4
:10565000ED91FC911D97E05CFF4F20813181E0547A
:10566000F040DF01AE5BBF4F8D919C9111972817E1
:10567000390719F42FEF3FEF10C08D919C911197CE
:10568000E80FF91F20818D919C91119701968F73DE
:10569000907011969C938E9330E0C9010895DC01BF
:1056A00091968C919197882339F05496ED91FC91C5
:1056B0005597808186FFF9CF91961C920895CF93DC
:1056C000DF93EC01EE85FF85E05CFF4F20813181A7
:1056D000E054F0402F5F3F4F2F733070DF01AE5B1F
:1056E000BF4F8D919C91119728173907D1F3E05C3A
:1056F000FF4F80819181E054F040E80FF91F6083F3
:10570000EE85FF85E05CFF4F31832083EE89FF89C2
:10571000208181E090E00F8C02C0880F991F0A94CD
:10572000E2F7282B208381E089A3EC89FD89808121
:105730008064808381E090E0DF91CF9108951092A2
:10574000800410927F0488EE93E0A0E0B0E08093A4
:10575000810490938204A0938304B093840480EF27
:1057600091E090937E0480937D0485EF93E0909385
:105770008A048093890489E394E090938C04809355
:105780008B0485EC90E090938E0480938D0484ECE0
:1057900090E09093900480938F0480EC90E090933D
:1057A00092048093910481EC90E090939404809310
:1057B000930482EC90E0909396048093950486EC99
:1057C00090E0909398048093970484E080939904E8
:1057D00083E080939A0487E080939B0485E0809324
:1057E0009C0481E080939D040895CF93DF930E94F1
:1057F00016290E940F1DC0E2DAE20E94041D2097C4
:10580000E1F30E94202AF9CFCF92DF92EF92FF922C
:105810000F931F93CF93DF937C016B018A01C0E04C
:10582000D0E00FC0D6016D916D01D701ED91FC91D3
:105830000190F081E02DC7010995C80FD91F0150D3
:1058400010400115110571F7CE01DF91CF911F9125
:105850000F91FF90EF90DF90CF900895EF92FF921D
:105860000F931F93CF93DF937C018B01C0E0D0E0B7
:10587000F8010F5F1F4F6491662359F0D701ED9136
:10588000FC910190F081E02DC7010995C80FD91F47
:10589000EFCFCE01DF91CF911F910F91FF90EF904D
:1058A0000895EF92FF920F931F938C01DC01ED910D
:1058B000FC910190F081E02D6DE009957C01D8010B
:1058C000ED91FC910190F081E02DC8016AE009950D
:1058D0009C012E0D3F1DC9011F910F91FF90EF906C
:1058E0000895EF92FF920F931F937C010E942E2C3C
:1058F0008C01C7010E94512C9C01200F311FC9014E
:105900001F910F91FF90EF900895CF93DF93EC01DB
:105910006115710519F420E030E00FC0DB010D9036
:105920000020E9F71197A61BB70BE881F9810280E7
:10593000F381E02DAD0109959C01C901DF91CF9163
:1059400008954F925F927F928F929F92AF92BF92F3
:10595000CF92DF92EF92FF920F931F93DF93CF933B
:10596000CDB7DEB7A1970FB6F894DEBF0FBECDBF9F
:105970002C01742ECB01223008F42AE019A231E266
:10598000C32ED12CCC0EDD1E822E9924AA24BB243A
:10599000672D752FA50194010E943E3579018A017A
:1059A000C801B701A50194010E940035472D461B8F
:1059B0000894C108D1084A3014F4405D01C0495C24
:1059C000F6014083E114F1040105110521F07E2C5C
:1059D0005F2DC801DDCFC201B6010E94852CA196C2
:1059E0000FB6F894DEBF0FBECDBFCF91DF911F91F0
:1059F0000F91FF90EF90DF90CF90BF90AF909F906E
:105A00008F907F905F904F900895DC0121153105B4
:105A100041F4ED91FC910190F081E02D642F099506
:105A200008950E94A12C0895EF92FF920F931F9367
:105A30009A01E62EFF2400E010E0B801A7010E94C1
:105A4000052D1F910F91FF90EF900895CF92DF9257
:105A5000EF92FF920F931F936C01E62E9A01FF24A1
:105A600000E010E0B801A7010E94052D8C01C601DD
:105A70000E94512C080F191FC8011F910F91FF9010
:105A8000EF90DF90CF900895CF92DF92EF92FF9248
:105A90000F931F93CF93DF93EC016A017B012115D4
:105AA000310541F4E881F9810190F081E02D642F06
:105AB00009951FC02A303105D1F477FF17C0E8815E
:105AC000F9810190F081E02D6DE209958C01442768
:105AD0005527BA014C195D096E097F09CE012AE0EC
