:100000000C94B5010C94DD010C94DD010C94DD0120
:100010000C94DD010C94DD010C94DD010C94DD01E8
:100020000C94DD010C94DD010C94DD010C9477221D
:100030000C94DD010C94DD010C94DD010C94DD01C8
:100040000C941F250C94DD010C94CD260C941B27D9
:100050000C94DD010C94DD010C94DD010C94DD01A8
:100060000C94DD010C94DD01000000006410B71D4C
:10007000C8206E3BAC30D9269041DC76F4516B6BD6
:100080005861B24D3C7105502083B8ED44930FF098
:10009000E8A3D6D68CB361CBB0C2649BD4D2D3864E
:1000A00078E20AA01CF2BDBD43616C63756C61749B
:1000B0006564206D61784C656E6774683A20005401
:1000C00068697320706F696E742066616C6C732050
:1000D0006F75747369646520746865206172656109
:1000E000206F662074686973206D616368696E654E
:1000F0002E20536B697070696E672069742E006DD5
:100100006D004368616E6765642050656E20776995
:1001100064746820746F20004E65772061636365A6
:100120006C65726174696F6E3A20004E6577206D60
:1001300061782073706565643A200055703A20003C
:10014000446F776E3A2000504753504545442C0089
:1001500050474C4946542C005047535445504D5538
:100160004C5449504C4945522C005047535445502B
:10017000535045525245562C0050474D4D50455214
:100180005245562C00504753495A452C00290052DD
:100190006563616C63207061676548656967687451
:1001A00020696E20737465707320280029005265E1
:1001B00063616C6320706167655769647468206966
:1001C0006E2073746570732028002900292C207319
:1001D000746570735065724D4D20280052656361DF
:1001E0006C63206D6D506572537465702028004CEF
:1001F0006F61646564206D6F746F722073746570D5
:10020000206D756C7469706C6965723A004C6F6131
:1002100064656420757020706F733A004C6F616480
:10022000656420646F776E20706F733A004C6F6165
:10023000646564206D6F746F7220737465707320D1
:10024000706572207265763A004C6F616465642057
:100250006D6D20706572207265763A004C6F616436
:100260006564206D616368696E65206865696768AB
:10027000743A004C6F61646564206D616368696EF7
:10028000652077696474683A00206E6F7420726527
:10029000636F676E697365642E0029206E6F74202A
:1002A0007061727365642E00436F6D6D202800428B
:1002B00061642053756D3A005263643A2000504FD8
:1002C0004C41524752415048204F4E2100000000FF
:1002D00000240027002A0000000000250028002B31
:1002E0000000000000230026002900040404040488
:1002F00004040402020202020203030303030301D3
:1003000002040810204080010204081020010204A9
:10031000081020000000070002010000030406008E
:1003200000000000000000494E46494E4954594E15
:10033000414ECDCCCC3D0AD7233C17B7D13877CC32
:100340002B329595E6241FB14F0A00002041000092
:10035000C84200401C4620BCBE4CCA1B0E5AAEC54B
:100360009D74B20648238728AB0611241FBECFEF29
:10037000D8E0DEBFCDBF12E0A0E0B1E0E4EDF7E6EB
:1003800002C005900D92A036B107D9F714E0A0E69F
:10039000B2E001C01D92AC3EB107E1F713E0C8E640
:1003A000D3E004C02297FE010E949733C236D107E2
:1003B000C9F70E94DD280C94DD330C9400006627F9
:1003C00077270C949502FC0188279927E8942191BE
:1003D0002032E9F3293010F02E30C8F32B3241F0EF
:1003E0002D3239F4689404C00E948D02820F911D51
:1003F000219120532A30C0F31EF4909581959F4F90
:1004000008951F93FC0199278827BC01E894119156
:100410001032E9F3193010F01E30C8F31B3251F0DE
:100420001D3249F4689406C00E947802610F711D64
:10043000811D911D119110531A30B0F33EF4909527
:100440008095709561957F4F8F4F9F4F1F910895B5
:10045000FB01DC0102C001900D9241505040D8F7E1
:100460000895FB01DC018D91019080190110D9F3F1
:10047000990B0895FB01DC0101900D920020E1F73A
:100480000895FB01DC014150504030F08D91019006
:10049000801919F40020B9F7881B990B0895FB0106
:1004A000DC014150504048F001900D920020C9F706
:1004B00001C01D9241505040E0F70895FB01519159
:1004C0005523A9F0BF01DC014D9145174111E1F71A
:1004D00059F4CD010190002049F04D914015411192
:1004E000C9F3FB014111EFCF81E090E0019708953E
:1004F000592F482F372F262F660F771F881F991FD8
:10050000660F771F881F991F620F731F841F951F27
:10051000660F771F881F991F08957AE0979F902D87
:10052000879F802D910D11240895A0E0B0E0EBE9A4
:10053000F2E00C94AC33EC015B016115710519F02C
:10054000FB0191838083F9908F2D90E00E949B3373
:10055000892BC9F7FDE2FF1621F4F990EE24E3940C
:1005600005C02BE2F21609F4F990EE248E01015039
:100570001040C80167E273E043E050E00E94F503D9
:10058000892B01F58E010E5F1F4FC8016AE273E0EF
:1005900045E050E00E94F503892B19F48E01095FB4
:1005A0001F4FA114B10419F0F50111830083E0FC81
:1005B00004C070E090E080E814C070E090E080E853
:1005C0006FEF08C1C8016FE273E043E050E00E94A2
:1005D000F503892B69F4A114B10429F470E090E0CB
:1005E00080EC6FE7F7C02296F501D183C083F6CF88
:1005F0008824992440E050E060E070E0EF2DE05363
:10060000EA30A0F5F2E0EF2A8E2D90E09C012870F0
:100610003070E2FE06C0232B79F50894811C911CF2
:100620002BC0232B19F0089481089108DB01CA0123
:1006300012E0880F991FAA1FBB1F1A95D1F7480F08
:10064000591F6A1F7B1F440F551F661F771F4E0FD0
:10065000511D611D711D483929E9520729E96207B9
:1006600029E1720748F084E0E82A06C0EE3F31F441
:10067000E3FC39C098E0E92AF990C0CFE53311F0E6
:10068000E53189F529912D3219F4E0E1EE2A05C012
:100690002B3219F081E090E003C0299182E090E0D4
:1006A000E22FE053EA3018F0C81BD90B1CC020E041
:1006B00030E0FCE020383F075CF4C901880F991F47
:1006C000880F991F280F391F220F331F2E0F311D3E
:1006D000E991E053EA3068F3E4FE03C030952195D8
:1006E0003F4F820E931ECE2CDD24E1FE07C0A114E5
:1006F000B10421F02197F501D183C083CB01BA0168
:100700000E9484317B018C01F3E0CF22DD2423E0C1
:10071000C216D10421F417FB109517F91095570153
:100720006801C801B70120E030E040E050E00E94DD
:10073000E730882309F44AC097FE0DC026E4E22E74
:1007400023E0F22E9094819491089394C0E2D0E03B
:1007500000E010E012C09EE5E92E93E0F92EF6CFFE
:10076000F7012591359145915491C601B5010E943B
:100770003A325B016C018C1A9D0A8C169D0684F737
:10078000D595C7950F5F1F4F0630110529F08CEFE7
:100790009FEFE80EF91EF1CFC501D6017C018D0156
:1007A0008C2D880F8D2D881F8F3F51F0C601B5010C
:1007B00020E030E040E050E00E94E730882331F450
:1007C00082E290E09093EB048093EA047E2D9F2DCB
:1007D000802F612F272F392F482F562FB901CA019B
:1007E000CDB7DEB7ECE00C94C833FB01DC0141501F
:1007F000504088F08D9181341CF08B350CF4805E74
:10080000659161341CF06B350CF4605E861B6111E0
:1008100071F3990B0895881BFCCF2F923F924F9252
:100820005F926F927F928F929F92AF92BF92CF9280
:10083000DF92EF92FF920F931F931B012C0139015E
:100840004A0160916C0270916D0280916E029091EC
:100850006F020E9486317B018C01A80197010E94E2
:100860003A325B016C01C401B301A40193010E94FF
:100870003A329B01AC01C601B5010E9482305B0196
:100880006C01C201B101A20191010E943A329B01A7
:10089000AC01C601B5010E9483305B016C01C80147
:1008A000B701A80197010E9483309B01AC01C601EA
:1008B000B5010E94EB301F910F91FF90EF90DF90F8
:1008C000CF90BF90AF909F908F907F906F905F90F0
:1008D0004F903F902F9008950F931F93CF93DF93E6
:1008E000242F2627A22FB0E0AF70B070AA0FBB1F35
:1008F000AA0FBB1FC8E6D0E0AC0FBD1FFD010591DC
:10090000159125913491E4E09695879577956795B3
:10091000EA95D1F7062717272827392742954F70E0
:10092000402750E04F705070440F551F440F551F23
:100930004C0F5D1FFA0185919591A591B49144E00A
:1009400036952795179507954A95D1F708271927C2
:100950002A273B27B801C901DF91CF911F910F9141
:100960000895AF92BF92CF92DF92EF92FF920F93D2
:100970001F938130910509F05AC16F5F7F4F09F0D5
:10098000E1C189E293E060E071E00E94BE2D80E663
:1009900092E00E940021A090F801B090F901C0906F
:1009A000FA01D090FB016091FC0170E080E090E0E2
:1009B0002091F6013091F701442737FD4095542FDF
:1009C0000E9406330E9486317B018C01C601B5016D
:1009D000A80197010E94EB30609364027093650256
:1009E0008093660290936702C801B701A601950142
:1009F0000E94EB307B018C01609368027093690266
:100A000080936A0290936B0260910C0270910D02C8
:100A1000882777FD8095982F0E948631A80197013D
:100A20000E943A320E94533160936C0270936D02BF
:100A300080936E0290936F0260910E0270910F028C
:100A4000882777FD8095982F0E948631A80197010D
:100A50000E943A320E945331609370027093710287
:100A6000809372029093730280E393E064E071E0FC
:100A70000E94BE2D87E393E067E371E00E94BE2DE4
:100A80008EE393E067E371E00E94BE2D85E493E07E
:100A900067E371E00E94BE2D8CE493E067E371E0B0
:100AA0000E94BE2D83E593E066E471E00E94BE2DB6
:100AB0008AE593E06CE471E00E94BE2D81E693E04C
:100AC00063E571E00E94BE2D88E693E06BE571E07E
:100AD0000E94BE2D8FE693E066E671E00E94BE2D77
:100AE00086E793E063E573E00E945B2E81E892E085
:100AF0006CE671E00E94BE2D8DE793E06DE671E03B
:100B00000E94BE2D84E893E06FE671E00E94BE2D46
:100B10008BE893E064E771E00E94BE2D82E993E0E8
:100B200068E771E00E94BE2D89E993E06CE771E00F
:100B30000E94BE2D80EA93E060E871E00E94BE2D25
:100B400087EA93E064E871E00E94BE2D8EEA93E0AC
:100B500068E871E00E94BE2D85EB93E06CE871E0DF
:100B60000E94BE2D8CEB93E060E971E00E94BE2DE7
:100B700083EC93E064E971E00E94BE2D8AEC93E07F
:100B800068E971E00E94BE2D81ED93E06CE971E0AF
:100B90000E94BE2D88ED93E060EA71E00E94BE2DB8
:100BA0008FED93E064EA71E00E94BE2D86EE93E043
:100BB00068EA71E00E94BE2D8DEE93E06CEA71E070
:100BC0000E94BE2D84EF93E060EB71E00E94BE2D89
:100BD0008BEF93E064EB71E00E94BE2D82E094E025
:100BE00068EB71E00E94BE2D6091F6017091F701F3
:100BF00089E892E041E00E94B1246091F601709191
:100C0000F70185E992E042E00E94B12481EA92E096
:100C100065E471E14EE351E10E94851C85EE92E0AE
:100C200067E371E140E351E10E94851C8BC0892B91
:100C300009F088C06F5F7F4F09F084C082E094E0C4
:100C40000E94662E8BEF93E00E94662E84EF93E065
:100C50000E94662E8DEE93E00E94662E86EE93E053
:100C60000E94662E8FED93E00E94662E88ED93E041
:100C70000E94662E81ED93E00E94662E8AEC93E03E
:100C80000E94662E83EC93E00E94662E8CEB93E02C
:100C90000E94662E85EB93E00E94662E8EEA93E01A
:100CA0000E94662E87EA93E00E94662E80EA93E017
:100CB0000E94662E89E993E00E94662E82E993E005
:100CC0000E94662E8BE893E00E94662E84E893E0F3
:100CD0000E94662E8DE793E00E94662E81E892E0E6
:100CE0000E94662E86E793E00E94662E8FE693E0D0
:100CF0000E94662E88E693E00E94662E81E693E0CD
:100D00000E94662E8AE593E00E94662E83E593E0BA
:100D10000E94662E8CE493E00E94662E85E493E0A8
:100D20000E94662E8EE393E00E94662E87E393E096
:100D30000E94662E80E393E00E94662E89E293E093
:100D40000E94662E1F910F91FF90EF90DF90CF9041
:100D5000BF90AF90089580E090E06FEF7FEF0E942A
:100D6000B104089581E090E06FEF7FEF0E94B1043D
:100D70000895CF92DF92EF92FF920F931F93CF933C
:100D8000DF936C01EE24EA94FE2C8701C0E0D0E0F2
:100D90000CC0C601BE010E94522C482FC801B701E9
:100DA0000E946C047B018C012196F601848195815F
:100DB000C817D90770F3A801970120953095409581
:100DC0005095B901CA01DF91CF911F910F91FF900A
:100DD000EF90DF90CF900895AF92BF92CF92DF92C5
:100DE000EF92FF920F931F937B018C01CA01B9010F
:100DF0000E943A325B016C01C801B701A80197015A
:100E00000E943A329B01AC01C601B5010E948230BA
:100E10000E94A1321F910F91FF90EF90DF90CF9031
:100E2000BF90AF900895AF92BF92CF92DF92EF92B2
:100E3000FF920F931F937B018C0159016A0160910E
:100E40006C0270916D0280916E0290916F020E940F
:100E50008631A80197010E9482309B01AC010E945B
:100E60003A327B018C01C601B501A60195010E94B1
:100E70003A329B01AC01C801B7010E9483300E9445
:100E8000A1321F910F91FF90EF90DF90CF90BF9014
:100E9000AF900895AF92BF92CF92DF92EF92FF9200
:100EA0000F931F937B018C0159016A01A8019701DF
:100EB0000E943A327B018C01C601B501A601950161
:100EC0000E943A329B01AC01C801B7010E948330F5
:100ED0000E94A1321F910F91FF90EF90DF90CF9071
:100EE000BF90AF9008952F923F924F925F926F9272
:100EF0007F928F929F92AF92BF92CF92DF92EF92AA
:100F0000FF920F931F93DF93CF9300D000D0CDB704
:100F1000DEB769837A838B839C8359016A01170149
:100F20002801611571058105910559F40F2EF0E036
:100F3000EF2EF0E0FF2EF0E00F2FF0E01F2FF02D4E
:100F4000A4C0CA01B9010E943A327B018C01C601DA
:100F5000B50120E030E040E050E00E94E730882317
:100F600024F417FB109517F91095C201B101A201E5
:100F700091010E9483303B014C01C801B701A401DB
:100F800093010E94EB307B018C0169817A818B8116
:100F90009C810E9486319B01AC01C801B7010E946F
:100FA000E7308823B4F5C601B50120E030E040E029
:100FB00050E00E94E730882329F4C401B3010E9465
:100FC000A1320DC0C201B101A60195010E94EB3012
:100FD0009B01AC015F77C601B5010E9483307B01A4
:100FE0008C01D090FD01C090FE01B090FF01A09057
:100FF00000022D2D3C2D4B2D5A2D0E9436321816F5
:101000000CF043C08D2D9C2DAB2DBA2D7C018D0194
:101010003CC0C601B50120E030E040E050E00E9455
:10102000E730882359F4C401B3010E94A1327B0147
:101030008C0117FB109517F910950FC0C201B10173
:10104000A60195010E94EB309B01AC015F77C601C0
:10105000B5010E9482307B018C018091FD0190914D
:10106000FE01A091FF01B09100025C016D01D7FA71
:10107000D094D7F8D094C801B701A60195010E9479
:10108000E730882314F486017501B701C8010F9079
:101090000F900F900F90CF91DF911F910F91FF90C4
:1010A000EF90DF90CF90BF90AF909F908F907F9008
:1010B0006F905F904F903F902F900895809108021D
:1010C0008823C1F184EC94E06FE673E00E94C22BA8
:1010D00081EA92E00E94EE1A2091FC0130E040E0AB
:1010E00050E00E94663384EC94E0BA01A9012AE042
:1010F00030E00E942C2A84EC94E06DE773E00E94BB
:10110000C22B85EE92E00E94EE1A2091FC0130E0A5
:1011100040E050E00E94663384EC94E0BA01A901FB
:101120002AE030E00E942C2A84EC94E064E873E02A
:101130000E94F52B089584EC94E06AE573E00E9428
:10114000F52B089584EC94E063E573E00E94F52BA1
:101150000895EF92FF920F931F93809174029091E4
:101160007502A0917602B09177020097A105B105B2
:1011700009F040C060916C0270916D0280916E0226
:1011800090916F020E9486317B018C016091700208
:101190007091710280917202909173020E94863167
:1011A0009B01AC01C801B7010E944A0720E030E072
:1011B00040E05FE30E9483300E94533160937402E9
:1011C00070937502809376029093770284EC94E09A
:1011D00068EA70E00E9416294091740250917502ED
:1011E000609176027091770284EC94E02AE030E01E
:1011F0000E946C2A6091740270917502809176024F
:10120000909177021F910F91FF90EF9008952F9288
:101210003F924F925F926F927F928F929F92AF9286
:10122000BF92CF92DF92EF92FF920F931F937B01B9
:101230008C0159016A010E946725609379027093BD
:101240007A0280937B0290937C0281EA92E00E9472
:10125000C71D1B012C0185EE92E00E94C71D3B01BA
:101260004C0181EA92E040E050E060E070E00E94D2
:10127000421D85EE92E040E050E060E070E00E94A8
:10128000421DC801B7010E9486310E945331AB0153
:10129000BC0181EA92E00E94731CC601B5010E9464
:1012A00086310E945331AB01BC0185EE92E00E9471
:1012B000731C80910502882309F042C081EA92E004
:1012C0000E94C71D20E030E040E050E00E94E7307F
:1012D000882324F457FA509457F8509485EE92E0FE
:1012E0000E94C71D20E030E040E050E00E94E7305F
:1012F000882324F497FA909497F8909481EA92E0E6
:10130000B201A1010E94421D85EE92E0B401A30149
:101310000E94421D15C080910502882349F081EA90
:1013200092E00E94C42085EE92E00E94C42008C092
:1013300081EA92E00E94A02085EE92E00E94A02027
:1013400081EA92E00E94DE1A61157105810591051E
:1013500049F485EE92E00E94DE1A6115710581055F
:10136000910529F080910902882351F3D4CF0E947E
:101370005E081F910F91FF90EF90DF90CF90BF908C
:10138000AF909F908F907F906F905F904F903F9025
:101390002F9008958AE892E090931F0280931E0296
:1013A00090932102809320028FE590E090931B029E
:1013B00080931A0280E991E090931D0280931C02B1
:1013C00081E090E0909319028093180264EF71E03D
:1013D00080E090E00E949B250895AF92BF92CF924B
:1013E000DF92EF92FF920F931F93CF93DF93EC0165
:1013F0005B016A0180E692E069E070E00E94702281
:10140000CA15DB059CF476010027F7FC0095102F28
:1014100080E692E0BE010E948921C801B7010E94C6
:101420009B252196AC16BD069CF712C076010027BD
:10143000F7FC0095102F80E692E0BE010E94892102
:10144000C801B7010E949B252197CA15DB059CF7AF
:1014500080E692E00E941A21DF91CF911F910F91B7
:10146000FF90EF90DF90CF90BF90AF900895EF92F4
:10147000FF920F931F93B1EAEB2EB2E0FB2EC70150
:101480000E94EE1AAB01BC014C5F5F4F6F4F7F4F64
:10149000C7010E94F52005EE12E0C8010E94EE1A75
:1014A000AB01BC014C5F5F4F6F4F7F4FC8010E9483
:1014B000F520C7010E94EE1AAB01BC014450504018
:1014C00060407040C7010E94F520C8010E94EE1ADA
:1014D000AB01BC014450504060407040C8010E94C4
:1014E000F5201F910F91FF90EF9008952F923F925A
:1014F0004F925F926F927F928F929F92AF92BF9224
:10150000CF92DF92EF92FF920F931F93DF93CF93CF
:10151000CDB7DEB7E0970FB6F894DEBF0FBECDBFF4
:101520002B013C019CA28BA20E940D046B8F7C8F2F
:101530008D8F9E8FA30192010E94EC066F8B788F96
:10154000898F9A8FC801B701A60195010E940D04E9
:101550005B016C01A80197010E94EC067B018C01E4
:10156000C601B50120E030E040EA51E40E94363285
:1015700018160CF014C260916C0270916D0280918B
:101580006E0290916F0264517040804090400E94C2
:1015900086316F8F78A389A39AA3C601B5012F8DD9
:1015A00038A149A15AA10E94E73088230CF0F7C165
:1015B000C801B70120E030E040EA51E40E94363231
:1015C00018160CF0ECC1609170027091710280915C
:1015D00072029091730264517040804090400E946A
:1015E00086312B013C01C801B701A30192010E9481
:1015F000E73088230CF0D3C16B8D7C8D8D8D9E8D53
:1016000020E030E040EA51E40E94363218160CF037
:10161000C6C16B8D7C8D8D8D9E8D2F8D38A149A17E
:101620005AA10E94E73088230CF0B9C16F89788DE8
:10163000898D9A8D20E030E040EA51E40E943632F4
:1016400018160CF0ACC16F89788D898D9A8DA30125
:1016500092010E94E73088230CF0A1C11092080289
:10166000C601B5012B8D3C8D4D8D5E8D0E94823063
:101670001B012C01C801B7012F89388D498D5A8D66
:101680000E9482303B014C01C201B10120E030E0F8
:1016900040E050E00E94363218161CF482017101BD
:1016A00006C08201710117FB109517F91095C4014E
:1016B000B30120E030E040E050E00E9436321816DE
:1016C0001CF4A401930103C0A40193015058C80164
:1016D000B7010E94363218169CF021E030E03E8BB4
:1016E0002D8BD401C301B0588DA79EA7AFA7B8AB6F
:1016F000ABA1BCA15D01CC24B7FCC094DC2C4EC0D6
:1017000021E030E03E8B2D8BD201C101B05889A77A
:101710009AA7ABA7BCA7ABA1BCA15D01CC24B7FC29
:10172000C094DC2C06C02D893E892F5F3F4F3E8B35
:101730002D8BC201B10120E030E040E050E00E947A
:10174000363218161CF48201710104C0E9A4FAA40F
:101750000BA51CA5AD89BE89BD01882777FD8095A5
:10176000982F0E9486319B01AC01C801B7010E94ED
:10177000EB307B018C01C601B5010E9486319B01D3
:10178000AC01C801B7010E943632181664F234C0A9
:101790002D893E892F5F3F4F3E8B2D8BC401B301B6
:1017A00020E030E040E050E00E94363218161CF491
:1017B0008401730104C0EDA4FEA40FA518A9AD898E
:1017C000BE89BD01882777FD8095982F0E948631BC
:1017D0009B01AC01C801B7010E94EB307B018C0179
:1017E000C601B5010E9486319B01AC01C801B70159
:1017F0000E943632181664F22D893E895901CC2494
:10180000B7FCC094DC2CC601B5010E9486317B0177
:101810008C01C201B101A80197010E94EB306D83D8
:101820007E838F839887C401B301A80197010E942A
:10183000EB3069837A838B839C8310920502198A2B
:101840001A8A1B8A1C8A19861A861B861C86ADA2D8
:10185000BEA2CFA2D8A66B8D7C8D8D8D9E8D2D8145
:101860003E814F8158850E9483306B8F7C8F8D8F96
:101870009E8F6F89788D898D9A8D29813A814B81D0
:101880005C810E9483306F8B788F898F9A8F6B8DEC
:101890007C8D8D8D9E8D2F89388D498D5A8D0E941E
:1018A0004A076D877E878F87988B6B8D7C8D8D8D9A
:1018B0009E8D2F89388D498D5A8D0E9413071B01EB
:1018C0002C0169847A848B849C848DA19EA1AFA114
:1018D000B8A5680E791E8A1E9B1E69897A898B8934
:1018E0009C890E9486315B016C01609101027091BC
:1018F0000202809103029091040220E030E040E86F
:1019000050E40E943A327B018C01C401B301A6016C
:1019100095010E9473070E945331698B7A8B8B8BE0
:101920009C8B0E9486317B018C0181EA92E0B80198
:10193000A7010E94421D85EE92E0B801A7010E9416
:10194000421D6D857E858F8598890E9453317B016C
:101950008C01C201B1010E9453319B01AC01C8014D
:10196000B7010E94070989859A85AB85BC850197D7
:10197000A109B10989879A87AB87BC878D899E8920
:10198000A985BA858A0F9B1F892B09F064CF81E056
:1019900080930802809305020E945E0806C084ECD2
:1019A00094E06CEB71E00E94AF2BE0960FB6F894D8
:1019B000DEBF0FBECDBFCF91DF911F910F91FF9082
:1019C000EF90DF90CF90BF90AF909F908F907F90DF
:1019D0006F905F904F903F902F9008950F931F93BB
:1019E000BC0104EC14E0C8010E94C22BC80169E8E4
:1019F00072E00E9459291F910F9108950F931F9330
:101A0000AB01BC01409301025093020260930302B8
:101A10007093040281EA92E00E94D01F409101027B
:101A200050910202609103027091040285EE92E0EF
:101A30000E94D01F04EC14E0C80168E171E00E942C
:101A400016294091010250910202609103027091A7
:101A50000402C80122E030E00E949C2B1F910F91EC
:101A60000895CF92DF92EF92FF920F931F937C0124
:101A70008B0180E3C82E84E0D82EC601B701F8019F
:101A800040810E943C230894E11CF11CC601B7016F
:101A9000F80141810E943C2382E090E01F910F9168
:101AA000FF90EF90DF90CF9008950F931F93AB01BD
:101AB000BC014093FD015093FE016093FF017093C0
:101AC000000281EA92E00E94EC1C4091FD015091DD
:101AD000FE016091FF017091000285EE92E00E948C
:101AE000EC1C04EC14E0C8016BE271E00E941629C2
:101AF0004091FD015091FE016091FF017091000243
:101B0000C80122E030E00E949C2B1F910F910895A4
:101B1000CF92DF92EF92FF920F931F937C018B0184
:101B200090E3C92E94E0D92EC601B7010E94352357
:101B3000F80180830894E11CF11CC601B7010E94E2
:101B40003523F801818382E090E01F910F91FF908F
:101B5000EF90DF90CF9008958AE290E062E172E02A
:101B60000E94880D809112029091130297FF06C087
:101B70008AE590E0909313028093120284EC94E043
:101B80006CE172E00E9416296091120270911302BA
:101B900084EC94E04AE050E00E94932A8CE290E0CA
:101BA00060E172E00E94880D809110029091110214
:101BB00097FF06C084EB90E090931102809310028F
:101BC00084EC94E06DE072E00E94162960911002AE
:101BD0007091110284EC94E04AE050E00E94932A54
:101BE000089580E090E06CE072E00E94880D8091A2
:101BF0000C0290910D021816190644F080911E02F5
:101C000090911F0290930D0280930C0284EC94E05B
:101C100063E772E00E94162960910C0270910D0238
:101C200084EC94E04AE050E00E94932A82E090E045
:101C30006EE072E00E94880D80910E0290910F027A
:101C40001816190644F08091200290912102909379
:101C50000F0280930E0284EC94E06CE572E00E9427
:101C6000162960910E0270910F0284EC94E04AE014
:101C700050E00E94932A0895EF92FF920F931F93D2
:101C8000CF93DF93AC01EB0124E0E22EF12CE60EC2
:101C9000F71E8A010F5F1F4F80E394E0BA010E9494
:101CA00035238993A801CE15DF0599F784E090E0EC
:101CB000DF91CF911F910F91FF90EF90089586E1F2
:101CC00090E06DEF71E00E943C0E6091FD0170911B
:101CD000FE018091FF01909100020E94533116167F
:101CE000170664F080E090E0A8E4B4E48093FD017E
:101CF0009093FE01A093FF01B09300028AE190E06F
:101D000061E072E00E943C0E60910102709102025B
:101D100080910302909104020E9453311616170617
:101D200064F080E090E0A8E4B4E480930102909332
:101D30000202A0930302B093040208958EE090E0A3
:101D400068EF71E00E943C0E6091F8017091F9011A
:101D50008091FA019091FB0120E030E040E85FE3E0
:101D60000E94E730882394F460911A0270911B025C
:101D7000882777FD8095982F0E9486316093F8011F
:101D80007093F9018093FA019093FB0184EC94E045
:101D900069E472E00E9416294091F8015091F9011E
:101DA0006091FA017091FB0184EC94E022E030E054
:101DB0000E949C2B82E190E066EF71E00E94880D0A
:101DC0008091F6019091F7011816190644F0809160
:101DD0001C0290911D029093F7018093F60184EC10
:101DE00094E06DE272E00E9416296091F601709114
:101DF000F70184EC94E04AE050E00E94932A0895B1
:101E000080E394E064E170E00E9435238093FC015C
:101E1000882321F4809118028093FC0184EC94E0E3
:101E20006FEE71E00E94162984EC94E06091FC0151
:101E30004AE050E00E940E2A0895AF92BF92CF92DE
:101E4000DF92EF92FF920F931F930E94F10D0E9479
:101E50009E0E0E94000F0E94AC0D0E945F0E8EE14C
:101E600090E064E172E00E943C0E60911402709177
:101E70001502809116029091170227E137EB41ED90
:101E800058E30E94E730882364F48DEC9CECACE4CA
:101E9000BFE38093140290931502A0931602B093AF
:101EA0001702A090F801B090F901C090FA01D0900B
:101EB000FB016091FC0170E080E090E02091F60170
:101EC0003091F701442737FD4095542F0E94063387
:101ED0000E9486317B018C01C601B501A8019701E2
:101EE0000E94EB30609364027093650280936602F7
:101EF00090936702C801B701A60195010E94EB30DB
:101F0000609368027093690280936A0290936B02F7
:101F100084EC94E06CED71E00E941629409164021B
:101F200050916502609166027091670284EC94E0C2
:101F300022E030E00E94992B84EC94E06CEC71E09C
:101F40000E941629409168025091690260916A02CC
:101F500070916B0284EC94E022E030E00E94992BB7
:101F600084EC94E06AEC71E00E94162984EC94E021
:101F70000E94392960910C0270910D02882777FD2B
:101F80008095982F0E9486312091680230916902D5
:101F900040916A0250916B020E943A320E94533182
:101FA00060936C0270936D0280936E0290936F0247
:101FB00084EC94E06EEA71E00E94162940916C0274
:101FC00050916D0260916E0270916F0284EC94E00A
:101FD0002AE030E00E942C2A84EC94E06CEA71E064
:101FE0000E94162984EC94E00E94392960910E0227
:101FF00070910F02882777FD8095982F0E94863177
:10200000209168023091690240916A0250916B02FE
:102010000E943A320E9453316093700270937102B1
:10202000809372029093730284EC94E06FE871E005
:102030000E941629409170025091710260917202C3
:102040007091730284EC94E02AE030E00E942C2A24
:1020500084EC94E06DE871E00E94162984EC94E031
:102060000E94392910927402109275021092760221
:10207000109277021F910F91FF90EF90DF90CF9019
:10208000BF90AF900895CF93DF93C0E0D0E080E39E
:1020900094E0BE0140E00E943C232196C233D1056A
:1020A000B1F70E941D0FDF91CF910895CF93DF9379
:1020B000C0E0D0E084EC94E0BE014AE050E00E9431
:1020C000802A84EC94E062EE71E00E94B22A80E300
:1020D00094E0BE010E943523682F84EC94E04AE02E
:1020E00050E00E940E2A2196C832D10519F7DF91DF
:1020F000CF910895CF92DF92EF92FF920F931F93AB
:102100000E94561004EC14E0C80165E871E00E94DA
:10211000162960910C0270910D02C8014AE050E04E
:102120000E94802A4DE7C42E43E0D42EC801B60198
:102130000E94C22B60910E0270910F02C8014AE00A
:1021400050E00E94802A34E8E32E33E0F32EC801E9
:10215000B7010E94F52BC80169E771E00E941629BA
:102160004091F8015091F9016091FA017091FB01E1
:10217000C80122E030E00E94992BC801B7010E94FB
:10218000F52BC8016AE671E00E9416296091F601FC
:102190007091F701C8014AE050E00E94802AC8010E
:1021A000B7010E94F52BC80168E571E00E9416296D
:1021B000C8016091FC014AE050E00E94FC29C8017E
:1021C000B7010E94F52BC80160E571E00E94162955
:1021D0006091120270911302C8014AE050E00E941F
:1021E000802AC801B6010E94C22B60911002709132
:1021F0001102C8014AE050E00E94802AC801B701DC
:102200000E94F52BC80167E471E00E9416294091F5
:10221000FD015091FE016091FF0170910002C80123
:1022200022E030E00E94992BC801B6010E94C22B27
:1022300040910102509102026091030270910402E8
:10224000C80122E030E00E94992BC801B7010E942A
:10225000F52B1F910F91FF90EF90DF90CF90089595
:1022600085E992E062E043E00E949B23089585E9BE
:1022700092E061E043E00E949B23089589E892E0A8
:1022800062E043E00E949B23089589E892E061E0C8
:1022900043E00E949B230895EF92FF920F931F93B8
:1022A000DF93CF93CDB7DEB7FC01EDB6FEB6448128
:1022B00055814F5F5F4F8DB79EB7841B950B0FB64F
:1022C000F8949EBF0FBE8DBF0DB71EB70F5F1F4F97
:1022D000CF01B80120E030E00E94D02CC8010E945C
:1022E000DF010FB6F894FEBE0FBEEDBECF91DF91B9
:1022F0001F910F91FF90EF9008954F925F926F9210
:102300007F928F929F92AF92BF92CF92DF92EF9285
:10231000FF920F931F93DF93CF93CDB7DEB72E9726
:102320000FB6F894DEBF0FBECDBF6E010894C11C7E
:10233000D11CC60167E373E00E945B2EC6010E94B8
:102340004C117B018C016091FC0170E0882777FDC6
:102350008095982F0E9486319B01AC01C801B7017E
:102360000E943A322B013C01C6010E94662E58E0C1
:10237000852E912C8C0E9D1EC4016EE373E00E948D
:102380005B2EC4010E944C117B018C016091FC0109
:1023900070E0882777FD8095982F0E9486319B01F9
:1023A000AC01C801B7010E943A325B016C01C40163
:1023B0000E94662EC301B2010E9453317B018C0141
:1023C000C601B5010E9453319B01AC01C801B701A0
:1023D0000E9407092E960FB6F894DEBF0FBECDBF40
:1023E000CF91DF911F910F91FF90EF90DF90CF90F1
:1023F000BF90AF909F908F907F906F905F904F9025
:1024000008950F931F93DF93CF93CDB7DEB7279730
:102410000FB6F894DEBF0FBECDBF8E010F5F1F4F0A
:10242000C80167E373E00E945B2EC8010E944C1153
:102430006093140270931502809316029093170212
:10244000C8010E94662E04EC14E0C80162E071E04D
:102450000E941629409114025091150260911602B3
:1024600070911702C80122E030E00E94992BC80148
:102470006FEF70E00E941629C8010E943929279643
:102480000FB6F894DEBF0FBECDBFCF91DF911F9185
:102490000F910895EF92FF920F931F93DF93CF93C5
:1024A000CDB7DEB72B970FB6F894DEBF0FBECDBF0A
:1024B0008E010B5F1F4FC80167E373E00E945B2E24
:1024C000C8010E944C1169837A838B839C83C80165
:1024D0000E94662E7E010894E11CF11C6EE070E003
:1024E0008B010F5F1F4FF70141917F0180E394E063
:1024F0000E943C23B8010231110591F70E941D0F83
:102500002B960FB6F894DEBF0FBECDBFCF91DF91F3
:102510001F910F91FF90EF900895EF92FF920F930C
:102520001F93DF93CF93CDB7DEB7FC01EDB6FEB6B8
:10253000448155814F5F5F4F8DB79EB7841B950BCC
:102540000FB6F8949EBF0FBE8DBF0DB71EB70F5FBD
:102550001F4FCF01B80120E030E00E94D02CC8010D
:102560000E94E3010FB6F894FEBE0FBEEDBECF9100
:10257000DF911F910F91FF90EF900895EF92FF92DE
:102580000F931F93DF93CF93CDB7DEB727970FB687
:10259000F894DEBF0FBECDBF8091780290916302A8
:1025A000823018F1992329F0E0901002F090110286
:1025B00004C0E0901202F09013028E010F5F1F4FD3
:1025C000C80167E373E00E945B2EC8010E948D1270
:1025D0009093130280931202C8010E94662E6091AC
:1025E000120270911302C7010AC0913061F4609128
:1025F000120270911302809110029091110243E037
:1026000050E00E94ED091092630227960FB6F894ED
:10261000DEBF0FBECDBFCF91DF911F910F91FF9015
:10262000EF900895EF92FF920F931F93DF93CF9354
:10263000CDB7DEB727970FB6F894DEBF0FBECDBF7C
:102640008091780290916302823018F1992329F0E9
:10265000E0901002F090110204C0E0901202F0909D
:1026600013028E010F5F1F4FC80167E373E00E94E2
:102670005B2EC8010E948D1290931102809310026C
:10268000C8010E94662E6091100270911102C7016C
:102690000AC0992361F46091100270911102809137
:1026A00012029091130243E050E00E94ED0981E094
:1026B0008093630227960FB6F894DEBF0FBECDBF9E
:1026C000CF91DF911F910F91FF90EF9008952F927E
:1026D0003F924F925F926F927F928F929F92AF92B2
:1026E000BF92CF92DF92EF92FF920F931F93DF93EF
:1026F000CF93CDB7DEB76B970FB6F894DEBF0FBEA2
:10270000CDBF6E010894C11CD11CC60167E373E004
:102710000E945B2EC6010E944C117B018C016091CE
:10272000FC0170E0882777FD8095982F0E94863104
:102730009B01AC01C801B7010E943A323B014C0138
:10274000C6010E94662E8E01085F1F4FC8016EE30E
:1027500073E00E945B2EC8010E944C116B017C014A
:10276000B090FC01C8010E94662E8E01015F1F4FD0
:10277000C80165E473E00E945B2EC8010E948D12BF
:102780009F8B8E8BC8010E94662E81EA92E00E9488
:10279000EE1A688F798F8A8F9B8F85EE92E00E9468
:1027A000EE1A1B012C01C401B30120E030E040EA25
:1027B00051E40E94E73087FD30C06B2D70E0882720
:1027C00077FD8095982F0E9486319B01AC01C7014F
:1027D000B6010E943A325B016C0120E030E040EA31
:1027E00051E40E94E73087FD18C00E94A9080E94AA
:1027F00086319B01AC01C401B3010E943632181628
:1028000064F00E94A9080E9486319B01AC01C601B8
:10281000B5010E94363218163CF484EC94E06FEB5C
:1028200070E00E94592916C0688D798D8A8D9B8D24
:102830000E9486317B018C01C201B1010E94863168
:102840009B01AC01C801B701840173018E889F8888
:102850000E94760A6B960FB6F894DEBF0FBECDBF0E
:10286000CF91DF911F910F91FF90EF90DF90CF906C
:10287000BF90AF909F908F907F906F905F904F90A0
:102880003F902F900895EF92FF920F931F93DF9345
:10289000CF93CDB7DEB72E970FB6F894DEBF0FBE3D
:1028A000CDBF8E010F5F1F4FC80167E373E00E9429
:1028B0005B2EC8010E944C110E94FE0CC8010E94B0
:1028C000662E80917802833041F58E01085F1F4F9C
:1028D000C8016EE373E00E945B2EC8010E948D1256
:1028E0007C01C8010E94662E81E0E816F104A9F47B
:1028F00061E0E62E62E0F62E6AE170E08B010F5F88
:102900001F4FF70141917F0180E394E00E943C2337
:102910000E31110511F0B801F1CF2E960FB6F894D3
:10292000DEBF0FBECDBFCF91DF911F910F91FF9002
:10293000EF900895EF92FF920F931F93DF93CF9341
:10294000CDB7DEB72E970FB6F894DEBF0FBECDBF62
:102950008E010F5F1F4FC80167E373E00E945B2E7B
:10296000C8010E944C110E94550DC8010E94662E9C
:1029700080917802833041F58E01085F1F4FC801B6
:102980006EE373E00E945B2EC8010E948D127C01F1
:10299000C8010E94662E81E0E816F104A9F47DEFDB
:1029A000E72E71E0F72E66E170E08B010F5F1F4F9D
:1029B000F70141917F0180E394E00E943C230A31BA
:1029C000110511F0B801F1CF2E960FB6F894DEBFC5
:1029D0000FBECDBFCF91DF911F910F91FF90EF9070
:1029E00008950F931F93DF93CF93CDB7DEB7629710
:1029F0000FB6F894DEBF0FBECDBF8E010B5F1F4F29
:102A0000C80167E373E00E945B2EC8010E948D122B
:102A10009A838983C8010E94662E8E01045F1F4F2E
:102A2000C8016EE373E00E945B2EC8010E948D1204
:102A30009C838B83C8010E94662E84EC94E060E442
:102A400071E00E94162969817A8184EC94E04AE061
:102A500050E00E94932A84EC94E06BE371E00E94C2
:102A600016296B817C8184EC94E04AE050E00E945E
:102A7000932A80917802843089F48AE290E0BE0142
:102A80006F5F7F4F0E94310D8CE290E0BE016D5F61
:102A90007F4F0E94310D0E94AC0D3AC08330C1F5CA
:102AA00069817A818B819C8143E050E00E94ED092D
:102AB00068EC70E080E090E00E949B256B817C8157
:102AC00089819A8143E050E00E94ED0968EC70E052
:102AD00080E090E00E949B2569817A818B819C81B6
:102AE00043E050E00E94ED0968EC70E080E090E087
:102AF0000E949B256B817C8189819A8143E050E013
:102B00000E94ED0968EC70E080E090E00E949B2557
:102B100062960FB6F894DEBF0FBECDBFCF91DF91A6
:102B20001F910F9108950F931F93DF93CF93CDB70C
:102B3000DEB729970FB6F894DEBF0FBECDBF8E016A
:102B40000D5F1F4FC80167E373E00E945B2EC80151
:102B50000E948D129A83898384E190E0BE016F5FA9
:102B60007F4F0E94310DC8010E94662E0E941D0FEA
:102B700029960FB6F894DEBF0FBECDBFCF91DF917F
:102B80001F910F9108950F931F93DF93CF93CDB7AC
:102B9000DEB729970FB6F894DEBF0FBECDBF8E010A
:102BA0000D5F1F4FC80167E373E00E945B2EC801F1
:102BB0000E948D129A838983C8010E94662E82E149
:102BC00090E0BE016F5F7F4F0E94310D0E941D0F8C
:102BD00029960FB6F894DEBF0FBECDBFCF91DF911F
:102BE0001F910F9108950F931F93DF93CF93CDB74C
:102BF000DEB764970FB6F894DEBF0FBECDBF8E016F
:102C0000095F1F4FC80167E373E00E945B2EC80194
:102C10000E948D129A838983C8010E94662E8E01BC
:102C2000025F1F4FC8016EE373E00E945B2EC80174
:102C30000E948D129C838B83C8010E94662E89811D
:102C40009A819E838D8380E090E0BE016B5F7F4F11
:102C50000E94880D29813A818D819E818217930778
:102C600051F02B3031053CF080E090E0BE016F5F09
:102C70007F4F0E94310D82E090E0BE016B5F7F4F7D
:102C80000E94880D2B813C818D819E818217930744
:102C900051F02B3031053CF082E090E0BE016D5FD9
:102CA0007F4F0E94310D0E94F10D64960FB6F8948B
:102CB000DEBF0FBECDBFCF91DF911F910F91089561
:102CC000EF92FF920F931F93DF93CF93CDB7DEB7B1
:102CD000FC01EDB6FEB6448155814F5F5F4F8DB765
:102CE0009EB7841B950B0FB6F8949EBF0FBE8DBF89
:102CF0000DB71EB70F5F1F4FCF01B80120E030E0C6
:102D00000E94D02CC8010E9401020FB6F894FEBEAA
:102D10000FBEEDBECF91DF911F910F91FF90EF900D
:102D200008958F929F92AF92BF92CF92DF92EF92CF
:102D3000FF920F931F93DF93CF93CDB7DEB72E97FC
:102D40000FB6F894DEBF0FBECDBF8E010F5F1F4FD1
:102D5000C80167E373E00E945B2EC8010E94601601
:102D60002091FC0130E040E050E00E9406334B012E
:102D70005C01C8010E94662E8E01085F1F4FC801CA
:102D80006EE373E00E945B2EC8010E9460162091E2
:102D9000FC0130E040E050E00E9406336B017C0112
:102DA000C8010E94662E81EA92E0B501A4010E944A
:102DB000F41A85EE92E0B701A6010E94F41A0E946F
:102DC000370A0E945E082E960FB6F894DEBF0FBE3B
:102DD000CDBFCF91DF911F910F91FF90EF90DF90CA
:102DE000CF90BF90AF909F908F900895CF93DF9337
:102DF000EC016BE873E00E94422D882319F00E94D9
:102E00007D118BC0CE0163EC73E00E94422D8823BC
:102E100019F00E94671381C0CE0162E973E00E943D
:102E2000422D882319F00E94011277C0CE0164EF71
:102E300073E00E94422D882319F00E949A146DC0FD
:102E4000CE016BEF73E00E94422D882319F00E949F
:102E5000431463C0CE0167EA73E00E94422D8823C9
:102E600019F00E94911659C0CE016EEA73E00E94DB
:102E7000422D882319F00E94BE124FC0CE0165EB8F
:102E800073E00E94422D882319F00E94121345C05E
:102E9000CE016CEB73E00E94422D882319F00E9452
:102EA000F1143BC0CE016AEC73E00E94422D8823EE
:102EB00019F00E94F31531C0CE0166EE73E00E9456
:102EC000422D882319F00E944A1227C0CE016DEED0
:102ED00073E00E94422D882319F00E94C3151DC083
:102EE000CE0162E074E00E94422D882319F00E9416
:102EF000931513C0CE0168ED73E00E94422D882324
:102F000019F00E947A1009C0CE016FED73E00E94A3
:102F1000422D882319F00E94431081E0DF91CF9168
:102F20000895CF93DF93EC010E94F616882329F4CD
:102F3000CE010E94EE0C0E94A208DF91CF9108956D
:102F40006F927F928F929F92AF92BF92CF92DF92B9
:102F5000EF92FF920F931F93DF93CF93CDB7DEB71E
:102F600027970FB6F894DEBF0FBECDBF4C01FC0112
:102F700064807580AA24BB2400E010E0EE24FF24C6
:102F80006E010894C11CD11C3DC0C401B7010E9450
:102F9000522C8C32A1F5C601B401A50197010E9403
:102FA000F12D02301105B9F0033011053CF4011583
:102FB000110559F001301105C9F40AC0033011059B
:102FC00069F00430110591F40CC080E393E00BC06C
:102FD00087E393E008C08EE393E005C085E493E0C7
:102FE00002C08CE493E0B6010E94442E570108947D
:102FF000A11CB11C0F5F1F4FC6010E94662E0894D2
:10300000E11CF11CE614F7040CF4BFCF0093780226
:1030100027960FB6F894DEBF0FBECDBFCF91DF91DC
:103020001F910F91FF90EF90DF90CF90BF90AF90E6
:103030009F908F907F906F9008953F924F925F92F4
:103040006F927F928F929F92AF92BF92CF92DF92B8
:10305000EF92FF920F931F93DF93CF93CDB7DEB71D
:10306000C655D0400FB6F894DEBF0FBECDBF782E48
:10307000692EAA24BB24B4E28B2E912C8C0E9D1EAB
:1030800019C084EC94E00E940E28182F61E070E0D3
:1030900080E090E00E949B25F401EA0DFB1D108367
:1030A0001A3029F484EC94E00E9437280AC008946E
:1030B000A11CB11C84EC94E00E94DD2718161906AF
:1030C00004F3A4E24A2E512C4C0E5D1EA40CB51C38
:1030D000F5011082872D962DB2010E94BE2D8E0122
:1030E0000F5F1F4FC80165EE71E00E94BE2D872D56
:1030F000962DB8010E94C22C5C01C8010E94662E68
:10310000FFEFAF16FFEFBF0609F46BC03324339413
:1031100030920904F8E0EF2EF12CEC0EFD1EA50113
:103120004F5F5F4FC701672D762D0E94382E8E01AD
:10313000015F1F4FC801B7010E945B2EC8010E94AA
:1031400060166B017C01C8010E94662E8E010A5E2A
:103150001F4FC801672D762D40E050E095010E9479
:10316000F12D872D962DB8010E94442EC8010E9492
:10317000662E8E01035E1F4FC801672D762D0E94BB
:103180005B2EC8010E94B9064B015C01C8010E9478
:10319000662E8C149D04AE04BF0419F4309288028C
:1031A0001BC084EC94E068EB72E00E94162984EC6A
:1031B00094E0B2010E94AF2B84EC94E06FEA72E0DD
:1031C0000E94162984EC94E0B501A4012AE030E0C5
:1031D0000E946C2A10928802CE0108960E94662EE8
:1031E00004C01092090410928802872D962DCA5AA5
:1031F000DF4F0FB6F894DEBF0FBECDBFCF91DF918A
:103200001F910F91FF90EF90DF90CF90BF90AF9004
:103210009F908F907F906F905F904F903F90089518
:10322000AF92BF92CF92DF92EF92FF920F931F93D4
:10323000DF93CF93CDB7DEB727970FB6F894DEBFF5
:103240000FBECDBFB82EA92E0E9467256B010B2D96
:103250001A2DC8016CE671E00E94BE2D7E01089413
:10326000E11CF11C29C00E9467256C197D09209181
:103270000A0230910B02261737072CF40E94A2088D
:103280000E9467256B01C7010E941D18C801B70184
:103290000E94442EC7010E94662E80910904882353
:1032A00059F080918802882339F40E949B08C80154
:1032B0006CE671E00E94D82DF80184819581892BFC
:1032C00091F20E9467250E946725609379027093AE
:1032D0007A0280937B0290937C0260937D027093CC
:1032E0007E0280937F02909380028B2D9A2D2796E9
:1032F0000FB6F894DEBF0FBECDBFCF91DF911F9107
:103300000F91FF90EF90DF90CF90BF90AF90089516
:10331000EF92FF920F931F93DF93CF93CDB7DEB75A
:1033200027970FB6F894DEBF0FBECDBF7C0164E8CF
:1033300073E00E94FD2C882371F08E010F5F1F4FF8
:10334000C801B7010E945B2EC8010E94A017C801E6
:103350000E94662E81E027960FB6F894DEBF0FBE5E
:10336000CDBFCF91DF911F910F91FF90EF90089506
:10337000CF92DF92FF920F931F93DF93CF93CDB73E
:10338000DEB72E970FB6F894DEBF0FBECDBF6C012F
:103390008E010F5F1F4FC801B6010E945B2EC8014E
:1033A0000E948819F82EC8010E94662EFF20C1F0E5
:1033B0008E01085F1F4FC80161E872E00E945B2E1A
:1033C000C8010E949117C8010E94662EC6016CE6D2
:1033D00071E00E94D82D109288020E94A20811C0AC
:1033E00084EC94E068EA72E00E94162984EC94E090
:1033F000B6010E94C22B84EC94E06AE972E00E945C
:103400005929109278022E960FB6F894DEBF0FBE9F
:10341000CDBFCF91DF911F910F91FF90DF90CF90A3
:103420000895EF92FF920F931F93DF93CF93CDB741
:10343000DEB727970FB6F894DEBF0FBECDBF8E0163
:103440000F5F1F4FC8010E94101981E8E82E82E02B
:10345000F82EC701B8010E94442EC8010E94662EB2
:10346000C7010E94B81927960FB6F894DEBF0FBEA9
:10347000CDBFCF91DF911F910F91FF90EF900895F5
:10348000AF92BF92CF92DF92EF92FF920F931F9372
:1034900004EC14E0C80140E051EE60E070E00E94EE
:1034A0005627C8016EEB72E00E941629C8010E94DF
:1034B00039290E941D0F0E94CA0921EAA22E22E08A
:1034C000B22E4091FD015091FE016091FF0170917B
:1034D0000002C5010E94EC1C4091010250910202C1
:1034E0006091030270910402C5010E94D01F95EE05
:1034F000C92E92E0D92E4091FD015091FE016091BC
:10350000FF0170910002C6010E94EC1C4091010273
:10351000509102026091030270910402C6010E9460
:10352000D01F6091060270910702882777FD809571
:10353000982F0E9486312091F8013091F901409135
:10354000FA015091FB010E94EB307B018C016091EC
:10355000F6017091F701882777FD8095982F0E94DA
:1035600086319B01AC01C801B7010E943A320E942A
:1035700053317B018C01C501B801A7010E94F41AE7
:10358000C601B801A7010E94F41A86E793E063E53B
:1035900073E00E94442E0E94A2080E94121364EF5E
:1035A00071E080E090E00E949B251F910F91FF90B9
:1035B000EF90DF90CF90BF90AF900895FC012785EA
:1035C00030894189528983859485A585B685281BD4
:1035D000390B4A0B5B0BB901CA010895FC016385E5
:1035E0007485858596850895FC0143875487658792
:1035F00076874787508B618B728B13AA14AA15AA02
:1036000016AA13A214A215A216A208956F927F9271
:103610008F929F92AF92BF92CF92DF92EF92FF92E2
:103620000F931F93CF93DF93EC01AF84B888C988C1
:10363000DA888B859C85AD85BE85A81AB90ACA0A29
:10364000DB0A2B893C894D895E89CA01B9010E9438
:103650003A327B018C012B8D3C8D4D8D5E8DCA01E4
:10366000B9010E9483309B01AC01C801B7010E94DF
:10367000EB300E9453319B01AC01A114B104C10491
:10368000D104B9F462307105810591050CF085C053
:103690001BA21CA21DA21EA280E090E0A0E0B0E050
:1036A0008B8B9C8BAD8BBE8B1BAA1CAA1DAA1EAA42
:1036B0000BC1EBA8FCA80DA91EA91A141B041C041D
:1036C0001D0444F51E141F041006110674F46A1537
:1036D0007B058C059D05B4F5CD5BDF4F8881C35418
:1036E000D040882309F059C02DC0E114F104010530
:1036F000110509F452C06A157B058C059D050CF077
:103700004CC0CD5BDF4F8881C354D040813009F07D
:1037100044C038C01E141F0410061106DCF48827AC
:103720009927DC018A199B09AC09BD0928173907BB
:103730004A075B073CF4CD5BDF4F8881C354D04020
:10374000813059F588279927DC01821B930BA40B44
:10375000B50B1FC0E114F10401051105F1F0882734
:103760009927DC018A199B09AC09BD09281739077B
:103770004A075B0794F4CD5BDF4F8881C354D04088
:10378000882359F488279927DC018E199F09A00BFB
:10379000B10B8BAB9CABADABBEAB6BA87CA88DA8C3
:1037A0009EA86114710481049104A9F48FA998ADB5
:1037B000A9ADBAAD8BAF9CAFADAFBEAFFE01ED5BB7
:1037C000FF4F10821A141B041C041D040CF049C086
:1037D00081E0808346C0ABACBCACCDACDEACC601F6
:1037E000B50120E030E040E050EC0E943A327B012D
:1037F0008C01C401B3010E94863120E030E040E832
:1038000050E40E943A3220E030E040E85FE30E945A
:1038100083309B01AC01C801B7010E94EB309B01D2
:10382000AC01C601B5010E9483307B018C016BAFF6
:103830007CAF8DAF9EAFEF96A880B980CA80DB8049
:10384000EF979501A6010E943632181624F4D8018C
:10385000C70157016D01C501D6018BAF9CAFADAF5C
:10386000BEAF8BA99CA9ADA9BEA90196A11DB11D92
:103870008BAB9CABADABBEAB6BAD7CAD8DAD9EAD44
:103880000E9458316BA37CA38DA39EA360E074E2D9
:1038900084E799E42BAD3CAD4DAD5EAD0E94EB30BD
:1038A0009B01AC016B8B7C8B8D8B9E8BCD5BDF4F3B
:1038B0008881C354D040882339F4DA01C901B05853
:1038C0008B8B9C8BAD8BBE8BDF91CF911F910F911A
:1038D000FF90EF90DF90CF90BF90AF909F908F9030
:1038E0007F906F900895FC0187859089A189B289A6
:1038F00084179507A607B70739F04787508B618B68
:10390000728BCF010E94061B0895CF92DF92EF9237
:10391000FF920F931F93FC018DE392E091838083CC
:10392000128213861486158616861786108A118AC7
:10393000128A0F2EF0E0CF2EF0E0DF2EF0E0EF2E17
:10394000F0E0FF2EF02DC38AD48AE58AF68A00E0E3
:1039500010E020E83FE3078B108F218F328F038F19
:10396000148F258F368F078F10A321A332A313A2A4
:1039700014A215A216A281E090E094A783A78FEF6E
:1039800086A717A210A611A612A61382148215826A
:10399000168270AB67A752AB41AB13AA14AA15AA43
:1039A00016AAC7AAD0AEE1AEF2AEC3AED4AEE5AEB3
:1039B000F6AEFF9601931193219331931082E35455
:1039C000F04017821086118612861F910F91FF908A
:1039D000EF90DF90CF900895EF92FF920F931F9397
:1039E000CF93DF93EC017A018B016F89788D898DFC
:1039F0009A8DA80197010E94E7308823E1F1EF8AB0
:103A0000F88E098F1A8FEF9660E074E284E799E4EC
:103A1000A80197010E94EB30688379838A839B8396
:103A2000EF978BA99CA9ADA9BEA9181619061A066D
:103A30001B060CF52B893C894D895E89CA01B901A9
:103A40000E943A327B018C012B8D3C8D4D8D5E8D19
:103A5000CA01B9010E9483309B01AC01C801B701C2
:103A60000E94EB300E9453316BAB7CAB8DAB9EABB5
:103A7000CE010E94061BDF91CF911F910F91FF9005
:103A8000EF9008954F925F926F927F928F929F92E4
:103A9000AF92BF92CF92DF92EF92FF920F931F935C
:103AA000CF93DF932C017A018B01CB01BA01F20194
:103AB00023893489458956890E94E730882309F48F
:103AC00055C0F201A788B08CC18CD28C350146015B
:103AD00097FA909497F89094C801B701A4019301C4
:103AE0000E94E73088231CF4840173010AC0C801D6
:103AF000B701A60195010E943632181614F486010A
:103B00007501C801B70120E030E040E050E00E94BC
:103B1000E730882331F4F20113A214A215A216A2F1
:103B200020C060E074E284E799E4A80197010E9454
:103B3000EB309F770E945831F20163A374A385A3F1
:103B400096A3E201CD5BDF4F1882C801B70120E0E8
:103B500030E040E050E00E943632181614F481E064
:103B60008883F201E38AF48A058B168BDF91CF916B
:103B70001F910F91FF90EF90DF90CF90BF90AF908B
:103B80009F908F907F906F905F904F900895FC0171
:103B90002389348945895689B901CA010895DC0110
:103BA00012968C911297833001F1843040F4813069
:103BB00089F0ED91FC911197823098F407C086301E
:103BC00011F1883049F1843079F516C00480F5810F
:103BD000E02D1FC0ED91FC9111970680F781E02D3B
:103BE00018C00084F185E02D14C0ED91FC9111976F
:103BF0000284F385E02D0DC0ED91FC9111970484B2
:103C0000F585E02D06C0ED91FC9111970684F785AE
:103C1000E02DCD0109950895ED91FC911197008853
:103C2000F189E02DCD0109950895CF93DF93EC0143
:103C30006B897C898D899E8920E030E040E050E0EE
:103C40000E94363218161CF4EFA5F8A902C0E9A9A3
:103C5000FAA90995DF91CF910895DC0170E06370B6
:103C6000707061307105A9F0623071051CF4672B2A
:103C700041F0089562307105A1F06330710501F5DE
:103C800018C0ED91FC9111970190F081E02D62E058
:103C90000EC0ED91FC9111970190F081E02D63E051
:103CA00006C0ED91FC910190F081E02D61E0099555
:103CB0000895ED91FC910190F081E02D60E009956F
:103CC0000895DC01862F63E00E942533913071F066
:103CD000913018F09230E9F413C0ED91FC911197F6
:103CE0000190F081E02DCD0164E008C0ED91FC91E0
:103CF00011970190F081E02DCD0161E009950895C3
:103D0000ED91FC9111970190F081E02DCD0162E0E1
:103D100009950895DC0170E0637070706130710581
:103D2000A9F0623071051CF4672B41F008956230F0
:103D30007105A1F06330710501F518C0ED91FC919A
:103D400011970190F081E02D65E00EC0ED91FC919E
:103D500011970190F081E02D66E006C0ED91FC9195
:103D60000190F081E02D6AE009950895ED91FC91B4
:103D70000190F081E02D69E009950895DC01862F1E
:103D800066E00E942533923009F1933030F4992394
:103D900059F0913009F03FC010C0943049F194308F
:103DA000F0F09530C1F52EC0ED91FC911197019086
:103DB000F081E02DCD0164E023C0ED91FC911197DD
:103DC0000190F081E02DCD0165E01AC0ED91FC91EC
:103DD00011970190F081E02DCD0161E011C0ED91CE
:103DE000FC9111970190F081E02DCD0163E008C0B6
:103DF000ED91FC9111970190F081E02DCD0162E0F1
:103E000009950895ED91FC9111970190F081E02DB5
:103E1000CD0166E009950895DC0170E0677070706F
:103E20006330710591F1643071054CF461307105B6
:103E3000E1F0623071050CF5672B79F0089565307B
:103E4000710599F16530710544F166307105A9F18C
:103E50006730710509F040C038C0ED91FC911197B1
:103E60000190F081E02D61E02EC0ED91FC91119761
:103E70000190F081E02D65E026C0ED91FC91119755
:103E80000190F081E02D64E01EC0ED91FC9111974E
:103E90000190F081E02D66E016C0ED91FC91119744
:103EA0000190F081E02D62E00EC0ED91FC91119740
:103EB0000190F081E02D6AE006C0ED91FC91019047
:103EC000F081E02D68E009950895ED91FC91019055
:103ED000F081E02D69E009950895CF92DF92EF928D
:103EE000FF920F931F93CF93DF93FC012281243025
:103EF00029F0283019F092E0D92E02C084E0D82EA3
:103F00008F01C0E0D0E0E62EFF24CC24C394F8015A
:103F10002381C7010C2E02C0959587950A94E2F77C
:103F2000678180FD6C25822F0E94782621960F5F85
:103F30001F4FCD1560F3DF91CF911F910F91FF902F
:103F4000EF90DF90CF900895CF93DF93EC01E8815D
:103F5000F9810190F081E02DCD5BDF4F8881C35462
:103F6000D040882311F461E001C063E0CE010995DF
:103F70008BA59CA50E94F425E881F9810190F08130
:103F8000E02DCD5BDF4F8881C354D040882311F4EE
:103F900060E001C062E0CE010995DF91CF91089504
:103FA0006F927F928F929F92AF92BF92CF92DF9249
:103FB000EF92FF920F931F93CF93DF93EC013A019F
:103FC0004B01CB01BA0120E030E040E050E00E941C
:103FD000E730882309F441C0AB8CBC8CCD8CDE8CDF
:103FE000C601B501A40193010E94E7308823A9F11D
:103FF0006BA97CA98DA99EA90E9486317B018C01A9
:10400000C601B501A40193010E94EB309B01AC01F4
:10401000C801B7010E943A320E9453316BAB7CABAE
:104020008DAB9EAB60E070E080E090E4A401930172
:104030000E94EB300E94A13220E034E244E759E4D0
:104040000E943A326FAB78AF89AF9AAF6B8E7C8E9D
:104050008D8E9E8ECE010E94061BDF91CF911F9107
:104060000F91FF90EF90DF90CF90BF90AF909F9017
:104070008F907F906F900895EF92FF920F931F9310
:10408000CF93DF93EC018BA19CA1ADA1BEA10097C2
:10409000A105B10509F44CC00E9475257B018C0176
:1040A0002FA138A549A55AA58BA19CA1ADA1BEA160
:1040B000820F931FA41FB51F82179307A407B5078C
:1040C00030F0E816F9060A071B0758F405C0E81691
:1040D000F9060A071B0760F1E216F3060407150745
:1040E00038F5CD5BDF4F8881C354D0402B853C85AC
:1040F0004D855E85813029F42F5F3F4F4F4F5F4FD5
:1041000004C021503040404050402B873C874D87B1
:104110005E87E881F9816B8567700280F381E02D0D
:10412000CE010995EFA2F8A609A71AA781E001C060
:1041300080E0DF91CF911F910F91FF90EF90089554
:10414000CF93DF93FC01278530894189528983858C
:104150009485A585B685281739074A075B0711F4AA
:1041600080E00FC0EF01CD5BDF4F82179307A407FC
:10417000B5071CF481E0888301C01882CF010E943A
:104180003C20DF91CF910895CF93DF93EC010E9403
:104190003C20882319F0CE010E94061B81E0DF91AC
:1041A000CF910895CF93DF93EC016B897C898D8942
:1041B0009E8920E030E040E050E00E94E730882314
:1041C00069F42F85388949895A898B859C85AD8505
:1041D000BE85281739074A075B0721F0CE010E94E8
:1041E000C420E3CFDF91CF9108950F931F938C01EB
:1041F0000E94731CC8010E94D2201F910F91089544
:10420000FC0180910A048C3090F482838F5F80934C
:104210000A04815090E0FC01EE0FFF1FE80FF91F28
:10422000E55FFB4F88EB9BE09283818308958FEFDE
:1042300082830895DC0112968C91129790E0FC0124
:10424000EE0FFF1FE80FF91FE55FFB4F80818F7BAB
:10425000808312968C916CE00E94253390E0AC0133
:10426000440F551F480F591F440F551F440F551F2A
:1042700020E030E0C901840F951FFC01EE0FFF1F05
:10428000E80FF91FE55FFB4F808186FD05C02F5FBA
:104290003F4F2C30310571F70895FC0122812C30FD
:1042A000B8F58081992787FD909548E850E0481B34
:1042B000590B440F551F440F551F6417750784F0A1
:1042C0008181992787FD909548E552E0481B590B5D
:1042D000440F551F440F551F641775070CF4AB01AD
:1042E00042505040CA01AA2797FDA095BA2F880FC7
:1042F000991FAA1FBB1F4FB7F89430E0F901EE0FCA
:10430000FF1FE20FF31FE55FFB4F928381834FBFD7
:104310000895AF92BF92CF92DF92EF92FF920F93E8
:104320001F93CF93DF93EC019B0182E0603278070B
:104330000CF048C077FF03C020E030E005C0653BCB
:10434000710514F024EB30E000D000D0B9018827CB
:1043500077FD8095982F2881332727FD3095E8E851
:10436000AE2EB12CA21AB30AAA0CBB1CAA0CBB1C01
:10437000CC24B7FCC094DC2CE981FF27E7FDF09545
:1043800028E532E02E1B3F0B220F331F220F331F75
:10439000442737FD4095542FEDB7FEB72183328374
:1043A0004383548320E030E040E050E004EBE02E13
:1043B000F12C012D112D0E94092C9B010F900F90C3
:1043C0000F900F90CE01B9010E944D21DF91CF9146
:1043D0001F910F91FF90EF90DF90CF90BF90AF9023
:1043E0000895CF92DF92EF92FF921F93CF93DF93C6
:1043F000EC01162F7A0169018A818C3008F064C0C3
:10440000862F61E00E9439268A8190E0FC01EE0F40
:10441000FF1FE80FF91FE55FFB4F1F738081807C52
:10442000812B808380E292E08E199F0964E070E026
:104430000E943133688380E699E08C199D0964E01D
:1044400070E00E9431336983AA818A2F6CE00E9458
:104450002533682F70E0AB01440F551F460F571FDF
:10446000440F551F440F551F20E030E0C901840F51
:10447000951FFC01EE0FFF1FE80FF91FE55FFB4FD3
:10448000808186FD15C02F5F3F4F2C30310571F7BD
:1044900024C01092800082E08093810010928500F9
:1044A00010928400B19A80916F00826080936F00B7
:1044B0008A2F90E0FC01EE0FFF1FE80FF91FE55F68
:1044C000FB4F8081806480838A81DF91CF911F912F
:1044D000FF90EF90DF90CF900895672BD1F2E8CF57
:1044E00040E252E020E639E00E94F12108951F9257
:1044F0000F920FB60F9211242F933F934F935F9318
:104500006F937F938F939F93AF93BF93EF93FF939B
:1045100080912F0487FF05C01092850010928400BF
:104520002BC020912F04332727FD309580910A045A
:1045300090E02817390704F580912F04992787FD0B
:104540009095FC01EE0FFF1FE80FF91FE55FFB4F91
:10455000808186FF11C080912F04992787FD909557
:10456000FC01EE0FFF1FE80FF91FE55FFB4F808195
:104570008F7360E00E94782680912F048F5F809374
:104580002F0420912F04332727FD309580910A04B2
:1045900090E0281739070CF04EC080912F048C3022
:1045A0000CF049C0209184003091850080912F0447
:1045B000992787FD9095FC01EE0FFF1FE80FF91F6B
:1045C000E55FFB4F81819281280F391F309389006D
:1045D0002093880080912F04992787FD9095FC01F6
:1045E000EE0FFF1FE80FF91FE55FFB4F808186FF8D
:1045F0002BC080912F04992787FD9095FC01EE0F29
:10460000FF1FE80FF91FE55FFB4F80818F7361E0AB
:104610000E94782619C080E49CE905C0809184003E
:1046200090918500049690938900809388008FEF85
:1046300080932F0409C08091840090918500049696
:1046400080549C4940F3EACFFF91EF91BF91AF9125
:104650009F918F917F916F915F914F913F912F919A
:104660000F900FBE0F901F901895F999FECF72BD55
:1046700061BDF89A80B50895F999FECF1FBA72BD51
:1046800061BD40BD0FB6F894FA9AF99A0FBE08952D
:10469000109231040895E0EBF0E0908193689083EC
:1046A00087708093B1001092B3008BE061E00E94AC
:1046B00039260895E0EBF0E0908193629083877053
:1046C0008093B1001092B40083E061E00E9439262B
:1046D0000895CF93DF938CE060E00E94782688E015
:1046E00060E00E947826C7E0D0E084E060E00E94AD
:1046F00078268091320490E00C2E02C09595879523
:104700000A94E2F780FF03C088E061E002C088E01D
:1047100060E00E94782684E061E00E94782621977C
:104720008FEFCF3FD80709F78CE061E00E94782631
:10473000DF91CF9108950F931F93CF93DF93EC01F7
:10474000142F8A81813029F404E042E058E070E1BE
:1047500008C0823011F080E0E0C000E241E050E8A3
:1047600070E4113041F49B85892F86958695869556
:1047700080FF10C009C01230A1F49B85892F869557
:104780008695869580FD06C0613011F4985F05C05E
:10479000985003C0613019F4905F9B8752C09051CC
:1047A000FCCF133041F48B85613011F4885F01C078
:1047B00088508B8746C0143009F043C08B85613028
:1047C00011F48F5F01C081508B87AB85AF73AB87CE
:1047D000A03148F4B0E0E2E3F2E0EA1BFB0B2081F9
:1047E000AE5DBD4F19C08A2F8051803148F48A2FA9
:1047F00090E0FC01EE5EFD4F2081E2E4F2E01DC09E
:104800008A2F8052803150F4B0E0E2E5F2E0EA1BFA
:10481000FB0B2081AE5FBD4F8C9115C08A2F80535A
:10482000803118F080E020E00EC08A2F90E0FC017B
:10483000EE50FE4F2081E2E6F2E0E81BF90B8081AA
:1048400002C08FEF2FEF3B853F733B879A819130FA
:1048500029F42093B3008093B40004C0923011F483
:1048600027BD88BD242F202B672F652B962F922BD9
:10487000909580913204982390933204143019F566
:10488000303118F4922B90933204832F8051803171
:1048900030F4452B80913204842B80933204832F93
:1048A0008052803130F4572B80913204852B8093D5
:1048B00032043053303160F5702B80913204872BF5
:1048C0008093320425C0832F869586958695833004
:1048D000B1F0843028F4813071F0823070F409C076
:1048E000853081F0853060F0863079F0873081F452
:1048F0000BC0902B0BC0922B09C0942B07C0542BDC
:10490000952B04C0962B02C0702B972B90933204EA
:1049100081E394E00E9469238B85DF91CF911F9101
:104920000F9108950F931F938C018CE061E00E941A
:10493000392687E061E00E94392688E061E00E9424
:10494000392684E061E00E94392610923204C801C1
:104950000E94692387E060E00E9478261F910F91F2
:104960000895DF92EF92FF920F931F938C017B01CA
:10497000D42E81E394E00E949224F801F182E08237
:10498000D2821386F1E0DF1629F580913204817E10
:104990008093320481E394E00E9469238BE061E01C
:1049A0000E94392683E061E00E9439268BE061E0B5
:1049B0000E94782683E061E00E94782681E00E94D0
:1049C0004B2381E00E945A238FEF8093B3008093A2
:1049D000B4002FC082E0D81661F5809132048E7148
:1049E0008093320481E394E00E94692385E061E0D2
:1049F0000E94392686E061E00E94392685E061E068
:104A00000E94782686E061E00E94782684B583685B
:104A100084BD17BC86E061E00E94392684B58362BC
:104A200084BD18BC85E061E00E9439268FEF87BD08
:104A300088BD1F910F91FF90EF90DF9008951F9216
:104A40000F920FB60F9211242F933F938F939F9342
:104A5000AF93BF938091370490913804A0913904AB
:104A6000B0913A0430913B040196A11DB11D232F52
:104A70002D5F2D3720F02D570196A11DB11D2093DC
:104A80003B048093370490933804A0933904B09387
:104A90003A048091330490913404A0913504B0918C
:104AA00036040196A11DB11D809333049093340404
:104AB000A0933504B0933604BF91AF919F918F912D
:104AC0003F912F910F900FBE0F901F9018958FB7A9
:104AD000F894209137043091380440913904509172
:104AE0003A048FBFB901CA0108959FB7F894209185
:104AF000330430913404409135045091360486B526
:104B0000A89B06C08F3F21F02F5F3F4F4F4F5F4F55
:104B10009FBF542F432F322F2227280F311D411DB5
:104B2000511D82E0220F331F441F551F8A95D1F774
:104B3000B901CA0108959B01AC017FB7F894809137
:104B4000330490913404A0913504B091360466B5D5
:104B5000A89B05C06F3F19F00196A11DB11D7FBF35
:104B6000BA2FA92F982F8827860F911DA11DB11D3F
:104B700062E0880F991FAA1FBB1F6A95D1F7BC017D
:104B80002DC0FFB7F8948091330490913404A09124
:104B90003504B0913604E6B5A89B05C0EF3F19F087
:104BA0000196A11DB11DFFBFBA2FA92F982F8827ED
:104BB0008E0F911DA11DB11DE2E0880F991FAA1F44
:104BC000BB1FEA95D1F7861B970B885E9340C8F20E
:104BD000215030404040504068517C4F21153105F4
:104BE0004105510571F60895019739F0880F991F15
:104BF000880F991F02970197F1F70895789484B56B
:104C0000826084BD84B5816084BD85B5826085BDC8
:104C100085B5816085BDEEE6F0E0808181608083AE
:104C2000E1E8F0E010828081826080838081816091
:104C30008083E0E8F0E0808181608083E1EBF0E058
:104C4000808184608083E0EBF0E0808181608083FC
:104C5000EAE7F0E0808184608083808182608083E5
:104C60008081816080838081806880831092C10010
:104C70000895CF93DF93482F50E0CA0181509D4F94
:104C8000FC01349145515D4FFA018491882369F10B
:104C900090E0880F991FFC01E353FD4FA591B4915B
:104CA000FC01E952FD4FC591D491662351F42FB711
:104CB000F8948C91932F909589238C9388818923E4
:104CC0000BC0623061F42FB7F8948C91932F9095BC
:104CD00089238C938881832B88832FBF06C09FB73D
:104CE000F8948C91832B8C939FBFDF91CF91089583
:104CF000482F50E0CA018D5E9C4FFC012491CA01EF
:104D000081509D4FFC01949145515D4FFA013491C2
:104D1000332309F440C0222351F1233071F02430B1
:104D200028F42130A1F0223011F514C02630B1F062
:104D30002730C1F02430D9F404C0809180008F77EF
:104D400003C0809180008F7D8093800010C084B567
:104D50008F7702C084B58F7D84BD09C08091B0007B
:104D60008F7703C08091B0008F7D8093B000E32FD8
:104D7000F0E0EE0FFF1FE952FD4FA591B4912FB760
:104D8000F894662321F48C919095892302C08C912C
:104D9000892B8C932FBF089508951F920F920FB601
:104DA0000F9211242F933F934F938F939F93EF93E1
:104DB000FF938091C00082FD1DC04091C6002091EC
:104DC0007C0430917D042F5F3F4F2F7330708091B2
:104DD0007E0490917F042817390771F0E0917C04DC
:104DE000F0917D04E45CFB4F408330937D0420937D
:104DF0007C0402C08091C600FF91EF919F918F913A
:104E00004F913F912F910F900FBE0F901F901895CB
:104E1000E091D004F091D104E05CFF4F8191919139
:104E200020813181821B930B8F739070892B11F03D
:104E30000E94CC2608951F920F920FB60F92112454
:104E40002F933F938F939F93EF93FF932091C004F1
:104E50003091C1048091C2049091C304281739078E
:104E600031F48091C1008F7D8093C10014C0E09126
:104E7000C204F091C304E058FB4F20818091C2042A
:104E80009091C30401968F7390709093C3048093A4
:104E9000C2042093C600FF91EF919F918F913F91A3
:104EA0002F910F900FBE0F901F901895AF92BF9249
:104EB000DF92EF92FF920F931F93CF93DF93EC015A
:104EC0007A018B01DD24403081EE580780E06807CD
:104ED00080E0780711F0DD24D39491E0A92EB12C65
:104EE000EC89FD89DD2069F0C50108A002C0880FAA
:104EF000991F0A94E2F7808360E079E08DE390E007
:104F000005C0108260E874E88EE190E0A801970186
:104F10000E944433215030404040504056954795C0
:104F20003795279580E12030380720F0DD2011F0FB
:104F3000DD24D6CFE889F9893083EA89FB8920838B
:104F400019A2EE89FF89408121E030E0C9010C8C73
:104F500002C0880F991F0A94E2F7482B4083EE891C
:104F6000FF894081C9010D8C02C0880F991F0A94E6
:104F7000E2F7482B4083EE89FF894081C9010E8CFE
:104F800002C0880F991F0A94E2F7482B4083EE89EC
:104F9000FF8980810F8C02C0220F331F0A94E2F731
:104FA000209528232083DF91CF911F910F91FF90AF
:104FB000EF90DF90BF90AF900895DC011C96ED91CB
:104FC000FC911D97E05CFF4F21913191808191818F
:104FD000281B390B2F733070C9010895DC011C9612
:104FE000ED91FC911D97E05CFF4F20813181E054F1
:104FF000F040DF01AE5BBF4F8D919C911197281758
:10500000390719F42FEF3FEF07C08D919C91E80FFE
:10501000F91F8081282F30E0C9010895DC011C961A
:10502000ED91FC911D97E05CFF4F20813181E054B0
:10503000F040DF01AE5BBF4F8D919C911197281717
:10504000390719F42FEF3FEF10C08D919C91119704
:10505000E80FF91F20818D919C91119701968F7314
:10506000907011969C938E9330E0C9010895DC01F5
:1050700091968C919197882339F05496ED91FC91FB
:105080005597808186FFF9CF91961C920895CF9312
:10509000DF93EC01EE85FF85E05CFF4F20813181DD
:1050A000E054F0402F5F3F4F2F733070DF01AE5B55
:1050B000BF4F8D919C91119728173907D1F3E05C70
:1050C000FF4F80819181E054F040E80FF91F608329
:1050D000EE85FF85E05CFF4F31832083EE89FF89F9
:1050E000208181E090E00F8C02C0880F991F0A9404
:1050F000E2F7282B208381E089A3EC89FD89808158
:105100008064808381E090E0DF91CF9108951092D8
:10511000C7041092C60488EE93E0A0E0B0E080934C
:10512000C8049093C904A093CA04B093CB0483E548
:1051300092E09093C5048093C4048CE394E0909330
:10514000D1048093D00480E894E09093D3048093BA
:10515000D20485EC90E09093D5048093D40484EC41
:1051600090E09093D7048093D60480EC90E09093E5
:10517000D9048093D80481EC90E09093DB04809371
:10518000DA0482EC90E09093DD048093DC0486ECFA
:1051900090E09093DF048093DE0484E08093E00449
:1051A00083E08093E10487E08093E20485E08093CC
:1051B000E30481E08093E4040895CF93DF930E9499
:1051C000FE250E94401AC8E0D7E20E94111A2097DB
:1051D000E1F30E940827F9CFCF92DF92EF92FF927E
:1051E0000F931F93CF93DF937C016B018A01C0E083
:1051F000D0E00FC0D6016D916D01D701ED91FC910A
:105200000190F081E02DC7010995C80FD91F015009
:1052100010400115110571F7CE01DF91CF911F915B
:105220000F91FF90EF90DF90CF900895EF92FF9253
:105230000F931F93CF93DF937C018B01C0E0D0E0ED
:10524000F8010F5F1F4F6491662359F0D701ED916C
:10525000FC910190F081E02DC7010995C80FD91F7D
:10526000EFCFCE01DF91CF911F910F91FF90EF9083
:105270000895EF92FF920F931F938C01DC01ED9143
:10528000FC910190F081E02D6DE009957C01D80141
:10529000ED91FC910190F081E02DC8016AE0099543
:1052A0009C012E0D3F1DC9011F910F91FF90EF90A2
:1052B0000895EF92FF920F931F937C010E9416298D
:1052C0008C01C7010E9439299C01200F311FC9019F
:1052D0001F910F91FF90EF900895CF93DF93EC0112
:1052E0006115710519F420E030E00FC0DB010D906D
:1052F0000020E9F71197A61BB70BE881F98102801E
:10530000F381E02DAD0109959C01C901DF91CF9199
:1053100008954F925F927F928F929F92AF92BF9229
:10532000CF92DF92EF92FF920F931F93DF93CF9371
:10533000CDB7DEB7A1970FB6F894DEBF0FBECDBFD5
:105340002C01742ECB01223008F42AE019A231E29C
:10535000C32ED12CCC0EDD1E822E9924AA24BB2470
:10536000672D752FA50194010E94443379018A01AC
:10537000C801B701A50194010E940633472D461BC1
:105380000894C108D1084A3014F4405D01C0495C5A
:10539000F6014083E114F1040105110521F07E2C92
:1053A0005F2DC801DDCFC201B6010E946D29A19613
:1053B0000FB6F894DEBF0FBECDBFCF91DF911F9126
:1053C0000F91FF90EF90DF90CF90BF90AF909F90A4
:1053D0008F907F905F904F900895DC0121153105EB
:1053E00041F4ED91FC910190F081E02D642F09953D
:1053F00008950E9489290895EF92FF920F931F93B9
:105400009A01E62EFF2400E010E0B801A7010E94F7
:10541000ED291F910F91FF90EF900895CF92DF92A9
:10542000EF92FF920F931F936C01E62E9A01FF24D7
:1054300000E010E0B801A7010E94ED298C01C6012F
:105440000E943929080F191FC8011F910F91FF9061
:10545000EF90DF90CF900895CF92DF92EF92FF927E
:105460000F931F93CF93DF93EC016A017B0121150A
:10547000310541F4E881F9810190F081E02D642F3C
:1054800009951FC02A303105D1F477FF17C0E88194
:10549000F9810190F081E02D6DE209958C0144279E
:1054A0005527BA014C195D096E097F09CE012AE022
:1054B0000E9489299801280F391F04C02AE00E9400
:1054C00089299C01C901DF91CF911F910F91FF9014
:1054D000EF90DF90CF900895EF92FF920F931F937C
:1054E0007C010E942C2A8C01C7010E9439299C0151
:1054F000200F311FC9011F910F91FF90EF90089568
:10550000EF92FF920F931F937B019A010027F7FC04
:105510000095102FB801A7010E942C2A1F910F910E
:10552000FF90EF900895CF92DF92EF92FF920F934A
:105530001F936C017B019A010027F7FC0095102F47
:10554000B801A7010E942C2A8C01C6010E943929AA
:10555000080F191FC8011F910F91FF90EF90DF9066
:10556000CF9008950E946D2908957F928F929F9207
:10557000AF92BF92CF92DF92EF92FF920F931F9361
:10558000CF93DF934C017A018B01722ECB01BA01CC
:10559000A80197010E94EB32882321F0C40167EE35
:1055A00071E021C0C0E0D0E057016801E894D7F86D
:1055B000C601B5012FEF3FEF4FE75FE70E94EB32E7
:1055C000882351F4C601B5012FEF3FEF4FE75FE7A6
:1055D0000E94E730181614F0C1E0D0E0219739F0AE
:1055E000C4016BEE71E00E946D29EC0193C0C8010B
:1055F000B7012FEF3FEF4FE75FE40E9436321816F6
:1056000054F0C801B7012FEF3FEF4FE75FEC0E9466
:10561000E730882324F4C4016FEE71E0E4CFC801C1
:10562000B70120E030E040E050E00E94E73087FD25
:1056300003C0C0E0D0E00EC0D401ED91FC91019018
:10564000F081E02DC4016DE20995EC0117FB109586
:1056500017F9109520E030E040E05FE3DD240BC057
:10566000CA01B90120E030E040E251E40E94EB3091
:105670009B01AC01D394D71498F3C801B7010E94E1
:1056800083305B016C010E9458317B018C01C401A5
:10569000B801A7012AE030E00E94ED29C80FD91F08
:1056A000772039F0C40163EF71E00E946D29C80FC3
:1056B000D91FC801B7010E9484319B01AC01C6010A
:1056C000B5010E94823024C020E030E040E251E485
:1056D0000E943A327B018C010E9453315B016C01C4
:1056E000CC24B7FCC094DC2CC401B601A5012AE08F
:1056F00030E00E942C2AC80FD91FC601B5010E94B4
:1057000086319B01AC01C801B7010E9482307A94B6
:105710007720D1F6CE01DF91CF911F910F91FF90AD
:10572000EF90DF90CF90BF90AF909F908F907F9041
:1057300008950E94B52A0895EF92FF920F931F9348
:105740007C010E94B52A8C01C7010E943929080FEB
:10575000191FC8011F910F91FF90EF900895EF92CC
:10576000FF920F931F937C010E946D298C01C7014A
:105770000E943929080F191FC8011F910F91FF902E
:10578000EF900895AF92BF92CF92DF92EF92FF9287
:105790000F931F93CF93DF935C016B01EE24FF24E3
:1057A000C0E0D0E010C0D501ED91FC9100811181E5
:1057B000C601BE010E94632C682FC501F80109953E
:1057C000E80EF91E2196F60184819581C817D90744
:1057D00050F3C701DF91CF911F910F91FF90EF9090
:1057E000DF90CF90BF90AF900895EF92FF920F930C
:1057F0001F937C010E94C22B8C01C7010E94392992
:105800009C01200F311FC9011F910F91FF90EF9054
:1058100008952F923F924F925F926F927F928F9254
:105820009F92AF92BF92CF92DF92EF92FF920F932F
:105830001F93DF93CF93CDB7DEB73B014C01190126
:105840002A016D897E898F89988D6A197B098C0957
:105850009D09621A730A840A950AA40193010E94A1
:105860000633E218F30804091509A80197010E94FC
:1058700066332A0D3B1D4C1D5D1DB901CA01CF9138
:10588000DF911F910F91FF90EF90DF90CF90BF902D
:10589000AF909F908F907F906F905F904F903F90D0
:1058A0002F900895FC01848195816817790748F449
:1058B0000190F081E02D309721F0E60FF71F8081F5
:1058C000089580E00895FC01848195816817790727
:1058D00048F40190F081E02D309721F0E60FF71F9A
:1058E0008081089580E00895AF92BF92CF92DF92B9
:1058F000EF92FF920F931F93CF93DF93FC015B0115
:105900007A01DB0114962D913C91159721153105F3
:1059100059F184819581009739F18217930720F11D
:105920004817590720F07C010894E108F10800812C
:105930001181C801CFEFDFEF6801CE0CDF1C10C072
:10594000F501608171810E945E029C01009771F0F7
:10595000801B910BE816F90608F0EC01C9010196CD
:10596000C816D90668F702C0CFEFDFEFCE01DF918E
:10597000CF911F910F91FF90EF90DF90CF90BF904C
:10598000AF900895FC01DB014481558114968D91FF
:105990009C911597481B590BCF010E94742C0895B8
:1059A0000F931F93CF93DF93FC018B01411551059A
:1059B000F9F061157105E1F08481958128173907A7
:1059C00018F0FB01108214C041505040EC01C21B82
:1059D000D30B4C175D0708F4EA0160817181620FF7
:1059E000731FC801AE010E944F02C00FD11F188261
:1059F000DF91CF911F910F910895FC01DB0124816C
:105A0000358114964D915C91159724173507A8F0B0
:105A100080819181009789F06D917C91611571056C
:105A200061F0241B350B820F931F0E9431029C01F1
:105A300080E0232B19F481E0089580E00895FC01B3
:105A4000DB0114962D913C91159784819581821BE1
:105A5000930B84179507A0F080819181009781F0C6
:105A60006D917C916115710559F0840F951FA90105
:105A70000E9441029C0180E0232B19F481E00895EB
:105A800080E00895FC01DB012481358114968D911D
:105A90009C9115972817390710F480E00895CF01DD
:105AA00040E050E00E941F2D08950F931F93CF9365
:105AB000DF93EC018B016F5F7F4F888199810E949A
:105AC000A12F009711F480E005C0998388831B8380
:105AD0000A8381E0DF91CF911F910F910895CF93B9
